{
  "_format": "hh-sol-artifact-1",
  "contractName": "WalletLocker",
  "sourceName": "contracts/WalletLocker.sol",
  "abi": [
    {
      "anonymous": false,
      "inputs": [
        {
          "indexed": false,
          "internalType": "address",
          "name": "tokenAddress",
          "type": "address"
        },
        {
          "indexed": false,
          "internalType": "uint256",
          "name": "amount",
          "type": "uint256"
        },
        {
          "indexed": false,
          "internalType": "uint256",
          "name": "releaseTime",
          "type": "uint256"
        },
        {
          "indexed": false,
          "internalType": "uint256",
          "name": "releasePercentage",
          "type": "uint256"
        },
        {
          "indexed": false,
          "internalType": "uint256",
          "name": "ratio",
          "type": "uint256"
        },
        {
          "indexed": false,
          "internalType": "uint256",
          "name": "duration",
          "type": "uint256"
        }
      ],
      "name": "LockWallet",
      "type": "event"
    },
    {
      "anonymous": false,
      "inputs": [
        {
          "indexed": true,
          "internalType": "address",
          "name": "previousOwner",
          "type": "address"
        },
        {
          "indexed": true,
          "internalType": "address",
          "name": "newOwner",
          "type": "address"
        }
      ],
      "name": "OwnershipTransferred",
      "type": "event"
    },
    {
      "anonymous": false,
      "inputs": [
        {
          "indexed": false,
          "internalType": "address",
          "name": "tokenAddress",
          "type": "address"
        }
      ],
      "name": "WithDrew",
      "type": "event"
    },
    {
      "inputs": [
        {
          "internalType": "address",
          "name": "tokenAddress",
          "type": "address"
        },
        {
          "internalType": "uint256",
          "name": "amount",
          "type": "uint256"
        },
        {
          "internalType": "uint256",
          "name": "releaseTime",
          "type": "uint256"
        },
        {
          "internalType": "uint256",
          "name": "releasePercentage",
          "type": "uint256"
        },
        {
          "internalType": "uint256",
          "name": "ratio",
          "type": "uint256"
        },
        {
          "internalType": "uint256",
          "name": "duration",
          "type": "uint256"
        }
      ],
      "name": "lock",
      "outputs": [],
      "stateMutability": "payable",
      "type": "function"
    },
    {
      "inputs": [],
      "name": "owner",
      "outputs": [
        {
          "internalType": "address",
          "name": "",
          "type": "address"
        }
      ],
      "stateMutability": "view",
      "type": "function"
    },
    {
      "inputs": [],
      "name": "renounceOwnership",
      "outputs": [],
      "stateMutability": "nonpayable",
      "type": "function"
    },
    {
      "inputs": [
        {
          "internalType": "address",
          "name": "",
          "type": "address"
        },
        {
          "internalType": "address",
          "name": "",
          "type": "address"
        }
      ],
      "name": "tokenMappingUser",
      "outputs": [
        {
          "internalType": "uint256",
          "name": "amount",
          "type": "uint256"
        },
        {
          "internalType": "address",
          "name": "tokenAddress",
          "type": "address"
        },
        {
          "internalType": "uint256",
          "name": "withdrawAmount",
          "type": "uint256"
        },
        {
          "internalType": "uint256",
          "name": "releaseTime",
          "type": "uint256"
        },
        {
          "internalType": "uint256",
          "name": "releasePercentage",
          "type": "uint256"
        },
        {
          "internalType": "uint256",
          "name": "ratio",
          "type": "uint256"
        },
        {
          "internalType": "uint256",
          "name": "duration",
          "type": "uint256"
        }
      ],
      "stateMutability": "view",
      "type": "function"
    },
    {
      "inputs": [
        {
          "internalType": "address",
          "name": "newOwner",
          "type": "address"
        }
      ],
      "name": "transferOwnership",
      "outputs": [],
      "stateMutability": "nonpayable",
      "type": "function"
    },
    {
      "inputs": [
        {
          "internalType": "address",
          "name": "tokenAddress",
          "type": "address"
        }
      ],
      "name": "withDraw",
      "outputs": [],
      "stateMutability": "nonpayable",
      "type": "function"
    }
  ],
  "bytecode": "0x608060405234801561001057600080fd5b5061002d61002261003260201b60201c565b61003a60201b60201c565b6100fe565b600033905090565b60008060009054906101000a900473ffffffffffffffffffffffffffffffffffffffff169050816000806101000a81548173ffffffffffffffffffffffffffffffffffffffff021916908373ffffffffffffffffffffffffffffffffffffffff1602179055508173ffffffffffffffffffffffffffffffffffffffff168173ffffffffffffffffffffffffffffffffffffffff167f8be0079c531659141344cd1fd0a4f28419497f9722a3daafe3b4186f6b6457e060405160405180910390a35050565b612055806200010e6000396000f3fe6080604052600436106100555760003560e01c80630a67d2c71461005a5780632b8f080e14610083578063715018a61461009f5780638da5cb5b146100b6578063dfe24c8b146100e1578063f2fde38b14610124575b600080fd5b34801561006657600080fd5b50610081600480360381019061007c919061187a565b61014d565b005b61009d600480360381019061009891906118df565b611025565b005b3480156100ab57600080fd5b506100b4611557565b005b3480156100c257600080fd5b506100cb6115df565b6040516100d89190611ad6565b60405180910390f35b3480156100ed57600080fd5b50610108600480360381019061010391906118a3565b611608565b60405161011b9796959493929190611c51565b60405180910390f35b34801561013057600080fd5b5061014b6004803603810190610146919061187a565b611677565b005b6000600160008373ffffffffffffffffffffffffffffffffffffffff1673ffffffffffffffffffffffffffffffffffffffff16815260200190815260200160002060003373ffffffffffffffffffffffffffffffffffffffff1673ffffffffffffffffffffffffffffffffffffffff168152602001908152602001600020600001541415610210576040517f08c379a000000000000000000000000000000000000000000000000000000000815260040161020790611c31565b60405180910390fd5b42600160008373ffffffffffffffffffffffffffffffffffffffff1673ffffffffffffffffffffffffffffffffffffffff16815260200190815260200160002060003373ffffffffffffffffffffffffffffffffffffffff1673ffffffffffffffffffffffffffffffffffffffff16815260200190815260200160002060030154106102d1576040517f08c379a00000000000000000000000000000000000000000000000000000000081526004016102c890611c11565b60405180910390fd5b6000600160008373ffffffffffffffffffffffffffffffffffffffff1673ffffffffffffffffffffffffffffffffffffffff16815260200190815260200160002060003373ffffffffffffffffffffffffffffffffffffffff1673ffffffffffffffffffffffffffffffffffffffff168152602001908152602001600020600401541415610547576000600160008373ffffffffffffffffffffffffffffffffffffffff1673ffffffffffffffffffffffffffffffffffffffff16815260200190815260200160002060003373ffffffffffffffffffffffffffffffffffffffff1673ffffffffffffffffffffffffffffffffffffffff168152602001908152602001600020600001549050600160008373ffffffffffffffffffffffffffffffffffffffff1673ffffffffffffffffffffffffffffffffffffffff16815260200190815260200160002060003373ffffffffffffffffffffffffffffffffffffffff1673ffffffffffffffffffffffffffffffffffffffff1681526020019081526020016000206000808201600090556001820160006101000a81549073ffffffffffffffffffffffffffffffffffffffff02191690556002820160009055600382016000905560048201600090556005820160009055600682016000905550508173ffffffffffffffffffffffffffffffffffffffff1663a9059cbb33836040518363ffffffff1660e01b81526004016104ee929190611af1565b602060405180830381600087803b15801561050857600080fd5b505af115801561051c573d6000803e3d6000fd5b505050506040513d601f19601f820116820180604052508101906105409190611968565b5050611022565b6000600160008373ffffffffffffffffffffffffffffffffffffffff1673ffffffffffffffffffffffffffffffffffffffff16815260200190815260200160002060003373ffffffffffffffffffffffffffffffffffffffff1673ffffffffffffffffffffffffffffffffffffffff16815260200190815260200160002060020154600160008473ffffffffffffffffffffffffffffffffffffffff1673ffffffffffffffffffffffffffffffffffffffff16815260200190815260200160002060003373ffffffffffffffffffffffffffffffffffffffff1673ffffffffffffffffffffffffffffffffffffffff168152602001908152602001600020600001546106539190611d5c565b9050600081141561073957600160008373ffffffffffffffffffffffffffffffffffffffff1673ffffffffffffffffffffffffffffffffffffffff16815260200190815260200160002060003373ffffffffffffffffffffffffffffffffffffffff1673ffffffffffffffffffffffffffffffffffffffff1681526020019081526020016000206000808201600090556001820160006101000a81549073ffffffffffffffffffffffffffffffffffffffff0219169055600282016000905560038201600090556004820160009055600582016000905560068201600090555050611020565b6000600160008473ffffffffffffffffffffffffffffffffffffffff1673ffffffffffffffffffffffffffffffffffffffff16815260200190815260200160002060003373ffffffffffffffffffffffffffffffffffffffff1673ffffffffffffffffffffffffffffffffffffffff16815260200190815260200160002060050154600160008573ffffffffffffffffffffffffffffffffffffffff1673ffffffffffffffffffffffffffffffffffffffff16815260200190815260200160002060003373ffffffffffffffffffffffffffffffffffffffff1673ffffffffffffffffffffffffffffffffffffffff16815260200190815260200160002060040154600160008673ffffffffffffffffffffffffffffffffffffffff1673ffffffffffffffffffffffffffffffffffffffff16815260200190815260200160002060003373ffffffffffffffffffffffffffffffffffffffff1673ffffffffffffffffffffffffffffffffffffffff16815260200190815260200160002060000154600160008773ffffffffffffffffffffffffffffffffffffffff1673ffffffffffffffffffffffffffffffffffffffff16815260200190815260200160002060003373ffffffffffffffffffffffffffffffffffffffff1673ffffffffffffffffffffffffffffffffffffffff16815260200190815260200160002060060154600160008873ffffffffffffffffffffffffffffffffffffffff1673ffffffffffffffffffffffffffffffffffffffff16815260200190815260200160002060003373ffffffffffffffffffffffffffffffffffffffff1673ffffffffffffffffffffffffffffffffffffffff16815260200190815260200160002060030154426109c69190611d5c565b6109d09190611cd1565b6109da9190611d02565b6109e49190611d02565b6109ee9190611cd1565b905080600160008573ffffffffffffffffffffffffffffffffffffffff1673ffffffffffffffffffffffffffffffffffffffff16815260200190815260200160002060003373ffffffffffffffffffffffffffffffffffffffff1673ffffffffffffffffffffffffffffffffffffffff168152602001908152602001600020600001541015610afa57600160008473ffffffffffffffffffffffffffffffffffffffff1673ffffffffffffffffffffffffffffffffffffffff16815260200190815260200160002060003373ffffffffffffffffffffffffffffffffffffffff1673ffffffffffffffffffffffffffffffffffffffff1681526020019081526020016000206000015490505b600160008473ffffffffffffffffffffffffffffffffffffffff1673ffffffffffffffffffffffffffffffffffffffff16815260200190815260200160002060003373ffffffffffffffffffffffffffffffffffffffff1673ffffffffffffffffffffffffffffffffffffffff168152602001908152602001600020600201548111610bbb576040517f08c379a0000000000000000000000000000000000000000000000000000000008152600401610bb290611b71565b60405180910390fd5b6000600160008573ffffffffffffffffffffffffffffffffffffffff1673ffffffffffffffffffffffffffffffffffffffff16815260200190815260200160002060003373ffffffffffffffffffffffffffffffffffffffff1673ffffffffffffffffffffffffffffffffffffffff168152602001908152602001600020600201549050600160008573ffffffffffffffffffffffffffffffffffffffff1673ffffffffffffffffffffffffffffffffffffffff16815260200190815260200160002060003373ffffffffffffffffffffffffffffffffffffffff1673ffffffffffffffffffffffffffffffffffffffff16815260200190815260200160002060000154811415610da157600160008573ffffffffffffffffffffffffffffffffffffffff1673ffffffffffffffffffffffffffffffffffffffff16815260200190815260200160002060003373ffffffffffffffffffffffffffffffffffffffff1673ffffffffffffffffffffffffffffffffffffffff1681526020019081526020016000206000808201600090556001820160006101000a81549073ffffffffffffffffffffffffffffffffffffffff0219169055600282016000905560038201600090556004820160009055600582016000905560068201600090555050610f84565b81600160008673ffffffffffffffffffffffffffffffffffffffff1673ffffffffffffffffffffffffffffffffffffffff16815260200190815260200160002060003373ffffffffffffffffffffffffffffffffffffffff1673ffffffffffffffffffffffffffffffffffffffff16815260200190815260200160002060020181905550600160008573ffffffffffffffffffffffffffffffffffffffff1673ffffffffffffffffffffffffffffffffffffffff16815260200190815260200160002060003373ffffffffffffffffffffffffffffffffffffffff1673ffffffffffffffffffffffffffffffffffffffff16815260200190815260200160002060000154821415610f8357600160008573ffffffffffffffffffffffffffffffffffffffff1673ffffffffffffffffffffffffffffffffffffffff16815260200190815260200160002060003373ffffffffffffffffffffffffffffffffffffffff1673ffffffffffffffffffffffffffffffffffffffff1681526020019081526020016000206000808201600090556001820160006101000a81549073ffffffffffffffffffffffffffffffffffffffff02191690556002820160009055600382016000905560048201600090556005820160009055600682016000905550505b5b8373ffffffffffffffffffffffffffffffffffffffff1663a9059cbb338385610fad9190611d5c565b6040518363ffffffff1660e01b8152600401610fca929190611af1565b602060405180830381600087803b158015610fe457600080fd5b505af1158015610ff8573d6000803e3d6000fd5b505050506040513d601f19601f8201168201806040525081019061101c9190611968565b5050505b505b50565b6000600160008873ffffffffffffffffffffffffffffffffffffffff1673ffffffffffffffffffffffffffffffffffffffff16815260200190815260200160002060003373ffffffffffffffffffffffffffffffffffffffff1673ffffffffffffffffffffffffffffffffffffffff16815260200190815260200160002060000154146110e7576040517f08c379a00000000000000000000000000000000000000000000000000000000081526004016110de90611bb1565b60405180910390fd5b600085141561112b576040517f08c379a000000000000000000000000000000000000000000000000000000000815260040161112290611bd1565b60405180910390fd5b81831061116d576040517f08c379a000000000000000000000000000000000000000000000000000000000815260040161116490611b51565b60405180910390fd5b8573ffffffffffffffffffffffffffffffffffffffff166323b872dd3330886040518463ffffffff1660e01b81526004016111aa93929190611b1a565b602060405180830381600087803b1580156111c457600080fd5b505af11580156111d8573d6000803e3d6000fd5b505050506040513d601f19601f820116820180604052508101906111fc9190611968565b5084600160008873ffffffffffffffffffffffffffffffffffffffff1673ffffffffffffffffffffffffffffffffffffffff16815260200190815260200160002060003373ffffffffffffffffffffffffffffffffffffffff1673ffffffffffffffffffffffffffffffffffffffff1681526020019081526020016000206000018190555085600160008873ffffffffffffffffffffffffffffffffffffffff1673ffffffffffffffffffffffffffffffffffffffff16815260200190815260200160002060003373ffffffffffffffffffffffffffffffffffffffff1673ffffffffffffffffffffffffffffffffffffffff16815260200190815260200160002060010160006101000a81548173ffffffffffffffffffffffffffffffffffffffff021916908373ffffffffffffffffffffffffffffffffffffffff16021790555083600160008873ffffffffffffffffffffffffffffffffffffffff1673ffffffffffffffffffffffffffffffffffffffff16815260200190815260200160002060003373ffffffffffffffffffffffffffffffffffffffff1673ffffffffffffffffffffffffffffffffffffffff1681526020019081526020016000206003018190555082600160008873ffffffffffffffffffffffffffffffffffffffff1673ffffffffffffffffffffffffffffffffffffffff16815260200190815260200160002060003373ffffffffffffffffffffffffffffffffffffffff1673ffffffffffffffffffffffffffffffffffffffff1681526020019081526020016000206004018190555081600160008873ffffffffffffffffffffffffffffffffffffffff1673ffffffffffffffffffffffffffffffffffffffff16815260200190815260200160002060003373ffffffffffffffffffffffffffffffffffffffff1673ffffffffffffffffffffffffffffffffffffffff1681526020019081526020016000206005018190555080600160008873ffffffffffffffffffffffffffffffffffffffff1673ffffffffffffffffffffffffffffffffffffffff16815260200190815260200160002060003373ffffffffffffffffffffffffffffffffffffffff1673ffffffffffffffffffffffffffffffffffffffff16815260200190815260200160002060060181905550505050505050565b61155f61176f565b73ffffffffffffffffffffffffffffffffffffffff1661157d6115df565b73ffffffffffffffffffffffffffffffffffffffff16146115d3576040517f08c379a00000000000000000000000000000000000000000000000000000000081526004016115ca90611bf1565b60405180910390fd5b6115dd6000611777565b565b60008060009054906101000a900473ffffffffffffffffffffffffffffffffffffffff16905090565b6001602052816000526040600020602052806000526040600020600091509150508060000154908060010160009054906101000a900473ffffffffffffffffffffffffffffffffffffffff16908060020154908060030154908060040154908060050154908060060154905087565b61167f61176f565b73ffffffffffffffffffffffffffffffffffffffff1661169d6115df565b73ffffffffffffffffffffffffffffffffffffffff16146116f3576040517f08c379a00000000000000000000000000000000000000000000000000000000081526004016116ea90611bf1565b60405180910390fd5b600073ffffffffffffffffffffffffffffffffffffffff168173ffffffffffffffffffffffffffffffffffffffff161415611763576040517f08c379a000000000000000000000000000000000000000000000000000000000815260040161175a90611b91565b60405180910390fd5b61176c81611777565b50565b600033905090565b60008060009054906101000a900473ffffffffffffffffffffffffffffffffffffffff169050816000806101000a81548173ffffffffffffffffffffffffffffffffffffffff021916908373ffffffffffffffffffffffffffffffffffffffff1602179055508173ffffffffffffffffffffffffffffffffffffffff168173ffffffffffffffffffffffffffffffffffffffff167f8be0079c531659141344cd1fd0a4f28419497f9722a3daafe3b4186f6b6457e060405160405180910390a35050565b60008135905061184a81611fda565b92915050565b60008151905061185f81611ff1565b92915050565b60008135905061187481612008565b92915050565b60006020828403121561188c57600080fd5b600061189a8482850161183b565b91505092915050565b600080604083850312156118b657600080fd5b60006118c48582860161183b565b92505060206118d58582860161183b565b9150509250929050565b60008060008060008060c087890312156118f857600080fd5b600061190689828a0161183b565b965050602061191789828a01611865565b955050604061192889828a01611865565b945050606061193989828a01611865565b935050608061194a89828a01611865565b92505060a061195b89828a01611865565b9150509295509295509295565b60006020828403121561197a57600080fd5b600061198884828501611850565b91505092915050565b61199a81611dd8565b82525050565b6119a981611d90565b82525050565b60006119bc600b83611cc0565b91506119c782611e6c565b602082019050919050565b60006119df601683611cc0565b91506119ea82611e95565b602082019050919050565b6000611a02602683611cc0565b9150611a0d82611ebe565b604082019050919050565b6000611a25600783611cc0565b9150611a3082611f0d565b602082019050919050565b6000611a48600c83611cc0565b9150611a5382611f36565b602082019050919050565b6000611a6b602083611cc0565b9150611a7682611f5f565b602082019050919050565b6000611a8e600b83611cc0565b9150611a9982611f88565b602082019050919050565b6000611ab1600a83611cc0565b9150611abc82611fb1565b602082019050919050565b611ad081611dce565b82525050565b6000602082019050611aeb60008301846119a0565b92915050565b6000604082019050611b066000830185611991565b611b136020830184611ac7565b9392505050565b6000606082019050611b2f60008301866119a0565b611b3c60208301856119a0565b611b496040830184611ac7565b949350505050565b60006020820190508181036000830152611b6a816119af565b9050919050565b60006020820190508181036000830152611b8a816119d2565b9050919050565b60006020820190508181036000830152611baa816119f5565b9050919050565b60006020820190508181036000830152611bca81611a18565b9050919050565b60006020820190508181036000830152611bea81611a3b565b9050919050565b60006020820190508181036000830152611c0a81611a5e565b9050919050565b60006020820190508181036000830152611c2a81611a81565b9050919050565b60006020820190508181036000830152611c4a81611aa4565b9050919050565b600060e082019050611c66600083018a611ac7565b611c7360208301896119a0565b611c806040830188611ac7565b611c8d6060830187611ac7565b611c9a6080830186611ac7565b611ca760a0830185611ac7565b611cb460c0830184611ac7565b98975050505050505050565b600082825260208201905092915050565b6000611cdc82611dce565b9150611ce783611dce565b925082611cf757611cf6611e3d565b5b828204905092915050565b6000611d0d82611dce565b9150611d1883611dce565b9250817fffffffffffffffffffffffffffffffffffffffffffffffffffffffffffffffff0483118215151615611d5157611d50611e0e565b5b828202905092915050565b6000611d6782611dce565b9150611d7283611dce565b925082821015611d8557611d84611e0e565b5b828203905092915050565b6000611d9b82611dae565b9050919050565b60008115159050919050565b600073ffffffffffffffffffffffffffffffffffffffff82169050919050565b6000819050919050565b6000611de382611dea565b9050919050565b6000611df582611dfc565b9050919050565b6000611e0782611dae565b9050919050565b7f4e487b7100000000000000000000000000000000000000000000000000000000600052601160045260246000fd5b7f4e487b7100000000000000000000000000000000000000000000000000000000600052601260045260246000fd5b7f524154494f5f4552524f52000000000000000000000000000000000000000000600082015250565b7f574149545f464f525f4e4558545f574954484452415700000000000000000000600082015250565b7f4f776e61626c653a206e6577206f776e657220697320746865207a65726f206160008201527f6464726573730000000000000000000000000000000000000000000000000000602082015250565b7f4558495354454400000000000000000000000000000000000000000000000000600082015250565b7f414d4f554e545f4552524f520000000000000000000000000000000000000000600082015250565b7f4f776e61626c653a2063616c6c6572206973206e6f7420746865206f776e6572600082015250565b7f5354494c4c5f594f554e47000000000000000000000000000000000000000000600082015250565b7f4e4f545f45584953545300000000000000000000000000000000000000000000600082015250565b611fe381611d90565b8114611fee57600080fd5b50565b611ffa81611da2565b811461200557600080fd5b50565b61201181611dce565b811461201c57600080fd5b5056fea26469706673582212203693cc7e9fb2f8502fc48ca3add14d1b8912e324a1f679811106c47400f0781064736f6c63430008040033",
  "linkReferences": {},
  "deployedLinkReferences": {}
}