{"contracts/DeciblingAuction.sol":{"DeciblingAuction":{"abi":[{"inputs":[{"internalType":"address","name":"_tokenAddress","type":"address"},{"internalType":"address payable","name":"_platformFeeRecipient","type":"address"}],"stateMutability":"nonpayable","type":"constructor"},{"anonymous":false,"inputs":[{"indexed":true,"internalType":"address","name":"owner","type":"address"},{"indexed":true,"internalType":"address","name":"approved","type":"address"},{"indexed":true,"internalType":"uint256","name":"tokenId","type":"uint256"}],"name":"Approval","type":"event"},{"anonymous":false,"inputs":[{"indexed":true,"internalType":"address","name":"owner","type":"address"},{"indexed":true,"internalType":"address","name":"operator","type":"address"},{"indexed":false,"internalType":"bool","name":"approved","type":"bool"}],"name":"ApprovalForAll","type":"event"},{"anonymous":false,"inputs":[{"indexed":false,"internalType":"string","name":"uri","type":"string"},{"indexed":false,"internalType":"address","name":"user","type":"address"},{"indexed":false,"internalType":"uint256","name":"amount","type":"uint256"}],"name":"BidPlaced","type":"event"},{"anonymous":false,"inputs":[{"indexed":false,"internalType":"string","name":"uri","type":"string"},{"indexed":false,"internalType":"uint256","name":"startPrice","type":"uint256"},{"indexed":false,"internalType":"uint256","name":"increment","type":"uint256"},{"indexed":false,"internalType":"uint256","name":"startTime","type":"uint256"},{"indexed":false,"internalType":"uint256","name":"endTime","type":"uint256"}],"name":"CreateBid","type":"event"},{"anonymous":false,"inputs":[{"indexed":false,"internalType":"string","name":"uri","type":"string"},{"indexed":false,"internalType":"uint256","name":"index","type":"uint256"}],"name":"CreateNFT","type":"event"},{"anonymous":false,"inputs":[{"indexed":true,"internalType":"address","name":"previousOwner","type":"address"},{"indexed":true,"internalType":"address","name":"newOwner","type":"address"}],"name":"OwnershipTransferred","type":"event"},{"anonymous":false,"inputs":[{"indexed":false,"internalType":"string","name":"uri","type":"string"},{"indexed":false,"internalType":"address","name":"oldowner","type":"address"},{"indexed":false,"internalType":"address","name":"newowner","type":"address"},{"indexed":false,"internalType":"uint256","name":"totalPrice","type":"uint256"},{"indexed":false,"internalType":"uint256","name":"platformValue","type":"uint256"},{"indexed":false,"internalType":"uint256","name":"saleCount","type":"uint256"}],"name":"SettleBid","type":"event"},{"anonymous":false,"inputs":[{"indexed":true,"internalType":"address","name":"from","type":"address"},{"indexed":true,"internalType":"address","name":"to","type":"address"},{"indexed":true,"internalType":"uint256","name":"tokenId","type":"uint256"}],"name":"Transfer","type":"event"},{"anonymous":false,"inputs":[{"indexed":false,"internalType":"string","name":"uri","type":"string"},{"indexed":false,"internalType":"uint256","name":"endtime","type":"uint256"}],"name":"UpdateBidEndTime","type":"event"},{"anonymous":false,"inputs":[{"indexed":false,"internalType":"address payable","name":"platformFeeRecipient","type":"address"}],"name":"UpdatePlatformFeeRecipient","type":"event"},{"anonymous":false,"inputs":[{"indexed":false,"internalType":"uint256","name":"firstSaleFee","type":"uint256"},{"indexed":false,"internalType":"uint256","name":"secondSaleFee","type":"uint256"}],"name":"UpdatePlatformFees","type":"event"},{"inputs":[{"internalType":"address","name":"to","type":"address"},{"internalType":"uint256","name":"tokenId","type":"uint256"}],"name":"approve","outputs":[],"stateMutability":"nonpayable","type":"function"},{"inputs":[{"internalType":"uint256","name":"","type":"uint256"}],"name":"auctions","outputs":[{"internalType":"address","name":"winner","type":"address"},{"internalType":"uint256","name":"startPrice","type":"uint256"},{"internalType":"uint256","name":"increment","type":"uint256"},{"internalType":"uint256","name":"startTime","type":"uint256"},{"internalType":"uint256","name":"endTime","type":"uint256"},{"internalType":"bool","name":"resulted","type":"bool"}],"stateMutability":"view","type":"function"},{"inputs":[{"internalType":"address","name":"owner","type":"address"}],"name":"balanceOf","outputs":[{"internalType":"uint256","name":"","type":"uint256"}],"stateMutability":"view","type":"function"},{"inputs":[{"internalType":"string","name":"uri","type":"string"},{"internalType":"uint256","name":"_amount","type":"uint256"}],"name":"bid","outputs":[],"stateMutability":"payable","type":"function"},{"inputs":[{"internalType":"string","name":"uri","type":"string"},{"internalType":"uint256","name":"startPrice","type":"uint256"},{"internalType":"uint256","name":"increment","type":"uint256"},{"internalType":"uint256","name":"startTime","type":"uint256"},{"internalType":"uint256","name":"endTime","type":"uint256"}],"name":"createBidding","outputs":[],"stateMutability":"nonpayable","type":"function"},{"inputs":[{"internalType":"string","name":"uri","type":"string"},{"internalType":"string","name":"name","type":"string"}],"name":"createNFT","outputs":[],"stateMutability":"nonpayable","type":"function"},{"inputs":[],"name":"firstSaleFee","outputs":[{"internalType":"uint256","name":"","type":"uint256"}],"stateMutability":"view","type":"function"},{"inputs":[{"internalType":"uint256","name":"tokenId","type":"uint256"}],"name":"getApproved","outputs":[{"internalType":"address","name":"","type":"address"}],"stateMutability":"view","type":"function"},{"inputs":[{"internalType":"address","name":"owner","type":"address"},{"internalType":"address","name":"operator","type":"address"}],"name":"isApprovedForAll","outputs":[{"internalType":"bool","name":"","type":"bool"}],"stateMutability":"view","type":"function"},{"inputs":[{"internalType":"string","name":"","type":"string"}],"name":"listNFT","outputs":[{"internalType":"address","name":"owner","type":"address"},{"internalType":"string","name":"name","type":"string"},{"internalType":"uint256","name":"price","type":"uint256"},{"internalType":"uint256","name":"saleCount","type":"uint256"},{"internalType":"enum DeciblingAuction.AudioStatus","name":"status","type":"uint8"}],"stateMutability":"view","type":"function"},{"inputs":[],"name":"name","outputs":[{"internalType":"string","name":"","type":"string"}],"stateMutability":"view","type":"function"},{"inputs":[],"name":"owner","outputs":[{"internalType":"address","name":"","type":"address"}],"stateMutability":"view","type":"function"},{"inputs":[{"internalType":"uint256","name":"tokenId","type":"uint256"}],"name":"ownerOf","outputs":[{"internalType":"address","name":"","type":"address"}],"stateMutability":"view","type":"function"},{"inputs":[],"name":"renounceOwnership","outputs":[],"stateMutability":"nonpayable","type":"function"},{"inputs":[{"internalType":"address","name":"from","type":"address"},{"internalType":"address","name":"to","type":"address"},{"internalType":"uint256","name":"tokenId","type":"uint256"}],"name":"safeTransferFrom","outputs":[],"stateMutability":"nonpayable","type":"function"},{"inputs":[{"internalType":"address","name":"from","type":"address"},{"internalType":"address","name":"to","type":"address"},{"internalType":"uint256","name":"tokenId","type":"uint256"},{"internalType":"bytes","name":"data","type":"bytes"}],"name":"safeTransferFrom","outputs":[],"stateMutability":"nonpayable","type":"function"},{"inputs":[],"name":"secondSaleFee","outputs":[{"internalType":"uint256","name":"","type":"uint256"}],"stateMutability":"view","type":"function"},{"inputs":[{"internalType":"address","name":"operator","type":"address"},{"internalType":"bool","name":"approved","type":"bool"}],"name":"setApprovalForAll","outputs":[],"stateMutability":"nonpayable","type":"function"},{"inputs":[{"internalType":"string","name":"uri","type":"string"}],"name":"settleBiddingSession","outputs":[],"stateMutability":"payable","type":"function"},{"inputs":[{"internalType":"bytes4","name":"interfaceId","type":"bytes4"}],"name":"supportsInterface","outputs":[{"internalType":"bool","name":"","type":"bool"}],"stateMutability":"view","type":"function"},{"inputs":[],"name":"symbol","outputs":[{"internalType":"string","name":"","type":"string"}],"stateMutability":"view","type":"function"},{"inputs":[{"internalType":"string","name":"","type":"string"}],"name":"tokenIdMapping","outputs":[{"internalType":"uint256","name":"","type":"uint256"}],"stateMutability":"view","type":"function"},{"inputs":[{"internalType":"uint256","name":"tokenId","type":"uint256"}],"name":"tokenURI","outputs":[{"internalType":"string","name":"","type":"string"}],"stateMutability":"view","type":"function"},{"inputs":[{"internalType":"uint256","name":"","type":"uint256"}],"name":"topBids","outputs":[{"internalType":"address","name":"user","type":"address"},{"internalType":"uint256","name":"price","type":"uint256"},{"internalType":"uint256","name":"timestamp","type":"uint256"}],"stateMutability":"view","type":"function"},{"inputs":[{"internalType":"address","name":"from","type":"address"},{"internalType":"address","name":"to","type":"address"},{"internalType":"uint256","name":"tokenId","type":"uint256"}],"name":"transferFrom","outputs":[],"stateMutability":"nonpayable","type":"function"},{"inputs":[{"internalType":"address","name":"newOwner","type":"address"}],"name":"transferOwnership","outputs":[],"stateMutability":"nonpayable","type":"function"},{"inputs":[{"internalType":"string","name":"uri","type":"string"},{"internalType":"uint256","name":"endtime","type":"uint256"}],"name":"updateBidEndtime","outputs":[],"stateMutability":"nonpayable","type":"function"},{"inputs":[{"internalType":"address payable","name":"_platformFeeRecipient","type":"address"}],"name":"updatePlatformFeeRecipient","outputs":[],"stateMutability":"nonpayable","type":"function"},{"inputs":[{"internalType":"uint256","name":"_firstSaleFee","type":"uint256"},{"internalType":"uint256","name":"_secondSaleFee","type":"uint256"}],"name":"updatePlatformFees","outputs":[],"stateMutability":"nonpayable","type":"function"}],"evm":{"bytecode":{"linkReferences":{},"object":"6080604052607d600a556064600b553480156200001b57600080fd5b50604051620064e9380380620064e983398181016040528101906200004191906200046d565b6040518060400160405280600981526020017f44656369626c696e6700000000000000000000000000000000000000000000008152506040518060400160405280600281526020017f64420000000000000000000000000000000000000000000000000000000000008152508160009080519060200190620000c59291906200030e565b508060019080519060200190620000de9291906200030e565b50505062000101620000f56200024060201b60201c565b6200024860201b60201c565b6001600781905550600073ffffffffffffffffffffffffffffffffffffffff168273ffffffffffffffffffffffffffffffffffffffff1614158015620001745750600073ffffffffffffffffffffffffffffffffffffffff168173ffffffffffffffffffffffffffffffffffffffff1614155b620001b6576040517f08c379a0000000000000000000000000000000000000000000000000000000008152600401620001ad9062000515565b60405180910390fd5b81600960006101000a81548173ffffffffffffffffffffffffffffffffffffffff021916908373ffffffffffffffffffffffffffffffffffffffff16021790555080600c60006101000a81548173ffffffffffffffffffffffffffffffffffffffff021916908373ffffffffffffffffffffffffffffffffffffffff16021790555050506200059c565b600033905090565b6000600660009054906101000a900473ffffffffffffffffffffffffffffffffffffffff16905081600660006101000a81548173ffffffffffffffffffffffffffffffffffffffff021916908373ffffffffffffffffffffffffffffffffffffffff1602179055508173ffffffffffffffffffffffffffffffffffffffff168173ffffffffffffffffffffffffffffffffffffffff167f8be0079c531659141344cd1fd0a4f28419497f9722a3daafe3b4186f6b6457e060405160405180910390a35050565b8280546200031c9062000566565b90600052602060002090601f0160209004810192826200034057600085556200038c565b82601f106200035b57805160ff19168380011785556200038c565b828001600101855582156200038c579182015b828111156200038b5782518255916020019190600101906200036e565b5b5090506200039b91906200039f565b5090565b5b80821115620003ba576000816000905550600101620003a0565b5090565b600080fd5b600073ffffffffffffffffffffffffffffffffffffffff82169050919050565b6000620003f082620003c3565b9050919050565b6200040281620003e3565b81146200040e57600080fd5b50565b6000815190506200042281620003f7565b92915050565b60006200043582620003c3565b9050919050565b620004478162000428565b81146200045357600080fd5b50565b60008151905062000467816200043c565b92915050565b60008060408385031215620004875762000486620003be565b5b6000620004978582860162000411565b9250506020620004aa8582860162000456565b9150509250929050565b600082825260208201905092915050565b7f3334000000000000000000000000000000000000000000000000000000000000600082015250565b6000620004fd600283620004b4565b91506200050a82620004c5565b602082019050919050565b600060208201905081810360008301526200053081620004ee565b9050919050565b7f4e487b7100000000000000000000000000000000000000000000000000000000600052602260045260246000fd5b600060028204905060018216806200057f57607f821691505b6020821081141562000596576200059562000537565b5b50919050565b615f3d80620005ac6000396000f3fe6080604052600436106101c25760003560e01c806370a08231116100f7578063b95fb84e11610095578063f2fde38b11610064578063f2fde38b14610684578063f5fe7f71146106ad578063fcc6f66d146106d6578063ff41edbc14610701576101c2565b8063b95fb84e146105b8578063be06d53e146105e1578063c87b56dd1461060a578063e985e9c514610647576101c2565b806395d89b41116100d157806395d89b41146104fe578063a22cb46514610529578063b88d4fde14610552578063b88eabdd1461057b576101c2565b806370a082311461047f578063715018a6146104bc5780638da5cb5b146104d3576101c2565b806342842e0e11610164578063571a26a01161013e578063571a26a0146103bb5780635f483313146103fd5780636352211e1461041957806368613d1714610456576101c2565b806342842e0e146103265780634387330e1461034f5780634874b2f414610390576101c2565b8063081812fc116101a0578063081812fc1461026e578063095ea7b3146102ab57806323b872dd146102d45780633c909e93146102fd576101c2565b8063010d9813146101c757806301ffc9a71461020657806306fdde0314610243575b600080fd5b3480156101d357600080fd5b506101ee60048036038101906101e99190613ddf565b61071d565b6040516101fd93929190613e5c565b60405180910390f35b34801561021257600080fd5b5061022d60048036038101906102289190613eeb565b610767565b60405161023a9190613f33565b60405180910390f35b34801561024f57600080fd5b50610258610849565b6040516102659190613fe7565b60405180910390f35b34801561027a57600080fd5b5061029560048036038101906102909190613ddf565b6108db565b6040516102a29190614009565b60405180910390f35b3480156102b757600080fd5b506102d260048036038101906102cd9190614050565b610921565b005b3480156102e057600080fd5b506102fb60048036038101906102f69190614090565b610a39565b005b34801561030957600080fd5b50610324600480360381019061031f91906140e3565b610a99565b005b34801561033257600080fd5b5061034d60048036038101906103489190614090565b610aec565b005b34801561035b57600080fd5b5061037660048036038101906103719190614258565b610b0c565b604051610387959493929190614318565b60405180910390f35b34801561039c57600080fd5b506103a5610c0d565b6040516103b29190614372565b60405180910390f35b3480156103c757600080fd5b506103e260048036038101906103dd9190613ddf565b610c13565b6040516103f49695949392919061438d565b60405180910390f35b610417600480360381019061041291906143ee565b610c7c565b005b34801561042557600080fd5b50610440600480360381019061043b9190613ddf565b611250565b60405161044d9190614009565b60405180910390f35b34801561046257600080fd5b5061047d600480360381019061047891906144aa565b6112d7565b005b34801561048b57600080fd5b506104a660048036038101906104a1919061452b565b611642565b6040516104b39190614372565b60405180910390f35b3480156104c857600080fd5b506104d16116fa565b005b3480156104df57600080fd5b506104e861170e565b6040516104f59190614009565b60405180910390f35b34801561050a57600080fd5b50610513611738565b6040516105209190613fe7565b60405180910390f35b34801561053557600080fd5b50610550600480360381019061054b9190614584565b6117ca565b005b34801561055e57600080fd5b5061057960048036038101906105749190614665565b6117e0565b005b34801561058757600080fd5b506105a2600480360381019061059d9190614258565b611842565b6040516105af9190614372565b60405180910390f35b3480156105c457600080fd5b506105df60048036038101906105da91906143ee565b611870565b005b3480156105ed57600080fd5b50610608600480360381019061060391906146e8565b611c46565b005b34801561061657600080fd5b50610631600480360381019061062c9190613ddf565b61207e565b60405161063e9190613fe7565b60405180910390f35b34801561065357600080fd5b5061066e60048036038101906106699190614782565b6120e6565b60405161067b9190613f33565b60405180910390f35b34801561069057600080fd5b506106ab60048036038101906106a6919061452b565b61217a565b005b3480156106b957600080fd5b506106d460048036038101906106cf9190614800565b6121fe565b005b3480156106e257600080fd5b506106eb6122f1565b6040516106f89190614372565b60405180910390f35b61071b60048036038101906107169190614258565b6122f7565b005b60106020528060005260406000206000915090508060000160009054906101000a900473ffffffffffffffffffffffffffffffffffffffff16908060010154908060020154905083565b60007f80ac58cd000000000000000000000000000000000000000000000000000000007bffffffffffffffffffffffffffffffffffffffffffffffffffffffff1916827bffffffffffffffffffffffffffffffffffffffffffffffffffffffff1916148061083257507f5b5e139f000000000000000000000000000000000000000000000000000000007bffffffffffffffffffffffffffffffffffffffffffffffffffffffff1916827bffffffffffffffffffffffffffffffffffffffffffffffffffffffff1916145b80610842575061084182612bdb565b5b9050919050565b6060600080546108589061485c565b80601f01602080910402602001604051908101604052809291908181526020018280546108849061485c565b80156108d15780601f106108a6576101008083540402835291602001916108d1565b820191906000526020600020905b8154815290600101906020018083116108b457829003601f168201915b5050505050905090565b60006108e682612c45565b6004600083815260200190815260200160002060009054906101000a900473ffffffffffffffffffffffffffffffffffffffff169050919050565b600061092c82611250565b90508073ffffffffffffffffffffffffffffffffffffffff168373ffffffffffffffffffffffffffffffffffffffff16141561099d576040517f08c379a000000000000000000000000000000000000000000000000000000000815260040161099490614900565b60405180910390fd5b8073ffffffffffffffffffffffffffffffffffffffff166109bc612c90565b73ffffffffffffffffffffffffffffffffffffffff1614806109eb57506109ea816109e5612c90565b6120e6565b5b610a2a576040517f08c379a0000000000000000000000000000000000000000000000000000000008152600401610a2190614992565b60405180910390fd5b610a348383612c98565b505050565b610a4a610a44612c90565b82612d51565b610a89576040517f08c379a0000000000000000000000000000000000000000000000000000000008152600401610a8090614a24565b60405180910390fd5b610a94838383612de6565b505050565b610aa16130e0565b81600a8190555080600b819055507f36ac9417f4c4141853b0a7cba911657b2d3d3a399db1e48e7430dd66ce91692d8282604051610ae0929190614a44565b60405180910390a15050565b610b07838383604051806020016040528060008152506117e0565b505050565b600d818051602081018201805184825260208301602085012081835280955050505050506000915090508060000160009054906101000a900473ffffffffffffffffffffffffffffffffffffffff1690806001018054610b6b9061485c565b80601f0160208091040260200160405190810160405280929190818152602001828054610b979061485c565b8015610be45780601f10610bb957610100808354040283529160200191610be4565b820191906000526020600020905b815481529060010190602001808311610bc757829003601f168201915b5050505050908060020154908060030154908060040160009054906101000a900460ff16905085565b600a5481565b600f6020528060005260406000206000915090508060000160009054906101000a900473ffffffffffffffffffffffffffffffffffffffff16908060010154908060020154908060030154908060040154908060050160009054906101000a900460ff16905086565b610c8461315e565b6000600d83604051610c969190614aa9565b908152602001604051809103902090506000600e84604051610cb89190614aa9565b90815260200160405180910390205490503373ffffffffffffffffffffffffffffffffffffffff168260000160009054906101000a900473ffffffffffffffffffffffffffffffffffffffff1673ffffffffffffffffffffffffffffffffffffffff161415610d5c576040517f08c379a0000000000000000000000000000000000000000000000000000000008152600401610d5390614b0c565b60405180910390fd5b6000600e85604051610d6e9190614aa9565b90815260200160405180910390205411610dbd576040517f08c379a0000000000000000000000000000000000000000000000000000000008152600401610db490614b78565b60405180910390fd5b600180811115610dd057610dcf6142a1565b5b8260040160009054906101000a900460ff166001811115610df457610df36142a1565b5b14610e34576040517f08c379a0000000000000000000000000000000000000000000000000000000008152600401610e2b90614be4565b60405180910390fd5b6000600f60008381526020019081526020016000209050610e536131ae565b816003015411158015610e7157508060040154610e6e6131ae565b11155b610eb0576040517f08c379a0000000000000000000000000000000000000000000000000000000008152600401610ea790614c50565b60405180910390fd5b600960009054906101000a900473ffffffffffffffffffffffffffffffffffffffff1673ffffffffffffffffffffffffffffffffffffffff166323b872dd3330876040518463ffffffff1660e01b8152600401610f0f93929190614c70565b602060405180830381600087803b158015610f2957600080fd5b505af1158015610f3d573d6000803e3d6000fd5b505050506040513d601f19601f82011682018060405250810190610f619190614cbc565b610fa0576040517f08c379a0000000000000000000000000000000000000000000000000000000008152600401610f9790614b78565b60405180910390fd5b600060106000848152602001908152602001600020905060008160000160009054906101000a900473ffffffffffffffffffffffffffffffffffffffff169050600082600101549050600073ffffffffffffffffffffffffffffffffffffffff168273ffffffffffffffffffffffffffffffffffffffff1614156110665780871015611061576040517f08c379a000000000000000000000000000000000000000000000000000000000815260040161105890614d35565b60405180910390fd5b6111a7565b8360020154816110769190614d84565b8710156110b8576040517f08c379a00000000000000000000000000000000000000000000000000000000081526004016110af90614d35565b60405180910390fd5b600960009054906101000a900473ffffffffffffffffffffffffffffffffffffffff1673ffffffffffffffffffffffffffffffffffffffff1663a9059cbb83836040518363ffffffff1660e01b8152600401611115929190614dda565b602060405180830381600087803b15801561112f57600080fd5b505af1158015611143573d6000803e3d6000fd5b505050506040513d601f19601f820116820180604052508101906111679190614cbc565b6111a6576040517f08c379a000000000000000000000000000000000000000000000000000000000815260040161119d90614b78565b60405180910390fd5b5b338360000160006101000a81548173ffffffffffffffffffffffffffffffffffffffff021916908373ffffffffffffffffffffffffffffffffffffffff1602179055508683600101819055506111fb6131ae565b83600201819055507f027aaa4de8a8577ab88766593b19e891945e65f7d03ad3551436d3db7feed23388338960405161123693929190614e03565b60405180910390a150505050505061124c6131b6565b5050565b60008061125c836131c0565b9050600073ffffffffffffffffffffffffffffffffffffffff168173ffffffffffffffffffffffffffffffffffffffff1614156112ce576040517f08c379a00000000000000000000000000000000000000000000000000000000081526004016112c590614e8d565b60405180910390fd5b80915050919050565b600084848080601f016020809104026020016040519081016040528093929190818152602001838380828437600081840152601f19601f820116905080830192505050505050509050600081511415611365576040517f08c379a000000000000000000000000000000000000000000000000000000000815260040161135c90614ef9565b60405180910390fd5b600083838080601f016020809104026020016040519081016040528093929190818152602001838380828437600081840152601f19601f8201169050808301925050505050505090506000815114156113f3576040517f08c379a00000000000000000000000000000000000000000000000000000000081526004016113ea90614f65565b60405180910390fd5b6000600e8787604051611407929190614faa565b90815260200160405180910390205414611456576040517f08c379a000000000000000000000000000000000000000000000000000000000815260040161144d9061500f565b60405180910390fd5b61146060086131fd565b600061146c6008613213565b90506114783382613221565b80600e888860405161148b929190614faa565b9081526020016040518091039020819055506040518060a001604052803373ffffffffffffffffffffffffffffffffffffffff16815260200186868080601f016020809104026020016040519081016040528093929190818152602001838380828437600081840152601f19601f8201169050808301925050505050505081526020016000815260200160008152602001600060018111156115305761152f6142a1565b5b815250600d8888604051611545929190614faa565b908152602001604051809103902060008201518160000160006101000a81548173ffffffffffffffffffffffffffffffffffffffff021916908373ffffffffffffffffffffffffffffffffffffffff16021790555060208201518160010190805190602001906115b6929190613cf2565b50604082015181600201556060820151816003015560808201518160040160006101000a81548160ff021916908360018111156115f6576115f56142a1565b5b02179055509050507f59e3e0f1aabce96b386d212c7c9563c597464cb2f714aa8cf022346ea95cfbc68787836040516116319392919061505c565b60405180910390a150505050505050565b60008073ffffffffffffffffffffffffffffffffffffffff168273ffffffffffffffffffffffffffffffffffffffff1614156116b3576040517f08c379a00000000000000000000000000000000000000000000000000000000081526004016116aa90615100565b60405180910390fd5b600360008373ffffffffffffffffffffffffffffffffffffffff1673ffffffffffffffffffffffffffffffffffffffff168152602001908152602001600020549050919050565b6117026130e0565b61170c600061323f565b565b6000600660009054906101000a900473ffffffffffffffffffffffffffffffffffffffff16905090565b6060600180546117479061485c565b80601f01602080910402602001604051908101604052809291908181526020018280546117739061485c565b80156117c05780601f10611795576101008083540402835291602001916117c0565b820191906000526020600020905b8154815290600101906020018083116117a357829003601f168201915b5050505050905090565b6117dc6117d5612c90565b8383613305565b5050565b6117f16117eb612c90565b83612d51565b611830576040517f08c379a000000000000000000000000000000000000000000000000000000000815260040161182790614a24565b60405180910390fd5b61183c84848484613472565b50505050565b600e818051602081018201805184825260208301602085012081835280955050505050506000915090505481565b6118786130e0565b6000600d8360405161188a9190614aa9565b908152602001604051809103902090506000600e846040516118ac9190614aa9565b90815260200160405180910390205490503373ffffffffffffffffffffffffffffffffffffffff168260000160009054906101000a900473ffffffffffffffffffffffffffffffffffffffff1673ffffffffffffffffffffffffffffffffffffffff16148061194d57503373ffffffffffffffffffffffffffffffffffffffff1661193561170e565b73ffffffffffffffffffffffffffffffffffffffff16145b61198c576040517f08c379a00000000000000000000000000000000000000000000000000000000081526004016119839061516c565b60405180910390fd5b6000600e8560405161199e9190614aa9565b908152602001604051809103902054116119ed576040517f08c379a00000000000000000000000000000000000000000000000000000000081526004016119e490614b78565b60405180910390fd5b600180811115611a00576119ff6142a1565b5b8260040160009054906101000a900460ff166001811115611a2457611a236142a1565b5b14611a64576040517f08c379a0000000000000000000000000000000000000000000000000000000008152600401611a5b90614be4565b60405180910390fd5b6000600f600083815260200190815260200160002090508060050160009054906101000a900460ff1615611acd576040517f08c379a0000000000000000000000000000000000000000000000000000000008152600401611ac490614ef9565b60405180910390fd5b8060040154611ada6131ae565b10611b1a576040517f08c379a0000000000000000000000000000000000000000000000000000000008152600401611b11906151d8565b60405180910390fd5b6000816004015411611b61576040517f08c379a0000000000000000000000000000000000000000000000000000000008152600401611b5890615244565b60405180910390fd5b83816003015410611ba7576040517f08c379a0000000000000000000000000000000000000000000000000000000008152600401611b9e906152b0565b60405180910390fd5b61012c611bb26131ae565b611bbc9190614d84565b8411611bfd576040517f08c379a0000000000000000000000000000000000000000000000000000000008152600401611bf49061531c565b60405180910390fd5b8381600401819055507facf5feaf01a2b58e31c33e934d0c35924ca8bbd81db430bd81d7a2211bffc0318585604051611c3792919061533c565b60405180910390a15050505050565b6000600d8787604051611c5a929190614faa565b908152602001604051809103902090506000600e8888604051611c7e929190614faa565b9081526020016040518091039020549050828410611cd1576040517f08c379a0000000000000000000000000000000000000000000000000000000008152600401611cc8906153b8565b60405180910390fd5b6000600e8989604051611ce5929190614faa565b90815260200160405180910390205411611d34576040517f08c379a0000000000000000000000000000000000000000000000000000000008152600401611d2b90614b78565b60405180910390fd5b3373ffffffffffffffffffffffffffffffffffffffff168260000160009054906101000a900473ffffffffffffffffffffffffffffffffffffffff1673ffffffffffffffffffffffffffffffffffffffff1614611dc6576040517f08c379a0000000000000000000000000000000000000000000000000000000008152600401611dbd9061516c565b60405180910390fd5b611dce6131ae565b8311611e0f576040517f08c379a0000000000000000000000000000000000000000000000000000000008152600401611e0690615424565b60405180910390fd5b60006001811115611e2357611e226142a1565b5b8260040160009054906101000a900460ff166001811115611e4757611e466142a1565b5b14611e87576040517f08c379a0000000000000000000000000000000000000000000000000000000008152600401611e7e90614be4565b60405180910390fd5b60008511611eca576040517f08c379a0000000000000000000000000000000000000000000000000000000008152600401611ec190615490565b60405180910390fd5b61012c84611ed89190614d84565b831015611f1a576040517f08c379a0000000000000000000000000000000000000000000000000000000008152600401611f11906154fc565b60405180910390fd5b6040518060c00160405280600073ffffffffffffffffffffffffffffffffffffffff16815260200187815260200186815260200185815260200184815260200160001515815250600f600083815260200190815260200160002060008201518160000160006101000a81548173ffffffffffffffffffffffffffffffffffffffff021916908373ffffffffffffffffffffffffffffffffffffffff1602179055506020820151816001015560408201518160020155606082015181600301556080820151816004015560a08201518160050160006101000a81548160ff02191690831515021790555090505060018260040160006101000a81548160ff0219169083600181111561202e5761202d6142a1565b5b02179055507f63f381f48ee15f142676f98f2e372636463db4fe612c8bd998b1b5b57149d9d288888888888860405161206c9695949392919061551c565b60405180910390a15050505050505050565b606061208982612c45565b60006120936134ce565b905060008151116120b357604051806020016040528060008152506120de565b806120bd846134e5565b6040516020016120ce929190615578565b6040516020818303038152906040525b915050919050565b6000600560008473ffffffffffffffffffffffffffffffffffffffff1673ffffffffffffffffffffffffffffffffffffffff16815260200190815260200160002060008373ffffffffffffffffffffffffffffffffffffffff1673ffffffffffffffffffffffffffffffffffffffff16815260200190815260200160002060009054906101000a900460ff16905092915050565b6121826130e0565b600073ffffffffffffffffffffffffffffffffffffffff168173ffffffffffffffffffffffffffffffffffffffff1614156121f2576040517f08c379a00000000000000000000000000000000000000000000000000000000081526004016121e99061560e565b60405180910390fd5b6121fb8161323f565b50565b6122066130e0565b600073ffffffffffffffffffffffffffffffffffffffff168173ffffffffffffffffffffffffffffffffffffffff161415612276576040517f08c379a000000000000000000000000000000000000000000000000000000000815260040161226d9061567a565b60405180910390fd5b80600c60006101000a81548173ffffffffffffffffffffffffffffffffffffffff021916908373ffffffffffffffffffffffffffffffffffffffff1602179055507fe57e7c1f36cc83fade34e32351e6eee7eb9da532662b1b5da10c631e8222aca7816040516122e691906156a9565b60405180910390a150565b600b5481565b6122ff61315e565b6000600d826040516123119190614aa9565b908152602001604051809103902090506000600e836040516123339190614aa9565b90815260200160405180910390205490503373ffffffffffffffffffffffffffffffffffffffff168260000160009054906101000a900473ffffffffffffffffffffffffffffffffffffffff1673ffffffffffffffffffffffffffffffffffffffff1614806123d457503373ffffffffffffffffffffffffffffffffffffffff166123bc61170e565b73ffffffffffffffffffffffffffffffffffffffff16145b612413576040517f08c379a000000000000000000000000000000000000000000000000000000000815260040161240a9061516c565b60405180910390fd5b6000600e846040516124259190614aa9565b90815260200160405180910390205411612474576040517f08c379a000000000000000000000000000000000000000000000000000000000815260040161246b90614b78565b60405180910390fd5b600180811115612487576124866142a1565b5b8260040160009054906101000a900460ff1660018111156124ab576124aa6142a1565b5b146124eb576040517f08c379a00000000000000000000000000000000000000000000000000000000081526004016124e290614be4565b60405180910390fd5b600073ffffffffffffffffffffffffffffffffffffffff16600c60009054906101000a900473ffffffffffffffffffffffffffffffffffffffff1673ffffffffffffffffffffffffffffffffffffffff16141561257d576040517f08c379a000000000000000000000000000000000000000000000000000000000815260040161257490615710565b60405180910390fd5b6000600f600083815260200190815260200160002090508060050160009054906101000a900460ff16156125e6576040517f08c379a00000000000000000000000000000000000000000000000000000000081526004016125dd90614ef9565b60405180910390fd5b6125ee6131ae565b816003015410801561260a575080600401546126086131ae565b115b612649576040517f08c379a00000000000000000000000000000000000000000000000000000000081526004016126409061577c565b60405180910390fd5b600060106000848152602001908152602001600020905060008160000160009054906101000a900473ffffffffffffffffffffffffffffffffffffffff169050600073ffffffffffffffffffffffffffffffffffffffff168173ffffffffffffffffffffffffffffffffffffffff1614156126f9576040517f08c379a00000000000000000000000000000000000000000000000000000000081526004016126f0906157e8565b60405180910390fd5b60008260010154905060018460050160006101000a81548160ff02191690831515021790555060106000868152602001908152602001600020600080820160006101000a81549073ffffffffffffffffffffffffffffffffffffffff02191690556001820160009055600282016000905550506000808760000160009054906101000a900473ffffffffffffffffffffffffffffffffffffffff169050600088600301541480156127ac57506000600a54115b156127e1576127da6103e86127cc600a54866135bd90919063ffffffff16565b6135d390919063ffffffff16565b915061280d565b61280a6103e86127fc600b54866135bd90919063ffffffff16565b6135d390919063ffffffff16565b91505b6000821415612851576040517f08c379a000000000000000000000000000000000000000000000000000000000815260040161284890615854565b60405180910390fd5b600960009054906101000a900473ffffffffffffffffffffffffffffffffffffffff1673ffffffffffffffffffffffffffffffffffffffff1663a9059cbb82848661289c9190615874565b6040518363ffffffff1660e01b81526004016128b9929190614dda565b602060405180830381600087803b1580156128d357600080fd5b505af11580156128e7573d6000803e3d6000fd5b505050506040513d601f19601f8201168201806040525081019061290b9190614cbc565b61294a576040517f08c379a000000000000000000000000000000000000000000000000000000000815260040161294190614b78565b60405180910390fd5b600960009054906101000a900473ffffffffffffffffffffffffffffffffffffffff1673ffffffffffffffffffffffffffffffffffffffff1663a9059cbb600c60009054906101000a900473ffffffffffffffffffffffffffffffffffffffff16846040518363ffffffff1660e01b81526004016129c9929190615907565b602060405180830381600087803b1580156129e357600080fd5b505af11580156129f7573d6000803e3d6000fd5b505050506040513d601f19601f82011682018060405250810190612a1b9190614cbc565b612a5a576040517f08c379a0000000000000000000000000000000000000000000000000000000008152600401612a5190614b78565b60405180910390fd5b612a838185600e8c604051612a6f9190614aa9565b908152602001604051809103902054610aec565b838860000160006101000a81548173ffffffffffffffffffffffffffffffffffffffff021916908373ffffffffffffffffffffffffffffffffffffffff160217905550828860020181905550612ae7600189600301546135e990919063ffffffff16565b886003018190555060008860040160006101000a81548160ff02191690836001811115612b1757612b166142a1565b5b0217905550838660000160006101000a81548173ffffffffffffffffffffffffffffffffffffffff021916908373ffffffffffffffffffffffffffffffffffffffff1602179055507f116ab0c03bfff8d9996e5c0d5ebdd4daf07ee1141c125826627d3015920f553089828860000160009054906101000a900473ffffffffffffffffffffffffffffffffffffffff1686868d60030154604051612bc096959493929190615930565b60405180910390a15050505050505050612bd86131b6565b50565b60007f01ffc9a7000000000000000000000000000000000000000000000000000000007bffffffffffffffffffffffffffffffffffffffffffffffffffffffff1916827bffffffffffffffffffffffffffffffffffffffffffffffffffffffff1916149050919050565b612c4e816135ff565b612c8d576040517f08c379a0000000000000000000000000000000000000000000000000000000008152600401612c8490614e8d565b60405180910390fd5b50565b600033905090565b816004600083815260200190815260200160002060006101000a81548173ffffffffffffffffffffffffffffffffffffffff021916908373ffffffffffffffffffffffffffffffffffffffff160217905550808273ffffffffffffffffffffffffffffffffffffffff16612d0b83611250565b73ffffffffffffffffffffffffffffffffffffffff167f8c5be1e5ebec7d5bd14f71427d1e84f3dd0314c0f7b2291e5b200ac8c7c3b92560405160405180910390a45050565b600080612d5d83611250565b90508073ffffffffffffffffffffffffffffffffffffffff168473ffffffffffffffffffffffffffffffffffffffff161480612d9f5750612d9e81856120e6565b5b80612ddd57508373ffffffffffffffffffffffffffffffffffffffff16612dc5846108db565b73ffffffffffffffffffffffffffffffffffffffff16145b91505092915050565b8273ffffffffffffffffffffffffffffffffffffffff16612e0682611250565b73ffffffffffffffffffffffffffffffffffffffff1614612e5c576040517f08c379a0000000000000000000000000000000000000000000000000000000008152600401612e5390615a0a565b60405180910390fd5b600073ffffffffffffffffffffffffffffffffffffffff168273ffffffffffffffffffffffffffffffffffffffff161415612ecc576040517f08c379a0000000000000000000000000000000000000000000000000000000008152600401612ec390615a9c565b60405180910390fd5b612ed98383836001613640565b8273ffffffffffffffffffffffffffffffffffffffff16612ef982611250565b73ffffffffffffffffffffffffffffffffffffffff1614612f4f576040517f08c379a0000000000000000000000000000000000000000000000000000000008152600401612f4690615a0a565b60405180910390fd5b6004600082815260200190815260200160002060006101000a81549073ffffffffffffffffffffffffffffffffffffffff02191690556001600360008573ffffffffffffffffffffffffffffffffffffffff1673ffffffffffffffffffffffffffffffffffffffff168152602001908152602001600020600082825403925050819055506001600360008473ffffffffffffffffffffffffffffffffffffffff1673ffffffffffffffffffffffffffffffffffffffff16815260200190815260200160002060008282540192505081905550816002600083815260200190815260200160002060006101000a81548173ffffffffffffffffffffffffffffffffffffffff021916908373ffffffffffffffffffffffffffffffffffffffff160217905550808273ffffffffffffffffffffffffffffffffffffffff168473ffffffffffffffffffffffffffffffffffffffff167fddf252ad1be2c89b69c2b068fc378daa952ba7f163c4a11628f55a4df523b3ef60405160405180910390a46130db8383836001613766565b505050565b6130e8612c90565b73ffffffffffffffffffffffffffffffffffffffff1661310661170e565b73ffffffffffffffffffffffffffffffffffffffff161461315c576040517f08c379a000000000000000000000000000000000000000000000000000000000815260040161315390615b08565b60405180910390fd5b565b600260075414156131a4576040517f08c379a000000000000000000000000000000000000000000000000000000000815260040161319b90615b74565b60405180910390fd5b6002600781905550565b600042905090565b6001600781905550565b60006002600083815260200190815260200160002060009054906101000a900473ffffffffffffffffffffffffffffffffffffffff169050919050565b6001816000016000828254019250508190555050565b600081600001549050919050565b61323b82826040518060200160405280600081525061376c565b5050565b6000600660009054906101000a900473ffffffffffffffffffffffffffffffffffffffff16905081600660006101000a81548173ffffffffffffffffffffffffffffffffffffffff021916908373ffffffffffffffffffffffffffffffffffffffff1602179055508173ffffffffffffffffffffffffffffffffffffffff168173ffffffffffffffffffffffffffffffffffffffff167f8be0079c531659141344cd1fd0a4f28419497f9722a3daafe3b4186f6b6457e060405160405180910390a35050565b8173ffffffffffffffffffffffffffffffffffffffff168373ffffffffffffffffffffffffffffffffffffffff161415613374576040517f08c379a000000000000000000000000000000000000000000000000000000000815260040161336b90615be0565b60405180910390fd5b80600560008573ffffffffffffffffffffffffffffffffffffffff1673ffffffffffffffffffffffffffffffffffffffff16815260200190815260200160002060008473ffffffffffffffffffffffffffffffffffffffff1673ffffffffffffffffffffffffffffffffffffffff16815260200190815260200160002060006101000a81548160ff0219169083151502179055508173ffffffffffffffffffffffffffffffffffffffff168373ffffffffffffffffffffffffffffffffffffffff167f17307eab39ab6107e8899845ad3d59bd9653f200f220920489ca2b5937696c31836040516134659190613f33565b60405180910390a3505050565b61347d848484612de6565b613489848484846137c7565b6134c8576040517f08c379a00000000000000000000000000000000000000000000000000000000081526004016134bf90615c72565b60405180910390fd5b50505050565b606060405180602001604052806000815250905090565b6060600060016134f48461395e565b01905060008167ffffffffffffffff8111156135135761351261412d565b5b6040519080825280601f01601f1916602001820160405280156135455781602001600182028036833780820191505090505b509050600082602001820190505b6001156135b2578080600190039150507f3031323334353637383961626364656600000000000000000000000000000000600a86061a8153600a858161359c5761359b615c92565b5b04945060008514156135ad576135b2565b613553565b819350505050919050565b600081836135cb9190615cc1565b905092915050565b600081836135e19190615d1b565b905092915050565b600081836135f79190614d84565b905092915050565b60008073ffffffffffffffffffffffffffffffffffffffff16613621836131c0565b73ffffffffffffffffffffffffffffffffffffffff1614159050919050565b600181111561376057600073ffffffffffffffffffffffffffffffffffffffff168473ffffffffffffffffffffffffffffffffffffffff16146136d45780600360008673ffffffffffffffffffffffffffffffffffffffff1673ffffffffffffffffffffffffffffffffffffffff16815260200190815260200160002060008282546136cc9190615874565b925050819055505b600073ffffffffffffffffffffffffffffffffffffffff168373ffffffffffffffffffffffffffffffffffffffff161461375f5780600360008573ffffffffffffffffffffffffffffffffffffffff1673ffffffffffffffffffffffffffffffffffffffff16815260200190815260200160002060008282546137579190614d84565b925050819055505b5b50505050565b50505050565b6137768383613ab1565b61378360008484846137c7565b6137c2576040517f08c379a00000000000000000000000000000000000000000000000000000000081526004016137b990615c72565b60405180910390fd5b505050565b60006137e88473ffffffffffffffffffffffffffffffffffffffff16613ccf565b15613951578373ffffffffffffffffffffffffffffffffffffffff1663150b7a02613811612c90565b8786866040518563ffffffff1660e01b81526004016138339493929190615da1565b602060405180830381600087803b15801561384d57600080fd5b505af192505050801561387e57506040513d601f19601f8201168201806040525081019061387b9190615e02565b60015b613901573d80600081146138ae576040519150601f19603f3d011682016040523d82523d6000602084013e6138b3565b606091505b506000815114156138f9576040517f08c379a00000000000000000000000000000000000000000000000000000000081526004016138f090615c72565b60405180910390fd5b805181602001fd5b63150b7a0260e01b7bffffffffffffffffffffffffffffffffffffffffffffffffffffffff1916817bffffffffffffffffffffffffffffffffffffffffffffffffffffffff191614915050613956565b600190505b949350505050565b600080600090507a184f03e93ff9f4daa797ed6e38ed64bf6a1f01000000000000000083106139bc577a184f03e93ff9f4daa797ed6e38ed64bf6a1f01000000000000000083816139b2576139b1615c92565b5b0492506040810190505b6d04ee2d6d415b85acef810000000083106139f9576d04ee2d6d415b85acef810000000083816139ef576139ee615c92565b5b0492506020810190505b662386f26fc100008310613a2857662386f26fc100008381613a1e57613a1d615c92565b5b0492506010810190505b6305f5e1008310613a51576305f5e1008381613a4757613a46615c92565b5b0492506008810190505b6127108310613a76576127108381613a6c57613a6b615c92565b5b0492506004810190505b60648310613a995760648381613a8f57613a8e615c92565b5b0492506002810190505b600a8310613aa8576001810190505b80915050919050565b600073ffffffffffffffffffffffffffffffffffffffff168273ffffffffffffffffffffffffffffffffffffffff161415613b21576040517f08c379a0000000000000000000000000000000000000000000000000000000008152600401613b1890615e7b565b60405180910390fd5b613b2a816135ff565b15613b6a576040517f08c379a0000000000000000000000000000000000000000000000000000000008152600401613b6190615ee7565b60405180910390fd5b613b78600083836001613640565b613b81816135ff565b15613bc1576040517f08c379a0000000000000000000000000000000000000000000000000000000008152600401613bb890615ee7565b60405180910390fd5b6001600360008473ffffffffffffffffffffffffffffffffffffffff1673ffffffffffffffffffffffffffffffffffffffff16815260200190815260200160002060008282540192505081905550816002600083815260200190815260200160002060006101000a81548173ffffffffffffffffffffffffffffffffffffffff021916908373ffffffffffffffffffffffffffffffffffffffff160217905550808273ffffffffffffffffffffffffffffffffffffffff16600073ffffffffffffffffffffffffffffffffffffffff167fddf252ad1be2c89b69c2b068fc378daa952ba7f163c4a11628f55a4df523b3ef60405160405180910390a4613ccb600083836001613766565b5050565b6000808273ffffffffffffffffffffffffffffffffffffffff163b119050919050565b828054613cfe9061485c565b90600052602060002090601f016020900481019282613d205760008555613d67565b82601f10613d3957805160ff1916838001178555613d67565b82800160010185558215613d67579182015b82811115613d66578251825591602001919060010190613d4b565b5b509050613d749190613d78565b5090565b5b80821115613d91576000816000905550600101613d79565b5090565b6000604051905090565b600080fd5b600080fd5b6000819050919050565b613dbc81613da9565b8114613dc757600080fd5b50565b600081359050613dd981613db3565b92915050565b600060208284031215613df557613df4613d9f565b5b6000613e0384828501613dca565b91505092915050565b600073ffffffffffffffffffffffffffffffffffffffff82169050919050565b6000613e3782613e0c565b9050919050565b613e4781613e2c565b82525050565b613e5681613da9565b82525050565b6000606082019050613e716000830186613e3e565b613e7e6020830185613e4d565b613e8b6040830184613e4d565b949350505050565b60007fffffffff0000000000000000000000000000000000000000000000000000000082169050919050565b613ec881613e93565b8114613ed357600080fd5b50565b600081359050613ee581613ebf565b92915050565b600060208284031215613f0157613f00613d9f565b5b6000613f0f84828501613ed6565b91505092915050565b60008115159050919050565b613f2d81613f18565b82525050565b6000602082019050613f486000830184613f24565b92915050565b600081519050919050565b600082825260208201905092915050565b60005b83811015613f88578082015181840152602081019050613f6d565b83811115613f97576000848401525b50505050565b6000601f19601f8301169050919050565b6000613fb982613f4e565b613fc38185613f59565b9350613fd3818560208601613f6a565b613fdc81613f9d565b840191505092915050565b600060208201905081810360008301526140018184613fae565b905092915050565b600060208201905061401e6000830184613e3e565b92915050565b61402d81613e2c565b811461403857600080fd5b50565b60008135905061404a81614024565b92915050565b6000806040838503121561406757614066613d9f565b5b60006140758582860161403b565b925050602061408685828601613dca565b9150509250929050565b6000806000606084860312156140a9576140a8613d9f565b5b60006140b78682870161403b565b93505060206140c88682870161403b565b92505060406140d986828701613dca565b9150509250925092565b600080604083850312156140fa576140f9613d9f565b5b600061410885828601613dca565b925050602061411985828601613dca565b9150509250929050565b600080fd5b600080fd5b7f4e487b7100000000000000000000000000000000000000000000000000000000600052604160045260246000fd5b61416582613f9d565b810181811067ffffffffffffffff821117156141845761418361412d565b5b80604052505050565b6000614197613d95565b90506141a3828261415c565b919050565b600067ffffffffffffffff8211156141c3576141c261412d565b5b6141cc82613f9d565b9050602081019050919050565b82818337600083830152505050565b60006141fb6141f6846141a8565b61418d565b90508281526020810184848401111561421757614216614128565b5b6142228482856141d9565b509392505050565b600082601f83011261423f5761423e614123565b5b813561424f8482602086016141e8565b91505092915050565b60006020828403121561426e5761426d613d9f565b5b600082013567ffffffffffffffff81111561428c5761428b613da4565b5b6142988482850161422a565b91505092915050565b7f4e487b7100000000000000000000000000000000000000000000000000000000600052602160045260246000fd5b600281106142e1576142e06142a1565b5b50565b60008190506142f2826142d0565b919050565b6000614302826142e4565b9050919050565b614312816142f7565b82525050565b600060a08201905061432d6000830188613e3e565b818103602083015261433f8187613fae565b905061434e6040830186613e4d565b61435b6060830185613e4d565b6143686080830184614309565b9695505050505050565b60006020820190506143876000830184613e4d565b92915050565b600060c0820190506143a26000830189613e3e565b6143af6020830188613e4d565b6143bc6040830187613e4d565b6143c96060830186613e4d565b6143d66080830185613e4d565b6143e360a0830184613f24565b979650505050505050565b6000806040838503121561440557614404613d9f565b5b600083013567ffffffffffffffff81111561442357614422613da4565b5b61442f8582860161422a565b925050602061444085828601613dca565b9150509250929050565b600080fd5b600080fd5b60008083601f84011261446a57614469614123565b5b8235905067ffffffffffffffff8111156144875761448661444a565b5b6020830191508360018202830111156144a3576144a261444f565b5b9250929050565b600080600080604085870312156144c4576144c3613d9f565b5b600085013567ffffffffffffffff8111156144e2576144e1613da4565b5b6144ee87828801614454565b9450945050602085013567ffffffffffffffff81111561451157614510613da4565b5b61451d87828801614454565b925092505092959194509250565b60006020828403121561454157614540613d9f565b5b600061454f8482850161403b565b91505092915050565b61456181613f18565b811461456c57600080fd5b50565b60008135905061457e81614558565b92915050565b6000806040838503121561459b5761459a613d9f565b5b60006145a98582860161403b565b92505060206145ba8582860161456f565b9150509250929050565b600067ffffffffffffffff8211156145df576145de61412d565b5b6145e882613f9d565b9050602081019050919050565b6000614608614603846145c4565b61418d565b90508281526020810184848401111561462457614623614128565b5b61462f8482856141d9565b509392505050565b600082601f83011261464c5761464b614123565b5b813561465c8482602086016145f5565b91505092915050565b6000806000806080858703121561467f5761467e613d9f565b5b600061468d8782880161403b565b945050602061469e8782880161403b565b93505060406146af87828801613dca565b925050606085013567ffffffffffffffff8111156146d0576146cf613da4565b5b6146dc87828801614637565b91505092959194509250565b60008060008060008060a0878903121561470557614704613d9f565b5b600087013567ffffffffffffffff81111561472357614722613da4565b5b61472f89828a01614454565b9650965050602061474289828a01613dca565b945050604061475389828a01613dca565b935050606061476489828a01613dca565b925050608061477589828a01613dca565b9150509295509295509295565b6000806040838503121561479957614798613d9f565b5b60006147a78582860161403b565b92505060206147b88582860161403b565b9150509250929050565b60006147cd82613e0c565b9050919050565b6147dd816147c2565b81146147e857600080fd5b50565b6000813590506147fa816147d4565b92915050565b60006020828403121561481657614815613d9f565b5b6000614824848285016147eb565b91505092915050565b7f4e487b7100000000000000000000000000000000000000000000000000000000600052602260045260246000fd5b6000600282049050600182168061487457607f821691505b602082108114156148885761488761482d565b5b50919050565b7f4552433732313a20617070726f76616c20746f2063757272656e74206f776e6560008201527f7200000000000000000000000000000000000000000000000000000000000000602082015250565b60006148ea602183613f59565b91506148f58261488e565b604082019050919050565b60006020820190508181036000830152614919816148dd565b9050919050565b7f4552433732313a20617070726f76652063616c6c6572206973206e6f7420746f60008201527f6b656e206f776e6572206f7220617070726f76656420666f7220616c6c000000602082015250565b600061497c603d83613f59565b915061498782614920565b604082019050919050565b600060208201905081810360008301526149ab8161496f565b9050919050565b7f4552433732313a2063616c6c6572206973206e6f7420746f6b656e206f776e6560008201527f72206f7220617070726f76656400000000000000000000000000000000000000602082015250565b6000614a0e602d83613f59565b9150614a19826149b2565b604082019050919050565b60006020820190508181036000830152614a3d81614a01565b9050919050565b6000604082019050614a596000830185613e4d565b614a666020830184613e4d565b9392505050565b600081905092915050565b6000614a8382613f4e565b614a8d8185614a6d565b9350614a9d818560208601613f6a565b80840191505092915050565b6000614ab58284614a78565b915081905092915050565b7f3235000000000000000000000000000000000000000000000000000000000000600082015250565b6000614af6600283613f59565b9150614b0182614ac0565b602082019050919050565b60006020820190508181036000830152614b2581614ae9565b9050919050565b7f3236000000000000000000000000000000000000000000000000000000000000600082015250565b6000614b62600283613f59565b9150614b6d82614b2c565b602082019050919050565b60006020820190508181036000830152614b9181614b55565b9050919050565b7f3800000000000000000000000000000000000000000000000000000000000000600082015250565b6000614bce600183613f59565b9150614bd982614b98565b602082019050919050565b60006020820190508181036000830152614bfd81614bc1565b9050919050565b7f3132000000000000000000000000000000000000000000000000000000000000600082015250565b6000614c3a600283613f59565b9150614c4582614c04565b602082019050919050565b60006020820190508181036000830152614c6981614c2d565b9050919050565b6000606082019050614c856000830186613e3e565b614c926020830185613e3e565b614c9f6040830184613e4d565b949350505050565b600081519050614cb681614558565b92915050565b600060208284031215614cd257614cd1613d9f565b5b6000614ce084828501614ca7565b91505092915050565b7f3133000000000000000000000000000000000000000000000000000000000000600082015250565b6000614d1f600283613f59565b9150614d2a82614ce9565b602082019050919050565b60006020820190508181036000830152614d4e81614d12565b9050919050565b7f4e487b7100000000000000000000000000000000000000000000000000000000600052601160045260246000fd5b6000614d8f82613da9565b9150614d9a83613da9565b9250827fffffffffffffffffffffffffffffffffffffffffffffffffffffffffffffffff03821115614dcf57614dce614d55565b5b828201905092915050565b6000604082019050614def6000830185613e3e565b614dfc6020830184613e4d565b9392505050565b60006060820190508181036000830152614e1d8186613fae565b9050614e2c6020830185613e3e565b614e396040830184613e4d565b949350505050565b7f4552433732313a20696e76616c696420746f6b656e2049440000000000000000600082015250565b6000614e77601883613f59565b9150614e8282614e41565b602082019050919050565b60006020820190508181036000830152614ea681614e6a565b9050919050565b7f3237000000000000000000000000000000000000000000000000000000000000600082015250565b6000614ee3600283613f59565b9150614eee82614ead565b602082019050919050565b60006020820190508181036000830152614f1281614ed6565b9050919050565b7f3238000000000000000000000000000000000000000000000000000000000000600082015250565b6000614f4f600283613f59565b9150614f5a82614f19565b602082019050919050565b60006020820190508181036000830152614f7e81614f42565b9050919050565b6000614f918385614a6d565b9350614f9e8385846141d9565b82840190509392505050565b6000614fb7828486614f85565b91508190509392505050565b7f3200000000000000000000000000000000000000000000000000000000000000600082015250565b6000614ff9600183613f59565b915061500482614fc3565b602082019050919050565b6000602082019050818103600083015261502881614fec565b9050919050565b600061503b8385613f59565b93506150488385846141d9565b61505183613f9d565b840190509392505050565b6000604082019050818103600083015261507781858761502f565b90506150866020830184613e4d565b949350505050565b7f4552433732313a2061646472657373207a65726f206973206e6f74206120766160008201527f6c6964206f776e65720000000000000000000000000000000000000000000000602082015250565b60006150ea602983613f59565b91506150f58261508e565b604082019050919050565b60006020820190508181036000830152615119816150dd565b9050919050565b7f3600000000000000000000000000000000000000000000000000000000000000600082015250565b6000615156600183613f59565b915061516182615120565b602082019050919050565b6000602082019050818103600083015261518581615149565b9050919050565b7f3330000000000000000000000000000000000000000000000000000000000000600082015250565b60006151c2600283613f59565b91506151cd8261518c565b602082019050919050565b600060208201905081810360008301526151f1816151b5565b9050919050565b7f3331000000000000000000000000000000000000000000000000000000000000600082015250565b600061522e600283613f59565b9150615239826151f8565b602082019050919050565b6000602082019050818103600083015261525d81615221565b9050919050565b7f3332000000000000000000000000000000000000000000000000000000000000600082015250565b600061529a600283613f59565b91506152a582615264565b602082019050919050565b600060208201905081810360008301526152c98161528d565b9050919050565b7f3333000000000000000000000000000000000000000000000000000000000000600082015250565b6000615306600283613f59565b9150615311826152d0565b602082019050919050565b60006020820190508181036000830152615335816152f9565b9050919050565b600060408201905081810360008301526153568185613fae565b90506153656020830184613e4d565b9392505050565b7f3138000000000000000000000000000000000000000000000000000000000000600082015250565b60006153a2600283613f59565b91506153ad8261536c565b602082019050919050565b600060208201905081810360008301526153d181615395565b9050919050565b7f3700000000000000000000000000000000000000000000000000000000000000600082015250565b600061540e600183613f59565b9150615419826153d8565b602082019050919050565b6000602082019050818103600083015261543d81615401565b9050919050565b7f3232000000000000000000000000000000000000000000000000000000000000600082015250565b600061547a600283613f59565b915061548582615444565b602082019050919050565b600060208201905081810360008301526154a98161546d565b9050919050565b7f3234000000000000000000000000000000000000000000000000000000000000600082015250565b60006154e6600283613f59565b91506154f1826154b0565b602082019050919050565b60006020820190508181036000830152615515816154d9565b9050919050565b600060a082019050818103600083015261553781888a61502f565b90506155466020830187613e4d565b6155536040830186613e4d565b6155606060830185613e4d565b61556d6080830184613e4d565b979650505050505050565b60006155848285614a78565b91506155908284614a78565b91508190509392505050565b7f4f776e61626c653a206e6577206f776e657220697320746865207a65726f206160008201527f6464726573730000000000000000000000000000000000000000000000000000602082015250565b60006155f8602683613f59565b91506156038261559c565b604082019050919050565b60006020820190508181036000830152615627816155eb565b9050919050565b7f3231000000000000000000000000000000000000000000000000000000000000600082015250565b6000615664600283613f59565b915061566f8261562e565b602082019050919050565b6000602082019050818103600083015261569381615657565b9050919050565b6156a3816147c2565b82525050565b60006020820190506156be600083018461569a565b92915050565b7f3139000000000000000000000000000000000000000000000000000000000000600082015250565b60006156fa600283613f59565b9150615705826156c4565b602082019050919050565b60006020820190508181036000830152615729816156ed565b9050919050565b7f3135000000000000000000000000000000000000000000000000000000000000600082015250565b6000615766600283613f59565b915061577182615730565b602082019050919050565b6000602082019050818103600083015261579581615759565b9050919050565b7f3239000000000000000000000000000000000000000000000000000000000000600082015250565b60006157d2600283613f59565b91506157dd8261579c565b602082019050919050565b60006020820190508181036000830152615801816157c5565b9050919050565b7f3230000000000000000000000000000000000000000000000000000000000000600082015250565b600061583e600283613f59565b915061584982615808565b602082019050919050565b6000602082019050818103600083015261586d81615831565b9050919050565b600061587f82613da9565b915061588a83613da9565b92508282101561589d5761589c614d55565b5b828203905092915050565b6000819050919050565b60006158cd6158c86158c384613e0c565b6158a8565b613e0c565b9050919050565b60006158df826158b2565b9050919050565b60006158f1826158d4565b9050919050565b615901816158e6565b82525050565b600060408201905061591c60008301856158f8565b6159296020830184613e4d565b9392505050565b600060c082019050818103600083015261594a8189613fae565b90506159596020830188613e3e565b6159666040830187613e3e565b6159736060830186613e4d565b6159806080830185613e4d565b61598d60a0830184613e4d565b979650505050505050565b7f4552433732313a207472616e736665722066726f6d20696e636f72726563742060008201527f6f776e6572000000000000000000000000000000000000000000000000000000602082015250565b60006159f4602583613f59565b91506159ff82615998565b604082019050919050565b60006020820190508181036000830152615a23816159e7565b9050919050565b7f4552433732313a207472616e7366657220746f20746865207a65726f2061646460008201527f7265737300000000000000000000000000000000000000000000000000000000602082015250565b6000615a86602483613f59565b9150615a9182615a2a565b604082019050919050565b60006020820190508181036000830152615ab581615a79565b9050919050565b7f4f776e61626c653a2063616c6c6572206973206e6f7420746865206f776e6572600082015250565b6000615af2602083613f59565b9150615afd82615abc565b602082019050919050565b60006020820190508181036000830152615b2181615ae5565b9050919050565b7f5265656e7472616e637947756172643a207265656e7472616e742063616c6c00600082015250565b6000615b5e601f83613f59565b9150615b6982615b28565b602082019050919050565b60006020820190508181036000830152615b8d81615b51565b9050919050565b7f4552433732313a20617070726f766520746f2063616c6c657200000000000000600082015250565b6000615bca601983613f59565b9150615bd582615b94565b602082019050919050565b60006020820190508181036000830152615bf981615bbd565b9050919050565b7f4552433732313a207472616e7366657220746f206e6f6e20455243373231526560008201527f63656976657220696d706c656d656e7465720000000000000000000000000000602082015250565b6000615c5c603283613f59565b9150615c6782615c00565b604082019050919050565b60006020820190508181036000830152615c8b81615c4f565b9050919050565b7f4e487b7100000000000000000000000000000000000000000000000000000000600052601260045260246000fd5b6000615ccc82613da9565b9150615cd783613da9565b9250817fffffffffffffffffffffffffffffffffffffffffffffffffffffffffffffffff0483118215151615615d1057615d0f614d55565b5b828202905092915050565b6000615d2682613da9565b9150615d3183613da9565b925082615d4157615d40615c92565b5b828204905092915050565b600081519050919050565b600082825260208201905092915050565b6000615d7382615d4c565b615d7d8185615d57565b9350615d8d818560208601613f6a565b615d9681613f9d565b840191505092915050565b6000608082019050615db66000830187613e3e565b615dc36020830186613e3e565b615dd06040830185613e4d565b8181036060830152615de28184615d68565b905095945050505050565b600081519050615dfc81613ebf565b92915050565b600060208284031215615e1857615e17613d9f565b5b6000615e2684828501615ded565b91505092915050565b7f4552433732313a206d696e7420746f20746865207a65726f2061646472657373600082015250565b6000615e65602083613f59565b9150615e7082615e2f565b602082019050919050565b60006020820190508181036000830152615e9481615e58565b9050919050565b7f4552433732313a20746f6b656e20616c7265616479206d696e74656400000000600082015250565b6000615ed1601c83613f59565b9150615edc82615e9b565b602082019050919050565b60006020820190508181036000830152615f0081615ec4565b905091905056fea2646970667358221220981beeda49c78286da009baf8ffca07168afb48862deb4ee5b1b42ed240ca10564736f6c63430008090033","opcodes":"PUSH1 0x80 PUSH1 0x40 MSTORE PUSH1 0x7D PUSH1 0xA SSTORE PUSH1 0x64 PUSH1 0xB SSTORE CALLVALUE DUP1 ISZERO PUSH3 0x1B JUMPI PUSH1 0x0 DUP1 REVERT JUMPDEST POP PUSH1 0x40 MLOAD PUSH3 0x64E9 CODESIZE SUB DUP1 PUSH3 0x64E9 DUP4 CODECOPY DUP2 DUP2 ADD PUSH1 0x40 MSTORE DUP2 ADD SWAP1 PUSH3 0x41 SWAP2 SWAP1 PUSH3 0x46D JUMP JUMPDEST PUSH1 0x40 MLOAD DUP1 PUSH1 0x40 ADD PUSH1 0x40 MSTORE DUP1 PUSH1 0x9 DUP2 MSTORE PUSH1 0x20 ADD PUSH32 0x44656369626C696E670000000000000000000000000000000000000000000000 DUP2 MSTORE POP PUSH1 0x40 MLOAD DUP1 PUSH1 0x40 ADD PUSH1 0x40 MSTORE DUP1 PUSH1 0x2 DUP2 MSTORE PUSH1 0x20 ADD PUSH32 0x6442000000000000000000000000000000000000000000000000000000000000 DUP2 MSTORE POP DUP2 PUSH1 0x0 SWAP1 DUP1 MLOAD SWAP1 PUSH1 0x20 ADD SWAP1 PUSH3 0xC5 SWAP3 SWAP2 SWAP1 PUSH3 0x30E JUMP JUMPDEST POP DUP1 PUSH1 0x1 SWAP1 DUP1 MLOAD SWAP1 PUSH1 0x20 ADD SWAP1 PUSH3 0xDE SWAP3 SWAP2 SWAP1 PUSH3 0x30E JUMP JUMPDEST POP POP POP PUSH3 0x101 PUSH3 0xF5 PUSH3 0x240 PUSH1 0x20 SHL PUSH1 0x20 SHR JUMP JUMPDEST PUSH3 0x248 PUSH1 0x20 SHL PUSH1 0x20 SHR JUMP JUMPDEST PUSH1 0x1 PUSH1 0x7 DUP2 SWAP1 SSTORE POP PUSH1 0x0 PUSH20 0xFFFFFFFFFFFFFFFFFFFFFFFFFFFFFFFFFFFFFFFF AND DUP3 PUSH20 0xFFFFFFFFFFFFFFFFFFFFFFFFFFFFFFFFFFFFFFFF AND EQ ISZERO DUP1 ISZERO PUSH3 0x174 JUMPI POP PUSH1 0x0 PUSH20 0xFFFFFFFFFFFFFFFFFFFFFFFFFFFFFFFFFFFFFFFF AND DUP2 PUSH20 0xFFFFFFFFFFFFFFFFFFFFFFFFFFFFFFFFFFFFFFFF AND EQ ISZERO JUMPDEST PUSH3 0x1B6 JUMPI PUSH1 0x40 MLOAD PUSH32 0x8C379A000000000000000000000000000000000000000000000000000000000 DUP2 MSTORE PUSH1 0x4 ADD PUSH3 0x1AD SWAP1 PUSH3 0x515 JUMP JUMPDEST PUSH1 0x40 MLOAD DUP1 SWAP2 SUB SWAP1 REVERT JUMPDEST DUP2 PUSH1 0x9 PUSH1 0x0 PUSH2 0x100 EXP DUP2 SLOAD DUP2 PUSH20 0xFFFFFFFFFFFFFFFFFFFFFFFFFFFFFFFFFFFFFFFF MUL NOT AND SWAP1 DUP4 PUSH20 0xFFFFFFFFFFFFFFFFFFFFFFFFFFFFFFFFFFFFFFFF AND MUL OR SWAP1 SSTORE POP DUP1 PUSH1 0xC PUSH1 0x0 PUSH2 0x100 EXP DUP2 SLOAD DUP2 PUSH20 0xFFFFFFFFFFFFFFFFFFFFFFFFFFFFFFFFFFFFFFFF MUL NOT AND SWAP1 DUP4 PUSH20 0xFFFFFFFFFFFFFFFFFFFFFFFFFFFFFFFFFFFFFFFF AND MUL OR SWAP1 SSTORE POP POP POP PUSH3 0x59C JUMP JUMPDEST PUSH1 0x0 CALLER SWAP1 POP SWAP1 JUMP JUMPDEST PUSH1 0x0 PUSH1 0x6 PUSH1 0x0 SWAP1 SLOAD SWAP1 PUSH2 0x100 EXP SWAP1 DIV PUSH20 0xFFFFFFFFFFFFFFFFFFFFFFFFFFFFFFFFFFFFFFFF AND SWAP1 POP DUP2 PUSH1 0x6 PUSH1 0x0 PUSH2 0x100 EXP DUP2 SLOAD DUP2 PUSH20 0xFFFFFFFFFFFFFFFFFFFFFFFFFFFFFFFFFFFFFFFF MUL NOT AND SWAP1 DUP4 PUSH20 0xFFFFFFFFFFFFFFFFFFFFFFFFFFFFFFFFFFFFFFFF AND MUL OR SWAP1 SSTORE POP DUP2 PUSH20 0xFFFFFFFFFFFFFFFFFFFFFFFFFFFFFFFFFFFFFFFF AND DUP2 PUSH20 0xFFFFFFFFFFFFFFFFFFFFFFFFFFFFFFFFFFFFFFFF AND PUSH32 0x8BE0079C531659141344CD1FD0A4F28419497F9722A3DAAFE3B4186F6B6457E0 PUSH1 0x40 MLOAD PUSH1 0x40 MLOAD DUP1 SWAP2 SUB SWAP1 LOG3 POP POP JUMP JUMPDEST DUP3 DUP1 SLOAD PUSH3 0x31C SWAP1 PUSH3 0x566 JUMP JUMPDEST SWAP1 PUSH1 0x0 MSTORE PUSH1 0x20 PUSH1 0x0 KECCAK256 SWAP1 PUSH1 0x1F ADD PUSH1 0x20 SWAP1 DIV DUP2 ADD SWAP3 DUP3 PUSH3 0x340 JUMPI PUSH1 0x0 DUP6 SSTORE PUSH3 0x38C JUMP JUMPDEST DUP3 PUSH1 0x1F LT PUSH3 0x35B JUMPI DUP1 MLOAD PUSH1 0xFF NOT AND DUP4 DUP1 ADD OR DUP6 SSTORE PUSH3 0x38C JUMP JUMPDEST DUP3 DUP1 ADD PUSH1 0x1 ADD DUP6 SSTORE DUP3 ISZERO PUSH3 0x38C JUMPI SWAP2 DUP3 ADD JUMPDEST DUP3 DUP2 GT ISZERO PUSH3 0x38B JUMPI DUP3 MLOAD DUP3 SSTORE SWAP2 PUSH1 0x20 ADD SWAP2 SWAP1 PUSH1 0x1 ADD SWAP1 PUSH3 0x36E JUMP JUMPDEST JUMPDEST POP SWAP1 POP PUSH3 0x39B SWAP2 SWAP1 PUSH3 0x39F JUMP JUMPDEST POP SWAP1 JUMP JUMPDEST JUMPDEST DUP1 DUP3 GT ISZERO PUSH3 0x3BA JUMPI PUSH1 0x0 DUP2 PUSH1 0x0 SWAP1 SSTORE POP PUSH1 0x1 ADD PUSH3 0x3A0 JUMP JUMPDEST POP SWAP1 JUMP JUMPDEST PUSH1 0x0 DUP1 REVERT JUMPDEST PUSH1 0x0 PUSH20 0xFFFFFFFFFFFFFFFFFFFFFFFFFFFFFFFFFFFFFFFF DUP3 AND SWAP1 POP SWAP2 SWAP1 POP JUMP JUMPDEST PUSH1 0x0 PUSH3 0x3F0 DUP3 PUSH3 0x3C3 JUMP JUMPDEST SWAP1 POP SWAP2 SWAP1 POP JUMP JUMPDEST PUSH3 0x402 DUP2 PUSH3 0x3E3 JUMP JUMPDEST DUP2 EQ PUSH3 0x40E JUMPI PUSH1 0x0 DUP1 REVERT JUMPDEST POP JUMP JUMPDEST PUSH1 0x0 DUP2 MLOAD SWAP1 POP PUSH3 0x422 DUP2 PUSH3 0x3F7 JUMP JUMPDEST SWAP3 SWAP2 POP POP JUMP JUMPDEST PUSH1 0x0 PUSH3 0x435 DUP3 PUSH3 0x3C3 JUMP JUMPDEST SWAP1 POP SWAP2 SWAP1 POP JUMP JUMPDEST PUSH3 0x447 DUP2 PUSH3 0x428 JUMP JUMPDEST DUP2 EQ PUSH3 0x453 JUMPI PUSH1 0x0 DUP1 REVERT JUMPDEST POP JUMP JUMPDEST PUSH1 0x0 DUP2 MLOAD SWAP1 POP PUSH3 0x467 DUP2 PUSH3 0x43C JUMP JUMPDEST SWAP3 SWAP2 POP POP JUMP JUMPDEST PUSH1 0x0 DUP1 PUSH1 0x40 DUP4 DUP6 SUB SLT ISZERO PUSH3 0x487 JUMPI PUSH3 0x486 PUSH3 0x3BE JUMP JUMPDEST JUMPDEST PUSH1 0x0 PUSH3 0x497 DUP6 DUP3 DUP7 ADD PUSH3 0x411 JUMP JUMPDEST SWAP3 POP POP PUSH1 0x20 PUSH3 0x4AA DUP6 DUP3 DUP7 ADD PUSH3 0x456 JUMP JUMPDEST SWAP2 POP POP SWAP3 POP SWAP3 SWAP1 POP JUMP JUMPDEST PUSH1 0x0 DUP3 DUP3 MSTORE PUSH1 0x20 DUP3 ADD SWAP1 POP SWAP3 SWAP2 POP POP JUMP JUMPDEST PUSH32 0x3334000000000000000000000000000000000000000000000000000000000000 PUSH1 0x0 DUP3 ADD MSTORE POP JUMP JUMPDEST PUSH1 0x0 PUSH3 0x4FD PUSH1 0x2 DUP4 PUSH3 0x4B4 JUMP JUMPDEST SWAP2 POP PUSH3 0x50A DUP3 PUSH3 0x4C5 JUMP JUMPDEST PUSH1 0x20 DUP3 ADD SWAP1 POP SWAP2 SWAP1 POP JUMP JUMPDEST PUSH1 0x0 PUSH1 0x20 DUP3 ADD SWAP1 POP DUP2 DUP2 SUB PUSH1 0x0 DUP4 ADD MSTORE PUSH3 0x530 DUP2 PUSH3 0x4EE JUMP JUMPDEST SWAP1 POP SWAP2 SWAP1 POP JUMP JUMPDEST PUSH32 0x4E487B7100000000000000000000000000000000000000000000000000000000 PUSH1 0x0 MSTORE PUSH1 0x22 PUSH1 0x4 MSTORE PUSH1 0x24 PUSH1 0x0 REVERT JUMPDEST PUSH1 0x0 PUSH1 0x2 DUP3 DIV SWAP1 POP PUSH1 0x1 DUP3 AND DUP1 PUSH3 0x57F JUMPI PUSH1 0x7F DUP3 AND SWAP2 POP JUMPDEST PUSH1 0x20 DUP3 LT DUP2 EQ ISZERO PUSH3 0x596 JUMPI PUSH3 0x595 PUSH3 0x537 JUMP JUMPDEST JUMPDEST POP SWAP2 SWAP1 POP JUMP JUMPDEST PUSH2 0x5F3D DUP1 PUSH3 0x5AC PUSH1 0x0 CODECOPY PUSH1 0x0 RETURN INVALID PUSH1 0x80 PUSH1 0x40 MSTORE PUSH1 0x4 CALLDATASIZE LT PUSH2 0x1C2 JUMPI PUSH1 0x0 CALLDATALOAD PUSH1 0xE0 SHR DUP1 PUSH4 0x70A08231 GT PUSH2 0xF7 JUMPI DUP1 PUSH4 0xB95FB84E GT PUSH2 0x95 JUMPI DUP1 PUSH4 0xF2FDE38B GT PUSH2 0x64 JUMPI DUP1 PUSH4 0xF2FDE38B EQ PUSH2 0x684 JUMPI DUP1 PUSH4 0xF5FE7F71 EQ PUSH2 0x6AD JUMPI DUP1 PUSH4 0xFCC6F66D EQ PUSH2 0x6D6 JUMPI DUP1 PUSH4 0xFF41EDBC EQ PUSH2 0x701 JUMPI PUSH2 0x1C2 JUMP JUMPDEST DUP1 PUSH4 0xB95FB84E EQ PUSH2 0x5B8 JUMPI DUP1 PUSH4 0xBE06D53E EQ PUSH2 0x5E1 JUMPI DUP1 PUSH4 0xC87B56DD EQ PUSH2 0x60A JUMPI DUP1 PUSH4 0xE985E9C5 EQ PUSH2 0x647 JUMPI PUSH2 0x1C2 JUMP JUMPDEST DUP1 PUSH4 0x95D89B41 GT PUSH2 0xD1 JUMPI DUP1 PUSH4 0x95D89B41 EQ PUSH2 0x4FE JUMPI DUP1 PUSH4 0xA22CB465 EQ PUSH2 0x529 JUMPI DUP1 PUSH4 0xB88D4FDE EQ PUSH2 0x552 JUMPI DUP1 PUSH4 0xB88EABDD EQ PUSH2 0x57B JUMPI PUSH2 0x1C2 JUMP JUMPDEST DUP1 PUSH4 0x70A08231 EQ PUSH2 0x47F JUMPI DUP1 PUSH4 0x715018A6 EQ PUSH2 0x4BC JUMPI DUP1 PUSH4 0x8DA5CB5B EQ PUSH2 0x4D3 JUMPI PUSH2 0x1C2 JUMP JUMPDEST DUP1 PUSH4 0x42842E0E GT PUSH2 0x164 JUMPI DUP1 PUSH4 0x571A26A0 GT PUSH2 0x13E JUMPI DUP1 PUSH4 0x571A26A0 EQ PUSH2 0x3BB JUMPI DUP1 PUSH4 0x5F483313 EQ PUSH2 0x3FD JUMPI DUP1 PUSH4 0x6352211E EQ PUSH2 0x419 JUMPI DUP1 PUSH4 0x68613D17 EQ PUSH2 0x456 JUMPI PUSH2 0x1C2 JUMP JUMPDEST DUP1 PUSH4 0x42842E0E EQ PUSH2 0x326 JUMPI DUP1 PUSH4 0x4387330E EQ PUSH2 0x34F JUMPI DUP1 PUSH4 0x4874B2F4 EQ PUSH2 0x390 JUMPI PUSH2 0x1C2 JUMP JUMPDEST DUP1 PUSH4 0x81812FC GT PUSH2 0x1A0 JUMPI DUP1 PUSH4 0x81812FC EQ PUSH2 0x26E JUMPI DUP1 PUSH4 0x95EA7B3 EQ PUSH2 0x2AB JUMPI DUP1 PUSH4 0x23B872DD EQ PUSH2 0x2D4 JUMPI DUP1 PUSH4 0x3C909E93 EQ PUSH2 0x2FD JUMPI PUSH2 0x1C2 JUMP JUMPDEST DUP1 PUSH4 0x10D9813 EQ PUSH2 0x1C7 JUMPI DUP1 PUSH4 0x1FFC9A7 EQ PUSH2 0x206 JUMPI DUP1 PUSH4 0x6FDDE03 EQ PUSH2 0x243 JUMPI JUMPDEST PUSH1 0x0 DUP1 REVERT JUMPDEST CALLVALUE DUP1 ISZERO PUSH2 0x1D3 JUMPI PUSH1 0x0 DUP1 REVERT JUMPDEST POP PUSH2 0x1EE PUSH1 0x4 DUP1 CALLDATASIZE SUB DUP2 ADD SWAP1 PUSH2 0x1E9 SWAP2 SWAP1 PUSH2 0x3DDF JUMP JUMPDEST PUSH2 0x71D JUMP JUMPDEST PUSH1 0x40 MLOAD PUSH2 0x1FD SWAP4 SWAP3 SWAP2 SWAP1 PUSH2 0x3E5C JUMP JUMPDEST PUSH1 0x40 MLOAD DUP1 SWAP2 SUB SWAP1 RETURN JUMPDEST CALLVALUE DUP1 ISZERO PUSH2 0x212 JUMPI PUSH1 0x0 DUP1 REVERT JUMPDEST POP PUSH2 0x22D PUSH1 0x4 DUP1 CALLDATASIZE SUB DUP2 ADD SWAP1 PUSH2 0x228 SWAP2 SWAP1 PUSH2 0x3EEB JUMP JUMPDEST PUSH2 0x767 JUMP JUMPDEST PUSH1 0x40 MLOAD PUSH2 0x23A SWAP2 SWAP1 PUSH2 0x3F33 JUMP JUMPDEST PUSH1 0x40 MLOAD DUP1 SWAP2 SUB SWAP1 RETURN JUMPDEST CALLVALUE DUP1 ISZERO PUSH2 0x24F JUMPI PUSH1 0x0 DUP1 REVERT JUMPDEST POP PUSH2 0x258 PUSH2 0x849 JUMP JUMPDEST PUSH1 0x40 MLOAD PUSH2 0x265 SWAP2 SWAP1 PUSH2 0x3FE7 JUMP JUMPDEST PUSH1 0x40 MLOAD DUP1 SWAP2 SUB SWAP1 RETURN JUMPDEST CALLVALUE DUP1 ISZERO PUSH2 0x27A JUMPI PUSH1 0x0 DUP1 REVERT JUMPDEST POP PUSH2 0x295 PUSH1 0x4 DUP1 CALLDATASIZE SUB DUP2 ADD SWAP1 PUSH2 0x290 SWAP2 SWAP1 PUSH2 0x3DDF JUMP JUMPDEST PUSH2 0x8DB JUMP JUMPDEST PUSH1 0x40 MLOAD PUSH2 0x2A2 SWAP2 SWAP1 PUSH2 0x4009 JUMP JUMPDEST PUSH1 0x40 MLOAD DUP1 SWAP2 SUB SWAP1 RETURN JUMPDEST CALLVALUE DUP1 ISZERO PUSH2 0x2B7 JUMPI PUSH1 0x0 DUP1 REVERT JUMPDEST POP PUSH2 0x2D2 PUSH1 0x4 DUP1 CALLDATASIZE SUB DUP2 ADD SWAP1 PUSH2 0x2CD SWAP2 SWAP1 PUSH2 0x4050 JUMP JUMPDEST PUSH2 0x921 JUMP JUMPDEST STOP JUMPDEST CALLVALUE DUP1 ISZERO PUSH2 0x2E0 JUMPI PUSH1 0x0 DUP1 REVERT JUMPDEST POP PUSH2 0x2FB PUSH1 0x4 DUP1 CALLDATASIZE SUB DUP2 ADD SWAP1 PUSH2 0x2F6 SWAP2 SWAP1 PUSH2 0x4090 JUMP JUMPDEST PUSH2 0xA39 JUMP JUMPDEST STOP JUMPDEST CALLVALUE DUP1 ISZERO PUSH2 0x309 JUMPI PUSH1 0x0 DUP1 REVERT JUMPDEST POP PUSH2 0x324 PUSH1 0x4 DUP1 CALLDATASIZE SUB DUP2 ADD SWAP1 PUSH2 0x31F SWAP2 SWAP1 PUSH2 0x40E3 JUMP JUMPDEST PUSH2 0xA99 JUMP JUMPDEST STOP JUMPDEST CALLVALUE DUP1 ISZERO PUSH2 0x332 JUMPI PUSH1 0x0 DUP1 REVERT JUMPDEST POP PUSH2 0x34D PUSH1 0x4 DUP1 CALLDATASIZE SUB DUP2 ADD SWAP1 PUSH2 0x348 SWAP2 SWAP1 PUSH2 0x4090 JUMP JUMPDEST PUSH2 0xAEC JUMP JUMPDEST STOP JUMPDEST CALLVALUE DUP1 ISZERO PUSH2 0x35B JUMPI PUSH1 0x0 DUP1 REVERT JUMPDEST POP PUSH2 0x376 PUSH1 0x4 DUP1 CALLDATASIZE SUB DUP2 ADD SWAP1 PUSH2 0x371 SWAP2 SWAP1 PUSH2 0x4258 JUMP JUMPDEST PUSH2 0xB0C JUMP JUMPDEST PUSH1 0x40 MLOAD PUSH2 0x387 SWAP6 SWAP5 SWAP4 SWAP3 SWAP2 SWAP1 PUSH2 0x4318 JUMP JUMPDEST PUSH1 0x40 MLOAD DUP1 SWAP2 SUB SWAP1 RETURN JUMPDEST CALLVALUE DUP1 ISZERO PUSH2 0x39C JUMPI PUSH1 0x0 DUP1 REVERT JUMPDEST POP PUSH2 0x3A5 PUSH2 0xC0D JUMP JUMPDEST PUSH1 0x40 MLOAD PUSH2 0x3B2 SWAP2 SWAP1 PUSH2 0x4372 JUMP JUMPDEST PUSH1 0x40 MLOAD DUP1 SWAP2 SUB SWAP1 RETURN JUMPDEST CALLVALUE DUP1 ISZERO PUSH2 0x3C7 JUMPI PUSH1 0x0 DUP1 REVERT JUMPDEST POP PUSH2 0x3E2 PUSH1 0x4 DUP1 CALLDATASIZE SUB DUP2 ADD SWAP1 PUSH2 0x3DD SWAP2 SWAP1 PUSH2 0x3DDF JUMP JUMPDEST PUSH2 0xC13 JUMP JUMPDEST PUSH1 0x40 MLOAD PUSH2 0x3F4 SWAP7 SWAP6 SWAP5 SWAP4 SWAP3 SWAP2 SWAP1 PUSH2 0x438D JUMP JUMPDEST PUSH1 0x40 MLOAD DUP1 SWAP2 SUB SWAP1 RETURN JUMPDEST PUSH2 0x417 PUSH1 0x4 DUP1 CALLDATASIZE SUB DUP2 ADD SWAP1 PUSH2 0x412 SWAP2 SWAP1 PUSH2 0x43EE JUMP JUMPDEST PUSH2 0xC7C JUMP JUMPDEST STOP JUMPDEST CALLVALUE DUP1 ISZERO PUSH2 0x425 JUMPI PUSH1 0x0 DUP1 REVERT JUMPDEST POP PUSH2 0x440 PUSH1 0x4 DUP1 CALLDATASIZE SUB DUP2 ADD SWAP1 PUSH2 0x43B SWAP2 SWAP1 PUSH2 0x3DDF JUMP JUMPDEST PUSH2 0x1250 JUMP JUMPDEST PUSH1 0x40 MLOAD PUSH2 0x44D SWAP2 SWAP1 PUSH2 0x4009 JUMP JUMPDEST PUSH1 0x40 MLOAD DUP1 SWAP2 SUB SWAP1 RETURN JUMPDEST CALLVALUE DUP1 ISZERO PUSH2 0x462 JUMPI PUSH1 0x0 DUP1 REVERT JUMPDEST POP PUSH2 0x47D PUSH1 0x4 DUP1 CALLDATASIZE SUB DUP2 ADD SWAP1 PUSH2 0x478 SWAP2 SWAP1 PUSH2 0x44AA JUMP JUMPDEST PUSH2 0x12D7 JUMP JUMPDEST STOP JUMPDEST CALLVALUE DUP1 ISZERO PUSH2 0x48B JUMPI PUSH1 0x0 DUP1 REVERT JUMPDEST POP PUSH2 0x4A6 PUSH1 0x4 DUP1 CALLDATASIZE SUB DUP2 ADD SWAP1 PUSH2 0x4A1 SWAP2 SWAP1 PUSH2 0x452B JUMP JUMPDEST PUSH2 0x1642 JUMP JUMPDEST PUSH1 0x40 MLOAD PUSH2 0x4B3 SWAP2 SWAP1 PUSH2 0x4372 JUMP JUMPDEST PUSH1 0x40 MLOAD DUP1 SWAP2 SUB SWAP1 RETURN JUMPDEST CALLVALUE DUP1 ISZERO PUSH2 0x4C8 JUMPI PUSH1 0x0 DUP1 REVERT JUMPDEST POP PUSH2 0x4D1 PUSH2 0x16FA JUMP JUMPDEST STOP JUMPDEST CALLVALUE DUP1 ISZERO PUSH2 0x4DF JUMPI PUSH1 0x0 DUP1 REVERT JUMPDEST POP PUSH2 0x4E8 PUSH2 0x170E JUMP JUMPDEST PUSH1 0x40 MLOAD PUSH2 0x4F5 SWAP2 SWAP1 PUSH2 0x4009 JUMP JUMPDEST PUSH1 0x40 MLOAD DUP1 SWAP2 SUB SWAP1 RETURN JUMPDEST CALLVALUE DUP1 ISZERO PUSH2 0x50A JUMPI PUSH1 0x0 DUP1 REVERT JUMPDEST POP PUSH2 0x513 PUSH2 0x1738 JUMP JUMPDEST PUSH1 0x40 MLOAD PUSH2 0x520 SWAP2 SWAP1 PUSH2 0x3FE7 JUMP JUMPDEST PUSH1 0x40 MLOAD DUP1 SWAP2 SUB SWAP1 RETURN JUMPDEST CALLVALUE DUP1 ISZERO PUSH2 0x535 JUMPI PUSH1 0x0 DUP1 REVERT JUMPDEST POP PUSH2 0x550 PUSH1 0x4 DUP1 CALLDATASIZE SUB DUP2 ADD SWAP1 PUSH2 0x54B SWAP2 SWAP1 PUSH2 0x4584 JUMP JUMPDEST PUSH2 0x17CA JUMP JUMPDEST STOP JUMPDEST CALLVALUE DUP1 ISZERO PUSH2 0x55E JUMPI PUSH1 0x0 DUP1 REVERT JUMPDEST POP PUSH2 0x579 PUSH1 0x4 DUP1 CALLDATASIZE SUB DUP2 ADD SWAP1 PUSH2 0x574 SWAP2 SWAP1 PUSH2 0x4665 JUMP JUMPDEST PUSH2 0x17E0 JUMP JUMPDEST STOP JUMPDEST CALLVALUE DUP1 ISZERO PUSH2 0x587 JUMPI PUSH1 0x0 DUP1 REVERT JUMPDEST POP PUSH2 0x5A2 PUSH1 0x4 DUP1 CALLDATASIZE SUB DUP2 ADD SWAP1 PUSH2 0x59D SWAP2 SWAP1 PUSH2 0x4258 JUMP JUMPDEST PUSH2 0x1842 JUMP JUMPDEST PUSH1 0x40 MLOAD PUSH2 0x5AF SWAP2 SWAP1 PUSH2 0x4372 JUMP JUMPDEST PUSH1 0x40 MLOAD DUP1 SWAP2 SUB SWAP1 RETURN JUMPDEST CALLVALUE DUP1 ISZERO PUSH2 0x5C4 JUMPI PUSH1 0x0 DUP1 REVERT JUMPDEST POP PUSH2 0x5DF PUSH1 0x4 DUP1 CALLDATASIZE SUB DUP2 ADD SWAP1 PUSH2 0x5DA SWAP2 SWAP1 PUSH2 0x43EE JUMP JUMPDEST PUSH2 0x1870 JUMP JUMPDEST STOP JUMPDEST CALLVALUE DUP1 ISZERO PUSH2 0x5ED JUMPI PUSH1 0x0 DUP1 REVERT JUMPDEST POP PUSH2 0x608 PUSH1 0x4 DUP1 CALLDATASIZE SUB DUP2 ADD SWAP1 PUSH2 0x603 SWAP2 SWAP1 PUSH2 0x46E8 JUMP JUMPDEST PUSH2 0x1C46 JUMP JUMPDEST STOP JUMPDEST CALLVALUE DUP1 ISZERO PUSH2 0x616 JUMPI PUSH1 0x0 DUP1 REVERT JUMPDEST POP PUSH2 0x631 PUSH1 0x4 DUP1 CALLDATASIZE SUB DUP2 ADD SWAP1 PUSH2 0x62C SWAP2 SWAP1 PUSH2 0x3DDF JUMP JUMPDEST PUSH2 0x207E JUMP JUMPDEST PUSH1 0x40 MLOAD PUSH2 0x63E SWAP2 SWAP1 PUSH2 0x3FE7 JUMP JUMPDEST PUSH1 0x40 MLOAD DUP1 SWAP2 SUB SWAP1 RETURN JUMPDEST CALLVALUE DUP1 ISZERO PUSH2 0x653 JUMPI PUSH1 0x0 DUP1 REVERT JUMPDEST POP PUSH2 0x66E PUSH1 0x4 DUP1 CALLDATASIZE SUB DUP2 ADD SWAP1 PUSH2 0x669 SWAP2 SWAP1 PUSH2 0x4782 JUMP JUMPDEST PUSH2 0x20E6 JUMP JUMPDEST PUSH1 0x40 MLOAD PUSH2 0x67B SWAP2 SWAP1 PUSH2 0x3F33 JUMP JUMPDEST PUSH1 0x40 MLOAD DUP1 SWAP2 SUB SWAP1 RETURN JUMPDEST CALLVALUE DUP1 ISZERO PUSH2 0x690 JUMPI PUSH1 0x0 DUP1 REVERT JUMPDEST POP PUSH2 0x6AB PUSH1 0x4 DUP1 CALLDATASIZE SUB DUP2 ADD SWAP1 PUSH2 0x6A6 SWAP2 SWAP1 PUSH2 0x452B JUMP JUMPDEST PUSH2 0x217A JUMP JUMPDEST STOP JUMPDEST CALLVALUE DUP1 ISZERO PUSH2 0x6B9 JUMPI PUSH1 0x0 DUP1 REVERT JUMPDEST POP PUSH2 0x6D4 PUSH1 0x4 DUP1 CALLDATASIZE SUB DUP2 ADD SWAP1 PUSH2 0x6CF SWAP2 SWAP1 PUSH2 0x4800 JUMP JUMPDEST PUSH2 0x21FE JUMP JUMPDEST STOP JUMPDEST CALLVALUE DUP1 ISZERO PUSH2 0x6E2 JUMPI PUSH1 0x0 DUP1 REVERT JUMPDEST POP PUSH2 0x6EB PUSH2 0x22F1 JUMP JUMPDEST PUSH1 0x40 MLOAD PUSH2 0x6F8 SWAP2 SWAP1 PUSH2 0x4372 JUMP JUMPDEST PUSH1 0x40 MLOAD DUP1 SWAP2 SUB SWAP1 RETURN JUMPDEST PUSH2 0x71B PUSH1 0x4 DUP1 CALLDATASIZE SUB DUP2 ADD SWAP1 PUSH2 0x716 SWAP2 SWAP1 PUSH2 0x4258 JUMP JUMPDEST PUSH2 0x22F7 JUMP JUMPDEST STOP JUMPDEST PUSH1 0x10 PUSH1 0x20 MSTORE DUP1 PUSH1 0x0 MSTORE PUSH1 0x40 PUSH1 0x0 KECCAK256 PUSH1 0x0 SWAP2 POP SWAP1 POP DUP1 PUSH1 0x0 ADD PUSH1 0x0 SWAP1 SLOAD SWAP1 PUSH2 0x100 EXP SWAP1 DIV PUSH20 0xFFFFFFFFFFFFFFFFFFFFFFFFFFFFFFFFFFFFFFFF AND SWAP1 DUP1 PUSH1 0x1 ADD SLOAD SWAP1 DUP1 PUSH1 0x2 ADD SLOAD SWAP1 POP DUP4 JUMP JUMPDEST PUSH1 0x0 PUSH32 0x80AC58CD00000000000000000000000000000000000000000000000000000000 PUSH28 0xFFFFFFFFFFFFFFFFFFFFFFFFFFFFFFFFFFFFFFFFFFFFFFFFFFFFFFFF NOT AND DUP3 PUSH28 0xFFFFFFFFFFFFFFFFFFFFFFFFFFFFFFFFFFFFFFFFFFFFFFFFFFFFFFFF NOT AND EQ DUP1 PUSH2 0x832 JUMPI POP PUSH32 0x5B5E139F00000000000000000000000000000000000000000000000000000000 PUSH28 0xFFFFFFFFFFFFFFFFFFFFFFFFFFFFFFFFFFFFFFFFFFFFFFFFFFFFFFFF NOT AND DUP3 PUSH28 0xFFFFFFFFFFFFFFFFFFFFFFFFFFFFFFFFFFFFFFFFFFFFFFFFFFFFFFFF NOT AND EQ JUMPDEST DUP1 PUSH2 0x842 JUMPI POP PUSH2 0x841 DUP3 PUSH2 0x2BDB JUMP JUMPDEST JUMPDEST SWAP1 POP SWAP2 SWAP1 POP JUMP JUMPDEST PUSH1 0x60 PUSH1 0x0 DUP1 SLOAD PUSH2 0x858 SWAP1 PUSH2 0x485C JUMP JUMPDEST DUP1 PUSH1 0x1F ADD PUSH1 0x20 DUP1 SWAP2 DIV MUL PUSH1 0x20 ADD PUSH1 0x40 MLOAD SWAP1 DUP2 ADD PUSH1 0x40 MSTORE DUP1 SWAP3 SWAP2 SWAP1 DUP2 DUP2 MSTORE PUSH1 0x20 ADD DUP3 DUP1 SLOAD PUSH2 0x884 SWAP1 PUSH2 0x485C JUMP JUMPDEST DUP1 ISZERO PUSH2 0x8D1 JUMPI DUP1 PUSH1 0x1F LT PUSH2 0x8A6 JUMPI PUSH2 0x100 DUP1 DUP4 SLOAD DIV MUL DUP4 MSTORE SWAP2 PUSH1 0x20 ADD SWAP2 PUSH2 0x8D1 JUMP JUMPDEST DUP3 ADD SWAP2 SWAP1 PUSH1 0x0 MSTORE PUSH1 0x20 PUSH1 0x0 KECCAK256 SWAP1 JUMPDEST DUP2 SLOAD DUP2 MSTORE SWAP1 PUSH1 0x1 ADD SWAP1 PUSH1 0x20 ADD DUP1 DUP4 GT PUSH2 0x8B4 JUMPI DUP3 SWAP1 SUB PUSH1 0x1F AND DUP3 ADD SWAP2 JUMPDEST POP POP POP POP POP SWAP1 POP SWAP1 JUMP JUMPDEST PUSH1 0x0 PUSH2 0x8E6 DUP3 PUSH2 0x2C45 JUMP JUMPDEST PUSH1 0x4 PUSH1 0x0 DUP4 DUP2 MSTORE PUSH1 0x20 ADD SWAP1 DUP2 MSTORE PUSH1 0x20 ADD PUSH1 0x0 KECCAK256 PUSH1 0x0 SWAP1 SLOAD SWAP1 PUSH2 0x100 EXP SWAP1 DIV PUSH20 0xFFFFFFFFFFFFFFFFFFFFFFFFFFFFFFFFFFFFFFFF AND SWAP1 POP SWAP2 SWAP1 POP JUMP JUMPDEST PUSH1 0x0 PUSH2 0x92C DUP3 PUSH2 0x1250 JUMP JUMPDEST SWAP1 POP DUP1 PUSH20 0xFFFFFFFFFFFFFFFFFFFFFFFFFFFFFFFFFFFFFFFF AND DUP4 PUSH20 0xFFFFFFFFFFFFFFFFFFFFFFFFFFFFFFFFFFFFFFFF AND EQ ISZERO PUSH2 0x99D JUMPI PUSH1 0x40 MLOAD PUSH32 0x8C379A000000000000000000000000000000000000000000000000000000000 DUP2 MSTORE PUSH1 0x4 ADD PUSH2 0x994 SWAP1 PUSH2 0x4900 JUMP JUMPDEST PUSH1 0x40 MLOAD DUP1 SWAP2 SUB SWAP1 REVERT JUMPDEST DUP1 PUSH20 0xFFFFFFFFFFFFFFFFFFFFFFFFFFFFFFFFFFFFFFFF AND PUSH2 0x9BC PUSH2 0x2C90 JUMP JUMPDEST PUSH20 0xFFFFFFFFFFFFFFFFFFFFFFFFFFFFFFFFFFFFFFFF AND EQ DUP1 PUSH2 0x9EB JUMPI POP PUSH2 0x9EA DUP2 PUSH2 0x9E5 PUSH2 0x2C90 JUMP JUMPDEST PUSH2 0x20E6 JUMP JUMPDEST JUMPDEST PUSH2 0xA2A JUMPI PUSH1 0x40 MLOAD PUSH32 0x8C379A000000000000000000000000000000000000000000000000000000000 DUP2 MSTORE PUSH1 0x4 ADD PUSH2 0xA21 SWAP1 PUSH2 0x4992 JUMP JUMPDEST PUSH1 0x40 MLOAD DUP1 SWAP2 SUB SWAP1 REVERT JUMPDEST PUSH2 0xA34 DUP4 DUP4 PUSH2 0x2C98 JUMP JUMPDEST POP POP POP JUMP JUMPDEST PUSH2 0xA4A PUSH2 0xA44 PUSH2 0x2C90 JUMP JUMPDEST DUP3 PUSH2 0x2D51 JUMP JUMPDEST PUSH2 0xA89 JUMPI PUSH1 0x40 MLOAD PUSH32 0x8C379A000000000000000000000000000000000000000000000000000000000 DUP2 MSTORE PUSH1 0x4 ADD PUSH2 0xA80 SWAP1 PUSH2 0x4A24 JUMP JUMPDEST PUSH1 0x40 MLOAD DUP1 SWAP2 SUB SWAP1 REVERT JUMPDEST PUSH2 0xA94 DUP4 DUP4 DUP4 PUSH2 0x2DE6 JUMP JUMPDEST POP POP POP JUMP JUMPDEST PUSH2 0xAA1 PUSH2 0x30E0 JUMP JUMPDEST DUP2 PUSH1 0xA DUP2 SWAP1 SSTORE POP DUP1 PUSH1 0xB DUP2 SWAP1 SSTORE POP PUSH32 0x36AC9417F4C4141853B0A7CBA911657B2D3D3A399DB1E48E7430DD66CE91692D DUP3 DUP3 PUSH1 0x40 MLOAD PUSH2 0xAE0 SWAP3 SWAP2 SWAP1 PUSH2 0x4A44 JUMP JUMPDEST PUSH1 0x40 MLOAD DUP1 SWAP2 SUB SWAP1 LOG1 POP POP JUMP JUMPDEST PUSH2 0xB07 DUP4 DUP4 DUP4 PUSH1 0x40 MLOAD DUP1 PUSH1 0x20 ADD PUSH1 0x40 MSTORE DUP1 PUSH1 0x0 DUP2 MSTORE POP PUSH2 0x17E0 JUMP JUMPDEST POP POP POP JUMP JUMPDEST PUSH1 0xD DUP2 DUP1 MLOAD PUSH1 0x20 DUP2 ADD DUP3 ADD DUP1 MLOAD DUP5 DUP3 MSTORE PUSH1 0x20 DUP4 ADD PUSH1 0x20 DUP6 ADD KECCAK256 DUP2 DUP4 MSTORE DUP1 SWAP6 POP POP POP POP POP POP PUSH1 0x0 SWAP2 POP SWAP1 POP DUP1 PUSH1 0x0 ADD PUSH1 0x0 SWAP1 SLOAD SWAP1 PUSH2 0x100 EXP SWAP1 DIV PUSH20 0xFFFFFFFFFFFFFFFFFFFFFFFFFFFFFFFFFFFFFFFF AND SWAP1 DUP1 PUSH1 0x1 ADD DUP1 SLOAD PUSH2 0xB6B SWAP1 PUSH2 0x485C JUMP JUMPDEST DUP1 PUSH1 0x1F ADD PUSH1 0x20 DUP1 SWAP2 DIV MUL PUSH1 0x20 ADD PUSH1 0x40 MLOAD SWAP1 DUP2 ADD PUSH1 0x40 MSTORE DUP1 SWAP3 SWAP2 SWAP1 DUP2 DUP2 MSTORE PUSH1 0x20 ADD DUP3 DUP1 SLOAD PUSH2 0xB97 SWAP1 PUSH2 0x485C JUMP JUMPDEST DUP1 ISZERO PUSH2 0xBE4 JUMPI DUP1 PUSH1 0x1F LT PUSH2 0xBB9 JUMPI PUSH2 0x100 DUP1 DUP4 SLOAD DIV MUL DUP4 MSTORE SWAP2 PUSH1 0x20 ADD SWAP2 PUSH2 0xBE4 JUMP JUMPDEST DUP3 ADD SWAP2 SWAP1 PUSH1 0x0 MSTORE PUSH1 0x20 PUSH1 0x0 KECCAK256 SWAP1 JUMPDEST DUP2 SLOAD DUP2 MSTORE SWAP1 PUSH1 0x1 ADD SWAP1 PUSH1 0x20 ADD DUP1 DUP4 GT PUSH2 0xBC7 JUMPI DUP3 SWAP1 SUB PUSH1 0x1F AND DUP3 ADD SWAP2 JUMPDEST POP POP POP POP POP SWAP1 DUP1 PUSH1 0x2 ADD SLOAD SWAP1 DUP1 PUSH1 0x3 ADD SLOAD SWAP1 DUP1 PUSH1 0x4 ADD PUSH1 0x0 SWAP1 SLOAD SWAP1 PUSH2 0x100 EXP SWAP1 DIV PUSH1 0xFF AND SWAP1 POP DUP6 JUMP JUMPDEST PUSH1 0xA SLOAD DUP2 JUMP JUMPDEST PUSH1 0xF PUSH1 0x20 MSTORE DUP1 PUSH1 0x0 MSTORE PUSH1 0x40 PUSH1 0x0 KECCAK256 PUSH1 0x0 SWAP2 POP SWAP1 POP DUP1 PUSH1 0x0 ADD PUSH1 0x0 SWAP1 SLOAD SWAP1 PUSH2 0x100 EXP SWAP1 DIV PUSH20 0xFFFFFFFFFFFFFFFFFFFFFFFFFFFFFFFFFFFFFFFF AND SWAP1 DUP1 PUSH1 0x1 ADD SLOAD SWAP1 DUP1 PUSH1 0x2 ADD SLOAD SWAP1 DUP1 PUSH1 0x3 ADD SLOAD SWAP1 DUP1 PUSH1 0x4 ADD SLOAD SWAP1 DUP1 PUSH1 0x5 ADD PUSH1 0x0 SWAP1 SLOAD SWAP1 PUSH2 0x100 EXP SWAP1 DIV PUSH1 0xFF AND SWAP1 POP DUP7 JUMP JUMPDEST PUSH2 0xC84 PUSH2 0x315E JUMP JUMPDEST PUSH1 0x0 PUSH1 0xD DUP4 PUSH1 0x40 MLOAD PUSH2 0xC96 SWAP2 SWAP1 PUSH2 0x4AA9 JUMP JUMPDEST SWAP1 DUP2 MSTORE PUSH1 0x20 ADD PUSH1 0x40 MLOAD DUP1 SWAP2 SUB SWAP1 KECCAK256 SWAP1 POP PUSH1 0x0 PUSH1 0xE DUP5 PUSH1 0x40 MLOAD PUSH2 0xCB8 SWAP2 SWAP1 PUSH2 0x4AA9 JUMP JUMPDEST SWAP1 DUP2 MSTORE PUSH1 0x20 ADD PUSH1 0x40 MLOAD DUP1 SWAP2 SUB SWAP1 KECCAK256 SLOAD SWAP1 POP CALLER PUSH20 0xFFFFFFFFFFFFFFFFFFFFFFFFFFFFFFFFFFFFFFFF AND DUP3 PUSH1 0x0 ADD PUSH1 0x0 SWAP1 SLOAD SWAP1 PUSH2 0x100 EXP SWAP1 DIV PUSH20 0xFFFFFFFFFFFFFFFFFFFFFFFFFFFFFFFFFFFFFFFF AND PUSH20 0xFFFFFFFFFFFFFFFFFFFFFFFFFFFFFFFFFFFFFFFF AND EQ ISZERO PUSH2 0xD5C JUMPI PUSH1 0x40 MLOAD PUSH32 0x8C379A000000000000000000000000000000000000000000000000000000000 DUP2 MSTORE PUSH1 0x4 ADD PUSH2 0xD53 SWAP1 PUSH2 0x4B0C JUMP JUMPDEST PUSH1 0x40 MLOAD DUP1 SWAP2 SUB SWAP1 REVERT JUMPDEST PUSH1 0x0 PUSH1 0xE DUP6 PUSH1 0x40 MLOAD PUSH2 0xD6E SWAP2 SWAP1 PUSH2 0x4AA9 JUMP JUMPDEST SWAP1 DUP2 MSTORE PUSH1 0x20 ADD PUSH1 0x40 MLOAD DUP1 SWAP2 SUB SWAP1 KECCAK256 SLOAD GT PUSH2 0xDBD JUMPI PUSH1 0x40 MLOAD PUSH32 0x8C379A000000000000000000000000000000000000000000000000000000000 DUP2 MSTORE PUSH1 0x4 ADD PUSH2 0xDB4 SWAP1 PUSH2 0x4B78 JUMP JUMPDEST PUSH1 0x40 MLOAD DUP1 SWAP2 SUB SWAP1 REVERT JUMPDEST PUSH1 0x1 DUP1 DUP2 GT ISZERO PUSH2 0xDD0 JUMPI PUSH2 0xDCF PUSH2 0x42A1 JUMP JUMPDEST JUMPDEST DUP3 PUSH1 0x4 ADD PUSH1 0x0 SWAP1 SLOAD SWAP1 PUSH2 0x100 EXP SWAP1 DIV PUSH1 0xFF AND PUSH1 0x1 DUP2 GT ISZERO PUSH2 0xDF4 JUMPI PUSH2 0xDF3 PUSH2 0x42A1 JUMP JUMPDEST JUMPDEST EQ PUSH2 0xE34 JUMPI PUSH1 0x40 MLOAD PUSH32 0x8C379A000000000000000000000000000000000000000000000000000000000 DUP2 MSTORE PUSH1 0x4 ADD PUSH2 0xE2B SWAP1 PUSH2 0x4BE4 JUMP JUMPDEST PUSH1 0x40 MLOAD DUP1 SWAP2 SUB SWAP1 REVERT JUMPDEST PUSH1 0x0 PUSH1 0xF PUSH1 0x0 DUP4 DUP2 MSTORE PUSH1 0x20 ADD SWAP1 DUP2 MSTORE PUSH1 0x20 ADD PUSH1 0x0 KECCAK256 SWAP1 POP PUSH2 0xE53 PUSH2 0x31AE JUMP JUMPDEST DUP2 PUSH1 0x3 ADD SLOAD GT ISZERO DUP1 ISZERO PUSH2 0xE71 JUMPI POP DUP1 PUSH1 0x4 ADD SLOAD PUSH2 0xE6E PUSH2 0x31AE JUMP JUMPDEST GT ISZERO JUMPDEST PUSH2 0xEB0 JUMPI PUSH1 0x40 MLOAD PUSH32 0x8C379A000000000000000000000000000000000000000000000000000000000 DUP2 MSTORE PUSH1 0x4 ADD PUSH2 0xEA7 SWAP1 PUSH2 0x4C50 JUMP JUMPDEST PUSH1 0x40 MLOAD DUP1 SWAP2 SUB SWAP1 REVERT JUMPDEST PUSH1 0x9 PUSH1 0x0 SWAP1 SLOAD SWAP1 PUSH2 0x100 EXP SWAP1 DIV PUSH20 0xFFFFFFFFFFFFFFFFFFFFFFFFFFFFFFFFFFFFFFFF AND PUSH20 0xFFFFFFFFFFFFFFFFFFFFFFFFFFFFFFFFFFFFFFFF AND PUSH4 0x23B872DD CALLER ADDRESS DUP8 PUSH1 0x40 MLOAD DUP5 PUSH4 0xFFFFFFFF AND PUSH1 0xE0 SHL DUP2 MSTORE PUSH1 0x4 ADD PUSH2 0xF0F SWAP4 SWAP3 SWAP2 SWAP1 PUSH2 0x4C70 JUMP JUMPDEST PUSH1 0x20 PUSH1 0x40 MLOAD DUP1 DUP4 SUB DUP2 PUSH1 0x0 DUP8 DUP1 EXTCODESIZE ISZERO DUP1 ISZERO PUSH2 0xF29 JUMPI PUSH1 0x0 DUP1 REVERT JUMPDEST POP GAS CALL ISZERO DUP1 ISZERO PUSH2 0xF3D JUMPI RETURNDATASIZE PUSH1 0x0 DUP1 RETURNDATACOPY RETURNDATASIZE PUSH1 0x0 REVERT JUMPDEST POP POP POP POP PUSH1 0x40 MLOAD RETURNDATASIZE PUSH1 0x1F NOT PUSH1 0x1F DUP3 ADD AND DUP3 ADD DUP1 PUSH1 0x40 MSTORE POP DUP2 ADD SWAP1 PUSH2 0xF61 SWAP2 SWAP1 PUSH2 0x4CBC JUMP JUMPDEST PUSH2 0xFA0 JUMPI PUSH1 0x40 MLOAD PUSH32 0x8C379A000000000000000000000000000000000000000000000000000000000 DUP2 MSTORE PUSH1 0x4 ADD PUSH2 0xF97 SWAP1 PUSH2 0x4B78 JUMP JUMPDEST PUSH1 0x40 MLOAD DUP1 SWAP2 SUB SWAP1 REVERT JUMPDEST PUSH1 0x0 PUSH1 0x10 PUSH1 0x0 DUP5 DUP2 MSTORE PUSH1 0x20 ADD SWAP1 DUP2 MSTORE PUSH1 0x20 ADD PUSH1 0x0 KECCAK256 SWAP1 POP PUSH1 0x0 DUP2 PUSH1 0x0 ADD PUSH1 0x0 SWAP1 SLOAD SWAP1 PUSH2 0x100 EXP SWAP1 DIV PUSH20 0xFFFFFFFFFFFFFFFFFFFFFFFFFFFFFFFFFFFFFFFF AND SWAP1 POP PUSH1 0x0 DUP3 PUSH1 0x1 ADD SLOAD SWAP1 POP PUSH1 0x0 PUSH20 0xFFFFFFFFFFFFFFFFFFFFFFFFFFFFFFFFFFFFFFFF AND DUP3 PUSH20 0xFFFFFFFFFFFFFFFFFFFFFFFFFFFFFFFFFFFFFFFF AND EQ ISZERO PUSH2 0x1066 JUMPI DUP1 DUP8 LT ISZERO PUSH2 0x1061 JUMPI PUSH1 0x40 MLOAD PUSH32 0x8C379A000000000000000000000000000000000000000000000000000000000 DUP2 MSTORE PUSH1 0x4 ADD PUSH2 0x1058 SWAP1 PUSH2 0x4D35 JUMP JUMPDEST PUSH1 0x40 MLOAD DUP1 SWAP2 SUB SWAP1 REVERT JUMPDEST PUSH2 0x11A7 JUMP JUMPDEST DUP4 PUSH1 0x2 ADD SLOAD DUP2 PUSH2 0x1076 SWAP2 SWAP1 PUSH2 0x4D84 JUMP JUMPDEST DUP8 LT ISZERO PUSH2 0x10B8 JUMPI PUSH1 0x40 MLOAD PUSH32 0x8C379A000000000000000000000000000000000000000000000000000000000 DUP2 MSTORE PUSH1 0x4 ADD PUSH2 0x10AF SWAP1 PUSH2 0x4D35 JUMP JUMPDEST PUSH1 0x40 MLOAD DUP1 SWAP2 SUB SWAP1 REVERT JUMPDEST PUSH1 0x9 PUSH1 0x0 SWAP1 SLOAD SWAP1 PUSH2 0x100 EXP SWAP1 DIV PUSH20 0xFFFFFFFFFFFFFFFFFFFFFFFFFFFFFFFFFFFFFFFF AND PUSH20 0xFFFFFFFFFFFFFFFFFFFFFFFFFFFFFFFFFFFFFFFF AND PUSH4 0xA9059CBB DUP4 DUP4 PUSH1 0x40 MLOAD DUP4 PUSH4 0xFFFFFFFF AND PUSH1 0xE0 SHL DUP2 MSTORE PUSH1 0x4 ADD PUSH2 0x1115 SWAP3 SWAP2 SWAP1 PUSH2 0x4DDA JUMP JUMPDEST PUSH1 0x20 PUSH1 0x40 MLOAD DUP1 DUP4 SUB DUP2 PUSH1 0x0 DUP8 DUP1 EXTCODESIZE ISZERO DUP1 ISZERO PUSH2 0x112F JUMPI PUSH1 0x0 DUP1 REVERT JUMPDEST POP GAS CALL ISZERO DUP1 ISZERO PUSH2 0x1143 JUMPI RETURNDATASIZE PUSH1 0x0 DUP1 RETURNDATACOPY RETURNDATASIZE PUSH1 0x0 REVERT JUMPDEST POP POP POP POP PUSH1 0x40 MLOAD RETURNDATASIZE PUSH1 0x1F NOT PUSH1 0x1F DUP3 ADD AND DUP3 ADD DUP1 PUSH1 0x40 MSTORE POP DUP2 ADD SWAP1 PUSH2 0x1167 SWAP2 SWAP1 PUSH2 0x4CBC JUMP JUMPDEST PUSH2 0x11A6 JUMPI PUSH1 0x40 MLOAD PUSH32 0x8C379A000000000000000000000000000000000000000000000000000000000 DUP2 MSTORE PUSH1 0x4 ADD PUSH2 0x119D SWAP1 PUSH2 0x4B78 JUMP JUMPDEST PUSH1 0x40 MLOAD DUP1 SWAP2 SUB SWAP1 REVERT JUMPDEST JUMPDEST CALLER DUP4 PUSH1 0x0 ADD PUSH1 0x0 PUSH2 0x100 EXP DUP2 SLOAD DUP2 PUSH20 0xFFFFFFFFFFFFFFFFFFFFFFFFFFFFFFFFFFFFFFFF MUL NOT AND SWAP1 DUP4 PUSH20 0xFFFFFFFFFFFFFFFFFFFFFFFFFFFFFFFFFFFFFFFF AND MUL OR SWAP1 SSTORE POP DUP7 DUP4 PUSH1 0x1 ADD DUP2 SWAP1 SSTORE POP PUSH2 0x11FB PUSH2 0x31AE JUMP JUMPDEST DUP4 PUSH1 0x2 ADD DUP2 SWAP1 SSTORE POP PUSH32 0x27AAA4DE8A8577AB88766593B19E891945E65F7D03AD3551436D3DB7FEED233 DUP9 CALLER DUP10 PUSH1 0x40 MLOAD PUSH2 0x1236 SWAP4 SWAP3 SWAP2 SWAP1 PUSH2 0x4E03 JUMP JUMPDEST PUSH1 0x40 MLOAD DUP1 SWAP2 SUB SWAP1 LOG1 POP POP POP POP POP POP PUSH2 0x124C PUSH2 0x31B6 JUMP JUMPDEST POP POP JUMP JUMPDEST PUSH1 0x0 DUP1 PUSH2 0x125C DUP4 PUSH2 0x31C0 JUMP JUMPDEST SWAP1 POP PUSH1 0x0 PUSH20 0xFFFFFFFFFFFFFFFFFFFFFFFFFFFFFFFFFFFFFFFF AND DUP2 PUSH20 0xFFFFFFFFFFFFFFFFFFFFFFFFFFFFFFFFFFFFFFFF AND EQ ISZERO PUSH2 0x12CE JUMPI PUSH1 0x40 MLOAD PUSH32 0x8C379A000000000000000000000000000000000000000000000000000000000 DUP2 MSTORE PUSH1 0x4 ADD PUSH2 0x12C5 SWAP1 PUSH2 0x4E8D JUMP JUMPDEST PUSH1 0x40 MLOAD DUP1 SWAP2 SUB SWAP1 REVERT JUMPDEST DUP1 SWAP2 POP POP SWAP2 SWAP1 POP JUMP JUMPDEST PUSH1 0x0 DUP5 DUP5 DUP1 DUP1 PUSH1 0x1F ADD PUSH1 0x20 DUP1 SWAP2 DIV MUL PUSH1 0x20 ADD PUSH1 0x40 MLOAD SWAP1 DUP2 ADD PUSH1 0x40 MSTORE DUP1 SWAP4 SWAP3 SWAP2 SWAP1 DUP2 DUP2 MSTORE PUSH1 0x20 ADD DUP4 DUP4 DUP1 DUP3 DUP5 CALLDATACOPY PUSH1 0x0 DUP2 DUP5 ADD MSTORE PUSH1 0x1F NOT PUSH1 0x1F DUP3 ADD AND SWAP1 POP DUP1 DUP4 ADD SWAP3 POP POP POP POP POP POP POP SWAP1 POP PUSH1 0x0 DUP2 MLOAD EQ ISZERO PUSH2 0x1365 JUMPI PUSH1 0x40 MLOAD PUSH32 0x8C379A000000000000000000000000000000000000000000000000000000000 DUP2 MSTORE PUSH1 0x4 ADD PUSH2 0x135C SWAP1 PUSH2 0x4EF9 JUMP JUMPDEST PUSH1 0x40 MLOAD DUP1 SWAP2 SUB SWAP1 REVERT JUMPDEST PUSH1 0x0 DUP4 DUP4 DUP1 DUP1 PUSH1 0x1F ADD PUSH1 0x20 DUP1 SWAP2 DIV MUL PUSH1 0x20 ADD PUSH1 0x40 MLOAD SWAP1 DUP2 ADD PUSH1 0x40 MSTORE DUP1 SWAP4 SWAP3 SWAP2 SWAP1 DUP2 DUP2 MSTORE PUSH1 0x20 ADD DUP4 DUP4 DUP1 DUP3 DUP5 CALLDATACOPY PUSH1 0x0 DUP2 DUP5 ADD MSTORE PUSH1 0x1F NOT PUSH1 0x1F DUP3 ADD AND SWAP1 POP DUP1 DUP4 ADD SWAP3 POP POP POP POP POP POP POP SWAP1 POP PUSH1 0x0 DUP2 MLOAD EQ ISZERO PUSH2 0x13F3 JUMPI PUSH1 0x40 MLOAD PUSH32 0x8C379A000000000000000000000000000000000000000000000000000000000 DUP2 MSTORE PUSH1 0x4 ADD PUSH2 0x13EA SWAP1 PUSH2 0x4F65 JUMP JUMPDEST PUSH1 0x40 MLOAD DUP1 SWAP2 SUB SWAP1 REVERT JUMPDEST PUSH1 0x0 PUSH1 0xE DUP8 DUP8 PUSH1 0x40 MLOAD PUSH2 0x1407 SWAP3 SWAP2 SWAP1 PUSH2 0x4FAA JUMP JUMPDEST SWAP1 DUP2 MSTORE PUSH1 0x20 ADD PUSH1 0x40 MLOAD DUP1 SWAP2 SUB SWAP1 KECCAK256 SLOAD EQ PUSH2 0x1456 JUMPI PUSH1 0x40 MLOAD PUSH32 0x8C379A000000000000000000000000000000000000000000000000000000000 DUP2 MSTORE PUSH1 0x4 ADD PUSH2 0x144D SWAP1 PUSH2 0x500F JUMP JUMPDEST PUSH1 0x40 MLOAD DUP1 SWAP2 SUB SWAP1 REVERT JUMPDEST PUSH2 0x1460 PUSH1 0x8 PUSH2 0x31FD JUMP JUMPDEST PUSH1 0x0 PUSH2 0x146C PUSH1 0x8 PUSH2 0x3213 JUMP JUMPDEST SWAP1 POP PUSH2 0x1478 CALLER DUP3 PUSH2 0x3221 JUMP JUMPDEST DUP1 PUSH1 0xE DUP9 DUP9 PUSH1 0x40 MLOAD PUSH2 0x148B SWAP3 SWAP2 SWAP1 PUSH2 0x4FAA JUMP JUMPDEST SWAP1 DUP2 MSTORE PUSH1 0x20 ADD PUSH1 0x40 MLOAD DUP1 SWAP2 SUB SWAP1 KECCAK256 DUP2 SWAP1 SSTORE POP PUSH1 0x40 MLOAD DUP1 PUSH1 0xA0 ADD PUSH1 0x40 MSTORE DUP1 CALLER PUSH20 0xFFFFFFFFFFFFFFFFFFFFFFFFFFFFFFFFFFFFFFFF AND DUP2 MSTORE PUSH1 0x20 ADD DUP7 DUP7 DUP1 DUP1 PUSH1 0x1F ADD PUSH1 0x20 DUP1 SWAP2 DIV MUL PUSH1 0x20 ADD PUSH1 0x40 MLOAD SWAP1 DUP2 ADD PUSH1 0x40 MSTORE DUP1 SWAP4 SWAP3 SWAP2 SWAP1 DUP2 DUP2 MSTORE PUSH1 0x20 ADD DUP4 DUP4 DUP1 DUP3 DUP5 CALLDATACOPY PUSH1 0x0 DUP2 DUP5 ADD MSTORE PUSH1 0x1F NOT PUSH1 0x1F DUP3 ADD AND SWAP1 POP DUP1 DUP4 ADD SWAP3 POP POP POP POP POP POP POP DUP2 MSTORE PUSH1 0x20 ADD PUSH1 0x0 DUP2 MSTORE PUSH1 0x20 ADD PUSH1 0x0 DUP2 MSTORE PUSH1 0x20 ADD PUSH1 0x0 PUSH1 0x1 DUP2 GT ISZERO PUSH2 0x1530 JUMPI PUSH2 0x152F PUSH2 0x42A1 JUMP JUMPDEST JUMPDEST DUP2 MSTORE POP PUSH1 0xD DUP9 DUP9 PUSH1 0x40 MLOAD PUSH2 0x1545 SWAP3 SWAP2 SWAP1 PUSH2 0x4FAA JUMP JUMPDEST SWAP1 DUP2 MSTORE PUSH1 0x20 ADD PUSH1 0x40 MLOAD DUP1 SWAP2 SUB SWAP1 KECCAK256 PUSH1 0x0 DUP3 ADD MLOAD DUP2 PUSH1 0x0 ADD PUSH1 0x0 PUSH2 0x100 EXP DUP2 SLOAD DUP2 PUSH20 0xFFFFFFFFFFFFFFFFFFFFFFFFFFFFFFFFFFFFFFFF MUL NOT AND SWAP1 DUP4 PUSH20 0xFFFFFFFFFFFFFFFFFFFFFFFFFFFFFFFFFFFFFFFF AND MUL OR SWAP1 SSTORE POP PUSH1 0x20 DUP3 ADD MLOAD DUP2 PUSH1 0x1 ADD SWAP1 DUP1 MLOAD SWAP1 PUSH1 0x20 ADD SWAP1 PUSH2 0x15B6 SWAP3 SWAP2 SWAP1 PUSH2 0x3CF2 JUMP JUMPDEST POP PUSH1 0x40 DUP3 ADD MLOAD DUP2 PUSH1 0x2 ADD SSTORE PUSH1 0x60 DUP3 ADD MLOAD DUP2 PUSH1 0x3 ADD SSTORE PUSH1 0x80 DUP3 ADD MLOAD DUP2 PUSH1 0x4 ADD PUSH1 0x0 PUSH2 0x100 EXP DUP2 SLOAD DUP2 PUSH1 0xFF MUL NOT AND SWAP1 DUP4 PUSH1 0x1 DUP2 GT ISZERO PUSH2 0x15F6 JUMPI PUSH2 0x15F5 PUSH2 0x42A1 JUMP JUMPDEST JUMPDEST MUL OR SWAP1 SSTORE POP SWAP1 POP POP PUSH32 0x59E3E0F1AABCE96B386D212C7C9563C597464CB2F714AA8CF022346EA95CFBC6 DUP8 DUP8 DUP4 PUSH1 0x40 MLOAD PUSH2 0x1631 SWAP4 SWAP3 SWAP2 SWAP1 PUSH2 0x505C JUMP JUMPDEST PUSH1 0x40 MLOAD DUP1 SWAP2 SUB SWAP1 LOG1 POP POP POP POP POP POP POP JUMP JUMPDEST PUSH1 0x0 DUP1 PUSH20 0xFFFFFFFFFFFFFFFFFFFFFFFFFFFFFFFFFFFFFFFF AND DUP3 PUSH20 0xFFFFFFFFFFFFFFFFFFFFFFFFFFFFFFFFFFFFFFFF AND EQ ISZERO PUSH2 0x16B3 JUMPI PUSH1 0x40 MLOAD PUSH32 0x8C379A000000000000000000000000000000000000000000000000000000000 DUP2 MSTORE PUSH1 0x4 ADD PUSH2 0x16AA SWAP1 PUSH2 0x5100 JUMP JUMPDEST PUSH1 0x40 MLOAD DUP1 SWAP2 SUB SWAP1 REVERT JUMPDEST PUSH1 0x3 PUSH1 0x0 DUP4 PUSH20 0xFFFFFFFFFFFFFFFFFFFFFFFFFFFFFFFFFFFFFFFF AND PUSH20 0xFFFFFFFFFFFFFFFFFFFFFFFFFFFFFFFFFFFFFFFF AND DUP2 MSTORE PUSH1 0x20 ADD SWAP1 DUP2 MSTORE PUSH1 0x20 ADD PUSH1 0x0 KECCAK256 SLOAD SWAP1 POP SWAP2 SWAP1 POP JUMP JUMPDEST PUSH2 0x1702 PUSH2 0x30E0 JUMP JUMPDEST PUSH2 0x170C PUSH1 0x0 PUSH2 0x323F JUMP JUMPDEST JUMP JUMPDEST PUSH1 0x0 PUSH1 0x6 PUSH1 0x0 SWAP1 SLOAD SWAP1 PUSH2 0x100 EXP SWAP1 DIV PUSH20 0xFFFFFFFFFFFFFFFFFFFFFFFFFFFFFFFFFFFFFFFF AND SWAP1 POP SWAP1 JUMP JUMPDEST PUSH1 0x60 PUSH1 0x1 DUP1 SLOAD PUSH2 0x1747 SWAP1 PUSH2 0x485C JUMP JUMPDEST DUP1 PUSH1 0x1F ADD PUSH1 0x20 DUP1 SWAP2 DIV MUL PUSH1 0x20 ADD PUSH1 0x40 MLOAD SWAP1 DUP2 ADD PUSH1 0x40 MSTORE DUP1 SWAP3 SWAP2 SWAP1 DUP2 DUP2 MSTORE PUSH1 0x20 ADD DUP3 DUP1 SLOAD PUSH2 0x1773 SWAP1 PUSH2 0x485C JUMP JUMPDEST DUP1 ISZERO PUSH2 0x17C0 JUMPI DUP1 PUSH1 0x1F LT PUSH2 0x1795 JUMPI PUSH2 0x100 DUP1 DUP4 SLOAD DIV MUL DUP4 MSTORE SWAP2 PUSH1 0x20 ADD SWAP2 PUSH2 0x17C0 JUMP JUMPDEST DUP3 ADD SWAP2 SWAP1 PUSH1 0x0 MSTORE PUSH1 0x20 PUSH1 0x0 KECCAK256 SWAP1 JUMPDEST DUP2 SLOAD DUP2 MSTORE SWAP1 PUSH1 0x1 ADD SWAP1 PUSH1 0x20 ADD DUP1 DUP4 GT PUSH2 0x17A3 JUMPI DUP3 SWAP1 SUB PUSH1 0x1F AND DUP3 ADD SWAP2 JUMPDEST POP POP POP POP POP SWAP1 POP SWAP1 JUMP JUMPDEST PUSH2 0x17DC PUSH2 0x17D5 PUSH2 0x2C90 JUMP JUMPDEST DUP4 DUP4 PUSH2 0x3305 JUMP JUMPDEST POP POP JUMP JUMPDEST PUSH2 0x17F1 PUSH2 0x17EB PUSH2 0x2C90 JUMP JUMPDEST DUP4 PUSH2 0x2D51 JUMP JUMPDEST PUSH2 0x1830 JUMPI PUSH1 0x40 MLOAD PUSH32 0x8C379A000000000000000000000000000000000000000000000000000000000 DUP2 MSTORE PUSH1 0x4 ADD PUSH2 0x1827 SWAP1 PUSH2 0x4A24 JUMP JUMPDEST PUSH1 0x40 MLOAD DUP1 SWAP2 SUB SWAP1 REVERT JUMPDEST PUSH2 0x183C DUP5 DUP5 DUP5 DUP5 PUSH2 0x3472 JUMP JUMPDEST POP POP POP POP JUMP JUMPDEST PUSH1 0xE DUP2 DUP1 MLOAD PUSH1 0x20 DUP2 ADD DUP3 ADD DUP1 MLOAD DUP5 DUP3 MSTORE PUSH1 0x20 DUP4 ADD PUSH1 0x20 DUP6 ADD KECCAK256 DUP2 DUP4 MSTORE DUP1 SWAP6 POP POP POP POP POP POP PUSH1 0x0 SWAP2 POP SWAP1 POP SLOAD DUP2 JUMP JUMPDEST PUSH2 0x1878 PUSH2 0x30E0 JUMP JUMPDEST PUSH1 0x0 PUSH1 0xD DUP4 PUSH1 0x40 MLOAD PUSH2 0x188A SWAP2 SWAP1 PUSH2 0x4AA9 JUMP JUMPDEST SWAP1 DUP2 MSTORE PUSH1 0x20 ADD PUSH1 0x40 MLOAD DUP1 SWAP2 SUB SWAP1 KECCAK256 SWAP1 POP PUSH1 0x0 PUSH1 0xE DUP5 PUSH1 0x40 MLOAD PUSH2 0x18AC SWAP2 SWAP1 PUSH2 0x4AA9 JUMP JUMPDEST SWAP1 DUP2 MSTORE PUSH1 0x20 ADD PUSH1 0x40 MLOAD DUP1 SWAP2 SUB SWAP1 KECCAK256 SLOAD SWAP1 POP CALLER PUSH20 0xFFFFFFFFFFFFFFFFFFFFFFFFFFFFFFFFFFFFFFFF AND DUP3 PUSH1 0x0 ADD PUSH1 0x0 SWAP1 SLOAD SWAP1 PUSH2 0x100 EXP SWAP1 DIV PUSH20 0xFFFFFFFFFFFFFFFFFFFFFFFFFFFFFFFFFFFFFFFF AND PUSH20 0xFFFFFFFFFFFFFFFFFFFFFFFFFFFFFFFFFFFFFFFF AND EQ DUP1 PUSH2 0x194D JUMPI POP CALLER PUSH20 0xFFFFFFFFFFFFFFFFFFFFFFFFFFFFFFFFFFFFFFFF AND PUSH2 0x1935 PUSH2 0x170E JUMP JUMPDEST PUSH20 0xFFFFFFFFFFFFFFFFFFFFFFFFFFFFFFFFFFFFFFFF AND EQ JUMPDEST PUSH2 0x198C JUMPI PUSH1 0x40 MLOAD PUSH32 0x8C379A000000000000000000000000000000000000000000000000000000000 DUP2 MSTORE PUSH1 0x4 ADD PUSH2 0x1983 SWAP1 PUSH2 0x516C JUMP JUMPDEST PUSH1 0x40 MLOAD DUP1 SWAP2 SUB SWAP1 REVERT JUMPDEST PUSH1 0x0 PUSH1 0xE DUP6 PUSH1 0x40 MLOAD PUSH2 0x199E SWAP2 SWAP1 PUSH2 0x4AA9 JUMP JUMPDEST SWAP1 DUP2 MSTORE PUSH1 0x20 ADD PUSH1 0x40 MLOAD DUP1 SWAP2 SUB SWAP1 KECCAK256 SLOAD GT PUSH2 0x19ED JUMPI PUSH1 0x40 MLOAD PUSH32 0x8C379A000000000000000000000000000000000000000000000000000000000 DUP2 MSTORE PUSH1 0x4 ADD PUSH2 0x19E4 SWAP1 PUSH2 0x4B78 JUMP JUMPDEST PUSH1 0x40 MLOAD DUP1 SWAP2 SUB SWAP1 REVERT JUMPDEST PUSH1 0x1 DUP1 DUP2 GT ISZERO PUSH2 0x1A00 JUMPI PUSH2 0x19FF PUSH2 0x42A1 JUMP JUMPDEST JUMPDEST DUP3 PUSH1 0x4 ADD PUSH1 0x0 SWAP1 SLOAD SWAP1 PUSH2 0x100 EXP SWAP1 DIV PUSH1 0xFF AND PUSH1 0x1 DUP2 GT ISZERO PUSH2 0x1A24 JUMPI PUSH2 0x1A23 PUSH2 0x42A1 JUMP JUMPDEST JUMPDEST EQ PUSH2 0x1A64 JUMPI PUSH1 0x40 MLOAD PUSH32 0x8C379A000000000000000000000000000000000000000000000000000000000 DUP2 MSTORE PUSH1 0x4 ADD PUSH2 0x1A5B SWAP1 PUSH2 0x4BE4 JUMP JUMPDEST PUSH1 0x40 MLOAD DUP1 SWAP2 SUB SWAP1 REVERT JUMPDEST PUSH1 0x0 PUSH1 0xF PUSH1 0x0 DUP4 DUP2 MSTORE PUSH1 0x20 ADD SWAP1 DUP2 MSTORE PUSH1 0x20 ADD PUSH1 0x0 KECCAK256 SWAP1 POP DUP1 PUSH1 0x5 ADD PUSH1 0x0 SWAP1 SLOAD SWAP1 PUSH2 0x100 EXP SWAP1 DIV PUSH1 0xFF AND ISZERO PUSH2 0x1ACD JUMPI PUSH1 0x40 MLOAD PUSH32 0x8C379A000000000000000000000000000000000000000000000000000000000 DUP2 MSTORE PUSH1 0x4 ADD PUSH2 0x1AC4 SWAP1 PUSH2 0x4EF9 JUMP JUMPDEST PUSH1 0x40 MLOAD DUP1 SWAP2 SUB SWAP1 REVERT JUMPDEST DUP1 PUSH1 0x4 ADD SLOAD PUSH2 0x1ADA PUSH2 0x31AE JUMP JUMPDEST LT PUSH2 0x1B1A JUMPI PUSH1 0x40 MLOAD PUSH32 0x8C379A000000000000000000000000000000000000000000000000000000000 DUP2 MSTORE PUSH1 0x4 ADD PUSH2 0x1B11 SWAP1 PUSH2 0x51D8 JUMP JUMPDEST PUSH1 0x40 MLOAD DUP1 SWAP2 SUB SWAP1 REVERT JUMPDEST PUSH1 0x0 DUP2 PUSH1 0x4 ADD SLOAD GT PUSH2 0x1B61 JUMPI PUSH1 0x40 MLOAD PUSH32 0x8C379A000000000000000000000000000000000000000000000000000000000 DUP2 MSTORE PUSH1 0x4 ADD PUSH2 0x1B58 SWAP1 PUSH2 0x5244 JUMP JUMPDEST PUSH1 0x40 MLOAD DUP1 SWAP2 SUB SWAP1 REVERT JUMPDEST DUP4 DUP2 PUSH1 0x3 ADD SLOAD LT PUSH2 0x1BA7 JUMPI PUSH1 0x40 MLOAD PUSH32 0x8C379A000000000000000000000000000000000000000000000000000000000 DUP2 MSTORE PUSH1 0x4 ADD PUSH2 0x1B9E SWAP1 PUSH2 0x52B0 JUMP JUMPDEST PUSH1 0x40 MLOAD DUP1 SWAP2 SUB SWAP1 REVERT JUMPDEST PUSH2 0x12C PUSH2 0x1BB2 PUSH2 0x31AE JUMP JUMPDEST PUSH2 0x1BBC SWAP2 SWAP1 PUSH2 0x4D84 JUMP JUMPDEST DUP5 GT PUSH2 0x1BFD JUMPI PUSH1 0x40 MLOAD PUSH32 0x8C379A000000000000000000000000000000000000000000000000000000000 DUP2 MSTORE PUSH1 0x4 ADD PUSH2 0x1BF4 SWAP1 PUSH2 0x531C JUMP JUMPDEST PUSH1 0x40 MLOAD DUP1 SWAP2 SUB SWAP1 REVERT JUMPDEST DUP4 DUP2 PUSH1 0x4 ADD DUP2 SWAP1 SSTORE POP PUSH32 0xACF5FEAF01A2B58E31C33E934D0C35924CA8BBD81DB430BD81D7A2211BFFC031 DUP6 DUP6 PUSH1 0x40 MLOAD PUSH2 0x1C37 SWAP3 SWAP2 SWAP1 PUSH2 0x533C JUMP JUMPDEST PUSH1 0x40 MLOAD DUP1 SWAP2 SUB SWAP1 LOG1 POP POP POP POP POP JUMP JUMPDEST PUSH1 0x0 PUSH1 0xD DUP8 DUP8 PUSH1 0x40 MLOAD PUSH2 0x1C5A SWAP3 SWAP2 SWAP1 PUSH2 0x4FAA JUMP JUMPDEST SWAP1 DUP2 MSTORE PUSH1 0x20 ADD PUSH1 0x40 MLOAD DUP1 SWAP2 SUB SWAP1 KECCAK256 SWAP1 POP PUSH1 0x0 PUSH1 0xE DUP9 DUP9 PUSH1 0x40 MLOAD PUSH2 0x1C7E SWAP3 SWAP2 SWAP1 PUSH2 0x4FAA JUMP JUMPDEST SWAP1 DUP2 MSTORE PUSH1 0x20 ADD PUSH1 0x40 MLOAD DUP1 SWAP2 SUB SWAP1 KECCAK256 SLOAD SWAP1 POP DUP3 DUP5 LT PUSH2 0x1CD1 JUMPI PUSH1 0x40 MLOAD PUSH32 0x8C379A000000000000000000000000000000000000000000000000000000000 DUP2 MSTORE PUSH1 0x4 ADD PUSH2 0x1CC8 SWAP1 PUSH2 0x53B8 JUMP JUMPDEST PUSH1 0x40 MLOAD DUP1 SWAP2 SUB SWAP1 REVERT JUMPDEST PUSH1 0x0 PUSH1 0xE DUP10 DUP10 PUSH1 0x40 MLOAD PUSH2 0x1CE5 SWAP3 SWAP2 SWAP1 PUSH2 0x4FAA JUMP JUMPDEST SWAP1 DUP2 MSTORE PUSH1 0x20 ADD PUSH1 0x40 MLOAD DUP1 SWAP2 SUB SWAP1 KECCAK256 SLOAD GT PUSH2 0x1D34 JUMPI PUSH1 0x40 MLOAD PUSH32 0x8C379A000000000000000000000000000000000000000000000000000000000 DUP2 MSTORE PUSH1 0x4 ADD PUSH2 0x1D2B SWAP1 PUSH2 0x4B78 JUMP JUMPDEST PUSH1 0x40 MLOAD DUP1 SWAP2 SUB SWAP1 REVERT JUMPDEST CALLER PUSH20 0xFFFFFFFFFFFFFFFFFFFFFFFFFFFFFFFFFFFFFFFF AND DUP3 PUSH1 0x0 ADD PUSH1 0x0 SWAP1 SLOAD SWAP1 PUSH2 0x100 EXP SWAP1 DIV PUSH20 0xFFFFFFFFFFFFFFFFFFFFFFFFFFFFFFFFFFFFFFFF AND PUSH20 0xFFFFFFFFFFFFFFFFFFFFFFFFFFFFFFFFFFFFFFFF AND EQ PUSH2 0x1DC6 JUMPI PUSH1 0x40 MLOAD PUSH32 0x8C379A000000000000000000000000000000000000000000000000000000000 DUP2 MSTORE PUSH1 0x4 ADD PUSH2 0x1DBD SWAP1 PUSH2 0x516C JUMP JUMPDEST PUSH1 0x40 MLOAD DUP1 SWAP2 SUB SWAP1 REVERT JUMPDEST PUSH2 0x1DCE PUSH2 0x31AE JUMP JUMPDEST DUP4 GT PUSH2 0x1E0F JUMPI PUSH1 0x40 MLOAD PUSH32 0x8C379A000000000000000000000000000000000000000000000000000000000 DUP2 MSTORE PUSH1 0x4 ADD PUSH2 0x1E06 SWAP1 PUSH2 0x5424 JUMP JUMPDEST PUSH1 0x40 MLOAD DUP1 SWAP2 SUB SWAP1 REVERT JUMPDEST PUSH1 0x0 PUSH1 0x1 DUP2 GT ISZERO PUSH2 0x1E23 JUMPI PUSH2 0x1E22 PUSH2 0x42A1 JUMP JUMPDEST JUMPDEST DUP3 PUSH1 0x4 ADD PUSH1 0x0 SWAP1 SLOAD SWAP1 PUSH2 0x100 EXP SWAP1 DIV PUSH1 0xFF AND PUSH1 0x1 DUP2 GT ISZERO PUSH2 0x1E47 JUMPI PUSH2 0x1E46 PUSH2 0x42A1 JUMP JUMPDEST JUMPDEST EQ PUSH2 0x1E87 JUMPI PUSH1 0x40 MLOAD PUSH32 0x8C379A000000000000000000000000000000000000000000000000000000000 DUP2 MSTORE PUSH1 0x4 ADD PUSH2 0x1E7E SWAP1 PUSH2 0x4BE4 JUMP JUMPDEST PUSH1 0x40 MLOAD DUP1 SWAP2 SUB SWAP1 REVERT JUMPDEST PUSH1 0x0 DUP6 GT PUSH2 0x1ECA JUMPI PUSH1 0x40 MLOAD PUSH32 0x8C379A000000000000000000000000000000000000000000000000000000000 DUP2 MSTORE PUSH1 0x4 ADD PUSH2 0x1EC1 SWAP1 PUSH2 0x5490 JUMP JUMPDEST PUSH1 0x40 MLOAD DUP1 SWAP2 SUB SWAP1 REVERT JUMPDEST PUSH2 0x12C DUP5 PUSH2 0x1ED8 SWAP2 SWAP1 PUSH2 0x4D84 JUMP JUMPDEST DUP4 LT ISZERO PUSH2 0x1F1A JUMPI PUSH1 0x40 MLOAD PUSH32 0x8C379A000000000000000000000000000000000000000000000000000000000 DUP2 MSTORE PUSH1 0x4 ADD PUSH2 0x1F11 SWAP1 PUSH2 0x54FC JUMP JUMPDEST PUSH1 0x40 MLOAD DUP1 SWAP2 SUB SWAP1 REVERT JUMPDEST PUSH1 0x40 MLOAD DUP1 PUSH1 0xC0 ADD PUSH1 0x40 MSTORE DUP1 PUSH1 0x0 PUSH20 0xFFFFFFFFFFFFFFFFFFFFFFFFFFFFFFFFFFFFFFFF AND DUP2 MSTORE PUSH1 0x20 ADD DUP8 DUP2 MSTORE PUSH1 0x20 ADD DUP7 DUP2 MSTORE PUSH1 0x20 ADD DUP6 DUP2 MSTORE PUSH1 0x20 ADD DUP5 DUP2 MSTORE PUSH1 0x20 ADD PUSH1 0x0 ISZERO ISZERO DUP2 MSTORE POP PUSH1 0xF PUSH1 0x0 DUP4 DUP2 MSTORE PUSH1 0x20 ADD SWAP1 DUP2 MSTORE PUSH1 0x20 ADD PUSH1 0x0 KECCAK256 PUSH1 0x0 DUP3 ADD MLOAD DUP2 PUSH1 0x0 ADD PUSH1 0x0 PUSH2 0x100 EXP DUP2 SLOAD DUP2 PUSH20 0xFFFFFFFFFFFFFFFFFFFFFFFFFFFFFFFFFFFFFFFF MUL NOT AND SWAP1 DUP4 PUSH20 0xFFFFFFFFFFFFFFFFFFFFFFFFFFFFFFFFFFFFFFFF AND MUL OR SWAP1 SSTORE POP PUSH1 0x20 DUP3 ADD MLOAD DUP2 PUSH1 0x1 ADD SSTORE PUSH1 0x40 DUP3 ADD MLOAD DUP2 PUSH1 0x2 ADD SSTORE PUSH1 0x60 DUP3 ADD MLOAD DUP2 PUSH1 0x3 ADD SSTORE PUSH1 0x80 DUP3 ADD MLOAD DUP2 PUSH1 0x4 ADD SSTORE PUSH1 0xA0 DUP3 ADD MLOAD DUP2 PUSH1 0x5 ADD PUSH1 0x0 PUSH2 0x100 EXP DUP2 SLOAD DUP2 PUSH1 0xFF MUL NOT AND SWAP1 DUP4 ISZERO ISZERO MUL OR SWAP1 SSTORE POP SWAP1 POP POP PUSH1 0x1 DUP3 PUSH1 0x4 ADD PUSH1 0x0 PUSH2 0x100 EXP DUP2 SLOAD DUP2 PUSH1 0xFF MUL NOT AND SWAP1 DUP4 PUSH1 0x1 DUP2 GT ISZERO PUSH2 0x202E JUMPI PUSH2 0x202D PUSH2 0x42A1 JUMP JUMPDEST JUMPDEST MUL OR SWAP1 SSTORE POP PUSH32 0x63F381F48EE15F142676F98F2E372636463DB4FE612C8BD998B1B5B57149D9D2 DUP9 DUP9 DUP9 DUP9 DUP9 DUP9 PUSH1 0x40 MLOAD PUSH2 0x206C SWAP7 SWAP6 SWAP5 SWAP4 SWAP3 SWAP2 SWAP1 PUSH2 0x551C JUMP JUMPDEST PUSH1 0x40 MLOAD DUP1 SWAP2 SUB SWAP1 LOG1 POP POP POP POP POP POP POP POP JUMP JUMPDEST PUSH1 0x60 PUSH2 0x2089 DUP3 PUSH2 0x2C45 JUMP JUMPDEST PUSH1 0x0 PUSH2 0x2093 PUSH2 0x34CE JUMP JUMPDEST SWAP1 POP PUSH1 0x0 DUP2 MLOAD GT PUSH2 0x20B3 JUMPI PUSH1 0x40 MLOAD DUP1 PUSH1 0x20 ADD PUSH1 0x40 MSTORE DUP1 PUSH1 0x0 DUP2 MSTORE POP PUSH2 0x20DE JUMP JUMPDEST DUP1 PUSH2 0x20BD DUP5 PUSH2 0x34E5 JUMP JUMPDEST PUSH1 0x40 MLOAD PUSH1 0x20 ADD PUSH2 0x20CE SWAP3 SWAP2 SWAP1 PUSH2 0x5578 JUMP JUMPDEST PUSH1 0x40 MLOAD PUSH1 0x20 DUP2 DUP4 SUB SUB DUP2 MSTORE SWAP1 PUSH1 0x40 MSTORE JUMPDEST SWAP2 POP POP SWAP2 SWAP1 POP JUMP JUMPDEST PUSH1 0x0 PUSH1 0x5 PUSH1 0x0 DUP5 PUSH20 0xFFFFFFFFFFFFFFFFFFFFFFFFFFFFFFFFFFFFFFFF AND PUSH20 0xFFFFFFFFFFFFFFFFFFFFFFFFFFFFFFFFFFFFFFFF AND DUP2 MSTORE PUSH1 0x20 ADD SWAP1 DUP2 MSTORE PUSH1 0x20 ADD PUSH1 0x0 KECCAK256 PUSH1 0x0 DUP4 PUSH20 0xFFFFFFFFFFFFFFFFFFFFFFFFFFFFFFFFFFFFFFFF AND PUSH20 0xFFFFFFFFFFFFFFFFFFFFFFFFFFFFFFFFFFFFFFFF AND DUP2 MSTORE PUSH1 0x20 ADD SWAP1 DUP2 MSTORE PUSH1 0x20 ADD PUSH1 0x0 KECCAK256 PUSH1 0x0 SWAP1 SLOAD SWAP1 PUSH2 0x100 EXP SWAP1 DIV PUSH1 0xFF AND SWAP1 POP SWAP3 SWAP2 POP POP JUMP JUMPDEST PUSH2 0x2182 PUSH2 0x30E0 JUMP JUMPDEST PUSH1 0x0 PUSH20 0xFFFFFFFFFFFFFFFFFFFFFFFFFFFFFFFFFFFFFFFF AND DUP2 PUSH20 0xFFFFFFFFFFFFFFFFFFFFFFFFFFFFFFFFFFFFFFFF AND EQ ISZERO PUSH2 0x21F2 JUMPI PUSH1 0x40 MLOAD PUSH32 0x8C379A000000000000000000000000000000000000000000000000000000000 DUP2 MSTORE PUSH1 0x4 ADD PUSH2 0x21E9 SWAP1 PUSH2 0x560E JUMP JUMPDEST PUSH1 0x40 MLOAD DUP1 SWAP2 SUB SWAP1 REVERT JUMPDEST PUSH2 0x21FB DUP2 PUSH2 0x323F JUMP JUMPDEST POP JUMP JUMPDEST PUSH2 0x2206 PUSH2 0x30E0 JUMP JUMPDEST PUSH1 0x0 PUSH20 0xFFFFFFFFFFFFFFFFFFFFFFFFFFFFFFFFFFFFFFFF AND DUP2 PUSH20 0xFFFFFFFFFFFFFFFFFFFFFFFFFFFFFFFFFFFFFFFF AND EQ ISZERO PUSH2 0x2276 JUMPI PUSH1 0x40 MLOAD PUSH32 0x8C379A000000000000000000000000000000000000000000000000000000000 DUP2 MSTORE PUSH1 0x4 ADD PUSH2 0x226D SWAP1 PUSH2 0x567A JUMP JUMPDEST PUSH1 0x40 MLOAD DUP1 SWAP2 SUB SWAP1 REVERT JUMPDEST DUP1 PUSH1 0xC PUSH1 0x0 PUSH2 0x100 EXP DUP2 SLOAD DUP2 PUSH20 0xFFFFFFFFFFFFFFFFFFFFFFFFFFFFFFFFFFFFFFFF MUL NOT AND SWAP1 DUP4 PUSH20 0xFFFFFFFFFFFFFFFFFFFFFFFFFFFFFFFFFFFFFFFF AND MUL OR SWAP1 SSTORE POP PUSH32 0xE57E7C1F36CC83FADE34E32351E6EEE7EB9DA532662B1B5DA10C631E8222ACA7 DUP2 PUSH1 0x40 MLOAD PUSH2 0x22E6 SWAP2 SWAP1 PUSH2 0x56A9 JUMP JUMPDEST PUSH1 0x40 MLOAD DUP1 SWAP2 SUB SWAP1 LOG1 POP JUMP JUMPDEST PUSH1 0xB SLOAD DUP2 JUMP JUMPDEST PUSH2 0x22FF PUSH2 0x315E JUMP JUMPDEST PUSH1 0x0 PUSH1 0xD DUP3 PUSH1 0x40 MLOAD PUSH2 0x2311 SWAP2 SWAP1 PUSH2 0x4AA9 JUMP JUMPDEST SWAP1 DUP2 MSTORE PUSH1 0x20 ADD PUSH1 0x40 MLOAD DUP1 SWAP2 SUB SWAP1 KECCAK256 SWAP1 POP PUSH1 0x0 PUSH1 0xE DUP4 PUSH1 0x40 MLOAD PUSH2 0x2333 SWAP2 SWAP1 PUSH2 0x4AA9 JUMP JUMPDEST SWAP1 DUP2 MSTORE PUSH1 0x20 ADD PUSH1 0x40 MLOAD DUP1 SWAP2 SUB SWAP1 KECCAK256 SLOAD SWAP1 POP CALLER PUSH20 0xFFFFFFFFFFFFFFFFFFFFFFFFFFFFFFFFFFFFFFFF AND DUP3 PUSH1 0x0 ADD PUSH1 0x0 SWAP1 SLOAD SWAP1 PUSH2 0x100 EXP SWAP1 DIV PUSH20 0xFFFFFFFFFFFFFFFFFFFFFFFFFFFFFFFFFFFFFFFF AND PUSH20 0xFFFFFFFFFFFFFFFFFFFFFFFFFFFFFFFFFFFFFFFF AND EQ DUP1 PUSH2 0x23D4 JUMPI POP CALLER PUSH20 0xFFFFFFFFFFFFFFFFFFFFFFFFFFFFFFFFFFFFFFFF AND PUSH2 0x23BC PUSH2 0x170E JUMP JUMPDEST PUSH20 0xFFFFFFFFFFFFFFFFFFFFFFFFFFFFFFFFFFFFFFFF AND EQ JUMPDEST PUSH2 0x2413 JUMPI PUSH1 0x40 MLOAD PUSH32 0x8C379A000000000000000000000000000000000000000000000000000000000 DUP2 MSTORE PUSH1 0x4 ADD PUSH2 0x240A SWAP1 PUSH2 0x516C JUMP JUMPDEST PUSH1 0x40 MLOAD DUP1 SWAP2 SUB SWAP1 REVERT JUMPDEST PUSH1 0x0 PUSH1 0xE DUP5 PUSH1 0x40 MLOAD PUSH2 0x2425 SWAP2 SWAP1 PUSH2 0x4AA9 JUMP JUMPDEST SWAP1 DUP2 MSTORE PUSH1 0x20 ADD PUSH1 0x40 MLOAD DUP1 SWAP2 SUB SWAP1 KECCAK256 SLOAD GT PUSH2 0x2474 JUMPI PUSH1 0x40 MLOAD PUSH32 0x8C379A000000000000000000000000000000000000000000000000000000000 DUP2 MSTORE PUSH1 0x4 ADD PUSH2 0x246B SWAP1 PUSH2 0x4B78 JUMP JUMPDEST PUSH1 0x40 MLOAD DUP1 SWAP2 SUB SWAP1 REVERT JUMPDEST PUSH1 0x1 DUP1 DUP2 GT ISZERO PUSH2 0x2487 JUMPI PUSH2 0x2486 PUSH2 0x42A1 JUMP JUMPDEST JUMPDEST DUP3 PUSH1 0x4 ADD PUSH1 0x0 SWAP1 SLOAD SWAP1 PUSH2 0x100 EXP SWAP1 DIV PUSH1 0xFF AND PUSH1 0x1 DUP2 GT ISZERO PUSH2 0x24AB JUMPI PUSH2 0x24AA PUSH2 0x42A1 JUMP JUMPDEST JUMPDEST EQ PUSH2 0x24EB JUMPI PUSH1 0x40 MLOAD PUSH32 0x8C379A000000000000000000000000000000000000000000000000000000000 DUP2 MSTORE PUSH1 0x4 ADD PUSH2 0x24E2 SWAP1 PUSH2 0x4BE4 JUMP JUMPDEST PUSH1 0x40 MLOAD DUP1 SWAP2 SUB SWAP1 REVERT JUMPDEST PUSH1 0x0 PUSH20 0xFFFFFFFFFFFFFFFFFFFFFFFFFFFFFFFFFFFFFFFF AND PUSH1 0xC PUSH1 0x0 SWAP1 SLOAD SWAP1 PUSH2 0x100 EXP SWAP1 DIV PUSH20 0xFFFFFFFFFFFFFFFFFFFFFFFFFFFFFFFFFFFFFFFF AND PUSH20 0xFFFFFFFFFFFFFFFFFFFFFFFFFFFFFFFFFFFFFFFF AND EQ ISZERO PUSH2 0x257D JUMPI PUSH1 0x40 MLOAD PUSH32 0x8C379A000000000000000000000000000000000000000000000000000000000 DUP2 MSTORE PUSH1 0x4 ADD PUSH2 0x2574 SWAP1 PUSH2 0x5710 JUMP JUMPDEST PUSH1 0x40 MLOAD DUP1 SWAP2 SUB SWAP1 REVERT JUMPDEST PUSH1 0x0 PUSH1 0xF PUSH1 0x0 DUP4 DUP2 MSTORE PUSH1 0x20 ADD SWAP1 DUP2 MSTORE PUSH1 0x20 ADD PUSH1 0x0 KECCAK256 SWAP1 POP DUP1 PUSH1 0x5 ADD PUSH1 0x0 SWAP1 SLOAD SWAP1 PUSH2 0x100 EXP SWAP1 DIV PUSH1 0xFF AND ISZERO PUSH2 0x25E6 JUMPI PUSH1 0x40 MLOAD PUSH32 0x8C379A000000000000000000000000000000000000000000000000000000000 DUP2 MSTORE PUSH1 0x4 ADD PUSH2 0x25DD SWAP1 PUSH2 0x4EF9 JUMP JUMPDEST PUSH1 0x40 MLOAD DUP1 SWAP2 SUB SWAP1 REVERT JUMPDEST PUSH2 0x25EE PUSH2 0x31AE JUMP JUMPDEST DUP2 PUSH1 0x3 ADD SLOAD LT DUP1 ISZERO PUSH2 0x260A JUMPI POP DUP1 PUSH1 0x4 ADD SLOAD PUSH2 0x2608 PUSH2 0x31AE JUMP JUMPDEST GT JUMPDEST PUSH2 0x2649 JUMPI PUSH1 0x40 MLOAD PUSH32 0x8C379A000000000000000000000000000000000000000000000000000000000 DUP2 MSTORE PUSH1 0x4 ADD PUSH2 0x2640 SWAP1 PUSH2 0x577C JUMP JUMPDEST PUSH1 0x40 MLOAD DUP1 SWAP2 SUB SWAP1 REVERT JUMPDEST PUSH1 0x0 PUSH1 0x10 PUSH1 0x0 DUP5 DUP2 MSTORE PUSH1 0x20 ADD SWAP1 DUP2 MSTORE PUSH1 0x20 ADD PUSH1 0x0 KECCAK256 SWAP1 POP PUSH1 0x0 DUP2 PUSH1 0x0 ADD PUSH1 0x0 SWAP1 SLOAD SWAP1 PUSH2 0x100 EXP SWAP1 DIV PUSH20 0xFFFFFFFFFFFFFFFFFFFFFFFFFFFFFFFFFFFFFFFF AND SWAP1 POP PUSH1 0x0 PUSH20 0xFFFFFFFFFFFFFFFFFFFFFFFFFFFFFFFFFFFFFFFF AND DUP2 PUSH20 0xFFFFFFFFFFFFFFFFFFFFFFFFFFFFFFFFFFFFFFFF AND EQ ISZERO PUSH2 0x26F9 JUMPI PUSH1 0x40 MLOAD PUSH32 0x8C379A000000000000000000000000000000000000000000000000000000000 DUP2 MSTORE PUSH1 0x4 ADD PUSH2 0x26F0 SWAP1 PUSH2 0x57E8 JUMP JUMPDEST PUSH1 0x40 MLOAD DUP1 SWAP2 SUB SWAP1 REVERT JUMPDEST PUSH1 0x0 DUP3 PUSH1 0x1 ADD SLOAD SWAP1 POP PUSH1 0x1 DUP5 PUSH1 0x5 ADD PUSH1 0x0 PUSH2 0x100 EXP DUP2 SLOAD DUP2 PUSH1 0xFF MUL NOT AND SWAP1 DUP4 ISZERO ISZERO MUL OR SWAP1 SSTORE POP PUSH1 0x10 PUSH1 0x0 DUP7 DUP2 MSTORE PUSH1 0x20 ADD SWAP1 DUP2 MSTORE PUSH1 0x20 ADD PUSH1 0x0 KECCAK256 PUSH1 0x0 DUP1 DUP3 ADD PUSH1 0x0 PUSH2 0x100 EXP DUP2 SLOAD SWAP1 PUSH20 0xFFFFFFFFFFFFFFFFFFFFFFFFFFFFFFFFFFFFFFFF MUL NOT AND SWAP1 SSTORE PUSH1 0x1 DUP3 ADD PUSH1 0x0 SWAP1 SSTORE PUSH1 0x2 DUP3 ADD PUSH1 0x0 SWAP1 SSTORE POP POP PUSH1 0x0 DUP1 DUP8 PUSH1 0x0 ADD PUSH1 0x0 SWAP1 SLOAD SWAP1 PUSH2 0x100 EXP SWAP1 DIV PUSH20 0xFFFFFFFFFFFFFFFFFFFFFFFFFFFFFFFFFFFFFFFF AND SWAP1 POP PUSH1 0x0 DUP9 PUSH1 0x3 ADD SLOAD EQ DUP1 ISZERO PUSH2 0x27AC JUMPI POP PUSH1 0x0 PUSH1 0xA SLOAD GT JUMPDEST ISZERO PUSH2 0x27E1 JUMPI PUSH2 0x27DA PUSH2 0x3E8 PUSH2 0x27CC PUSH1 0xA SLOAD DUP7 PUSH2 0x35BD SWAP1 SWAP2 SWAP1 PUSH4 0xFFFFFFFF AND JUMP JUMPDEST PUSH2 0x35D3 SWAP1 SWAP2 SWAP1 PUSH4 0xFFFFFFFF AND JUMP JUMPDEST SWAP2 POP PUSH2 0x280D JUMP JUMPDEST PUSH2 0x280A PUSH2 0x3E8 PUSH2 0x27FC PUSH1 0xB SLOAD DUP7 PUSH2 0x35BD SWAP1 SWAP2 SWAP1 PUSH4 0xFFFFFFFF AND JUMP JUMPDEST PUSH2 0x35D3 SWAP1 SWAP2 SWAP1 PUSH4 0xFFFFFFFF AND JUMP JUMPDEST SWAP2 POP JUMPDEST PUSH1 0x0 DUP3 EQ ISZERO PUSH2 0x2851 JUMPI PUSH1 0x40 MLOAD PUSH32 0x8C379A000000000000000000000000000000000000000000000000000000000 DUP2 MSTORE PUSH1 0x4 ADD PUSH2 0x2848 SWAP1 PUSH2 0x5854 JUMP JUMPDEST PUSH1 0x40 MLOAD DUP1 SWAP2 SUB SWAP1 REVERT JUMPDEST PUSH1 0x9 PUSH1 0x0 SWAP1 SLOAD SWAP1 PUSH2 0x100 EXP SWAP1 DIV PUSH20 0xFFFFFFFFFFFFFFFFFFFFFFFFFFFFFFFFFFFFFFFF AND PUSH20 0xFFFFFFFFFFFFFFFFFFFFFFFFFFFFFFFFFFFFFFFF AND PUSH4 0xA9059CBB DUP3 DUP5 DUP7 PUSH2 0x289C SWAP2 SWAP1 PUSH2 0x5874 JUMP JUMPDEST PUSH1 0x40 MLOAD DUP4 PUSH4 0xFFFFFFFF AND PUSH1 0xE0 SHL DUP2 MSTORE PUSH1 0x4 ADD PUSH2 0x28B9 SWAP3 SWAP2 SWAP1 PUSH2 0x4DDA JUMP JUMPDEST PUSH1 0x20 PUSH1 0x40 MLOAD DUP1 DUP4 SUB DUP2 PUSH1 0x0 DUP8 DUP1 EXTCODESIZE ISZERO DUP1 ISZERO PUSH2 0x28D3 JUMPI PUSH1 0x0 DUP1 REVERT JUMPDEST POP GAS CALL ISZERO DUP1 ISZERO PUSH2 0x28E7 JUMPI RETURNDATASIZE PUSH1 0x0 DUP1 RETURNDATACOPY RETURNDATASIZE PUSH1 0x0 REVERT JUMPDEST POP POP POP POP PUSH1 0x40 MLOAD RETURNDATASIZE PUSH1 0x1F NOT PUSH1 0x1F DUP3 ADD AND DUP3 ADD DUP1 PUSH1 0x40 MSTORE POP DUP2 ADD SWAP1 PUSH2 0x290B SWAP2 SWAP1 PUSH2 0x4CBC JUMP JUMPDEST PUSH2 0x294A JUMPI PUSH1 0x40 MLOAD PUSH32 0x8C379A000000000000000000000000000000000000000000000000000000000 DUP2 MSTORE PUSH1 0x4 ADD PUSH2 0x2941 SWAP1 PUSH2 0x4B78 JUMP JUMPDEST PUSH1 0x40 MLOAD DUP1 SWAP2 SUB SWAP1 REVERT JUMPDEST PUSH1 0x9 PUSH1 0x0 SWAP1 SLOAD SWAP1 PUSH2 0x100 EXP SWAP1 DIV PUSH20 0xFFFFFFFFFFFFFFFFFFFFFFFFFFFFFFFFFFFFFFFF AND PUSH20 0xFFFFFFFFFFFFFFFFFFFFFFFFFFFFFFFFFFFFFFFF AND PUSH4 0xA9059CBB PUSH1 0xC PUSH1 0x0 SWAP1 SLOAD SWAP1 PUSH2 0x100 EXP SWAP1 DIV PUSH20 0xFFFFFFFFFFFFFFFFFFFFFFFFFFFFFFFFFFFFFFFF AND DUP5 PUSH1 0x40 MLOAD DUP4 PUSH4 0xFFFFFFFF AND PUSH1 0xE0 SHL DUP2 MSTORE PUSH1 0x4 ADD PUSH2 0x29C9 SWAP3 SWAP2 SWAP1 PUSH2 0x5907 JUMP JUMPDEST PUSH1 0x20 PUSH1 0x40 MLOAD DUP1 DUP4 SUB DUP2 PUSH1 0x0 DUP8 DUP1 EXTCODESIZE ISZERO DUP1 ISZERO PUSH2 0x29E3 JUMPI PUSH1 0x0 DUP1 REVERT JUMPDEST POP GAS CALL ISZERO DUP1 ISZERO PUSH2 0x29F7 JUMPI RETURNDATASIZE PUSH1 0x0 DUP1 RETURNDATACOPY RETURNDATASIZE PUSH1 0x0 REVERT JUMPDEST POP POP POP POP PUSH1 0x40 MLOAD RETURNDATASIZE PUSH1 0x1F NOT PUSH1 0x1F DUP3 ADD AND DUP3 ADD DUP1 PUSH1 0x40 MSTORE POP DUP2 ADD SWAP1 PUSH2 0x2A1B SWAP2 SWAP1 PUSH2 0x4CBC JUMP JUMPDEST PUSH2 0x2A5A JUMPI PUSH1 0x40 MLOAD PUSH32 0x8C379A000000000000000000000000000000000000000000000000000000000 DUP2 MSTORE PUSH1 0x4 ADD PUSH2 0x2A51 SWAP1 PUSH2 0x4B78 JUMP JUMPDEST PUSH1 0x40 MLOAD DUP1 SWAP2 SUB SWAP1 REVERT JUMPDEST PUSH2 0x2A83 DUP2 DUP6 PUSH1 0xE DUP13 PUSH1 0x40 MLOAD PUSH2 0x2A6F SWAP2 SWAP1 PUSH2 0x4AA9 JUMP JUMPDEST SWAP1 DUP2 MSTORE PUSH1 0x20 ADD PUSH1 0x40 MLOAD DUP1 SWAP2 SUB SWAP1 KECCAK256 SLOAD PUSH2 0xAEC JUMP JUMPDEST DUP4 DUP9 PUSH1 0x0 ADD PUSH1 0x0 PUSH2 0x100 EXP DUP2 SLOAD DUP2 PUSH20 0xFFFFFFFFFFFFFFFFFFFFFFFFFFFFFFFFFFFFFFFF MUL NOT AND SWAP1 DUP4 PUSH20 0xFFFFFFFFFFFFFFFFFFFFFFFFFFFFFFFFFFFFFFFF AND MUL OR SWAP1 SSTORE POP DUP3 DUP9 PUSH1 0x2 ADD DUP2 SWAP1 SSTORE POP PUSH2 0x2AE7 PUSH1 0x1 DUP10 PUSH1 0x3 ADD SLOAD PUSH2 0x35E9 SWAP1 SWAP2 SWAP1 PUSH4 0xFFFFFFFF AND JUMP JUMPDEST DUP9 PUSH1 0x3 ADD DUP2 SWAP1 SSTORE POP PUSH1 0x0 DUP9 PUSH1 0x4 ADD PUSH1 0x0 PUSH2 0x100 EXP DUP2 SLOAD DUP2 PUSH1 0xFF MUL NOT AND SWAP1 DUP4 PUSH1 0x1 DUP2 GT ISZERO PUSH2 0x2B17 JUMPI PUSH2 0x2B16 PUSH2 0x42A1 JUMP JUMPDEST JUMPDEST MUL OR SWAP1 SSTORE POP DUP4 DUP7 PUSH1 0x0 ADD PUSH1 0x0 PUSH2 0x100 EXP DUP2 SLOAD DUP2 PUSH20 0xFFFFFFFFFFFFFFFFFFFFFFFFFFFFFFFFFFFFFFFF MUL NOT AND SWAP1 DUP4 PUSH20 0xFFFFFFFFFFFFFFFFFFFFFFFFFFFFFFFFFFFFFFFF AND MUL OR SWAP1 SSTORE POP PUSH32 0x116AB0C03BFFF8D9996E5C0D5EBDD4DAF07EE1141C125826627D3015920F5530 DUP10 DUP3 DUP9 PUSH1 0x0 ADD PUSH1 0x0 SWAP1 SLOAD SWAP1 PUSH2 0x100 EXP SWAP1 DIV PUSH20 0xFFFFFFFFFFFFFFFFFFFFFFFFFFFFFFFFFFFFFFFF AND DUP7 DUP7 DUP14 PUSH1 0x3 ADD SLOAD PUSH1 0x40 MLOAD PUSH2 0x2BC0 SWAP7 SWAP6 SWAP5 SWAP4 SWAP3 SWAP2 SWAP1 PUSH2 0x5930 JUMP JUMPDEST PUSH1 0x40 MLOAD DUP1 SWAP2 SUB SWAP1 LOG1 POP POP POP POP POP POP POP POP PUSH2 0x2BD8 PUSH2 0x31B6 JUMP JUMPDEST POP JUMP JUMPDEST PUSH1 0x0 PUSH32 0x1FFC9A700000000000000000000000000000000000000000000000000000000 PUSH28 0xFFFFFFFFFFFFFFFFFFFFFFFFFFFFFFFFFFFFFFFFFFFFFFFFFFFFFFFF NOT AND DUP3 PUSH28 0xFFFFFFFFFFFFFFFFFFFFFFFFFFFFFFFFFFFFFFFFFFFFFFFFFFFFFFFF NOT AND EQ SWAP1 POP SWAP2 SWAP1 POP JUMP JUMPDEST PUSH2 0x2C4E DUP2 PUSH2 0x35FF JUMP JUMPDEST PUSH2 0x2C8D JUMPI PUSH1 0x40 MLOAD PUSH32 0x8C379A000000000000000000000000000000000000000000000000000000000 DUP2 MSTORE PUSH1 0x4 ADD PUSH2 0x2C84 SWAP1 PUSH2 0x4E8D JUMP JUMPDEST PUSH1 0x40 MLOAD DUP1 SWAP2 SUB SWAP1 REVERT JUMPDEST POP JUMP JUMPDEST PUSH1 0x0 CALLER SWAP1 POP SWAP1 JUMP JUMPDEST DUP2 PUSH1 0x4 PUSH1 0x0 DUP4 DUP2 MSTORE PUSH1 0x20 ADD SWAP1 DUP2 MSTORE PUSH1 0x20 ADD PUSH1 0x0 KECCAK256 PUSH1 0x0 PUSH2 0x100 EXP DUP2 SLOAD DUP2 PUSH20 0xFFFFFFFFFFFFFFFFFFFFFFFFFFFFFFFFFFFFFFFF MUL NOT AND SWAP1 DUP4 PUSH20 0xFFFFFFFFFFFFFFFFFFFFFFFFFFFFFFFFFFFFFFFF AND MUL OR SWAP1 SSTORE POP DUP1 DUP3 PUSH20 0xFFFFFFFFFFFFFFFFFFFFFFFFFFFFFFFFFFFFFFFF AND PUSH2 0x2D0B DUP4 PUSH2 0x1250 JUMP JUMPDEST PUSH20 0xFFFFFFFFFFFFFFFFFFFFFFFFFFFFFFFFFFFFFFFF AND PUSH32 0x8C5BE1E5EBEC7D5BD14F71427D1E84F3DD0314C0F7B2291E5B200AC8C7C3B925 PUSH1 0x40 MLOAD PUSH1 0x40 MLOAD DUP1 SWAP2 SUB SWAP1 LOG4 POP POP JUMP JUMPDEST PUSH1 0x0 DUP1 PUSH2 0x2D5D DUP4 PUSH2 0x1250 JUMP JUMPDEST SWAP1 POP DUP1 PUSH20 0xFFFFFFFFFFFFFFFFFFFFFFFFFFFFFFFFFFFFFFFF AND DUP5 PUSH20 0xFFFFFFFFFFFFFFFFFFFFFFFFFFFFFFFFFFFFFFFF AND EQ DUP1 PUSH2 0x2D9F JUMPI POP PUSH2 0x2D9E DUP2 DUP6 PUSH2 0x20E6 JUMP JUMPDEST JUMPDEST DUP1 PUSH2 0x2DDD JUMPI POP DUP4 PUSH20 0xFFFFFFFFFFFFFFFFFFFFFFFFFFFFFFFFFFFFFFFF AND PUSH2 0x2DC5 DUP5 PUSH2 0x8DB JUMP JUMPDEST PUSH20 0xFFFFFFFFFFFFFFFFFFFFFFFFFFFFFFFFFFFFFFFF AND EQ JUMPDEST SWAP2 POP POP SWAP3 SWAP2 POP POP JUMP JUMPDEST DUP3 PUSH20 0xFFFFFFFFFFFFFFFFFFFFFFFFFFFFFFFFFFFFFFFF AND PUSH2 0x2E06 DUP3 PUSH2 0x1250 JUMP JUMPDEST PUSH20 0xFFFFFFFFFFFFFFFFFFFFFFFFFFFFFFFFFFFFFFFF AND EQ PUSH2 0x2E5C JUMPI PUSH1 0x40 MLOAD PUSH32 0x8C379A000000000000000000000000000000000000000000000000000000000 DUP2 MSTORE PUSH1 0x4 ADD PUSH2 0x2E53 SWAP1 PUSH2 0x5A0A JUMP JUMPDEST PUSH1 0x40 MLOAD DUP1 SWAP2 SUB SWAP1 REVERT JUMPDEST PUSH1 0x0 PUSH20 0xFFFFFFFFFFFFFFFFFFFFFFFFFFFFFFFFFFFFFFFF AND DUP3 PUSH20 0xFFFFFFFFFFFFFFFFFFFFFFFFFFFFFFFFFFFFFFFF AND EQ ISZERO PUSH2 0x2ECC JUMPI PUSH1 0x40 MLOAD PUSH32 0x8C379A000000000000000000000000000000000000000000000000000000000 DUP2 MSTORE PUSH1 0x4 ADD PUSH2 0x2EC3 SWAP1 PUSH2 0x5A9C JUMP JUMPDEST PUSH1 0x40 MLOAD DUP1 SWAP2 SUB SWAP1 REVERT JUMPDEST PUSH2 0x2ED9 DUP4 DUP4 DUP4 PUSH1 0x1 PUSH2 0x3640 JUMP JUMPDEST DUP3 PUSH20 0xFFFFFFFFFFFFFFFFFFFFFFFFFFFFFFFFFFFFFFFF AND PUSH2 0x2EF9 DUP3 PUSH2 0x1250 JUMP JUMPDEST PUSH20 0xFFFFFFFFFFFFFFFFFFFFFFFFFFFFFFFFFFFFFFFF AND EQ PUSH2 0x2F4F JUMPI PUSH1 0x40 MLOAD PUSH32 0x8C379A000000000000000000000000000000000000000000000000000000000 DUP2 MSTORE PUSH1 0x4 ADD PUSH2 0x2F46 SWAP1 PUSH2 0x5A0A JUMP JUMPDEST PUSH1 0x40 MLOAD DUP1 SWAP2 SUB SWAP1 REVERT JUMPDEST PUSH1 0x4 PUSH1 0x0 DUP3 DUP2 MSTORE PUSH1 0x20 ADD SWAP1 DUP2 MSTORE PUSH1 0x20 ADD PUSH1 0x0 KECCAK256 PUSH1 0x0 PUSH2 0x100 EXP DUP2 SLOAD SWAP1 PUSH20 0xFFFFFFFFFFFFFFFFFFFFFFFFFFFFFFFFFFFFFFFF MUL NOT AND SWAP1 SSTORE PUSH1 0x1 PUSH1 0x3 PUSH1 0x0 DUP6 PUSH20 0xFFFFFFFFFFFFFFFFFFFFFFFFFFFFFFFFFFFFFFFF AND PUSH20 0xFFFFFFFFFFFFFFFFFFFFFFFFFFFFFFFFFFFFFFFF AND DUP2 MSTORE PUSH1 0x20 ADD SWAP1 DUP2 MSTORE PUSH1 0x20 ADD PUSH1 0x0 KECCAK256 PUSH1 0x0 DUP3 DUP3 SLOAD SUB SWAP3 POP POP DUP2 SWAP1 SSTORE POP PUSH1 0x1 PUSH1 0x3 PUSH1 0x0 DUP5 PUSH20 0xFFFFFFFFFFFFFFFFFFFFFFFFFFFFFFFFFFFFFFFF AND PUSH20 0xFFFFFFFFFFFFFFFFFFFFFFFFFFFFFFFFFFFFFFFF AND DUP2 MSTORE PUSH1 0x20 ADD SWAP1 DUP2 MSTORE PUSH1 0x20 ADD PUSH1 0x0 KECCAK256 PUSH1 0x0 DUP3 DUP3 SLOAD ADD SWAP3 POP POP DUP2 SWAP1 SSTORE POP DUP2 PUSH1 0x2 PUSH1 0x0 DUP4 DUP2 MSTORE PUSH1 0x20 ADD SWAP1 DUP2 MSTORE PUSH1 0x20 ADD PUSH1 0x0 KECCAK256 PUSH1 0x0 PUSH2 0x100 EXP DUP2 SLOAD DUP2 PUSH20 0xFFFFFFFFFFFFFFFFFFFFFFFFFFFFFFFFFFFFFFFF MUL NOT AND SWAP1 DUP4 PUSH20 0xFFFFFFFFFFFFFFFFFFFFFFFFFFFFFFFFFFFFFFFF AND MUL OR SWAP1 SSTORE POP DUP1 DUP3 PUSH20 0xFFFFFFFFFFFFFFFFFFFFFFFFFFFFFFFFFFFFFFFF AND DUP5 PUSH20 0xFFFFFFFFFFFFFFFFFFFFFFFFFFFFFFFFFFFFFFFF AND PUSH32 0xDDF252AD1BE2C89B69C2B068FC378DAA952BA7F163C4A11628F55A4DF523B3EF PUSH1 0x40 MLOAD PUSH1 0x40 MLOAD DUP1 SWAP2 SUB SWAP1 LOG4 PUSH2 0x30DB DUP4 DUP4 DUP4 PUSH1 0x1 PUSH2 0x3766 JUMP JUMPDEST POP POP POP JUMP JUMPDEST PUSH2 0x30E8 PUSH2 0x2C90 JUMP JUMPDEST PUSH20 0xFFFFFFFFFFFFFFFFFFFFFFFFFFFFFFFFFFFFFFFF AND PUSH2 0x3106 PUSH2 0x170E JUMP JUMPDEST PUSH20 0xFFFFFFFFFFFFFFFFFFFFFFFFFFFFFFFFFFFFFFFF AND EQ PUSH2 0x315C JUMPI PUSH1 0x40 MLOAD PUSH32 0x8C379A000000000000000000000000000000000000000000000000000000000 DUP2 MSTORE PUSH1 0x4 ADD PUSH2 0x3153 SWAP1 PUSH2 0x5B08 JUMP JUMPDEST PUSH1 0x40 MLOAD DUP1 SWAP2 SUB SWAP1 REVERT JUMPDEST JUMP JUMPDEST PUSH1 0x2 PUSH1 0x7 SLOAD EQ ISZERO PUSH2 0x31A4 JUMPI PUSH1 0x40 MLOAD PUSH32 0x8C379A000000000000000000000000000000000000000000000000000000000 DUP2 MSTORE PUSH1 0x4 ADD PUSH2 0x319B SWAP1 PUSH2 0x5B74 JUMP JUMPDEST PUSH1 0x40 MLOAD DUP1 SWAP2 SUB SWAP1 REVERT JUMPDEST PUSH1 0x2 PUSH1 0x7 DUP2 SWAP1 SSTORE POP JUMP JUMPDEST PUSH1 0x0 TIMESTAMP SWAP1 POP SWAP1 JUMP JUMPDEST PUSH1 0x1 PUSH1 0x7 DUP2 SWAP1 SSTORE POP JUMP JUMPDEST PUSH1 0x0 PUSH1 0x2 PUSH1 0x0 DUP4 DUP2 MSTORE PUSH1 0x20 ADD SWAP1 DUP2 MSTORE PUSH1 0x20 ADD PUSH1 0x0 KECCAK256 PUSH1 0x0 SWAP1 SLOAD SWAP1 PUSH2 0x100 EXP SWAP1 DIV PUSH20 0xFFFFFFFFFFFFFFFFFFFFFFFFFFFFFFFFFFFFFFFF AND SWAP1 POP SWAP2 SWAP1 POP JUMP JUMPDEST PUSH1 0x1 DUP2 PUSH1 0x0 ADD PUSH1 0x0 DUP3 DUP3 SLOAD ADD SWAP3 POP POP DUP2 SWAP1 SSTORE POP POP JUMP JUMPDEST PUSH1 0x0 DUP2 PUSH1 0x0 ADD SLOAD SWAP1 POP SWAP2 SWAP1 POP JUMP JUMPDEST PUSH2 0x323B DUP3 DUP3 PUSH1 0x40 MLOAD DUP1 PUSH1 0x20 ADD PUSH1 0x40 MSTORE DUP1 PUSH1 0x0 DUP2 MSTORE POP PUSH2 0x376C JUMP JUMPDEST POP POP JUMP JUMPDEST PUSH1 0x0 PUSH1 0x6 PUSH1 0x0 SWAP1 SLOAD SWAP1 PUSH2 0x100 EXP SWAP1 DIV PUSH20 0xFFFFFFFFFFFFFFFFFFFFFFFFFFFFFFFFFFFFFFFF AND SWAP1 POP DUP2 PUSH1 0x6 PUSH1 0x0 PUSH2 0x100 EXP DUP2 SLOAD DUP2 PUSH20 0xFFFFFFFFFFFFFFFFFFFFFFFFFFFFFFFFFFFFFFFF MUL NOT AND SWAP1 DUP4 PUSH20 0xFFFFFFFFFFFFFFFFFFFFFFFFFFFFFFFFFFFFFFFF AND MUL OR SWAP1 SSTORE POP DUP2 PUSH20 0xFFFFFFFFFFFFFFFFFFFFFFFFFFFFFFFFFFFFFFFF AND DUP2 PUSH20 0xFFFFFFFFFFFFFFFFFFFFFFFFFFFFFFFFFFFFFFFF AND PUSH32 0x8BE0079C531659141344CD1FD0A4F28419497F9722A3DAAFE3B4186F6B6457E0 PUSH1 0x40 MLOAD PUSH1 0x40 MLOAD DUP1 SWAP2 SUB SWAP1 LOG3 POP POP JUMP JUMPDEST DUP2 PUSH20 0xFFFFFFFFFFFFFFFFFFFFFFFFFFFFFFFFFFFFFFFF AND DUP4 PUSH20 0xFFFFFFFFFFFFFFFFFFFFFFFFFFFFFFFFFFFFFFFF AND EQ ISZERO PUSH2 0x3374 JUMPI PUSH1 0x40 MLOAD PUSH32 0x8C379A000000000000000000000000000000000000000000000000000000000 DUP2 MSTORE PUSH1 0x4 ADD PUSH2 0x336B SWAP1 PUSH2 0x5BE0 JUMP JUMPDEST PUSH1 0x40 MLOAD DUP1 SWAP2 SUB SWAP1 REVERT JUMPDEST DUP1 PUSH1 0x5 PUSH1 0x0 DUP6 PUSH20 0xFFFFFFFFFFFFFFFFFFFFFFFFFFFFFFFFFFFFFFFF AND PUSH20 0xFFFFFFFFFFFFFFFFFFFFFFFFFFFFFFFFFFFFFFFF AND DUP2 MSTORE PUSH1 0x20 ADD SWAP1 DUP2 MSTORE PUSH1 0x20 ADD PUSH1 0x0 KECCAK256 PUSH1 0x0 DUP5 PUSH20 0xFFFFFFFFFFFFFFFFFFFFFFFFFFFFFFFFFFFFFFFF AND PUSH20 0xFFFFFFFFFFFFFFFFFFFFFFFFFFFFFFFFFFFFFFFF AND DUP2 MSTORE PUSH1 0x20 ADD SWAP1 DUP2 MSTORE PUSH1 0x20 ADD PUSH1 0x0 KECCAK256 PUSH1 0x0 PUSH2 0x100 EXP DUP2 SLOAD DUP2 PUSH1 0xFF MUL NOT AND SWAP1 DUP4 ISZERO ISZERO MUL OR SWAP1 SSTORE POP DUP2 PUSH20 0xFFFFFFFFFFFFFFFFFFFFFFFFFFFFFFFFFFFFFFFF AND DUP4 PUSH20 0xFFFFFFFFFFFFFFFFFFFFFFFFFFFFFFFFFFFFFFFF AND PUSH32 0x17307EAB39AB6107E8899845AD3D59BD9653F200F220920489CA2B5937696C31 DUP4 PUSH1 0x40 MLOAD PUSH2 0x3465 SWAP2 SWAP1 PUSH2 0x3F33 JUMP JUMPDEST PUSH1 0x40 MLOAD DUP1 SWAP2 SUB SWAP1 LOG3 POP POP POP JUMP JUMPDEST PUSH2 0x347D DUP5 DUP5 DUP5 PUSH2 0x2DE6 JUMP JUMPDEST PUSH2 0x3489 DUP5 DUP5 DUP5 DUP5 PUSH2 0x37C7 JUMP JUMPDEST PUSH2 0x34C8 JUMPI PUSH1 0x40 MLOAD PUSH32 0x8C379A000000000000000000000000000000000000000000000000000000000 DUP2 MSTORE PUSH1 0x4 ADD PUSH2 0x34BF SWAP1 PUSH2 0x5C72 JUMP JUMPDEST PUSH1 0x40 MLOAD DUP1 SWAP2 SUB SWAP1 REVERT JUMPDEST POP POP POP POP JUMP JUMPDEST PUSH1 0x60 PUSH1 0x40 MLOAD DUP1 PUSH1 0x20 ADD PUSH1 0x40 MSTORE DUP1 PUSH1 0x0 DUP2 MSTORE POP SWAP1 POP SWAP1 JUMP JUMPDEST PUSH1 0x60 PUSH1 0x0 PUSH1 0x1 PUSH2 0x34F4 DUP5 PUSH2 0x395E JUMP JUMPDEST ADD SWAP1 POP PUSH1 0x0 DUP2 PUSH8 0xFFFFFFFFFFFFFFFF DUP2 GT ISZERO PUSH2 0x3513 JUMPI PUSH2 0x3512 PUSH2 0x412D JUMP JUMPDEST JUMPDEST PUSH1 0x40 MLOAD SWAP1 DUP1 DUP3 MSTORE DUP1 PUSH1 0x1F ADD PUSH1 0x1F NOT AND PUSH1 0x20 ADD DUP3 ADD PUSH1 0x40 MSTORE DUP1 ISZERO PUSH2 0x3545 JUMPI DUP2 PUSH1 0x20 ADD PUSH1 0x1 DUP3 MUL DUP1 CALLDATASIZE DUP4 CALLDATACOPY DUP1 DUP3 ADD SWAP2 POP POP SWAP1 POP JUMPDEST POP SWAP1 POP PUSH1 0x0 DUP3 PUSH1 0x20 ADD DUP3 ADD SWAP1 POP JUMPDEST PUSH1 0x1 ISZERO PUSH2 0x35B2 JUMPI DUP1 DUP1 PUSH1 0x1 SWAP1 SUB SWAP2 POP POP PUSH32 0x3031323334353637383961626364656600000000000000000000000000000000 PUSH1 0xA DUP7 MOD BYTE DUP2 MSTORE8 PUSH1 0xA DUP6 DUP2 PUSH2 0x359C JUMPI PUSH2 0x359B PUSH2 0x5C92 JUMP JUMPDEST JUMPDEST DIV SWAP5 POP PUSH1 0x0 DUP6 EQ ISZERO PUSH2 0x35AD JUMPI PUSH2 0x35B2 JUMP JUMPDEST PUSH2 0x3553 JUMP JUMPDEST DUP2 SWAP4 POP POP POP POP SWAP2 SWAP1 POP JUMP JUMPDEST PUSH1 0x0 DUP2 DUP4 PUSH2 0x35CB SWAP2 SWAP1 PUSH2 0x5CC1 JUMP JUMPDEST SWAP1 POP SWAP3 SWAP2 POP POP JUMP JUMPDEST PUSH1 0x0 DUP2 DUP4 PUSH2 0x35E1 SWAP2 SWAP1 PUSH2 0x5D1B JUMP JUMPDEST SWAP1 POP SWAP3 SWAP2 POP POP JUMP JUMPDEST PUSH1 0x0 DUP2 DUP4 PUSH2 0x35F7 SWAP2 SWAP1 PUSH2 0x4D84 JUMP JUMPDEST SWAP1 POP SWAP3 SWAP2 POP POP JUMP JUMPDEST PUSH1 0x0 DUP1 PUSH20 0xFFFFFFFFFFFFFFFFFFFFFFFFFFFFFFFFFFFFFFFF AND PUSH2 0x3621 DUP4 PUSH2 0x31C0 JUMP JUMPDEST PUSH20 0xFFFFFFFFFFFFFFFFFFFFFFFFFFFFFFFFFFFFFFFF AND EQ ISZERO SWAP1 POP SWAP2 SWAP1 POP JUMP JUMPDEST PUSH1 0x1 DUP2 GT ISZERO PUSH2 0x3760 JUMPI PUSH1 0x0 PUSH20 0xFFFFFFFFFFFFFFFFFFFFFFFFFFFFFFFFFFFFFFFF AND DUP5 PUSH20 0xFFFFFFFFFFFFFFFFFFFFFFFFFFFFFFFFFFFFFFFF AND EQ PUSH2 0x36D4 JUMPI DUP1 PUSH1 0x3 PUSH1 0x0 DUP7 PUSH20 0xFFFFFFFFFFFFFFFFFFFFFFFFFFFFFFFFFFFFFFFF AND PUSH20 0xFFFFFFFFFFFFFFFFFFFFFFFFFFFFFFFFFFFFFFFF AND DUP2 MSTORE PUSH1 0x20 ADD SWAP1 DUP2 MSTORE PUSH1 0x20 ADD PUSH1 0x0 KECCAK256 PUSH1 0x0 DUP3 DUP3 SLOAD PUSH2 0x36CC SWAP2 SWAP1 PUSH2 0x5874 JUMP JUMPDEST SWAP3 POP POP DUP2 SWAP1 SSTORE POP JUMPDEST PUSH1 0x0 PUSH20 0xFFFFFFFFFFFFFFFFFFFFFFFFFFFFFFFFFFFFFFFF AND DUP4 PUSH20 0xFFFFFFFFFFFFFFFFFFFFFFFFFFFFFFFFFFFFFFFF AND EQ PUSH2 0x375F JUMPI DUP1 PUSH1 0x3 PUSH1 0x0 DUP6 PUSH20 0xFFFFFFFFFFFFFFFFFFFFFFFFFFFFFFFFFFFFFFFF AND PUSH20 0xFFFFFFFFFFFFFFFFFFFFFFFFFFFFFFFFFFFFFFFF AND DUP2 MSTORE PUSH1 0x20 ADD SWAP1 DUP2 MSTORE PUSH1 0x20 ADD PUSH1 0x0 KECCAK256 PUSH1 0x0 DUP3 DUP3 SLOAD PUSH2 0x3757 SWAP2 SWAP1 PUSH2 0x4D84 JUMP JUMPDEST SWAP3 POP POP DUP2 SWAP1 SSTORE POP JUMPDEST JUMPDEST POP POP POP POP JUMP JUMPDEST POP POP POP POP JUMP JUMPDEST PUSH2 0x3776 DUP4 DUP4 PUSH2 0x3AB1 JUMP JUMPDEST PUSH2 0x3783 PUSH1 0x0 DUP5 DUP5 DUP5 PUSH2 0x37C7 JUMP JUMPDEST PUSH2 0x37C2 JUMPI PUSH1 0x40 MLOAD PUSH32 0x8C379A000000000000000000000000000000000000000000000000000000000 DUP2 MSTORE PUSH1 0x4 ADD PUSH2 0x37B9 SWAP1 PUSH2 0x5C72 JUMP JUMPDEST PUSH1 0x40 MLOAD DUP1 SWAP2 SUB SWAP1 REVERT JUMPDEST POP POP POP JUMP JUMPDEST PUSH1 0x0 PUSH2 0x37E8 DUP5 PUSH20 0xFFFFFFFFFFFFFFFFFFFFFFFFFFFFFFFFFFFFFFFF AND PUSH2 0x3CCF JUMP JUMPDEST ISZERO PUSH2 0x3951 JUMPI DUP4 PUSH20 0xFFFFFFFFFFFFFFFFFFFFFFFFFFFFFFFFFFFFFFFF AND PUSH4 0x150B7A02 PUSH2 0x3811 PUSH2 0x2C90 JUMP JUMPDEST DUP8 DUP7 DUP7 PUSH1 0x40 MLOAD DUP6 PUSH4 0xFFFFFFFF AND PUSH1 0xE0 SHL DUP2 MSTORE PUSH1 0x4 ADD PUSH2 0x3833 SWAP5 SWAP4 SWAP3 SWAP2 SWAP1 PUSH2 0x5DA1 JUMP JUMPDEST PUSH1 0x20 PUSH1 0x40 MLOAD DUP1 DUP4 SUB DUP2 PUSH1 0x0 DUP8 DUP1 EXTCODESIZE ISZERO DUP1 ISZERO PUSH2 0x384D JUMPI PUSH1 0x0 DUP1 REVERT JUMPDEST POP GAS CALL SWAP3 POP POP POP DUP1 ISZERO PUSH2 0x387E JUMPI POP PUSH1 0x40 MLOAD RETURNDATASIZE PUSH1 0x1F NOT PUSH1 0x1F DUP3 ADD AND DUP3 ADD DUP1 PUSH1 0x40 MSTORE POP DUP2 ADD SWAP1 PUSH2 0x387B SWAP2 SWAP1 PUSH2 0x5E02 JUMP JUMPDEST PUSH1 0x1 JUMPDEST PUSH2 0x3901 JUMPI RETURNDATASIZE DUP1 PUSH1 0x0 DUP2 EQ PUSH2 0x38AE JUMPI PUSH1 0x40 MLOAD SWAP2 POP PUSH1 0x1F NOT PUSH1 0x3F RETURNDATASIZE ADD AND DUP3 ADD PUSH1 0x40 MSTORE RETURNDATASIZE DUP3 MSTORE RETURNDATASIZE PUSH1 0x0 PUSH1 0x20 DUP5 ADD RETURNDATACOPY PUSH2 0x38B3 JUMP JUMPDEST PUSH1 0x60 SWAP2 POP JUMPDEST POP PUSH1 0x0 DUP2 MLOAD EQ ISZERO PUSH2 0x38F9 JUMPI PUSH1 0x40 MLOAD PUSH32 0x8C379A000000000000000000000000000000000000000000000000000000000 DUP2 MSTORE PUSH1 0x4 ADD PUSH2 0x38F0 SWAP1 PUSH2 0x5C72 JUMP JUMPDEST PUSH1 0x40 MLOAD DUP1 SWAP2 SUB SWAP1 REVERT JUMPDEST DUP1 MLOAD DUP2 PUSH1 0x20 ADD REVERT JUMPDEST PUSH4 0x150B7A02 PUSH1 0xE0 SHL PUSH28 0xFFFFFFFFFFFFFFFFFFFFFFFFFFFFFFFFFFFFFFFFFFFFFFFFFFFFFFFF NOT AND DUP2 PUSH28 0xFFFFFFFFFFFFFFFFFFFFFFFFFFFFFFFFFFFFFFFFFFFFFFFFFFFFFFFF NOT AND EQ SWAP2 POP POP PUSH2 0x3956 JUMP JUMPDEST PUSH1 0x1 SWAP1 POP JUMPDEST SWAP5 SWAP4 POP POP POP POP JUMP JUMPDEST PUSH1 0x0 DUP1 PUSH1 0x0 SWAP1 POP PUSH27 0x184F03E93FF9F4DAA797ED6E38ED64BF6A1F010000000000000000 DUP4 LT PUSH2 0x39BC JUMPI PUSH27 0x184F03E93FF9F4DAA797ED6E38ED64BF6A1F010000000000000000 DUP4 DUP2 PUSH2 0x39B2 JUMPI PUSH2 0x39B1 PUSH2 0x5C92 JUMP JUMPDEST JUMPDEST DIV SWAP3 POP PUSH1 0x40 DUP2 ADD SWAP1 POP JUMPDEST PUSH14 0x4EE2D6D415B85ACEF8100000000 DUP4 LT PUSH2 0x39F9 JUMPI PUSH14 0x4EE2D6D415B85ACEF8100000000 DUP4 DUP2 PUSH2 0x39EF JUMPI PUSH2 0x39EE PUSH2 0x5C92 JUMP JUMPDEST JUMPDEST DIV SWAP3 POP PUSH1 0x20 DUP2 ADD SWAP1 POP JUMPDEST PUSH7 0x2386F26FC10000 DUP4 LT PUSH2 0x3A28 JUMPI PUSH7 0x2386F26FC10000 DUP4 DUP2 PUSH2 0x3A1E JUMPI PUSH2 0x3A1D PUSH2 0x5C92 JUMP JUMPDEST JUMPDEST DIV SWAP3 POP PUSH1 0x10 DUP2 ADD SWAP1 POP JUMPDEST PUSH4 0x5F5E100 DUP4 LT PUSH2 0x3A51 JUMPI PUSH4 0x5F5E100 DUP4 DUP2 PUSH2 0x3A47 JUMPI PUSH2 0x3A46 PUSH2 0x5C92 JUMP JUMPDEST JUMPDEST DIV SWAP3 POP PUSH1 0x8 DUP2 ADD SWAP1 POP JUMPDEST PUSH2 0x2710 DUP4 LT PUSH2 0x3A76 JUMPI PUSH2 0x2710 DUP4 DUP2 PUSH2 0x3A6C JUMPI PUSH2 0x3A6B PUSH2 0x5C92 JUMP JUMPDEST JUMPDEST DIV SWAP3 POP PUSH1 0x4 DUP2 ADD SWAP1 POP JUMPDEST PUSH1 0x64 DUP4 LT PUSH2 0x3A99 JUMPI PUSH1 0x64 DUP4 DUP2 PUSH2 0x3A8F JUMPI PUSH2 0x3A8E PUSH2 0x5C92 JUMP JUMPDEST JUMPDEST DIV SWAP3 POP PUSH1 0x2 DUP2 ADD SWAP1 POP JUMPDEST PUSH1 0xA DUP4 LT PUSH2 0x3AA8 JUMPI PUSH1 0x1 DUP2 ADD SWAP1 POP JUMPDEST DUP1 SWAP2 POP POP SWAP2 SWAP1 POP JUMP JUMPDEST PUSH1 0x0 PUSH20 0xFFFFFFFFFFFFFFFFFFFFFFFFFFFFFFFFFFFFFFFF AND DUP3 PUSH20 0xFFFFFFFFFFFFFFFFFFFFFFFFFFFFFFFFFFFFFFFF AND EQ ISZERO PUSH2 0x3B21 JUMPI PUSH1 0x40 MLOAD PUSH32 0x8C379A000000000000000000000000000000000000000000000000000000000 DUP2 MSTORE PUSH1 0x4 ADD PUSH2 0x3B18 SWAP1 PUSH2 0x5E7B JUMP JUMPDEST PUSH1 0x40 MLOAD DUP1 SWAP2 SUB SWAP1 REVERT JUMPDEST PUSH2 0x3B2A DUP2 PUSH2 0x35FF JUMP JUMPDEST ISZERO PUSH2 0x3B6A JUMPI PUSH1 0x40 MLOAD PUSH32 0x8C379A000000000000000000000000000000000000000000000000000000000 DUP2 MSTORE PUSH1 0x4 ADD PUSH2 0x3B61 SWAP1 PUSH2 0x5EE7 JUMP JUMPDEST PUSH1 0x40 MLOAD DUP1 SWAP2 SUB SWAP1 REVERT JUMPDEST PUSH2 0x3B78 PUSH1 0x0 DUP4 DUP4 PUSH1 0x1 PUSH2 0x3640 JUMP JUMPDEST PUSH2 0x3B81 DUP2 PUSH2 0x35FF JUMP JUMPDEST ISZERO PUSH2 0x3BC1 JUMPI PUSH1 0x40 MLOAD PUSH32 0x8C379A000000000000000000000000000000000000000000000000000000000 DUP2 MSTORE PUSH1 0x4 ADD PUSH2 0x3BB8 SWAP1 PUSH2 0x5EE7 JUMP JUMPDEST PUSH1 0x40 MLOAD DUP1 SWAP2 SUB SWAP1 REVERT JUMPDEST PUSH1 0x1 PUSH1 0x3 PUSH1 0x0 DUP5 PUSH20 0xFFFFFFFFFFFFFFFFFFFFFFFFFFFFFFFFFFFFFFFF AND PUSH20 0xFFFFFFFFFFFFFFFFFFFFFFFFFFFFFFFFFFFFFFFF AND DUP2 MSTORE PUSH1 0x20 ADD SWAP1 DUP2 MSTORE PUSH1 0x20 ADD PUSH1 0x0 KECCAK256 PUSH1 0x0 DUP3 DUP3 SLOAD ADD SWAP3 POP POP DUP2 SWAP1 SSTORE POP DUP2 PUSH1 0x2 PUSH1 0x0 DUP4 DUP2 MSTORE PUSH1 0x20 ADD SWAP1 DUP2 MSTORE PUSH1 0x20 ADD PUSH1 0x0 KECCAK256 PUSH1 0x0 PUSH2 0x100 EXP DUP2 SLOAD DUP2 PUSH20 0xFFFFFFFFFFFFFFFFFFFFFFFFFFFFFFFFFFFFFFFF MUL NOT AND SWAP1 DUP4 PUSH20 0xFFFFFFFFFFFFFFFFFFFFFFFFFFFFFFFFFFFFFFFF AND MUL OR SWAP1 SSTORE POP DUP1 DUP3 PUSH20 0xFFFFFFFFFFFFFFFFFFFFFFFFFFFFFFFFFFFFFFFF AND PUSH1 0x0 PUSH20 0xFFFFFFFFFFFFFFFFFFFFFFFFFFFFFFFFFFFFFFFF AND PUSH32 0xDDF252AD1BE2C89B69C2B068FC378DAA952BA7F163C4A11628F55A4DF523B3EF PUSH1 0x40 MLOAD PUSH1 0x40 MLOAD DUP1 SWAP2 SUB SWAP1 LOG4 PUSH2 0x3CCB PUSH1 0x0 DUP4 DUP4 PUSH1 0x1 PUSH2 0x3766 JUMP JUMPDEST POP POP JUMP JUMPDEST PUSH1 0x0 DUP1 DUP3 PUSH20 0xFFFFFFFFFFFFFFFFFFFFFFFFFFFFFFFFFFFFFFFF AND EXTCODESIZE GT SWAP1 POP SWAP2 SWAP1 POP JUMP JUMPDEST DUP3 DUP1 SLOAD PUSH2 0x3CFE SWAP1 PUSH2 0x485C JUMP JUMPDEST SWAP1 PUSH1 0x0 MSTORE PUSH1 0x20 PUSH1 0x0 KECCAK256 SWAP1 PUSH1 0x1F ADD PUSH1 0x20 SWAP1 DIV DUP2 ADD SWAP3 DUP3 PUSH2 0x3D20 JUMPI PUSH1 0x0 DUP6 SSTORE PUSH2 0x3D67 JUMP JUMPDEST DUP3 PUSH1 0x1F LT PUSH2 0x3D39 JUMPI DUP1 MLOAD PUSH1 0xFF NOT AND DUP4 DUP1 ADD OR DUP6 SSTORE PUSH2 0x3D67 JUMP JUMPDEST DUP3 DUP1 ADD PUSH1 0x1 ADD DUP6 SSTORE DUP3 ISZERO PUSH2 0x3D67 JUMPI SWAP2 DUP3 ADD JUMPDEST DUP3 DUP2 GT ISZERO PUSH2 0x3D66 JUMPI DUP3 MLOAD DUP3 SSTORE SWAP2 PUSH1 0x20 ADD SWAP2 SWAP1 PUSH1 0x1 ADD SWAP1 PUSH2 0x3D4B JUMP JUMPDEST JUMPDEST POP SWAP1 POP PUSH2 0x3D74 SWAP2 SWAP1 PUSH2 0x3D78 JUMP JUMPDEST POP SWAP1 JUMP JUMPDEST JUMPDEST DUP1 DUP3 GT ISZERO PUSH2 0x3D91 JUMPI PUSH1 0x0 DUP2 PUSH1 0x0 SWAP1 SSTORE POP PUSH1 0x1 ADD PUSH2 0x3D79 JUMP JUMPDEST POP SWAP1 JUMP JUMPDEST PUSH1 0x0 PUSH1 0x40 MLOAD SWAP1 POP SWAP1 JUMP JUMPDEST PUSH1 0x0 DUP1 REVERT JUMPDEST PUSH1 0x0 DUP1 REVERT JUMPDEST PUSH1 0x0 DUP2 SWAP1 POP SWAP2 SWAP1 POP JUMP JUMPDEST PUSH2 0x3DBC DUP2 PUSH2 0x3DA9 JUMP JUMPDEST DUP2 EQ PUSH2 0x3DC7 JUMPI PUSH1 0x0 DUP1 REVERT JUMPDEST POP JUMP JUMPDEST PUSH1 0x0 DUP2 CALLDATALOAD SWAP1 POP PUSH2 0x3DD9 DUP2 PUSH2 0x3DB3 JUMP JUMPDEST SWAP3 SWAP2 POP POP JUMP JUMPDEST PUSH1 0x0 PUSH1 0x20 DUP3 DUP5 SUB SLT ISZERO PUSH2 0x3DF5 JUMPI PUSH2 0x3DF4 PUSH2 0x3D9F JUMP JUMPDEST JUMPDEST PUSH1 0x0 PUSH2 0x3E03 DUP5 DUP3 DUP6 ADD PUSH2 0x3DCA JUMP JUMPDEST SWAP2 POP POP SWAP3 SWAP2 POP POP JUMP JUMPDEST PUSH1 0x0 PUSH20 0xFFFFFFFFFFFFFFFFFFFFFFFFFFFFFFFFFFFFFFFF DUP3 AND SWAP1 POP SWAP2 SWAP1 POP JUMP JUMPDEST PUSH1 0x0 PUSH2 0x3E37 DUP3 PUSH2 0x3E0C JUMP JUMPDEST SWAP1 POP SWAP2 SWAP1 POP JUMP JUMPDEST PUSH2 0x3E47 DUP2 PUSH2 0x3E2C JUMP JUMPDEST DUP3 MSTORE POP POP JUMP JUMPDEST PUSH2 0x3E56 DUP2 PUSH2 0x3DA9 JUMP JUMPDEST DUP3 MSTORE POP POP JUMP JUMPDEST PUSH1 0x0 PUSH1 0x60 DUP3 ADD SWAP1 POP PUSH2 0x3E71 PUSH1 0x0 DUP4 ADD DUP7 PUSH2 0x3E3E JUMP JUMPDEST PUSH2 0x3E7E PUSH1 0x20 DUP4 ADD DUP6 PUSH2 0x3E4D JUMP JUMPDEST PUSH2 0x3E8B PUSH1 0x40 DUP4 ADD DUP5 PUSH2 0x3E4D JUMP JUMPDEST SWAP5 SWAP4 POP POP POP POP JUMP JUMPDEST PUSH1 0x0 PUSH32 0xFFFFFFFF00000000000000000000000000000000000000000000000000000000 DUP3 AND SWAP1 POP SWAP2 SWAP1 POP JUMP JUMPDEST PUSH2 0x3EC8 DUP2 PUSH2 0x3E93 JUMP JUMPDEST DUP2 EQ PUSH2 0x3ED3 JUMPI PUSH1 0x0 DUP1 REVERT JUMPDEST POP JUMP JUMPDEST PUSH1 0x0 DUP2 CALLDATALOAD SWAP1 POP PUSH2 0x3EE5 DUP2 PUSH2 0x3EBF JUMP JUMPDEST SWAP3 SWAP2 POP POP JUMP JUMPDEST PUSH1 0x0 PUSH1 0x20 DUP3 DUP5 SUB SLT ISZERO PUSH2 0x3F01 JUMPI PUSH2 0x3F00 PUSH2 0x3D9F JUMP JUMPDEST JUMPDEST PUSH1 0x0 PUSH2 0x3F0F DUP5 DUP3 DUP6 ADD PUSH2 0x3ED6 JUMP JUMPDEST SWAP2 POP POP SWAP3 SWAP2 POP POP JUMP JUMPDEST PUSH1 0x0 DUP2 ISZERO ISZERO SWAP1 POP SWAP2 SWAP1 POP JUMP JUMPDEST PUSH2 0x3F2D DUP2 PUSH2 0x3F18 JUMP JUMPDEST DUP3 MSTORE POP POP JUMP JUMPDEST PUSH1 0x0 PUSH1 0x20 DUP3 ADD SWAP1 POP PUSH2 0x3F48 PUSH1 0x0 DUP4 ADD DUP5 PUSH2 0x3F24 JUMP JUMPDEST SWAP3 SWAP2 POP POP JUMP JUMPDEST PUSH1 0x0 DUP2 MLOAD SWAP1 POP SWAP2 SWAP1 POP JUMP JUMPDEST PUSH1 0x0 DUP3 DUP3 MSTORE PUSH1 0x20 DUP3 ADD SWAP1 POP SWAP3 SWAP2 POP POP JUMP JUMPDEST PUSH1 0x0 JUMPDEST DUP4 DUP2 LT ISZERO PUSH2 0x3F88 JUMPI DUP1 DUP3 ADD MLOAD DUP2 DUP5 ADD MSTORE PUSH1 0x20 DUP2 ADD SWAP1 POP PUSH2 0x3F6D JUMP JUMPDEST DUP4 DUP2 GT ISZERO PUSH2 0x3F97 JUMPI PUSH1 0x0 DUP5 DUP5 ADD MSTORE JUMPDEST POP POP POP POP JUMP JUMPDEST PUSH1 0x0 PUSH1 0x1F NOT PUSH1 0x1F DUP4 ADD AND SWAP1 POP SWAP2 SWAP1 POP JUMP JUMPDEST PUSH1 0x0 PUSH2 0x3FB9 DUP3 PUSH2 0x3F4E JUMP JUMPDEST PUSH2 0x3FC3 DUP2 DUP6 PUSH2 0x3F59 JUMP JUMPDEST SWAP4 POP PUSH2 0x3FD3 DUP2 DUP6 PUSH1 0x20 DUP7 ADD PUSH2 0x3F6A JUMP JUMPDEST PUSH2 0x3FDC DUP2 PUSH2 0x3F9D JUMP JUMPDEST DUP5 ADD SWAP2 POP POP SWAP3 SWAP2 POP POP JUMP JUMPDEST PUSH1 0x0 PUSH1 0x20 DUP3 ADD SWAP1 POP DUP2 DUP2 SUB PUSH1 0x0 DUP4 ADD MSTORE PUSH2 0x4001 DUP2 DUP5 PUSH2 0x3FAE JUMP JUMPDEST SWAP1 POP SWAP3 SWAP2 POP POP JUMP JUMPDEST PUSH1 0x0 PUSH1 0x20 DUP3 ADD SWAP1 POP PUSH2 0x401E PUSH1 0x0 DUP4 ADD DUP5 PUSH2 0x3E3E JUMP JUMPDEST SWAP3 SWAP2 POP POP JUMP JUMPDEST PUSH2 0x402D DUP2 PUSH2 0x3E2C JUMP JUMPDEST DUP2 EQ PUSH2 0x4038 JUMPI PUSH1 0x0 DUP1 REVERT JUMPDEST POP JUMP JUMPDEST PUSH1 0x0 DUP2 CALLDATALOAD SWAP1 POP PUSH2 0x404A DUP2 PUSH2 0x4024 JUMP JUMPDEST SWAP3 SWAP2 POP POP JUMP JUMPDEST PUSH1 0x0 DUP1 PUSH1 0x40 DUP4 DUP6 SUB SLT ISZERO PUSH2 0x4067 JUMPI PUSH2 0x4066 PUSH2 0x3D9F JUMP JUMPDEST JUMPDEST PUSH1 0x0 PUSH2 0x4075 DUP6 DUP3 DUP7 ADD PUSH2 0x403B JUMP JUMPDEST SWAP3 POP POP PUSH1 0x20 PUSH2 0x4086 DUP6 DUP3 DUP7 ADD PUSH2 0x3DCA JUMP JUMPDEST SWAP2 POP POP SWAP3 POP SWAP3 SWAP1 POP JUMP JUMPDEST PUSH1 0x0 DUP1 PUSH1 0x0 PUSH1 0x60 DUP5 DUP7 SUB SLT ISZERO PUSH2 0x40A9 JUMPI PUSH2 0x40A8 PUSH2 0x3D9F JUMP JUMPDEST JUMPDEST PUSH1 0x0 PUSH2 0x40B7 DUP7 DUP3 DUP8 ADD PUSH2 0x403B JUMP JUMPDEST SWAP4 POP POP PUSH1 0x20 PUSH2 0x40C8 DUP7 DUP3 DUP8 ADD PUSH2 0x403B JUMP JUMPDEST SWAP3 POP POP PUSH1 0x40 PUSH2 0x40D9 DUP7 DUP3 DUP8 ADD PUSH2 0x3DCA JUMP JUMPDEST SWAP2 POP POP SWAP3 POP SWAP3 POP SWAP3 JUMP JUMPDEST PUSH1 0x0 DUP1 PUSH1 0x40 DUP4 DUP6 SUB SLT ISZERO PUSH2 0x40FA JUMPI PUSH2 0x40F9 PUSH2 0x3D9F JUMP JUMPDEST JUMPDEST PUSH1 0x0 PUSH2 0x4108 DUP6 DUP3 DUP7 ADD PUSH2 0x3DCA JUMP JUMPDEST SWAP3 POP POP PUSH1 0x20 PUSH2 0x4119 DUP6 DUP3 DUP7 ADD PUSH2 0x3DCA JUMP JUMPDEST SWAP2 POP POP SWAP3 POP SWAP3 SWAP1 POP JUMP JUMPDEST PUSH1 0x0 DUP1 REVERT JUMPDEST PUSH1 0x0 DUP1 REVERT JUMPDEST PUSH32 0x4E487B7100000000000000000000000000000000000000000000000000000000 PUSH1 0x0 MSTORE PUSH1 0x41 PUSH1 0x4 MSTORE PUSH1 0x24 PUSH1 0x0 REVERT JUMPDEST PUSH2 0x4165 DUP3 PUSH2 0x3F9D JUMP JUMPDEST DUP2 ADD DUP2 DUP2 LT PUSH8 0xFFFFFFFFFFFFFFFF DUP3 GT OR ISZERO PUSH2 0x4184 JUMPI PUSH2 0x4183 PUSH2 0x412D JUMP JUMPDEST JUMPDEST DUP1 PUSH1 0x40 MSTORE POP POP POP JUMP JUMPDEST PUSH1 0x0 PUSH2 0x4197 PUSH2 0x3D95 JUMP JUMPDEST SWAP1 POP PUSH2 0x41A3 DUP3 DUP3 PUSH2 0x415C JUMP JUMPDEST SWAP2 SWAP1 POP JUMP JUMPDEST PUSH1 0x0 PUSH8 0xFFFFFFFFFFFFFFFF DUP3 GT ISZERO PUSH2 0x41C3 JUMPI PUSH2 0x41C2 PUSH2 0x412D JUMP JUMPDEST JUMPDEST PUSH2 0x41CC DUP3 PUSH2 0x3F9D JUMP JUMPDEST SWAP1 POP PUSH1 0x20 DUP2 ADD SWAP1 POP SWAP2 SWAP1 POP JUMP JUMPDEST DUP3 DUP2 DUP4 CALLDATACOPY PUSH1 0x0 DUP4 DUP4 ADD MSTORE POP POP POP JUMP JUMPDEST PUSH1 0x0 PUSH2 0x41FB PUSH2 0x41F6 DUP5 PUSH2 0x41A8 JUMP JUMPDEST PUSH2 0x418D JUMP JUMPDEST SWAP1 POP DUP3 DUP2 MSTORE PUSH1 0x20 DUP2 ADD DUP5 DUP5 DUP5 ADD GT ISZERO PUSH2 0x4217 JUMPI PUSH2 0x4216 PUSH2 0x4128 JUMP JUMPDEST JUMPDEST PUSH2 0x4222 DUP5 DUP3 DUP6 PUSH2 0x41D9 JUMP JUMPDEST POP SWAP4 SWAP3 POP POP POP JUMP JUMPDEST PUSH1 0x0 DUP3 PUSH1 0x1F DUP4 ADD SLT PUSH2 0x423F JUMPI PUSH2 0x423E PUSH2 0x4123 JUMP JUMPDEST JUMPDEST DUP2 CALLDATALOAD PUSH2 0x424F DUP5 DUP3 PUSH1 0x20 DUP7 ADD PUSH2 0x41E8 JUMP JUMPDEST SWAP2 POP POP SWAP3 SWAP2 POP POP JUMP JUMPDEST PUSH1 0x0 PUSH1 0x20 DUP3 DUP5 SUB SLT ISZERO PUSH2 0x426E JUMPI PUSH2 0x426D PUSH2 0x3D9F JUMP JUMPDEST JUMPDEST PUSH1 0x0 DUP3 ADD CALLDATALOAD PUSH8 0xFFFFFFFFFFFFFFFF DUP2 GT ISZERO PUSH2 0x428C JUMPI PUSH2 0x428B PUSH2 0x3DA4 JUMP JUMPDEST JUMPDEST PUSH2 0x4298 DUP5 DUP3 DUP6 ADD PUSH2 0x422A JUMP JUMPDEST SWAP2 POP POP SWAP3 SWAP2 POP POP JUMP JUMPDEST PUSH32 0x4E487B7100000000000000000000000000000000000000000000000000000000 PUSH1 0x0 MSTORE PUSH1 0x21 PUSH1 0x4 MSTORE PUSH1 0x24 PUSH1 0x0 REVERT JUMPDEST PUSH1 0x2 DUP2 LT PUSH2 0x42E1 JUMPI PUSH2 0x42E0 PUSH2 0x42A1 JUMP JUMPDEST JUMPDEST POP JUMP JUMPDEST PUSH1 0x0 DUP2 SWAP1 POP PUSH2 0x42F2 DUP3 PUSH2 0x42D0 JUMP JUMPDEST SWAP2 SWAP1 POP JUMP JUMPDEST PUSH1 0x0 PUSH2 0x4302 DUP3 PUSH2 0x42E4 JUMP JUMPDEST SWAP1 POP SWAP2 SWAP1 POP JUMP JUMPDEST PUSH2 0x4312 DUP2 PUSH2 0x42F7 JUMP JUMPDEST DUP3 MSTORE POP POP JUMP JUMPDEST PUSH1 0x0 PUSH1 0xA0 DUP3 ADD SWAP1 POP PUSH2 0x432D PUSH1 0x0 DUP4 ADD DUP9 PUSH2 0x3E3E JUMP JUMPDEST DUP2 DUP2 SUB PUSH1 0x20 DUP4 ADD MSTORE PUSH2 0x433F DUP2 DUP8 PUSH2 0x3FAE JUMP JUMPDEST SWAP1 POP PUSH2 0x434E PUSH1 0x40 DUP4 ADD DUP7 PUSH2 0x3E4D JUMP JUMPDEST PUSH2 0x435B PUSH1 0x60 DUP4 ADD DUP6 PUSH2 0x3E4D JUMP JUMPDEST PUSH2 0x4368 PUSH1 0x80 DUP4 ADD DUP5 PUSH2 0x4309 JUMP JUMPDEST SWAP7 SWAP6 POP POP POP POP POP POP JUMP JUMPDEST PUSH1 0x0 PUSH1 0x20 DUP3 ADD SWAP1 POP PUSH2 0x4387 PUSH1 0x0 DUP4 ADD DUP5 PUSH2 0x3E4D JUMP JUMPDEST SWAP3 SWAP2 POP POP JUMP JUMPDEST PUSH1 0x0 PUSH1 0xC0 DUP3 ADD SWAP1 POP PUSH2 0x43A2 PUSH1 0x0 DUP4 ADD DUP10 PUSH2 0x3E3E JUMP JUMPDEST PUSH2 0x43AF PUSH1 0x20 DUP4 ADD DUP9 PUSH2 0x3E4D JUMP JUMPDEST PUSH2 0x43BC PUSH1 0x40 DUP4 ADD DUP8 PUSH2 0x3E4D JUMP JUMPDEST PUSH2 0x43C9 PUSH1 0x60 DUP4 ADD DUP7 PUSH2 0x3E4D JUMP JUMPDEST PUSH2 0x43D6 PUSH1 0x80 DUP4 ADD DUP6 PUSH2 0x3E4D JUMP JUMPDEST PUSH2 0x43E3 PUSH1 0xA0 DUP4 ADD DUP5 PUSH2 0x3F24 JUMP JUMPDEST SWAP8 SWAP7 POP POP POP POP POP POP POP JUMP JUMPDEST PUSH1 0x0 DUP1 PUSH1 0x40 DUP4 DUP6 SUB SLT ISZERO PUSH2 0x4405 JUMPI PUSH2 0x4404 PUSH2 0x3D9F JUMP JUMPDEST JUMPDEST PUSH1 0x0 DUP4 ADD CALLDATALOAD PUSH8 0xFFFFFFFFFFFFFFFF DUP2 GT ISZERO PUSH2 0x4423 JUMPI PUSH2 0x4422 PUSH2 0x3DA4 JUMP JUMPDEST JUMPDEST PUSH2 0x442F DUP6 DUP3 DUP7 ADD PUSH2 0x422A JUMP JUMPDEST SWAP3 POP POP PUSH1 0x20 PUSH2 0x4440 DUP6 DUP3 DUP7 ADD PUSH2 0x3DCA JUMP JUMPDEST SWAP2 POP POP SWAP3 POP SWAP3 SWAP1 POP JUMP JUMPDEST PUSH1 0x0 DUP1 REVERT JUMPDEST PUSH1 0x0 DUP1 REVERT JUMPDEST PUSH1 0x0 DUP1 DUP4 PUSH1 0x1F DUP5 ADD SLT PUSH2 0x446A JUMPI PUSH2 0x4469 PUSH2 0x4123 JUMP JUMPDEST JUMPDEST DUP3 CALLDATALOAD SWAP1 POP PUSH8 0xFFFFFFFFFFFFFFFF DUP2 GT ISZERO PUSH2 0x4487 JUMPI PUSH2 0x4486 PUSH2 0x444A JUMP JUMPDEST JUMPDEST PUSH1 0x20 DUP4 ADD SWAP2 POP DUP4 PUSH1 0x1 DUP3 MUL DUP4 ADD GT ISZERO PUSH2 0x44A3 JUMPI PUSH2 0x44A2 PUSH2 0x444F JUMP JUMPDEST JUMPDEST SWAP3 POP SWAP3 SWAP1 POP JUMP JUMPDEST PUSH1 0x0 DUP1 PUSH1 0x0 DUP1 PUSH1 0x40 DUP6 DUP8 SUB SLT ISZERO PUSH2 0x44C4 JUMPI PUSH2 0x44C3 PUSH2 0x3D9F JUMP JUMPDEST JUMPDEST PUSH1 0x0 DUP6 ADD CALLDATALOAD PUSH8 0xFFFFFFFFFFFFFFFF DUP2 GT ISZERO PUSH2 0x44E2 JUMPI PUSH2 0x44E1 PUSH2 0x3DA4 JUMP JUMPDEST JUMPDEST PUSH2 0x44EE DUP8 DUP3 DUP9 ADD PUSH2 0x4454 JUMP JUMPDEST SWAP5 POP SWAP5 POP POP PUSH1 0x20 DUP6 ADD CALLDATALOAD PUSH8 0xFFFFFFFFFFFFFFFF DUP2 GT ISZERO PUSH2 0x4511 JUMPI PUSH2 0x4510 PUSH2 0x3DA4 JUMP JUMPDEST JUMPDEST PUSH2 0x451D DUP8 DUP3 DUP9 ADD PUSH2 0x4454 JUMP JUMPDEST SWAP3 POP SWAP3 POP POP SWAP3 SWAP6 SWAP2 SWAP5 POP SWAP3 POP JUMP JUMPDEST PUSH1 0x0 PUSH1 0x20 DUP3 DUP5 SUB SLT ISZERO PUSH2 0x4541 JUMPI PUSH2 0x4540 PUSH2 0x3D9F JUMP JUMPDEST JUMPDEST PUSH1 0x0 PUSH2 0x454F DUP5 DUP3 DUP6 ADD PUSH2 0x403B JUMP JUMPDEST SWAP2 POP POP SWAP3 SWAP2 POP POP JUMP JUMPDEST PUSH2 0x4561 DUP2 PUSH2 0x3F18 JUMP JUMPDEST DUP2 EQ PUSH2 0x456C JUMPI PUSH1 0x0 DUP1 REVERT JUMPDEST POP JUMP JUMPDEST PUSH1 0x0 DUP2 CALLDATALOAD SWAP1 POP PUSH2 0x457E DUP2 PUSH2 0x4558 JUMP JUMPDEST SWAP3 SWAP2 POP POP JUMP JUMPDEST PUSH1 0x0 DUP1 PUSH1 0x40 DUP4 DUP6 SUB SLT ISZERO PUSH2 0x459B JUMPI PUSH2 0x459A PUSH2 0x3D9F JUMP JUMPDEST JUMPDEST PUSH1 0x0 PUSH2 0x45A9 DUP6 DUP3 DUP7 ADD PUSH2 0x403B JUMP JUMPDEST SWAP3 POP POP PUSH1 0x20 PUSH2 0x45BA DUP6 DUP3 DUP7 ADD PUSH2 0x456F JUMP JUMPDEST SWAP2 POP POP SWAP3 POP SWAP3 SWAP1 POP JUMP JUMPDEST PUSH1 0x0 PUSH8 0xFFFFFFFFFFFFFFFF DUP3 GT ISZERO PUSH2 0x45DF JUMPI PUSH2 0x45DE PUSH2 0x412D JUMP JUMPDEST JUMPDEST PUSH2 0x45E8 DUP3 PUSH2 0x3F9D JUMP JUMPDEST SWAP1 POP PUSH1 0x20 DUP2 ADD SWAP1 POP SWAP2 SWAP1 POP JUMP JUMPDEST PUSH1 0x0 PUSH2 0x4608 PUSH2 0x4603 DUP5 PUSH2 0x45C4 JUMP JUMPDEST PUSH2 0x418D JUMP JUMPDEST SWAP1 POP DUP3 DUP2 MSTORE PUSH1 0x20 DUP2 ADD DUP5 DUP5 DUP5 ADD GT ISZERO PUSH2 0x4624 JUMPI PUSH2 0x4623 PUSH2 0x4128 JUMP JUMPDEST JUMPDEST PUSH2 0x462F DUP5 DUP3 DUP6 PUSH2 0x41D9 JUMP JUMPDEST POP SWAP4 SWAP3 POP POP POP JUMP JUMPDEST PUSH1 0x0 DUP3 PUSH1 0x1F DUP4 ADD SLT PUSH2 0x464C JUMPI PUSH2 0x464B PUSH2 0x4123 JUMP JUMPDEST JUMPDEST DUP2 CALLDATALOAD PUSH2 0x465C DUP5 DUP3 PUSH1 0x20 DUP7 ADD PUSH2 0x45F5 JUMP JUMPDEST SWAP2 POP POP SWAP3 SWAP2 POP POP JUMP JUMPDEST PUSH1 0x0 DUP1 PUSH1 0x0 DUP1 PUSH1 0x80 DUP6 DUP8 SUB SLT ISZERO PUSH2 0x467F JUMPI PUSH2 0x467E PUSH2 0x3D9F JUMP JUMPDEST JUMPDEST PUSH1 0x0 PUSH2 0x468D DUP8 DUP3 DUP9 ADD PUSH2 0x403B JUMP JUMPDEST SWAP5 POP POP PUSH1 0x20 PUSH2 0x469E DUP8 DUP3 DUP9 ADD PUSH2 0x403B JUMP JUMPDEST SWAP4 POP POP PUSH1 0x40 PUSH2 0x46AF DUP8 DUP3 DUP9 ADD PUSH2 0x3DCA JUMP JUMPDEST SWAP3 POP POP PUSH1 0x60 DUP6 ADD CALLDATALOAD PUSH8 0xFFFFFFFFFFFFFFFF DUP2 GT ISZERO PUSH2 0x46D0 JUMPI PUSH2 0x46CF PUSH2 0x3DA4 JUMP JUMPDEST JUMPDEST PUSH2 0x46DC DUP8 DUP3 DUP9 ADD PUSH2 0x4637 JUMP JUMPDEST SWAP2 POP POP SWAP3 SWAP6 SWAP2 SWAP5 POP SWAP3 POP JUMP JUMPDEST PUSH1 0x0 DUP1 PUSH1 0x0 DUP1 PUSH1 0x0 DUP1 PUSH1 0xA0 DUP8 DUP10 SUB SLT ISZERO PUSH2 0x4705 JUMPI PUSH2 0x4704 PUSH2 0x3D9F JUMP JUMPDEST JUMPDEST PUSH1 0x0 DUP8 ADD CALLDATALOAD PUSH8 0xFFFFFFFFFFFFFFFF DUP2 GT ISZERO PUSH2 0x4723 JUMPI PUSH2 0x4722 PUSH2 0x3DA4 JUMP JUMPDEST JUMPDEST PUSH2 0x472F DUP10 DUP3 DUP11 ADD PUSH2 0x4454 JUMP JUMPDEST SWAP7 POP SWAP7 POP POP PUSH1 0x20 PUSH2 0x4742 DUP10 DUP3 DUP11 ADD PUSH2 0x3DCA JUMP JUMPDEST SWAP5 POP POP PUSH1 0x40 PUSH2 0x4753 DUP10 DUP3 DUP11 ADD PUSH2 0x3DCA JUMP JUMPDEST SWAP4 POP POP PUSH1 0x60 PUSH2 0x4764 DUP10 DUP3 DUP11 ADD PUSH2 0x3DCA JUMP JUMPDEST SWAP3 POP POP PUSH1 0x80 PUSH2 0x4775 DUP10 DUP3 DUP11 ADD PUSH2 0x3DCA JUMP JUMPDEST SWAP2 POP POP SWAP3 SWAP6 POP SWAP3 SWAP6 POP SWAP3 SWAP6 JUMP JUMPDEST PUSH1 0x0 DUP1 PUSH1 0x40 DUP4 DUP6 SUB SLT ISZERO PUSH2 0x4799 JUMPI PUSH2 0x4798 PUSH2 0x3D9F JUMP JUMPDEST JUMPDEST PUSH1 0x0 PUSH2 0x47A7 DUP6 DUP3 DUP7 ADD PUSH2 0x403B JUMP JUMPDEST SWAP3 POP POP PUSH1 0x20 PUSH2 0x47B8 DUP6 DUP3 DUP7 ADD PUSH2 0x403B JUMP JUMPDEST SWAP2 POP POP SWAP3 POP SWAP3 SWAP1 POP JUMP JUMPDEST PUSH1 0x0 PUSH2 0x47CD DUP3 PUSH2 0x3E0C JUMP JUMPDEST SWAP1 POP SWAP2 SWAP1 POP JUMP JUMPDEST PUSH2 0x47DD DUP2 PUSH2 0x47C2 JUMP JUMPDEST DUP2 EQ PUSH2 0x47E8 JUMPI PUSH1 0x0 DUP1 REVERT JUMPDEST POP JUMP JUMPDEST PUSH1 0x0 DUP2 CALLDATALOAD SWAP1 POP PUSH2 0x47FA DUP2 PUSH2 0x47D4 JUMP JUMPDEST SWAP3 SWAP2 POP POP JUMP JUMPDEST PUSH1 0x0 PUSH1 0x20 DUP3 DUP5 SUB SLT ISZERO PUSH2 0x4816 JUMPI PUSH2 0x4815 PUSH2 0x3D9F JUMP JUMPDEST JUMPDEST PUSH1 0x0 PUSH2 0x4824 DUP5 DUP3 DUP6 ADD PUSH2 0x47EB JUMP JUMPDEST SWAP2 POP POP SWAP3 SWAP2 POP POP JUMP JUMPDEST PUSH32 0x4E487B7100000000000000000000000000000000000000000000000000000000 PUSH1 0x0 MSTORE PUSH1 0x22 PUSH1 0x4 MSTORE PUSH1 0x24 PUSH1 0x0 REVERT JUMPDEST PUSH1 0x0 PUSH1 0x2 DUP3 DIV SWAP1 POP PUSH1 0x1 DUP3 AND DUP1 PUSH2 0x4874 JUMPI PUSH1 0x7F DUP3 AND SWAP2 POP JUMPDEST PUSH1 0x20 DUP3 LT DUP2 EQ ISZERO PUSH2 0x4888 JUMPI PUSH2 0x4887 PUSH2 0x482D JUMP JUMPDEST JUMPDEST POP SWAP2 SWAP1 POP JUMP JUMPDEST PUSH32 0x4552433732313A20617070726F76616C20746F2063757272656E74206F776E65 PUSH1 0x0 DUP3 ADD MSTORE PUSH32 0x7200000000000000000000000000000000000000000000000000000000000000 PUSH1 0x20 DUP3 ADD MSTORE POP JUMP JUMPDEST PUSH1 0x0 PUSH2 0x48EA PUSH1 0x21 DUP4 PUSH2 0x3F59 JUMP JUMPDEST SWAP2 POP PUSH2 0x48F5 DUP3 PUSH2 0x488E JUMP JUMPDEST PUSH1 0x40 DUP3 ADD SWAP1 POP SWAP2 SWAP1 POP JUMP JUMPDEST PUSH1 0x0 PUSH1 0x20 DUP3 ADD SWAP1 POP DUP2 DUP2 SUB PUSH1 0x0 DUP4 ADD MSTORE PUSH2 0x4919 DUP2 PUSH2 0x48DD JUMP JUMPDEST SWAP1 POP SWAP2 SWAP1 POP JUMP JUMPDEST PUSH32 0x4552433732313A20617070726F76652063616C6C6572206973206E6F7420746F PUSH1 0x0 DUP3 ADD MSTORE PUSH32 0x6B656E206F776E6572206F7220617070726F76656420666F7220616C6C000000 PUSH1 0x20 DUP3 ADD MSTORE POP JUMP JUMPDEST PUSH1 0x0 PUSH2 0x497C PUSH1 0x3D DUP4 PUSH2 0x3F59 JUMP JUMPDEST SWAP2 POP PUSH2 0x4987 DUP3 PUSH2 0x4920 JUMP JUMPDEST PUSH1 0x40 DUP3 ADD SWAP1 POP SWAP2 SWAP1 POP JUMP JUMPDEST PUSH1 0x0 PUSH1 0x20 DUP3 ADD SWAP1 POP DUP2 DUP2 SUB PUSH1 0x0 DUP4 ADD MSTORE PUSH2 0x49AB DUP2 PUSH2 0x496F JUMP JUMPDEST SWAP1 POP SWAP2 SWAP1 POP JUMP JUMPDEST PUSH32 0x4552433732313A2063616C6C6572206973206E6F7420746F6B656E206F776E65 PUSH1 0x0 DUP3 ADD MSTORE PUSH32 0x72206F7220617070726F76656400000000000000000000000000000000000000 PUSH1 0x20 DUP3 ADD MSTORE POP JUMP JUMPDEST PUSH1 0x0 PUSH2 0x4A0E PUSH1 0x2D DUP4 PUSH2 0x3F59 JUMP JUMPDEST SWAP2 POP PUSH2 0x4A19 DUP3 PUSH2 0x49B2 JUMP JUMPDEST PUSH1 0x40 DUP3 ADD SWAP1 POP SWAP2 SWAP1 POP JUMP JUMPDEST PUSH1 0x0 PUSH1 0x20 DUP3 ADD SWAP1 POP DUP2 DUP2 SUB PUSH1 0x0 DUP4 ADD MSTORE PUSH2 0x4A3D DUP2 PUSH2 0x4A01 JUMP JUMPDEST SWAP1 POP SWAP2 SWAP1 POP JUMP JUMPDEST PUSH1 0x0 PUSH1 0x40 DUP3 ADD SWAP1 POP PUSH2 0x4A59 PUSH1 0x0 DUP4 ADD DUP6 PUSH2 0x3E4D JUMP JUMPDEST PUSH2 0x4A66 PUSH1 0x20 DUP4 ADD DUP5 PUSH2 0x3E4D JUMP JUMPDEST SWAP4 SWAP3 POP POP POP JUMP JUMPDEST PUSH1 0x0 DUP2 SWAP1 POP SWAP3 SWAP2 POP POP JUMP JUMPDEST PUSH1 0x0 PUSH2 0x4A83 DUP3 PUSH2 0x3F4E JUMP JUMPDEST PUSH2 0x4A8D DUP2 DUP6 PUSH2 0x4A6D JUMP JUMPDEST SWAP4 POP PUSH2 0x4A9D DUP2 DUP6 PUSH1 0x20 DUP7 ADD PUSH2 0x3F6A JUMP JUMPDEST DUP1 DUP5 ADD SWAP2 POP POP SWAP3 SWAP2 POP POP JUMP JUMPDEST PUSH1 0x0 PUSH2 0x4AB5 DUP3 DUP5 PUSH2 0x4A78 JUMP JUMPDEST SWAP2 POP DUP2 SWAP1 POP SWAP3 SWAP2 POP POP JUMP JUMPDEST PUSH32 0x3235000000000000000000000000000000000000000000000000000000000000 PUSH1 0x0 DUP3 ADD MSTORE POP JUMP JUMPDEST PUSH1 0x0 PUSH2 0x4AF6 PUSH1 0x2 DUP4 PUSH2 0x3F59 JUMP JUMPDEST SWAP2 POP PUSH2 0x4B01 DUP3 PUSH2 0x4AC0 JUMP JUMPDEST PUSH1 0x20 DUP3 ADD SWAP1 POP SWAP2 SWAP1 POP JUMP JUMPDEST PUSH1 0x0 PUSH1 0x20 DUP3 ADD SWAP1 POP DUP2 DUP2 SUB PUSH1 0x0 DUP4 ADD MSTORE PUSH2 0x4B25 DUP2 PUSH2 0x4AE9 JUMP JUMPDEST SWAP1 POP SWAP2 SWAP1 POP JUMP JUMPDEST PUSH32 0x3236000000000000000000000000000000000000000000000000000000000000 PUSH1 0x0 DUP3 ADD MSTORE POP JUMP JUMPDEST PUSH1 0x0 PUSH2 0x4B62 PUSH1 0x2 DUP4 PUSH2 0x3F59 JUMP JUMPDEST SWAP2 POP PUSH2 0x4B6D DUP3 PUSH2 0x4B2C JUMP JUMPDEST PUSH1 0x20 DUP3 ADD SWAP1 POP SWAP2 SWAP1 POP JUMP JUMPDEST PUSH1 0x0 PUSH1 0x20 DUP3 ADD SWAP1 POP DUP2 DUP2 SUB PUSH1 0x0 DUP4 ADD MSTORE PUSH2 0x4B91 DUP2 PUSH2 0x4B55 JUMP JUMPDEST SWAP1 POP SWAP2 SWAP1 POP JUMP JUMPDEST PUSH32 0x3800000000000000000000000000000000000000000000000000000000000000 PUSH1 0x0 DUP3 ADD MSTORE POP JUMP JUMPDEST PUSH1 0x0 PUSH2 0x4BCE PUSH1 0x1 DUP4 PUSH2 0x3F59 JUMP JUMPDEST SWAP2 POP PUSH2 0x4BD9 DUP3 PUSH2 0x4B98 JUMP JUMPDEST PUSH1 0x20 DUP3 ADD SWAP1 POP SWAP2 SWAP1 POP JUMP JUMPDEST PUSH1 0x0 PUSH1 0x20 DUP3 ADD SWAP1 POP DUP2 DUP2 SUB PUSH1 0x0 DUP4 ADD MSTORE PUSH2 0x4BFD DUP2 PUSH2 0x4BC1 JUMP JUMPDEST SWAP1 POP SWAP2 SWAP1 POP JUMP JUMPDEST PUSH32 0x3132000000000000000000000000000000000000000000000000000000000000 PUSH1 0x0 DUP3 ADD MSTORE POP JUMP JUMPDEST PUSH1 0x0 PUSH2 0x4C3A PUSH1 0x2 DUP4 PUSH2 0x3F59 JUMP JUMPDEST SWAP2 POP PUSH2 0x4C45 DUP3 PUSH2 0x4C04 JUMP JUMPDEST PUSH1 0x20 DUP3 ADD SWAP1 POP SWAP2 SWAP1 POP JUMP JUMPDEST PUSH1 0x0 PUSH1 0x20 DUP3 ADD SWAP1 POP DUP2 DUP2 SUB PUSH1 0x0 DUP4 ADD MSTORE PUSH2 0x4C69 DUP2 PUSH2 0x4C2D JUMP JUMPDEST SWAP1 POP SWAP2 SWAP1 POP JUMP JUMPDEST PUSH1 0x0 PUSH1 0x60 DUP3 ADD SWAP1 POP PUSH2 0x4C85 PUSH1 0x0 DUP4 ADD DUP7 PUSH2 0x3E3E JUMP JUMPDEST PUSH2 0x4C92 PUSH1 0x20 DUP4 ADD DUP6 PUSH2 0x3E3E JUMP JUMPDEST PUSH2 0x4C9F PUSH1 0x40 DUP4 ADD DUP5 PUSH2 0x3E4D JUMP JUMPDEST SWAP5 SWAP4 POP POP POP POP JUMP JUMPDEST PUSH1 0x0 DUP2 MLOAD SWAP1 POP PUSH2 0x4CB6 DUP2 PUSH2 0x4558 JUMP JUMPDEST SWAP3 SWAP2 POP POP JUMP JUMPDEST PUSH1 0x0 PUSH1 0x20 DUP3 DUP5 SUB SLT ISZERO PUSH2 0x4CD2 JUMPI PUSH2 0x4CD1 PUSH2 0x3D9F JUMP JUMPDEST JUMPDEST PUSH1 0x0 PUSH2 0x4CE0 DUP5 DUP3 DUP6 ADD PUSH2 0x4CA7 JUMP JUMPDEST SWAP2 POP POP SWAP3 SWAP2 POP POP JUMP JUMPDEST PUSH32 0x3133000000000000000000000000000000000000000000000000000000000000 PUSH1 0x0 DUP3 ADD MSTORE POP JUMP JUMPDEST PUSH1 0x0 PUSH2 0x4D1F PUSH1 0x2 DUP4 PUSH2 0x3F59 JUMP JUMPDEST SWAP2 POP PUSH2 0x4D2A DUP3 PUSH2 0x4CE9 JUMP JUMPDEST PUSH1 0x20 DUP3 ADD SWAP1 POP SWAP2 SWAP1 POP JUMP JUMPDEST PUSH1 0x0 PUSH1 0x20 DUP3 ADD SWAP1 POP DUP2 DUP2 SUB PUSH1 0x0 DUP4 ADD MSTORE PUSH2 0x4D4E DUP2 PUSH2 0x4D12 JUMP JUMPDEST SWAP1 POP SWAP2 SWAP1 POP JUMP JUMPDEST PUSH32 0x4E487B7100000000000000000000000000000000000000000000000000000000 PUSH1 0x0 MSTORE PUSH1 0x11 PUSH1 0x4 MSTORE PUSH1 0x24 PUSH1 0x0 REVERT JUMPDEST PUSH1 0x0 PUSH2 0x4D8F DUP3 PUSH2 0x3DA9 JUMP JUMPDEST SWAP2 POP PUSH2 0x4D9A DUP4 PUSH2 0x3DA9 JUMP JUMPDEST SWAP3 POP DUP3 PUSH32 0xFFFFFFFFFFFFFFFFFFFFFFFFFFFFFFFFFFFFFFFFFFFFFFFFFFFFFFFFFFFFFFFF SUB DUP3 GT ISZERO PUSH2 0x4DCF JUMPI PUSH2 0x4DCE PUSH2 0x4D55 JUMP JUMPDEST JUMPDEST DUP3 DUP3 ADD SWAP1 POP SWAP3 SWAP2 POP POP JUMP JUMPDEST PUSH1 0x0 PUSH1 0x40 DUP3 ADD SWAP1 POP PUSH2 0x4DEF PUSH1 0x0 DUP4 ADD DUP6 PUSH2 0x3E3E JUMP JUMPDEST PUSH2 0x4DFC PUSH1 0x20 DUP4 ADD DUP5 PUSH2 0x3E4D JUMP JUMPDEST SWAP4 SWAP3 POP POP POP JUMP JUMPDEST PUSH1 0x0 PUSH1 0x60 DUP3 ADD SWAP1 POP DUP2 DUP2 SUB PUSH1 0x0 DUP4 ADD MSTORE PUSH2 0x4E1D DUP2 DUP7 PUSH2 0x3FAE JUMP JUMPDEST SWAP1 POP PUSH2 0x4E2C PUSH1 0x20 DUP4 ADD DUP6 PUSH2 0x3E3E JUMP JUMPDEST PUSH2 0x4E39 PUSH1 0x40 DUP4 ADD DUP5 PUSH2 0x3E4D JUMP JUMPDEST SWAP5 SWAP4 POP POP POP POP JUMP JUMPDEST PUSH32 0x4552433732313A20696E76616C696420746F6B656E2049440000000000000000 PUSH1 0x0 DUP3 ADD MSTORE POP JUMP JUMPDEST PUSH1 0x0 PUSH2 0x4E77 PUSH1 0x18 DUP4 PUSH2 0x3F59 JUMP JUMPDEST SWAP2 POP PUSH2 0x4E82 DUP3 PUSH2 0x4E41 JUMP JUMPDEST PUSH1 0x20 DUP3 ADD SWAP1 POP SWAP2 SWAP1 POP JUMP JUMPDEST PUSH1 0x0 PUSH1 0x20 DUP3 ADD SWAP1 POP DUP2 DUP2 SUB PUSH1 0x0 DUP4 ADD MSTORE PUSH2 0x4EA6 DUP2 PUSH2 0x4E6A JUMP JUMPDEST SWAP1 POP SWAP2 SWAP1 POP JUMP JUMPDEST PUSH32 0x3237000000000000000000000000000000000000000000000000000000000000 PUSH1 0x0 DUP3 ADD MSTORE POP JUMP JUMPDEST PUSH1 0x0 PUSH2 0x4EE3 PUSH1 0x2 DUP4 PUSH2 0x3F59 JUMP JUMPDEST SWAP2 POP PUSH2 0x4EEE DUP3 PUSH2 0x4EAD JUMP JUMPDEST PUSH1 0x20 DUP3 ADD SWAP1 POP SWAP2 SWAP1 POP JUMP JUMPDEST PUSH1 0x0 PUSH1 0x20 DUP3 ADD SWAP1 POP DUP2 DUP2 SUB PUSH1 0x0 DUP4 ADD MSTORE PUSH2 0x4F12 DUP2 PUSH2 0x4ED6 JUMP JUMPDEST SWAP1 POP SWAP2 SWAP1 POP JUMP JUMPDEST PUSH32 0x3238000000000000000000000000000000000000000000000000000000000000 PUSH1 0x0 DUP3 ADD MSTORE POP JUMP JUMPDEST PUSH1 0x0 PUSH2 0x4F4F PUSH1 0x2 DUP4 PUSH2 0x3F59 JUMP JUMPDEST SWAP2 POP PUSH2 0x4F5A DUP3 PUSH2 0x4F19 JUMP JUMPDEST PUSH1 0x20 DUP3 ADD SWAP1 POP SWAP2 SWAP1 POP JUMP JUMPDEST PUSH1 0x0 PUSH1 0x20 DUP3 ADD SWAP1 POP DUP2 DUP2 SUB PUSH1 0x0 DUP4 ADD MSTORE PUSH2 0x4F7E DUP2 PUSH2 0x4F42 JUMP JUMPDEST SWAP1 POP SWAP2 SWAP1 POP JUMP JUMPDEST PUSH1 0x0 PUSH2 0x4F91 DUP4 DUP6 PUSH2 0x4A6D JUMP JUMPDEST SWAP4 POP PUSH2 0x4F9E DUP4 DUP6 DUP5 PUSH2 0x41D9 JUMP JUMPDEST DUP3 DUP5 ADD SWAP1 POP SWAP4 SWAP3 POP POP POP JUMP JUMPDEST PUSH1 0x0 PUSH2 0x4FB7 DUP3 DUP5 DUP7 PUSH2 0x4F85 JUMP JUMPDEST SWAP2 POP DUP2 SWAP1 POP SWAP4 SWAP3 POP POP POP JUMP JUMPDEST PUSH32 0x3200000000000000000000000000000000000000000000000000000000000000 PUSH1 0x0 DUP3 ADD MSTORE POP JUMP JUMPDEST PUSH1 0x0 PUSH2 0x4FF9 PUSH1 0x1 DUP4 PUSH2 0x3F59 JUMP JUMPDEST SWAP2 POP PUSH2 0x5004 DUP3 PUSH2 0x4FC3 JUMP JUMPDEST PUSH1 0x20 DUP3 ADD SWAP1 POP SWAP2 SWAP1 POP JUMP JUMPDEST PUSH1 0x0 PUSH1 0x20 DUP3 ADD SWAP1 POP DUP2 DUP2 SUB PUSH1 0x0 DUP4 ADD MSTORE PUSH2 0x5028 DUP2 PUSH2 0x4FEC JUMP JUMPDEST SWAP1 POP SWAP2 SWAP1 POP JUMP JUMPDEST PUSH1 0x0 PUSH2 0x503B DUP4 DUP6 PUSH2 0x3F59 JUMP JUMPDEST SWAP4 POP PUSH2 0x5048 DUP4 DUP6 DUP5 PUSH2 0x41D9 JUMP JUMPDEST PUSH2 0x5051 DUP4 PUSH2 0x3F9D JUMP JUMPDEST DUP5 ADD SWAP1 POP SWAP4 SWAP3 POP POP POP JUMP JUMPDEST PUSH1 0x0 PUSH1 0x40 DUP3 ADD SWAP1 POP DUP2 DUP2 SUB PUSH1 0x0 DUP4 ADD MSTORE PUSH2 0x5077 DUP2 DUP6 DUP8 PUSH2 0x502F JUMP JUMPDEST SWAP1 POP PUSH2 0x5086 PUSH1 0x20 DUP4 ADD DUP5 PUSH2 0x3E4D JUMP JUMPDEST SWAP5 SWAP4 POP POP POP POP JUMP JUMPDEST PUSH32 0x4552433732313A2061646472657373207A65726F206973206E6F742061207661 PUSH1 0x0 DUP3 ADD MSTORE PUSH32 0x6C6964206F776E65720000000000000000000000000000000000000000000000 PUSH1 0x20 DUP3 ADD MSTORE POP JUMP JUMPDEST PUSH1 0x0 PUSH2 0x50EA PUSH1 0x29 DUP4 PUSH2 0x3F59 JUMP JUMPDEST SWAP2 POP PUSH2 0x50F5 DUP3 PUSH2 0x508E JUMP JUMPDEST PUSH1 0x40 DUP3 ADD SWAP1 POP SWAP2 SWAP1 POP JUMP JUMPDEST PUSH1 0x0 PUSH1 0x20 DUP3 ADD SWAP1 POP DUP2 DUP2 SUB PUSH1 0x0 DUP4 ADD MSTORE PUSH2 0x5119 DUP2 PUSH2 0x50DD JUMP JUMPDEST SWAP1 POP SWAP2 SWAP1 POP JUMP JUMPDEST PUSH32 0x3600000000000000000000000000000000000000000000000000000000000000 PUSH1 0x0 DUP3 ADD MSTORE POP JUMP JUMPDEST PUSH1 0x0 PUSH2 0x5156 PUSH1 0x1 DUP4 PUSH2 0x3F59 JUMP JUMPDEST SWAP2 POP PUSH2 0x5161 DUP3 PUSH2 0x5120 JUMP JUMPDEST PUSH1 0x20 DUP3 ADD SWAP1 POP SWAP2 SWAP1 POP JUMP JUMPDEST PUSH1 0x0 PUSH1 0x20 DUP3 ADD SWAP1 POP DUP2 DUP2 SUB PUSH1 0x0 DUP4 ADD MSTORE PUSH2 0x5185 DUP2 PUSH2 0x5149 JUMP JUMPDEST SWAP1 POP SWAP2 SWAP1 POP JUMP JUMPDEST PUSH32 0x3330000000000000000000000000000000000000000000000000000000000000 PUSH1 0x0 DUP3 ADD MSTORE POP JUMP JUMPDEST PUSH1 0x0 PUSH2 0x51C2 PUSH1 0x2 DUP4 PUSH2 0x3F59 JUMP JUMPDEST SWAP2 POP PUSH2 0x51CD DUP3 PUSH2 0x518C JUMP JUMPDEST PUSH1 0x20 DUP3 ADD SWAP1 POP SWAP2 SWAP1 POP JUMP JUMPDEST PUSH1 0x0 PUSH1 0x20 DUP3 ADD SWAP1 POP DUP2 DUP2 SUB PUSH1 0x0 DUP4 ADD MSTORE PUSH2 0x51F1 DUP2 PUSH2 0x51B5 JUMP JUMPDEST SWAP1 POP SWAP2 SWAP1 POP JUMP JUMPDEST PUSH32 0x3331000000000000000000000000000000000000000000000000000000000000 PUSH1 0x0 DUP3 ADD MSTORE POP JUMP JUMPDEST PUSH1 0x0 PUSH2 0x522E PUSH1 0x2 DUP4 PUSH2 0x3F59 JUMP JUMPDEST SWAP2 POP PUSH2 0x5239 DUP3 PUSH2 0x51F8 JUMP JUMPDEST PUSH1 0x20 DUP3 ADD SWAP1 POP SWAP2 SWAP1 POP JUMP JUMPDEST PUSH1 0x0 PUSH1 0x20 DUP3 ADD SWAP1 POP DUP2 DUP2 SUB PUSH1 0x0 DUP4 ADD MSTORE PUSH2 0x525D DUP2 PUSH2 0x5221 JUMP JUMPDEST SWAP1 POP SWAP2 SWAP1 POP JUMP JUMPDEST PUSH32 0x3332000000000000000000000000000000000000000000000000000000000000 PUSH1 0x0 DUP3 ADD MSTORE POP JUMP JUMPDEST PUSH1 0x0 PUSH2 0x529A PUSH1 0x2 DUP4 PUSH2 0x3F59 JUMP JUMPDEST SWAP2 POP PUSH2 0x52A5 DUP3 PUSH2 0x5264 JUMP JUMPDEST PUSH1 0x20 DUP3 ADD SWAP1 POP SWAP2 SWAP1 POP JUMP JUMPDEST PUSH1 0x0 PUSH1 0x20 DUP3 ADD SWAP1 POP DUP2 DUP2 SUB PUSH1 0x0 DUP4 ADD MSTORE PUSH2 0x52C9 DUP2 PUSH2 0x528D JUMP JUMPDEST SWAP1 POP SWAP2 SWAP1 POP JUMP JUMPDEST PUSH32 0x3333000000000000000000000000000000000000000000000000000000000000 PUSH1 0x0 DUP3 ADD MSTORE POP JUMP JUMPDEST PUSH1 0x0 PUSH2 0x5306 PUSH1 0x2 DUP4 PUSH2 0x3F59 JUMP JUMPDEST SWAP2 POP PUSH2 0x5311 DUP3 PUSH2 0x52D0 JUMP JUMPDEST PUSH1 0x20 DUP3 ADD SWAP1 POP SWAP2 SWAP1 POP JUMP JUMPDEST PUSH1 0x0 PUSH1 0x20 DUP3 ADD SWAP1 POP DUP2 DUP2 SUB PUSH1 0x0 DUP4 ADD MSTORE PUSH2 0x5335 DUP2 PUSH2 0x52F9 JUMP JUMPDEST SWAP1 POP SWAP2 SWAP1 POP JUMP JUMPDEST PUSH1 0x0 PUSH1 0x40 DUP3 ADD SWAP1 POP DUP2 DUP2 SUB PUSH1 0x0 DUP4 ADD MSTORE PUSH2 0x5356 DUP2 DUP6 PUSH2 0x3FAE JUMP JUMPDEST SWAP1 POP PUSH2 0x5365 PUSH1 0x20 DUP4 ADD DUP5 PUSH2 0x3E4D JUMP JUMPDEST SWAP4 SWAP3 POP POP POP JUMP JUMPDEST PUSH32 0x3138000000000000000000000000000000000000000000000000000000000000 PUSH1 0x0 DUP3 ADD MSTORE POP JUMP JUMPDEST PUSH1 0x0 PUSH2 0x53A2 PUSH1 0x2 DUP4 PUSH2 0x3F59 JUMP JUMPDEST SWAP2 POP PUSH2 0x53AD DUP3 PUSH2 0x536C JUMP JUMPDEST PUSH1 0x20 DUP3 ADD SWAP1 POP SWAP2 SWAP1 POP JUMP JUMPDEST PUSH1 0x0 PUSH1 0x20 DUP3 ADD SWAP1 POP DUP2 DUP2 SUB PUSH1 0x0 DUP4 ADD MSTORE PUSH2 0x53D1 DUP2 PUSH2 0x5395 JUMP JUMPDEST SWAP1 POP SWAP2 SWAP1 POP JUMP JUMPDEST PUSH32 0x3700000000000000000000000000000000000000000000000000000000000000 PUSH1 0x0 DUP3 ADD MSTORE POP JUMP JUMPDEST PUSH1 0x0 PUSH2 0x540E PUSH1 0x1 DUP4 PUSH2 0x3F59 JUMP JUMPDEST SWAP2 POP PUSH2 0x5419 DUP3 PUSH2 0x53D8 JUMP JUMPDEST PUSH1 0x20 DUP3 ADD SWAP1 POP SWAP2 SWAP1 POP JUMP JUMPDEST PUSH1 0x0 PUSH1 0x20 DUP3 ADD SWAP1 POP DUP2 DUP2 SUB PUSH1 0x0 DUP4 ADD MSTORE PUSH2 0x543D DUP2 PUSH2 0x5401 JUMP JUMPDEST SWAP1 POP SWAP2 SWAP1 POP JUMP JUMPDEST PUSH32 0x3232000000000000000000000000000000000000000000000000000000000000 PUSH1 0x0 DUP3 ADD MSTORE POP JUMP JUMPDEST PUSH1 0x0 PUSH2 0x547A PUSH1 0x2 DUP4 PUSH2 0x3F59 JUMP JUMPDEST SWAP2 POP PUSH2 0x5485 DUP3 PUSH2 0x5444 JUMP JUMPDEST PUSH1 0x20 DUP3 ADD SWAP1 POP SWAP2 SWAP1 POP JUMP JUMPDEST PUSH1 0x0 PUSH1 0x20 DUP3 ADD SWAP1 POP DUP2 DUP2 SUB PUSH1 0x0 DUP4 ADD MSTORE PUSH2 0x54A9 DUP2 PUSH2 0x546D JUMP JUMPDEST SWAP1 POP SWAP2 SWAP1 POP JUMP JUMPDEST PUSH32 0x3234000000000000000000000000000000000000000000000000000000000000 PUSH1 0x0 DUP3 ADD MSTORE POP JUMP JUMPDEST PUSH1 0x0 PUSH2 0x54E6 PUSH1 0x2 DUP4 PUSH2 0x3F59 JUMP JUMPDEST SWAP2 POP PUSH2 0x54F1 DUP3 PUSH2 0x54B0 JUMP JUMPDEST PUSH1 0x20 DUP3 ADD SWAP1 POP SWAP2 SWAP1 POP JUMP JUMPDEST PUSH1 0x0 PUSH1 0x20 DUP3 ADD SWAP1 POP DUP2 DUP2 SUB PUSH1 0x0 DUP4 ADD MSTORE PUSH2 0x5515 DUP2 PUSH2 0x54D9 JUMP JUMPDEST SWAP1 POP SWAP2 SWAP1 POP JUMP JUMPDEST PUSH1 0x0 PUSH1 0xA0 DUP3 ADD SWAP1 POP DUP2 DUP2 SUB PUSH1 0x0 DUP4 ADD MSTORE PUSH2 0x5537 DUP2 DUP9 DUP11 PUSH2 0x502F JUMP JUMPDEST SWAP1 POP PUSH2 0x5546 PUSH1 0x20 DUP4 ADD DUP8 PUSH2 0x3E4D JUMP JUMPDEST PUSH2 0x5553 PUSH1 0x40 DUP4 ADD DUP7 PUSH2 0x3E4D JUMP JUMPDEST PUSH2 0x5560 PUSH1 0x60 DUP4 ADD DUP6 PUSH2 0x3E4D JUMP JUMPDEST PUSH2 0x556D PUSH1 0x80 DUP4 ADD DUP5 PUSH2 0x3E4D JUMP JUMPDEST SWAP8 SWAP7 POP POP POP POP POP POP POP JUMP JUMPDEST PUSH1 0x0 PUSH2 0x5584 DUP3 DUP6 PUSH2 0x4A78 JUMP JUMPDEST SWAP2 POP PUSH2 0x5590 DUP3 DUP5 PUSH2 0x4A78 JUMP JUMPDEST SWAP2 POP DUP2 SWAP1 POP SWAP4 SWAP3 POP POP POP JUMP JUMPDEST PUSH32 0x4F776E61626C653A206E6577206F776E657220697320746865207A65726F2061 PUSH1 0x0 DUP3 ADD MSTORE PUSH32 0x6464726573730000000000000000000000000000000000000000000000000000 PUSH1 0x20 DUP3 ADD MSTORE POP JUMP JUMPDEST PUSH1 0x0 PUSH2 0x55F8 PUSH1 0x26 DUP4 PUSH2 0x3F59 JUMP JUMPDEST SWAP2 POP PUSH2 0x5603 DUP3 PUSH2 0x559C JUMP JUMPDEST PUSH1 0x40 DUP3 ADD SWAP1 POP SWAP2 SWAP1 POP JUMP JUMPDEST PUSH1 0x0 PUSH1 0x20 DUP3 ADD SWAP1 POP DUP2 DUP2 SUB PUSH1 0x0 DUP4 ADD MSTORE PUSH2 0x5627 DUP2 PUSH2 0x55EB JUMP JUMPDEST SWAP1 POP SWAP2 SWAP1 POP JUMP JUMPDEST PUSH32 0x3231000000000000000000000000000000000000000000000000000000000000 PUSH1 0x0 DUP3 ADD MSTORE POP JUMP JUMPDEST PUSH1 0x0 PUSH2 0x5664 PUSH1 0x2 DUP4 PUSH2 0x3F59 JUMP JUMPDEST SWAP2 POP PUSH2 0x566F DUP3 PUSH2 0x562E JUMP JUMPDEST PUSH1 0x20 DUP3 ADD SWAP1 POP SWAP2 SWAP1 POP JUMP JUMPDEST PUSH1 0x0 PUSH1 0x20 DUP3 ADD SWAP1 POP DUP2 DUP2 SUB PUSH1 0x0 DUP4 ADD MSTORE PUSH2 0x5693 DUP2 PUSH2 0x5657 JUMP JUMPDEST SWAP1 POP SWAP2 SWAP1 POP JUMP JUMPDEST PUSH2 0x56A3 DUP2 PUSH2 0x47C2 JUMP JUMPDEST DUP3 MSTORE POP POP JUMP JUMPDEST PUSH1 0x0 PUSH1 0x20 DUP3 ADD SWAP1 POP PUSH2 0x56BE PUSH1 0x0 DUP4 ADD DUP5 PUSH2 0x569A JUMP JUMPDEST SWAP3 SWAP2 POP POP JUMP JUMPDEST PUSH32 0x3139000000000000000000000000000000000000000000000000000000000000 PUSH1 0x0 DUP3 ADD MSTORE POP JUMP JUMPDEST PUSH1 0x0 PUSH2 0x56FA PUSH1 0x2 DUP4 PUSH2 0x3F59 JUMP JUMPDEST SWAP2 POP PUSH2 0x5705 DUP3 PUSH2 0x56C4 JUMP JUMPDEST PUSH1 0x20 DUP3 ADD SWAP1 POP SWAP2 SWAP1 POP JUMP JUMPDEST PUSH1 0x0 PUSH1 0x20 DUP3 ADD SWAP1 POP DUP2 DUP2 SUB PUSH1 0x0 DUP4 ADD MSTORE PUSH2 0x5729 DUP2 PUSH2 0x56ED JUMP JUMPDEST SWAP1 POP SWAP2 SWAP1 POP JUMP JUMPDEST PUSH32 0x3135000000000000000000000000000000000000000000000000000000000000 PUSH1 0x0 DUP3 ADD MSTORE POP JUMP JUMPDEST PUSH1 0x0 PUSH2 0x5766 PUSH1 0x2 DUP4 PUSH2 0x3F59 JUMP JUMPDEST SWAP2 POP PUSH2 0x5771 DUP3 PUSH2 0x5730 JUMP JUMPDEST PUSH1 0x20 DUP3 ADD SWAP1 POP SWAP2 SWAP1 POP JUMP JUMPDEST PUSH1 0x0 PUSH1 0x20 DUP3 ADD SWAP1 POP DUP2 DUP2 SUB PUSH1 0x0 DUP4 ADD MSTORE PUSH2 0x5795 DUP2 PUSH2 0x5759 JUMP JUMPDEST SWAP1 POP SWAP2 SWAP1 POP JUMP JUMPDEST PUSH32 0x3239000000000000000000000000000000000000000000000000000000000000 PUSH1 0x0 DUP3 ADD MSTORE POP JUMP JUMPDEST PUSH1 0x0 PUSH2 0x57D2 PUSH1 0x2 DUP4 PUSH2 0x3F59 JUMP JUMPDEST SWAP2 POP PUSH2 0x57DD DUP3 PUSH2 0x579C JUMP JUMPDEST PUSH1 0x20 DUP3 ADD SWAP1 POP SWAP2 SWAP1 POP JUMP JUMPDEST PUSH1 0x0 PUSH1 0x20 DUP3 ADD SWAP1 POP DUP2 DUP2 SUB PUSH1 0x0 DUP4 ADD MSTORE PUSH2 0x5801 DUP2 PUSH2 0x57C5 JUMP JUMPDEST SWAP1 POP SWAP2 SWAP1 POP JUMP JUMPDEST PUSH32 0x3230000000000000000000000000000000000000000000000000000000000000 PUSH1 0x0 DUP3 ADD MSTORE POP JUMP JUMPDEST PUSH1 0x0 PUSH2 0x583E PUSH1 0x2 DUP4 PUSH2 0x3F59 JUMP JUMPDEST SWAP2 POP PUSH2 0x5849 DUP3 PUSH2 0x5808 JUMP JUMPDEST PUSH1 0x20 DUP3 ADD SWAP1 POP SWAP2 SWAP1 POP JUMP JUMPDEST PUSH1 0x0 PUSH1 0x20 DUP3 ADD SWAP1 POP DUP2 DUP2 SUB PUSH1 0x0 DUP4 ADD MSTORE PUSH2 0x586D DUP2 PUSH2 0x5831 JUMP JUMPDEST SWAP1 POP SWAP2 SWAP1 POP JUMP JUMPDEST PUSH1 0x0 PUSH2 0x587F DUP3 PUSH2 0x3DA9 JUMP JUMPDEST SWAP2 POP PUSH2 0x588A DUP4 PUSH2 0x3DA9 JUMP JUMPDEST SWAP3 POP DUP3 DUP3 LT ISZERO PUSH2 0x589D JUMPI PUSH2 0x589C PUSH2 0x4D55 JUMP JUMPDEST JUMPDEST DUP3 DUP3 SUB SWAP1 POP SWAP3 SWAP2 POP POP JUMP JUMPDEST PUSH1 0x0 DUP2 SWAP1 POP SWAP2 SWAP1 POP JUMP JUMPDEST PUSH1 0x0 PUSH2 0x58CD PUSH2 0x58C8 PUSH2 0x58C3 DUP5 PUSH2 0x3E0C JUMP JUMPDEST PUSH2 0x58A8 JUMP JUMPDEST PUSH2 0x3E0C JUMP JUMPDEST SWAP1 POP SWAP2 SWAP1 POP JUMP JUMPDEST PUSH1 0x0 PUSH2 0x58DF DUP3 PUSH2 0x58B2 JUMP JUMPDEST SWAP1 POP SWAP2 SWAP1 POP JUMP JUMPDEST PUSH1 0x0 PUSH2 0x58F1 DUP3 PUSH2 0x58D4 JUMP JUMPDEST SWAP1 POP SWAP2 SWAP1 POP JUMP JUMPDEST PUSH2 0x5901 DUP2 PUSH2 0x58E6 JUMP JUMPDEST DUP3 MSTORE POP POP JUMP JUMPDEST PUSH1 0x0 PUSH1 0x40 DUP3 ADD SWAP1 POP PUSH2 0x591C PUSH1 0x0 DUP4 ADD DUP6 PUSH2 0x58F8 JUMP JUMPDEST PUSH2 0x5929 PUSH1 0x20 DUP4 ADD DUP5 PUSH2 0x3E4D JUMP JUMPDEST SWAP4 SWAP3 POP POP POP JUMP JUMPDEST PUSH1 0x0 PUSH1 0xC0 DUP3 ADD SWAP1 POP DUP2 DUP2 SUB PUSH1 0x0 DUP4 ADD MSTORE PUSH2 0x594A DUP2 DUP10 PUSH2 0x3FAE JUMP JUMPDEST SWAP1 POP PUSH2 0x5959 PUSH1 0x20 DUP4 ADD DUP9 PUSH2 0x3E3E JUMP JUMPDEST PUSH2 0x5966 PUSH1 0x40 DUP4 ADD DUP8 PUSH2 0x3E3E JUMP JUMPDEST PUSH2 0x5973 PUSH1 0x60 DUP4 ADD DUP7 PUSH2 0x3E4D JUMP JUMPDEST PUSH2 0x5980 PUSH1 0x80 DUP4 ADD DUP6 PUSH2 0x3E4D JUMP JUMPDEST PUSH2 0x598D PUSH1 0xA0 DUP4 ADD DUP5 PUSH2 0x3E4D JUMP JUMPDEST SWAP8 SWAP7 POP POP POP POP POP POP POP JUMP JUMPDEST PUSH32 0x4552433732313A207472616E736665722066726F6D20696E636F727265637420 PUSH1 0x0 DUP3 ADD MSTORE PUSH32 0x6F776E6572000000000000000000000000000000000000000000000000000000 PUSH1 0x20 DUP3 ADD MSTORE POP JUMP JUMPDEST PUSH1 0x0 PUSH2 0x59F4 PUSH1 0x25 DUP4 PUSH2 0x3F59 JUMP JUMPDEST SWAP2 POP PUSH2 0x59FF DUP3 PUSH2 0x5998 JUMP JUMPDEST PUSH1 0x40 DUP3 ADD SWAP1 POP SWAP2 SWAP1 POP JUMP JUMPDEST PUSH1 0x0 PUSH1 0x20 DUP3 ADD SWAP1 POP DUP2 DUP2 SUB PUSH1 0x0 DUP4 ADD MSTORE PUSH2 0x5A23 DUP2 PUSH2 0x59E7 JUMP JUMPDEST SWAP1 POP SWAP2 SWAP1 POP JUMP JUMPDEST PUSH32 0x4552433732313A207472616E7366657220746F20746865207A65726F20616464 PUSH1 0x0 DUP3 ADD MSTORE PUSH32 0x7265737300000000000000000000000000000000000000000000000000000000 PUSH1 0x20 DUP3 ADD MSTORE POP JUMP JUMPDEST PUSH1 0x0 PUSH2 0x5A86 PUSH1 0x24 DUP4 PUSH2 0x3F59 JUMP JUMPDEST SWAP2 POP PUSH2 0x5A91 DUP3 PUSH2 0x5A2A JUMP JUMPDEST PUSH1 0x40 DUP3 ADD SWAP1 POP SWAP2 SWAP1 POP JUMP JUMPDEST PUSH1 0x0 PUSH1 0x20 DUP3 ADD SWAP1 POP DUP2 DUP2 SUB PUSH1 0x0 DUP4 ADD MSTORE PUSH2 0x5AB5 DUP2 PUSH2 0x5A79 JUMP JUMPDEST SWAP1 POP SWAP2 SWAP1 POP JUMP JUMPDEST PUSH32 0x4F776E61626C653A2063616C6C6572206973206E6F7420746865206F776E6572 PUSH1 0x0 DUP3 ADD MSTORE POP JUMP JUMPDEST PUSH1 0x0 PUSH2 0x5AF2 PUSH1 0x20 DUP4 PUSH2 0x3F59 JUMP JUMPDEST SWAP2 POP PUSH2 0x5AFD DUP3 PUSH2 0x5ABC JUMP JUMPDEST PUSH1 0x20 DUP3 ADD SWAP1 POP SWAP2 SWAP1 POP JUMP JUMPDEST PUSH1 0x0 PUSH1 0x20 DUP3 ADD SWAP1 POP DUP2 DUP2 SUB PUSH1 0x0 DUP4 ADD MSTORE PUSH2 0x5B21 DUP2 PUSH2 0x5AE5 JUMP JUMPDEST SWAP1 POP SWAP2 SWAP1 POP JUMP JUMPDEST PUSH32 0x5265656E7472616E637947756172643A207265656E7472616E742063616C6C00 PUSH1 0x0 DUP3 ADD MSTORE POP JUMP JUMPDEST PUSH1 0x0 PUSH2 0x5B5E PUSH1 0x1F DUP4 PUSH2 0x3F59 JUMP JUMPDEST SWAP2 POP PUSH2 0x5B69 DUP3 PUSH2 0x5B28 JUMP JUMPDEST PUSH1 0x20 DUP3 ADD SWAP1 POP SWAP2 SWAP1 POP JUMP JUMPDEST PUSH1 0x0 PUSH1 0x20 DUP3 ADD SWAP1 POP DUP2 DUP2 SUB PUSH1 0x0 DUP4 ADD MSTORE PUSH2 0x5B8D DUP2 PUSH2 0x5B51 JUMP JUMPDEST SWAP1 POP SWAP2 SWAP1 POP JUMP JUMPDEST PUSH32 0x4552433732313A20617070726F766520746F2063616C6C657200000000000000 PUSH1 0x0 DUP3 ADD MSTORE POP JUMP JUMPDEST PUSH1 0x0 PUSH2 0x5BCA PUSH1 0x19 DUP4 PUSH2 0x3F59 JUMP JUMPDEST SWAP2 POP PUSH2 0x5BD5 DUP3 PUSH2 0x5B94 JUMP JUMPDEST PUSH1 0x20 DUP3 ADD SWAP1 POP SWAP2 SWAP1 POP JUMP JUMPDEST PUSH1 0x0 PUSH1 0x20 DUP3 ADD SWAP1 POP DUP2 DUP2 SUB PUSH1 0x0 DUP4 ADD MSTORE PUSH2 0x5BF9 DUP2 PUSH2 0x5BBD JUMP JUMPDEST SWAP1 POP SWAP2 SWAP1 POP JUMP JUMPDEST PUSH32 0x4552433732313A207472616E7366657220746F206E6F6E204552433732315265 PUSH1 0x0 DUP3 ADD MSTORE PUSH32 0x63656976657220696D706C656D656E7465720000000000000000000000000000 PUSH1 0x20 DUP3 ADD MSTORE POP JUMP JUMPDEST PUSH1 0x0 PUSH2 0x5C5C PUSH1 0x32 DUP4 PUSH2 0x3F59 JUMP JUMPDEST SWAP2 POP PUSH2 0x5C67 DUP3 PUSH2 0x5C00 JUMP JUMPDEST PUSH1 0x40 DUP3 ADD SWAP1 POP SWAP2 SWAP1 POP JUMP JUMPDEST PUSH1 0x0 PUSH1 0x20 DUP3 ADD SWAP1 POP DUP2 DUP2 SUB PUSH1 0x0 DUP4 ADD MSTORE PUSH2 0x5C8B DUP2 PUSH2 0x5C4F JUMP JUMPDEST SWAP1 POP SWAP2 SWAP1 POP JUMP JUMPDEST PUSH32 0x4E487B7100000000000000000000000000000000000000000000000000000000 PUSH1 0x0 MSTORE PUSH1 0x12 PUSH1 0x4 MSTORE PUSH1 0x24 PUSH1 0x0 REVERT JUMPDEST PUSH1 0x0 PUSH2 0x5CCC DUP3 PUSH2 0x3DA9 JUMP JUMPDEST SWAP2 POP PUSH2 0x5CD7 DUP4 PUSH2 0x3DA9 JUMP JUMPDEST SWAP3 POP DUP2 PUSH32 0xFFFFFFFFFFFFFFFFFFFFFFFFFFFFFFFFFFFFFFFFFFFFFFFFFFFFFFFFFFFFFFFF DIV DUP4 GT DUP3 ISZERO ISZERO AND ISZERO PUSH2 0x5D10 JUMPI PUSH2 0x5D0F PUSH2 0x4D55 JUMP JUMPDEST JUMPDEST DUP3 DUP3 MUL SWAP1 POP SWAP3 SWAP2 POP POP JUMP JUMPDEST PUSH1 0x0 PUSH2 0x5D26 DUP3 PUSH2 0x3DA9 JUMP JUMPDEST SWAP2 POP PUSH2 0x5D31 DUP4 PUSH2 0x3DA9 JUMP JUMPDEST SWAP3 POP DUP3 PUSH2 0x5D41 JUMPI PUSH2 0x5D40 PUSH2 0x5C92 JUMP JUMPDEST JUMPDEST DUP3 DUP3 DIV SWAP1 POP SWAP3 SWAP2 POP POP JUMP JUMPDEST PUSH1 0x0 DUP2 MLOAD SWAP1 POP SWAP2 SWAP1 POP JUMP JUMPDEST PUSH1 0x0 DUP3 DUP3 MSTORE PUSH1 0x20 DUP3 ADD SWAP1 POP SWAP3 SWAP2 POP POP JUMP JUMPDEST PUSH1 0x0 PUSH2 0x5D73 DUP3 PUSH2 0x5D4C JUMP JUMPDEST PUSH2 0x5D7D DUP2 DUP6 PUSH2 0x5D57 JUMP JUMPDEST SWAP4 POP PUSH2 0x5D8D DUP2 DUP6 PUSH1 0x20 DUP7 ADD PUSH2 0x3F6A JUMP JUMPDEST PUSH2 0x5D96 DUP2 PUSH2 0x3F9D JUMP JUMPDEST DUP5 ADD SWAP2 POP POP SWAP3 SWAP2 POP POP JUMP JUMPDEST PUSH1 0x0 PUSH1 0x80 DUP3 ADD SWAP1 POP PUSH2 0x5DB6 PUSH1 0x0 DUP4 ADD DUP8 PUSH2 0x3E3E JUMP JUMPDEST PUSH2 0x5DC3 PUSH1 0x20 DUP4 ADD DUP7 PUSH2 0x3E3E JUMP JUMPDEST PUSH2 0x5DD0 PUSH1 0x40 DUP4 ADD DUP6 PUSH2 0x3E4D JUMP JUMPDEST DUP2 DUP2 SUB PUSH1 0x60 DUP4 ADD MSTORE PUSH2 0x5DE2 DUP2 DUP5 PUSH2 0x5D68 JUMP JUMPDEST SWAP1 POP SWAP6 SWAP5 POP POP POP POP POP JUMP JUMPDEST PUSH1 0x0 DUP2 MLOAD SWAP1 POP PUSH2 0x5DFC DUP2 PUSH2 0x3EBF JUMP JUMPDEST SWAP3 SWAP2 POP POP JUMP JUMPDEST PUSH1 0x0 PUSH1 0x20 DUP3 DUP5 SUB SLT ISZERO PUSH2 0x5E18 JUMPI PUSH2 0x5E17 PUSH2 0x3D9F JUMP JUMPDEST JUMPDEST PUSH1 0x0 PUSH2 0x5E26 DUP5 DUP3 DUP6 ADD PUSH2 0x5DED JUMP JUMPDEST SWAP2 POP POP SWAP3 SWAP2 POP POP JUMP JUMPDEST PUSH32 0x4552433732313A206D696E7420746F20746865207A65726F2061646472657373 PUSH1 0x0 DUP3 ADD MSTORE POP JUMP JUMPDEST PUSH1 0x0 PUSH2 0x5E65 PUSH1 0x20 DUP4 PUSH2 0x3F59 JUMP JUMPDEST SWAP2 POP PUSH2 0x5E70 DUP3 PUSH2 0x5E2F JUMP JUMPDEST PUSH1 0x20 DUP3 ADD SWAP1 POP SWAP2 SWAP1 POP JUMP JUMPDEST PUSH1 0x0 PUSH1 0x20 DUP3 ADD SWAP1 POP DUP2 DUP2 SUB PUSH1 0x0 DUP4 ADD MSTORE PUSH2 0x5E94 DUP2 PUSH2 0x5E58 JUMP JUMPDEST SWAP1 POP SWAP2 SWAP1 POP JUMP JUMPDEST PUSH32 0x4552433732313A20746F6B656E20616C7265616479206D696E74656400000000 PUSH1 0x0 DUP3 ADD MSTORE POP JUMP JUMPDEST PUSH1 0x0 PUSH2 0x5ED1 PUSH1 0x1C DUP4 PUSH2 0x3F59 JUMP JUMPDEST SWAP2 POP PUSH2 0x5EDC DUP3 PUSH2 0x5E9B JUMP JUMPDEST PUSH1 0x20 DUP3 ADD SWAP1 POP SWAP2 SWAP1 POP JUMP JUMPDEST PUSH1 0x0 PUSH1 0x20 DUP3 ADD SWAP1 POP DUP2 DUP2 SUB PUSH1 0x0 DUP4 ADD MSTORE PUSH2 0x5F00 DUP2 PUSH2 0x5EC4 JUMP JUMPDEST SWAP1 POP SWAP2 SWAP1 POP JUMP INVALID LOG2 PUSH5 0x6970667358 0x22 SLT KECCAK256 SWAP9 SHL 0xEE 0xDA 0x49 0xC7 DUP3 DUP7 0xDA STOP SWAP12 0xAF DUP16 0xFC LOG0 PUSH18 0x68AFB48862DEB4EE5B1B42ED240CA1056473 PUSH16 0x6C634300080900330000000000000000 "},"methodIdentifiers":{"approve(address,uint256)":"095ea7b3","auctions(uint256)":"571a26a0","balanceOf(address)":"70a08231","bid(string,uint256)":"5f483313","createBidding(string,uint256,uint256,uint256,uint256)":"be06d53e","createNFT(string,string)":"68613d17","firstSaleFee()":"4874b2f4","getApproved(uint256)":"081812fc","isApprovedForAll(address,address)":"e985e9c5","listNFT(string)":"4387330e","name()":"06fdde03","owner()":"8da5cb5b","ownerOf(uint256)":"6352211e","renounceOwnership()":"715018a6","safeTransferFrom(address,address,uint256)":"42842e0e","safeTransferFrom(address,address,uint256,bytes)":"b88d4fde","secondSaleFee()":"fcc6f66d","setApprovalForAll(address,bool)":"a22cb465","settleBiddingSession(string)":"ff41edbc","supportsInterface(bytes4)":"01ffc9a7","symbol()":"95d89b41","tokenIdMapping(string)":"b88eabdd","tokenURI(uint256)":"c87b56dd","topBids(uint256)":"010d9813","transferFrom(address,address,uint256)":"23b872dd","transferOwnership(address)":"f2fde38b","updateBidEndtime(string,uint256)":"b95fb84e","updatePlatformFeeRecipient(address)":"f5fe7f71","updatePlatformFees(uint256,uint256)":"3c909e93"}},"storageLayout":{"storage":[{"astId":270,"contract":"contracts/DeciblingAuction.sol:DeciblingAuction","label":"_name","offset":0,"slot":"0","type":"t_string_storage"},{"astId":272,"contract":"contracts/DeciblingAuction.sol:DeciblingAuction","label":"_symbol","offset":0,"slot":"1","type":"t_string_storage"},{"astId":276,"contract":"contracts/DeciblingAuction.sol:DeciblingAuction","label":"_owners","offset":0,"slot":"2","type":"t_mapping(t_uint256,t_address)"},{"astId":280,"contract":"contracts/DeciblingAuction.sol:DeciblingAuction","label":"_balances","offset":0,"slot":"3","type":"t_mapping(t_address,t_uint256)"},{"astId":284,"contract":"contracts/DeciblingAuction.sol:DeciblingAuction","label":"_tokenApprovals","offset":0,"slot":"4","type":"t_mapping(t_uint256,t_address)"},{"astId":290,"contract":"contracts/DeciblingAuction.sol:DeciblingAuction","label":"_operatorApprovals","offset":0,"slot":"5","type":"t_mapping(t_address,t_mapping(t_address,t_bool))"},{"astId":7,"contract":"contracts/DeciblingAuction.sol:DeciblingAuction","label":"_owner","offset":0,"slot":"6","type":"t_address"},{"astId":123,"contract":"contracts/DeciblingAuction.sol:DeciblingAuction","label":"_status","offset":0,"slot":"7","type":"t_uint256"},{"astId":3188,"contract":"contracts/DeciblingAuction.sol:DeciblingAuction","label":"_tokenIds","offset":0,"slot":"8","type":"t_struct(Counter)1708_storage"},{"astId":3191,"contract":"contracts/DeciblingAuction.sol:DeciblingAuction","label":"token","offset":0,"slot":"9","type":"t_contract(IERC20)244"},{"astId":3195,"contract":"contracts/DeciblingAuction.sol:DeciblingAuction","label":"firstSaleFee","offset":0,"slot":"10","type":"t_uint256"},{"astId":3198,"contract":"contracts/DeciblingAuction.sol:DeciblingAuction","label":"secondSaleFee","offset":0,"slot":"11","type":"t_uint256"},{"astId":3201,"contract":"contracts/DeciblingAuction.sol:DeciblingAuction","label":"platformFeeRecipient","offset":0,"slot":"12","type":"t_address_payable"},{"astId":3241,"contract":"contracts/DeciblingAuction.sol:DeciblingAuction","label":"listNFT","offset":0,"slot":"13","type":"t_mapping(t_string_memory_ptr,t_struct(AudioInfo)3236_storage)"},{"astId":3245,"contract":"contracts/DeciblingAuction.sol:DeciblingAuction","label":"tokenIdMapping","offset":0,"slot":"14","type":"t_mapping(t_string_memory_ptr,t_uint256)"},{"astId":3250,"contract":"contracts/DeciblingAuction.sol:DeciblingAuction","label":"auctions","offset":0,"slot":"15","type":"t_mapping(t_uint256,t_struct(Auction)3224_storage)"},{"astId":3255,"contract":"contracts/DeciblingAuction.sol:DeciblingAuction","label":"topBids","offset":0,"slot":"16","type":"t_mapping(t_uint256,t_struct(TopBid)3211_storage)"}],"types":{"t_address":{"encoding":"inplace","label":"address","numberOfBytes":"20"},"t_address_payable":{"encoding":"inplace","label":"address payable","numberOfBytes":"20"},"t_bool":{"encoding":"inplace","label":"bool","numberOfBytes":"1"},"t_contract(IERC20)244":{"encoding":"inplace","label":"contract IERC20","numberOfBytes":"20"},"t_enum(AudioStatus)3204":{"encoding":"inplace","label":"enum DeciblingAuction.AudioStatus","numberOfBytes":"1"},"t_mapping(t_address,t_bool)":{"encoding":"mapping","key":"t_address","label":"mapping(address => bool)","numberOfBytes":"32","value":"t_bool"},"t_mapping(t_address,t_mapping(t_address,t_bool))":{"encoding":"mapping","key":"t_address","label":"mapping(address => mapping(address => bool))","numberOfBytes":"32","value":"t_mapping(t_address,t_bool)"},"t_mapping(t_address,t_uint256)":{"encoding":"mapping","key":"t_address","label":"mapping(address => uint256)","numberOfBytes":"32","value":"t_uint256"},"t_mapping(t_string_memory_ptr,t_struct(AudioInfo)3236_storage)":{"encoding":"mapping","key":"t_string_memory_ptr","label":"mapping(string => struct DeciblingAuction.AudioInfo)","numberOfBytes":"32","value":"t_struct(AudioInfo)3236_storage"},"t_mapping(t_string_memory_ptr,t_uint256)":{"encoding":"mapping","key":"t_string_memory_ptr","label":"mapping(string => uint256)","numberOfBytes":"32","value":"t_uint256"},"t_mapping(t_uint256,t_address)":{"encoding":"mapping","key":"t_uint256","label":"mapping(uint256 => address)","numberOfBytes":"32","value":"t_address"},"t_mapping(t_uint256,t_struct(Auction)3224_storage)":{"encoding":"mapping","key":"t_uint256","label":"mapping(uint256 => struct DeciblingAuction.Auction)","numberOfBytes":"32","value":"t_struct(Auction)3224_storage"},"t_mapping(t_uint256,t_struct(TopBid)3211_storage)":{"encoding":"mapping","key":"t_uint256","label":"mapping(uint256 => struct DeciblingAuction.TopBid)","numberOfBytes":"32","value":"t_struct(TopBid)3211_storage"},"t_string_memory_ptr":{"encoding":"bytes","label":"string","numberOfBytes":"32"},"t_string_storage":{"encoding":"bytes","label":"string","numberOfBytes":"32"},"t_struct(Auction)3224_storage":{"encoding":"inplace","label":"struct DeciblingAuction.Auction","members":[{"astId":3213,"contract":"contracts/DeciblingAuction.sol:DeciblingAuction","label":"winner","offset":0,"slot":"0","type":"t_address"},{"astId":3215,"contract":"contracts/DeciblingAuction.sol:DeciblingAuction","label":"startPrice","offset":0,"slot":"1","type":"t_uint256"},{"astId":3217,"contract":"contracts/DeciblingAuction.sol:DeciblingAuction","label":"increment","offset":0,"slot":"2","type":"t_uint256"},{"astId":3219,"contract":"contracts/DeciblingAuction.sol:DeciblingAuction","label":"startTime","offset":0,"slot":"3","type":"t_uint256"},{"astId":3221,"contract":"contracts/DeciblingAuction.sol:DeciblingAuction","label":"endTime","offset":0,"slot":"4","type":"t_uint256"},{"astId":3223,"contract":"contracts/DeciblingAuction.sol:DeciblingAuction","label":"resulted","offset":0,"slot":"5","type":"t_bool"}],"numberOfBytes":"192"},"t_struct(AudioInfo)3236_storage":{"encoding":"inplace","label":"struct DeciblingAuction.AudioInfo","members":[{"astId":3226,"contract":"contracts/DeciblingAuction.sol:DeciblingAuction","label":"owner","offset":0,"slot":"0","type":"t_address"},{"astId":3228,"contract":"contracts/DeciblingAuction.sol:DeciblingAuction","label":"name","offset":0,"slot":"1","type":"t_string_storage"},{"astId":3230,"contract":"contracts/DeciblingAuction.sol:DeciblingAuction","label":"price","offset":0,"slot":"2","type":"t_uint256"},{"astId":3232,"contract":"contracts/DeciblingAuction.sol:DeciblingAuction","label":"saleCount","offset":0,"slot":"3","type":"t_uint256"},{"astId":3235,"contract":"contracts/DeciblingAuction.sol:DeciblingAuction","label":"status","offset":0,"slot":"4","type":"t_enum(AudioStatus)3204"}],"numberOfBytes":"160"},"t_struct(Counter)1708_storage":{"encoding":"inplace","label":"struct Counters.Counter","members":[{"astId":1707,"contract":"contracts/DeciblingAuction.sol:DeciblingAuction","label":"_value","offset":0,"slot":"0","type":"t_uint256"}],"numberOfBytes":"32"},"t_struct(TopBid)3211_storage":{"encoding":"inplace","label":"struct DeciblingAuction.TopBid","members":[{"astId":3206,"contract":"contracts/DeciblingAuction.sol:DeciblingAuction","label":"user","offset":0,"slot":"0","type":"t_address"},{"astId":3208,"contract":"contracts/DeciblingAuction.sol:DeciblingAuction","label":"price","offset":0,"slot":"1","type":"t_uint256"},{"astId":3210,"contract":"contracts/DeciblingAuction.sol:DeciblingAuction","label":"timestamp","offset":0,"slot":"2","type":"t_uint256"}],"numberOfBytes":"96"},"t_uint256":{"encoding":"inplace","label":"uint256","numberOfBytes":"32"}}}}}}