{
  "_format": "hh-sol-artifact-1",
  "contractName": "DbAudiUpgrable",
  "sourceName": "contracts/DbAudiUpgrable.sol",
  "abi": [
    {
      "anonymous": false,
      "inputs": [
        {
          "indexed": true,
          "internalType": "address",
          "name": "owner",
          "type": "address"
        },
        {
          "indexed": true,
          "internalType": "address",
          "name": "approved",
          "type": "address"
        },
        {
          "indexed": true,
          "internalType": "uint256",
          "name": "tokenId",
          "type": "uint256"
        }
      ],
      "name": "Approval",
      "type": "event"
    },
    {
      "anonymous": false,
      "inputs": [
        {
          "indexed": true,
          "internalType": "address",
          "name": "owner",
          "type": "address"
        },
        {
          "indexed": true,
          "internalType": "address",
          "name": "operator",
          "type": "address"
        },
        {
          "indexed": false,
          "internalType": "bool",
          "name": "approved",
          "type": "bool"
        }
      ],
      "name": "ApprovalForAll",
      "type": "event"
    },
    {
      "anonymous": false,
      "inputs": [
        {
          "indexed": false,
          "internalType": "uint8",
          "name": "version",
          "type": "uint8"
        }
      ],
      "name": "Initialized",
      "type": "event"
    },
    {
      "anonymous": false,
      "inputs": [
        {
          "indexed": true,
          "internalType": "address",
          "name": "previousOwner",
          "type": "address"
        },
        {
          "indexed": true,
          "internalType": "address",
          "name": "newOwner",
          "type": "address"
        }
      ],
      "name": "OwnershipTransferred",
      "type": "event"
    },
    {
      "anonymous": false,
      "inputs": [
        {
          "indexed": true,
          "internalType": "address",
          "name": "from",
          "type": "address"
        },
        {
          "indexed": true,
          "internalType": "address",
          "name": "to",
          "type": "address"
        },
        {
          "indexed": true,
          "internalType": "uint256",
          "name": "tokenId",
          "type": "uint256"
        }
      ],
      "name": "Transfer",
      "type": "event"
    },
    {
      "inputs": [
        {
          "internalType": "address",
          "name": "to",
          "type": "address"
        },
        {
          "internalType": "uint256",
          "name": "tokenId",
          "type": "uint256"
        }
      ],
      "name": "approve",
      "outputs": [],
      "stateMutability": "nonpayable",
      "type": "function"
    },
    {
      "inputs": [
        {
          "internalType": "address",
          "name": "owner",
          "type": "address"
        }
      ],
      "name": "balanceOf",
      "outputs": [
        {
          "internalType": "uint256",
          "name": "",
          "type": "uint256"
        }
      ],
      "stateMutability": "view",
      "type": "function"
    },
    {
      "inputs": [
        {
          "internalType": "string",
          "name": "uri",
          "type": "string"
        }
      ],
      "name": "bid",
      "outputs": [],
      "stateMutability": "payable",
      "type": "function"
    },
    {
      "inputs": [],
      "name": "biddingFee",
      "outputs": [
        {
          "internalType": "uint256",
          "name": "",
          "type": "uint256"
        }
      ],
      "stateMutability": "view",
      "type": "function"
    },
    {
      "inputs": [
        {
          "internalType": "string",
          "name": "uri",
          "type": "string"
        },
        {
          "internalType": "uint256",
          "name": "startPrice",
          "type": "uint256"
        },
        {
          "internalType": "uint256",
          "name": "startTime",
          "type": "uint256"
        },
        {
          "internalType": "uint256",
          "name": "endTime",
          "type": "uint256"
        }
      ],
      "name": "createBidding",
      "outputs": [],
      "stateMutability": "payable",
      "type": "function"
    },
    {
      "inputs": [
        {
          "internalType": "string",
          "name": "uri",
          "type": "string"
        },
        {
          "internalType": "string",
          "name": "name",
          "type": "string"
        },
        {
          "internalType": "uint256",
          "name": "price",
          "type": "uint256"
        }
      ],
      "name": "createNFT",
      "outputs": [
        {
          "internalType": "uint256",
          "name": "",
          "type": "uint256"
        }
      ],
      "stateMutability": "nonpayable",
      "type": "function"
    },
    {
      "inputs": [
        {
          "internalType": "uint256",
          "name": "tokenId",
          "type": "uint256"
        }
      ],
      "name": "getApproved",
      "outputs": [
        {
          "internalType": "address",
          "name": "",
          "type": "address"
        }
      ],
      "stateMutability": "view",
      "type": "function"
    },
    {
      "inputs": [
        {
          "internalType": "uint256",
          "name": "",
          "type": "uint256"
        }
      ],
      "name": "indexOfToken",
      "outputs": [
        {
          "internalType": "uint256",
          "name": "",
          "type": "uint256"
        }
      ],
      "stateMutability": "view",
      "type": "function"
    },
    {
      "inputs": [],
      "name": "initialize",
      "outputs": [],
      "stateMutability": "nonpayable",
      "type": "function"
    },
    {
      "inputs": [
        {
          "internalType": "address",
          "name": "owner",
          "type": "address"
        },
        {
          "internalType": "address",
          "name": "operator",
          "type": "address"
        }
      ],
      "name": "isApprovedForAll",
      "outputs": [
        {
          "internalType": "bool",
          "name": "",
          "type": "bool"
        }
      ],
      "stateMutability": "view",
      "type": "function"
    },
    {
      "inputs": [
        {
          "internalType": "string",
          "name": "",
          "type": "string"
        }
      ],
      "name": "listNFT",
      "outputs": [
        {
          "internalType": "address",
          "name": "owner",
          "type": "address"
        },
        {
          "internalType": "string",
          "name": "url",
          "type": "string"
        },
        {
          "internalType": "string",
          "name": "name",
          "type": "string"
        },
        {
          "internalType": "uint256",
          "name": "price",
          "type": "uint256"
        },
        {
          "internalType": "enum DbAudiUpgrable.AudioStatus",
          "name": "status",
          "type": "uint8"
        },
        {
          "internalType": "uint256",
          "name": "currentBidding",
          "type": "uint256"
        }
      ],
      "stateMutability": "view",
      "type": "function"
    },
    {
      "inputs": [
        {
          "internalType": "address",
          "name": "",
          "type": "address"
        },
        {
          "internalType": "uint256",
          "name": "",
          "type": "uint256"
        }
      ],
      "name": "listOwnToken",
      "outputs": [
        {
          "internalType": "uint256",
          "name": "",
          "type": "uint256"
        }
      ],
      "stateMutability": "view",
      "type": "function"
    },
    {
      "inputs": [],
      "name": "name",
      "outputs": [
        {
          "internalType": "string",
          "name": "",
          "type": "string"
        }
      ],
      "stateMutability": "view",
      "type": "function"
    },
    {
      "inputs": [],
      "name": "owner",
      "outputs": [
        {
          "internalType": "address",
          "name": "",
          "type": "address"
        }
      ],
      "stateMutability": "view",
      "type": "function"
    },
    {
      "inputs": [
        {
          "internalType": "uint256",
          "name": "tokenId",
          "type": "uint256"
        }
      ],
      "name": "ownerOf",
      "outputs": [
        {
          "internalType": "address",
          "name": "",
          "type": "address"
        }
      ],
      "stateMutability": "view",
      "type": "function"
    },
    {
      "inputs": [],
      "name": "renounceOwnership",
      "outputs": [],
      "stateMutability": "nonpayable",
      "type": "function"
    },
    {
      "inputs": [
        {
          "internalType": "address",
          "name": "from",
          "type": "address"
        },
        {
          "internalType": "address",
          "name": "to",
          "type": "address"
        },
        {
          "internalType": "uint256",
          "name": "tokenId",
          "type": "uint256"
        }
      ],
      "name": "safeTransferFrom",
      "outputs": [],
      "stateMutability": "nonpayable",
      "type": "function"
    },
    {
      "inputs": [
        {
          "internalType": "address",
          "name": "from",
          "type": "address"
        },
        {
          "internalType": "address",
          "name": "to",
          "type": "address"
        },
        {
          "internalType": "uint256",
          "name": "tokenId",
          "type": "uint256"
        },
        {
          "internalType": "bytes",
          "name": "_data",
          "type": "bytes"
        }
      ],
      "name": "safeTransferFrom",
      "outputs": [],
      "stateMutability": "nonpayable",
      "type": "function"
    },
    {
      "inputs": [
        {
          "internalType": "address",
          "name": "operator",
          "type": "address"
        },
        {
          "internalType": "bool",
          "name": "approved",
          "type": "bool"
        }
      ],
      "name": "setApprovalForAll",
      "outputs": [],
      "stateMutability": "nonpayable",
      "type": "function"
    },
    {
      "inputs": [
        {
          "internalType": "string",
          "name": "uri",
          "type": "string"
        },
        {
          "internalType": "uint256",
          "name": "price",
          "type": "uint256"
        }
      ],
      "name": "setPriceNFT",
      "outputs": [],
      "stateMutability": "nonpayable",
      "type": "function"
    },
    {
      "inputs": [
        {
          "internalType": "uint256",
          "name": "share",
          "type": "uint256"
        }
      ],
      "name": "setSharePercent",
      "outputs": [],
      "stateMutability": "nonpayable",
      "type": "function"
    },
    {
      "inputs": [
        {
          "internalType": "uint256",
          "name": "money",
          "type": "uint256"
        }
      ],
      "name": "setbiddingFee",
      "outputs": [],
      "stateMutability": "nonpayable",
      "type": "function"
    },
    {
      "inputs": [
        {
          "internalType": "string",
          "name": "uri",
          "type": "string"
        }
      ],
      "name": "settleBiddingSession",
      "outputs": [],
      "stateMutability": "nonpayable",
      "type": "function"
    },
    {
      "inputs": [],
      "name": "sharePercent",
      "outputs": [
        {
          "internalType": "uint256",
          "name": "",
          "type": "uint256"
        }
      ],
      "stateMutability": "view",
      "type": "function"
    },
    {
      "inputs": [
        {
          "internalType": "bytes4",
          "name": "interfaceId",
          "type": "bytes4"
        }
      ],
      "name": "supportsInterface",
      "outputs": [
        {
          "internalType": "bool",
          "name": "",
          "type": "bool"
        }
      ],
      "stateMutability": "view",
      "type": "function"
    },
    {
      "inputs": [],
      "name": "symbol",
      "outputs": [
        {
          "internalType": "string",
          "name": "",
          "type": "string"
        }
      ],
      "stateMutability": "view",
      "type": "function"
    },
    {
      "inputs": [
        {
          "internalType": "string",
          "name": "",
          "type": "string"
        }
      ],
      "name": "tokenIdMapping",
      "outputs": [
        {
          "internalType": "uint256",
          "name": "",
          "type": "uint256"
        }
      ],
      "stateMutability": "view",
      "type": "function"
    },
    {
      "inputs": [
        {
          "internalType": "uint256",
          "name": "tokenId",
          "type": "uint256"
        }
      ],
      "name": "tokenURI",
      "outputs": [
        {
          "internalType": "string",
          "name": "",
          "type": "string"
        }
      ],
      "stateMutability": "view",
      "type": "function"
    },
    {
      "inputs": [
        {
          "internalType": "address",
          "name": "from",
          "type": "address"
        },
        {
          "internalType": "address",
          "name": "to",
          "type": "address"
        },
        {
          "internalType": "uint256",
          "name": "tokenId",
          "type": "uint256"
        }
      ],
      "name": "transferFrom",
      "outputs": [],
      "stateMutability": "nonpayable",
      "type": "function"
    },
    {
      "inputs": [
        {
          "internalType": "string",
          "name": "uri",
          "type": "string"
        },
        {
          "internalType": "address",
          "name": "to",
          "type": "address"
        }
      ],
      "name": "transferNFT",
      "outputs": [],
      "stateMutability": "nonpayable",
      "type": "function"
    },
    {
      "inputs": [
        {
          "internalType": "address",
          "name": "newOwner",
          "type": "address"
        }
      ],
      "name": "transferOwnership",
      "outputs": [],
      "stateMutability": "nonpayable",
      "type": "function"
    },
    {
      "inputs": [
        {
          "internalType": "uint256",
          "name": "money",
          "type": "uint256"
        }
      ],
      "name": "withDrawAll",
      "outputs": [],
      "stateMutability": "nonpayable",
      "type": "function"
    }
  ],
  "bytecode": "0x608060405234801561001057600080fd5b50615dbd80620000216000396000f3fe6080604052600436106101e35760003560e01c80638129fc1c11610102578063b88eabdd11610095578063d8189e0511610064578063d8189e05146106e9578063e985e9c514610726578063f2fde38b14610763578063ff41edbc1461078c576101e3565b8063b88eabdd1461061b578063c15edf5f14610658578063c87b56dd14610683578063cf023fdd146106c0576101e3565b8063a22cb465116100d1578063a22cb46514610577578063a818e0c8146105a0578063ab8a8020146105c9578063b88d4fde146105f2576101e3565b80638129fc1c146104e157806386d060fe146104f85780638da5cb5b1461052157806395d89b411461054c576101e3565b80634387330e1161017a5780636352211e116101495780636352211e1461043457806370a0823114610471578063715018a6146104ae5780637aef951c146104c5576101e3565b80634387330e1461036e57806348005848146103b057806349706de7146103cc5780635ffd9d07146103f7576101e3565b806323b872dd116101b657806323b872dd146102b65780633241d34a146102df578063411e9ef21461031c57806342842e0e14610345576101e3565b806301ffc9a7146101e857806306fdde0314610225578063081812fc14610250578063095ea7b31461028d575b600080fd5b3480156101f457600080fd5b5061020f600480360381019061020a919061432b565b6107b5565b60405161021c9190614ca1565b60405180910390f35b34801561023157600080fd5b5061023a610897565b6040516102479190614cd7565b60405180910390f35b34801561025c57600080fd5b5061027760048036038101906102729190614560565b610929565b6040516102849190614bcb565b60405180910390f35b34801561029957600080fd5b506102b460048036038101906102af91906142ef565b61096f565b005b3480156102c257600080fd5b506102dd60048036038101906102d891906141e9565b610a87565b005b3480156102eb57600080fd5b5061030660048036038101906103019190614412565b610d5e565b6040516103139190615119565b60405180910390f35b34801561032857600080fd5b50610343600480360381019061033e9190614560565b611096565b005b34801561035157600080fd5b5061036c600480360381019061036791906141e9565b6110f9565b005b34801561037a57600080fd5b506103956004803603810190610390919061437d565b611119565b6040516103a796959493929190614c32565b60405180910390f35b6103ca60048036038101906103c591906144e5565b6112a8565b005b3480156103d857600080fd5b506103e16117a6565b6040516103ee9190615119565b60405180910390f35b34801561040357600080fd5b5061041e60048036038101906104199190614560565b6117ac565b60405161042b9190615119565b60405180910390f35b34801561044057600080fd5b5061045b60048036038101906104569190614560565b6117c5565b6040516104689190614bcb565b60405180910390f35b34801561047d57600080fd5b5061049860048036038101906104939190614184565b611877565b6040516104a59190615119565b60405180910390f35b3480156104ba57600080fd5b506104c361192f565b005b6104df60048036038101906104da919061437d565b611943565b005b3480156104ed57600080fd5b506104f6611d75565b005b34801561050457600080fd5b5061051f600480360381019061051a9190614560565b611f41565b005b34801561052d57600080fd5b50610536611f53565b6040516105439190614bcb565b60405180910390f35b34801561055857600080fd5b50610561611f7d565b60405161056e9190614cd7565b60405180910390f35b34801561058357600080fd5b5061059e600480360381019061059991906142b3565b61200f565b005b3480156105ac57600080fd5b506105c760048036038101906105c29190614491565b612025565b005b3480156105d557600080fd5b506105f060048036038101906105eb9190614560565b6120e7565b005b3480156105fe57600080fd5b5061061960048036038101906106149190614238565b612139565b005b34801561062757600080fd5b50610642600480360381019061063d919061437d565b612412565b60405161064f9190615119565b60405180910390f35b34801561066457600080fd5b5061066d612440565b60405161067a9190615119565b60405180910390f35b34801561068f57600080fd5b506106aa60048036038101906106a59190614560565b612446565b6040516106b79190614cd7565b60405180910390f35b3480156106cc57600080fd5b506106e760048036038101906106e291906143be565b612458565b005b3480156106f557600080fd5b50610710600480360381019061070b91906142ef565b6125de565b60405161071d9190615119565b60405180910390f35b34801561073257600080fd5b5061074d600480360381019061074891906141ad565b612610565b60405161075a9190614ca1565b60405180910390f35b34801561076f57600080fd5b5061078a60048036038101906107859190614184565b6126a4565b005b34801561079857600080fd5b506107b360048036038101906107ae919061437d565b612728565b005b60007f80ac58cd000000000000000000000000000000000000000000000000000000007bffffffffffffffffffffffffffffffffffffffffffffffffffffffff1916827bffffffffffffffffffffffffffffffffffffffffffffffffffffffff1916148061088057507f5b5e139f000000000000000000000000000000000000000000000000000000007bffffffffffffffffffffffffffffffffffffffffffffffffffffffff1916827bffffffffffffffffffffffffffffffffffffffffffffffffffffffff1916145b80610890575061088f82612cfe565b5b9050919050565b6060606580546108a69061542d565b80601f01602080910402602001604051908101604052809291908181526020018280546108d29061542d565b801561091f5780601f106108f45761010080835404028352916020019161091f565b820191906000526020600020905b81548152906001019060200180831161090257829003601f168201915b5050505050905090565b600061093482612d68565b6069600083815260200190815260200160002060009054906101000a900473ffffffffffffffffffffffffffffffffffffffff169050919050565b600061097a826117c5565b90508073ffffffffffffffffffffffffffffffffffffffff168373ffffffffffffffffffffffffffffffffffffffff1614156109eb576040517f08c379a00000000000000000000000000000000000000000000000000000000081526004016109e290615019565b60405180910390fd5b8073ffffffffffffffffffffffffffffffffffffffff16610a0a612db3565b73ffffffffffffffffffffffffffffffffffffffff161480610a395750610a3881610a33612db3565b612610565b5b610a78576040517f08c379a0000000000000000000000000000000000000000000000000000000008152600401610a6f90614f79565b60405180910390fd5b610a828383612dbb565b505050565b61010060008373ffffffffffffffffffffffffffffffffffffffff1673ffffffffffffffffffffffffffffffffffffffff16815260200190815260200160002081908060018154018082558091505060019003906000526020600020016000909190919091505561010060008473ffffffffffffffffffffffffffffffffffffffff1673ffffffffffffffffffffffffffffffffffffffff168152602001908152602001600020600161010060008673ffffffffffffffffffffffffffffffffffffffff1673ffffffffffffffffffffffffffffffffffffffff16815260200190815260200160002080549050610b7e91906152ff565b81548110610bb5577f4e487b7100000000000000000000000000000000000000000000000000000000600052603260045260246000fd5b906000526020600020015461010060008573ffffffffffffffffffffffffffffffffffffffff1673ffffffffffffffffffffffffffffffffffffffff16815260200190815260200160002061010160008481526020019081526020016000205481548110610c4c577f4e487b7100000000000000000000000000000000000000000000000000000000600052603260045260246000fd5b906000526020600020018190555061010060008473ffffffffffffffffffffffffffffffffffffffff1673ffffffffffffffffffffffffffffffffffffffff168152602001908152602001600020805480610cd0577f4e487b7100000000000000000000000000000000000000000000000000000000600052603160045260246000fd5b60019003818190600052602060002001600090559055600161010060008473ffffffffffffffffffffffffffffffffffffffff1673ffffffffffffffffffffffffffffffffffffffff16815260200190815260200160002080549050610d3691906152ff565b610101600083815260200190815260200160002081905550610d59838383612e74565b505050565b60008060fe85604051610d719190614b90565b90815260200160405180910390209050848051906020012081600101604051610d9a9190614b79565b60405180910390201415610de3576040517f08c379a0000000000000000000000000000000000000000000000000000000008152600401610dda90614fd9565b60405180910390fd5b6000610def60fb612ed4565b9050610dfb60fb612ee2565b3360fe87604051610e0c9190614b90565b908152602001604051809103902060000160006101000a81548173ffffffffffffffffffffffffffffffffffffffff021916908373ffffffffffffffffffffffffffffffffffffffff1602179055508560fe87604051610e6c9190614b90565b90815260200160405180910390206001019080519060200190610e90929190613fa8565b508460fe87604051610ea29190614b90565b90815260200160405180910390206002019080519060200190610ec6929190613fa8565b508360fe87604051610ed89190614b90565b908152602001604051809103902060030181905550600060fe87604051610eff9190614b90565b908152602001604051809103902060040160006101000a81548160ff02191690836003811115610f58577f4e487b7100000000000000000000000000000000000000000000000000000000600052602160045260246000fd5b0217905550600060fe87604051610f6f9190614b90565b908152602001604051809103902060060181905550610f8e3382612ef8565b610f988187612f16565b8060ff87604051610fa99190614b90565b90815260200160405180910390208190555061010060003373ffffffffffffffffffffffffffffffffffffffff1673ffffffffffffffffffffffffffffffffffffffff168152602001908152602001600020819080600181540180825580915050600190039060005260206000200160009091909190915055600161010060003373ffffffffffffffffffffffffffffffffffffffff1673ffffffffffffffffffffffffffffffffffffffff1681526020019081526020016000208054905061107291906152ff565b61010160008381526020019081526020016000208190555080925050509392505050565b61109e612f8a565b600081101580156110b0575060648111155b6110ef576040517f08c379a00000000000000000000000000000000000000000000000000000000081526004016110e690615039565b60405180910390fd5b8060fc8190555050565b61111483838360405180602001604052806000815250612139565b505050565b60fe818051602081018201805184825260208301602085012081835280955050505050506000915090508060000160009054906101000a900473ffffffffffffffffffffffffffffffffffffffff16908060010180546111789061542d565b80601f01602080910402602001604051908101604052809291908181526020018280546111a49061542d565b80156111f15780601f106111c6576101008083540402835291602001916111f1565b820191906000526020600020905b8154815290600101906020018083116111d457829003601f168201915b5050505050908060020180546112069061542d565b80601f01602080910402602001604051908101604052809291908181526020018280546112329061542d565b801561127f5780601f106112545761010080835404028352916020019161127f565b820191906000526020600020905b81548152906001019060200180831161126257829003601f168201915b5050505050908060030154908060040160009054906101000a900460ff16908060060154905086565b8082106112ea576040517f08c379a00000000000000000000000000000000000000000000000000000000081526004016112e190614d19565b60405180910390fd5b600060fe856040516112fc9190614b90565b908152602001604051809103902090508480519060200120816001016040516113259190614b79565b60405180910390201461136d576040517f08c379a000000000000000000000000000000000000000000000000000000000815260040161136490614cf9565b60405180910390fd5b3373ffffffffffffffffffffffffffffffffffffffff168160000160009054906101000a900473ffffffffffffffffffffffffffffffffffffffff1673ffffffffffffffffffffffffffffffffffffffff16146113ff576040517f08c379a00000000000000000000000000000000000000000000000000000000081526004016113f6906150b9565b60405180910390fd5b428211611441576040517f08c379a000000000000000000000000000000000000000000000000000000000815260040161143890614e79565b60405180910390fd5b6000600381111561147b577f4e487b7100000000000000000000000000000000000000000000000000000000600052602160045260246000fd5b8160040160009054906101000a900460ff1660038111156114c5577f4e487b7100000000000000000000000000000000000000000000000000000000600052602160045260246000fd5b14806115515750600380811115611505577f4e487b7100000000000000000000000000000000000000000000000000000000600052602160045260246000fd5b8160040160009054906101000a900460ff16600381111561154f577f4e487b7100000000000000000000000000000000000000000000000000000000600052602160045260246000fd5b145b611590576040517f08c379a0000000000000000000000000000000000000000000000000000000008152600401611587906150d9565b60405180910390fd5b3460fd5411156115d5576040517f08c379a00000000000000000000000000000000000000000000000000000000081526004016115cc90615079565b60405180910390fd5b60018160060160008282546115ea919061521e565b9250508190555060008160050160008360060154815260200190815260200160002060000160006101000a81548173ffffffffffffffffffffffffffffffffffffffff021916908373ffffffffffffffffffffffffffffffffffffffff16021790555083816005016000836006015481526020019081526020016000206001018190555042831161167c57600061167f565b60015b8160050160008360060154815260200190815260200160002060020160006101000a81548160ff021916908360038111156116e3577f4e487b7100000000000000000000000000000000000000000000000000000000600052602160045260246000fd5b02179055508281600501600083600601548152602001908152602001600020600301819055508181600501600083600601548152602001908152602001600020600401819055506000816005016000836006015481526020019081526020016000206005018190555060018160040160006101000a81548160ff0219169083600381111561179a577f4e487b7100000000000000000000000000000000000000000000000000000000600052602160045260246000fd5b02179055505050505050565b60fd5481565b6101016020528060005260406000206000915090505481565b6000806067600084815260200190815260200160002060009054906101000a900473ffffffffffffffffffffffffffffffffffffffff169050600073ffffffffffffffffffffffffffffffffffffffff168173ffffffffffffffffffffffffffffffffffffffff16141561186e576040517f08c379a000000000000000000000000000000000000000000000000000000000815260040161186590614ff9565b60405180910390fd5b80915050919050565b60008073ffffffffffffffffffffffffffffffffffffffff168273ffffffffffffffffffffffffffffffffffffffff1614156118e8576040517f08c379a00000000000000000000000000000000000000000000000000000000081526004016118df90614eb9565b60405180910390fd5b606860008373ffffffffffffffffffffffffffffffffffffffff1673ffffffffffffffffffffffffffffffffffffffff168152602001908152602001600020549050919050565b611937612f8a565b6119416000613008565b565b600060fe826040516119559190614b90565b9081526020016040518091039020905081805190602001208160010160405161197e9190614b79565b6040518091039020146119c6576040517f08c379a00000000000000000000000000000000000000000000000000000000081526004016119bd90614cf9565b60405180910390fd5b60016003811115611a00577f4e487b7100000000000000000000000000000000000000000000000000000000600052602160045260246000fd5b8160040160009054906101000a900460ff166003811115611a4a577f4e487b7100000000000000000000000000000000000000000000000000000000600052602160045260246000fd5b14611a8a576040517f08c379a0000000000000000000000000000000000000000000000000000000008152600401611a8190614d39565b60405180910390fd5b600081600601541415611ad2576040517f08c379a0000000000000000000000000000000000000000000000000000000008152600401611ac990614ef9565b60405180910390fd5b600081600501600083600601548152602001908152602001600020905042816003015411158015611b07575080600401544211155b611b46576040517f08c379a0000000000000000000000000000000000000000000000000000000008152600401611b3d90614f59565b60405180910390fd5b34816001015410611b8c576040517f08c379a0000000000000000000000000000000000000000000000000000000008152600401611b8390614f19565b60405180910390fd5b60028160020160006101000a81548160ff02191690836003811115611bda577f4e487b7100000000000000000000000000000000000000000000000000000000600052602160045260246000fd5b0217905550600060405180606001604052803373ffffffffffffffffffffffffffffffffffffffff1681526020013481526020014281525090506001826005016000828254611c29919061521e565b92505081905550808260060160008460050154815260200190815260200160002060008201518160000160006101000a81548173ffffffffffffffffffffffffffffffffffffffff021916908373ffffffffffffffffffffffffffffffffffffffff160217905550602082015181600101556040820151816002015590505060008260000160009054906101000a900473ffffffffffffffffffffffffffffffffffffffff169050600083600101549050338460000160006101000a81548173ffffffffffffffffffffffffffffffffffffffff021916908373ffffffffffffffffffffffffffffffffffffffff1602179055503484600101819055508173ffffffffffffffffffffffffffffffffffffffff166108fc829081150290604051600060405180830381858888f19350505050158015611d6c573d6000803e3d6000fd5b50505050505050565b60008060019054906101000a900460ff16159050808015611da65750600160008054906101000a900460ff1660ff16105b80611dd35750611db5306130ce565b158015611dd25750600160008054906101000a900460ff1660ff16145b5b611e12576040517f08c379a0000000000000000000000000000000000000000000000000000000008152600401611e0990614f39565b60405180910390fd5b60016000806101000a81548160ff021916908360ff1602179055508015611e4f576001600060016101000a81548160ff0219169083151502179055505b611ec36040518060400160405280600981526020017f44656369626c696e6700000000000000000000000000000000000000000000008152506040518060400160405280600281526020017f44420000000000000000000000000000000000000000000000000000000000008152506130f1565b611ecb61314e565b611ed361319f565b600060fc81905550622dc6c060fd819055508015611f3e5760008060016101000a81548160ff0219169083151502179055507f7f26b83ff96e1f2b6a682f133852f6798a09c465da95921460cefb38474024986001604051611f359190614cbc565b60405180910390a15b50565b611f49612f8a565b8060fd8190555050565b6000609760009054906101000a900473ffffffffffffffffffffffffffffffffffffffff16905090565b606060668054611f8c9061542d565b80601f0160208091040260200160405190810160405280929190818152602001828054611fb89061542d565b80156120055780601f10611fda57610100808354040283529160200191612005565b820191906000526020600020905b815481529060010190602001808311611fe857829003601f168201915b5050505050905090565b61202161201a612db3565b83836131f8565b5050565b600060fe836040516120379190614b90565b908152602001604051809103902090503373ffffffffffffffffffffffffffffffffffffffff168160000160009054906101000a900473ffffffffffffffffffffffffffffffffffffffff1673ffffffffffffffffffffffffffffffffffffffff16146120d9576040517f08c379a00000000000000000000000000000000000000000000000000000000081526004016120d090614e19565b60405180910390fd5b818160030181905550505050565b6120ef612f8a565b3373ffffffffffffffffffffffffffffffffffffffff166108fc829081150290604051600060405180830381858888f19350505050158015612135573d6000803e3d6000fd5b5050565b61010060008473ffffffffffffffffffffffffffffffffffffffff1673ffffffffffffffffffffffffffffffffffffffff16815260200190815260200160002082908060018154018082558091505060019003906000526020600020016000909190919091505561010060008573ffffffffffffffffffffffffffffffffffffffff1673ffffffffffffffffffffffffffffffffffffffff168152602001908152602001600020600161010060008773ffffffffffffffffffffffffffffffffffffffff1673ffffffffffffffffffffffffffffffffffffffff1681526020019081526020016000208054905061223091906152ff565b81548110612267577f4e487b7100000000000000000000000000000000000000000000000000000000600052603260045260246000fd5b906000526020600020015461010060008673ffffffffffffffffffffffffffffffffffffffff1673ffffffffffffffffffffffffffffffffffffffff168152602001908152602001600020610101600085815260200190815260200160002054815481106122fe577f4e487b7100000000000000000000000000000000000000000000000000000000600052603260045260246000fd5b906000526020600020018190555061010060008573ffffffffffffffffffffffffffffffffffffffff1673ffffffffffffffffffffffffffffffffffffffff168152602001908152602001600020805480612382577f4e487b7100000000000000000000000000000000000000000000000000000000600052603160045260246000fd5b60019003818190600052602060002001600090559055600161010060008573ffffffffffffffffffffffffffffffffffffffff1673ffffffffffffffffffffffffffffffffffffffff168152602001908152602001600020805490506123e891906152ff565b61010160008481526020019081526020016000208190555061240c84848484613365565b50505050565b60ff818051602081018201805184825260208301602085012081835280955050505050506000915090505481565b60fc5481565b6060612451826133c7565b9050919050565b600060fe8360405161246a9190614b90565b908152602001604051809103902090508280519060200120816001016040516124939190614b79565b6040518091039020146124db576040517f08c379a00000000000000000000000000000000000000000000000000000000081526004016124d290614cf9565b60405180910390fd5b3373ffffffffffffffffffffffffffffffffffffffff168160000160009054906101000a900473ffffffffffffffffffffffffffffffffffffffff1673ffffffffffffffffffffffffffffffffffffffff161461256d576040517f08c379a000000000000000000000000000000000000000000000000000000000815260040161256490615059565b60405180910390fd5b612596338360ff866040516125829190614b90565b9081526020016040518091039020546110f9565b818160000160006101000a81548173ffffffffffffffffffffffffffffffffffffffff021916908373ffffffffffffffffffffffffffffffffffffffff160217905550505050565b61010060205281600052604060002081815481106125fb57600080fd5b90600052602060002001600091509150505481565b6000606a60008473ffffffffffffffffffffffffffffffffffffffff1673ffffffffffffffffffffffffffffffffffffffff16815260200190815260200160002060008373ffffffffffffffffffffffffffffffffffffffff1673ffffffffffffffffffffffffffffffffffffffff16815260200190815260200160002060009054906101000a900460ff16905092915050565b6126ac612f8a565b600073ffffffffffffffffffffffffffffffffffffffff168173ffffffffffffffffffffffffffffffffffffffff16141561271c576040517f08c379a000000000000000000000000000000000000000000000000000000000815260040161271390614d99565b60405180910390fd5b61272581613008565b50565b600060fe8260405161273a9190614b90565b908152602001604051809103902090508180519060200120816001016040516127639190614b79565b6040518091039020146127ab576040517f08c379a00000000000000000000000000000000000000000000000000000000081526004016127a290614cf9565b60405180910390fd5b600160038111156127e5577f4e487b7100000000000000000000000000000000000000000000000000000000600052602160045260246000fd5b8160040160009054906101000a900460ff16600381111561282f577f4e487b7100000000000000000000000000000000000000000000000000000000600052602160045260246000fd5b1461286f576040517f08c379a000000000000000000000000000000000000000000000000000000000815260040161286690614e99565b60405180910390fd5b6000816006015414156128b7576040517f08c379a00000000000000000000000000000000000000000000000000000000081526004016128ae90614ef9565b60405180910390fd5b60008160050160008360060154815260200190815260200160002090504281600301541080156128ea5750806004015442115b612929576040517f08c379a000000000000000000000000000000000000000000000000000000000815260040161292090614d59565b60405180910390fd5b60026003811115612963577f4e487b7100000000000000000000000000000000000000000000000000000000600052602160045260246000fd5b8160020160009054906101000a900460ff1660038111156129ad577f4e487b7100000000000000000000000000000000000000000000000000000000600052602160045260246000fd5b1480612a3a5750600160038111156129ee577f4e487b7100000000000000000000000000000000000000000000000000000000600052602160045260246000fd5b8260040160009054906101000a900460ff166003811115612a38577f4e487b7100000000000000000000000000000000000000000000000000000000600052602160045260246000fd5b145b612a79576040517f08c379a0000000000000000000000000000000000000000000000000000000008152600401612a7090614db9565b60405180910390fd5b600073ffffffffffffffffffffffffffffffffffffffff168160000160009054906101000a900473ffffffffffffffffffffffffffffffffffffffff1673ffffffffffffffffffffffffffffffffffffffff1614612c5357600081600101549050600060fc541115612b0e57606460fc546064612af691906152ff565b82612b0191906152a5565b612b0b9190615274565b90505b8260000160009054906101000a900473ffffffffffffffffffffffffffffffffffffffff1673ffffffffffffffffffffffffffffffffffffffff166108fc829081150290604051600060405180830381858888f19350505050158015612b78573d6000803e3d6000fd5b50612bea8360000160009054906101000a900473ffffffffffffffffffffffffffffffffffffffff168360000160009054906101000a900473ffffffffffffffffffffffffffffffffffffffff1660ff87604051612bd69190614b90565b9081526020016040518091039020546110f9565b8160000160009054906101000a900473ffffffffffffffffffffffffffffffffffffffff168360000160006101000a81548173ffffffffffffffffffffffffffffffffffffffff021916908373ffffffffffffffffffffffffffffffffffffffff160217905550505b60038160020160006101000a81548160ff02191690836003811115612ca1577f4e487b7100000000000000000000000000000000000000000000000000000000600052602160045260246000fd5b021790555060038260040160006101000a81548160ff02191690836003811115612cf4577f4e487b7100000000000000000000000000000000000000000000000000000000600052602160045260246000fd5b0217905550505050565b60007f01ffc9a7000000000000000000000000000000000000000000000000000000007bffffffffffffffffffffffffffffffffffffffffffffffffffffffff1916827bffffffffffffffffffffffffffffffffffffffffffffffffffffffff1916149050919050565b612d71816134da565b612db0576040517f08c379a0000000000000000000000000000000000000000000000000000000008152600401612da790614ff9565b60405180910390fd5b50565b600033905090565b816069600083815260200190815260200160002060006101000a81548173ffffffffffffffffffffffffffffffffffffffff021916908373ffffffffffffffffffffffffffffffffffffffff160217905550808273ffffffffffffffffffffffffffffffffffffffff16612e2e836117c5565b73ffffffffffffffffffffffffffffffffffffffff167f8c5be1e5ebec7d5bd14f71427d1e84f3dd0314c0f7b2291e5b200ac8c7c3b92560405160405180910390a45050565b612e85612e7f612db3565b82613546565b612ec4576040517f08c379a0000000000000000000000000000000000000000000000000000000008152600401612ebb906150f9565b60405180910390fd5b612ecf8383836135db565b505050565b600081600001549050919050565b6001816000016000828254019250508190555050565b612f12828260405180602001604052806000815250613842565b5050565b612f1f826134da565b612f5e576040517f08c379a0000000000000000000000000000000000000000000000000000000008152600401612f5590614ed9565b60405180910390fd5b8060c960008481526020019081526020016000209080519060200190612f85929190613fa8565b505050565b612f92612db3565b73ffffffffffffffffffffffffffffffffffffffff16612fb0611f53565b73ffffffffffffffffffffffffffffffffffffffff1614613006576040517f08c379a0000000000000000000000000000000000000000000000000000000008152600401612ffd90614fb9565b60405180910390fd5b565b6000609760009054906101000a900473ffffffffffffffffffffffffffffffffffffffff16905081609760006101000a81548173ffffffffffffffffffffffffffffffffffffffff021916908373ffffffffffffffffffffffffffffffffffffffff1602179055508173ffffffffffffffffffffffffffffffffffffffff168173ffffffffffffffffffffffffffffffffffffffff167f8be0079c531659141344cd1fd0a4f28419497f9722a3daafe3b4186f6b6457e060405160405180910390a35050565b6000808273ffffffffffffffffffffffffffffffffffffffff163b119050919050565b600060019054906101000a900460ff16613140576040517f08c379a000000000000000000000000000000000000000000000000000000000815260040161313790615099565b60405180910390fd5b61314a828261389d565b5050565b600060019054906101000a900460ff1661319d576040517f08c379a000000000000000000000000000000000000000000000000000000000815260040161319490615099565b60405180910390fd5b565b600060019054906101000a900460ff166131ee576040517f08c379a00000000000000000000000000000000000000000000000000000000081526004016131e590615099565b60405180910390fd5b6131f661391e565b565b8173ffffffffffffffffffffffffffffffffffffffff168373ffffffffffffffffffffffffffffffffffffffff161415613267576040517f08c379a000000000000000000000000000000000000000000000000000000000815260040161325e90614e59565b60405180910390fd5b80606a60008573ffffffffffffffffffffffffffffffffffffffff1673ffffffffffffffffffffffffffffffffffffffff16815260200190815260200160002060008473ffffffffffffffffffffffffffffffffffffffff1673ffffffffffffffffffffffffffffffffffffffff16815260200190815260200160002060006101000a81548160ff0219169083151502179055508173ffffffffffffffffffffffffffffffffffffffff168373ffffffffffffffffffffffffffffffffffffffff167f17307eab39ab6107e8899845ad3d59bd9653f200f220920489ca2b5937696c31836040516133589190614ca1565b60405180910390a3505050565b613376613370612db3565b83613546565b6133b5576040517f08c379a00000000000000000000000000000000000000000000000000000000081526004016133ac906150f9565b60405180910390fd5b6133c18484848461397f565b50505050565b60606133d282612d68565b600060c9600084815260200190815260200160002080546133f29061542d565b80601f016020809104026020016040519081016040528092919081815260200182805461341e9061542d565b801561346b5780601f106134405761010080835404028352916020019161346b565b820191906000526020600020905b81548152906001019060200180831161344e57829003601f168201915b50505050509050600061347c6139db565b90506000815114156134925781925050506134d5565b6000825111156134c75780826040516020016134af929190614ba7565b604051602081830303815290604052925050506134d5565b6134d084613a18565b925050505b919050565b60008073ffffffffffffffffffffffffffffffffffffffff166067600084815260200190815260200160002060009054906101000a900473ffffffffffffffffffffffffffffffffffffffff1673ffffffffffffffffffffffffffffffffffffffff1614159050919050565b600080613552836117c5565b90508073ffffffffffffffffffffffffffffffffffffffff168473ffffffffffffffffffffffffffffffffffffffff16148061359457506135938185612610565b5b806135d257508373ffffffffffffffffffffffffffffffffffffffff166135ba84610929565b73ffffffffffffffffffffffffffffffffffffffff16145b91505092915050565b8273ffffffffffffffffffffffffffffffffffffffff166135fb826117c5565b73ffffffffffffffffffffffffffffffffffffffff1614613651576040517f08c379a000000000000000000000000000000000000000000000000000000000815260040161364890614dd9565b60405180910390fd5b600073ffffffffffffffffffffffffffffffffffffffff168273ffffffffffffffffffffffffffffffffffffffff1614156136c1576040517f08c379a00000000000000000000000000000000000000000000000000000000081526004016136b890614e39565b60405180910390fd5b6136cc838383613a80565b6136d7600082612dbb565b6001606860008573ffffffffffffffffffffffffffffffffffffffff1673ffffffffffffffffffffffffffffffffffffffff168152602001908152602001600020600082825461372791906152ff565b925050819055506001606860008473ffffffffffffffffffffffffffffffffffffffff1673ffffffffffffffffffffffffffffffffffffffff168152602001908152602001600020600082825461377e919061521e565b92505081905550816067600083815260200190815260200160002060006101000a81548173ffffffffffffffffffffffffffffffffffffffff021916908373ffffffffffffffffffffffffffffffffffffffff160217905550808273ffffffffffffffffffffffffffffffffffffffff168473ffffffffffffffffffffffffffffffffffffffff167fddf252ad1be2c89b69c2b068fc378daa952ba7f163c4a11628f55a4df523b3ef60405160405180910390a461383d838383613a85565b505050565b61384c8383613a8a565b6138596000848484613c64565b613898576040517f08c379a000000000000000000000000000000000000000000000000000000000815260040161388f90614d79565b60405180910390fd5b505050565b600060019054906101000a900460ff166138ec576040517f08c379a00000000000000000000000000000000000000000000000000000000081526004016138e390615099565b60405180910390fd5b8160659080519060200190613902929190613fa8565b508060669080519060200190613919929190613fa8565b505050565b600060019054906101000a900460ff1661396d576040517f08c379a000000000000000000000000000000000000000000000000000000000815260040161396490615099565b60405180910390fd5b61397d613978612db3565b613008565b565b61398a8484846135db565b61399684848484613c64565b6139d5576040517f08c379a00000000000000000000000000000000000000000000000000000000081526004016139cc90614d79565b60405180910390fd5b50505050565b60606040518060400160405280601f81526020017f68747470733a2f2f6d6574612e64656369626c696e672e636f6d2f6e66742f00815250905090565b6060613a2382612d68565b6000613a2d6139db565b90506000815111613a4d5760405180602001604052806000815250613a78565b80613a5784613dfb565b604051602001613a68929190614ba7565b6040516020818303038152906040525b915050919050565b505050565b505050565b600073ffffffffffffffffffffffffffffffffffffffff168273ffffffffffffffffffffffffffffffffffffffff161415613afa576040517f08c379a0000000000000000000000000000000000000000000000000000000008152600401613af190614f99565b60405180910390fd5b613b03816134da565b15613b43576040517f08c379a0000000000000000000000000000000000000000000000000000000008152600401613b3a90614df9565b60405180910390fd5b613b4f60008383613a80565b6001606860008473ffffffffffffffffffffffffffffffffffffffff1673ffffffffffffffffffffffffffffffffffffffff1681526020019081526020016000206000828254613b9f919061521e565b92505081905550816067600083815260200190815260200160002060006101000a81548173ffffffffffffffffffffffffffffffffffffffff021916908373ffffffffffffffffffffffffffffffffffffffff160217905550808273ffffffffffffffffffffffffffffffffffffffff16600073ffffffffffffffffffffffffffffffffffffffff167fddf252ad1be2c89b69c2b068fc378daa952ba7f163c4a11628f55a4df523b3ef60405160405180910390a4613c6060008383613a85565b5050565b6000613c858473ffffffffffffffffffffffffffffffffffffffff166130ce565b15613dee578373ffffffffffffffffffffffffffffffffffffffff1663150b7a02613cae612db3565b8786866040518563ffffffff1660e01b8152600401613cd09493929190614be6565b602060405180830381600087803b158015613cea57600080fd5b505af1925050508015613d1b57506040513d601f19601f82011682018060405250810190613d189190614354565b60015b613d9e573d8060008114613d4b576040519150601f19603f3d011682016040523d82523d6000602084013e613d50565b606091505b50600081511415613d96576040517f08c379a0000000000000000000000000000000000000000000000000000000008152600401613d8d90614d79565b60405180910390fd5b805181602001fd5b63150b7a0260e01b7bffffffffffffffffffffffffffffffffffffffffffffffffffffffff1916817bffffffffffffffffffffffffffffffffffffffffffffffffffffffff191614915050613df3565b600190505b949350505050565b60606000821415613e43576040518060400160405280600181526020017f30000000000000000000000000000000000000000000000000000000000000008152509050613fa3565b600082905060005b60008214613e75578080613e5e90615490565b915050600a82613e6e9190615274565b9150613e4b565b60008167ffffffffffffffff811115613eb7577f4e487b7100000000000000000000000000000000000000000000000000000000600052604160045260246000fd5b6040519080825280601f01601f191660200182016040528015613ee95781602001600182028036833780820191505090505b5090505b60008514613f9c57600182613f0291906152ff565b9150600a85613f1191906154d9565b6030613f1d919061521e565b60f81b818381518110613f59577f4e487b7100000000000000000000000000000000000000000000000000000000600052603260045260246000fd5b60200101907effffffffffffffffffffffffffffffffffffffffffffffffffffffffffffff1916908160001a905350600a85613f959190615274565b9450613eed565b8093505050505b919050565b828054613fb49061542d565b90600052602060002090601f016020900481019282613fd6576000855561401d565b82601f10613fef57805160ff191683800117855561401d565b8280016001018555821561401d579182015b8281111561401c578251825591602001919060010190614001565b5b50905061402a919061402e565b5090565b5b8082111561404757600081600090555060010161402f565b5090565b600061405e61405984615159565b615134565b90508281526020810184848401111561407657600080fd5b6140818482856153eb565b509392505050565b600061409c6140978461518a565b615134565b9050828152602081018484840111156140b457600080fd5b6140bf8482856153eb565b509392505050565b6000813590506140d681615d2b565b92915050565b6000813590506140eb81615d42565b92915050565b60008135905061410081615d59565b92915050565b60008151905061411581615d59565b92915050565b600082601f83011261412c57600080fd5b813561413c84826020860161404b565b91505092915050565b600082601f83011261415657600080fd5b8135614166848260208601614089565b91505092915050565b60008135905061417e81615d70565b92915050565b60006020828403121561419657600080fd5b60006141a4848285016140c7565b91505092915050565b600080604083850312156141c057600080fd5b60006141ce858286016140c7565b92505060206141df858286016140c7565b9150509250929050565b6000806000606084860312156141fe57600080fd5b600061420c868287016140c7565b935050602061421d868287016140c7565b925050604061422e8682870161416f565b9150509250925092565b6000806000806080858703121561424e57600080fd5b600061425c878288016140c7565b945050602061426d878288016140c7565b935050604061427e8782880161416f565b925050606085013567ffffffffffffffff81111561429b57600080fd5b6142a78782880161411b565b91505092959194509250565b600080604083850312156142c657600080fd5b60006142d4858286016140c7565b92505060206142e5858286016140dc565b9150509250929050565b6000806040838503121561430257600080fd5b6000614310858286016140c7565b92505060206143218582860161416f565b9150509250929050565b60006020828403121561433d57600080fd5b600061434b848285016140f1565b91505092915050565b60006020828403121561436657600080fd5b600061437484828501614106565b91505092915050565b60006020828403121561438f57600080fd5b600082013567ffffffffffffffff8111156143a957600080fd5b6143b584828501614145565b91505092915050565b600080604083850312156143d157600080fd5b600083013567ffffffffffffffff8111156143eb57600080fd5b6143f785828601614145565b9250506020614408858286016140c7565b9150509250929050565b60008060006060848603121561442757600080fd5b600084013567ffffffffffffffff81111561444157600080fd5b61444d86828701614145565b935050602084013567ffffffffffffffff81111561446a57600080fd5b61447686828701614145565b92505060406144878682870161416f565b9150509250925092565b600080604083850312156144a457600080fd5b600083013567ffffffffffffffff8111156144be57600080fd5b6144ca85828601614145565b92505060206144db8582860161416f565b9150509250929050565b600080600080608085870312156144fb57600080fd5b600085013567ffffffffffffffff81111561451557600080fd5b61452187828801614145565b94505060206145328782880161416f565b93505060406145438782880161416f565b92505060606145548782880161416f565b91505092959194509250565b60006020828403121561457257600080fd5b60006145808482850161416f565b91505092915050565b61459281615333565b82525050565b6145a181615345565b82525050565b60006145b2826151d0565b6145bc81856151e6565b93506145cc8185602086016153fa565b6145d5816155f5565b840191505092915050565b600081546145ed8161542d565b6145f781866151f7565b94506001821660008114614612576001811461462357614656565b60ff19831686528186019350614656565b61462c856151bb565b60005b8381101561464e5781548189015260018201915060208101905061462f565b838801955050505b50505092915050565b614668816153c7565b82525050565b614677816153d9565b82525050565b6000614688826151db565b6146928185615202565b93506146a28185602086016153fa565b6146ab816155f5565b840191505092915050565b60006146c1826151db565b6146cb8185615213565b93506146db8185602086016153fa565b80840191505092915050565b60006146f4600183615202565b91506146ff82615606565b602082019050919050565b6000614717602283615202565b91506147228261562f565b604082019050919050565b600061473a600283615202565b91506147458261567e565b602082019050919050565b600061475d600283615202565b9150614768826156a7565b602082019050919050565b6000614780603283615202565b915061478b826156d0565b604082019050919050565b60006147a3602683615202565b91506147ae8261571f565b604082019050919050565b60006147c6600283615202565b91506147d18261576e565b602082019050919050565b60006147e9602583615202565b91506147f482615797565b604082019050919050565b600061480c601c83615202565b9150614817826157e6565b602082019050919050565b600061482f600183615202565b915061483a8261580f565b602082019050919050565b6000614852602483615202565b915061485d82615838565b604082019050919050565b6000614875601983615202565b915061488082615887565b602082019050919050565b6000614898600183615202565b91506148a3826158b0565b602082019050919050565b60006148bb600283615202565b91506148c6826158d9565b602082019050919050565b60006148de602983615202565b91506148e982615902565b604082019050919050565b6000614901602e83615202565b915061490c82615951565b604082019050919050565b6000614924600283615202565b915061492f826159a0565b602082019050919050565b6000614947600283615202565b9150614952826159c9565b602082019050919050565b600061496a602e83615202565b9150614975826159f2565b604082019050919050565b600061498d600283615202565b915061499882615a41565b602082019050919050565b60006149b0603e83615202565b91506149bb82615a6a565b604082019050919050565b60006149d3602083615202565b91506149de82615ab9565b602082019050919050565b60006149f6602083615202565b9150614a0182615ae2565b602082019050919050565b6000614a19600183615202565b9150614a2482615b0b565b602082019050919050565b6000614a3c601883615202565b9150614a4782615b34565b602082019050919050565b6000614a5f602183615202565b9150614a6a82615b5d565b604082019050919050565b6000614a82600183615202565b9150614a8d82615bac565b602082019050919050565b6000614aa5600183615202565b9150614ab082615bd5565b602082019050919050565b6000614ac8600183615202565b9150614ad382615bfe565b602082019050919050565b6000614aeb602b83615202565b9150614af682615c27565b604082019050919050565b6000614b0e600183615202565b9150614b1982615c76565b602082019050919050565b6000614b31600183615202565b9150614b3c82615c9f565b602082019050919050565b6000614b54602e83615202565b9150614b5f82615cc8565b604082019050919050565b614b73816153b0565b82525050565b6000614b8582846145e0565b915081905092915050565b6000614b9c82846146b6565b915081905092915050565b6000614bb382856146b6565b9150614bbf82846146b6565b91508190509392505050565b6000602082019050614be06000830184614589565b92915050565b6000608082019050614bfb6000830187614589565b614c086020830186614589565b614c156040830185614b6a565b8181036060830152614c2781846145a7565b905095945050505050565b600060c082019050614c476000830189614589565b8181036020830152614c59818861467d565b90508181036040830152614c6d818761467d565b9050614c7c6060830186614b6a565b614c89608083018561465f565b614c9660a0830184614b6a565b979650505050505050565b6000602082019050614cb66000830184614598565b92915050565b6000602082019050614cd1600083018461466e565b92915050565b60006020820190508181036000830152614cf1818461467d565b905092915050565b60006020820190508181036000830152614d12816146e7565b9050919050565b60006020820190508181036000830152614d328161470a565b9050919050565b60006020820190508181036000830152614d528161472d565b9050919050565b60006020820190508181036000830152614d7281614750565b9050919050565b60006020820190508181036000830152614d9281614773565b9050919050565b60006020820190508181036000830152614db281614796565b9050919050565b60006020820190508181036000830152614dd2816147b9565b9050919050565b60006020820190508181036000830152614df2816147dc565b9050919050565b60006020820190508181036000830152614e12816147ff565b9050919050565b60006020820190508181036000830152614e3281614822565b9050919050565b60006020820190508181036000830152614e5281614845565b9050919050565b60006020820190508181036000830152614e7281614868565b9050919050565b60006020820190508181036000830152614e928161488b565b9050919050565b60006020820190508181036000830152614eb2816148ae565b9050919050565b60006020820190508181036000830152614ed2816148d1565b9050919050565b60006020820190508181036000830152614ef2816148f4565b9050919050565b60006020820190508181036000830152614f1281614917565b9050919050565b60006020820190508181036000830152614f328161493a565b9050919050565b60006020820190508181036000830152614f528161495d565b9050919050565b60006020820190508181036000830152614f7281614980565b9050919050565b60006020820190508181036000830152614f92816149a3565b9050919050565b60006020820190508181036000830152614fb2816149c6565b9050919050565b60006020820190508181036000830152614fd2816149e9565b9050919050565b60006020820190508181036000830152614ff281614a0c565b9050919050565b6000602082019050818103600083015261501281614a2f565b9050919050565b6000602082019050818103600083015261503281614a52565b9050919050565b6000602082019050818103600083015261505281614a75565b9050919050565b6000602082019050818103600083015261507281614a98565b9050919050565b6000602082019050818103600083015261509281614abb565b9050919050565b600060208201905081810360008301526150b281614ade565b9050919050565b600060208201905081810360008301526150d281614b01565b9050919050565b600060208201905081810360008301526150f281614b24565b9050919050565b6000602082019050818103600083015261511281614b47565b9050919050565b600060208201905061512e6000830184614b6a565b92915050565b600061513e61514f565b905061514a828261545f565b919050565b6000604051905090565b600067ffffffffffffffff821115615174576151736155c6565b5b61517d826155f5565b9050602081019050919050565b600067ffffffffffffffff8211156151a5576151a46155c6565b5b6151ae826155f5565b9050602081019050919050565b60008190508160005260206000209050919050565b600081519050919050565b600081519050919050565b600082825260208201905092915050565b600081905092915050565b600082825260208201905092915050565b600081905092915050565b6000615229826153b0565b9150615234836153b0565b9250827fffffffffffffffffffffffffffffffffffffffffffffffffffffffffffffffff038211156152695761526861550a565b5b828201905092915050565b600061527f826153b0565b915061528a836153b0565b92508261529a57615299615539565b5b828204905092915050565b60006152b0826153b0565b91506152bb836153b0565b9250817fffffffffffffffffffffffffffffffffffffffffffffffffffffffffffffffff04831182151516156152f4576152f361550a565b5b828202905092915050565b600061530a826153b0565b9150615315836153b0565b9250828210156153285761532761550a565b5b828203905092915050565b600061533e82615390565b9050919050565b60008115159050919050565b60007fffffffff0000000000000000000000000000000000000000000000000000000082169050919050565b600081905061538b82615d17565b919050565b600073ffffffffffffffffffffffffffffffffffffffff82169050919050565b6000819050919050565b600060ff82169050919050565b60006153d28261537d565b9050919050565b60006153e4826153ba565b9050919050565b82818337600083830152505050565b60005b838110156154185780820151818401526020810190506153fd565b83811115615427576000848401525b50505050565b6000600282049050600182168061544557607f821691505b6020821081141561545957615458615597565b5b50919050565b615468826155f5565b810181811067ffffffffffffffff82111715615487576154866155c6565b5b80604052505050565b600061549b826153b0565b91507fffffffffffffffffffffffffffffffffffffffffffffffffffffffffffffffff8214156154ce576154cd61550a565b5b600182019050919050565b60006154e4826153b0565b91506154ef836153b0565b9250826154ff576154fe615539565b5b828206905092915050565b7f4e487b7100000000000000000000000000000000000000000000000000000000600052601160045260246000fd5b7f4e487b7100000000000000000000000000000000000000000000000000000000600052601260045260246000fd5b7f4e487b7100000000000000000000000000000000000000000000000000000000600052602160045260246000fd5b7f4e487b7100000000000000000000000000000000000000000000000000000000600052602260045260246000fd5b7f4e487b7100000000000000000000000000000000000000000000000000000000600052604160045260246000fd5b6000601f19601f8301169050919050565b7f3400000000000000000000000000000000000000000000000000000000000000600082015250565b7f53746172742074696d65206d757374206265206265666f726520656e6420746960008201527f6d65000000000000000000000000000000000000000000000000000000000000602082015250565b7f3130000000000000000000000000000000000000000000000000000000000000600082015250565b7f3135000000000000000000000000000000000000000000000000000000000000600082015250565b7f4552433732313a207472616e7366657220746f206e6f6e20455243373231526560008201527f63656976657220696d706c656d656e7465720000000000000000000000000000602082015250565b7f4f776e61626c653a206e6577206f776e657220697320746865207a65726f206160008201527f6464726573730000000000000000000000000000000000000000000000000000602082015250565b7f3136000000000000000000000000000000000000000000000000000000000000600082015250565b7f4552433732313a207472616e736665722066726f6d20696e636f72726563742060008201527f6f776e6572000000000000000000000000000000000000000000000000000000602082015250565b7f4552433732313a20746f6b656e20616c7265616479206d696e74656400000000600082015250565b7f3300000000000000000000000000000000000000000000000000000000000000600082015250565b7f4552433732313a207472616e7366657220746f20746865207a65726f2061646460008201527f7265737300000000000000000000000000000000000000000000000000000000602082015250565b7f4552433732313a20617070726f766520746f2063616c6c657200000000000000600082015250565b7f3700000000000000000000000000000000000000000000000000000000000000600082015250565b7f3134000000000000000000000000000000000000000000000000000000000000600082015250565b7f4552433732313a2061646472657373207a65726f206973206e6f74206120766160008201527f6c6964206f776e65720000000000000000000000000000000000000000000000602082015250565b7f45524337323155524953746f726167653a2055524920736574206f66206e6f6e60008201527f6578697374656e7420746f6b656e000000000000000000000000000000000000602082015250565b7f3131000000000000000000000000000000000000000000000000000000000000600082015250565b7f3133000000000000000000000000000000000000000000000000000000000000600082015250565b7f496e697469616c697a61626c653a20636f6e747261637420697320616c72656160008201527f647920696e697469616c697a6564000000000000000000000000000000000000602082015250565b7f3132000000000000000000000000000000000000000000000000000000000000600082015250565b7f4552433732313a20617070726f76652063616c6c6572206973206e6f7420746f60008201527f6b656e206f776e6572206e6f7220617070726f76656420666f7220616c6c0000602082015250565b7f4552433732313a206d696e7420746f20746865207a65726f2061646472657373600082015250565b7f4f776e61626c653a2063616c6c6572206973206e6f7420746865206f776e6572600082015250565b7f3200000000000000000000000000000000000000000000000000000000000000600082015250565b7f4552433732313a20696e76616c696420746f6b656e2049440000000000000000600082015250565b7f4552433732313a20617070726f76616c20746f2063757272656e74206f776e6560008201527f7200000000000000000000000000000000000000000000000000000000000000602082015250565b7f3100000000000000000000000000000000000000000000000000000000000000600082015250565b7f3500000000000000000000000000000000000000000000000000000000000000600082015250565b7f3900000000000000000000000000000000000000000000000000000000000000600082015250565b7f496e697469616c697a61626c653a20636f6e7472616374206973206e6f74206960008201527f6e697469616c697a696e67000000000000000000000000000000000000000000602082015250565b7f3600000000000000000000000000000000000000000000000000000000000000600082015250565b7f3800000000000000000000000000000000000000000000000000000000000000600082015250565b7f4552433732313a2063616c6c6572206973206e6f7420746f6b656e206f776e6560008201527f72206e6f7220617070726f766564000000000000000000000000000000000000602082015250565b60048110615d2857615d27615568565b5b50565b615d3481615333565b8114615d3f57600080fd5b50565b615d4b81615345565b8114615d5657600080fd5b50565b615d6281615351565b8114615d6d57600080fd5b50565b615d79816153b0565b8114615d8457600080fd5b5056fea264697066735822122079a0d985119abc93d9d8b6608d0e3b7a74df80b5228f8360a5a083600ccc180864736f6c63430008040033",
  "linkReferences": {},
  "deployedLinkReferences": {}
}