{
  "_format": "hh-sol-artifact-1",
  "contractName": "TokenFarm",
  "sourceName": "contracts/TokenFarm.sol",
  "abi": [
    {
      "inputs": [
        {
          "internalType": "address",
          "name": "_dbTokenAddress",
          "type": "address"
        }
      ],
      "stateMutability": "nonpayable",
      "type": "constructor"
    },
    {
      "anonymous": false,
      "inputs": [
        {
          "indexed": false,
          "internalType": "address",
          "name": "_user",
          "type": "address"
        },
        {
          "indexed": false,
          "internalType": "string",
          "name": "pool",
          "type": "string"
        }
      ],
      "name": "ClaimReward",
      "type": "event"
    },
    {
      "anonymous": false,
      "inputs": [
        {
          "indexed": true,
          "internalType": "address",
          "name": "previousOwner",
          "type": "address"
        },
        {
          "indexed": true,
          "internalType": "address",
          "name": "newOwner",
          "type": "address"
        }
      ],
      "name": "OwnershipTransferred",
      "type": "event"
    },
    {
      "anonymous": false,
      "inputs": [
        {
          "indexed": false,
          "internalType": "address",
          "name": "_user",
          "type": "address"
        },
        {
          "indexed": false,
          "internalType": "uint256",
          "name": "amount",
          "type": "uint256"
        },
        {
          "indexed": false,
          "internalType": "string",
          "name": "pool",
          "type": "string"
        }
      ],
      "name": "Stake",
      "type": "event"
    },
    {
      "anonymous": false,
      "inputs": [
        {
          "indexed": false,
          "internalType": "address",
          "name": "_user",
          "type": "address"
        },
        {
          "indexed": false,
          "internalType": "string",
          "name": "pool",
          "type": "string"
        }
      ],
      "name": "Unstake",
      "type": "event"
    },
    {
      "inputs": [
        {
          "internalType": "string",
          "name": "pool",
          "type": "string"
        }
      ],
      "name": "claimToken",
      "outputs": [],
      "stateMutability": "nonpayable",
      "type": "function"
    },
    {
      "inputs": [],
      "name": "dbToken",
      "outputs": [
        {
          "internalType": "contract IERC20",
          "name": "",
          "type": "address"
        }
      ],
      "stateMutability": "view",
      "type": "function"
    },
    {
      "inputs": [
        {
          "internalType": "string",
          "name": "",
          "type": "string"
        },
        {
          "internalType": "address",
          "name": "",
          "type": "address"
        }
      ],
      "name": "listStake",
      "outputs": [
        {
          "internalType": "uint256",
          "name": "amount",
          "type": "uint256"
        },
        {
          "internalType": "uint256",
          "name": "stakeTime",
          "type": "uint256"
        },
        {
          "internalType": "uint256",
          "name": "unClaimAmount",
          "type": "uint256"
        }
      ],
      "stateMutability": "view",
      "type": "function"
    },
    {
      "inputs": [],
      "name": "owner",
      "outputs": [
        {
          "internalType": "address",
          "name": "",
          "type": "address"
        }
      ],
      "stateMutability": "view",
      "type": "function"
    },
    {
      "inputs": [
        {
          "internalType": "string",
          "name": "",
          "type": "string"
        }
      ],
      "name": "perSeconds",
      "outputs": [
        {
          "internalType": "uint256",
          "name": "",
          "type": "uint256"
        }
      ],
      "stateMutability": "view",
      "type": "function"
    },
    {
      "inputs": [],
      "name": "renounceOwnership",
      "outputs": [],
      "stateMutability": "nonpayable",
      "type": "function"
    },
    {
      "inputs": [
        {
          "internalType": "string",
          "name": "",
          "type": "string"
        }
      ],
      "name": "rewardPercent",
      "outputs": [
        {
          "internalType": "uint256",
          "name": "",
          "type": "uint256"
        }
      ],
      "stateMutability": "view",
      "type": "function"
    },
    {
      "inputs": [
        {
          "internalType": "uint256",
          "name": "sec",
          "type": "uint256"
        },
        {
          "internalType": "string",
          "name": "pool",
          "type": "string"
        }
      ],
      "name": "setPerSecondsReward",
      "outputs": [],
      "stateMutability": "nonpayable",
      "type": "function"
    },
    {
      "inputs": [
        {
          "internalType": "uint256",
          "name": "percent",
          "type": "uint256"
        },
        {
          "internalType": "string",
          "name": "pool",
          "type": "string"
        }
      ],
      "name": "setRewardPercent",
      "outputs": [],
      "stateMutability": "nonpayable",
      "type": "function"
    },
    {
      "inputs": [
        {
          "internalType": "uint256",
          "name": "_amount",
          "type": "uint256"
        },
        {
          "internalType": "string",
          "name": "pool",
          "type": "string"
        }
      ],
      "name": "stake",
      "outputs": [],
      "stateMutability": "payable",
      "type": "function"
    },
    {
      "inputs": [
        {
          "internalType": "address",
          "name": "newOwner",
          "type": "address"
        }
      ],
      "name": "transferOwnership",
      "outputs": [],
      "stateMutability": "nonpayable",
      "type": "function"
    },
    {
      "inputs": [
        {
          "internalType": "string",
          "name": "pool",
          "type": "string"
        }
      ],
      "name": "unstake",
      "outputs": [],
      "stateMutability": "nonpayable",
      "type": "function"
    },
    {
      "inputs": [
        {
          "internalType": "string",
          "name": "",
          "type": "string"
        },
        {
          "internalType": "uint256",
          "name": "",
          "type": "uint256"
        }
      ],
      "name": "userStake",
      "outputs": [
        {
          "internalType": "address",
          "name": "",
          "type": "address"
        }
      ],
      "stateMutability": "view",
      "type": "function"
    },
    {
      "inputs": [
        {
          "internalType": "string",
          "name": "",
          "type": "string"
        },
        {
          "internalType": "address",
          "name": "",
          "type": "address"
        }
      ],
      "name": "userStakeIndex",
      "outputs": [
        {
          "internalType": "uint256",
          "name": "",
          "type": "uint256"
        }
      ],
      "stateMutability": "view",
      "type": "function"
    }
  ],
  "bytecode": "0x60806040523480156200001157600080fd5b506040516200265b3803806200265b833981810160405281019062000037919062000182565b620000576200004b6200009f60201b60201c565b620000a760201b60201c565b80600160006101000a81548173ffffffffffffffffffffffffffffffffffffffff021916908373ffffffffffffffffffffffffffffffffffffffff16021790555050620001fc565b600033905090565b60008060009054906101000a900473ffffffffffffffffffffffffffffffffffffffff169050816000806101000a81548173ffffffffffffffffffffffffffffffffffffffff021916908373ffffffffffffffffffffffffffffffffffffffff1602179055508173ffffffffffffffffffffffffffffffffffffffff168173ffffffffffffffffffffffffffffffffffffffff167f8be0079c531659141344cd1fd0a4f28419497f9722a3daafe3b4186f6b6457e060405160405180910390a35050565b6000815190506200017c81620001e2565b92915050565b6000602082840312156200019557600080fd5b6000620001a5848285016200016b565b91505092915050565b6000620001bb82620001c2565b9050919050565b600073ffffffffffffffffffffffffffffffffffffffff82169050919050565b620001ed81620001ae565b8114620001f957600080fd5b50565b61244f806200020c6000396000f3fe6080604052600436106100dd5760003560e01c80638da5cb5b1161007f578063d8a0ac9711610059578063d8a0ac97146102c0578063e7e4e1f7146102e9578063f2fde38b14610305578063fedfc4a71461032e576100dd565b80638da5cb5b1461022f5780639a95bbf81461025a578063b7ce9bc014610297576100dd565b806356c9895d116100bb57806356c9895d1461019b5780635f00baa7146101c45780636630d3fb146101ef578063715018a614610218576100dd565b806308c8e4a7146100e2578063233a15d414610121578063494ed8401461015e575b600080fd5b3480156100ee57600080fd5b5061010960048036038101906101049190611bef565b61036b565b60405161011893929190611fc4565b60405180910390f35b34801561012d57600080fd5b5061014860048036038101906101439190611bae565b6103b8565b6040516101559190611fa9565b60405180910390f35b34801561016a57600080fd5b5061018560048036038101906101809190611bef565b6103e6565b6040516101929190611fa9565b60405180910390f35b3480156101a757600080fd5b506101c260048036038101906101bd9190611c97565b610421565b005b3480156101d057600080fd5b506101d96104c4565b6040516101e69190611f0e565b60405180910390f35b3480156101fb57600080fd5b5061021660048036038101906102119190611c97565b6104ea565b005b34801561022457600080fd5b5061022d61058d565b005b34801561023b57600080fd5b50610244610615565b6040516102519190611e25565b60405180910390f35b34801561026657600080fd5b50610281600480360381019061027c9190611bae565b61063e565b60405161028e9190611fa9565b60405180910390f35b3480156102a357600080fd5b506102be60048036038101906102b99190611bae565b61066c565b005b3480156102cc57600080fd5b506102e760048036038101906102e29190611bae565b610bc4565b005b61030360048036038101906102fe9190611c97565b610f85565b005b34801561031157600080fd5b5061032c60048036038101906103279190611b5c565b611342565b005b34801561033a57600080fd5b5061035560048036038101906103509190611c43565b61143a565b6040516103629190611e25565b60405180910390f35b600282805160208101820180518482526020830160208501208183528095505050505050602052806000526040600020600091509150508060000154908060010154908060020154905083565b6006818051602081018201805184825260208301602085012081835280955050505050506000915090505481565b600382805160208101820180518482526020830160208501208183528095505050505050602052806000526040600020600091509150505481565b61042961149e565b73ffffffffffffffffffffffffffffffffffffffff16610447610615565b73ffffffffffffffffffffffffffffffffffffffff161461049d576040517f08c379a000000000000000000000000000000000000000000000000000000000815260040161049490611f49565b60405180910390fd5b816006826040516104ae9190611e0e565b9081526020016040518091039020819055505050565b600160009054906101000a900473ffffffffffffffffffffffffffffffffffffffff1681565b6104f261149e565b73ffffffffffffffffffffffffffffffffffffffff16610510610615565b73ffffffffffffffffffffffffffffffffffffffff1614610566576040517f08c379a000000000000000000000000000000000000000000000000000000000815260040161055d90611f49565b60405180910390fd5b816005826040516105779190611e0e565b9081526020016040518091039020819055505050565b61059561149e565b73ffffffffffffffffffffffffffffffffffffffff166105b3610615565b73ffffffffffffffffffffffffffffffffffffffff1614610609576040517f08c379a000000000000000000000000000000000000000000000000000000000815260040161060090611f49565b60405180910390fd5b61061360006114a6565b565b60008060009054906101000a900473ffffffffffffffffffffffffffffffffffffffff16905090565b6005818051602081018201805184825260208301602085012081835280955050505050506000915090505481565b61067461149e565b73ffffffffffffffffffffffffffffffffffffffff16610692610615565b73ffffffffffffffffffffffffffffffffffffffff16146106e8576040517f08c379a00000000000000000000000000000000000000000000000000000000081526004016106df90611f49565b60405180910390fd5b6000339050600042905060006002846040516107049190611e0e565b908152602001604051809103902060008473ffffffffffffffffffffffffffffffffffffffff1673ffffffffffffffffffffffffffffffffffffffff1681526020019081526020016000206001015414156109a557600060028460405161076b9190611e0e565b908152602001604051809103902060008473ffffffffffffffffffffffffffffffffffffffff1673ffffffffffffffffffffffffffffffffffffffff16815260200190815260200160002060020154146109a057600160009054906101000a900473ffffffffffffffffffffffffffffffffffffffff1673ffffffffffffffffffffffffffffffffffffffff1663a9059cbb8360028660405161080e9190611e0e565b908152602001604051809103902060008673ffffffffffffffffffffffffffffffffffffffff1673ffffffffffffffffffffffffffffffffffffffff168152602001908152602001600020600201546040518363ffffffff1660e01b815260040161087a929190611ea7565b602060405180830381600087803b15801561089457600080fd5b505af11580156108a8573d6000803e3d6000fd5b505050506040513d601f19601f820116820180604052508101906108cc9190611b85565b5060006002846040516108df9190611e0e565b908152602001604051809103902060008473ffffffffffffffffffffffffffffffffffffffff1673ffffffffffffffffffffffffffffffffffffffff1681526020019081526020016000206002018190555060006002846040516109439190611e0e565b908152602001604051809103902060008473ffffffffffffffffffffffffffffffffffffffff1673ffffffffffffffffffffffffffffffffffffffff1681526020019081526020016000206000018190555061099f828461156a565b5b610b86565b6109b082828561186f565b806002846040516109c19190611e0e565b908152602001604051809103902060008473ffffffffffffffffffffffffffffffffffffffff1673ffffffffffffffffffffffffffffffffffffffff16815260200190815260200160002060010181905550600160009054906101000a900473ffffffffffffffffffffffffffffffffffffffff1673ffffffffffffffffffffffffffffffffffffffff1663a9059cbb83600286604051610a629190611e0e565b908152602001604051809103902060008673ffffffffffffffffffffffffffffffffffffffff1673ffffffffffffffffffffffffffffffffffffffff168152602001908152602001600020600201546040518363ffffffff1660e01b8152600401610ace929190611ea7565b602060405180830381600087803b158015610ae857600080fd5b505af1158015610afc573d6000803e3d6000fd5b505050506040513d601f19601f82011682018060405250810190610b209190611b85565b506000600284604051610b339190611e0e565b908152602001604051809103902060008473ffffffffffffffffffffffffffffffffffffffff1673ffffffffffffffffffffffffffffffffffffffff168152602001908152602001600020600201819055505b7fcba7446068a7f71e2b532a0ba605c95565bafc409c53f58a49ab581afbdb8b2b8284604051610bb7929190611e77565b60405180910390a1505050565b6000600382604051610bd69190611e0e565b908152602001604051809103902060003373ffffffffffffffffffffffffffffffffffffffff1673ffffffffffffffffffffffffffffffffffffffff168152602001908152602001600020541415610c63576040517f08c379a0000000000000000000000000000000000000000000000000000000008152600401610c5a90611f69565b60405180910390fd5b6000600282604051610c759190611e0e565b908152602001604051809103902060003373ffffffffffffffffffffffffffffffffffffffff1673ffffffffffffffffffffffffffffffffffffffff168152602001908152602001600020600001541415610d05576040517f08c379a0000000000000000000000000000000000000000000000000000000008152600401610cfc90611f89565b60405180910390fd5b600160009054906101000a900473ffffffffffffffffffffffffffffffffffffffff1673ffffffffffffffffffffffffffffffffffffffff1663a9059cbb33600284604051610d549190611e0e565b908152602001604051809103902060003373ffffffffffffffffffffffffffffffffffffffff1673ffffffffffffffffffffffffffffffffffffffff168152602001908152602001600020600001546040518363ffffffff1660e01b8152600401610dc0929190611ea7565b602060405180830381600087803b158015610dda57600080fd5b505af1158015610dee573d6000803e3d6000fd5b505050506040513d601f19601f82011682018060405250810190610e129190611b85565b506000600282604051610e259190611e0e565b908152602001604051809103902060003373ffffffffffffffffffffffffffffffffffffffff1673ffffffffffffffffffffffffffffffffffffffff168152602001908152602001600020600001819055506000600282604051610e899190611e0e565b908152602001604051809103902060003373ffffffffffffffffffffffffffffffffffffffff1673ffffffffffffffffffffffffffffffffffffffff168152602001908152602001600020600101819055506000600282604051610eed9190611e0e565b908152602001604051809103902060003373ffffffffffffffffffffffffffffffffffffffff1673ffffffffffffffffffffffffffffffffffffffff16815260200190815260200160002060020181905550610f49338261156a565b7f89a3e89bc38972f8da648764d6f02dc17ace9e081a46166e46ba6e9483f379d73382604051610f7a929190611e77565b60405180910390a150565b600160009054906101000a900473ffffffffffffffffffffffffffffffffffffffff1673ffffffffffffffffffffffffffffffffffffffff166323b872dd3330856040518463ffffffff1660e01b8152600401610fe493929190611e40565b602060405180830381600087803b158015610ffe57600080fd5b505af1158015611012573d6000803e3d6000fd5b505050506040513d601f19601f820116820180604052508101906110369190611b85565b506000429050600060028360405161104e9190611e0e565b908152602001604051809103902060003373ffffffffffffffffffffffffffffffffffffffff1673ffffffffffffffffffffffffffffffffffffffff16815260200190815260200160002060010154146110b2576110ad33828461186f565b61122a565b60006003836040516110c49190611e0e565b908152602001604051809103902060003373ffffffffffffffffffffffffffffffffffffffff1673ffffffffffffffffffffffffffffffffffffffff1681526020019081526020016000205414156112295760006004836040516111289190611e0e565b908152602001604051809103902080549050905060048360405161114c9190611e0e565b9081526020016040518091039020339080600181540180825580915050600190039060005260206000200160009091909190916101000a81548173ffffffffffffffffffffffffffffffffffffffff021916908373ffffffffffffffffffffffffffffffffffffffff1602179055506001816111c89190612078565b6003846040516111d89190611e0e565b908152602001604051809103902060003373ffffffffffffffffffffffffffffffffffffffff1673ffffffffffffffffffffffffffffffffffffffff16815260200190815260200160002081905550505b5b8060028360405161123b9190611e0e565b908152602001604051809103902060003373ffffffffffffffffffffffffffffffffffffffff1673ffffffffffffffffffffffffffffffffffffffff168152602001908152602001600020600101819055508260028360405161129e9190611e0e565b908152602001604051809103902060003373ffffffffffffffffffffffffffffffffffffffff1673ffffffffffffffffffffffffffffffffffffffff16815260200190815260200160002060000160008282546112fb9190612078565b925050819055507f72d0050d8f1a0f19ace5b1f50e8b5333308c60902442b7444a65cfffbad884e733848460405161133593929190611ed0565b60405180910390a1505050565b61134a61149e565b73ffffffffffffffffffffffffffffffffffffffff16611368610615565b73ffffffffffffffffffffffffffffffffffffffff16146113be576040517f08c379a00000000000000000000000000000000000000000000000000000000081526004016113b590611f49565b60405180910390fd5b600073ffffffffffffffffffffffffffffffffffffffff168173ffffffffffffffffffffffffffffffffffffffff16141561142e576040517f08c379a000000000000000000000000000000000000000000000000000000000815260040161142590611f29565b60405180910390fd5b611437816114a6565b50565b600482805160208101820180518482526020830160208501208183528095505050505050818154811061146c57600080fd5b906000526020600020016000915091509054906101000a900473ffffffffffffffffffffffffffffffffffffffff1681565b600033905090565b60008060009054906101000a900473ffffffffffffffffffffffffffffffffffffffff169050816000806101000a81548173ffffffffffffffffffffffffffffffffffffffff021916908373ffffffffffffffffffffffffffffffffffffffff1602179055508173ffffffffffffffffffffffffffffffffffffffff168173ffffffffffffffffffffffffffffffffffffffff167f8be0079c531659141344cd1fd0a4f28419497f9722a3daafe3b4186f6b6457e060405160405180910390a35050565b600060038260405161157c9190611e0e565b908152602001604051809103902060008473ffffffffffffffffffffffffffffffffffffffff1673ffffffffffffffffffffffffffffffffffffffff168152602001908152602001600020541461186b576004816040516115dd9190611e0e565b908152602001604051809103902060016004836040516115fd9190611e0e565b9081526020016040518091039020805490506116199190612159565b81548110611650577f4e487b7100000000000000000000000000000000000000000000000000000000600052603260045260246000fd5b9060005260206000200160009054906101000a900473ffffffffffffffffffffffffffffffffffffffff1660048260405161168b9190611e0e565b908152602001604051809103902060016003846040516116ab9190611e0e565b908152602001604051809103902060008673ffffffffffffffffffffffffffffffffffffffff1673ffffffffffffffffffffffffffffffffffffffff168152602001908152602001600020546117019190612159565b81548110611738577f4e487b7100000000000000000000000000000000000000000000000000000000600052603260045260246000fd5b9060005260206000200160006101000a81548173ffffffffffffffffffffffffffffffffffffffff021916908373ffffffffffffffffffffffffffffffffffffffff1602179055506004816040516117909190611e0e565b90815260200160405180910390208054806117d4577f4e487b7100000000000000000000000000000000000000000000000000000000600052603160045260246000fd5b6001900381819060005260206000200160006101000a81549073ffffffffffffffffffffffffffffffffffffffff02191690559055600060038260405161181b9190611e0e565b908152602001604051809103902060008473ffffffffffffffffffffffffffffffffffffffff1673ffffffffffffffffffffffffffffffffffffffff168152602001908152602001600020819055505b5050565b60006006826040516118819190611e0e565b9081526020016040518091039020546002836040516118a09190611e0e565b908152602001604051809103902060008673ffffffffffffffffffffffffffffffffffffffff1673ffffffffffffffffffffffffffffffffffffffff16815260200190815260200160002060010154846118fa9190612159565b61190491906120ce565b14611ab05761271060028260405161191c9190611e0e565b908152602001604051809103902060008573ffffffffffffffffffffffffffffffffffffffff1673ffffffffffffffffffffffffffffffffffffffff1681526020019081526020016000206000015460058360405161197b9190611e0e565b90815260200160405180910390205460068460405161199a9190611e0e565b9081526020016040518091039020546002856040516119b99190611e0e565b908152602001604051809103902060008873ffffffffffffffffffffffffffffffffffffffff1673ffffffffffffffffffffffffffffffffffffffff1681526020019081526020016000206001015486611a139190612159565b611a1d91906120ce565b611a2791906120ff565b611a3191906120ff565b611a3b91906120ce565b600282604051611a4b9190611e0e565b908152602001604051809103902060008573ffffffffffffffffffffffffffffffffffffffff1673ffffffffffffffffffffffffffffffffffffffff1681526020019081526020016000206002016000828254611aa89190612078565b925050819055505b505050565b6000611ac8611ac384612020565b611ffb565b905082815260208101848484011115611ae057600080fd5b611aeb8482856121f9565b509392505050565b600081359050611b02816123d4565b92915050565b600081519050611b17816123eb565b92915050565b600082601f830112611b2e57600080fd5b8135611b3e848260208601611ab5565b91505092915050565b600081359050611b5681612402565b92915050565b600060208284031215611b6e57600080fd5b6000611b7c84828501611af3565b91505092915050565b600060208284031215611b9757600080fd5b6000611ba584828501611b08565b91505092915050565b600060208284031215611bc057600080fd5b600082013567ffffffffffffffff811115611bda57600080fd5b611be684828501611b1d565b91505092915050565b60008060408385031215611c0257600080fd5b600083013567ffffffffffffffff811115611c1c57600080fd5b611c2885828601611b1d565b9250506020611c3985828601611af3565b9150509250929050565b60008060408385031215611c5657600080fd5b600083013567ffffffffffffffff811115611c7057600080fd5b611c7c85828601611b1d565b9250506020611c8d85828601611b47565b9150509250929050565b60008060408385031215611caa57600080fd5b6000611cb885828601611b47565b925050602083013567ffffffffffffffff811115611cd557600080fd5b611ce185828601611b1d565b9150509250929050565b611cf48161218d565b82525050565b611d03816121d5565b82525050565b6000611d1482612051565b611d1e818561205c565b9350611d2e818560208601612208565b611d37816122f9565b840191505092915050565b6000611d4d82612051565b611d57818561206d565b9350611d67818560208601612208565b80840191505092915050565b6000611d8060268361205c565b9150611d8b8261230a565b604082019050919050565b6000611da360208361205c565b9150611dae82612359565b602082019050919050565b6000611dc660018361205c565b9150611dd182612382565b602082019050919050565b6000611de960018361205c565b9150611df4826123ab565b602082019050919050565b611e08816121cb565b82525050565b6000611e1a8284611d42565b915081905092915050565b6000602082019050611e3a6000830184611ceb565b92915050565b6000606082019050611e556000830186611ceb565b611e626020830185611ceb565b611e6f6040830184611dff565b949350505050565b6000604082019050611e8c6000830185611ceb565b8181036020830152611e9e8184611d09565b90509392505050565b6000604082019050611ebc6000830185611ceb565b611ec96020830184611dff565b9392505050565b6000606082019050611ee56000830186611ceb565b611ef26020830185611dff565b8181036040830152611f048184611d09565b9050949350505050565b6000602082019050611f236000830184611cfa565b92915050565b60006020820190508181036000830152611f4281611d73565b9050919050565b60006020820190508181036000830152611f6281611d96565b9050919050565b60006020820190508181036000830152611f8281611db9565b9050919050565b60006020820190508181036000830152611fa281611ddc565b9050919050565b6000602082019050611fbe6000830184611dff565b92915050565b6000606082019050611fd96000830186611dff565b611fe66020830185611dff565b611ff36040830184611dff565b949350505050565b6000612005612016565b9050612011828261223b565b919050565b6000604051905090565b600067ffffffffffffffff82111561203b5761203a6122ca565b5b612044826122f9565b9050602081019050919050565b600081519050919050565b600082825260208201905092915050565b600081905092915050565b6000612083826121cb565b915061208e836121cb565b9250827fffffffffffffffffffffffffffffffffffffffffffffffffffffffffffffffff038211156120c3576120c261226c565b5b828201905092915050565b60006120d9826121cb565b91506120e4836121cb565b9250826120f4576120f361229b565b5b828204905092915050565b600061210a826121cb565b9150612115836121cb565b9250817fffffffffffffffffffffffffffffffffffffffffffffffffffffffffffffffff048311821515161561214e5761214d61226c565b5b828202905092915050565b6000612164826121cb565b915061216f836121cb565b9250828210156121825761218161226c565b5b828203905092915050565b6000612198826121ab565b9050919050565b60008115159050919050565b600073ffffffffffffffffffffffffffffffffffffffff82169050919050565b6000819050919050565b60006121e0826121e7565b9050919050565b60006121f2826121ab565b9050919050565b82818337600083830152505050565b60005b8381101561222657808201518184015260208101905061220b565b83811115612235576000848401525b50505050565b612244826122f9565b810181811067ffffffffffffffff82111715612263576122626122ca565b5b80604052505050565b7f4e487b7100000000000000000000000000000000000000000000000000000000600052601160045260246000fd5b7f4e487b7100000000000000000000000000000000000000000000000000000000600052601260045260246000fd5b7f4e487b7100000000000000000000000000000000000000000000000000000000600052604160045260246000fd5b6000601f19601f8301169050919050565b7f4f776e61626c653a206e6577206f776e657220697320746865207a65726f206160008201527f6464726573730000000000000000000000000000000000000000000000000000602082015250565b7f4f776e61626c653a2063616c6c6572206973206e6f7420746865206f776e6572600082015250565b7f3200000000000000000000000000000000000000000000000000000000000000600082015250565b7f3100000000000000000000000000000000000000000000000000000000000000600082015250565b6123dd8161218d565b81146123e857600080fd5b50565b6123f48161219f565b81146123ff57600080fd5b50565b61240b816121cb565b811461241657600080fd5b5056fea2646970667358221220ff89e903184158bb97c9b1bbf544becd4f3dc9335a887ead48d6e55518a11c6064736f6c63430008040033",
  "linkReferences": {},
  "deployedLinkReferences": {}
}