{
  "_format": "hh-sol-artifact-1",
  "contractName": "TokenFarm",
  "sourceName": "contracts/TokenFarm.sol",
  "abi": [
    {
      "inputs": [
        {
          "internalType": "address",
          "name": "_dbTokenAddress",
          "type": "address"
        }
      ],
      "stateMutability": "nonpayable",
      "type": "constructor"
    },
    {
      "anonymous": false,
      "inputs": [
        {
          "indexed": true,
          "internalType": "address",
          "name": "previousOwner",
          "type": "address"
        },
        {
          "indexed": true,
          "internalType": "address",
          "name": "newOwner",
          "type": "address"
        }
      ],
      "name": "OwnershipTransferred",
      "type": "event"
    },
    {
      "inputs": [],
      "name": "dbToken",
      "outputs": [
        {
          "internalType": "contract IERC20",
          "name": "",
          "type": "address"
        }
      ],
      "stateMutability": "view",
      "type": "function"
    },
    {
      "inputs": [],
      "name": "issueToken",
      "outputs": [],
      "stateMutability": "nonpayable",
      "type": "function"
    },
    {
      "inputs": [
        {
          "internalType": "address",
          "name": "",
          "type": "address"
        }
      ],
      "name": "listStake",
      "outputs": [
        {
          "internalType": "uint256",
          "name": "amount",
          "type": "uint256"
        },
        {
          "internalType": "uint256",
          "name": "stakeTime",
          "type": "uint256"
        },
        {
          "internalType": "uint256",
          "name": "unClaimAmount",
          "type": "uint256"
        }
      ],
      "stateMutability": "view",
      "type": "function"
    },
    {
      "inputs": [],
      "name": "owner",
      "outputs": [
        {
          "internalType": "address",
          "name": "",
          "type": "address"
        }
      ],
      "stateMutability": "view",
      "type": "function"
    },
    {
      "inputs": [],
      "name": "perSeconds",
      "outputs": [
        {
          "internalType": "uint256",
          "name": "",
          "type": "uint256"
        }
      ],
      "stateMutability": "view",
      "type": "function"
    },
    {
      "inputs": [],
      "name": "renounceOwnership",
      "outputs": [],
      "stateMutability": "nonpayable",
      "type": "function"
    },
    {
      "inputs": [],
      "name": "rewardPercent",
      "outputs": [
        {
          "internalType": "uint256",
          "name": "",
          "type": "uint256"
        }
      ],
      "stateMutability": "view",
      "type": "function"
    },
    {
      "inputs": [
        {
          "internalType": "uint256",
          "name": "sec",
          "type": "uint256"
        }
      ],
      "name": "setPerSecondsReward",
      "outputs": [],
      "stateMutability": "nonpayable",
      "type": "function"
    },
    {
      "inputs": [
        {
          "internalType": "uint256",
          "name": "percent",
          "type": "uint256"
        }
      ],
      "name": "setRewardPercent",
      "outputs": [],
      "stateMutability": "nonpayable",
      "type": "function"
    },
    {
      "inputs": [
        {
          "internalType": "uint256",
          "name": "_amount",
          "type": "uint256"
        }
      ],
      "name": "stake",
      "outputs": [],
      "stateMutability": "payable",
      "type": "function"
    },
    {
      "inputs": [
        {
          "internalType": "address",
          "name": "newOwner",
          "type": "address"
        }
      ],
      "name": "transferOwnership",
      "outputs": [],
      "stateMutability": "nonpayable",
      "type": "function"
    },
    {
      "inputs": [],
      "name": "unstake",
      "outputs": [],
      "stateMutability": "nonpayable",
      "type": "function"
    },
    {
      "inputs": [
        {
          "internalType": "uint256",
          "name": "",
          "type": "uint256"
        }
      ],
      "name": "userStake",
      "outputs": [
        {
          "internalType": "address",
          "name": "",
          "type": "address"
        }
      ],
      "stateMutability": "view",
      "type": "function"
    },
    {
      "inputs": [
        {
          "internalType": "address",
          "name": "",
          "type": "address"
        }
      ],
      "name": "userStakeIndex",
      "outputs": [
        {
          "internalType": "uint256",
          "name": "",
          "type": "uint256"
        }
      ],
      "stateMutability": "view",
      "type": "function"
    }
  ],
  "bytecode": "0x60806040523480156200001157600080fd5b5060405162001dd938038062001dd9833981810160405281019062000037919062000192565b620000576200004b620000af60201b60201c565b620000b760201b60201c565b80600160006101000a81548173ffffffffffffffffffffffffffffffffffffffff021916908373ffffffffffffffffffffffffffffffffffffffff1602179055506064600581905550603c600681905550506200020c565b600033905090565b60008060009054906101000a900473ffffffffffffffffffffffffffffffffffffffff169050816000806101000a81548173ffffffffffffffffffffffffffffffffffffffff021916908373ffffffffffffffffffffffffffffffffffffffff1602179055508173ffffffffffffffffffffffffffffffffffffffff168173ffffffffffffffffffffffffffffffffffffffff167f8be0079c531659141344cd1fd0a4f28419497f9722a3daafe3b4186f6b6457e060405160405180910390a35050565b6000815190506200018c81620001f2565b92915050565b600060208284031215620001a557600080fd5b6000620001b5848285016200017b565b91505092915050565b6000620001cb82620001d2565b9050919050565b600073ffffffffffffffffffffffffffffffffffffffff82169050919050565b620001fd81620001be565b81146200020957600080fd5b50565b611bbd806200021c6000396000f3fe6080604052600436106100dd5760003560e01c8063a1ee8c781161007f578063c1c5dd2711610059578063c1c5dd2714610267578063d030205114610290578063d15b9e24146102bb578063f2fde38b146102fa576100dd565b8063a1ee8c78146101f7578063a694fc3a1461020e578063a7eb57af1461022a576100dd565b80636f8a7047116100bb5780636f8a70471461014d578063715018a61461017857806373f7aa961461018f5780638da5cb5b146101cc576100dd565b80631bbbc92e146100e25780632def66201461010b5780635f00baa714610122575b600080fd5b3480156100ee57600080fd5b50610109600480360381019061010491906115f5565b610323565b005b34801561011757600080fd5b506101206103a9565b005b34801561012e57600080fd5b50610137610687565b6040516101449190611752565b60405180910390f35b34801561015957600080fd5b506101626106ad565b60405161016f91906117ed565b60405180910390f35b34801561018457600080fd5b5061018d6106b3565b005b34801561019b57600080fd5b506101b660048036038101906101b191906115f5565b61073b565b6040516101c391906116d7565b60405180910390f35b3480156101d857600080fd5b506101e161077a565b6040516101ee91906116d7565b60405180910390f35b34801561020357600080fd5b5061020c6107a3565b005b610228600480360381019061022391906115f5565b610c67565b005b34801561023657600080fd5b50610251600480360381019061024c91906115a3565b610f11565b60405161025e91906117ed565b60405180910390f35b34801561027357600080fd5b5061028e600480360381019061028991906115f5565b610f29565b005b34801561029c57600080fd5b506102a5610faf565b6040516102b291906117ed565b60405180910390f35b3480156102c757600080fd5b506102e260048036038101906102dd91906115a3565b610fb5565b6040516102f193929190611808565b60405180910390f35b34801561030657600080fd5b50610321600480360381019061031c91906115a3565b610fdf565b005b61032b6110d7565b73ffffffffffffffffffffffffffffffffffffffff1661034961077a565b73ffffffffffffffffffffffffffffffffffffffff161461039f576040517f08c379a00000000000000000000000000000000000000000000000000000000081526004016103969061178d565b60405180910390fd5b8060068190555050565b6000600360003373ffffffffffffffffffffffffffffffffffffffff1673ffffffffffffffffffffffffffffffffffffffff16815260200190815260200160002054141561042c576040517f08c379a0000000000000000000000000000000000000000000000000000000008152600401610423906117ad565b60405180910390fd5b6000600260003373ffffffffffffffffffffffffffffffffffffffff1673ffffffffffffffffffffffffffffffffffffffff1681526020019081526020016000206000015414156104b2576040517f08c379a00000000000000000000000000000000000000000000000000000000081526004016104a9906117cd565b60405180910390fd5b600160009054906101000a900473ffffffffffffffffffffffffffffffffffffffff1673ffffffffffffffffffffffffffffffffffffffff1663a9059cbb33600260003373ffffffffffffffffffffffffffffffffffffffff1673ffffffffffffffffffffffffffffffffffffffff168152602001908152602001600020600001546040518363ffffffff1660e01b8152600401610551929190611729565b602060405180830381600087803b15801561056b57600080fd5b505af115801561057f573d6000803e3d6000fd5b505050506040513d601f19601f820116820180604052508101906105a391906115cc565b506000600260003373ffffffffffffffffffffffffffffffffffffffff1673ffffffffffffffffffffffffffffffffffffffff168152602001908152602001600020600001819055506000600260003373ffffffffffffffffffffffffffffffffffffffff1673ffffffffffffffffffffffffffffffffffffffff168152602001908152602001600020600101819055506000600260003373ffffffffffffffffffffffffffffffffffffffff1673ffffffffffffffffffffffffffffffffffffffff16815260200190815260200160002060020181905550610685336110df565b565b600160009054906101000a900473ffffffffffffffffffffffffffffffffffffffff1681565b60065481565b6106bb6110d7565b73ffffffffffffffffffffffffffffffffffffffff166106d961077a565b73ffffffffffffffffffffffffffffffffffffffff161461072f576040517f08c379a00000000000000000000000000000000000000000000000000000000081526004016107269061178d565b60405180910390fd5b610739600061131f565b565b6004818154811061074b57600080fd5b906000526020600020016000915054906101000a900473ffffffffffffffffffffffffffffffffffffffff1681565b60008060009054906101000a900473ffffffffffffffffffffffffffffffffffffffff16905090565b6107ab6110d7565b73ffffffffffffffffffffffffffffffffffffffff166107c961077a565b73ffffffffffffffffffffffffffffffffffffffff161461081f576040517f08c379a00000000000000000000000000000000000000000000000000000000081526004016108169061178d565b60405180910390fd5b60005b600480549050811015610c645760006004828154811061086b577f4e487b7100000000000000000000000000000000000000000000000000000000600052603260045260246000fd5b9060005260206000200160009054906101000a900473ffffffffffffffffffffffffffffffffffffffff16905060004290506000600260008473ffffffffffffffffffffffffffffffffffffffff1673ffffffffffffffffffffffffffffffffffffffff168152602001908152602001600020600101541415610ac3576000600260008473ffffffffffffffffffffffffffffffffffffffff1673ffffffffffffffffffffffffffffffffffffffff1681526020019081526020016000206002015414610abe57600160009054906101000a900473ffffffffffffffffffffffffffffffffffffffff1673ffffffffffffffffffffffffffffffffffffffff1663a9059cbb83600260008673ffffffffffffffffffffffffffffffffffffffff1673ffffffffffffffffffffffffffffffffffffffff168152602001908152602001600020600201546040518363ffffffff1660e01b81526004016109d1929190611729565b602060405180830381600087803b1580156109eb57600080fd5b505af11580156109ff573d6000803e3d6000fd5b505050506040513d601f19601f82011682018060405250810190610a2391906115cc565b506000600260008473ffffffffffffffffffffffffffffffffffffffff1673ffffffffffffffffffffffffffffffffffffffff168152602001908152602001600020600201819055506000600260008473ffffffffffffffffffffffffffffffffffffffff1673ffffffffffffffffffffffffffffffffffffffff16815260200190815260200160002060000181905550610abd826110df565b5b610c4f565b610acd82826113e3565b80600260008473ffffffffffffffffffffffffffffffffffffffff1673ffffffffffffffffffffffffffffffffffffffff16815260200190815260200160002060010181905550600160009054906101000a900473ffffffffffffffffffffffffffffffffffffffff1673ffffffffffffffffffffffffffffffffffffffff1663a9059cbb83600260008673ffffffffffffffffffffffffffffffffffffffff1673ffffffffffffffffffffffffffffffffffffffff168152602001908152602001600020600201546040518363ffffffff1660e01b8152600401610bb3929190611729565b602060405180830381600087803b158015610bcd57600080fd5b505af1158015610be1573d6000803e3d6000fd5b505050506040513d601f19601f82011682018060405250810190610c0591906115cc565b506000600260008473ffffffffffffffffffffffffffffffffffffffff1673ffffffffffffffffffffffffffffffffffffffff168152602001908152602001600020600201819055505b50508080610c5c906119d1565b915050610822565b50565b600160009054906101000a900473ffffffffffffffffffffffffffffffffffffffff1673ffffffffffffffffffffffffffffffffffffffff166323b872dd3330846040518463ffffffff1660e01b8152600401610cc6939291906116f2565b602060405180830381600087803b158015610ce057600080fd5b505af1158015610cf4573d6000803e3d6000fd5b505050506040513d601f19601f82011682018060405250810190610d1891906115cc565b5060004290506000600260003373ffffffffffffffffffffffffffffffffffffffff1673ffffffffffffffffffffffffffffffffffffffff1681526020019081526020016000206001015414610d7757610d7233826113e3565b610e6d565b6000600360003373ffffffffffffffffffffffffffffffffffffffff1673ffffffffffffffffffffffffffffffffffffffff168152602001908152602001600020541415610e6c576004339080600181540180825580915050600190039060005260206000200160009091909190916101000a81548173ffffffffffffffffffffffffffffffffffffffff021916908373ffffffffffffffffffffffffffffffffffffffff160217905550600480549050600360003373ffffffffffffffffffffffffffffffffffffffff1673ffffffffffffffffffffffffffffffffffffffff168152602001908152602001600020819055505b5b80600260003373ffffffffffffffffffffffffffffffffffffffff1673ffffffffffffffffffffffffffffffffffffffff1681526020019081526020016000206001018190555081600260003373ffffffffffffffffffffffffffffffffffffffff1673ffffffffffffffffffffffffffffffffffffffff1681526020019081526020016000206000016000828254610f069190611850565b925050819055505050565b60036020528060005260406000206000915090505481565b610f316110d7565b73ffffffffffffffffffffffffffffffffffffffff16610f4f61077a565b73ffffffffffffffffffffffffffffffffffffffff1614610fa5576040517f08c379a0000000000000000000000000000000000000000000000000000000008152600401610f9c9061178d565b60405180910390fd5b8060058190555050565b60055481565b60026020528060005260406000206000915090508060000154908060010154908060020154905083565b610fe76110d7565b73ffffffffffffffffffffffffffffffffffffffff1661100561077a565b73ffffffffffffffffffffffffffffffffffffffff161461105b576040517f08c379a00000000000000000000000000000000000000000000000000000000081526004016110529061178d565b60405180910390fd5b600073ffffffffffffffffffffffffffffffffffffffff168173ffffffffffffffffffffffffffffffffffffffff1614156110cb576040517f08c379a00000000000000000000000000000000000000000000000000000000081526004016110c29061176d565b60405180910390fd5b6110d48161131f565b50565b600033905090565b6000600360008373ffffffffffffffffffffffffffffffffffffffff1673ffffffffffffffffffffffffffffffffffffffff168152602001908152602001600020541461131c576004600160048054905061113a9190611931565b81548110611171577f4e487b7100000000000000000000000000000000000000000000000000000000600052603260045260246000fd5b9060005260206000200160009054906101000a900473ffffffffffffffffffffffffffffffffffffffff1660046001600360008573ffffffffffffffffffffffffffffffffffffffff1673ffffffffffffffffffffffffffffffffffffffff168152602001908152602001600020546111ea9190611931565b81548110611221577f4e487b7100000000000000000000000000000000000000000000000000000000600052603260045260246000fd5b9060005260206000200160006101000a81548173ffffffffffffffffffffffffffffffffffffffff021916908373ffffffffffffffffffffffffffffffffffffffff16021790555060048054806112a1577f4e487b7100000000000000000000000000000000000000000000000000000000600052603160045260246000fd5b6001900381819060005260206000200160006101000a81549073ffffffffffffffffffffffffffffffffffffffff021916905590556000600360008373ffffffffffffffffffffffffffffffffffffffff1673ffffffffffffffffffffffffffffffffffffffff168152602001908152602001600020819055505b50565b60008060009054906101000a900473ffffffffffffffffffffffffffffffffffffffff169050816000806101000a81548173ffffffffffffffffffffffffffffffffffffffff021916908373ffffffffffffffffffffffffffffffffffffffff1602179055508173ffffffffffffffffffffffffffffffffffffffff168173ffffffffffffffffffffffffffffffffffffffff167f8be0079c531659141344cd1fd0a4f28419497f9722a3daafe3b4186f6b6457e060405160405180910390a35050565b6000600654600260008573ffffffffffffffffffffffffffffffffffffffff1673ffffffffffffffffffffffffffffffffffffffff16815260200190815260200160002060010154836114369190611931565b61144091906118a6565b1461156057612710600260008473ffffffffffffffffffffffffffffffffffffffff1673ffffffffffffffffffffffffffffffffffffffff16815260200190815260200160002060000154600554600654600260008773ffffffffffffffffffffffffffffffffffffffff1673ffffffffffffffffffffffffffffffffffffffff16815260200190815260200160002060010154856114df9190611931565b6114e991906118a6565b6114f391906118d7565b6114fd91906118d7565b61150791906118a6565b600260008473ffffffffffffffffffffffffffffffffffffffff1673ffffffffffffffffffffffffffffffffffffffff16815260200190815260200160002060020160008282546115589190611850565b925050819055505b5050565b60008135905061157381611b42565b92915050565b60008151905061158881611b59565b92915050565b60008135905061159d81611b70565b92915050565b6000602082840312156115b557600080fd5b60006115c384828501611564565b91505092915050565b6000602082840312156115de57600080fd5b60006115ec84828501611579565b91505092915050565b60006020828403121561160757600080fd5b60006116158482850161158e565b91505092915050565b61162781611965565b82525050565b611636816119ad565b82525050565b600061164960268361183f565b915061165482611a78565b604082019050919050565b600061166c60208361183f565b915061167782611ac7565b602082019050919050565b600061168f60018361183f565b915061169a82611af0565b602082019050919050565b60006116b260018361183f565b91506116bd82611b19565b602082019050919050565b6116d1816119a3565b82525050565b60006020820190506116ec600083018461161e565b92915050565b6000606082019050611707600083018661161e565b611714602083018561161e565b61172160408301846116c8565b949350505050565b600060408201905061173e600083018561161e565b61174b60208301846116c8565b9392505050565b6000602082019050611767600083018461162d565b92915050565b600060208201905081810360008301526117868161163c565b9050919050565b600060208201905081810360008301526117a68161165f565b9050919050565b600060208201905081810360008301526117c681611682565b9050919050565b600060208201905081810360008301526117e6816116a5565b9050919050565b600060208201905061180260008301846116c8565b92915050565b600060608201905061181d60008301866116c8565b61182a60208301856116c8565b61183760408301846116c8565b949350505050565b600082825260208201905092915050565b600061185b826119a3565b9150611866836119a3565b9250827fffffffffffffffffffffffffffffffffffffffffffffffffffffffffffffffff0382111561189b5761189a611a1a565b5b828201905092915050565b60006118b1826119a3565b91506118bc836119a3565b9250826118cc576118cb611a49565b5b828204905092915050565b60006118e2826119a3565b91506118ed836119a3565b9250817fffffffffffffffffffffffffffffffffffffffffffffffffffffffffffffffff048311821515161561192657611925611a1a565b5b828202905092915050565b600061193c826119a3565b9150611947836119a3565b92508282101561195a57611959611a1a565b5b828203905092915050565b600061197082611983565b9050919050565b60008115159050919050565b600073ffffffffffffffffffffffffffffffffffffffff82169050919050565b6000819050919050565b60006119b8826119bf565b9050919050565b60006119ca82611983565b9050919050565b60006119dc826119a3565b91507fffffffffffffffffffffffffffffffffffffffffffffffffffffffffffffffff821415611a0f57611a0e611a1a565b5b600182019050919050565b7f4e487b7100000000000000000000000000000000000000000000000000000000600052601160045260246000fd5b7f4e487b7100000000000000000000000000000000000000000000000000000000600052601260045260246000fd5b7f4f776e61626c653a206e6577206f776e657220697320746865207a65726f206160008201527f6464726573730000000000000000000000000000000000000000000000000000602082015250565b7f4f776e61626c653a2063616c6c6572206973206e6f7420746865206f776e6572600082015250565b7f3200000000000000000000000000000000000000000000000000000000000000600082015250565b7f3100000000000000000000000000000000000000000000000000000000000000600082015250565b611b4b81611965565b8114611b5657600080fd5b50565b611b6281611977565b8114611b6d57600080fd5b50565b611b79816119a3565b8114611b8457600080fd5b5056fea26469706673582212208027086ead0340a2e22a9468a3fd6786594732217ab46bcf1ebed7518c3624da64736f6c63430008040033",
  "linkReferences": {},
  "deployedLinkReferences": {}
}