{
  "_format": "hh-sol-artifact-1",
  "contractName": "TokenFarm",
  "sourceName": "contracts/TokenFarm.sol",
  "abi": [
    {
      "inputs": [],
      "stateMutability": "nonpayable",
      "type": "constructor"
    },
    {
      "anonymous": false,
      "inputs": [
        {
          "indexed": false,
          "internalType": "address",
          "name": "_user",
          "type": "address"
        },
        {
          "indexed": false,
          "internalType": "string",
          "name": "pool",
          "type": "string"
        },
        {
          "indexed": false,
          "internalType": "uint256",
          "name": "time",
          "type": "uint256"
        },
        {
          "indexed": false,
          "internalType": "uint256",
          "name": "amount",
          "type": "uint256"
        },
        {
          "indexed": false,
          "internalType": "uint256",
          "name": "platformValue",
          "type": "uint256"
        }
      ],
      "name": "IssueToken",
      "type": "event"
    },
    {
      "anonymous": false,
      "inputs": [
        {
          "indexed": true,
          "internalType": "address",
          "name": "previousOwner",
          "type": "address"
        },
        {
          "indexed": true,
          "internalType": "address",
          "name": "newOwner",
          "type": "address"
        }
      ],
      "name": "OwnershipTransferred",
      "type": "event"
    },
    {
      "anonymous": false,
      "inputs": [
        {
          "indexed": false,
          "internalType": "address",
          "name": "_user",
          "type": "address"
        },
        {
          "indexed": false,
          "internalType": "uint256",
          "name": "time",
          "type": "uint256"
        },
        {
          "indexed": false,
          "internalType": "uint256",
          "name": "amount",
          "type": "uint256"
        },
        {
          "indexed": false,
          "internalType": "string",
          "name": "pool",
          "type": "string"
        }
      ],
      "name": "Stake",
      "type": "event"
    },
    {
      "anonymous": false,
      "inputs": [
        {
          "indexed": false,
          "internalType": "address",
          "name": "_user",
          "type": "address"
        },
        {
          "indexed": false,
          "internalType": "uint256",
          "name": "time",
          "type": "uint256"
        },
        {
          "indexed": false,
          "internalType": "string",
          "name": "pool",
          "type": "string"
        },
        {
          "indexed": false,
          "internalType": "uint256",
          "name": "unstakeAmount",
          "type": "uint256"
        }
      ],
      "name": "Unstake",
      "type": "event"
    },
    {
      "anonymous": false,
      "inputs": [
        {
          "indexed": false,
          "internalType": "address payable",
          "name": "platformFeeRecipient",
          "type": "address"
        }
      ],
      "name": "UpdatePlatformFeeRecipient",
      "type": "event"
    },
    {
      "anonymous": false,
      "inputs": [
        {
          "indexed": false,
          "internalType": "string",
          "name": "id",
          "type": "string"
        },
        {
          "indexed": false,
          "internalType": "uint256",
          "name": "_r",
          "type": "uint256"
        },
        {
          "indexed": false,
          "internalType": "uint256",
          "name": "_f",
          "type": "uint256"
        },
        {
          "indexed": false,
          "internalType": "uint256",
          "name": "_y",
          "type": "uint256"
        },
        {
          "indexed": false,
          "internalType": "uint256",
          "name": "base",
          "type": "uint256"
        }
      ],
      "name": "UpdatePoolConfigs",
      "type": "event"
    },
    {
      "anonymous": false,
      "inputs": [
        {
          "indexed": false,
          "internalType": "address",
          "name": "_user",
          "type": "address"
        },
        {
          "indexed": false,
          "internalType": "uint256",
          "name": "time",
          "type": "uint256"
        },
        {
          "indexed": false,
          "internalType": "string",
          "name": "id",
          "type": "string"
        },
        {
          "indexed": false,
          "internalType": "uint256",
          "name": "actualAmount",
          "type": "uint256"
        }
      ],
      "name": "UpdateUnclaimAmount",
      "type": "event"
    },
    {
      "inputs": [],
      "name": "froyToken",
      "outputs": [
        {
          "internalType": "contract IERC20",
          "name": "",
          "type": "address"
        }
      ],
      "stateMutability": "view",
      "type": "function"
    },
    {
      "inputs": [
        {
          "internalType": "string",
          "name": "pool",
          "type": "string"
        }
      ],
      "name": "getListStack",
      "outputs": [
        {
          "internalType": "uint256",
          "name": "",
          "type": "uint256"
        },
        {
          "internalType": "uint256",
          "name": "",
          "type": "uint256"
        },
        {
          "internalType": "uint256",
          "name": "",
          "type": "uint256"
        }
      ],
      "stateMutability": "view",
      "type": "function"
    },
    {
      "inputs": [
        {
          "components": [
            {
              "internalType": "address",
              "name": "to",
              "type": "address"
            },
            {
              "internalType": "string",
              "name": "id",
              "type": "string"
            }
          ],
          "internalType": "struct TokenFarm.ClaimInfo[]",
          "name": "claims",
          "type": "tuple[]"
        }
      ],
      "name": "issueToken",
      "outputs": [],
      "stateMutability": "nonpayable",
      "type": "function"
    },
    {
      "inputs": [],
      "name": "owner",
      "outputs": [
        {
          "internalType": "address",
          "name": "",
          "type": "address"
        }
      ],
      "stateMutability": "view",
      "type": "function"
    },
    {
      "inputs": [],
      "name": "platformFeeRecipient",
      "outputs": [
        {
          "internalType": "address payable",
          "name": "",
          "type": "address"
        }
      ],
      "stateMutability": "view",
      "type": "function"
    },
    {
      "inputs": [
        {
          "internalType": "string",
          "name": "",
          "type": "string"
        }
      ],
      "name": "pools",
      "outputs": [
        {
          "internalType": "uint256",
          "name": "r",
          "type": "uint256"
        },
        {
          "internalType": "uint256",
          "name": "f",
          "type": "uint256"
        },
        {
          "internalType": "uint256",
          "name": "y",
          "type": "uint256"
        },
        {
          "internalType": "uint256",
          "name": "base",
          "type": "uint256"
        }
      ],
      "stateMutability": "view",
      "type": "function"
    },
    {
      "inputs": [],
      "name": "renounceOwnership",
      "outputs": [],
      "stateMutability": "nonpayable",
      "type": "function"
    },
    {
      "inputs": [
        {
          "internalType": "string",
          "name": "id",
          "type": "string"
        },
        {
          "internalType": "uint256",
          "name": "_amount",
          "type": "uint256"
        }
      ],
      "name": "stake",
      "outputs": [],
      "stateMutability": "payable",
      "type": "function"
    },
    {
      "inputs": [
        {
          "internalType": "string",
          "name": "",
          "type": "string"
        },
        {
          "internalType": "address",
          "name": "",
          "type": "address"
        }
      ],
      "name": "stakes",
      "outputs": [
        {
          "internalType": "uint256",
          "name": "amount",
          "type": "uint256"
        },
        {
          "internalType": "uint256",
          "name": "stakeTime",
          "type": "uint256"
        },
        {
          "internalType": "uint256",
          "name": "unclaimAmount",
          "type": "uint256"
        }
      ],
      "stateMutability": "view",
      "type": "function"
    },
    {
      "inputs": [
        {
          "internalType": "address",
          "name": "newOwner",
          "type": "address"
        }
      ],
      "name": "transferOwnership",
      "outputs": [],
      "stateMutability": "nonpayable",
      "type": "function"
    },
    {
      "inputs": [
        {
          "internalType": "string",
          "name": "pool",
          "type": "string"
        },
        {
          "internalType": "uint256",
          "name": "unstakeAmount",
          "type": "uint256"
        }
      ],
      "name": "unstake",
      "outputs": [],
      "stateMutability": "nonpayable",
      "type": "function"
    },
    {
      "inputs": [
        {
          "internalType": "address payable",
          "name": "_platformFeeRecipient",
          "type": "address"
        }
      ],
      "name": "updatePlatformFeeRecipient",
      "outputs": [],
      "stateMutability": "nonpayable",
      "type": "function"
    },
    {
      "inputs": [
        {
          "internalType": "string",
          "name": "id",
          "type": "string"
        },
        {
          "internalType": "uint256",
          "name": "_r",
          "type": "uint256"
        },
        {
          "internalType": "uint256",
          "name": "_f",
          "type": "uint256"
        },
        {
          "internalType": "uint256",
          "name": "_y",
          "type": "uint256"
        }
      ],
      "name": "updatePoolConfigs",
      "outputs": [],
      "stateMutability": "nonpayable",
      "type": "function"
    }
  ],
  "bytecode": "0x608060405260028055600560035561016d600455620d2f006005556040518060400160405280600e81526020017f64656369626c696e675f706f6f6c0000000000000000000000000000000000008152506006908051906020019062000067929190620003db565b503480156200007557600080fd5b50620000966200008a6200030f60201b60201c565b6200031760201b60201c565b73d9145cce52d386f254917e481eb44e9943f39138600160006101000a81548173ffffffffffffffffffffffffffffffffffffffff021916908373ffffffffffffffffffffffffffffffffffffffff16021790555033600760006101000a81548173ffffffffffffffffffffffffffffffffffffffff021916908373ffffffffffffffffffffffffffffffffffffffff1602179055506000600680546200013d9062000691565b80601f01602080910402602001604051908101604052809291908181526020018280546200016b9062000691565b8015620001bc5780601f106200019057610100808354040283529160200191620001bc565b820191906000526020600020905b8154815290600101906020018083116200019e57829003601f168201915b50505050509050600254600982604051620001d8919062000514565b90815260200160405180910390206000018190555060035460098260405162000202919062000514565b9081526020016040518091039020600101819055506004546009826040516200022c919062000514565b908152602001604051809103902060020181905550600454600554620002539190620005f0565b600254670de0b6b3a76400006200026b9190620005f0565b620002779190620005b8565b60098260405162000289919062000514565b9081526020016040518091039020600301819055507f9f4b2dcbf634f7dfe4a258f07ce172ef64616b23db7b23726bd157b0a1a43a1781600254600354600454600986604051620002db919062000514565b908152602001604051809103902060030154604051620003009594939291906200052d565b60405180910390a15062000765565b600033905090565b60008060009054906101000a900473ffffffffffffffffffffffffffffffffffffffff169050816000806101000a81548173ffffffffffffffffffffffffffffffffffffffff021916908373ffffffffffffffffffffffffffffffffffffffff1602179055508173ffffffffffffffffffffffffffffffffffffffff168173ffffffffffffffffffffffffffffffffffffffff167f8be0079c531659141344cd1fd0a4f28419497f9722a3daafe3b4186f6b6457e060405160405180910390a35050565b828054620003e99062000691565b90600052602060002090601f0160209004810192826200040d576000855562000459565b82601f106200042857805160ff191683800117855562000459565b8280016001018555821562000459579182015b82811115620004585782518255916020019190600101906200043b565b5b5090506200046891906200046c565b5090565b5b80821115620004875760008160009055506001016200046d565b5090565b6000620004988262000591565b620004a481856200059c565b9350620004b68185602086016200065b565b620004c18162000754565b840191505092915050565b6000620004d98262000591565b620004e58185620005ad565b9350620004f78185602086016200065b565b80840191505092915050565b6200050e8162000651565b82525050565b6000620005228284620004cc565b915081905092915050565b600060a08201905081810360008301526200054981886200048b565b90506200055a602083018762000503565b62000569604083018662000503565b62000578606083018562000503565b62000587608083018462000503565b9695505050505050565b600081519050919050565b600082825260208201905092915050565b600081905092915050565b6000620005c58262000651565b9150620005d28362000651565b925082620005e557620005e4620006f6565b5b828204905092915050565b6000620005fd8262000651565b91506200060a8362000651565b9250817fffffffffffffffffffffffffffffffffffffffffffffffffffffffffffffffff0483118215151615620006465762000645620006c7565b5b828202905092915050565b6000819050919050565b60005b838110156200067b5780820151818401526020810190506200065e565b838111156200068b576000848401525b50505050565b60006002820490506001821680620006aa57607f821691505b60208210811415620006c157620006c062000725565b5b50919050565b7f4e487b7100000000000000000000000000000000000000000000000000000000600052601160045260246000fd5b7f4e487b7100000000000000000000000000000000000000000000000000000000600052601260045260246000fd5b7f4e487b7100000000000000000000000000000000000000000000000000000000600052602260045260246000fd5b6000601f19601f8301169050919050565b61245e80620007756000396000f3fe6080604052600436106100c25760003560e01c80639d6f17a81161007f578063e5bb3a5011610059578063e5bb3a501461024a578063eb13554f14610289578063f2fde38b146102b4578063f5fe7f71146102dd576100c2565b80639d6f17a8146101b8578063d37c92dc146101f8578063d5bc8e0b14610221576100c2565b80634dfc07a1146100c7578063715018a614610106578063835eca401461011d5780638da5cb5b146101465780639283f094146101715780639494c8ae1461019c575b600080fd5b3480156100d357600080fd5b506100ee60048036038101906100e99190611831565b610306565b6040516100fd93929190611e19565b60405180910390f35b34801561011257600080fd5b5061011b6103af565b005b34801561012957600080fd5b50610144600480360381019061013f919061191a565b6103c3565b005b34801561015257600080fd5b5061015b6104f5565b6040516101689190611b33565b60405180910390f35b34801561017d57600080fd5b5061018661051e565b6040516101939190611ce4565b60405180910390f35b6101b660048036038101906101b191906118c6565b610544565b005b3480156101c457600080fd5b506101df60048036038101906101da9190611831565b61078e565b6040516101ef9493929190611e50565b60405180910390f35b34801561020457600080fd5b5061021f600480360381019061021a91906118c6565b6107d4565b005b34801561022d57600080fd5b50610248600480360381019061024391906117c3565b610b60565b005b34801561025657600080fd5b50610271600480360381019061026c9190611872565b6110cb565b60405161028093929190611e19565b60405180910390f35b34801561029557600080fd5b5061029e611118565b6040516102ab9190611b4e565b60405180910390f35b3480156102c057600080fd5b506102db60048036038101906102d69190611771565b61113e565b005b3480156102e957600080fd5b5061030460048036038101906102ff919061179a565b6111c2565b005b60008060008060088560405161031c9190611b1c565b908152602001604051809103902060003373ffffffffffffffffffffffffffffffffffffffff1673ffffffffffffffffffffffffffffffffffffffff16815260200190815260200160002060405180606001604052908160008201548152602001600182015481526020016002820154815250509050806000015181602001518260400151935093509350509193909250565b6103b76112b5565b6103c16000611333565b565b6103cb6112b5565b826009856040516103dc9190611b1c565b908152602001604051809103902060000181905550816009856040516104029190611b1c565b908152602001604051809103902060010181905550806009856040516104289190611b1c565b90815260200160405180910390206002018190555080620d2f0061044c9190612014565b83670de0b6b3a76400006104609190612014565b61046a9190611fe3565b60098560405161047a9190611b1c565b9081526020016040518091039020600301819055507f9f4b2dcbf634f7dfe4a258f07ce172ef64616b23db7b23726bd157b0a1a43a17848484846009896040516104c49190611b1c565b9081526020016040518091039020600301546040516104e7959493929190611cff565b60405180910390a150505050565b60008060009054906101000a900473ffffffffffffffffffffffffffffffffffffffff16905090565b600160009054906101000a900473ffffffffffffffffffffffffffffffffffffffff1681565b600160009054906101000a900473ffffffffffffffffffffffffffffffffffffffff1673ffffffffffffffffffffffffffffffffffffffff166323b872dd3330846040518463ffffffff1660e01b81526004016105a393929190611b92565b602060405180830381600087803b1580156105bd57600080fd5b505af11580156105d1573d6000803e3d6000fd5b505050506040513d601f19601f820116820180604052508101906105f59190611808565b5060006106006113f7565b905060006008846040516106149190611b1c565b908152602001604051809103902060003373ffffffffffffffffffffffffffffffffffffffff1673ffffffffffffffffffffffffffffffffffffffff1681526020019081526020016000206001015414610674576106733382856113ff565b5b806008846040516106859190611b1c565b908152602001604051809103902060003373ffffffffffffffffffffffffffffffffffffffff1673ffffffffffffffffffffffffffffffffffffffff16815260200190815260200160002060010181905550816008846040516106e89190611b1c565b908152602001604051809103902060003373ffffffffffffffffffffffffffffffffffffffff1673ffffffffffffffffffffffffffffffffffffffff16815260200190815260200160002060000160008282546107459190611f8d565b925050819055507f2308d14ad2fe14dd80f24580b205a6008f905d88b0bf9b72b21b23b8480c70e7338284866040516107819493929190611c98565b60405180910390a1505050565b6009818051602081018201805184825260208301602085012081835280955050505050506000915090508060000154908060010154908060020154908060030154905084565b600033905060006008846040516107eb9190611b1c565b908152602001604051809103902060008373ffffffffffffffffffffffffffffffffffffffff1673ffffffffffffffffffffffffffffffffffffffff16815260200190815260200160002060000154141561087b576040517f08c379a000000000000000000000000000000000000000000000000000000000815260040161087290611dd9565b60405180910390fd5b60088360405161088b9190611b1c565b908152602001604051809103902060008273ffffffffffffffffffffffffffffffffffffffff1673ffffffffffffffffffffffffffffffffffffffff16815260200190815260200160002060000154821115806108e85750600082145b610927576040517f08c379a000000000000000000000000000000000000000000000000000000000815260040161091e90611d99565b60405180910390fd5b60006109316113f7565b905061093e8282866113ff565b8260088560405161094f9190611b1c565b908152602001604051809103902060008473ffffffffffffffffffffffffffffffffffffffff1673ffffffffffffffffffffffffffffffffffffffff168152602001908152602001600020600001546109a8919061206e565b6008856040516109b89190611b1c565b908152602001604051809103902060008473ffffffffffffffffffffffffffffffffffffffff1673ffffffffffffffffffffffffffffffffffffffff1681526020019081526020016000206000018190555080600885604051610a1b9190611b1c565b908152602001604051809103902060008473ffffffffffffffffffffffffffffffffffffffff1673ffffffffffffffffffffffffffffffffffffffff16815260200190815260200160002060010181905550600160009054906101000a900473ffffffffffffffffffffffffffffffffffffffff1673ffffffffffffffffffffffffffffffffffffffff1663a9059cbb83856040518363ffffffff1660e01b8152600401610aca929190611c23565b602060405180830381600087803b158015610ae457600080fd5b505af1158015610af8573d6000803e3d6000fd5b505050506040513d601f19601f82011682018060405250810190610b1c9190611808565b507f8fbf0edce1bd66cf87d7a725f95fc2ec31be980e61d805b8d306ce5a64ea98dd82828686604051610b529493929190611c4c565b60405180910390a150505050565b610b686112b5565b60008282905011610bae576040517f08c379a0000000000000000000000000000000000000000000000000000000008152600401610ba590611d59565b60405180910390fd5b6000610bb86113f7565b905060005b838390508110156110c5576000848483818110610c03577f4e487b7100000000000000000000000000000000000000000000000000000000600052603260045260246000fd5b9050602002810190610c159190611eec565b6000016020810190610c279190611771565b90506000858584818110610c64577f4e487b7100000000000000000000000000000000000000000000000000000000600052603260045260246000fd5b9050602002810190610c769190611eec565b8060200190610c859190611e95565b8080601f016020809104026020016040519081016040528093929190818152602001838380828437600081840152601f19601f820116905080830192505050505050509050610cd58285836113ff565b6000600882604051610ce79190611b1c565b908152602001604051809103902060008473ffffffffffffffffffffffffffffffffffffffff1673ffffffffffffffffffffffffffffffffffffffff1681526020019081526020016000206002015411610d425750506110b2565b6000600882604051610d549190611b1c565b908152602001604051809103902060008473ffffffffffffffffffffffffffffffffffffffff1673ffffffffffffffffffffffffffffffffffffffff168152602001908152602001600020600201549050600080600984604051610db89190611b1c565b9081526020016040518091039020600101541115610e1b576103e8600984604051610de39190611b1c565b90815260200160405180910390206001015483610e009190612014565b610e0a9190611fe3565b90508082610e18919061206e565b91505b6000600884604051610e2d9190611b1c565b908152602001604051809103902060008673ffffffffffffffffffffffffffffffffffffffff1673ffffffffffffffffffffffffffffffffffffffff1681526020019081526020016000206002018190555085600884604051610e909190611b1c565b908152602001604051809103902060008673ffffffffffffffffffffffffffffffffffffffff1673ffffffffffffffffffffffffffffffffffffffff16815260200190815260200160002060010181905550600160009054906101000a900473ffffffffffffffffffffffffffffffffffffffff1673ffffffffffffffffffffffffffffffffffffffff1663a9059cbb85846040518363ffffffff1660e01b8152600401610f3f929190611c23565b602060405180830381600087803b158015610f5957600080fd5b505af1158015610f6d573d6000803e3d6000fd5b505050506040513d601f19601f82011682018060405250810190610f919190611808565b50600081111561106e57600160009054906101000a900473ffffffffffffffffffffffffffffffffffffffff1673ffffffffffffffffffffffffffffffffffffffff1663a9059cbb600760009054906101000a900473ffffffffffffffffffffffffffffffffffffffff16836040518363ffffffff1660e01b815260040161101a929190611b69565b602060405180830381600087803b15801561103457600080fd5b505af1158015611048573d6000803e3d6000fd5b505050506040513d601f19601f8201168201806040525081019061106c9190611808565b505b7f75b2a4b9f21b983d21a3604c0f0b94cd702f8b3530e44b35d51c4dc55c078e1084848885856040516110a5959493929190611bc9565b60405180910390a1505050505b80806110bd906121c9565b915050610bbd565b50505050565b600882805160208101820180518482526020830160208501208183528095505050505050602052806000526040600020600091509150508060000154908060010154908060020154905083565b600760009054906101000a900473ffffffffffffffffffffffffffffffffffffffff1681565b6111466112b5565b600073ffffffffffffffffffffffffffffffffffffffff168173ffffffffffffffffffffffffffffffffffffffff1614156111b6576040517f08c379a00000000000000000000000000000000000000000000000000000000081526004016111ad90611d79565b60405180910390fd5b6111bf81611333565b50565b6111ca6112b5565b600073ffffffffffffffffffffffffffffffffffffffff168173ffffffffffffffffffffffffffffffffffffffff16141561123a576040517f08c379a000000000000000000000000000000000000000000000000000000000815260040161123190611df9565b60405180910390fd5b80600760006101000a81548173ffffffffffffffffffffffffffffffffffffffff021916908373ffffffffffffffffffffffffffffffffffffffff1602179055507fe57e7c1f36cc83fade34e32351e6eee7eb9da532662b1b5da10c631e8222aca7816040516112aa9190611b4e565b60405180910390a150565b6112bd611663565b73ffffffffffffffffffffffffffffffffffffffff166112db6104f5565b73ffffffffffffffffffffffffffffffffffffffff1614611331576040517f08c379a000000000000000000000000000000000000000000000000000000000815260040161132890611db9565b60405180910390fd5b565b60008060009054906101000a900473ffffffffffffffffffffffffffffffffffffffff169050816000806101000a81548173ffffffffffffffffffffffffffffffffffffffff021916908373ffffffffffffffffffffffffffffffffffffffff1602179055508173ffffffffffffffffffffffffffffffffffffffff168173ffffffffffffffffffffffffffffffffffffffff167f8be0079c531659141344cd1fd0a4f28419497f9722a3daafe3b4186f6b6457e060405160405180910390a35050565b600042905090565b60006008826040516114119190611b1c565b908152602001604051809103902060008573ffffffffffffffffffffffffffffffffffffffff1673ffffffffffffffffffffffffffffffffffffffff168152602001908152602001600020600101548361146b919061206e565b9050600064017a029afc905060006009846040516114899190611b1c565b908152602001604051809103902060030154106114c5576009836040516114b09190611b1c565b90815260200160405180910390206003015490505b670de0b6b3a76400006008846040516114de9190611b1c565b908152602001604051809103902060008773ffffffffffffffffffffffffffffffffffffffff1673ffffffffffffffffffffffffffffffffffffffff1681526020019081526020016000206000015483836115399190612014565b6115439190612014565b61154d9190611fe3565b60088460405161155d9190611b1c565b908152602001604051809103902060008773ffffffffffffffffffffffffffffffffffffffff1673ffffffffffffffffffffffffffffffffffffffff16815260200190815260200160002060020160008282546115ba9190611f8d565b925050819055507f104ad64895f6ea3e87bdc469d3d354717a78531cd0a8d33e0b835bf067b7a6408585856008876040516115f59190611b1c565b908152602001604051809103902060008a73ffffffffffffffffffffffffffffffffffffffff1673ffffffffffffffffffffffffffffffffffffffff168152602001908152602001600020600201546040516116549493929190611c4c565b60405180910390a15050505050565b600033905090565b600061167e61167984611f35565b611f10565b90508281526020810184848401111561169657600080fd5b6116a1848285612156565b509392505050565b6000813590506116b8816123cc565b92915050565b6000813590506116cd816123e3565b92915050565b60008083601f8401126116e557600080fd5b8235905067ffffffffffffffff8111156116fe57600080fd5b60208301915083602082028301111561171657600080fd5b9250929050565b60008151905061172c816123fa565b92915050565b600082601f83011261174357600080fd5b813561175384826020860161166b565b91505092915050565b60008135905061176b81612411565b92915050565b60006020828403121561178357600080fd5b6000611791848285016116a9565b91505092915050565b6000602082840312156117ac57600080fd5b60006117ba848285016116be565b91505092915050565b600080602083850312156117d657600080fd5b600083013567ffffffffffffffff8111156117f057600080fd5b6117fc858286016116d3565b92509250509250929050565b60006020828403121561181a57600080fd5b60006118288482850161171d565b91505092915050565b60006020828403121561184357600080fd5b600082013567ffffffffffffffff81111561185d57600080fd5b61186984828501611732565b91505092915050565b6000806040838503121561188557600080fd5b600083013567ffffffffffffffff81111561189f57600080fd5b6118ab85828601611732565b92505060206118bc858286016116a9565b9150509250929050565b600080604083850312156118d957600080fd5b600083013567ffffffffffffffff8111156118f357600080fd5b6118ff85828601611732565b92505060206119108582860161175c565b9150509250929050565b6000806000806080858703121561193057600080fd5b600085013567ffffffffffffffff81111561194a57600080fd5b61195687828801611732565b94505060206119678782880161175c565b93505060406119788782880161175c565b92505060606119898782880161175c565b91505092959194509250565b61199e816120fc565b82525050565b6119ad816120b4565b82525050565b6119bc816120a2565b82525050565b6119cb8161210e565b82525050565b60006119dc82611f66565b6119e68185611f71565b93506119f6818560208601612165565b6119ff8161229f565b840191505092915050565b6000611a1582611f66565b611a1f8185611f82565b9350611a2f818560208601612165565b80840191505092915050565b6000611a48600283611f71565b9150611a53826122b0565b602082019050919050565b6000611a6b602683611f71565b9150611a76826122d9565b604082019050919050565b6000611a8e600283611f71565b9150611a9982612328565b602082019050919050565b6000611ab1602083611f71565b9150611abc82612351565b602082019050919050565b6000611ad4600183611f71565b9150611adf8261237a565b602082019050919050565b6000611af7600283611f71565b9150611b02826123a3565b602082019050919050565b611b16816120f2565b82525050565b6000611b288284611a0a565b915081905092915050565b6000602082019050611b4860008301846119b3565b92915050565b6000602082019050611b6360008301846119a4565b92915050565b6000604082019050611b7e6000830185611995565b611b8b6020830184611b0d565b9392505050565b6000606082019050611ba760008301866119b3565b611bb460208301856119b3565b611bc16040830184611b0d565b949350505050565b600060a082019050611bde60008301886119b3565b8181036020830152611bf081876119d1565b9050611bff6040830186611b0d565b611c0c6060830185611b0d565b611c196080830184611b0d565b9695505050505050565b6000604082019050611c3860008301856119b3565b611c456020830184611b0d565b9392505050565b6000608082019050611c6160008301876119b3565b611c6e6020830186611b0d565b8181036040830152611c8081856119d1565b9050611c8f6060830184611b0d565b95945050505050565b6000608082019050611cad60008301876119b3565b611cba6020830186611b0d565b611cc76040830185611b0d565b8181036060830152611cd981846119d1565b905095945050505050565b6000602082019050611cf960008301846119c2565b92915050565b600060a0820190508181036000830152611d1981886119d1565b9050611d286020830187611b0d565b611d356040830186611b0d565b611d426060830185611b0d565b611d4f6080830184611b0d565b9695505050505050565b60006020820190508181036000830152611d7281611a3b565b9050919050565b60006020820190508181036000830152611d9281611a5e565b9050919050565b60006020820190508181036000830152611db281611a81565b9050919050565b60006020820190508181036000830152611dd281611aa4565b9050919050565b60006020820190508181036000830152611df281611ac7565b9050919050565b60006020820190508181036000830152611e1281611aea565b9050919050565b6000606082019050611e2e6000830186611b0d565b611e3b6020830185611b0d565b611e486040830184611b0d565b949350505050565b6000608082019050611e656000830187611b0d565b611e726020830186611b0d565b611e7f6040830185611b0d565b611e8c6060830184611b0d565b95945050505050565b60008083356001602003843603038112611eae57600080fd5b80840192508235915067ffffffffffffffff821115611ecc57600080fd5b602083019250600182023603831315611ee457600080fd5b509250929050565b600082356001604003833603038112611f0457600080fd5b80830191505092915050565b6000611f1a611f2b565b9050611f268282612198565b919050565b6000604051905090565b600067ffffffffffffffff821115611f5057611f4f612270565b5b611f598261229f565b9050602081019050919050565b600081519050919050565b600082825260208201905092915050565b600081905092915050565b6000611f98826120f2565b9150611fa3836120f2565b9250827fffffffffffffffffffffffffffffffffffffffffffffffffffffffffffffffff03821115611fd857611fd7612212565b5b828201905092915050565b6000611fee826120f2565b9150611ff9836120f2565b92508261200957612008612241565b5b828204905092915050565b600061201f826120f2565b915061202a836120f2565b9250817fffffffffffffffffffffffffffffffffffffffffffffffffffffffffffffffff048311821515161561206357612062612212565b5b828202905092915050565b6000612079826120f2565b9150612084836120f2565b92508282101561209757612096612212565b5b828203905092915050565b60006120ad826120d2565b9050919050565b60006120bf826120d2565b9050919050565b60008115159050919050565b600073ffffffffffffffffffffffffffffffffffffffff82169050919050565b6000819050919050565b600061210782612132565b9050919050565b600061211982612120565b9050919050565b600061212b826120d2565b9050919050565b600061213d82612144565b9050919050565b600061214f826120d2565b9050919050565b82818337600083830152505050565b60005b83811015612183578082015181840152602081019050612168565b83811115612192576000848401525b50505050565b6121a18261229f565b810181811067ffffffffffffffff821117156121c0576121bf612270565b5b80604052505050565b60006121d4826120f2565b91507fffffffffffffffffffffffffffffffffffffffffffffffffffffffffffffffff82141561220757612206612212565b5b600182019050919050565b7f4e487b7100000000000000000000000000000000000000000000000000000000600052601160045260246000fd5b7f4e487b7100000000000000000000000000000000000000000000000000000000600052601260045260246000fd5b7f4e487b7100000000000000000000000000000000000000000000000000000000600052604160045260246000fd5b6000601f19601f8301169050919050565b7f3233000000000000000000000000000000000000000000000000000000000000600082015250565b7f4f776e61626c653a206e6577206f776e657220697320746865207a65726f206160008201527f6464726573730000000000000000000000000000000000000000000000000000602082015250565b7f3138000000000000000000000000000000000000000000000000000000000000600082015250565b7f4f776e61626c653a2063616c6c6572206973206e6f7420746865206f776e6572600082015250565b7f3100000000000000000000000000000000000000000000000000000000000000600082015250565b7f3231000000000000000000000000000000000000000000000000000000000000600082015250565b6123d5816120a2565b81146123e057600080fd5b50565b6123ec816120b4565b81146123f757600080fd5b50565b612403816120c6565b811461240e57600080fd5b50565b61241a816120f2565b811461242557600080fd5b5056fea2646970667358221220a623d74244a0d131b651fc95edffa0b98f560d61da28c4534cb75c29acc9011264736f6c63430008040033",
  "linkReferences": {},
  "deployedLinkReferences": {}
}