{
  "_format": "hh-sol-artifact-1",
  "contractName": "TokenFarm",
  "sourceName": "contracts/TokenFarm.sol",
  "abi": [
    {
      "inputs": [],
      "stateMutability": "nonpayable",
      "type": "constructor"
    },
    {
      "anonymous": false,
      "inputs": [
        {
          "indexed": false,
          "internalType": "address",
          "name": "_user",
          "type": "address"
        },
        {
          "indexed": false,
          "internalType": "string",
          "name": "pool",
          "type": "string"
        }
      ],
      "name": "ClaimReward",
      "type": "event"
    },
    {
      "anonymous": false,
      "inputs": [
        {
          "indexed": true,
          "internalType": "address",
          "name": "previousOwner",
          "type": "address"
        },
        {
          "indexed": true,
          "internalType": "address",
          "name": "newOwner",
          "type": "address"
        }
      ],
      "name": "OwnershipTransferred",
      "type": "event"
    },
    {
      "anonymous": false,
      "inputs": [
        {
          "indexed": false,
          "internalType": "address",
          "name": "_user",
          "type": "address"
        },
        {
          "indexed": false,
          "internalType": "uint256",
          "name": "amount",
          "type": "uint256"
        },
        {
          "indexed": false,
          "internalType": "string",
          "name": "pool",
          "type": "string"
        }
      ],
      "name": "Stake",
      "type": "event"
    },
    {
      "anonymous": false,
      "inputs": [
        {
          "indexed": false,
          "internalType": "address",
          "name": "_user",
          "type": "address"
        },
        {
          "indexed": false,
          "internalType": "string",
          "name": "pool",
          "type": "string"
        }
      ],
      "name": "Unstake",
      "type": "event"
    },
    {
      "inputs": [],
      "name": "dbToken",
      "outputs": [
        {
          "internalType": "contract IERC20",
          "name": "",
          "type": "address"
        }
      ],
      "stateMutability": "view",
      "type": "function"
    },
    {
      "inputs": [],
      "name": "defaultPerSec",
      "outputs": [
        {
          "internalType": "uint256",
          "name": "",
          "type": "uint256"
        }
      ],
      "stateMutability": "view",
      "type": "function"
    },
    {
      "inputs": [],
      "name": "defaultRewardPer",
      "outputs": [
        {
          "internalType": "uint256",
          "name": "",
          "type": "uint256"
        }
      ],
      "stateMutability": "view",
      "type": "function"
    },
    {
      "inputs": [
        {
          "internalType": "string",
          "name": "pool",
          "type": "string"
        }
      ],
      "name": "getListStack",
      "outputs": [
        {
          "internalType": "uint256",
          "name": "",
          "type": "uint256"
        },
        {
          "internalType": "uint256",
          "name": "",
          "type": "uint256"
        },
        {
          "internalType": "uint256",
          "name": "",
          "type": "uint256"
        }
      ],
      "stateMutability": "view",
      "type": "function"
    },
    {
      "inputs": [
        {
          "internalType": "string",
          "name": "pool",
          "type": "string"
        },
        {
          "internalType": "address",
          "name": "user",
          "type": "address"
        }
      ],
      "name": "issueToken",
      "outputs": [],
      "stateMutability": "nonpayable",
      "type": "function"
    },
    {
      "inputs": [
        {
          "internalType": "string",
          "name": "",
          "type": "string"
        },
        {
          "internalType": "address",
          "name": "",
          "type": "address"
        }
      ],
      "name": "listStake",
      "outputs": [
        {
          "internalType": "uint256",
          "name": "amount",
          "type": "uint256"
        },
        {
          "internalType": "uint256",
          "name": "stakeTime",
          "type": "uint256"
        },
        {
          "internalType": "uint256",
          "name": "unClaimAmount",
          "type": "uint256"
        }
      ],
      "stateMutability": "view",
      "type": "function"
    },
    {
      "inputs": [],
      "name": "owner",
      "outputs": [
        {
          "internalType": "address",
          "name": "",
          "type": "address"
        }
      ],
      "stateMutability": "view",
      "type": "function"
    },
    {
      "inputs": [
        {
          "internalType": "string",
          "name": "",
          "type": "string"
        }
      ],
      "name": "perSeconds",
      "outputs": [
        {
          "internalType": "uint256",
          "name": "",
          "type": "uint256"
        }
      ],
      "stateMutability": "view",
      "type": "function"
    },
    {
      "inputs": [],
      "name": "renounceOwnership",
      "outputs": [],
      "stateMutability": "nonpayable",
      "type": "function"
    },
    {
      "inputs": [
        {
          "internalType": "string",
          "name": "",
          "type": "string"
        }
      ],
      "name": "rewardPercent",
      "outputs": [
        {
          "internalType": "uint256",
          "name": "",
          "type": "uint256"
        }
      ],
      "stateMutability": "view",
      "type": "function"
    },
    {
      "inputs": [
        {
          "internalType": "uint256",
          "name": "sec",
          "type": "uint256"
        }
      ],
      "name": "setDefaultPerSecondsReward",
      "outputs": [],
      "stateMutability": "nonpayable",
      "type": "function"
    },
    {
      "inputs": [
        {
          "internalType": "uint256",
          "name": "percent",
          "type": "uint256"
        }
      ],
      "name": "setDefaultRewardPercent",
      "outputs": [],
      "stateMutability": "nonpayable",
      "type": "function"
    },
    {
      "inputs": [
        {
          "internalType": "uint256",
          "name": "sec",
          "type": "uint256"
        },
        {
          "internalType": "string",
          "name": "pool",
          "type": "string"
        }
      ],
      "name": "setPerSecondsReward",
      "outputs": [],
      "stateMutability": "nonpayable",
      "type": "function"
    },
    {
      "inputs": [
        {
          "internalType": "uint256",
          "name": "percent",
          "type": "uint256"
        },
        {
          "internalType": "string",
          "name": "pool",
          "type": "string"
        }
      ],
      "name": "setRewardPercent",
      "outputs": [],
      "stateMutability": "nonpayable",
      "type": "function"
    },
    {
      "inputs": [
        {
          "internalType": "uint256",
          "name": "_amount",
          "type": "uint256"
        },
        {
          "internalType": "string",
          "name": "pool",
          "type": "string"
        }
      ],
      "name": "stake",
      "outputs": [],
      "stateMutability": "payable",
      "type": "function"
    },
    {
      "inputs": [
        {
          "internalType": "address",
          "name": "newOwner",
          "type": "address"
        }
      ],
      "name": "transferOwnership",
      "outputs": [],
      "stateMutability": "nonpayable",
      "type": "function"
    },
    {
      "inputs": [
        {
          "internalType": "string",
          "name": "pool",
          "type": "string"
        }
      ],
      "name": "unstake",
      "outputs": [],
      "stateMutability": "nonpayable",
      "type": "function"
    },
    {
      "inputs": [
        {
          "internalType": "string",
          "name": "",
          "type": "string"
        },
        {
          "internalType": "uint256",
          "name": "",
          "type": "uint256"
        }
      ],
      "name": "userStake",
      "outputs": [
        {
          "internalType": "address",
          "name": "",
          "type": "address"
        }
      ],
      "stateMutability": "view",
      "type": "function"
    },
    {
      "inputs": [
        {
          "internalType": "string",
          "name": "",
          "type": "string"
        },
        {
          "internalType": "address",
          "name": "",
          "type": "address"
        }
      ],
      "name": "userStakeIndex",
      "outputs": [
        {
          "internalType": "uint256",
          "name": "",
          "type": "uint256"
        }
      ],
      "stateMutability": "view",
      "type": "function"
    }
  ],
  "bytecode": "0x6080604052600260055560056006553480156200001b57600080fd5b506200003c620000306200009760201b60201c565b6200009f60201b60201c565b73aa8adb51329ba9640d86aa10b0f374d97a7b31d9600160006101000a81548173ffffffffffffffffffffffffffffffffffffffff021916908373ffffffffffffffffffffffffffffffffffffffff16021790555062000163565b600033905090565b60008060009054906101000a900473ffffffffffffffffffffffffffffffffffffffff169050816000806101000a81548173ffffffffffffffffffffffffffffffffffffffff021916908373ffffffffffffffffffffffffffffffffffffffff1602179055508173ffffffffffffffffffffffffffffffffffffffff168173ffffffffffffffffffffffffffffffffffffffff167f8be0079c531659141344cd1fd0a4f28419497f9722a3daafe3b4186f6b6457e060405160405180910390a35050565b6129af80620001736000396000f3fe6080604052600436106101145760003560e01c80636faf39a7116100a0578063d8a0ac9711610064578063d8a0ac97146103b5578063e7e4e1f7146103de578063f2fde38b146103fa578063fbdf365b14610423578063fedfc4a71461044c57610114565b80636faf39a7146102e2578063715018a61461030b5780637848c4d2146103225780638da5cb5b1461034d5780639a95bbf81461037857610114565b8063494ed840116100e7578063494ed840146101e95780634dfc07a11461022657806356c9895d146102655780635f00baa71461028e5780636630d3fb146102b957610114565b806302dfd7d81461011957806308c8e4a714610142578063233a15d41461018157806323cab22d146101be575b600080fd5b34801561012557600080fd5b50610140600480360381019061013b9190612126565b610489565b005b34801561014e57600080fd5b5061016960048036038101906101649190612126565b6109dc565b60405161017893929190612524565b60405180910390f35b34801561018d57600080fd5b506101a860048036038101906101a391906120e5565b610a29565b6040516101b59190612509565b60405180910390f35b3480156101ca57600080fd5b506101d3610a57565b6040516101e09190612509565b60405180910390f35b3480156101f557600080fd5b50610210600480360381019061020b9190612126565b610a5d565b60405161021d9190612509565b60405180910390f35b34801561023257600080fd5b5061024d600480360381019061024891906120e5565b610a98565b60405161025c93929190612524565b60405180910390f35b34801561027157600080fd5b5061028c600480360381019061028791906121f7565b610b41565b005b34801561029a57600080fd5b506102a3610bf1565b6040516102b0919061246e565b60405180910390f35b3480156102c557600080fd5b506102e060048036038101906102db91906121f7565b610c17565b005b3480156102ee57600080fd5b50610309600480360381019061030491906121ce565b610cc7565b005b34801561031757600080fd5b50610320610d4d565b005b34801561032e57600080fd5b50610337610dd5565b6040516103449190612509565b60405180910390f35b34801561035957600080fd5b50610362610ddb565b60405161036f9190612385565b60405180910390f35b34801561038457600080fd5b5061039f600480360381019061039a91906120e5565b610e04565b6040516103ac9190612509565b60405180910390f35b3480156103c157600080fd5b506103dc60048036038101906103d791906120e5565b610e32565b005b6103f860048036038101906103f391906121f7565b6111f3565b005b34801561040657600080fd5b50610421600480360381019061041c9190612093565b6115b0565b005b34801561042f57600080fd5b5061044a600480360381019061044591906121ce565b6116a8565b005b34801561045857600080fd5b50610473600480360381019061046e919061217a565b61172e565b6040516104809190612385565b60405180910390f35b610491611792565b73ffffffffffffffffffffffffffffffffffffffff166104af610ddb565b73ffffffffffffffffffffffffffffffffffffffff1614610505576040517f08c379a00000000000000000000000000000000000000000000000000000000081526004016104fc906124a9565b60405180910390fd5b6000429050600060028460405161051c919061236e565b908152602001604051809103902060008473ffffffffffffffffffffffffffffffffffffffff1673ffffffffffffffffffffffffffffffffffffffff1681526020019081526020016000206001015414156107bd576000600284604051610583919061236e565b908152602001604051809103902060008473ffffffffffffffffffffffffffffffffffffffff1673ffffffffffffffffffffffffffffffffffffffff16815260200190815260200160002060020154146107b857600160009054906101000a900473ffffffffffffffffffffffffffffffffffffffff1673ffffffffffffffffffffffffffffffffffffffff1663a9059cbb83600286604051610626919061236e565b908152602001604051809103902060008673ffffffffffffffffffffffffffffffffffffffff1673ffffffffffffffffffffffffffffffffffffffff168152602001908152602001600020600201546040518363ffffffff1660e01b8152600401610692929190612407565b602060405180830381600087803b1580156106ac57600080fd5b505af11580156106c0573d6000803e3d6000fd5b505050506040513d601f19601f820116820180604052508101906106e491906120bc565b5060006002846040516106f7919061236e565b908152602001604051809103902060008473ffffffffffffffffffffffffffffffffffffffff1673ffffffffffffffffffffffffffffffffffffffff16815260200190815260200160002060020181905550600060028460405161075b919061236e565b908152602001604051809103902060008473ffffffffffffffffffffffffffffffffffffffff1673ffffffffffffffffffffffffffffffffffffffff168152602001908152602001600020600001819055506107b7828461179a565b5b61099e565b6107c8828285611a9f565b806002846040516107d9919061236e565b908152602001604051809103902060008473ffffffffffffffffffffffffffffffffffffffff1673ffffffffffffffffffffffffffffffffffffffff16815260200190815260200160002060010181905550600160009054906101000a900473ffffffffffffffffffffffffffffffffffffffff1673ffffffffffffffffffffffffffffffffffffffff1663a9059cbb8360028660405161087a919061236e565b908152602001604051809103902060008673ffffffffffffffffffffffffffffffffffffffff1673ffffffffffffffffffffffffffffffffffffffff168152602001908152602001600020600201546040518363ffffffff1660e01b81526004016108e6929190612407565b602060405180830381600087803b15801561090057600080fd5b505af1158015610914573d6000803e3d6000fd5b505050506040513d601f19601f8201168201806040525081019061093891906120bc565b50600060028460405161094b919061236e565b908152602001604051809103902060008473ffffffffffffffffffffffffffffffffffffffff1673ffffffffffffffffffffffffffffffffffffffff168152602001908152602001600020600201819055505b7fcba7446068a7f71e2b532a0ba605c95565bafc409c53f58a49ab581afbdb8b2b82846040516109cf9291906123d7565b60405180910390a1505050565b600282805160208101820180518482526020830160208501208183528095505050505050602052806000526040600020600091509150508060000154908060010154908060020154905083565b6008818051602081018201805184825260208301602085012081835280955050505050506000915090505481565b60055481565b600382805160208101820180518482526020830160208501208183528095505050505050602052806000526040600020600091509150505481565b600080600080600285604051610aae919061236e565b908152602001604051809103902060003373ffffffffffffffffffffffffffffffffffffffff1673ffffffffffffffffffffffffffffffffffffffff16815260200190815260200160002060405180606001604052908160008201548152602001600182015481526020016002820154815250509050806000015181602001518260400151935093509350509193909250565b610b49611792565b73ffffffffffffffffffffffffffffffffffffffff16610b67610ddb565b73ffffffffffffffffffffffffffffffffffffffff1614610bbd576040517f08c379a0000000000000000000000000000000000000000000000000000000008152600401610bb4906124a9565b60405180910390fd5b60008211610bca57600080fd5b81600882604051610bdb919061236e565b9081526020016040518091039020819055505050565b600160009054906101000a900473ffffffffffffffffffffffffffffffffffffffff1681565b610c1f611792565b73ffffffffffffffffffffffffffffffffffffffff16610c3d610ddb565b73ffffffffffffffffffffffffffffffffffffffff1614610c93576040517f08c379a0000000000000000000000000000000000000000000000000000000008152600401610c8a906124a9565b60405180910390fd5b60008211610ca057600080fd5b81600782604051610cb1919061236e565b9081526020016040518091039020819055505050565b610ccf611792565b73ffffffffffffffffffffffffffffffffffffffff16610ced610ddb565b73ffffffffffffffffffffffffffffffffffffffff1614610d43576040517f08c379a0000000000000000000000000000000000000000000000000000000008152600401610d3a906124a9565b60405180910390fd5b8060058190555050565b610d55611792565b73ffffffffffffffffffffffffffffffffffffffff16610d73610ddb565b73ffffffffffffffffffffffffffffffffffffffff1614610dc9576040517f08c379a0000000000000000000000000000000000000000000000000000000008152600401610dc0906124a9565b60405180910390fd5b610dd36000611f28565b565b60065481565b60008060009054906101000a900473ffffffffffffffffffffffffffffffffffffffff16905090565b6007818051602081018201805184825260208301602085012081835280955050505050506000915090505481565b6000600382604051610e44919061236e565b908152602001604051809103902060003373ffffffffffffffffffffffffffffffffffffffff1673ffffffffffffffffffffffffffffffffffffffff168152602001908152602001600020541415610ed1576040517f08c379a0000000000000000000000000000000000000000000000000000000008152600401610ec8906124c9565b60405180910390fd5b6000600282604051610ee3919061236e565b908152602001604051809103902060003373ffffffffffffffffffffffffffffffffffffffff1673ffffffffffffffffffffffffffffffffffffffff168152602001908152602001600020600001541415610f73576040517f08c379a0000000000000000000000000000000000000000000000000000000008152600401610f6a906124e9565b60405180910390fd5b600160009054906101000a900473ffffffffffffffffffffffffffffffffffffffff1673ffffffffffffffffffffffffffffffffffffffff1663a9059cbb33600284604051610fc2919061236e565b908152602001604051809103902060003373ffffffffffffffffffffffffffffffffffffffff1673ffffffffffffffffffffffffffffffffffffffff168152602001908152602001600020600001546040518363ffffffff1660e01b815260040161102e929190612407565b602060405180830381600087803b15801561104857600080fd5b505af115801561105c573d6000803e3d6000fd5b505050506040513d601f19601f8201168201806040525081019061108091906120bc565b506000600282604051611093919061236e565b908152602001604051809103902060003373ffffffffffffffffffffffffffffffffffffffff1673ffffffffffffffffffffffffffffffffffffffff1681526020019081526020016000206000018190555060006002826040516110f7919061236e565b908152602001604051809103902060003373ffffffffffffffffffffffffffffffffffffffff1673ffffffffffffffffffffffffffffffffffffffff16815260200190815260200160002060010181905550600060028260405161115b919061236e565b908152602001604051809103902060003373ffffffffffffffffffffffffffffffffffffffff1673ffffffffffffffffffffffffffffffffffffffff168152602001908152602001600020600201819055506111b7338261179a565b7f89a3e89bc38972f8da648764d6f02dc17ace9e081a46166e46ba6e9483f379d733826040516111e89291906123d7565b60405180910390a150565b600160009054906101000a900473ffffffffffffffffffffffffffffffffffffffff1673ffffffffffffffffffffffffffffffffffffffff166323b872dd3330856040518463ffffffff1660e01b8152600401611252939291906123a0565b602060405180830381600087803b15801561126c57600080fd5b505af1158015611280573d6000803e3d6000fd5b505050506040513d601f19601f820116820180604052508101906112a491906120bc565b50600042905060006002836040516112bc919061236e565b908152602001604051809103902060003373ffffffffffffffffffffffffffffffffffffffff1673ffffffffffffffffffffffffffffffffffffffff16815260200190815260200160002060010154146113205761131b338284611a9f565b611498565b6000600383604051611332919061236e565b908152602001604051809103902060003373ffffffffffffffffffffffffffffffffffffffff1673ffffffffffffffffffffffffffffffffffffffff168152602001908152602001600020541415611497576000600483604051611396919061236e565b90815260200160405180910390208054905090506004836040516113ba919061236e565b9081526020016040518091039020339080600181540180825580915050600190039060005260206000200160009091909190916101000a81548173ffffffffffffffffffffffffffffffffffffffff021916908373ffffffffffffffffffffffffffffffffffffffff16021790555060018161143691906125d8565b600384604051611446919061236e565b908152602001604051809103902060003373ffffffffffffffffffffffffffffffffffffffff1673ffffffffffffffffffffffffffffffffffffffff16815260200190815260200160002081905550505b5b806002836040516114a9919061236e565b908152602001604051809103902060003373ffffffffffffffffffffffffffffffffffffffff1673ffffffffffffffffffffffffffffffffffffffff168152602001908152602001600020600101819055508260028360405161150c919061236e565b908152602001604051809103902060003373ffffffffffffffffffffffffffffffffffffffff1673ffffffffffffffffffffffffffffffffffffffff168152602001908152602001600020600001600082825461156991906125d8565b925050819055507f72d0050d8f1a0f19ace5b1f50e8b5333308c60902442b7444a65cfffbad884e73384846040516115a393929190612430565b60405180910390a1505050565b6115b8611792565b73ffffffffffffffffffffffffffffffffffffffff166115d6610ddb565b73ffffffffffffffffffffffffffffffffffffffff161461162c576040517f08c379a0000000000000000000000000000000000000000000000000000000008152600401611623906124a9565b60405180910390fd5b600073ffffffffffffffffffffffffffffffffffffffff168173ffffffffffffffffffffffffffffffffffffffff16141561169c576040517f08c379a000000000000000000000000000000000000000000000000000000000815260040161169390612489565b60405180910390fd5b6116a581611f28565b50565b6116b0611792565b73ffffffffffffffffffffffffffffffffffffffff166116ce610ddb565b73ffffffffffffffffffffffffffffffffffffffff1614611724576040517f08c379a000000000000000000000000000000000000000000000000000000000815260040161171b906124a9565b60405180910390fd5b8060068190555050565b600482805160208101820180518482526020830160208501208183528095505050505050818154811061176057600080fd5b906000526020600020016000915091509054906101000a900473ffffffffffffffffffffffffffffffffffffffff1681565b600033905090565b60006003826040516117ac919061236e565b908152602001604051809103902060008473ffffffffffffffffffffffffffffffffffffffff1673ffffffffffffffffffffffffffffffffffffffff1681526020019081526020016000205414611a9b5760048160405161180d919061236e565b9081526020016040518091039020600160048360405161182d919061236e565b90815260200160405180910390208054905061184991906126b9565b81548110611880577f4e487b7100000000000000000000000000000000000000000000000000000000600052603260045260246000fd5b9060005260206000200160009054906101000a900473ffffffffffffffffffffffffffffffffffffffff166004826040516118bb919061236e565b908152602001604051809103902060016003846040516118db919061236e565b908152602001604051809103902060008673ffffffffffffffffffffffffffffffffffffffff1673ffffffffffffffffffffffffffffffffffffffff1681526020019081526020016000205461193191906126b9565b81548110611968577f4e487b7100000000000000000000000000000000000000000000000000000000600052603260045260246000fd5b9060005260206000200160006101000a81548173ffffffffffffffffffffffffffffffffffffffff021916908373ffffffffffffffffffffffffffffffffffffffff1602179055506004816040516119c0919061236e565b9081526020016040518091039020805480611a04577f4e487b7100000000000000000000000000000000000000000000000000000000600052603160045260246000fd5b6001900381819060005260206000200160006101000a81549073ffffffffffffffffffffffffffffffffffffffff021916905590556000600382604051611a4b919061236e565b908152602001604051809103902060008473ffffffffffffffffffffffffffffffffffffffff1673ffffffffffffffffffffffffffffffffffffffff168152602001908152602001600020819055505b5050565b6000600782604051611ab1919061236e565b9081526020016040518091039020541480611aea57506000600882604051611ad9919061236e565b908152602001604051809103902054145b15611ce1576000600654600283604051611b04919061236e565b908152602001604051809103902060008673ffffffffffffffffffffffffffffffffffffffff1673ffffffffffffffffffffffffffffffffffffffff1681526020019081526020016000206001015484611b5e91906126b9565b611b68919061262e565b14611cdc57612710600282604051611b80919061236e565b908152602001604051809103902060008573ffffffffffffffffffffffffffffffffffffffff1673ffffffffffffffffffffffffffffffffffffffff16815260200190815260200160002060000154600554600654600285604051611be5919061236e565b908152602001604051809103902060008873ffffffffffffffffffffffffffffffffffffffff1673ffffffffffffffffffffffffffffffffffffffff1681526020019081526020016000206001015486611c3f91906126b9565b611c49919061262e565b611c53919061265f565b611c5d919061265f565b611c67919061262e565b600282604051611c77919061236e565b908152602001604051809103902060008573ffffffffffffffffffffffffffffffffffffffff1673ffffffffffffffffffffffffffffffffffffffff1681526020019081526020016000206002016000828254611cd491906125d8565b925050819055505b611f23565b6000600882604051611cf3919061236e565b908152602001604051809103902054600283604051611d12919061236e565b908152602001604051809103902060008673ffffffffffffffffffffffffffffffffffffffff1673ffffffffffffffffffffffffffffffffffffffff1681526020019081526020016000206001015484611d6c91906126b9565b611d76919061262e565b14611f2257612710600282604051611d8e919061236e565b908152602001604051809103902060008573ffffffffffffffffffffffffffffffffffffffff1673ffffffffffffffffffffffffffffffffffffffff16815260200190815260200160002060000154600783604051611ded919061236e565b908152602001604051809103902054600884604051611e0c919061236e565b908152602001604051809103902054600285604051611e2b919061236e565b908152602001604051809103902060008873ffffffffffffffffffffffffffffffffffffffff1673ffffffffffffffffffffffffffffffffffffffff1681526020019081526020016000206001015486611e8591906126b9565b611e8f919061262e565b611e99919061265f565b611ea3919061265f565b611ead919061262e565b600282604051611ebd919061236e565b908152602001604051809103902060008573ffffffffffffffffffffffffffffffffffffffff1673ffffffffffffffffffffffffffffffffffffffff1681526020019081526020016000206002016000828254611f1a91906125d8565b925050819055505b5b505050565b60008060009054906101000a900473ffffffffffffffffffffffffffffffffffffffff169050816000806101000a81548173ffffffffffffffffffffffffffffffffffffffff021916908373ffffffffffffffffffffffffffffffffffffffff1602179055508173ffffffffffffffffffffffffffffffffffffffff168173ffffffffffffffffffffffffffffffffffffffff167f8be0079c531659141344cd1fd0a4f28419497f9722a3daafe3b4186f6b6457e060405160405180910390a35050565b6000611fff611ffa84612580565b61255b565b90508281526020810184848401111561201757600080fd5b612022848285612759565b509392505050565b60008135905061203981612934565b92915050565b60008151905061204e8161294b565b92915050565b600082601f83011261206557600080fd5b8135612075848260208601611fec565b91505092915050565b60008135905061208d81612962565b92915050565b6000602082840312156120a557600080fd5b60006120b38482850161202a565b91505092915050565b6000602082840312156120ce57600080fd5b60006120dc8482850161203f565b91505092915050565b6000602082840312156120f757600080fd5b600082013567ffffffffffffffff81111561211157600080fd5b61211d84828501612054565b91505092915050565b6000806040838503121561213957600080fd5b600083013567ffffffffffffffff81111561215357600080fd5b61215f85828601612054565b92505060206121708582860161202a565b9150509250929050565b6000806040838503121561218d57600080fd5b600083013567ffffffffffffffff8111156121a757600080fd5b6121b385828601612054565b92505060206121c48582860161207e565b9150509250929050565b6000602082840312156121e057600080fd5b60006121ee8482850161207e565b91505092915050565b6000806040838503121561220a57600080fd5b60006122188582860161207e565b925050602083013567ffffffffffffffff81111561223557600080fd5b61224185828601612054565b9150509250929050565b612254816126ed565b82525050565b61226381612735565b82525050565b6000612274826125b1565b61227e81856125bc565b935061228e818560208601612768565b61229781612859565b840191505092915050565b60006122ad826125b1565b6122b781856125cd565b93506122c7818560208601612768565b80840191505092915050565b60006122e06026836125bc565b91506122eb8261286a565b604082019050919050565b60006123036020836125bc565b915061230e826128b9565b602082019050919050565b60006123266001836125bc565b9150612331826128e2565b602082019050919050565b60006123496001836125bc565b91506123548261290b565b602082019050919050565b6123688161272b565b82525050565b600061237a82846122a2565b915081905092915050565b600060208201905061239a600083018461224b565b92915050565b60006060820190506123b5600083018661224b565b6123c2602083018561224b565b6123cf604083018461235f565b949350505050565b60006040820190506123ec600083018561224b565b81810360208301526123fe8184612269565b90509392505050565b600060408201905061241c600083018561224b565b612429602083018461235f565b9392505050565b6000606082019050612445600083018661224b565b612452602083018561235f565b81810360408301526124648184612269565b9050949350505050565b6000602082019050612483600083018461225a565b92915050565b600060208201905081810360008301526124a2816122d3565b9050919050565b600060208201905081810360008301526124c2816122f6565b9050919050565b600060208201905081810360008301526124e281612319565b9050919050565b600060208201905081810360008301526125028161233c565b9050919050565b600060208201905061251e600083018461235f565b92915050565b6000606082019050612539600083018661235f565b612546602083018561235f565b612553604083018461235f565b949350505050565b6000612565612576565b9050612571828261279b565b919050565b6000604051905090565b600067ffffffffffffffff82111561259b5761259a61282a565b5b6125a482612859565b9050602081019050919050565b600081519050919050565b600082825260208201905092915050565b600081905092915050565b60006125e38261272b565b91506125ee8361272b565b9250827fffffffffffffffffffffffffffffffffffffffffffffffffffffffffffffffff03821115612623576126226127cc565b5b828201905092915050565b60006126398261272b565b91506126448361272b565b925082612654576126536127fb565b5b828204905092915050565b600061266a8261272b565b91506126758361272b565b9250817fffffffffffffffffffffffffffffffffffffffffffffffffffffffffffffffff04831182151516156126ae576126ad6127cc565b5b828202905092915050565b60006126c48261272b565b91506126cf8361272b565b9250828210156126e2576126e16127cc565b5b828203905092915050565b60006126f88261270b565b9050919050565b60008115159050919050565b600073ffffffffffffffffffffffffffffffffffffffff82169050919050565b6000819050919050565b600061274082612747565b9050919050565b60006127528261270b565b9050919050565b82818337600083830152505050565b60005b8381101561278657808201518184015260208101905061276b565b83811115612795576000848401525b50505050565b6127a482612859565b810181811067ffffffffffffffff821117156127c3576127c261282a565b5b80604052505050565b7f4e487b7100000000000000000000000000000000000000000000000000000000600052601160045260246000fd5b7f4e487b7100000000000000000000000000000000000000000000000000000000600052601260045260246000fd5b7f4e487b7100000000000000000000000000000000000000000000000000000000600052604160045260246000fd5b6000601f19601f8301169050919050565b7f4f776e61626c653a206e6577206f776e657220697320746865207a65726f206160008201527f6464726573730000000000000000000000000000000000000000000000000000602082015250565b7f4f776e61626c653a2063616c6c6572206973206e6f7420746865206f776e6572600082015250565b7f3200000000000000000000000000000000000000000000000000000000000000600082015250565b7f3100000000000000000000000000000000000000000000000000000000000000600082015250565b61293d816126ed565b811461294857600080fd5b50565b612954816126ff565b811461295f57600080fd5b50565b61296b8161272b565b811461297657600080fd5b5056fea2646970667358221220ed97c78d1f5facc18d33f663062083d7bc94a3d3402cb11ff4fafe5fe0841b3764736f6c63430008040033",
  "linkReferences": {},
  "deployedLinkReferences": {}
}