{
  "_format": "hh-sol-artifact-1",
  "contractName": "TokenFarm",
  "sourceName": "contracts/TokenFarm.sol",
  "abi": [
    {
      "inputs": [],
      "stateMutability": "nonpayable",
      "type": "constructor"
    },
    {
      "anonymous": false,
      "inputs": [
        {
          "indexed": false,
          "internalType": "address",
          "name": "_user",
          "type": "address"
        },
        {
          "indexed": false,
          "internalType": "string",
          "name": "pool",
          "type": "string"
        }
      ],
      "name": "ClaimReward",
      "type": "event"
    },
    {
      "anonymous": false,
      "inputs": [
        {
          "indexed": true,
          "internalType": "address",
          "name": "previousOwner",
          "type": "address"
        },
        {
          "indexed": true,
          "internalType": "address",
          "name": "newOwner",
          "type": "address"
        }
      ],
      "name": "OwnershipTransferred",
      "type": "event"
    },
    {
      "anonymous": false,
      "inputs": [
        {
          "indexed": false,
          "internalType": "address",
          "name": "_user",
          "type": "address"
        },
        {
          "indexed": false,
          "internalType": "uint256",
          "name": "amount",
          "type": "uint256"
        },
        {
          "indexed": false,
          "internalType": "string",
          "name": "pool",
          "type": "string"
        }
      ],
      "name": "Stake",
      "type": "event"
    },
    {
      "anonymous": false,
      "inputs": [
        {
          "indexed": false,
          "internalType": "address",
          "name": "_user",
          "type": "address"
        },
        {
          "indexed": false,
          "internalType": "string",
          "name": "pool",
          "type": "string"
        }
      ],
      "name": "Unstake",
      "type": "event"
    },
    {
      "inputs": [],
      "name": "dbToken",
      "outputs": [
        {
          "internalType": "contract IERC20",
          "name": "",
          "type": "address"
        }
      ],
      "stateMutability": "view",
      "type": "function"
    },
    {
      "inputs": [],
      "name": "defaultPerSec",
      "outputs": [
        {
          "internalType": "uint256",
          "name": "",
          "type": "uint256"
        }
      ],
      "stateMutability": "view",
      "type": "function"
    },
    {
      "inputs": [],
      "name": "defaultRewardPer",
      "outputs": [
        {
          "internalType": "uint256",
          "name": "",
          "type": "uint256"
        }
      ],
      "stateMutability": "view",
      "type": "function"
    },
    {
      "inputs": [
        {
          "internalType": "string",
          "name": "pool",
          "type": "string"
        }
      ],
      "name": "getListStack",
      "outputs": [
        {
          "internalType": "uint256",
          "name": "",
          "type": "uint256"
        },
        {
          "internalType": "uint256",
          "name": "",
          "type": "uint256"
        },
        {
          "internalType": "uint256",
          "name": "",
          "type": "uint256"
        }
      ],
      "stateMutability": "view",
      "type": "function"
    },
    {
      "inputs": [
        {
          "internalType": "string",
          "name": "pool",
          "type": "string"
        },
        {
          "internalType": "address",
          "name": "user",
          "type": "address"
        }
      ],
      "name": "issueToken",
      "outputs": [],
      "stateMutability": "nonpayable",
      "type": "function"
    },
    {
      "inputs": [
        {
          "internalType": "string",
          "name": "",
          "type": "string"
        },
        {
          "internalType": "address",
          "name": "",
          "type": "address"
        }
      ],
      "name": "listStake",
      "outputs": [
        {
          "internalType": "uint256",
          "name": "amount",
          "type": "uint256"
        },
        {
          "internalType": "uint256",
          "name": "stakeTime",
          "type": "uint256"
        },
        {
          "internalType": "uint256",
          "name": "unClaimAmount",
          "type": "uint256"
        }
      ],
      "stateMutability": "view",
      "type": "function"
    },
    {
      "inputs": [],
      "name": "owner",
      "outputs": [
        {
          "internalType": "address",
          "name": "",
          "type": "address"
        }
      ],
      "stateMutability": "view",
      "type": "function"
    },
    {
      "inputs": [
        {
          "internalType": "string",
          "name": "",
          "type": "string"
        }
      ],
      "name": "perSeconds",
      "outputs": [
        {
          "internalType": "uint256",
          "name": "",
          "type": "uint256"
        }
      ],
      "stateMutability": "view",
      "type": "function"
    },
    {
      "inputs": [],
      "name": "renounceOwnership",
      "outputs": [],
      "stateMutability": "nonpayable",
      "type": "function"
    },
    {
      "inputs": [
        {
          "internalType": "string",
          "name": "",
          "type": "string"
        }
      ],
      "name": "rewardPercent",
      "outputs": [
        {
          "internalType": "uint256",
          "name": "",
          "type": "uint256"
        }
      ],
      "stateMutability": "view",
      "type": "function"
    },
    {
      "inputs": [
        {
          "internalType": "uint256",
          "name": "percent",
          "type": "uint256"
        },
        {
          "internalType": "uint256",
          "name": "sec",
          "type": "uint256"
        },
        {
          "internalType": "string",
          "name": "pool",
          "type": "string"
        }
      ],
      "name": "setSplitConfig",
      "outputs": [],
      "stateMutability": "nonpayable",
      "type": "function"
    },
    {
      "inputs": [
        {
          "internalType": "uint256",
          "name": "percent",
          "type": "uint256"
        },
        {
          "internalType": "uint256",
          "name": "sec",
          "type": "uint256"
        }
      ],
      "name": "setSplitConfigDefault",
      "outputs": [],
      "stateMutability": "nonpayable",
      "type": "function"
    },
    {
      "inputs": [
        {
          "internalType": "uint256",
          "name": "_amount",
          "type": "uint256"
        },
        {
          "internalType": "string",
          "name": "pool",
          "type": "string"
        }
      ],
      "name": "stake",
      "outputs": [],
      "stateMutability": "payable",
      "type": "function"
    },
    {
      "inputs": [
        {
          "internalType": "address",
          "name": "newOwner",
          "type": "address"
        }
      ],
      "name": "transferOwnership",
      "outputs": [],
      "stateMutability": "nonpayable",
      "type": "function"
    },
    {
      "inputs": [
        {
          "internalType": "string",
          "name": "pool",
          "type": "string"
        }
      ],
      "name": "unstake",
      "outputs": [],
      "stateMutability": "nonpayable",
      "type": "function"
    },
    {
      "inputs": [
        {
          "internalType": "string",
          "name": "",
          "type": "string"
        },
        {
          "internalType": "uint256",
          "name": "",
          "type": "uint256"
        }
      ],
      "name": "userStake",
      "outputs": [
        {
          "internalType": "address",
          "name": "",
          "type": "address"
        }
      ],
      "stateMutability": "view",
      "type": "function"
    },
    {
      "inputs": [
        {
          "internalType": "string",
          "name": "",
          "type": "string"
        },
        {
          "internalType": "address",
          "name": "",
          "type": "address"
        }
      ],
      "name": "userStakeIndex",
      "outputs": [
        {
          "internalType": "uint256",
          "name": "",
          "type": "uint256"
        }
      ],
      "stateMutability": "view",
      "type": "function"
    }
  ],
  "bytecode": "0x6080604052600260055560056006553480156200001b57600080fd5b506200003c620000306200009760201b60201c565b6200009f60201b60201c565b73aa8adb51329ba9640d86aa10b0f374d97a7b31d9600160006101000a81548173ffffffffffffffffffffffffffffffffffffffff021916908373ffffffffffffffffffffffffffffffffffffffff16021790555062000163565b600033905090565b60008060009054906101000a900473ffffffffffffffffffffffffffffffffffffffff169050816000806101000a81548173ffffffffffffffffffffffffffffffffffffffff021916908373ffffffffffffffffffffffffffffffffffffffff1602179055508173ffffffffffffffffffffffffffffffffffffffff168173ffffffffffffffffffffffffffffffffffffffff167f8be0079c531659141344cd1fd0a4f28419497f9722a3daafe3b4186f6b6457e060405160405180910390a35050565b6128aa80620001736000396000f3fe6080604052600436106100fe5760003560e01c80637848c4d211610095578063c3e0700211610064578063c3e070021461034d578063d8a0ac9714610376578063e7e4e1f71461039f578063f2fde38b146103bb578063fedfc4a7146103e4576100fe565b80637848c4d2146102915780638da5cb5b146102bc5780639a95bbf8146102e75780639cd12fe214610324576100fe565b8063494ed840116100d1578063494ed840146101d35780634dfc07a1146102105780635f00baa71461024f578063715018a61461027a576100fe565b806302dfd7d81461010357806308c8e4a71461012c578063233a15d41461016b57806323cab22d146101a8575b600080fd5b34801561010f57600080fd5b5061012a60048036038101906101259190611fa7565b610421565b005b34801561013857600080fd5b50610153600480360381019061014e9190611fa7565b610974565b6040516101629392919061241f565b60405180910390f35b34801561017757600080fd5b50610192600480360381019061018d9190611f66565b6109c1565b60405161019f9190612404565b60405180910390f35b3480156101b457600080fd5b506101bd6109ef565b6040516101ca9190612404565b60405180910390f35b3480156101df57600080fd5b506101fa60048036038101906101f59190611fa7565b6109f5565b6040516102079190612404565b60405180910390f35b34801561021c57600080fd5b5061023760048036038101906102329190611f66565b610a30565b6040516102469392919061241f565b60405180910390f35b34801561025b57600080fd5b50610264610ad9565b6040516102719190612369565b60405180910390f35b34801561028657600080fd5b5061028f610aff565b005b34801561029d57600080fd5b506102a6610b87565b6040516102b39190612404565b60405180910390f35b3480156102c857600080fd5b506102d1610b8d565b6040516102de9190612280565b60405180910390f35b3480156102f357600080fd5b5061030e60048036038101906103099190611f66565b610bb6565b60405161031b9190612404565b60405180910390f35b34801561033057600080fd5b5061034b600480360381019061034691906120df565b610be4565b005b34801561035957600080fd5b50610374600480360381019061036f91906120a3565b610cab565b005b34801561038257600080fd5b5061039d60048036038101906103989190611f66565b610d39565b005b6103b960048036038101906103b4919061204f565b6110fa565b005b3480156103c757600080fd5b506103e260048036038101906103dd9190611f14565b6114b7565b005b3480156103f057600080fd5b5061040b60048036038101906104069190611ffb565b6115af565b6040516104189190612280565b60405180910390f35b610429611613565b73ffffffffffffffffffffffffffffffffffffffff16610447610b8d565b73ffffffffffffffffffffffffffffffffffffffff161461049d576040517f08c379a0000000000000000000000000000000000000000000000000000000008152600401610494906123a4565b60405180910390fd5b600042905060006002846040516104b49190612269565b908152602001604051809103902060008473ffffffffffffffffffffffffffffffffffffffff1673ffffffffffffffffffffffffffffffffffffffff16815260200190815260200160002060010154141561075557600060028460405161051b9190612269565b908152602001604051809103902060008473ffffffffffffffffffffffffffffffffffffffff1673ffffffffffffffffffffffffffffffffffffffff168152602001908152602001600020600201541461075057600160009054906101000a900473ffffffffffffffffffffffffffffffffffffffff1673ffffffffffffffffffffffffffffffffffffffff1663a9059cbb836002866040516105be9190612269565b908152602001604051809103902060008673ffffffffffffffffffffffffffffffffffffffff1673ffffffffffffffffffffffffffffffffffffffff168152602001908152602001600020600201546040518363ffffffff1660e01b815260040161062a929190612302565b602060405180830381600087803b15801561064457600080fd5b505af1158015610658573d6000803e3d6000fd5b505050506040513d601f19601f8201168201806040525081019061067c9190611f3d565b50600060028460405161068f9190612269565b908152602001604051809103902060008473ffffffffffffffffffffffffffffffffffffffff1673ffffffffffffffffffffffffffffffffffffffff1681526020019081526020016000206002018190555060006002846040516106f39190612269565b908152602001604051809103902060008473ffffffffffffffffffffffffffffffffffffffff1673ffffffffffffffffffffffffffffffffffffffff1681526020019081526020016000206000018190555061074f828461161b565b5b610936565b610760828285611920565b806002846040516107719190612269565b908152602001604051809103902060008473ffffffffffffffffffffffffffffffffffffffff1673ffffffffffffffffffffffffffffffffffffffff16815260200190815260200160002060010181905550600160009054906101000a900473ffffffffffffffffffffffffffffffffffffffff1673ffffffffffffffffffffffffffffffffffffffff1663a9059cbb836002866040516108129190612269565b908152602001604051809103902060008673ffffffffffffffffffffffffffffffffffffffff1673ffffffffffffffffffffffffffffffffffffffff168152602001908152602001600020600201546040518363ffffffff1660e01b815260040161087e929190612302565b602060405180830381600087803b15801561089857600080fd5b505af11580156108ac573d6000803e3d6000fd5b505050506040513d601f19601f820116820180604052508101906108d09190611f3d565b5060006002846040516108e39190612269565b908152602001604051809103902060008473ffffffffffffffffffffffffffffffffffffffff1673ffffffffffffffffffffffffffffffffffffffff168152602001908152602001600020600201819055505b7fcba7446068a7f71e2b532a0ba605c95565bafc409c53f58a49ab581afbdb8b2b82846040516109679291906122d2565b60405180910390a1505050565b600282805160208101820180518482526020830160208501208183528095505050505050602052806000526040600020600091509150508060000154908060010154908060020154905083565b6008818051602081018201805184825260208301602085012081835280955050505050506000915090505481565b60055481565b600382805160208101820180518482526020830160208501208183528095505050505050602052806000526040600020600091509150505481565b600080600080600285604051610a469190612269565b908152602001604051809103902060003373ffffffffffffffffffffffffffffffffffffffff1673ffffffffffffffffffffffffffffffffffffffff16815260200190815260200160002060405180606001604052908160008201548152602001600182015481526020016002820154815250509050806000015181602001518260400151935093509350509193909250565b600160009054906101000a900473ffffffffffffffffffffffffffffffffffffffff1681565b610b07611613565b73ffffffffffffffffffffffffffffffffffffffff16610b25610b8d565b73ffffffffffffffffffffffffffffffffffffffff1614610b7b576040517f08c379a0000000000000000000000000000000000000000000000000000000008152600401610b72906123a4565b60405180910390fd5b610b856000611da9565b565b60065481565b60008060009054906101000a900473ffffffffffffffffffffffffffffffffffffffff16905090565b6007818051602081018201805184825260208301602085012081835280955050505050506000915090505481565b610bec611613565b73ffffffffffffffffffffffffffffffffffffffff16610c0a610b8d565b73ffffffffffffffffffffffffffffffffffffffff1614610c60576040517f08c379a0000000000000000000000000000000000000000000000000000000008152600401610c57906123a4565b60405180910390fd5b82600782604051610c719190612269565b90815260200160405180910390208190555081600882604051610c949190612269565b908152602001604051809103902081905550505050565b610cb3611613565b73ffffffffffffffffffffffffffffffffffffffff16610cd1610b8d565b73ffffffffffffffffffffffffffffffffffffffff1614610d27576040517f08c379a0000000000000000000000000000000000000000000000000000000008152600401610d1e906123a4565b60405180910390fd5b81600581905550806006819055505050565b6000600382604051610d4b9190612269565b908152602001604051809103902060003373ffffffffffffffffffffffffffffffffffffffff1673ffffffffffffffffffffffffffffffffffffffff168152602001908152602001600020541415610dd8576040517f08c379a0000000000000000000000000000000000000000000000000000000008152600401610dcf906123c4565b60405180910390fd5b6000600282604051610dea9190612269565b908152602001604051809103902060003373ffffffffffffffffffffffffffffffffffffffff1673ffffffffffffffffffffffffffffffffffffffff168152602001908152602001600020600001541415610e7a576040517f08c379a0000000000000000000000000000000000000000000000000000000008152600401610e71906123e4565b60405180910390fd5b600160009054906101000a900473ffffffffffffffffffffffffffffffffffffffff1673ffffffffffffffffffffffffffffffffffffffff1663a9059cbb33600284604051610ec99190612269565b908152602001604051809103902060003373ffffffffffffffffffffffffffffffffffffffff1673ffffffffffffffffffffffffffffffffffffffff168152602001908152602001600020600001546040518363ffffffff1660e01b8152600401610f35929190612302565b602060405180830381600087803b158015610f4f57600080fd5b505af1158015610f63573d6000803e3d6000fd5b505050506040513d601f19601f82011682018060405250810190610f879190611f3d565b506000600282604051610f9a9190612269565b908152602001604051809103902060003373ffffffffffffffffffffffffffffffffffffffff1673ffffffffffffffffffffffffffffffffffffffff168152602001908152602001600020600001819055506000600282604051610ffe9190612269565b908152602001604051809103902060003373ffffffffffffffffffffffffffffffffffffffff1673ffffffffffffffffffffffffffffffffffffffff1681526020019081526020016000206001018190555060006002826040516110629190612269565b908152602001604051809103902060003373ffffffffffffffffffffffffffffffffffffffff1673ffffffffffffffffffffffffffffffffffffffff168152602001908152602001600020600201819055506110be338261161b565b7f89a3e89bc38972f8da648764d6f02dc17ace9e081a46166e46ba6e9483f379d733826040516110ef9291906122d2565b60405180910390a150565b600160009054906101000a900473ffffffffffffffffffffffffffffffffffffffff1673ffffffffffffffffffffffffffffffffffffffff166323b872dd3330856040518463ffffffff1660e01b81526004016111599392919061229b565b602060405180830381600087803b15801561117357600080fd5b505af1158015611187573d6000803e3d6000fd5b505050506040513d601f19601f820116820180604052508101906111ab9190611f3d565b50600042905060006002836040516111c39190612269565b908152602001604051809103902060003373ffffffffffffffffffffffffffffffffffffffff1673ffffffffffffffffffffffffffffffffffffffff168152602001908152602001600020600101541461122757611222338284611920565b61139f565b60006003836040516112399190612269565b908152602001604051809103902060003373ffffffffffffffffffffffffffffffffffffffff1673ffffffffffffffffffffffffffffffffffffffff16815260200190815260200160002054141561139e57600060048360405161129d9190612269565b90815260200160405180910390208054905090506004836040516112c19190612269565b9081526020016040518091039020339080600181540180825580915050600190039060005260206000200160009091909190916101000a81548173ffffffffffffffffffffffffffffffffffffffff021916908373ffffffffffffffffffffffffffffffffffffffff16021790555060018161133d91906124d3565b60038460405161134d9190612269565b908152602001604051809103902060003373ffffffffffffffffffffffffffffffffffffffff1673ffffffffffffffffffffffffffffffffffffffff16815260200190815260200160002081905550505b5b806002836040516113b09190612269565b908152602001604051809103902060003373ffffffffffffffffffffffffffffffffffffffff1673ffffffffffffffffffffffffffffffffffffffff16815260200190815260200160002060010181905550826002836040516114139190612269565b908152602001604051809103902060003373ffffffffffffffffffffffffffffffffffffffff1673ffffffffffffffffffffffffffffffffffffffff168152602001908152602001600020600001600082825461147091906124d3565b925050819055507f72d0050d8f1a0f19ace5b1f50e8b5333308c60902442b7444a65cfffbad884e73384846040516114aa9392919061232b565b60405180910390a1505050565b6114bf611613565b73ffffffffffffffffffffffffffffffffffffffff166114dd610b8d565b73ffffffffffffffffffffffffffffffffffffffff1614611533576040517f08c379a000000000000000000000000000000000000000000000000000000000815260040161152a906123a4565b60405180910390fd5b600073ffffffffffffffffffffffffffffffffffffffff168173ffffffffffffffffffffffffffffffffffffffff1614156115a3576040517f08c379a000000000000000000000000000000000000000000000000000000000815260040161159a90612384565b60405180910390fd5b6115ac81611da9565b50565b60048280516020810182018051848252602083016020850120818352809550505050505081815481106115e157600080fd5b906000526020600020016000915091509054906101000a900473ffffffffffffffffffffffffffffffffffffffff1681565b600033905090565b600060038260405161162d9190612269565b908152602001604051809103902060008473ffffffffffffffffffffffffffffffffffffffff1673ffffffffffffffffffffffffffffffffffffffff168152602001908152602001600020541461191c5760048160405161168e9190612269565b908152602001604051809103902060016004836040516116ae9190612269565b9081526020016040518091039020805490506116ca91906125b4565b81548110611701577f4e487b7100000000000000000000000000000000000000000000000000000000600052603260045260246000fd5b9060005260206000200160009054906101000a900473ffffffffffffffffffffffffffffffffffffffff1660048260405161173c9190612269565b9081526020016040518091039020600160038460405161175c9190612269565b908152602001604051809103902060008673ffffffffffffffffffffffffffffffffffffffff1673ffffffffffffffffffffffffffffffffffffffff168152602001908152602001600020546117b291906125b4565b815481106117e9577f4e487b7100000000000000000000000000000000000000000000000000000000600052603260045260246000fd5b9060005260206000200160006101000a81548173ffffffffffffffffffffffffffffffffffffffff021916908373ffffffffffffffffffffffffffffffffffffffff1602179055506004816040516118419190612269565b9081526020016040518091039020805480611885577f4e487b7100000000000000000000000000000000000000000000000000000000600052603160045260246000fd5b6001900381819060005260206000200160006101000a81549073ffffffffffffffffffffffffffffffffffffffff0219169055905560006003826040516118cc9190612269565b908152602001604051809103902060008473ffffffffffffffffffffffffffffffffffffffff1673ffffffffffffffffffffffffffffffffffffffff168152602001908152602001600020819055505b5050565b60006007826040516119329190612269565b908152602001604051809103902054148061196b5750600060088260405161195a9190612269565b908152602001604051809103902054145b15611b625760006006546002836040516119859190612269565b908152602001604051809103902060008673ffffffffffffffffffffffffffffffffffffffff1673ffffffffffffffffffffffffffffffffffffffff16815260200190815260200160002060010154846119df91906125b4565b6119e99190612529565b14611b5d57612710600282604051611a019190612269565b908152602001604051809103902060008573ffffffffffffffffffffffffffffffffffffffff1673ffffffffffffffffffffffffffffffffffffffff16815260200190815260200160002060000154600554600654600285604051611a669190612269565b908152602001604051809103902060008873ffffffffffffffffffffffffffffffffffffffff1673ffffffffffffffffffffffffffffffffffffffff1681526020019081526020016000206001015486611ac091906125b4565b611aca9190612529565b611ad4919061255a565b611ade919061255a565b611ae89190612529565b600282604051611af89190612269565b908152602001604051809103902060008573ffffffffffffffffffffffffffffffffffffffff1673ffffffffffffffffffffffffffffffffffffffff1681526020019081526020016000206002016000828254611b5591906124d3565b925050819055505b611da4565b6000600882604051611b749190612269565b908152602001604051809103902054600283604051611b939190612269565b908152602001604051809103902060008673ffffffffffffffffffffffffffffffffffffffff1673ffffffffffffffffffffffffffffffffffffffff1681526020019081526020016000206001015484611bed91906125b4565b611bf79190612529565b14611da357612710600282604051611c0f9190612269565b908152602001604051809103902060008573ffffffffffffffffffffffffffffffffffffffff1673ffffffffffffffffffffffffffffffffffffffff16815260200190815260200160002060000154600783604051611c6e9190612269565b908152602001604051809103902054600884604051611c8d9190612269565b908152602001604051809103902054600285604051611cac9190612269565b908152602001604051809103902060008873ffffffffffffffffffffffffffffffffffffffff1673ffffffffffffffffffffffffffffffffffffffff1681526020019081526020016000206001015486611d0691906125b4565b611d109190612529565b611d1a919061255a565b611d24919061255a565b611d2e9190612529565b600282604051611d3e9190612269565b908152602001604051809103902060008573ffffffffffffffffffffffffffffffffffffffff1673ffffffffffffffffffffffffffffffffffffffff1681526020019081526020016000206002016000828254611d9b91906124d3565b925050819055505b5b505050565b60008060009054906101000a900473ffffffffffffffffffffffffffffffffffffffff169050816000806101000a81548173ffffffffffffffffffffffffffffffffffffffff021916908373ffffffffffffffffffffffffffffffffffffffff1602179055508173ffffffffffffffffffffffffffffffffffffffff168173ffffffffffffffffffffffffffffffffffffffff167f8be0079c531659141344cd1fd0a4f28419497f9722a3daafe3b4186f6b6457e060405160405180910390a35050565b6000611e80611e7b8461247b565b612456565b905082815260208101848484011115611e9857600080fd5b611ea3848285612654565b509392505050565b600081359050611eba8161282f565b92915050565b600081519050611ecf81612846565b92915050565b600082601f830112611ee657600080fd5b8135611ef6848260208601611e6d565b91505092915050565b600081359050611f0e8161285d565b92915050565b600060208284031215611f2657600080fd5b6000611f3484828501611eab565b91505092915050565b600060208284031215611f4f57600080fd5b6000611f5d84828501611ec0565b91505092915050565b600060208284031215611f7857600080fd5b600082013567ffffffffffffffff811115611f9257600080fd5b611f9e84828501611ed5565b91505092915050565b60008060408385031215611fba57600080fd5b600083013567ffffffffffffffff811115611fd457600080fd5b611fe085828601611ed5565b9250506020611ff185828601611eab565b9150509250929050565b6000806040838503121561200e57600080fd5b600083013567ffffffffffffffff81111561202857600080fd5b61203485828601611ed5565b925050602061204585828601611eff565b9150509250929050565b6000806040838503121561206257600080fd5b600061207085828601611eff565b925050602083013567ffffffffffffffff81111561208d57600080fd5b61209985828601611ed5565b9150509250929050565b600080604083850312156120b657600080fd5b60006120c485828601611eff565b92505060206120d585828601611eff565b9150509250929050565b6000806000606084860312156120f457600080fd5b600061210286828701611eff565b935050602061211386828701611eff565b925050604084013567ffffffffffffffff81111561213057600080fd5b61213c86828701611ed5565b9150509250925092565b61214f816125e8565b82525050565b61215e81612630565b82525050565b600061216f826124ac565b61217981856124b7565b9350612189818560208601612663565b61219281612754565b840191505092915050565b60006121a8826124ac565b6121b281856124c8565b93506121c2818560208601612663565b80840191505092915050565b60006121db6026836124b7565b91506121e682612765565b604082019050919050565b60006121fe6020836124b7565b9150612209826127b4565b602082019050919050565b60006122216001836124b7565b915061222c826127dd565b602082019050919050565b60006122446001836124b7565b915061224f82612806565b602082019050919050565b61226381612626565b82525050565b6000612275828461219d565b915081905092915050565b60006020820190506122956000830184612146565b92915050565b60006060820190506122b06000830186612146565b6122bd6020830185612146565b6122ca604083018461225a565b949350505050565b60006040820190506122e76000830185612146565b81810360208301526122f98184612164565b90509392505050565b60006040820190506123176000830185612146565b612324602083018461225a565b9392505050565b60006060820190506123406000830186612146565b61234d602083018561225a565b818103604083015261235f8184612164565b9050949350505050565b600060208201905061237e6000830184612155565b92915050565b6000602082019050818103600083015261239d816121ce565b9050919050565b600060208201905081810360008301526123bd816121f1565b9050919050565b600060208201905081810360008301526123dd81612214565b9050919050565b600060208201905081810360008301526123fd81612237565b9050919050565b6000602082019050612419600083018461225a565b92915050565b6000606082019050612434600083018661225a565b612441602083018561225a565b61244e604083018461225a565b949350505050565b6000612460612471565b905061246c8282612696565b919050565b6000604051905090565b600067ffffffffffffffff82111561249657612495612725565b5b61249f82612754565b9050602081019050919050565b600081519050919050565b600082825260208201905092915050565b600081905092915050565b60006124de82612626565b91506124e983612626565b9250827fffffffffffffffffffffffffffffffffffffffffffffffffffffffffffffffff0382111561251e5761251d6126c7565b5b828201905092915050565b600061253482612626565b915061253f83612626565b92508261254f5761254e6126f6565b5b828204905092915050565b600061256582612626565b915061257083612626565b9250817fffffffffffffffffffffffffffffffffffffffffffffffffffffffffffffffff04831182151516156125a9576125a86126c7565b5b828202905092915050565b60006125bf82612626565b91506125ca83612626565b9250828210156125dd576125dc6126c7565b5b828203905092915050565b60006125f382612606565b9050919050565b60008115159050919050565b600073ffffffffffffffffffffffffffffffffffffffff82169050919050565b6000819050919050565b600061263b82612642565b9050919050565b600061264d82612606565b9050919050565b82818337600083830152505050565b60005b83811015612681578082015181840152602081019050612666565b83811115612690576000848401525b50505050565b61269f82612754565b810181811067ffffffffffffffff821117156126be576126bd612725565b5b80604052505050565b7f4e487b7100000000000000000000000000000000000000000000000000000000600052601160045260246000fd5b7f4e487b7100000000000000000000000000000000000000000000000000000000600052601260045260246000fd5b7f4e487b7100000000000000000000000000000000000000000000000000000000600052604160045260246000fd5b6000601f19601f8301169050919050565b7f4f776e61626c653a206e6577206f776e657220697320746865207a65726f206160008201527f6464726573730000000000000000000000000000000000000000000000000000602082015250565b7f4f776e61626c653a2063616c6c6572206973206e6f7420746865206f776e6572600082015250565b7f3200000000000000000000000000000000000000000000000000000000000000600082015250565b7f3100000000000000000000000000000000000000000000000000000000000000600082015250565b612838816125e8565b811461284357600080fd5b50565b61284f816125fa565b811461285a57600080fd5b50565b61286681612626565b811461287157600080fd5b5056fea2646970667358221220d99f7fc25bc7e3daa14ecc53067d4feeb6e793b1493b8290ac451c102399315864736f6c63430008040033",
  "linkReferences": {},
  "deployedLinkReferences": {}
}