{
  "_format": "hh-sol-artifact-1",
  "contractName": "TokenFarm",
  "sourceName": "contracts/TokenFarm.sol",
  "abi": [
    {
      "inputs": [],
      "stateMutability": "nonpayable",
      "type": "constructor"
    },
    {
      "anonymous": false,
      "inputs": [
        {
          "indexed": false,
          "internalType": "address",
          "name": "_user",
          "type": "address"
        },
        {
          "indexed": false,
          "internalType": "string",
          "name": "pool",
          "type": "string"
        }
      ],
      "name": "ClaimReward",
      "type": "event"
    },
    {
      "anonymous": false,
      "inputs": [
        {
          "indexed": true,
          "internalType": "address",
          "name": "previousOwner",
          "type": "address"
        },
        {
          "indexed": true,
          "internalType": "address",
          "name": "newOwner",
          "type": "address"
        }
      ],
      "name": "OwnershipTransferred",
      "type": "event"
    },
    {
      "anonymous": false,
      "inputs": [
        {
          "indexed": false,
          "internalType": "address",
          "name": "_user",
          "type": "address"
        },
        {
          "indexed": false,
          "internalType": "uint256",
          "name": "amount",
          "type": "uint256"
        },
        {
          "indexed": false,
          "internalType": "string",
          "name": "pool",
          "type": "string"
        }
      ],
      "name": "Stake",
      "type": "event"
    },
    {
      "anonymous": false,
      "inputs": [
        {
          "indexed": false,
          "internalType": "address",
          "name": "_user",
          "type": "address"
        },
        {
          "indexed": false,
          "internalType": "string",
          "name": "pool",
          "type": "string"
        }
      ],
      "name": "Unstake",
      "type": "event"
    },
    {
      "inputs": [],
      "name": "dbToken",
      "outputs": [
        {
          "internalType": "contract IERC20",
          "name": "",
          "type": "address"
        }
      ],
      "stateMutability": "view",
      "type": "function"
    },
    {
      "inputs": [],
      "name": "defaultPerSec",
      "outputs": [
        {
          "internalType": "uint256",
          "name": "",
          "type": "uint256"
        }
      ],
      "stateMutability": "view",
      "type": "function"
    },
    {
      "inputs": [],
      "name": "defaultRewardPer",
      "outputs": [
        {
          "internalType": "uint256",
          "name": "",
          "type": "uint256"
        }
      ],
      "stateMutability": "view",
      "type": "function"
    },
    {
      "inputs": [
        {
          "internalType": "string",
          "name": "pool",
          "type": "string"
        }
      ],
      "name": "getListStack",
      "outputs": [
        {
          "internalType": "uint256",
          "name": "",
          "type": "uint256"
        },
        {
          "internalType": "uint256",
          "name": "",
          "type": "uint256"
        },
        {
          "internalType": "uint256",
          "name": "",
          "type": "uint256"
        }
      ],
      "stateMutability": "view",
      "type": "function"
    },
    {
      "inputs": [
        {
          "internalType": "string",
          "name": "pool",
          "type": "string"
        },
        {
          "internalType": "address",
          "name": "user",
          "type": "address"
        }
      ],
      "name": "issueToken",
      "outputs": [],
      "stateMutability": "nonpayable",
      "type": "function"
    },
    {
      "inputs": [
        {
          "internalType": "string",
          "name": "",
          "type": "string"
        },
        {
          "internalType": "address",
          "name": "",
          "type": "address"
        }
      ],
      "name": "listStake",
      "outputs": [
        {
          "internalType": "uint256",
          "name": "amount",
          "type": "uint256"
        },
        {
          "internalType": "uint256",
          "name": "stakeTime",
          "type": "uint256"
        },
        {
          "internalType": "uint256",
          "name": "unClaimAmount",
          "type": "uint256"
        }
      ],
      "stateMutability": "view",
      "type": "function"
    },
    {
      "inputs": [],
      "name": "owner",
      "outputs": [
        {
          "internalType": "address",
          "name": "",
          "type": "address"
        }
      ],
      "stateMutability": "view",
      "type": "function"
    },
    {
      "inputs": [
        {
          "internalType": "string",
          "name": "",
          "type": "string"
        }
      ],
      "name": "perSeconds",
      "outputs": [
        {
          "internalType": "uint256",
          "name": "",
          "type": "uint256"
        }
      ],
      "stateMutability": "view",
      "type": "function"
    },
    {
      "inputs": [],
      "name": "renounceOwnership",
      "outputs": [],
      "stateMutability": "nonpayable",
      "type": "function"
    },
    {
      "inputs": [
        {
          "internalType": "string",
          "name": "",
          "type": "string"
        }
      ],
      "name": "rewardPercent",
      "outputs": [
        {
          "internalType": "uint256",
          "name": "",
          "type": "uint256"
        }
      ],
      "stateMutability": "view",
      "type": "function"
    },
    {
      "inputs": [
        {
          "internalType": "uint256",
          "name": "percent",
          "type": "uint256"
        },
        {
          "internalType": "uint256",
          "name": "sec",
          "type": "uint256"
        },
        {
          "internalType": "string",
          "name": "pool",
          "type": "string"
        }
      ],
      "name": "setSplitConfig",
      "outputs": [],
      "stateMutability": "nonpayable",
      "type": "function"
    },
    {
      "inputs": [
        {
          "internalType": "uint256",
          "name": "percent",
          "type": "uint256"
        },
        {
          "internalType": "uint256",
          "name": "sec",
          "type": "uint256"
        }
      ],
      "name": "setSplitConfigDefault",
      "outputs": [],
      "stateMutability": "nonpayable",
      "type": "function"
    },
    {
      "inputs": [
        {
          "internalType": "uint256",
          "name": "_amount",
          "type": "uint256"
        },
        {
          "internalType": "string",
          "name": "pool",
          "type": "string"
        }
      ],
      "name": "stake",
      "outputs": [],
      "stateMutability": "payable",
      "type": "function"
    },
    {
      "inputs": [
        {
          "internalType": "address",
          "name": "newOwner",
          "type": "address"
        }
      ],
      "name": "transferOwnership",
      "outputs": [],
      "stateMutability": "nonpayable",
      "type": "function"
    },
    {
      "inputs": [
        {
          "internalType": "string",
          "name": "pool",
          "type": "string"
        }
      ],
      "name": "unstake",
      "outputs": [],
      "stateMutability": "nonpayable",
      "type": "function"
    },
    {
      "inputs": [
        {
          "internalType": "string",
          "name": "",
          "type": "string"
        },
        {
          "internalType": "uint256",
          "name": "",
          "type": "uint256"
        }
      ],
      "name": "userStake",
      "outputs": [
        {
          "internalType": "address",
          "name": "",
          "type": "address"
        }
      ],
      "stateMutability": "view",
      "type": "function"
    },
    {
      "inputs": [
        {
          "internalType": "string",
          "name": "",
          "type": "string"
        },
        {
          "internalType": "address",
          "name": "",
          "type": "address"
        }
      ],
      "name": "userStakeIndex",
      "outputs": [
        {
          "internalType": "uint256",
          "name": "",
          "type": "uint256"
        }
      ],
      "stateMutability": "view",
      "type": "function"
    }
  ],
  "bytecode": "0x6080604052620f4240600555603c6006553480156200001d57600080fd5b506200003e620000326200009960201b60201c565b620000a160201b60201c565b73aa8adb51329ba9640d86aa10b0f374d97a7b31d9600160006101000a81548173ffffffffffffffffffffffffffffffffffffffff021916908373ffffffffffffffffffffffffffffffffffffffff16021790555062000165565b600033905090565b60008060009054906101000a900473ffffffffffffffffffffffffffffffffffffffff169050816000806101000a81548173ffffffffffffffffffffffffffffffffffffffff021916908373ffffffffffffffffffffffffffffffffffffffff1602179055508173ffffffffffffffffffffffffffffffffffffffff168173ffffffffffffffffffffffffffffffffffffffff167f8be0079c531659141344cd1fd0a4f28419497f9722a3daafe3b4186f6b6457e060405160405180910390a35050565b6128ae80620001756000396000f3fe6080604052600436106100fe5760003560e01c80637848c4d211610095578063c3e0700211610064578063c3e070021461034d578063d8a0ac9714610376578063e7e4e1f71461039f578063f2fde38b146103bb578063fedfc4a7146103e4576100fe565b80637848c4d2146102915780638da5cb5b146102bc5780639a95bbf8146102e75780639cd12fe214610324576100fe565b8063494ed840116100d1578063494ed840146101d35780634dfc07a1146102105780635f00baa71461024f578063715018a61461027a576100fe565b806302dfd7d81461010357806308c8e4a71461012c578063233a15d41461016b57806323cab22d146101a8575b600080fd5b34801561010f57600080fd5b5061012a60048036038101906101259190611fab565b610421565b005b34801561013857600080fd5b50610153600480360381019061014e9190611fab565b610974565b60405161016293929190612423565b60405180910390f35b34801561017757600080fd5b50610192600480360381019061018d9190611f6a565b6109c1565b60405161019f9190612408565b60405180910390f35b3480156101b457600080fd5b506101bd6109ef565b6040516101ca9190612408565b60405180910390f35b3480156101df57600080fd5b506101fa60048036038101906101f59190611fab565b6109f5565b6040516102079190612408565b60405180910390f35b34801561021c57600080fd5b5061023760048036038101906102329190611f6a565b610a30565b60405161024693929190612423565b60405180910390f35b34801561025b57600080fd5b50610264610ad9565b604051610271919061236d565b60405180910390f35b34801561028657600080fd5b5061028f610aff565b005b34801561029d57600080fd5b506102a6610b87565b6040516102b39190612408565b60405180910390f35b3480156102c857600080fd5b506102d1610b8d565b6040516102de9190612284565b60405180910390f35b3480156102f357600080fd5b5061030e60048036038101906103099190611f6a565b610bb6565b60405161031b9190612408565b60405180910390f35b34801561033057600080fd5b5061034b600480360381019061034691906120e3565b610be4565b005b34801561035957600080fd5b50610374600480360381019061036f91906120a7565b610cab565b005b34801561038257600080fd5b5061039d60048036038101906103989190611f6a565b610d39565b005b6103b960048036038101906103b49190612053565b6110fa565b005b3480156103c757600080fd5b506103e260048036038101906103dd9190611f18565b6114b7565b005b3480156103f057600080fd5b5061040b60048036038101906104069190611fff565b6115af565b6040516104189190612284565b60405180910390f35b610429611613565b73ffffffffffffffffffffffffffffffffffffffff16610447610b8d565b73ffffffffffffffffffffffffffffffffffffffff161461049d576040517f08c379a0000000000000000000000000000000000000000000000000000000008152600401610494906123a8565b60405180910390fd5b600042905060006002846040516104b4919061226d565b908152602001604051809103902060008473ffffffffffffffffffffffffffffffffffffffff1673ffffffffffffffffffffffffffffffffffffffff16815260200190815260200160002060010154141561075557600060028460405161051b919061226d565b908152602001604051809103902060008473ffffffffffffffffffffffffffffffffffffffff1673ffffffffffffffffffffffffffffffffffffffff168152602001908152602001600020600201541461075057600160009054906101000a900473ffffffffffffffffffffffffffffffffffffffff1673ffffffffffffffffffffffffffffffffffffffff1663a9059cbb836002866040516105be919061226d565b908152602001604051809103902060008673ffffffffffffffffffffffffffffffffffffffff1673ffffffffffffffffffffffffffffffffffffffff168152602001908152602001600020600201546040518363ffffffff1660e01b815260040161062a929190612306565b602060405180830381600087803b15801561064457600080fd5b505af1158015610658573d6000803e3d6000fd5b505050506040513d601f19601f8201168201806040525081019061067c9190611f41565b50600060028460405161068f919061226d565b908152602001604051809103902060008473ffffffffffffffffffffffffffffffffffffffff1673ffffffffffffffffffffffffffffffffffffffff1681526020019081526020016000206002018190555060006002846040516106f3919061226d565b908152602001604051809103902060008473ffffffffffffffffffffffffffffffffffffffff1673ffffffffffffffffffffffffffffffffffffffff1681526020019081526020016000206000018190555061074f828461161b565b5b610936565b610760828285611920565b80600284604051610771919061226d565b908152602001604051809103902060008473ffffffffffffffffffffffffffffffffffffffff1673ffffffffffffffffffffffffffffffffffffffff16815260200190815260200160002060010181905550600160009054906101000a900473ffffffffffffffffffffffffffffffffffffffff1673ffffffffffffffffffffffffffffffffffffffff1663a9059cbb83600286604051610812919061226d565b908152602001604051809103902060008673ffffffffffffffffffffffffffffffffffffffff1673ffffffffffffffffffffffffffffffffffffffff168152602001908152602001600020600201546040518363ffffffff1660e01b815260040161087e929190612306565b602060405180830381600087803b15801561089857600080fd5b505af11580156108ac573d6000803e3d6000fd5b505050506040513d601f19601f820116820180604052508101906108d09190611f41565b5060006002846040516108e3919061226d565b908152602001604051809103902060008473ffffffffffffffffffffffffffffffffffffffff1673ffffffffffffffffffffffffffffffffffffffff168152602001908152602001600020600201819055505b7fcba7446068a7f71e2b532a0ba605c95565bafc409c53f58a49ab581afbdb8b2b82846040516109679291906122d6565b60405180910390a1505050565b600282805160208101820180518482526020830160208501208183528095505050505050602052806000526040600020600091509150508060000154908060010154908060020154905083565b6008818051602081018201805184825260208301602085012081835280955050505050506000915090505481565b60055481565b600382805160208101820180518482526020830160208501208183528095505050505050602052806000526040600020600091509150505481565b600080600080600285604051610a46919061226d565b908152602001604051809103902060003373ffffffffffffffffffffffffffffffffffffffff1673ffffffffffffffffffffffffffffffffffffffff16815260200190815260200160002060405180606001604052908160008201548152602001600182015481526020016002820154815250509050806000015181602001518260400151935093509350509193909250565b600160009054906101000a900473ffffffffffffffffffffffffffffffffffffffff1681565b610b07611613565b73ffffffffffffffffffffffffffffffffffffffff16610b25610b8d565b73ffffffffffffffffffffffffffffffffffffffff1614610b7b576040517f08c379a0000000000000000000000000000000000000000000000000000000008152600401610b72906123a8565b60405180910390fd5b610b856000611dad565b565b60065481565b60008060009054906101000a900473ffffffffffffffffffffffffffffffffffffffff16905090565b6007818051602081018201805184825260208301602085012081835280955050505050506000915090505481565b610bec611613565b73ffffffffffffffffffffffffffffffffffffffff16610c0a610b8d565b73ffffffffffffffffffffffffffffffffffffffff1614610c60576040517f08c379a0000000000000000000000000000000000000000000000000000000008152600401610c57906123a8565b60405180910390fd5b82600782604051610c71919061226d565b90815260200160405180910390208190555081600882604051610c94919061226d565b908152602001604051809103902081905550505050565b610cb3611613565b73ffffffffffffffffffffffffffffffffffffffff16610cd1610b8d565b73ffffffffffffffffffffffffffffffffffffffff1614610d27576040517f08c379a0000000000000000000000000000000000000000000000000000000008152600401610d1e906123a8565b60405180910390fd5b81600581905550806006819055505050565b6000600382604051610d4b919061226d565b908152602001604051809103902060003373ffffffffffffffffffffffffffffffffffffffff1673ffffffffffffffffffffffffffffffffffffffff168152602001908152602001600020541415610dd8576040517f08c379a0000000000000000000000000000000000000000000000000000000008152600401610dcf906123c8565b60405180910390fd5b6000600282604051610dea919061226d565b908152602001604051809103902060003373ffffffffffffffffffffffffffffffffffffffff1673ffffffffffffffffffffffffffffffffffffffff168152602001908152602001600020600001541415610e7a576040517f08c379a0000000000000000000000000000000000000000000000000000000008152600401610e71906123e8565b60405180910390fd5b600160009054906101000a900473ffffffffffffffffffffffffffffffffffffffff1673ffffffffffffffffffffffffffffffffffffffff1663a9059cbb33600284604051610ec9919061226d565b908152602001604051809103902060003373ffffffffffffffffffffffffffffffffffffffff1673ffffffffffffffffffffffffffffffffffffffff168152602001908152602001600020600001546040518363ffffffff1660e01b8152600401610f35929190612306565b602060405180830381600087803b158015610f4f57600080fd5b505af1158015610f63573d6000803e3d6000fd5b505050506040513d601f19601f82011682018060405250810190610f879190611f41565b506000600282604051610f9a919061226d565b908152602001604051809103902060003373ffffffffffffffffffffffffffffffffffffffff1673ffffffffffffffffffffffffffffffffffffffff168152602001908152602001600020600001819055506000600282604051610ffe919061226d565b908152602001604051809103902060003373ffffffffffffffffffffffffffffffffffffffff1673ffffffffffffffffffffffffffffffffffffffff168152602001908152602001600020600101819055506000600282604051611062919061226d565b908152602001604051809103902060003373ffffffffffffffffffffffffffffffffffffffff1673ffffffffffffffffffffffffffffffffffffffff168152602001908152602001600020600201819055506110be338261161b565b7f89a3e89bc38972f8da648764d6f02dc17ace9e081a46166e46ba6e9483f379d733826040516110ef9291906122d6565b60405180910390a150565b600160009054906101000a900473ffffffffffffffffffffffffffffffffffffffff1673ffffffffffffffffffffffffffffffffffffffff166323b872dd3330856040518463ffffffff1660e01b81526004016111599392919061229f565b602060405180830381600087803b15801561117357600080fd5b505af1158015611187573d6000803e3d6000fd5b505050506040513d601f19601f820116820180604052508101906111ab9190611f41565b50600042905060006002836040516111c3919061226d565b908152602001604051809103902060003373ffffffffffffffffffffffffffffffffffffffff1673ffffffffffffffffffffffffffffffffffffffff168152602001908152602001600020600101541461122757611222338284611920565b61139f565b6000600383604051611239919061226d565b908152602001604051809103902060003373ffffffffffffffffffffffffffffffffffffffff1673ffffffffffffffffffffffffffffffffffffffff16815260200190815260200160002054141561139e57600060048360405161129d919061226d565b90815260200160405180910390208054905090506004836040516112c1919061226d565b9081526020016040518091039020339080600181540180825580915050600190039060005260206000200160009091909190916101000a81548173ffffffffffffffffffffffffffffffffffffffff021916908373ffffffffffffffffffffffffffffffffffffffff16021790555060018161133d91906124d7565b60038460405161134d919061226d565b908152602001604051809103902060003373ffffffffffffffffffffffffffffffffffffffff1673ffffffffffffffffffffffffffffffffffffffff16815260200190815260200160002081905550505b5b806002836040516113b0919061226d565b908152602001604051809103902060003373ffffffffffffffffffffffffffffffffffffffff1673ffffffffffffffffffffffffffffffffffffffff1681526020019081526020016000206001018190555082600283604051611413919061226d565b908152602001604051809103902060003373ffffffffffffffffffffffffffffffffffffffff1673ffffffffffffffffffffffffffffffffffffffff168152602001908152602001600020600001600082825461147091906124d7565b925050819055507f72d0050d8f1a0f19ace5b1f50e8b5333308c60902442b7444a65cfffbad884e73384846040516114aa9392919061232f565b60405180910390a1505050565b6114bf611613565b73ffffffffffffffffffffffffffffffffffffffff166114dd610b8d565b73ffffffffffffffffffffffffffffffffffffffff1614611533576040517f08c379a000000000000000000000000000000000000000000000000000000000815260040161152a906123a8565b60405180910390fd5b600073ffffffffffffffffffffffffffffffffffffffff168173ffffffffffffffffffffffffffffffffffffffff1614156115a3576040517f08c379a000000000000000000000000000000000000000000000000000000000815260040161159a90612388565b60405180910390fd5b6115ac81611dad565b50565b60048280516020810182018051848252602083016020850120818352809550505050505081815481106115e157600080fd5b906000526020600020016000915091509054906101000a900473ffffffffffffffffffffffffffffffffffffffff1681565b600033905090565b600060038260405161162d919061226d565b908152602001604051809103902060008473ffffffffffffffffffffffffffffffffffffffff1673ffffffffffffffffffffffffffffffffffffffff168152602001908152602001600020541461191c5760048160405161168e919061226d565b908152602001604051809103902060016004836040516116ae919061226d565b9081526020016040518091039020805490506116ca91906125b8565b81548110611701577f4e487b7100000000000000000000000000000000000000000000000000000000600052603260045260246000fd5b9060005260206000200160009054906101000a900473ffffffffffffffffffffffffffffffffffffffff1660048260405161173c919061226d565b9081526020016040518091039020600160038460405161175c919061226d565b908152602001604051809103902060008673ffffffffffffffffffffffffffffffffffffffff1673ffffffffffffffffffffffffffffffffffffffff168152602001908152602001600020546117b291906125b8565b815481106117e9577f4e487b7100000000000000000000000000000000000000000000000000000000600052603260045260246000fd5b9060005260206000200160006101000a81548173ffffffffffffffffffffffffffffffffffffffff021916908373ffffffffffffffffffffffffffffffffffffffff160217905550600481604051611841919061226d565b9081526020016040518091039020805480611885577f4e487b7100000000000000000000000000000000000000000000000000000000600052603160045260246000fd5b6001900381819060005260206000200160006101000a81549073ffffffffffffffffffffffffffffffffffffffff0219169055905560006003826040516118cc919061226d565b908152602001604051809103902060008473ffffffffffffffffffffffffffffffffffffffff1673ffffffffffffffffffffffffffffffffffffffff168152602001908152602001600020819055505b5050565b6000600782604051611932919061226d565b908152602001604051809103902054148061196b5750600060088260405161195a919061226d565b908152602001604051809103902054145b15611b64576000600654600283604051611985919061226d565b908152602001604051809103902060008673ffffffffffffffffffffffffffffffffffffffff1673ffffffffffffffffffffffffffffffffffffffff16815260200190815260200160002060010154846119df91906125b8565b6119e9919061252d565b14611b5f576305f5e100600282604051611a03919061226d565b908152602001604051809103902060008573ffffffffffffffffffffffffffffffffffffffff1673ffffffffffffffffffffffffffffffffffffffff16815260200190815260200160002060000154600554600654600285604051611a68919061226d565b908152602001604051809103902060008873ffffffffffffffffffffffffffffffffffffffff1673ffffffffffffffffffffffffffffffffffffffff1681526020019081526020016000206001015486611ac291906125b8565b611acc919061252d565b611ad6919061255e565b611ae0919061255e565b611aea919061252d565b600282604051611afa919061226d565b908152602001604051809103902060008573ffffffffffffffffffffffffffffffffffffffff1673ffffffffffffffffffffffffffffffffffffffff1681526020019081526020016000206002016000828254611b5791906124d7565b925050819055505b611da8565b6000600882604051611b76919061226d565b908152602001604051809103902054600283604051611b95919061226d565b908152602001604051809103902060008673ffffffffffffffffffffffffffffffffffffffff1673ffffffffffffffffffffffffffffffffffffffff1681526020019081526020016000206001015484611bef91906125b8565b611bf9919061252d565b14611da7576305f5e100600282604051611c13919061226d565b908152602001604051809103902060008573ffffffffffffffffffffffffffffffffffffffff1673ffffffffffffffffffffffffffffffffffffffff16815260200190815260200160002060000154600783604051611c72919061226d565b908152602001604051809103902054600884604051611c91919061226d565b908152602001604051809103902054600285604051611cb0919061226d565b908152602001604051809103902060008873ffffffffffffffffffffffffffffffffffffffff1673ffffffffffffffffffffffffffffffffffffffff1681526020019081526020016000206001015486611d0a91906125b8565b611d14919061252d565b611d1e919061255e565b611d28919061255e565b611d32919061252d565b600282604051611d42919061226d565b908152602001604051809103902060008573ffffffffffffffffffffffffffffffffffffffff1673ffffffffffffffffffffffffffffffffffffffff1681526020019081526020016000206002016000828254611d9f91906124d7565b925050819055505b5b505050565b60008060009054906101000a900473ffffffffffffffffffffffffffffffffffffffff169050816000806101000a81548173ffffffffffffffffffffffffffffffffffffffff021916908373ffffffffffffffffffffffffffffffffffffffff1602179055508173ffffffffffffffffffffffffffffffffffffffff168173ffffffffffffffffffffffffffffffffffffffff167f8be0079c531659141344cd1fd0a4f28419497f9722a3daafe3b4186f6b6457e060405160405180910390a35050565b6000611e84611e7f8461247f565b61245a565b905082815260208101848484011115611e9c57600080fd5b611ea7848285612658565b509392505050565b600081359050611ebe81612833565b92915050565b600081519050611ed38161284a565b92915050565b600082601f830112611eea57600080fd5b8135611efa848260208601611e71565b91505092915050565b600081359050611f1281612861565b92915050565b600060208284031215611f2a57600080fd5b6000611f3884828501611eaf565b91505092915050565b600060208284031215611f5357600080fd5b6000611f6184828501611ec4565b91505092915050565b600060208284031215611f7c57600080fd5b600082013567ffffffffffffffff811115611f9657600080fd5b611fa284828501611ed9565b91505092915050565b60008060408385031215611fbe57600080fd5b600083013567ffffffffffffffff811115611fd857600080fd5b611fe485828601611ed9565b9250506020611ff585828601611eaf565b9150509250929050565b6000806040838503121561201257600080fd5b600083013567ffffffffffffffff81111561202c57600080fd5b61203885828601611ed9565b925050602061204985828601611f03565b9150509250929050565b6000806040838503121561206657600080fd5b600061207485828601611f03565b925050602083013567ffffffffffffffff81111561209157600080fd5b61209d85828601611ed9565b9150509250929050565b600080604083850312156120ba57600080fd5b60006120c885828601611f03565b92505060206120d985828601611f03565b9150509250929050565b6000806000606084860312156120f857600080fd5b600061210686828701611f03565b935050602061211786828701611f03565b925050604084013567ffffffffffffffff81111561213457600080fd5b61214086828701611ed9565b9150509250925092565b612153816125ec565b82525050565b61216281612634565b82525050565b6000612173826124b0565b61217d81856124bb565b935061218d818560208601612667565b61219681612758565b840191505092915050565b60006121ac826124b0565b6121b681856124cc565b93506121c6818560208601612667565b80840191505092915050565b60006121df6026836124bb565b91506121ea82612769565b604082019050919050565b60006122026020836124bb565b915061220d826127b8565b602082019050919050565b60006122256001836124bb565b9150612230826127e1565b602082019050919050565b60006122486001836124bb565b91506122538261280a565b602082019050919050565b6122678161262a565b82525050565b600061227982846121a1565b915081905092915050565b6000602082019050612299600083018461214a565b92915050565b60006060820190506122b4600083018661214a565b6122c1602083018561214a565b6122ce604083018461225e565b949350505050565b60006040820190506122eb600083018561214a565b81810360208301526122fd8184612168565b90509392505050565b600060408201905061231b600083018561214a565b612328602083018461225e565b9392505050565b6000606082019050612344600083018661214a565b612351602083018561225e565b81810360408301526123638184612168565b9050949350505050565b60006020820190506123826000830184612159565b92915050565b600060208201905081810360008301526123a1816121d2565b9050919050565b600060208201905081810360008301526123c1816121f5565b9050919050565b600060208201905081810360008301526123e181612218565b9050919050565b600060208201905081810360008301526124018161223b565b9050919050565b600060208201905061241d600083018461225e565b92915050565b6000606082019050612438600083018661225e565b612445602083018561225e565b612452604083018461225e565b949350505050565b6000612464612475565b9050612470828261269a565b919050565b6000604051905090565b600067ffffffffffffffff82111561249a57612499612729565b5b6124a382612758565b9050602081019050919050565b600081519050919050565b600082825260208201905092915050565b600081905092915050565b60006124e28261262a565b91506124ed8361262a565b9250827fffffffffffffffffffffffffffffffffffffffffffffffffffffffffffffffff03821115612522576125216126cb565b5b828201905092915050565b60006125388261262a565b91506125438361262a565b925082612553576125526126fa565b5b828204905092915050565b60006125698261262a565b91506125748361262a565b9250817fffffffffffffffffffffffffffffffffffffffffffffffffffffffffffffffff04831182151516156125ad576125ac6126cb565b5b828202905092915050565b60006125c38261262a565b91506125ce8361262a565b9250828210156125e1576125e06126cb565b5b828203905092915050565b60006125f78261260a565b9050919050565b60008115159050919050565b600073ffffffffffffffffffffffffffffffffffffffff82169050919050565b6000819050919050565b600061263f82612646565b9050919050565b60006126518261260a565b9050919050565b82818337600083830152505050565b60005b8381101561268557808201518184015260208101905061266a565b83811115612694576000848401525b50505050565b6126a382612758565b810181811067ffffffffffffffff821117156126c2576126c1612729565b5b80604052505050565b7f4e487b7100000000000000000000000000000000000000000000000000000000600052601160045260246000fd5b7f4e487b7100000000000000000000000000000000000000000000000000000000600052601260045260246000fd5b7f4e487b7100000000000000000000000000000000000000000000000000000000600052604160045260246000fd5b6000601f19601f8301169050919050565b7f4f776e61626c653a206e6577206f776e657220697320746865207a65726f206160008201527f6464726573730000000000000000000000000000000000000000000000000000602082015250565b7f4f776e61626c653a2063616c6c6572206973206e6f7420746865206f776e6572600082015250565b7f3200000000000000000000000000000000000000000000000000000000000000600082015250565b7f3100000000000000000000000000000000000000000000000000000000000000600082015250565b61283c816125ec565b811461284757600080fd5b50565b612853816125fe565b811461285e57600080fd5b50565b61286a8161262a565b811461287557600080fd5b5056fea2646970667358221220dc1c719bdd469b85abe59bfa321605bd2209e805a40102619cd806cc0205fd7f64736f6c63430008040033",
  "linkReferences": {},
  "deployedLinkReferences": {}
}