{
  "_format": "hh-sol-artifact-1",
  "contractName": "TokenFarm",
  "sourceName": "contracts/TokenFarm.sol",
  "abi": [
    {
      "inputs": [],
      "stateMutability": "nonpayable",
      "type": "constructor"
    },
    {
      "anonymous": false,
      "inputs": [
        {
          "indexed": false,
          "internalType": "address",
          "name": "_user",
          "type": "address"
        },
        {
          "indexed": false,
          "internalType": "string",
          "name": "pool",
          "type": "string"
        }
      ],
      "name": "ClaimReward",
      "type": "event"
    },
    {
      "anonymous": false,
      "inputs": [
        {
          "indexed": true,
          "internalType": "address",
          "name": "previousOwner",
          "type": "address"
        },
        {
          "indexed": true,
          "internalType": "address",
          "name": "newOwner",
          "type": "address"
        }
      ],
      "name": "OwnershipTransferred",
      "type": "event"
    },
    {
      "anonymous": false,
      "inputs": [
        {
          "indexed": false,
          "internalType": "address",
          "name": "_user",
          "type": "address"
        },
        {
          "indexed": false,
          "internalType": "uint256",
          "name": "amount",
          "type": "uint256"
        },
        {
          "indexed": false,
          "internalType": "string",
          "name": "pool",
          "type": "string"
        }
      ],
      "name": "Stake",
      "type": "event"
    },
    {
      "anonymous": false,
      "inputs": [
        {
          "indexed": false,
          "internalType": "address",
          "name": "_user",
          "type": "address"
        },
        {
          "indexed": false,
          "internalType": "string",
          "name": "pool",
          "type": "string"
        },
        {
          "indexed": false,
          "internalType": "uint256",
          "name": "unstakeAmount",
          "type": "uint256"
        }
      ],
      "name": "Unstake",
      "type": "event"
    },
    {
      "inputs": [],
      "name": "dbToken",
      "outputs": [
        {
          "internalType": "contract IERC20",
          "name": "",
          "type": "address"
        }
      ],
      "stateMutability": "view",
      "type": "function"
    },
    {
      "inputs": [],
      "name": "defaultPerSec",
      "outputs": [
        {
          "internalType": "uint256",
          "name": "",
          "type": "uint256"
        }
      ],
      "stateMutability": "view",
      "type": "function"
    },
    {
      "inputs": [],
      "name": "defaultRewardPer",
      "outputs": [
        {
          "internalType": "uint256",
          "name": "",
          "type": "uint256"
        }
      ],
      "stateMutability": "view",
      "type": "function"
    },
    {
      "inputs": [
        {
          "internalType": "string",
          "name": "pool",
          "type": "string"
        }
      ],
      "name": "getListStack",
      "outputs": [
        {
          "internalType": "uint256",
          "name": "",
          "type": "uint256"
        },
        {
          "internalType": "uint256",
          "name": "",
          "type": "uint256"
        },
        {
          "internalType": "uint256",
          "name": "",
          "type": "uint256"
        }
      ],
      "stateMutability": "view",
      "type": "function"
    },
    {
      "inputs": [
        {
          "internalType": "string",
          "name": "pool",
          "type": "string"
        },
        {
          "internalType": "address",
          "name": "user",
          "type": "address"
        }
      ],
      "name": "issueToken",
      "outputs": [],
      "stateMutability": "nonpayable",
      "type": "function"
    },
    {
      "inputs": [
        {
          "internalType": "string",
          "name": "",
          "type": "string"
        },
        {
          "internalType": "address",
          "name": "",
          "type": "address"
        }
      ],
      "name": "listStake",
      "outputs": [
        {
          "internalType": "uint256",
          "name": "amount",
          "type": "uint256"
        },
        {
          "internalType": "uint256",
          "name": "stakeTime",
          "type": "uint256"
        },
        {
          "internalType": "uint256",
          "name": "unClaimAmount",
          "type": "uint256"
        }
      ],
      "stateMutability": "view",
      "type": "function"
    },
    {
      "inputs": [],
      "name": "owner",
      "outputs": [
        {
          "internalType": "address",
          "name": "",
          "type": "address"
        }
      ],
      "stateMutability": "view",
      "type": "function"
    },
    {
      "inputs": [
        {
          "internalType": "string",
          "name": "",
          "type": "string"
        }
      ],
      "name": "perSeconds",
      "outputs": [
        {
          "internalType": "uint256",
          "name": "",
          "type": "uint256"
        }
      ],
      "stateMutability": "view",
      "type": "function"
    },
    {
      "inputs": [],
      "name": "renounceOwnership",
      "outputs": [],
      "stateMutability": "nonpayable",
      "type": "function"
    },
    {
      "inputs": [
        {
          "internalType": "string",
          "name": "",
          "type": "string"
        }
      ],
      "name": "rewardPercent",
      "outputs": [
        {
          "internalType": "uint256",
          "name": "",
          "type": "uint256"
        }
      ],
      "stateMutability": "view",
      "type": "function"
    },
    {
      "inputs": [
        {
          "internalType": "uint256",
          "name": "percent",
          "type": "uint256"
        },
        {
          "internalType": "uint256",
          "name": "sec",
          "type": "uint256"
        },
        {
          "internalType": "string",
          "name": "pool",
          "type": "string"
        }
      ],
      "name": "setSplitConfig",
      "outputs": [],
      "stateMutability": "nonpayable",
      "type": "function"
    },
    {
      "inputs": [
        {
          "internalType": "uint256",
          "name": "percent",
          "type": "uint256"
        },
        {
          "internalType": "uint256",
          "name": "sec",
          "type": "uint256"
        }
      ],
      "name": "setSplitConfigDefault",
      "outputs": [],
      "stateMutability": "nonpayable",
      "type": "function"
    },
    {
      "inputs": [
        {
          "internalType": "uint256",
          "name": "_amount",
          "type": "uint256"
        },
        {
          "internalType": "string",
          "name": "pool",
          "type": "string"
        }
      ],
      "name": "stake",
      "outputs": [],
      "stateMutability": "payable",
      "type": "function"
    },
    {
      "inputs": [
        {
          "internalType": "address",
          "name": "newOwner",
          "type": "address"
        }
      ],
      "name": "transferOwnership",
      "outputs": [],
      "stateMutability": "nonpayable",
      "type": "function"
    },
    {
      "inputs": [
        {
          "internalType": "string",
          "name": "pool",
          "type": "string"
        },
        {
          "internalType": "address",
          "name": "user",
          "type": "address"
        },
        {
          "internalType": "uint256",
          "name": "unstakeAmount",
          "type": "uint256"
        }
      ],
      "name": "unstake",
      "outputs": [],
      "stateMutability": "nonpayable",
      "type": "function"
    },
    {
      "inputs": [
        {
          "internalType": "string",
          "name": "",
          "type": "string"
        },
        {
          "internalType": "uint256",
          "name": "",
          "type": "uint256"
        }
      ],
      "name": "userStake",
      "outputs": [
        {
          "internalType": "address",
          "name": "",
          "type": "address"
        }
      ],
      "stateMutability": "view",
      "type": "function"
    },
    {
      "inputs": [
        {
          "internalType": "string",
          "name": "",
          "type": "string"
        },
        {
          "internalType": "address",
          "name": "",
          "type": "address"
        }
      ],
      "name": "userStakeIndex",
      "outputs": [
        {
          "internalType": "uint256",
          "name": "",
          "type": "uint256"
        }
      ],
      "stateMutability": "view",
      "type": "function"
    }
  ],
  "bytecode": "0x6080604052620f4240600555603c6006553480156200001d57600080fd5b506200003e620000326200009960201b60201c565b620000a160201b60201c565b73aa8adb51329ba9640d86aa10b0f374d97a7b31d9600160006101000a81548173ffffffffffffffffffffffffffffffffffffffff021916908373ffffffffffffffffffffffffffffffffffffffff16021790555062000165565b600033905090565b60008060009054906101000a900473ffffffffffffffffffffffffffffffffffffffff169050816000806101000a81548173ffffffffffffffffffffffffffffffffffffffff021916908373ffffffffffffffffffffffffffffffffffffffff1602179055508173ffffffffffffffffffffffffffffffffffffffff168173ffffffffffffffffffffffffffffffffffffffff167f8be0079c531659141344cd1fd0a4f28419497f9722a3daafe3b4186f6b6457e060405160405180910390a35050565b612e3f80620001756000396000f3fe6080604052600436106100fe5760003560e01c80637848c4d2116100955780639d2e9792116100645780639d2e97921461034d578063c3e0700214610376578063e7e4e1f71461039f578063f2fde38b146103bb578063fedfc4a7146103e4576100fe565b80637848c4d2146102915780638da5cb5b146102bc5780639a95bbf8146102e75780639cd12fe214610324576100fe565b8063494ed840116100d1578063494ed840146101d35780634dfc07a1146102105780635f00baa71461024f578063715018a61461027a576100fe565b806302dfd7d81461010357806308c8e4a71461012c578063233a15d41461016b57806323cab22d146101a8575b600080fd5b34801561010f57600080fd5b5061012a600480360381019061012591906123bf565b610421565b005b34801561013857600080fd5b50610153600480360381019061014e91906123bf565b610980565b60405161016293929190612962565b60405180910390f35b34801561017757600080fd5b50610192600480360381019061018d919061237e565b6109cd565b60405161019f9190612947565b60405180910390f35b3480156101b457600080fd5b506101bd6109fb565b6040516101ca9190612947565b60405180910390f35b3480156101df57600080fd5b506101fa60048036038101906101f591906123bf565b610a01565b6040516102079190612947565b60405180910390f35b34801561021c57600080fd5b506102376004803603810190610232919061237e565b610a3c565b60405161024693929190612962565b60405180910390f35b34801561025b57600080fd5b50610264610ae5565b604051610271919061286c565b60405180910390f35b34801561028657600080fd5b5061028f610b0b565b005b34801561029d57600080fd5b506102a6610b93565b6040516102b39190612947565b60405180910390f35b3480156102c857600080fd5b506102d1610b99565b6040516102de9190612745565b60405180910390f35b3480156102f357600080fd5b5061030e6004803603810190610309919061237e565b610bc2565b60405161031b9190612947565b60405180910390f35b34801561033057600080fd5b5061034b6004803603810190610346919061255e565b610bf0565b005b34801561035957600080fd5b50610374600480360381019061036f9190612413565b610cb7565b005b34801561038257600080fd5b5061039d60048036038101906103989190612522565b611480565b005b6103b960048036038101906103b491906124ce565b61150e565b005b3480156103c757600080fd5b506103e260048036038101906103dd919061232c565b6118cb565b005b3480156103f057600080fd5b5061040b6004803603810190610406919061247a565b6119c3565b6040516104189190612745565b60405180910390f35b610429611a27565b73ffffffffffffffffffffffffffffffffffffffff16610447610b99565b73ffffffffffffffffffffffffffffffffffffffff161461049d576040517f08c379a0000000000000000000000000000000000000000000000000000000008152600401610494906128e7565b60405180910390fd5b600042905060006002846040516104b4919061272e565b908152602001604051809103902060008473ffffffffffffffffffffffffffffffffffffffff1673ffffffffffffffffffffffffffffffffffffffff16815260200190815260200160002060010154141561075b57600060028460405161051b919061272e565b908152602001604051809103902060008473ffffffffffffffffffffffffffffffffffffffff1673ffffffffffffffffffffffffffffffffffffffff1681526020019081526020016000206002015414610756576000600284604051610581919061272e565b908152602001604051809103902060008473ffffffffffffffffffffffffffffffffffffffff1673ffffffffffffffffffffffffffffffffffffffff16815260200190815260200160002060020154905060006002856040516105e4919061272e565b908152602001604051809103902060008573ffffffffffffffffffffffffffffffffffffffff1673ffffffffffffffffffffffffffffffffffffffff168152602001908152602001600020600201819055506000600285604051610648919061272e565b908152602001604051809103902060008573ffffffffffffffffffffffffffffffffffffffff1673ffffffffffffffffffffffffffffffffffffffff16815260200190815260200160002060000181905550600160009054906101000a900473ffffffffffffffffffffffffffffffffffffffff1673ffffffffffffffffffffffffffffffffffffffff1663a9059cbb84836040518363ffffffff1660e01b81526004016106f7929190612805565b602060405180830381600087803b15801561071157600080fd5b505af1158015610725573d6000803e3d6000fd5b505050506040513d601f19601f820116820180604052508101906107499190612355565b506107548385611a2f565b505b610942565b610766828285611d34565b6000600284604051610778919061272e565b908152602001604051809103902060008473ffffffffffffffffffffffffffffffffffffffff1673ffffffffffffffffffffffffffffffffffffffff16815260200190815260200160002060020154905060006002856040516107db919061272e565b908152602001604051809103902060008573ffffffffffffffffffffffffffffffffffffffff1673ffffffffffffffffffffffffffffffffffffffff168152602001908152602001600020600201819055508160028560405161083e919061272e565b908152602001604051809103902060008573ffffffffffffffffffffffffffffffffffffffff1673ffffffffffffffffffffffffffffffffffffffff16815260200190815260200160002060010181905550600160009054906101000a900473ffffffffffffffffffffffffffffffffffffffff1673ffffffffffffffffffffffffffffffffffffffff1663a9059cbb84836040518363ffffffff1660e01b81526004016108ed929190612805565b602060405180830381600087803b15801561090757600080fd5b505af115801561091b573d6000803e3d6000fd5b505050506040513d601f19601f8201168201806040525081019061093f9190612355565b50505b7fcba7446068a7f71e2b532a0ba605c95565bafc409c53f58a49ab581afbdb8b2b8284604051610973929190612797565b60405180910390a1505050565b600282805160208101820180518482526020830160208501208183528095505050505050602052806000526040600020600091509150508060000154908060010154908060020154905083565b6008818051602081018201805184825260208301602085012081835280955050505050506000915090505481565b60055481565b600382805160208101820180518482526020830160208501208183528095505050505050602052806000526040600020600091509150505481565b600080600080600285604051610a52919061272e565b908152602001604051809103902060003373ffffffffffffffffffffffffffffffffffffffff1673ffffffffffffffffffffffffffffffffffffffff16815260200190815260200160002060405180606001604052908160008201548152602001600182015481526020016002820154815250509050806000015181602001518260400151935093509350509193909250565b600160009054906101000a900473ffffffffffffffffffffffffffffffffffffffff1681565b610b13611a27565b73ffffffffffffffffffffffffffffffffffffffff16610b31610b99565b73ffffffffffffffffffffffffffffffffffffffff1614610b87576040517f08c379a0000000000000000000000000000000000000000000000000000000008152600401610b7e906128e7565b60405180910390fd5b610b9160006121c1565b565b60065481565b60008060009054906101000a900473ffffffffffffffffffffffffffffffffffffffff16905090565b6007818051602081018201805184825260208301602085012081835280955050505050506000915090505481565b610bf8611a27565b73ffffffffffffffffffffffffffffffffffffffff16610c16610b99565b73ffffffffffffffffffffffffffffffffffffffff1614610c6c576040517f08c379a0000000000000000000000000000000000000000000000000000000008152600401610c63906128e7565b60405180910390fd5b82600782604051610c7d919061272e565b90815260200160405180910390208190555081600882604051610ca0919061272e565b908152602001604051809103902081905550505050565b8173ffffffffffffffffffffffffffffffffffffffff163373ffffffffffffffffffffffffffffffffffffffff161480610d235750610cf4610b99565b73ffffffffffffffffffffffffffffffffffffffff163373ffffffffffffffffffffffffffffffffffffffff16145b610d62576040517f08c379a0000000000000000000000000000000000000000000000000000000008152600401610d59906128a7565b60405180910390fd5b6000600384604051610d74919061272e565b908152602001604051809103902060008473ffffffffffffffffffffffffffffffffffffffff1673ffffffffffffffffffffffffffffffffffffffff168152602001908152602001600020541415610e01576040517f08c379a0000000000000000000000000000000000000000000000000000000008152600401610df890612907565b60405180910390fd5b6000600284604051610e13919061272e565b908152602001604051809103902060008473ffffffffffffffffffffffffffffffffffffffff1673ffffffffffffffffffffffffffffffffffffffff168152602001908152602001600020600001541415610ea3576040517f08c379a0000000000000000000000000000000000000000000000000000000008152600401610e9a90612927565b60405180910390fd5b600283604051610eb3919061272e565b908152602001604051809103902060008373ffffffffffffffffffffffffffffffffffffffff1673ffffffffffffffffffffffffffffffffffffffff1681526020019081526020016000206000015481111580610f105750600081145b610f4f576040517f08c379a0000000000000000000000000000000000000000000000000000000008152600401610f46906128c7565b60405180910390fd5b60004290506000821480610fc05750600284604051610f6e919061272e565b908152602001604051809103902060008473ffffffffffffffffffffffffffffffffffffffff1673ffffffffffffffffffffffffffffffffffffffff1681526020019081526020016000206000015482145b1561125457610fd0838286611d34565b6000600285604051610fe2919061272e565b908152602001604051809103902060008573ffffffffffffffffffffffffffffffffffffffff1673ffffffffffffffffffffffffffffffffffffffff1681526020019081526020016000206000015490506000600286604051611045919061272e565b908152602001604051809103902060008673ffffffffffffffffffffffffffffffffffffffff1673ffffffffffffffffffffffffffffffffffffffff1681526020019081526020016000206000018190555060006002866040516110a9919061272e565b908152602001604051809103902060008673ffffffffffffffffffffffffffffffffffffffff1673ffffffffffffffffffffffffffffffffffffffff16815260200190815260200160002060010181905550600160009054906101000a900473ffffffffffffffffffffffffffffffffffffffff1673ffffffffffffffffffffffffffffffffffffffff1663a9059cbb85836040518363ffffffff1660e01b8152600401611158929190612805565b602060405180830381600087803b15801561117257600080fd5b505af1158015611186573d6000803e3d6000fd5b505050506040513d601f19601f820116820180604052508101906111aa9190612355565b506111b58486611a2f565b7f0f2358e889cb886ffee699508425d546dead613e3cbdf30e6635913701ca2c8384866002886040516111e8919061272e565b908152602001604051809103902060008873ffffffffffffffffffffffffffffffffffffffff1673ffffffffffffffffffffffffffffffffffffffff16815260200190815260200160002060000154604051611246939291906127c7565b60405180910390a15061147a565b61125f838286611d34565b81600285604051611270919061272e565b908152602001604051809103902060008573ffffffffffffffffffffffffffffffffffffffff1673ffffffffffffffffffffffffffffffffffffffff168152602001908152602001600020600001546112c99190612af7565b6002856040516112d9919061272e565b908152602001604051809103902060008573ffffffffffffffffffffffffffffffffffffffff1673ffffffffffffffffffffffffffffffffffffffff168152602001908152602001600020600001819055508060028560405161133c919061272e565b908152602001604051809103902060008573ffffffffffffffffffffffffffffffffffffffff1673ffffffffffffffffffffffffffffffffffffffff16815260200190815260200160002060010181905550600160009054906101000a900473ffffffffffffffffffffffffffffffffffffffff1673ffffffffffffffffffffffffffffffffffffffff1663a9059cbb84846040518363ffffffff1660e01b81526004016113eb929190612805565b602060405180830381600087803b15801561140557600080fd5b505af1158015611419573d6000803e3d6000fd5b505050506040513d601f19601f8201168201806040525081019061143d9190612355565b507f0f2358e889cb886ffee699508425d546dead613e3cbdf30e6635913701ca2c83838584604051611471939291906127c7565b60405180910390a15b50505050565b611488611a27565b73ffffffffffffffffffffffffffffffffffffffff166114a6610b99565b73ffffffffffffffffffffffffffffffffffffffff16146114fc576040517f08c379a00000000000000000000000000000000000000000000000000000000081526004016114f3906128e7565b60405180910390fd5b81600581905550806006819055505050565b600160009054906101000a900473ffffffffffffffffffffffffffffffffffffffff1673ffffffffffffffffffffffffffffffffffffffff166323b872dd3330856040518463ffffffff1660e01b815260040161156d93929190612760565b602060405180830381600087803b15801561158757600080fd5b505af115801561159b573d6000803e3d6000fd5b505050506040513d601f19601f820116820180604052508101906115bf9190612355565b50600042905060006002836040516115d7919061272e565b908152602001604051809103902060003373ffffffffffffffffffffffffffffffffffffffff1673ffffffffffffffffffffffffffffffffffffffff168152602001908152602001600020600101541461163b57611636338284611d34565b6117b3565b600060038360405161164d919061272e565b908152602001604051809103902060003373ffffffffffffffffffffffffffffffffffffffff1673ffffffffffffffffffffffffffffffffffffffff1681526020019081526020016000205414156117b25760006004836040516116b1919061272e565b90815260200160405180910390208054905090506004836040516116d5919061272e565b9081526020016040518091039020339080600181540180825580915050600190039060005260206000200160009091909190916101000a81548173ffffffffffffffffffffffffffffffffffffffff021916908373ffffffffffffffffffffffffffffffffffffffff1602179055506001816117519190612a16565b600384604051611761919061272e565b908152602001604051809103902060003373ffffffffffffffffffffffffffffffffffffffff1673ffffffffffffffffffffffffffffffffffffffff16815260200190815260200160002081905550505b5b806002836040516117c4919061272e565b908152602001604051809103902060003373ffffffffffffffffffffffffffffffffffffffff1673ffffffffffffffffffffffffffffffffffffffff1681526020019081526020016000206001018190555082600283604051611827919061272e565b908152602001604051809103902060003373ffffffffffffffffffffffffffffffffffffffff1673ffffffffffffffffffffffffffffffffffffffff16815260200190815260200160002060000160008282546118849190612a16565b925050819055507f72d0050d8f1a0f19ace5b1f50e8b5333308c60902442b7444a65cfffbad884e73384846040516118be9392919061282e565b60405180910390a1505050565b6118d3611a27565b73ffffffffffffffffffffffffffffffffffffffff166118f1610b99565b73ffffffffffffffffffffffffffffffffffffffff1614611947576040517f08c379a000000000000000000000000000000000000000000000000000000000815260040161193e906128e7565b60405180910390fd5b600073ffffffffffffffffffffffffffffffffffffffff168173ffffffffffffffffffffffffffffffffffffffff1614156119b7576040517f08c379a00000000000000000000000000000000000000000000000000000000081526004016119ae90612887565b60405180910390fd5b6119c0816121c1565b50565b60048280516020810182018051848252602083016020850120818352809550505050505081815481106119f557600080fd5b906000526020600020016000915091509054906101000a900473ffffffffffffffffffffffffffffffffffffffff1681565b600033905090565b6000600382604051611a41919061272e565b908152602001604051809103902060008473ffffffffffffffffffffffffffffffffffffffff1673ffffffffffffffffffffffffffffffffffffffff1681526020019081526020016000205414611d3057600481604051611aa2919061272e565b90815260200160405180910390206001600483604051611ac2919061272e565b908152602001604051809103902080549050611ade9190612af7565b81548110611b15577f4e487b7100000000000000000000000000000000000000000000000000000000600052603260045260246000fd5b9060005260206000200160009054906101000a900473ffffffffffffffffffffffffffffffffffffffff16600482604051611b50919061272e565b90815260200160405180910390206001600384604051611b70919061272e565b908152602001604051809103902060008673ffffffffffffffffffffffffffffffffffffffff1673ffffffffffffffffffffffffffffffffffffffff16815260200190815260200160002054611bc69190612af7565b81548110611bfd577f4e487b7100000000000000000000000000000000000000000000000000000000600052603260045260246000fd5b9060005260206000200160006101000a81548173ffffffffffffffffffffffffffffffffffffffff021916908373ffffffffffffffffffffffffffffffffffffffff160217905550600481604051611c55919061272e565b9081526020016040518091039020805480611c99577f4e487b7100000000000000000000000000000000000000000000000000000000600052603160045260246000fd5b6001900381819060005260206000200160006101000a81549073ffffffffffffffffffffffffffffffffffffffff021916905590556000600382604051611ce0919061272e565b908152602001604051809103902060008473ffffffffffffffffffffffffffffffffffffffff1673ffffffffffffffffffffffffffffffffffffffff168152602001908152602001600020819055505b5050565b6000600782604051611d46919061272e565b9081526020016040518091039020541480611d7f57506000600882604051611d6e919061272e565b908152602001604051809103902054145b15611f78576000600654600283604051611d99919061272e565b908152602001604051809103902060008673ffffffffffffffffffffffffffffffffffffffff1673ffffffffffffffffffffffffffffffffffffffff1681526020019081526020016000206001015484611df39190612af7565b611dfd9190612a6c565b14611f73576305f5e100600282604051611e17919061272e565b908152602001604051809103902060008573ffffffffffffffffffffffffffffffffffffffff1673ffffffffffffffffffffffffffffffffffffffff16815260200190815260200160002060000154600554600654600285604051611e7c919061272e565b908152602001604051809103902060008873ffffffffffffffffffffffffffffffffffffffff1673ffffffffffffffffffffffffffffffffffffffff1681526020019081526020016000206001015486611ed69190612af7565b611ee09190612a6c565b611eea9190612a9d565b611ef49190612a9d565b611efe9190612a6c565b600282604051611f0e919061272e565b908152602001604051809103902060008573ffffffffffffffffffffffffffffffffffffffff1673ffffffffffffffffffffffffffffffffffffffff1681526020019081526020016000206002016000828254611f6b9190612a16565b925050819055505b6121bc565b6000600882604051611f8a919061272e565b908152602001604051809103902054600283604051611fa9919061272e565b908152602001604051809103902060008673ffffffffffffffffffffffffffffffffffffffff1673ffffffffffffffffffffffffffffffffffffffff16815260200190815260200160002060010154846120039190612af7565b61200d9190612a6c565b146121bb576305f5e100600282604051612027919061272e565b908152602001604051809103902060008573ffffffffffffffffffffffffffffffffffffffff1673ffffffffffffffffffffffffffffffffffffffff16815260200190815260200160002060000154600783604051612086919061272e565b9081526020016040518091039020546008846040516120a5919061272e565b9081526020016040518091039020546002856040516120c4919061272e565b908152602001604051809103902060008873ffffffffffffffffffffffffffffffffffffffff1673ffffffffffffffffffffffffffffffffffffffff168152602001908152602001600020600101548661211e9190612af7565b6121289190612a6c565b6121329190612a9d565b61213c9190612a9d565b6121469190612a6c565b600282604051612156919061272e565b908152602001604051809103902060008573ffffffffffffffffffffffffffffffffffffffff1673ffffffffffffffffffffffffffffffffffffffff16815260200190815260200160002060020160008282546121b39190612a16565b925050819055505b5b505050565b60008060009054906101000a900473ffffffffffffffffffffffffffffffffffffffff169050816000806101000a81548173ffffffffffffffffffffffffffffffffffffffff021916908373ffffffffffffffffffffffffffffffffffffffff1602179055508173ffffffffffffffffffffffffffffffffffffffff168173ffffffffffffffffffffffffffffffffffffffff167f8be0079c531659141344cd1fd0a4f28419497f9722a3daafe3b4186f6b6457e060405160405180910390a35050565b6000612298612293846129be565b612999565b9050828152602081018484840111156122b057600080fd5b6122bb848285612b97565b509392505050565b6000813590506122d281612dc4565b92915050565b6000815190506122e781612ddb565b92915050565b600082601f8301126122fe57600080fd5b813561230e848260208601612285565b91505092915050565b60008135905061232681612df2565b92915050565b60006020828403121561233e57600080fd5b600061234c848285016122c3565b91505092915050565b60006020828403121561236757600080fd5b6000612375848285016122d8565b91505092915050565b60006020828403121561239057600080fd5b600082013567ffffffffffffffff8111156123aa57600080fd5b6123b6848285016122ed565b91505092915050565b600080604083850312156123d257600080fd5b600083013567ffffffffffffffff8111156123ec57600080fd5b6123f8858286016122ed565b9250506020612409858286016122c3565b9150509250929050565b60008060006060848603121561242857600080fd5b600084013567ffffffffffffffff81111561244257600080fd5b61244e868287016122ed565b935050602061245f868287016122c3565b925050604061247086828701612317565b9150509250925092565b6000806040838503121561248d57600080fd5b600083013567ffffffffffffffff8111156124a757600080fd5b6124b3858286016122ed565b92505060206124c485828601612317565b9150509250929050565b600080604083850312156124e157600080fd5b60006124ef85828601612317565b925050602083013567ffffffffffffffff81111561250c57600080fd5b612518858286016122ed565b9150509250929050565b6000806040838503121561253557600080fd5b600061254385828601612317565b925050602061255485828601612317565b9150509250929050565b60008060006060848603121561257357600080fd5b600061258186828701612317565b935050602061259286828701612317565b925050604084013567ffffffffffffffff8111156125af57600080fd5b6125bb868287016122ed565b9150509250925092565b6125ce81612b2b565b82525050565b6125dd81612b73565b82525050565b60006125ee826129ef565b6125f881856129fa565b9350612608818560208601612ba6565b61261181612c97565b840191505092915050565b6000612627826129ef565b6126318185612a0b565b9350612641818560208601612ba6565b80840191505092915050565b600061265a6026836129fa565b915061266582612ca8565b604082019050919050565b600061267d6002836129fa565b915061268882612cf7565b602082019050919050565b60006126a06002836129fa565b91506126ab82612d20565b602082019050919050565b60006126c36020836129fa565b91506126ce82612d49565b602082019050919050565b60006126e66001836129fa565b91506126f182612d72565b602082019050919050565b60006127096001836129fa565b915061271482612d9b565b602082019050919050565b61272881612b69565b82525050565b600061273a828461261c565b915081905092915050565b600060208201905061275a60008301846125c5565b92915050565b600060608201905061277560008301866125c5565b61278260208301856125c5565b61278f604083018461271f565b949350505050565b60006040820190506127ac60008301856125c5565b81810360208301526127be81846125e3565b90509392505050565b60006060820190506127dc60008301866125c5565b81810360208301526127ee81856125e3565b90506127fd604083018461271f565b949350505050565b600060408201905061281a60008301856125c5565b612827602083018461271f565b9392505050565b600060608201905061284360008301866125c5565b612850602083018561271f565b818103604083015261286281846125e3565b9050949350505050565b600060208201905061288160008301846125d4565b92915050565b600060208201905081810360008301526128a08161264d565b9050919050565b600060208201905081810360008301526128c081612670565b9050919050565b600060208201905081810360008301526128e081612693565b9050919050565b60006020820190508181036000830152612900816126b6565b9050919050565b60006020820190508181036000830152612920816126d9565b9050919050565b60006020820190508181036000830152612940816126fc565b9050919050565b600060208201905061295c600083018461271f565b92915050565b6000606082019050612977600083018661271f565b612984602083018561271f565b612991604083018461271f565b949350505050565b60006129a36129b4565b90506129af8282612bd9565b919050565b6000604051905090565b600067ffffffffffffffff8211156129d9576129d8612c68565b5b6129e282612c97565b9050602081019050919050565b600081519050919050565b600082825260208201905092915050565b600081905092915050565b6000612a2182612b69565b9150612a2c83612b69565b9250827fffffffffffffffffffffffffffffffffffffffffffffffffffffffffffffffff03821115612a6157612a60612c0a565b5b828201905092915050565b6000612a7782612b69565b9150612a8283612b69565b925082612a9257612a91612c39565b5b828204905092915050565b6000612aa882612b69565b9150612ab383612b69565b9250817fffffffffffffffffffffffffffffffffffffffffffffffffffffffffffffffff0483118215151615612aec57612aeb612c0a565b5b828202905092915050565b6000612b0282612b69565b9150612b0d83612b69565b925082821015612b2057612b1f612c0a565b5b828203905092915050565b6000612b3682612b49565b9050919050565b60008115159050919050565b600073ffffffffffffffffffffffffffffffffffffffff82169050919050565b6000819050919050565b6000612b7e82612b85565b9050919050565b6000612b9082612b49565b9050919050565b82818337600083830152505050565b60005b83811015612bc4578082015181840152602081019050612ba9565b83811115612bd3576000848401525b50505050565b612be282612c97565b810181811067ffffffffffffffff82111715612c0157612c00612c68565b5b80604052505050565b7f4e487b7100000000000000000000000000000000000000000000000000000000600052601160045260246000fd5b7f4e487b7100000000000000000000000000000000000000000000000000000000600052601260045260246000fd5b7f4e487b7100000000000000000000000000000000000000000000000000000000600052604160045260246000fd5b6000601f19601f8301169050919050565b7f4f776e61626c653a206e6577206f776e657220697320746865207a65726f206160008201527f6464726573730000000000000000000000000000000000000000000000000000602082015250565b7f3137000000000000000000000000000000000000000000000000000000000000600082015250565b7f3138000000000000000000000000000000000000000000000000000000000000600082015250565b7f4f776e61626c653a2063616c6c6572206973206e6f7420746865206f776e6572600082015250565b7f3200000000000000000000000000000000000000000000000000000000000000600082015250565b7f3100000000000000000000000000000000000000000000000000000000000000600082015250565b612dcd81612b2b565b8114612dd857600080fd5b50565b612de481612b3d565b8114612def57600080fd5b50565b612dfb81612b69565b8114612e0657600080fd5b5056fea2646970667358221220fadbee863d6a8d8554d39a406de42c32eb79b74fc105595f98a9e62103490fef64736f6c63430008040033",
  "linkReferences": {},
  "deployedLinkReferences": {}
}