{
  "_format": "hh-sol-artifact-1",
  "contractName": "DbAudio",
  "sourceName": "contracts/DbAudio.sol",
  "abi": [
    {
      "inputs": [],
      "stateMutability": "nonpayable",
      "type": "constructor"
    },
    {
      "anonymous": false,
      "inputs": [
        {
          "indexed": true,
          "internalType": "address",
          "name": "owner",
          "type": "address"
        },
        {
          "indexed": true,
          "internalType": "address",
          "name": "approved",
          "type": "address"
        },
        {
          "indexed": true,
          "internalType": "uint256",
          "name": "tokenId",
          "type": "uint256"
        }
      ],
      "name": "Approval",
      "type": "event"
    },
    {
      "anonymous": false,
      "inputs": [
        {
          "indexed": true,
          "internalType": "address",
          "name": "owner",
          "type": "address"
        },
        {
          "indexed": true,
          "internalType": "address",
          "name": "operator",
          "type": "address"
        },
        {
          "indexed": false,
          "internalType": "bool",
          "name": "approved",
          "type": "bool"
        }
      ],
      "name": "ApprovalForAll",
      "type": "event"
    },
    {
      "anonymous": false,
      "inputs": [
        {
          "indexed": true,
          "internalType": "address",
          "name": "previousOwner",
          "type": "address"
        },
        {
          "indexed": true,
          "internalType": "address",
          "name": "newOwner",
          "type": "address"
        }
      ],
      "name": "OwnershipTransferred",
      "type": "event"
    },
    {
      "anonymous": false,
      "inputs": [
        {
          "indexed": true,
          "internalType": "address",
          "name": "from",
          "type": "address"
        },
        {
          "indexed": true,
          "internalType": "address",
          "name": "to",
          "type": "address"
        },
        {
          "indexed": true,
          "internalType": "uint256",
          "name": "tokenId",
          "type": "uint256"
        }
      ],
      "name": "Transfer",
      "type": "event"
    },
    {
      "inputs": [
        {
          "internalType": "address",
          "name": "to",
          "type": "address"
        },
        {
          "internalType": "uint256",
          "name": "tokenId",
          "type": "uint256"
        }
      ],
      "name": "approve",
      "outputs": [],
      "stateMutability": "nonpayable",
      "type": "function"
    },
    {
      "inputs": [
        {
          "internalType": "address",
          "name": "owner",
          "type": "address"
        }
      ],
      "name": "balanceOf",
      "outputs": [
        {
          "internalType": "uint256",
          "name": "",
          "type": "uint256"
        }
      ],
      "stateMutability": "view",
      "type": "function"
    },
    {
      "inputs": [
        {
          "internalType": "string",
          "name": "uri",
          "type": "string"
        }
      ],
      "name": "bid",
      "outputs": [],
      "stateMutability": "payable",
      "type": "function"
    },
    {
      "inputs": [],
      "name": "biddingFee",
      "outputs": [
        {
          "internalType": "uint256",
          "name": "",
          "type": "uint256"
        }
      ],
      "stateMutability": "view",
      "type": "function"
    },
    {
      "inputs": [
        {
          "internalType": "string",
          "name": "uri",
          "type": "string"
        },
        {
          "internalType": "uint256",
          "name": "startPrice",
          "type": "uint256"
        },
        {
          "internalType": "uint256",
          "name": "startTime",
          "type": "uint256"
        },
        {
          "internalType": "uint256",
          "name": "endTime",
          "type": "uint256"
        }
      ],
      "name": "createBidding",
      "outputs": [],
      "stateMutability": "payable",
      "type": "function"
    },
    {
      "inputs": [
        {
          "internalType": "string",
          "name": "uri",
          "type": "string"
        },
        {
          "internalType": "string",
          "name": "name",
          "type": "string"
        },
        {
          "internalType": "uint256",
          "name": "price",
          "type": "uint256"
        }
      ],
      "name": "createNFT",
      "outputs": [
        {
          "internalType": "uint256",
          "name": "",
          "type": "uint256"
        }
      ],
      "stateMutability": "nonpayable",
      "type": "function"
    },
    {
      "inputs": [
        {
          "internalType": "uint256",
          "name": "tokenId",
          "type": "uint256"
        }
      ],
      "name": "getApproved",
      "outputs": [
        {
          "internalType": "address",
          "name": "",
          "type": "address"
        }
      ],
      "stateMutability": "view",
      "type": "function"
    },
    {
      "inputs": [
        {
          "internalType": "uint256",
          "name": "",
          "type": "uint256"
        }
      ],
      "name": "indexOfToken",
      "outputs": [
        {
          "internalType": "uint256",
          "name": "",
          "type": "uint256"
        }
      ],
      "stateMutability": "view",
      "type": "function"
    },
    {
      "inputs": [
        {
          "internalType": "address",
          "name": "owner",
          "type": "address"
        },
        {
          "internalType": "address",
          "name": "operator",
          "type": "address"
        }
      ],
      "name": "isApprovedForAll",
      "outputs": [
        {
          "internalType": "bool",
          "name": "",
          "type": "bool"
        }
      ],
      "stateMutability": "view",
      "type": "function"
    },
    {
      "inputs": [
        {
          "internalType": "string",
          "name": "",
          "type": "string"
        }
      ],
      "name": "listNFT",
      "outputs": [
        {
          "internalType": "address",
          "name": "owner",
          "type": "address"
        },
        {
          "internalType": "string",
          "name": "url",
          "type": "string"
        },
        {
          "internalType": "string",
          "name": "name",
          "type": "string"
        },
        {
          "internalType": "uint256",
          "name": "price",
          "type": "uint256"
        },
        {
          "internalType": "enum DbAudio.AudioStatus",
          "name": "status",
          "type": "uint8"
        },
        {
          "internalType": "uint256",
          "name": "currentBidding",
          "type": "uint256"
        }
      ],
      "stateMutability": "view",
      "type": "function"
    },
    {
      "inputs": [
        {
          "internalType": "address",
          "name": "",
          "type": "address"
        },
        {
          "internalType": "uint256",
          "name": "",
          "type": "uint256"
        }
      ],
      "name": "listOwnToken",
      "outputs": [
        {
          "internalType": "uint256",
          "name": "",
          "type": "uint256"
        }
      ],
      "stateMutability": "view",
      "type": "function"
    },
    {
      "inputs": [],
      "name": "name",
      "outputs": [
        {
          "internalType": "string",
          "name": "",
          "type": "string"
        }
      ],
      "stateMutability": "view",
      "type": "function"
    },
    {
      "inputs": [],
      "name": "owner",
      "outputs": [
        {
          "internalType": "address",
          "name": "",
          "type": "address"
        }
      ],
      "stateMutability": "view",
      "type": "function"
    },
    {
      "inputs": [
        {
          "internalType": "uint256",
          "name": "tokenId",
          "type": "uint256"
        }
      ],
      "name": "ownerOf",
      "outputs": [
        {
          "internalType": "address",
          "name": "",
          "type": "address"
        }
      ],
      "stateMutability": "view",
      "type": "function"
    },
    {
      "inputs": [],
      "name": "renounceOwnership",
      "outputs": [],
      "stateMutability": "nonpayable",
      "type": "function"
    },
    {
      "inputs": [
        {
          "internalType": "address",
          "name": "from",
          "type": "address"
        },
        {
          "internalType": "address",
          "name": "to",
          "type": "address"
        },
        {
          "internalType": "uint256",
          "name": "tokenId",
          "type": "uint256"
        }
      ],
      "name": "safeTransferFrom",
      "outputs": [],
      "stateMutability": "nonpayable",
      "type": "function"
    },
    {
      "inputs": [
        {
          "internalType": "address",
          "name": "from",
          "type": "address"
        },
        {
          "internalType": "address",
          "name": "to",
          "type": "address"
        },
        {
          "internalType": "uint256",
          "name": "tokenId",
          "type": "uint256"
        },
        {
          "internalType": "bytes",
          "name": "_data",
          "type": "bytes"
        }
      ],
      "name": "safeTransferFrom",
      "outputs": [],
      "stateMutability": "nonpayable",
      "type": "function"
    },
    {
      "inputs": [
        {
          "internalType": "address",
          "name": "operator",
          "type": "address"
        },
        {
          "internalType": "bool",
          "name": "approved",
          "type": "bool"
        }
      ],
      "name": "setApprovalForAll",
      "outputs": [],
      "stateMutability": "nonpayable",
      "type": "function"
    },
    {
      "inputs": [
        {
          "internalType": "string",
          "name": "uri",
          "type": "string"
        },
        {
          "internalType": "uint256",
          "name": "price",
          "type": "uint256"
        }
      ],
      "name": "setPriceNFT",
      "outputs": [],
      "stateMutability": "nonpayable",
      "type": "function"
    },
    {
      "inputs": [
        {
          "internalType": "uint256",
          "name": "share",
          "type": "uint256"
        }
      ],
      "name": "setSharePercent",
      "outputs": [],
      "stateMutability": "nonpayable",
      "type": "function"
    },
    {
      "inputs": [
        {
          "internalType": "uint256",
          "name": "money",
          "type": "uint256"
        }
      ],
      "name": "setbiddingFee",
      "outputs": [],
      "stateMutability": "nonpayable",
      "type": "function"
    },
    {
      "inputs": [
        {
          "internalType": "string",
          "name": "uri",
          "type": "string"
        }
      ],
      "name": "settleBiddingSession",
      "outputs": [],
      "stateMutability": "nonpayable",
      "type": "function"
    },
    {
      "inputs": [],
      "name": "sharePercent",
      "outputs": [
        {
          "internalType": "uint256",
          "name": "",
          "type": "uint256"
        }
      ],
      "stateMutability": "view",
      "type": "function"
    },
    {
      "inputs": [
        {
          "internalType": "bytes4",
          "name": "interfaceId",
          "type": "bytes4"
        }
      ],
      "name": "supportsInterface",
      "outputs": [
        {
          "internalType": "bool",
          "name": "",
          "type": "bool"
        }
      ],
      "stateMutability": "view",
      "type": "function"
    },
    {
      "inputs": [],
      "name": "symbol",
      "outputs": [
        {
          "internalType": "string",
          "name": "",
          "type": "string"
        }
      ],
      "stateMutability": "view",
      "type": "function"
    },
    {
      "inputs": [
        {
          "internalType": "string",
          "name": "",
          "type": "string"
        }
      ],
      "name": "tokenIdMapping",
      "outputs": [
        {
          "internalType": "uint256",
          "name": "",
          "type": "uint256"
        }
      ],
      "stateMutability": "view",
      "type": "function"
    },
    {
      "inputs": [
        {
          "internalType": "uint256",
          "name": "tokenId",
          "type": "uint256"
        }
      ],
      "name": "tokenURI",
      "outputs": [
        {
          "internalType": "string",
          "name": "",
          "type": "string"
        }
      ],
      "stateMutability": "view",
      "type": "function"
    },
    {
      "inputs": [
        {
          "internalType": "address",
          "name": "from",
          "type": "address"
        },
        {
          "internalType": "address",
          "name": "to",
          "type": "address"
        },
        {
          "internalType": "uint256",
          "name": "tokenId",
          "type": "uint256"
        }
      ],
      "name": "transferFrom",
      "outputs": [],
      "stateMutability": "nonpayable",
      "type": "function"
    },
    {
      "inputs": [
        {
          "internalType": "string",
          "name": "uri",
          "type": "string"
        },
        {
          "internalType": "address",
          "name": "to",
          "type": "address"
        }
      ],
      "name": "transferNFT",
      "outputs": [],
      "stateMutability": "nonpayable",
      "type": "function"
    },
    {
      "inputs": [
        {
          "internalType": "address",
          "name": "newOwner",
          "type": "address"
        }
      ],
      "name": "transferOwnership",
      "outputs": [],
      "stateMutability": "nonpayable",
      "type": "function"
    },
    {
      "inputs": [
        {
          "internalType": "uint256",
          "name": "money",
          "type": "uint256"
        }
      ],
      "name": "withDrawAll",
      "outputs": [],
      "stateMutability": "nonpayable",
      "type": "function"
    }
  ],
  "bytecode": "0x60806040523480156200001157600080fd5b506040518060400160405280600981526020017f44656369626c696e6700000000000000000000000000000000000000000000008152506040518060400160405280600281526020017f4442000000000000000000000000000000000000000000000000000000000000815250816000908051906020019062000096929190620001b8565b508060019080519060200190620000af929190620001b8565b505050620000d2620000c6620000ea60201b60201c565b620000f260201b60201c565b6000600d81905550622dc6c0600e81905550620002cd565b600033905090565b6000600660009054906101000a900473ffffffffffffffffffffffffffffffffffffffff16905081600660006101000a81548173ffffffffffffffffffffffffffffffffffffffff021916908373ffffffffffffffffffffffffffffffffffffffff1602179055508173ffffffffffffffffffffffffffffffffffffffff168173ffffffffffffffffffffffffffffffffffffffff167f8be0079c531659141344cd1fd0a4f28419497f9722a3daafe3b4186f6b6457e060405160405180910390a35050565b828054620001c69062000268565b90600052602060002090601f016020900481019282620001ea576000855562000236565b82601f106200020557805160ff191683800117855562000236565b8280016001018555821562000236579182015b828111156200023557825182559160200191906001019062000218565b5b50905062000245919062000249565b5090565b5b80821115620002645760008160009055506001016200024a565b5090565b600060028204905060018216806200028157607f821691505b602082108114156200029857620002976200029e565b5b50919050565b7f4e487b7100000000000000000000000000000000000000000000000000000000600052602260045260246000fd5b615cb480620002dd6000396000f3fe6080604052600436106101d85760003560e01c80637aef951c11610102578063b88eabdd11610095578063d8189e0511610064578063d8189e05146106c7578063e985e9c514610704578063f2fde38b14610741578063ff41edbc1461076a576101d8565b8063b88eabdd146105f9578063c15edf5f14610636578063c87b56dd14610661578063cf023fdd1461069e576101d8565b8063a22cb465116100d1578063a22cb46514610555578063a818e0c81461057e578063ab8a8020146105a7578063b88d4fde146105d0576101d8565b80637aef951c146104ba57806386d060fe146104d65780638da5cb5b146104ff57806395d89b411461052a576101d8565b806342842e0e1161017a5780635ffd9d07116101495780635ffd9d07146103ec5780636352211e1461042957806370a0823114610466578063715018a6146104a3576101d8565b806342842e0e1461033a5780634387330e1461036357806348005848146103a557806349706de7146103c1576101d8565b8063095ea7b3116101b6578063095ea7b31461028257806323b872dd146102ab5780633241d34a146102d4578063411e9ef214610311576101d8565b806301ffc9a7146101dd57806306fdde031461021a578063081812fc14610245575b600080fd5b3480156101e957600080fd5b5061020460048036038101906101ff9190614121565b610793565b6040516102119190614ace565b60405180910390f35b34801561022657600080fd5b5061022f610875565b60405161023c9190614ae9565b60405180910390f35b34801561025157600080fd5b5061026c60048036038101906102679190614356565b610907565b60405161027991906149f8565b60405180910390f35b34801561028e57600080fd5b506102a960048036038101906102a491906140e5565b61098c565b005b3480156102b757600080fd5b506102d260048036038101906102cd9190613fdf565b610aa4565b005b3480156102e057600080fd5b506102fb60048036038101906102f69190614208565b610d73565b6040516103089190614f6b565b60405180910390f35b34801561031d57600080fd5b5061033860048036038101906103339190614356565b6110a8565b005b34801561034657600080fd5b50610361600480360381019061035c9190613fdf565b61117f565b005b34801561036f57600080fd5b5061038a60048036038101906103859190614173565b61119f565b60405161039c96959493929190614a5f565b60405180910390f35b6103bf60048036038101906103ba91906142db565b61132e565b005b3480156103cd57600080fd5b506103d661182c565b6040516103e39190614f6b565b60405180910390f35b3480156103f857600080fd5b50610413600480360381019061040e9190614356565b611832565b6040516104209190614f6b565b60405180910390f35b34801561043557600080fd5b50610450600480360381019061044b9190614356565b61184a565b60405161045d91906149f8565b60405180910390f35b34801561047257600080fd5b5061048d60048036038101906104889190613f7a565b6118fc565b60405161049a9190614f6b565b60405180910390f35b3480156104af57600080fd5b506104b86119b4565b005b6104d460048036038101906104cf9190614173565b611a3c565b005b3480156104e257600080fd5b506104fd60048036038101906104f89190614356565b611e6e565b005b34801561050b57600080fd5b50610514611ef4565b60405161052191906149f8565b60405180910390f35b34801561053657600080fd5b5061053f611f1e565b60405161054c9190614ae9565b60405180910390f35b34801561056157600080fd5b5061057c600480360381019061057791906140a9565b611fb0565b005b34801561058a57600080fd5b506105a560048036038101906105a09190614287565b611fc6565b005b3480156105b357600080fd5b506105ce60048036038101906105c99190614356565b612088565b005b3480156105dc57600080fd5b506105f760048036038101906105f2919061402e565b61214e565b005b34801561060557600080fd5b50610620600480360381019061061b9190614173565b61241f565b60405161062d9190614f6b565b60405180910390f35b34801561064257600080fd5b5061064b61244d565b6040516106589190614f6b565b60405180910390f35b34801561066d57600080fd5b5061068860048036038101906106839190614356565b612453565b6040516106959190614ae9565b60405180910390f35b3480156106aa57600080fd5b506106c560048036038101906106c091906141b4565b612465565b005b3480156106d357600080fd5b506106ee60048036038101906106e991906140e5565b6125eb565b6040516106fb9190614f6b565b60405180910390f35b34801561071057600080fd5b5061072b60048036038101906107269190613fa3565b61261c565b6040516107389190614ace565b60405180910390f35b34801561074d57600080fd5b5061076860048036038101906107639190613f7a565b6126b0565b005b34801561077657600080fd5b50610791600480360381019061078c9190614173565b6127a8565b005b60007f80ac58cd000000000000000000000000000000000000000000000000000000007bffffffffffffffffffffffffffffffffffffffffffffffffffffffff1916827bffffffffffffffffffffffffffffffffffffffffffffffffffffffff1916148061085e57507f5b5e139f000000000000000000000000000000000000000000000000000000007bffffffffffffffffffffffffffffffffffffffffffffffffffffffff1916827bffffffffffffffffffffffffffffffffffffffffffffffffffffffff1916145b8061086e575061086d82612d7e565b5b9050919050565b60606000805461088490615260565b80601f01602080910402602001604051908101604052809291908181526020018280546108b090615260565b80156108fd5780601f106108d2576101008083540402835291602001916108fd565b820191906000526020600020905b8154815290600101906020018083116108e057829003601f168201915b5050505050905090565b600061091282612de8565b610951576040517f08c379a000000000000000000000000000000000000000000000000000000000815260040161094890614e0b565b60405180910390fd5b6004600083815260200190815260200160002060009054906101000a900473ffffffffffffffffffffffffffffffffffffffff169050919050565b60006109978261184a565b90508073ffffffffffffffffffffffffffffffffffffffff168373ffffffffffffffffffffffffffffffffffffffff161415610a08576040517f08c379a00000000000000000000000000000000000000000000000000000000081526004016109ff90614e8b565b60405180910390fd5b8073ffffffffffffffffffffffffffffffffffffffff16610a27612e54565b73ffffffffffffffffffffffffffffffffffffffff161480610a565750610a5581610a50612e54565b61261c565b5b610a95576040517f08c379a0000000000000000000000000000000000000000000000000000000008152600401610a8c90614ceb565b60405180910390fd5b610a9f8383612e5c565b505050565b600b60008373ffffffffffffffffffffffffffffffffffffffff1673ffffffffffffffffffffffffffffffffffffffff168152602001908152602001600020819080600181540180825580915050600190039060005260206000200160009091909190915055600b60008473ffffffffffffffffffffffffffffffffffffffff1673ffffffffffffffffffffffffffffffffffffffff1681526020019081526020016000206001600b60008673ffffffffffffffffffffffffffffffffffffffff1673ffffffffffffffffffffffffffffffffffffffff16815260200190815260200160002080549050610b989190615151565b81548110610bcf577f4e487b7100000000000000000000000000000000000000000000000000000000600052603260045260246000fd5b9060005260206000200154600b60008573ffffffffffffffffffffffffffffffffffffffff1673ffffffffffffffffffffffffffffffffffffffff168152602001908152602001600020600c60008481526020019081526020016000205481548110610c64577f4e487b7100000000000000000000000000000000000000000000000000000000600052603260045260246000fd5b9060005260206000200181905550600b60008473ffffffffffffffffffffffffffffffffffffffff1673ffffffffffffffffffffffffffffffffffffffff168152602001908152602001600020805480610ce7577f4e487b7100000000000000000000000000000000000000000000000000000000600052603160045260246000fd5b600190038181906000526020600020016000905590556001600b60008473ffffffffffffffffffffffffffffffffffffffff1673ffffffffffffffffffffffffffffffffffffffff16815260200190815260200160002080549050610d4c9190615151565b600c600083815260200190815260200160002081905550610d6e838383612f15565b505050565b600080600985604051610d8691906149bd565b90815260200160405180910390209050848051906020012081600101604051610daf91906149a6565b60405180910390201415610df8576040517f08c379a0000000000000000000000000000000000000000000000000000000008152600401610def90614e6b565b60405180910390fd5b610e026008612f75565b33600986604051610e1391906149bd565b908152602001604051809103902060000160006101000a81548173ffffffffffffffffffffffffffffffffffffffff021916908373ffffffffffffffffffffffffffffffffffffffff16021790555084600986604051610e7391906149bd565b90815260200160405180910390206001019080519060200190610e97929190613d9e565b5083600986604051610ea991906149bd565b90815260200160405180910390206002019080519060200190610ecd929190613d9e565b5082600986604051610edf91906149bd565b9081526020016040518091039020600301819055506000600986604051610f0691906149bd565b908152602001604051809103902060040160006101000a81548160ff02191690836003811115610f5f577f4e487b7100000000000000000000000000000000000000000000000000000000600052602160045260246000fd5b02179055506000600986604051610f7691906149bd565b9081526020016040518091039020600601819055506000610f976008612f8b565b9050610fa33382612f99565b610fad8187613173565b80600a87604051610fbe91906149bd565b908152602001604051809103902081905550600b60003373ffffffffffffffffffffffffffffffffffffffff1673ffffffffffffffffffffffffffffffffffffffff1681526020019081526020016000208190806001815401808255809150506001900390600052602060002001600090919091909150556001600b60003373ffffffffffffffffffffffffffffffffffffffff1673ffffffffffffffffffffffffffffffffffffffff168152602001908152602001600020805490506110859190615151565b600c60008381526020019081526020016000208190555080925050509392505050565b6110b0612e54565b73ffffffffffffffffffffffffffffffffffffffff166110ce611ef4565b73ffffffffffffffffffffffffffffffffffffffff1614611124576040517f08c379a000000000000000000000000000000000000000000000000000000000815260040161111b90614e2b565b60405180910390fd5b60008110158015611136575060648111155b611175576040517f08c379a000000000000000000000000000000000000000000000000000000000815260040161116c90614ecb565b60405180910390fd5b80600d8190555050565b61119a8383836040518060200160405280600081525061214e565b505050565b6009818051602081018201805184825260208301602085012081835280955050505050506000915090508060000160009054906101000a900473ffffffffffffffffffffffffffffffffffffffff16908060010180546111fe90615260565b80601f016020809104026020016040519081016040528092919081815260200182805461122a90615260565b80156112775780601f1061124c57610100808354040283529160200191611277565b820191906000526020600020905b81548152906001019060200180831161125a57829003601f168201915b50505050509080600201805461128c90615260565b80601f01602080910402602001604051908101604052809291908181526020018280546112b890615260565b80156113055780601f106112da57610100808354040283529160200191611305565b820191906000526020600020905b8154815290600101906020018083116112e857829003601f168201915b5050505050908060030154908060040160009054906101000a900460ff16908060060154905086565b808210611370576040517f08c379a000000000000000000000000000000000000000000000000000000000815260040161136790614b2b565b60405180910390fd5b600060098560405161138291906149bd565b908152602001604051809103902090508480519060200120816001016040516113ab91906149a6565b6040518091039020146113f3576040517f08c379a00000000000000000000000000000000000000000000000000000000081526004016113ea90614b0b565b60405180910390fd5b3373ffffffffffffffffffffffffffffffffffffffff168160000160009054906101000a900473ffffffffffffffffffffffffffffffffffffffff1673ffffffffffffffffffffffffffffffffffffffff1614611485576040517f08c379a000000000000000000000000000000000000000000000000000000000815260040161147c90614f2b565b60405180910390fd5b4282116114c7576040517f08c379a00000000000000000000000000000000000000000000000000000000081526004016114be90614c8b565b60405180910390fd5b60006003811115611501577f4e487b7100000000000000000000000000000000000000000000000000000000600052602160045260246000fd5b8160040160009054906101000a900460ff16600381111561154b577f4e487b7100000000000000000000000000000000000000000000000000000000600052602160045260246000fd5b14806115d7575060038081111561158b577f4e487b7100000000000000000000000000000000000000000000000000000000600052602160045260246000fd5b8160040160009054906101000a900460ff1660038111156115d5577f4e487b7100000000000000000000000000000000000000000000000000000000600052602160045260246000fd5b145b611616576040517f08c379a000000000000000000000000000000000000000000000000000000000815260040161160d90614f4b565b60405180910390fd5b34600e54111561165b576040517f08c379a000000000000000000000000000000000000000000000000000000000815260040161165290614f0b565b60405180910390fd5b60018160060160008282546116709190615070565b9250508190555060008160050160008360060154815260200190815260200160002060000160006101000a81548173ffffffffffffffffffffffffffffffffffffffff021916908373ffffffffffffffffffffffffffffffffffffffff160217905550838160050160008360060154815260200190815260200160002060010181905550428311611702576000611705565b60015b8160050160008360060154815260200190815260200160002060020160006101000a81548160ff02191690836003811115611769577f4e487b7100000000000000000000000000000000000000000000000000000000600052602160045260246000fd5b02179055508281600501600083600601548152602001908152602001600020600301819055508181600501600083600601548152602001908152602001600020600401819055506000816005016000836006015481526020019081526020016000206005018190555060018160040160006101000a81548160ff02191690836003811115611820577f4e487b7100000000000000000000000000000000000000000000000000000000600052602160045260246000fd5b02179055505050505050565b600e5481565b600c6020528060005260406000206000915090505481565b6000806002600084815260200190815260200160002060009054906101000a900473ffffffffffffffffffffffffffffffffffffffff169050600073ffffffffffffffffffffffffffffffffffffffff168173ffffffffffffffffffffffffffffffffffffffff1614156118f3576040517f08c379a00000000000000000000000000000000000000000000000000000000081526004016118ea90614d2b565b60405180910390fd5b80915050919050565b60008073ffffffffffffffffffffffffffffffffffffffff168273ffffffffffffffffffffffffffffffffffffffff16141561196d576040517f08c379a000000000000000000000000000000000000000000000000000000000815260040161196490614d0b565b60405180910390fd5b600360008373ffffffffffffffffffffffffffffffffffffffff1673ffffffffffffffffffffffffffffffffffffffff168152602001908152602001600020549050919050565b6119bc612e54565b73ffffffffffffffffffffffffffffffffffffffff166119da611ef4565b73ffffffffffffffffffffffffffffffffffffffff1614611a30576040517f08c379a0000000000000000000000000000000000000000000000000000000008152600401611a2790614e2b565b60405180910390fd5b611a3a60006131e7565b565b6000600982604051611a4e91906149bd565b90815260200160405180910390209050818051906020012081600101604051611a7791906149a6565b604051809103902014611abf576040517f08c379a0000000000000000000000000000000000000000000000000000000008152600401611ab690614b0b565b60405180910390fd5b60016003811115611af9577f4e487b7100000000000000000000000000000000000000000000000000000000600052602160045260246000fd5b8160040160009054906101000a900460ff166003811115611b43577f4e487b7100000000000000000000000000000000000000000000000000000000600052602160045260246000fd5b14611b83576040517f08c379a0000000000000000000000000000000000000000000000000000000008152600401611b7a90614b4b565b60405180910390fd5b600081600601541415611bcb576040517f08c379a0000000000000000000000000000000000000000000000000000000008152600401611bc290614d6b565b60405180910390fd5b600081600501600083600601548152602001908152602001600020905042816003015411158015611c00575080600401544211155b611c3f576040517f08c379a0000000000000000000000000000000000000000000000000000000008152600401611c3690614dab565b60405180910390fd5b34816001015410611c85576040517f08c379a0000000000000000000000000000000000000000000000000000000008152600401611c7c90614d8b565b60405180910390fd5b60028160020160006101000a81548160ff02191690836003811115611cd3577f4e487b7100000000000000000000000000000000000000000000000000000000600052602160045260246000fd5b0217905550600060405180606001604052803373ffffffffffffffffffffffffffffffffffffffff1681526020013481526020014281525090506001826005016000828254611d229190615070565b92505081905550808260060160008460050154815260200190815260200160002060008201518160000160006101000a81548173ffffffffffffffffffffffffffffffffffffffff021916908373ffffffffffffffffffffffffffffffffffffffff160217905550602082015181600101556040820151816002015590505060008260000160009054906101000a900473ffffffffffffffffffffffffffffffffffffffff169050600083600101549050338460000160006101000a81548173ffffffffffffffffffffffffffffffffffffffff021916908373ffffffffffffffffffffffffffffffffffffffff1602179055503484600101819055508173ffffffffffffffffffffffffffffffffffffffff166108fc829081150290604051600060405180830381858888f19350505050158015611e65573d6000803e3d6000fd5b50505050505050565b611e76612e54565b73ffffffffffffffffffffffffffffffffffffffff16611e94611ef4565b73ffffffffffffffffffffffffffffffffffffffff1614611eea576040517f08c379a0000000000000000000000000000000000000000000000000000000008152600401611ee190614e2b565b60405180910390fd5b80600e8190555050565b6000600660009054906101000a900473ffffffffffffffffffffffffffffffffffffffff16905090565b606060018054611f2d90615260565b80601f0160208091040260200160405190810160405280929190818152602001828054611f5990615260565b8015611fa65780601f10611f7b57610100808354040283529160200191611fa6565b820191906000526020600020905b815481529060010190602001808311611f8957829003601f168201915b5050505050905090565b611fc2611fbb612e54565b83836132ad565b5050565b6000600983604051611fd891906149bd565b908152602001604051809103902090503373ffffffffffffffffffffffffffffffffffffffff168160000160009054906101000a900473ffffffffffffffffffffffffffffffffffffffff1673ffffffffffffffffffffffffffffffffffffffff161461207a576040517f08c379a000000000000000000000000000000000000000000000000000000000815260040161207190614c2b565b60405180910390fd5b818160030181905550505050565b612090612e54565b73ffffffffffffffffffffffffffffffffffffffff166120ae611ef4565b73ffffffffffffffffffffffffffffffffffffffff1614612104576040517f08c379a00000000000000000000000000000000000000000000000000000000081526004016120fb90614e2b565b60405180910390fd5b3373ffffffffffffffffffffffffffffffffffffffff166108fc829081150290604051600060405180830381858888f1935050505015801561214a573d6000803e3d6000fd5b5050565b600b60008473ffffffffffffffffffffffffffffffffffffffff1673ffffffffffffffffffffffffffffffffffffffff168152602001908152602001600020829080600181540180825580915050600190039060005260206000200160009091909190915055600b60008573ffffffffffffffffffffffffffffffffffffffff1673ffffffffffffffffffffffffffffffffffffffff1681526020019081526020016000206001600b60008773ffffffffffffffffffffffffffffffffffffffff1673ffffffffffffffffffffffffffffffffffffffff168152602001908152602001600020805490506122429190615151565b81548110612279577f4e487b7100000000000000000000000000000000000000000000000000000000600052603260045260246000fd5b9060005260206000200154600b60008673ffffffffffffffffffffffffffffffffffffffff1673ffffffffffffffffffffffffffffffffffffffff168152602001908152602001600020600c6000858152602001908152602001600020548154811061230e577f4e487b7100000000000000000000000000000000000000000000000000000000600052603260045260246000fd5b9060005260206000200181905550600b60008573ffffffffffffffffffffffffffffffffffffffff1673ffffffffffffffffffffffffffffffffffffffff168152602001908152602001600020805480612391577f4e487b7100000000000000000000000000000000000000000000000000000000600052603160045260246000fd5b600190038181906000526020600020016000905590556001600b60008573ffffffffffffffffffffffffffffffffffffffff1673ffffffffffffffffffffffffffffffffffffffff168152602001908152602001600020805490506123f69190615151565b600c6000848152602001908152602001600020819055506124198484848461341a565b50505050565b600a818051602081018201805184825260208301602085012081835280955050505050506000915090505481565b600d5481565b606061245e8261347c565b9050919050565b600060098360405161247791906149bd565b908152602001604051809103902090508280519060200120816001016040516124a091906149a6565b6040518091039020146124e8576040517f08c379a00000000000000000000000000000000000000000000000000000000081526004016124df90614b0b565b60405180910390fd5b3373ffffffffffffffffffffffffffffffffffffffff168160000160009054906101000a900473ffffffffffffffffffffffffffffffffffffffff1673ffffffffffffffffffffffffffffffffffffffff161461257a576040517f08c379a000000000000000000000000000000000000000000000000000000000815260040161257190614eeb565b60405180910390fd5b6125a33383600a8660405161258f91906149bd565b90815260200160405180910390205461117f565b818160000160006101000a81548173ffffffffffffffffffffffffffffffffffffffff021916908373ffffffffffffffffffffffffffffffffffffffff160217905550505050565b600b602052816000526040600020818154811061260757600080fd5b90600052602060002001600091509150505481565b6000600560008473ffffffffffffffffffffffffffffffffffffffff1673ffffffffffffffffffffffffffffffffffffffff16815260200190815260200160002060008373ffffffffffffffffffffffffffffffffffffffff1673ffffffffffffffffffffffffffffffffffffffff16815260200190815260200160002060009054906101000a900460ff16905092915050565b6126b8612e54565b73ffffffffffffffffffffffffffffffffffffffff166126d6611ef4565b73ffffffffffffffffffffffffffffffffffffffff161461272c576040517f08c379a000000000000000000000000000000000000000000000000000000000815260040161272390614e2b565b60405180910390fd5b600073ffffffffffffffffffffffffffffffffffffffff168173ffffffffffffffffffffffffffffffffffffffff16141561279c576040517f08c379a000000000000000000000000000000000000000000000000000000000815260040161279390614bab565b60405180910390fd5b6127a5816131e7565b50565b60006009826040516127ba91906149bd565b908152602001604051809103902090508180519060200120816001016040516127e391906149a6565b60405180910390201461282b576040517f08c379a000000000000000000000000000000000000000000000000000000000815260040161282290614b0b565b60405180910390fd5b60016003811115612865577f4e487b7100000000000000000000000000000000000000000000000000000000600052602160045260246000fd5b8160040160009054906101000a900460ff1660038111156128af577f4e487b7100000000000000000000000000000000000000000000000000000000600052602160045260246000fd5b146128ef576040517f08c379a00000000000000000000000000000000000000000000000000000000081526004016128e690614ccb565b60405180910390fd5b600081600601541415612937576040517f08c379a000000000000000000000000000000000000000000000000000000000815260040161292e90614d6b565b60405180910390fd5b600081600501600083600601548152602001908152602001600020905042816003015410801561296a5750806004015442115b6129a9576040517f08c379a00000000000000000000000000000000000000000000000000000000081526004016129a090614b6b565b60405180910390fd5b600260038111156129e3577f4e487b7100000000000000000000000000000000000000000000000000000000600052602160045260246000fd5b8160020160009054906101000a900460ff166003811115612a2d577f4e487b7100000000000000000000000000000000000000000000000000000000600052602160045260246000fd5b1480612aba575060016003811115612a6e577f4e487b7100000000000000000000000000000000000000000000000000000000600052602160045260246000fd5b8260040160009054906101000a900460ff166003811115612ab8577f4e487b7100000000000000000000000000000000000000000000000000000000600052602160045260246000fd5b145b612af9576040517f08c379a0000000000000000000000000000000000000000000000000000000008152600401612af090614bcb565b60405180910390fd5b600073ffffffffffffffffffffffffffffffffffffffff168160000160009054906101000a900473ffffffffffffffffffffffffffffffffffffffff1673ffffffffffffffffffffffffffffffffffffffff1614612cd3576000816001015490506000600d541115612b8e576064600d546064612b769190615151565b82612b8191906150f7565b612b8b91906150c6565b90505b8260000160009054906101000a900473ffffffffffffffffffffffffffffffffffffffff1673ffffffffffffffffffffffffffffffffffffffff166108fc829081150290604051600060405180830381858888f19350505050158015612bf8573d6000803e3d6000fd5b50612c6a8360000160009054906101000a900473ffffffffffffffffffffffffffffffffffffffff168360000160009054906101000a900473ffffffffffffffffffffffffffffffffffffffff16600a87604051612c5691906149bd565b90815260200160405180910390205461117f565b8160000160009054906101000a900473ffffffffffffffffffffffffffffffffffffffff168360000160006101000a81548173ffffffffffffffffffffffffffffffffffffffff021916908373ffffffffffffffffffffffffffffffffffffffff160217905550505b60038160020160006101000a81548160ff02191690836003811115612d21577f4e487b7100000000000000000000000000000000000000000000000000000000600052602160045260246000fd5b021790555060038260040160006101000a81548160ff02191690836003811115612d74577f4e487b7100000000000000000000000000000000000000000000000000000000600052602160045260246000fd5b0217905550505050565b60007f01ffc9a7000000000000000000000000000000000000000000000000000000007bffffffffffffffffffffffffffffffffffffffffffffffffffffffff1916827bffffffffffffffffffffffffffffffffffffffffffffffffffffffff1916149050919050565b60008073ffffffffffffffffffffffffffffffffffffffff166002600084815260200190815260200160002060009054906101000a900473ffffffffffffffffffffffffffffffffffffffff1673ffffffffffffffffffffffffffffffffffffffff1614159050919050565b600033905090565b816004600083815260200190815260200160002060006101000a81548173ffffffffffffffffffffffffffffffffffffffff021916908373ffffffffffffffffffffffffffffffffffffffff160217905550808273ffffffffffffffffffffffffffffffffffffffff16612ecf8361184a565b73ffffffffffffffffffffffffffffffffffffffff167f8c5be1e5ebec7d5bd14f71427d1e84f3dd0314c0f7b2291e5b200ac8c7c3b92560405160405180910390a45050565b612f26612f20612e54565b826135ce565b612f65576040517f08c379a0000000000000000000000000000000000000000000000000000000008152600401612f5c90614eab565b60405180910390fd5b612f708383836136ac565b505050565b6001816000016000828254019250508190555050565b600081600001549050919050565b600073ffffffffffffffffffffffffffffffffffffffff168273ffffffffffffffffffffffffffffffffffffffff161415613009576040517f08c379a000000000000000000000000000000000000000000000000000000000815260040161300090614dcb565b60405180910390fd5b61301281612de8565b15613052576040517f08c379a000000000000000000000000000000000000000000000000000000000815260040161304990614c0b565b60405180910390fd5b61305e60008383613913565b6001600360008473ffffffffffffffffffffffffffffffffffffffff1673ffffffffffffffffffffffffffffffffffffffff16815260200190815260200160002060008282546130ae9190615070565b92505081905550816002600083815260200190815260200160002060006101000a81548173ffffffffffffffffffffffffffffffffffffffff021916908373ffffffffffffffffffffffffffffffffffffffff160217905550808273ffffffffffffffffffffffffffffffffffffffff16600073ffffffffffffffffffffffffffffffffffffffff167fddf252ad1be2c89b69c2b068fc378daa952ba7f163c4a11628f55a4df523b3ef60405160405180910390a461316f60008383613918565b5050565b61317c82612de8565b6131bb576040517f08c379a00000000000000000000000000000000000000000000000000000000081526004016131b290614d4b565b60405180910390fd5b806007600084815260200190815260200160002090805190602001906131e2929190613d9e565b505050565b6000600660009054906101000a900473ffffffffffffffffffffffffffffffffffffffff16905081600660006101000a81548173ffffffffffffffffffffffffffffffffffffffff021916908373ffffffffffffffffffffffffffffffffffffffff1602179055508173ffffffffffffffffffffffffffffffffffffffff168173ffffffffffffffffffffffffffffffffffffffff167f8be0079c531659141344cd1fd0a4f28419497f9722a3daafe3b4186f6b6457e060405160405180910390a35050565b8173ffffffffffffffffffffffffffffffffffffffff168373ffffffffffffffffffffffffffffffffffffffff16141561331c576040517f08c379a000000000000000000000000000000000000000000000000000000000815260040161331390614c6b565b60405180910390fd5b80600560008573ffffffffffffffffffffffffffffffffffffffff1673ffffffffffffffffffffffffffffffffffffffff16815260200190815260200160002060008473ffffffffffffffffffffffffffffffffffffffff1673ffffffffffffffffffffffffffffffffffffffff16815260200190815260200160002060006101000a81548160ff0219169083151502179055508173ffffffffffffffffffffffffffffffffffffffff168373ffffffffffffffffffffffffffffffffffffffff167f17307eab39ab6107e8899845ad3d59bd9653f200f220920489ca2b5937696c318360405161340d9190614ace565b60405180910390a3505050565b61342b613425612e54565b836135ce565b61346a576040517f08c379a000000000000000000000000000000000000000000000000000000000815260040161346190614eab565b60405180910390fd5b6134768484848461391d565b50505050565b606061348782612de8565b6134c6576040517f08c379a00000000000000000000000000000000000000000000000000000000081526004016134bd90614deb565b60405180910390fd5b60006007600084815260200190815260200160002080546134e690615260565b80601f016020809104026020016040519081016040528092919081815260200182805461351290615260565b801561355f5780601f106135345761010080835404028352916020019161355f565b820191906000526020600020905b81548152906001019060200180831161354257829003601f168201915b505050505090506000613570613979565b90506000815114156135865781925050506135c9565b6000825111156135bb5780826040516020016135a39291906149d4565b604051602081830303815290604052925050506135c9565b6135c484613990565b925050505b919050565b60006135d982612de8565b613618576040517f08c379a000000000000000000000000000000000000000000000000000000000815260040161360f90614cab565b60405180910390fd5b60006136238361184a565b90508073ffffffffffffffffffffffffffffffffffffffff168473ffffffffffffffffffffffffffffffffffffffff16148061369257508373ffffffffffffffffffffffffffffffffffffffff1661367a84610907565b73ffffffffffffffffffffffffffffffffffffffff16145b806136a357506136a2818561261c565b5b91505092915050565b8273ffffffffffffffffffffffffffffffffffffffff166136cc8261184a565b73ffffffffffffffffffffffffffffffffffffffff1614613722576040517f08c379a000000000000000000000000000000000000000000000000000000000815260040161371990614beb565b60405180910390fd5b600073ffffffffffffffffffffffffffffffffffffffff168273ffffffffffffffffffffffffffffffffffffffff161415613792576040517f08c379a000000000000000000000000000000000000000000000000000000000815260040161378990614c4b565b60405180910390fd5b61379d838383613913565b6137a8600082612e5c565b6001600360008573ffffffffffffffffffffffffffffffffffffffff1673ffffffffffffffffffffffffffffffffffffffff16815260200190815260200160002060008282546137f89190615151565b925050819055506001600360008473ffffffffffffffffffffffffffffffffffffffff1673ffffffffffffffffffffffffffffffffffffffff168152602001908152602001600020600082825461384f9190615070565b92505081905550816002600083815260200190815260200160002060006101000a81548173ffffffffffffffffffffffffffffffffffffffff021916908373ffffffffffffffffffffffffffffffffffffffff160217905550808273ffffffffffffffffffffffffffffffffffffffff168473ffffffffffffffffffffffffffffffffffffffff167fddf252ad1be2c89b69c2b068fc378daa952ba7f163c4a11628f55a4df523b3ef60405160405180910390a461390e838383613918565b505050565b505050565b505050565b6139288484846136ac565b61393484848484613a37565b613973576040517f08c379a000000000000000000000000000000000000000000000000000000000815260040161396a90614b8b565b60405180910390fd5b50505050565b606060405180602001604052806000815250905090565b606061399b82612de8565b6139da576040517f08c379a00000000000000000000000000000000000000000000000000000000081526004016139d190614e4b565b60405180910390fd5b60006139e4613979565b90506000815111613a045760405180602001604052806000815250613a2f565b80613a0e84613bce565b604051602001613a1f9291906149d4565b6040516020818303038152906040525b915050919050565b6000613a588473ffffffffffffffffffffffffffffffffffffffff16613d7b565b15613bc1578373ffffffffffffffffffffffffffffffffffffffff1663150b7a02613a81612e54565b8786866040518563ffffffff1660e01b8152600401613aa39493929190614a13565b602060405180830381600087803b158015613abd57600080fd5b505af1925050508015613aee57506040513d601f19601f82011682018060405250810190613aeb919061414a565b60015b613b71573d8060008114613b1e576040519150601f19603f3d011682016040523d82523d6000602084013e613b23565b606091505b50600081511415613b69576040517f08c379a0000000000000000000000000000000000000000000000000000000008152600401613b6090614b8b565b60405180910390fd5b805181602001fd5b63150b7a0260e01b7bffffffffffffffffffffffffffffffffffffffffffffffffffffffff1916817bffffffffffffffffffffffffffffffffffffffffffffffffffffffff191614915050613bc6565b600190505b949350505050565b60606000821415613c16576040518060400160405280600181526020017f30000000000000000000000000000000000000000000000000000000000000008152509050613d76565b600082905060005b60008214613c48578080613c31906152c3565b915050600a82613c4191906150c6565b9150613c1e565b60008167ffffffffffffffff811115613c8a577f4e487b7100000000000000000000000000000000000000000000000000000000600052604160045260246000fd5b6040519080825280601f01601f191660200182016040528015613cbc5781602001600182028036833780820191505090505b5090505b60008514613d6f57600182613cd59190615151565b9150600a85613ce4919061530c565b6030613cf09190615070565b60f81b818381518110613d2c577f4e487b7100000000000000000000000000000000000000000000000000000000600052603260045260246000fd5b60200101907effffffffffffffffffffffffffffffffffffffffffffffffffffffffffffff1916908160001a905350600a85613d6891906150c6565b9450613cc0565b8093505050505b919050565b6000808273ffffffffffffffffffffffffffffffffffffffff163b119050919050565b828054613daa90615260565b90600052602060002090601f016020900481019282613dcc5760008555613e13565b82601f10613de557805160ff1916838001178555613e13565b82800160010185558215613e13579182015b82811115613e12578251825591602001919060010190613df7565b5b509050613e209190613e24565b5090565b5b80821115613e3d576000816000905550600101613e25565b5090565b6000613e54613e4f84614fab565b614f86565b905082815260208101848484011115613e6c57600080fd5b613e7784828561521e565b509392505050565b6000613e92613e8d84614fdc565b614f86565b905082815260208101848484011115613eaa57600080fd5b613eb584828561521e565b509392505050565b600081359050613ecc81615c22565b92915050565b600081359050613ee181615c39565b92915050565b600081359050613ef681615c50565b92915050565b600081519050613f0b81615c50565b92915050565b600082601f830112613f2257600080fd5b8135613f32848260208601613e41565b91505092915050565b600082601f830112613f4c57600080fd5b8135613f5c848260208601613e7f565b91505092915050565b600081359050613f7481615c67565b92915050565b600060208284031215613f8c57600080fd5b6000613f9a84828501613ebd565b91505092915050565b60008060408385031215613fb657600080fd5b6000613fc485828601613ebd565b9250506020613fd585828601613ebd565b9150509250929050565b600080600060608486031215613ff457600080fd5b600061400286828701613ebd565b935050602061401386828701613ebd565b925050604061402486828701613f65565b9150509250925092565b6000806000806080858703121561404457600080fd5b600061405287828801613ebd565b945050602061406387828801613ebd565b935050604061407487828801613f65565b925050606085013567ffffffffffffffff81111561409157600080fd5b61409d87828801613f11565b91505092959194509250565b600080604083850312156140bc57600080fd5b60006140ca85828601613ebd565b92505060206140db85828601613ed2565b9150509250929050565b600080604083850312156140f857600080fd5b600061410685828601613ebd565b925050602061411785828601613f65565b9150509250929050565b60006020828403121561413357600080fd5b600061414184828501613ee7565b91505092915050565b60006020828403121561415c57600080fd5b600061416a84828501613efc565b91505092915050565b60006020828403121561418557600080fd5b600082013567ffffffffffffffff81111561419f57600080fd5b6141ab84828501613f3b565b91505092915050565b600080604083850312156141c757600080fd5b600083013567ffffffffffffffff8111156141e157600080fd5b6141ed85828601613f3b565b92505060206141fe85828601613ebd565b9150509250929050565b60008060006060848603121561421d57600080fd5b600084013567ffffffffffffffff81111561423757600080fd5b61424386828701613f3b565b935050602084013567ffffffffffffffff81111561426057600080fd5b61426c86828701613f3b565b925050604061427d86828701613f65565b9150509250925092565b6000806040838503121561429a57600080fd5b600083013567ffffffffffffffff8111156142b457600080fd5b6142c085828601613f3b565b92505060206142d185828601613f65565b9150509250929050565b600080600080608085870312156142f157600080fd5b600085013567ffffffffffffffff81111561430b57600080fd5b61431787828801613f3b565b945050602061432887828801613f65565b935050604061433987828801613f65565b925050606061434a87828801613f65565b91505092959194509250565b60006020828403121561436857600080fd5b600061437684828501613f65565b91505092915050565b61438881615185565b82525050565b61439781615197565b82525050565b60006143a882615022565b6143b28185615038565b93506143c281856020860161522d565b6143cb81615428565b840191505092915050565b600081546143e381615260565b6143ed8186615049565b9450600182166000811461440857600181146144195761444c565b60ff1983168652818601935061444c565b6144228561500d565b60005b8381101561444457815481890152600182019150602081019050614425565b838801955050505b50505092915050565b61445e8161520c565b82525050565b600061446f8261502d565b6144798185615054565b935061448981856020860161522d565b61449281615428565b840191505092915050565b60006144a88261502d565b6144b28185615065565b93506144c281856020860161522d565b80840191505092915050565b60006144db600183615054565b91506144e682615439565b602082019050919050565b60006144fe602283615054565b915061450982615462565b604082019050919050565b6000614521600283615054565b915061452c826154b1565b602082019050919050565b6000614544600283615054565b915061454f826154da565b602082019050919050565b6000614567603283615054565b915061457282615503565b604082019050919050565b600061458a602683615054565b915061459582615552565b604082019050919050565b60006145ad600283615054565b91506145b8826155a1565b602082019050919050565b60006145d0602583615054565b91506145db826155ca565b604082019050919050565b60006145f3601c83615054565b91506145fe82615619565b602082019050919050565b6000614616600183615054565b915061462182615642565b602082019050919050565b6000614639602483615054565b91506146448261566b565b604082019050919050565b600061465c601983615054565b9150614667826156ba565b602082019050919050565b600061467f600183615054565b915061468a826156e3565b602082019050919050565b60006146a2602c83615054565b91506146ad8261570c565b604082019050919050565b60006146c5600283615054565b91506146d08261575b565b602082019050919050565b60006146e8603883615054565b91506146f382615784565b604082019050919050565b600061470b602a83615054565b9150614716826157d3565b604082019050919050565b600061472e602983615054565b915061473982615822565b604082019050919050565b6000614751602e83615054565b915061475c82615871565b604082019050919050565b6000614774600283615054565b915061477f826158c0565b602082019050919050565b6000614797600283615054565b91506147a2826158e9565b602082019050919050565b60006147ba600283615054565b91506147c582615912565b602082019050919050565b60006147dd602083615054565b91506147e88261593b565b602082019050919050565b6000614800603183615054565b915061480b82615964565b604082019050919050565b6000614823602c83615054565b915061482e826159b3565b604082019050919050565b6000614846602083615054565b915061485182615a02565b602082019050919050565b6000614869602f83615054565b915061487482615a2b565b604082019050919050565b600061488c600183615054565b915061489782615a7a565b602082019050919050565b60006148af602183615054565b91506148ba82615aa3565b604082019050919050565b60006148d2603183615054565b91506148dd82615af2565b604082019050919050565b60006148f5600183615054565b915061490082615b41565b602082019050919050565b6000614918600183615054565b915061492382615b6a565b602082019050919050565b600061493b600183615054565b915061494682615b93565b602082019050919050565b600061495e600183615054565b915061496982615bbc565b602082019050919050565b6000614981600183615054565b915061498c82615be5565b602082019050919050565b6149a081615202565b82525050565b60006149b282846143d6565b915081905092915050565b60006149c9828461449d565b915081905092915050565b60006149e0828561449d565b91506149ec828461449d565b91508190509392505050565b6000602082019050614a0d600083018461437f565b92915050565b6000608082019050614a28600083018761437f565b614a35602083018661437f565b614a426040830185614997565b8181036060830152614a54818461439d565b905095945050505050565b600060c082019050614a74600083018961437f565b8181036020830152614a868188614464565b90508181036040830152614a9a8187614464565b9050614aa96060830186614997565b614ab66080830185614455565b614ac360a0830184614997565b979650505050505050565b6000602082019050614ae3600083018461438e565b92915050565b60006020820190508181036000830152614b038184614464565b905092915050565b60006020820190508181036000830152614b24816144ce565b9050919050565b60006020820190508181036000830152614b44816144f1565b9050919050565b60006020820190508181036000830152614b6481614514565b9050919050565b60006020820190508181036000830152614b8481614537565b9050919050565b60006020820190508181036000830152614ba48161455a565b9050919050565b60006020820190508181036000830152614bc48161457d565b9050919050565b60006020820190508181036000830152614be4816145a0565b9050919050565b60006020820190508181036000830152614c04816145c3565b9050919050565b60006020820190508181036000830152614c24816145e6565b9050919050565b60006020820190508181036000830152614c4481614609565b9050919050565b60006020820190508181036000830152614c648161462c565b9050919050565b60006020820190508181036000830152614c848161464f565b9050919050565b60006020820190508181036000830152614ca481614672565b9050919050565b60006020820190508181036000830152614cc481614695565b9050919050565b60006020820190508181036000830152614ce4816146b8565b9050919050565b60006020820190508181036000830152614d04816146db565b9050919050565b60006020820190508181036000830152614d24816146fe565b9050919050565b60006020820190508181036000830152614d4481614721565b9050919050565b60006020820190508181036000830152614d6481614744565b9050919050565b60006020820190508181036000830152614d8481614767565b9050919050565b60006020820190508181036000830152614da48161478a565b9050919050565b60006020820190508181036000830152614dc4816147ad565b9050919050565b60006020820190508181036000830152614de4816147d0565b9050919050565b60006020820190508181036000830152614e04816147f3565b9050919050565b60006020820190508181036000830152614e2481614816565b9050919050565b60006020820190508181036000830152614e4481614839565b9050919050565b60006020820190508181036000830152614e648161485c565b9050919050565b60006020820190508181036000830152614e848161487f565b9050919050565b60006020820190508181036000830152614ea4816148a2565b9050919050565b60006020820190508181036000830152614ec4816148c5565b9050919050565b60006020820190508181036000830152614ee4816148e8565b9050919050565b60006020820190508181036000830152614f048161490b565b9050919050565b60006020820190508181036000830152614f248161492e565b9050919050565b60006020820190508181036000830152614f4481614951565b9050919050565b60006020820190508181036000830152614f6481614974565b9050919050565b6000602082019050614f806000830184614997565b92915050565b6000614f90614fa1565b9050614f9c8282615292565b919050565b6000604051905090565b600067ffffffffffffffff821115614fc657614fc56153f9565b5b614fcf82615428565b9050602081019050919050565b600067ffffffffffffffff821115614ff757614ff66153f9565b5b61500082615428565b9050602081019050919050565b60008190508160005260206000209050919050565b600081519050919050565b600081519050919050565b600082825260208201905092915050565b600081905092915050565b600082825260208201905092915050565b600081905092915050565b600061507b82615202565b915061508683615202565b9250827fffffffffffffffffffffffffffffffffffffffffffffffffffffffffffffffff038211156150bb576150ba61533d565b5b828201905092915050565b60006150d182615202565b91506150dc83615202565b9250826150ec576150eb61536c565b5b828204905092915050565b600061510282615202565b915061510d83615202565b9250817fffffffffffffffffffffffffffffffffffffffffffffffffffffffffffffffff04831182151516156151465761514561533d565b5b828202905092915050565b600061515c82615202565b915061516783615202565b92508282101561517a5761517961533d565b5b828203905092915050565b6000615190826151e2565b9050919050565b60008115159050919050565b60007fffffffff0000000000000000000000000000000000000000000000000000000082169050919050565b60008190506151dd82615c0e565b919050565b600073ffffffffffffffffffffffffffffffffffffffff82169050919050565b6000819050919050565b6000615217826151cf565b9050919050565b82818337600083830152505050565b60005b8381101561524b578082015181840152602081019050615230565b8381111561525a576000848401525b50505050565b6000600282049050600182168061527857607f821691505b6020821081141561528c5761528b6153ca565b5b50919050565b61529b82615428565b810181811067ffffffffffffffff821117156152ba576152b96153f9565b5b80604052505050565b60006152ce82615202565b91507fffffffffffffffffffffffffffffffffffffffffffffffffffffffffffffffff8214156153015761530061533d565b5b600182019050919050565b600061531782615202565b915061532283615202565b9250826153325761533161536c565b5b828206905092915050565b7f4e487b7100000000000000000000000000000000000000000000000000000000600052601160045260246000fd5b7f4e487b7100000000000000000000000000000000000000000000000000000000600052601260045260246000fd5b7f4e487b7100000000000000000000000000000000000000000000000000000000600052602160045260246000fd5b7f4e487b7100000000000000000000000000000000000000000000000000000000600052602260045260246000fd5b7f4e487b7100000000000000000000000000000000000000000000000000000000600052604160045260246000fd5b6000601f19601f8301169050919050565b7f3400000000000000000000000000000000000000000000000000000000000000600082015250565b7f53746172742074696d65206d757374206265206265666f726520656e6420746960008201527f6d65000000000000000000000000000000000000000000000000000000000000602082015250565b7f3130000000000000000000000000000000000000000000000000000000000000600082015250565b7f3135000000000000000000000000000000000000000000000000000000000000600082015250565b7f4552433732313a207472616e7366657220746f206e6f6e20455243373231526560008201527f63656976657220696d706c656d656e7465720000000000000000000000000000602082015250565b7f4f776e61626c653a206e6577206f776e657220697320746865207a65726f206160008201527f6464726573730000000000000000000000000000000000000000000000000000602082015250565b7f3136000000000000000000000000000000000000000000000000000000000000600082015250565b7f4552433732313a207472616e736665722066726f6d20696e636f72726563742060008201527f6f776e6572000000000000000000000000000000000000000000000000000000602082015250565b7f4552433732313a20746f6b656e20616c7265616479206d696e74656400000000600082015250565b7f3300000000000000000000000000000000000000000000000000000000000000600082015250565b7f4552433732313a207472616e7366657220746f20746865207a65726f2061646460008201527f7265737300000000000000000000000000000000000000000000000000000000602082015250565b7f4552433732313a20617070726f766520746f2063616c6c657200000000000000600082015250565b7f3700000000000000000000000000000000000000000000000000000000000000600082015250565b7f4552433732313a206f70657261746f7220717565727920666f72206e6f6e657860008201527f697374656e7420746f6b656e0000000000000000000000000000000000000000602082015250565b7f3134000000000000000000000000000000000000000000000000000000000000600082015250565b7f4552433732313a20617070726f76652063616c6c6572206973206e6f74206f7760008201527f6e6572206e6f7220617070726f76656420666f7220616c6c0000000000000000602082015250565b7f4552433732313a2062616c616e636520717565727920666f7220746865207a6560008201527f726f206164647265737300000000000000000000000000000000000000000000602082015250565b7f4552433732313a206f776e657220717565727920666f72206e6f6e657869737460008201527f656e7420746f6b656e0000000000000000000000000000000000000000000000602082015250565b7f45524337323155524953746f726167653a2055524920736574206f66206e6f6e60008201527f6578697374656e7420746f6b656e000000000000000000000000000000000000602082015250565b7f3131000000000000000000000000000000000000000000000000000000000000600082015250565b7f3133000000000000000000000000000000000000000000000000000000000000600082015250565b7f3132000000000000000000000000000000000000000000000000000000000000600082015250565b7f4552433732313a206d696e7420746f20746865207a65726f2061646472657373600082015250565b7f45524337323155524953746f726167653a2055524920717565727920666f722060008201527f6e6f6e6578697374656e7420746f6b656e000000000000000000000000000000602082015250565b7f4552433732313a20617070726f76656420717565727920666f72206e6f6e657860008201527f697374656e7420746f6b656e0000000000000000000000000000000000000000602082015250565b7f4f776e61626c653a2063616c6c6572206973206e6f7420746865206f776e6572600082015250565b7f4552433732314d657461646174613a2055524920717565727920666f72206e6f60008201527f6e6578697374656e7420746f6b656e0000000000000000000000000000000000602082015250565b7f3200000000000000000000000000000000000000000000000000000000000000600082015250565b7f4552433732313a20617070726f76616c20746f2063757272656e74206f776e6560008201527f7200000000000000000000000000000000000000000000000000000000000000602082015250565b7f4552433732313a207472616e736665722063616c6c6572206973206e6f74206f60008201527f776e6572206e6f7220617070726f766564000000000000000000000000000000602082015250565b7f3100000000000000000000000000000000000000000000000000000000000000600082015250565b7f3500000000000000000000000000000000000000000000000000000000000000600082015250565b7f3900000000000000000000000000000000000000000000000000000000000000600082015250565b7f3600000000000000000000000000000000000000000000000000000000000000600082015250565b7f3800000000000000000000000000000000000000000000000000000000000000600082015250565b60048110615c1f57615c1e61539b565b5b50565b615c2b81615185565b8114615c3657600080fd5b50565b615c4281615197565b8114615c4d57600080fd5b50565b615c59816151a3565b8114615c6457600080fd5b50565b615c7081615202565b8114615c7b57600080fd5b5056fea264697066735822122026cb68aef5938d898eac2d42822649784a45c813e5ff3e5a5e4bb3fb6d6600b564736f6c63430008040033",
  "linkReferences": {},
  "deployedLinkReferences": {}
}