{
  "_format": "hh-sol-artifact-1",
  "contractName": "DbAudio",
  "sourceName": "contracts/DbAudio.sol",
  "abi": [
    {
      "inputs": [],
      "stateMutability": "nonpayable",
      "type": "constructor"
    },
    {
      "anonymous": false,
      "inputs": [
        {
          "indexed": true,
          "internalType": "address",
          "name": "owner",
          "type": "address"
        },
        {
          "indexed": true,
          "internalType": "address",
          "name": "approved",
          "type": "address"
        },
        {
          "indexed": true,
          "internalType": "uint256",
          "name": "tokenId",
          "type": "uint256"
        }
      ],
      "name": "Approval",
      "type": "event"
    },
    {
      "anonymous": false,
      "inputs": [
        {
          "indexed": true,
          "internalType": "address",
          "name": "owner",
          "type": "address"
        },
        {
          "indexed": true,
          "internalType": "address",
          "name": "operator",
          "type": "address"
        },
        {
          "indexed": false,
          "internalType": "bool",
          "name": "approved",
          "type": "bool"
        }
      ],
      "name": "ApprovalForAll",
      "type": "event"
    },
    {
      "anonymous": false,
      "inputs": [
        {
          "indexed": false,
          "internalType": "string",
          "name": "uri",
          "type": "string"
        },
        {
          "indexed": false,
          "internalType": "uint256",
          "name": "startPrice",
          "type": "uint256"
        },
        {
          "indexed": false,
          "internalType": "uint256",
          "name": "startTime",
          "type": "uint256"
        },
        {
          "indexed": false,
          "internalType": "uint256",
          "name": "endTime",
          "type": "uint256"
        }
      ],
      "name": "BidEvent",
      "type": "event"
    },
    {
      "anonymous": false,
      "inputs": [
        {
          "indexed": false,
          "internalType": "string",
          "name": "uri",
          "type": "string"
        },
        {
          "indexed": false,
          "internalType": "uint256",
          "name": "index",
          "type": "uint256"
        }
      ],
      "name": "CreateNFT",
      "type": "event"
    },
    {
      "anonymous": false,
      "inputs": [
        {
          "indexed": true,
          "internalType": "address",
          "name": "previousOwner",
          "type": "address"
        },
        {
          "indexed": true,
          "internalType": "address",
          "name": "newOwner",
          "type": "address"
        }
      ],
      "name": "OwnershipTransferred",
      "type": "event"
    },
    {
      "anonymous": false,
      "inputs": [
        {
          "indexed": false,
          "internalType": "string",
          "name": "uri",
          "type": "string"
        },
        {
          "indexed": false,
          "internalType": "address",
          "name": "oldowner",
          "type": "address"
        },
        {
          "indexed": false,
          "internalType": "address",
          "name": "newowner",
          "type": "address"
        },
        {
          "indexed": false,
          "internalType": "uint256",
          "name": "price",
          "type": "uint256"
        }
      ],
      "name": "SettleBidding",
      "type": "event"
    },
    {
      "anonymous": false,
      "inputs": [
        {
          "indexed": true,
          "internalType": "address",
          "name": "from",
          "type": "address"
        },
        {
          "indexed": true,
          "internalType": "address",
          "name": "to",
          "type": "address"
        },
        {
          "indexed": true,
          "internalType": "uint256",
          "name": "tokenId",
          "type": "uint256"
        }
      ],
      "name": "Transfer",
      "type": "event"
    },
    {
      "anonymous": false,
      "inputs": [
        {
          "indexed": false,
          "internalType": "uint256",
          "name": "platformFee",
          "type": "uint256"
        }
      ],
      "name": "UpdatePlatformFee",
      "type": "event"
    },
    {
      "anonymous": false,
      "inputs": [
        {
          "indexed": false,
          "internalType": "address payable",
          "name": "platformFeeRecipient",
          "type": "address"
        }
      ],
      "name": "UpdatePlatformFeeRecipient",
      "type": "event"
    },
    {
      "inputs": [
        {
          "internalType": "address",
          "name": "to",
          "type": "address"
        },
        {
          "internalType": "uint256",
          "name": "tokenId",
          "type": "uint256"
        }
      ],
      "name": "approve",
      "outputs": [],
      "stateMutability": "nonpayable",
      "type": "function"
    },
    {
      "inputs": [
        {
          "internalType": "address",
          "name": "owner",
          "type": "address"
        }
      ],
      "name": "balanceOf",
      "outputs": [
        {
          "internalType": "uint256",
          "name": "",
          "type": "uint256"
        }
      ],
      "stateMutability": "view",
      "type": "function"
    },
    {
      "inputs": [
        {
          "internalType": "string",
          "name": "uri",
          "type": "string"
        },
        {
          "internalType": "uint256",
          "name": "_amount",
          "type": "uint256"
        }
      ],
      "name": "bid",
      "outputs": [],
      "stateMutability": "payable",
      "type": "function"
    },
    {
      "inputs": [
        {
          "internalType": "string",
          "name": "uri",
          "type": "string"
        },
        {
          "internalType": "uint256",
          "name": "startPrice",
          "type": "uint256"
        },
        {
          "internalType": "uint256",
          "name": "startTime",
          "type": "uint256"
        },
        {
          "internalType": "uint256",
          "name": "endTime",
          "type": "uint256"
        }
      ],
      "name": "createBidding",
      "outputs": [],
      "stateMutability": "payable",
      "type": "function"
    },
    {
      "inputs": [
        {
          "internalType": "string",
          "name": "uri",
          "type": "string"
        },
        {
          "internalType": "string",
          "name": "name",
          "type": "string"
        }
      ],
      "name": "createNFT",
      "outputs": [
        {
          "internalType": "uint256",
          "name": "",
          "type": "uint256"
        }
      ],
      "stateMutability": "nonpayable",
      "type": "function"
    },
    {
      "inputs": [],
      "name": "dbToken",
      "outputs": [
        {
          "internalType": "contract IERC20",
          "name": "",
          "type": "address"
        }
      ],
      "stateMutability": "view",
      "type": "function"
    },
    {
      "inputs": [
        {
          "internalType": "uint256",
          "name": "tokenId",
          "type": "uint256"
        }
      ],
      "name": "getApproved",
      "outputs": [
        {
          "internalType": "address",
          "name": "",
          "type": "address"
        }
      ],
      "stateMutability": "view",
      "type": "function"
    },
    {
      "inputs": [
        {
          "internalType": "uint256",
          "name": "",
          "type": "uint256"
        }
      ],
      "name": "indexOfToken",
      "outputs": [
        {
          "internalType": "uint256",
          "name": "",
          "type": "uint256"
        }
      ],
      "stateMutability": "view",
      "type": "function"
    },
    {
      "inputs": [
        {
          "internalType": "address",
          "name": "owner",
          "type": "address"
        },
        {
          "internalType": "address",
          "name": "operator",
          "type": "address"
        }
      ],
      "name": "isApprovedForAll",
      "outputs": [
        {
          "internalType": "bool",
          "name": "",
          "type": "bool"
        }
      ],
      "stateMutability": "view",
      "type": "function"
    },
    {
      "inputs": [
        {
          "internalType": "string",
          "name": "",
          "type": "string"
        }
      ],
      "name": "listNFT",
      "outputs": [
        {
          "internalType": "address",
          "name": "owner",
          "type": "address"
        },
        {
          "internalType": "string",
          "name": "url",
          "type": "string"
        },
        {
          "internalType": "string",
          "name": "name",
          "type": "string"
        },
        {
          "internalType": "uint256",
          "name": "price",
          "type": "uint256"
        },
        {
          "internalType": "enum DbAudio.AudioStatus",
          "name": "status",
          "type": "uint8"
        },
        {
          "internalType": "uint256",
          "name": "currentBidding",
          "type": "uint256"
        }
      ],
      "stateMutability": "view",
      "type": "function"
    },
    {
      "inputs": [
        {
          "internalType": "address",
          "name": "",
          "type": "address"
        },
        {
          "internalType": "uint256",
          "name": "",
          "type": "uint256"
        }
      ],
      "name": "listOwnToken",
      "outputs": [
        {
          "internalType": "uint256",
          "name": "",
          "type": "uint256"
        }
      ],
      "stateMutability": "view",
      "type": "function"
    },
    {
      "inputs": [],
      "name": "name",
      "outputs": [
        {
          "internalType": "string",
          "name": "",
          "type": "string"
        }
      ],
      "stateMutability": "view",
      "type": "function"
    },
    {
      "inputs": [],
      "name": "owner",
      "outputs": [
        {
          "internalType": "address",
          "name": "",
          "type": "address"
        }
      ],
      "stateMutability": "view",
      "type": "function"
    },
    {
      "inputs": [
        {
          "internalType": "uint256",
          "name": "tokenId",
          "type": "uint256"
        }
      ],
      "name": "ownerOf",
      "outputs": [
        {
          "internalType": "address",
          "name": "",
          "type": "address"
        }
      ],
      "stateMutability": "view",
      "type": "function"
    },
    {
      "inputs": [],
      "name": "platformFee",
      "outputs": [
        {
          "internalType": "uint256",
          "name": "",
          "type": "uint256"
        }
      ],
      "stateMutability": "view",
      "type": "function"
    },
    {
      "inputs": [],
      "name": "platformFeeRecipient",
      "outputs": [
        {
          "internalType": "address payable",
          "name": "",
          "type": "address"
        }
      ],
      "stateMutability": "view",
      "type": "function"
    },
    {
      "inputs": [],
      "name": "renounceOwnership",
      "outputs": [],
      "stateMutability": "nonpayable",
      "type": "function"
    },
    {
      "inputs": [
        {
          "internalType": "address",
          "name": "from",
          "type": "address"
        },
        {
          "internalType": "address",
          "name": "to",
          "type": "address"
        },
        {
          "internalType": "uint256",
          "name": "tokenId",
          "type": "uint256"
        }
      ],
      "name": "safeTransferFrom",
      "outputs": [],
      "stateMutability": "nonpayable",
      "type": "function"
    },
    {
      "inputs": [
        {
          "internalType": "address",
          "name": "from",
          "type": "address"
        },
        {
          "internalType": "address",
          "name": "to",
          "type": "address"
        },
        {
          "internalType": "uint256",
          "name": "tokenId",
          "type": "uint256"
        },
        {
          "internalType": "bytes",
          "name": "_data",
          "type": "bytes"
        }
      ],
      "name": "safeTransferFrom",
      "outputs": [],
      "stateMutability": "nonpayable",
      "type": "function"
    },
    {
      "inputs": [
        {
          "internalType": "address",
          "name": "operator",
          "type": "address"
        },
        {
          "internalType": "bool",
          "name": "approved",
          "type": "bool"
        }
      ],
      "name": "setApprovalForAll",
      "outputs": [],
      "stateMutability": "nonpayable",
      "type": "function"
    },
    {
      "inputs": [
        {
          "internalType": "string",
          "name": "uri",
          "type": "string"
        }
      ],
      "name": "settleBiddingSession",
      "outputs": [],
      "stateMutability": "payable",
      "type": "function"
    },
    {
      "inputs": [
        {
          "internalType": "bytes4",
          "name": "interfaceId",
          "type": "bytes4"
        }
      ],
      "name": "supportsInterface",
      "outputs": [
        {
          "internalType": "bool",
          "name": "",
          "type": "bool"
        }
      ],
      "stateMutability": "view",
      "type": "function"
    },
    {
      "inputs": [],
      "name": "symbol",
      "outputs": [
        {
          "internalType": "string",
          "name": "",
          "type": "string"
        }
      ],
      "stateMutability": "view",
      "type": "function"
    },
    {
      "inputs": [
        {
          "internalType": "string",
          "name": "",
          "type": "string"
        }
      ],
      "name": "tokenIdMapping",
      "outputs": [
        {
          "internalType": "uint256",
          "name": "",
          "type": "uint256"
        }
      ],
      "stateMutability": "view",
      "type": "function"
    },
    {
      "inputs": [
        {
          "internalType": "uint256",
          "name": "tokenId",
          "type": "uint256"
        }
      ],
      "name": "tokenURI",
      "outputs": [
        {
          "internalType": "string",
          "name": "",
          "type": "string"
        }
      ],
      "stateMutability": "view",
      "type": "function"
    },
    {
      "inputs": [
        {
          "internalType": "address",
          "name": "from",
          "type": "address"
        },
        {
          "internalType": "address",
          "name": "to",
          "type": "address"
        },
        {
          "internalType": "uint256",
          "name": "tokenId",
          "type": "uint256"
        }
      ],
      "name": "transferFrom",
      "outputs": [],
      "stateMutability": "nonpayable",
      "type": "function"
    },
    {
      "inputs": [
        {
          "internalType": "address",
          "name": "newOwner",
          "type": "address"
        }
      ],
      "name": "transferOwnership",
      "outputs": [],
      "stateMutability": "nonpayable",
      "type": "function"
    },
    {
      "inputs": [
        {
          "internalType": "uint256",
          "name": "_platformFee",
          "type": "uint256"
        }
      ],
      "name": "updatePlatformFee",
      "outputs": [],
      "stateMutability": "nonpayable",
      "type": "function"
    },
    {
      "inputs": [
        {
          "internalType": "address payable",
          "name": "_platformFeeRecipient",
          "type": "address"
        }
      ],
      "name": "updatePlatformFeeRecipient",
      "outputs": [],
      "stateMutability": "nonpayable",
      "type": "function"
    },
    {
      "inputs": [
        {
          "internalType": "uint256",
          "name": "money",
          "type": "uint256"
        }
      ],
      "name": "withDrawAll",
      "outputs": [],
      "stateMutability": "nonpayable",
      "type": "function"
    }
  ],
  "bytecode": "0x6080604052670de0b6b3a7640000600a55607d600b553480156200002257600080fd5b506040518060400160405280600981526020017f44656369626c696e6700000000000000000000000000000000000000000000008152506040518060400160405280600281526020017f44420000000000000000000000000000000000000000000000000000000000008152508160009080519060200190620000a79291906200024d565b508060019080519060200190620000c09291906200024d565b505050620000e3620000d76200017f60201b60201c565b6200018760201b60201c565b73d9145cce52d386f254917e481eb44e9943f39138600960006101000a81548173ffffffffffffffffffffffffffffffffffffffff021916908373ffffffffffffffffffffffffffffffffffffffff16021790555033600c60006101000a81548173ffffffffffffffffffffffffffffffffffffffff021916908373ffffffffffffffffffffffffffffffffffffffff16021790555062000362565b600033905090565b6000600660009054906101000a900473ffffffffffffffffffffffffffffffffffffffff16905081600660006101000a81548173ffffffffffffffffffffffffffffffffffffffff021916908373ffffffffffffffffffffffffffffffffffffffff1602179055508173ffffffffffffffffffffffffffffffffffffffff168173ffffffffffffffffffffffffffffffffffffffff167f8be0079c531659141344cd1fd0a4f28419497f9722a3daafe3b4186f6b6457e060405160405180910390a35050565b8280546200025b90620002fd565b90600052602060002090601f0160209004810192826200027f5760008555620002cb565b82601f106200029a57805160ff1916838001178555620002cb565b82800160010185558215620002cb579182015b82811115620002ca578251825591602001919060010190620002ad565b5b509050620002da9190620002de565b5090565b5b80821115620002f9576000816000905550600101620002df565b5090565b600060028204905060018216806200031657607f821691505b602082108114156200032d576200032c62000333565b5b50919050565b7f4e487b7100000000000000000000000000000000000000000000000000000000600052602260045260246000fd5b615ff280620003726000396000f3fe6080604052600436106101cd5760003560e01c8063715018a6116100f7578063b88eabdd11610095578063eb13554f11610064578063eb13554f146106bb578063f2fde38b146106e6578063f5fe7f711461070f578063ff41edbc14610738576101cd565b8063b88eabdd146105c7578063c87b56dd14610604578063d8189e0514610641578063e985e9c51461067e576101cd565b8063a22cb465116100d1578063a22cb46514610523578063aa0b59881461054c578063ab8a802014610575578063b88d4fde1461059e576101cd565b8063715018a6146104b65780638da5cb5b146104cd57806395d89b41146104f8576101cd565b80634387330e1161016f5780635ffd9d071161013e5780635ffd9d07146103c25780636352211e146103ff57806368613d171461043c57806370a0823114610479576101cd565b80634387330e1461031d578063480058481461035f5780635f00baa71461037b5780635f483313146103a6576101cd565b8063095ea7b3116101ab578063095ea7b31461027757806323b872dd146102a057806326232a2e146102c957806342842e0e146102f4576101cd565b806301ffc9a7146101d257806306fdde031461020f578063081812fc1461023a575b600080fd5b3480156101de57600080fd5b506101f960048036038101906101f491906145e3565b610754565b6040516102069190614f4b565b60405180910390f35b34801561021b57600080fd5b50610224610836565b6040516102319190614f81565b60405180910390f35b34801561024657600080fd5b50610261600480360381019061025c91906147b1565b6108c8565b60405161026e9190614dd1565b60405180910390f35b34801561028357600080fd5b5061029e6004803603810190610299919061457e565b61090e565b005b3480156102ac57600080fd5b506102c760048036038101906102c29190614478565b610a26565b005b3480156102d557600080fd5b506102de610cf5565b6040516102eb919061542b565b60405180910390f35b34801561030057600080fd5b5061031b60048036038101906103169190614478565b610cfb565b005b34801561032957600080fd5b50610344600480360381019061033f9190614635565b610d1b565b60405161035696959493929190614eb3565b60405180910390f35b61037960048036038101906103749190614736565b610eaa565b005b34801561038757600080fd5b506103906113ae565b60405161039d9190614f66565b60405180910390f35b6103c060048036038101906103bb91906146e2565b6113d4565b005b3480156103ce57600080fd5b506103e960048036038101906103e491906147b1565b6119ee565b6040516103f6919061542b565b60405180910390f35b34801561040b57600080fd5b50610426600480360381019061042191906147b1565b611a06565b6040516104339190614dd1565b60405180910390f35b34801561044857600080fd5b50610463600480360381019061045e9190614676565b611a8d565b604051610470919061542b565b60405180910390f35b34801561048557600080fd5b506104a0600480360381019061049b91906143ea565b611dd4565b6040516104ad919061542b565b60405180910390f35b3480156104c257600080fd5b506104cb611e8c565b005b3480156104d957600080fd5b506104e2611ea0565b6040516104ef9190614dd1565b60405180910390f35b34801561050457600080fd5b5061050d611eca565b60405161051a9190614f81565b60405180910390f35b34801561052f57600080fd5b5061054a60048036038101906105459190614542565b611f5c565b005b34801561055857600080fd5b50610573600480360381019061056e91906147b1565b611f72565b005b34801561058157600080fd5b5061059c600480360381019061059791906147b1565b611fbb565b005b3480156105aa57600080fd5b506105c560048036038101906105c091906144c7565b61200d565b005b3480156105d357600080fd5b506105ee60048036038101906105e99190614635565b6122de565b6040516105fb919061542b565b60405180910390f35b34801561061057600080fd5b5061062b600480360381019061062691906147b1565b61230c565b6040516106389190614f81565b60405180910390f35b34801561064d57600080fd5b506106686004803603810190610663919061457e565b61231e565b604051610675919061542b565b60405180910390f35b34801561068a57600080fd5b506106a560048036038101906106a0919061443c565b61234f565b6040516106b29190614f4b565b60405180910390f35b3480156106c757600080fd5b506106d06123e3565b6040516106dd9190614dec565b60405180910390f35b3480156106f257600080fd5b5061070d600480360381019061070891906143ea565b612409565b005b34801561071b57600080fd5b5061073660048036038101906107319190614413565b61248d565b005b610752600480360381019061074d9190614635565b612580565b005b60007f80ac58cd000000000000000000000000000000000000000000000000000000007bffffffffffffffffffffffffffffffffffffffffffffffffffffffff1916827bffffffffffffffffffffffffffffffffffffffffffffffffffffffff1916148061081f57507f5b5e139f000000000000000000000000000000000000000000000000000000007bffffffffffffffffffffffffffffffffffffffffffffffffffffffff1916827bffffffffffffffffffffffffffffffffffffffffffffffffffffffff1916145b8061082f575061082e82612e01565b5b9050919050565b6060600080546108459061578c565b80601f01602080910402602001604051908101604052809291908181526020018280546108719061578c565b80156108be5780601f10610893576101008083540402835291602001916108be565b820191906000526020600020905b8154815290600101906020018083116108a157829003601f168201915b5050505050905090565b60006108d382612e6b565b6004600083815260200190815260200160002060009054906101000a900473ffffffffffffffffffffffffffffffffffffffff169050919050565b600061091982611a06565b90508073ffffffffffffffffffffffffffffffffffffffff168373ffffffffffffffffffffffffffffffffffffffff16141561098a576040517f08c379a00000000000000000000000000000000000000000000000000000000081526004016109819061538b565b60405180910390fd5b8073ffffffffffffffffffffffffffffffffffffffff166109a9612eb6565b73ffffffffffffffffffffffffffffffffffffffff1614806109d857506109d7816109d2612eb6565b61234f565b5b610a17576040517f08c379a0000000000000000000000000000000000000000000000000000000008152600401610a0e906153ab565b60405180910390fd5b610a218383612ebe565b505050565b600f60008373ffffffffffffffffffffffffffffffffffffffff1673ffffffffffffffffffffffffffffffffffffffff168152602001908152602001600020819080600181540180825580915050600190039060005260206000200160009091909190915055600f60008473ffffffffffffffffffffffffffffffffffffffff1673ffffffffffffffffffffffffffffffffffffffff1681526020019081526020016000206001600f60008673ffffffffffffffffffffffffffffffffffffffff1673ffffffffffffffffffffffffffffffffffffffff16815260200190815260200160002080549050610b1a9190615611565b81548110610b51577f4e487b7100000000000000000000000000000000000000000000000000000000600052603260045260246000fd5b9060005260206000200154600f60008573ffffffffffffffffffffffffffffffffffffffff1673ffffffffffffffffffffffffffffffffffffffff168152602001908152602001600020601060008481526020019081526020016000205481548110610be6577f4e487b7100000000000000000000000000000000000000000000000000000000600052603260045260246000fd5b9060005260206000200181905550600f60008473ffffffffffffffffffffffffffffffffffffffff1673ffffffffffffffffffffffffffffffffffffffff168152602001908152602001600020805480610c69577f4e487b7100000000000000000000000000000000000000000000000000000000600052603160045260246000fd5b600190038181906000526020600020016000905590556001600f60008473ffffffffffffffffffffffffffffffffffffffff1673ffffffffffffffffffffffffffffffffffffffff16815260200190815260200160002080549050610cce9190615611565b6010600083815260200190815260200160002081905550610cf0838383612f77565b505050565b600b5481565b610d168383836040518060200160405280600081525061200d565b505050565b600d818051602081018201805184825260208301602085012081835280955050505050506000915090508060000160009054906101000a900473ffffffffffffffffffffffffffffffffffffffff1690806001018054610d7a9061578c565b80601f0160208091040260200160405190810160405280929190818152602001828054610da69061578c565b8015610df35780601f10610dc857610100808354040283529160200191610df3565b820191906000526020600020905b815481529060010190602001808311610dd657829003601f168201915b505050505090806002018054610e089061578c565b80601f0160208091040260200160405190810160405280929190818152602001828054610e349061578c565b8015610e815780601f10610e5657610100808354040283529160200191610e81565b820191906000526020600020905b815481529060010190602001808311610e6457829003601f168201915b5050505050908060030154908060040160009054906101000a900460ff16908060060154905086565b808210610eec576040517f08c379a0000000000000000000000000000000000000000000000000000000008152600401610ee3906150ab565b60405180910390fd5b6000600d85604051610efe9190614d96565b90815260200160405180910390209050848051906020012081600101604051610f279190614d7f565b604051809103902014610f6f576040517f08c379a0000000000000000000000000000000000000000000000000000000008152600401610f669061508b565b60405180910390fd5b3373ffffffffffffffffffffffffffffffffffffffff168160000160009054906101000a900473ffffffffffffffffffffffffffffffffffffffff1673ffffffffffffffffffffffffffffffffffffffff1614611001576040517f08c379a0000000000000000000000000000000000000000000000000000000008152600401610ff8906153eb565b60405180910390fd5b611009612fd7565b821161104a576040517f08c379a0000000000000000000000000000000000000000000000000000000008152600401611041906151eb565b60405180910390fd5b60006003811115611084577f4e487b7100000000000000000000000000000000000000000000000000000000600052602160045260246000fd5b8160040160009054906101000a900460ff1660038111156110ce577f4e487b7100000000000000000000000000000000000000000000000000000000600052602160045260246000fd5b148061115a575060038081111561110e577f4e487b7100000000000000000000000000000000000000000000000000000000600052602160045260246000fd5b8160040160009054906101000a900460ff166003811115611158577f4e487b7100000000000000000000000000000000000000000000000000000000600052602160045260246000fd5b145b611199576040517f08c379a00000000000000000000000000000000000000000000000000000000081526004016111909061540b565b60405180910390fd5b60018160060160008282546111ae9190615530565b9250508190555060008160050160008360060154815260200190815260200160002060000160006101000a81548173ffffffffffffffffffffffffffffffffffffffff021916908373ffffffffffffffffffffffffffffffffffffffff16021790555083816005016000836006015481526020019081526020016000206001018190555061123a612fd7565b831161124757600061124a565b60015b8160050160008360060154815260200190815260200160002060020160006101000a81548160ff021916908360038111156112ae577f4e487b7100000000000000000000000000000000000000000000000000000000600052602160045260246000fd5b02179055508281600501600083600601548152602001908152602001600020600301819055508181600501600083600601548152602001908152602001600020600401819055506000816005016000836006015481526020019081526020016000206005018190555060018160040160006101000a81548160ff02191690836003811115611365577f4e487b7100000000000000000000000000000000000000000000000000000000600052602160045260246000fd5b02179055507fe233c542868b104ebadeaae493a99c04bab3c65b4a0540ab44d7f753f8b0a4c68585858560405161139f949392919061501f565b60405180910390a15050505050565b600960009054906101000a900473ffffffffffffffffffffffffffffffffffffffff1681565b600960009054906101000a900473ffffffffffffffffffffffffffffffffffffffff1673ffffffffffffffffffffffffffffffffffffffff166323b872dd3330846040518463ffffffff1660e01b815260040161143393929190614e30565b602060405180830381600087803b15801561144d57600080fd5b505af1158015611461573d6000803e3d6000fd5b505050506040513d601f19601f8201168201806040525081019061148591906145ba565b506000600d836040516114989190614d96565b908152602001604051809103902090508280519060200120816001016040516114c19190614d7f565b604051809103902014611509576040517f08c379a00000000000000000000000000000000000000000000000000000000081526004016115009061508b565b60405180910390fd5b60016003811115611543577f4e487b7100000000000000000000000000000000000000000000000000000000600052602160045260246000fd5b8160040160009054906101000a900460ff16600381111561158d577f4e487b7100000000000000000000000000000000000000000000000000000000600052602160045260246000fd5b146115cd576040517f08c379a00000000000000000000000000000000000000000000000000000000081526004016115c4906150cb565b60405180910390fd5b600081600601541415611615576040517f08c379a000000000000000000000000000000000000000000000000000000000815260040161160c9061528b565b60405180910390fd5b600081600501600083600601548152602001908152602001600020905061163a612fd7565b81600301541115801561165857508060040154611655612fd7565b11155b611697576040517f08c379a000000000000000000000000000000000000000000000000000000000815260040161168e906152cb565b60405180910390fd5b60008160000160009054906101000a900473ffffffffffffffffffffffffffffffffffffffff169050600082600101549050600073ffffffffffffffffffffffffffffffffffffffff168273ffffffffffffffffffffffffffffffffffffffff16141561174a578483600101541115611745576040517f08c379a000000000000000000000000000000000000000000000000000000000815260040161173c906152ab565b60405180910390fd5b611791565b84836001015410611790576040517f08c379a0000000000000000000000000000000000000000000000000000000008152600401611787906152ab565b60405180910390fd5b5b60028360020160006101000a81548160ff021916908360038111156117df577f4e487b7100000000000000000000000000000000000000000000000000000000600052602160045260246000fd5b0217905550600060405180606001604052803373ffffffffffffffffffffffffffffffffffffffff16815260200187815260200161181b612fd7565b815250905060018460050160008282546118359190615530565b92505081905550808460060160008660050154815260200190815260200160002060008201518160000160006101000a81548173ffffffffffffffffffffffffffffffffffffffff021916908373ffffffffffffffffffffffffffffffffffffffff1602179055506020820151816001015560408201518160020155905050338460000160006101000a81548173ffffffffffffffffffffffffffffffffffffffff021916908373ffffffffffffffffffffffffffffffffffffffff160217905550858460010181905550600073ffffffffffffffffffffffffffffffffffffffff168373ffffffffffffffffffffffffffffffffffffffff16146119e557600960009054906101000a900473ffffffffffffffffffffffffffffffffffffffff1673ffffffffffffffffffffffffffffffffffffffff1663a9059cbb84846040518363ffffffff1660e01b8152600401611991929190614f22565b602060405180830381600087803b1580156119ab57600080fd5b505af11580156119bf573d6000803e3d6000fd5b505050506040513d601f19601f820116820180604052508101906119e391906145ba565b505b50505050505050565b60106020528060005260406000206000915090505481565b600080611a1283612fdf565b9050600073ffffffffffffffffffffffffffffffffffffffff168173ffffffffffffffffffffffffffffffffffffffff161415611a84576040517f08c379a0000000000000000000000000000000000000000000000000000000008152600401611a7b9061536b565b60405180910390fd5b80915050919050565b600080600d84604051611aa09190614d96565b90815260200160405180910390209050838051906020012081600101604051611ac99190614d7f565b60405180910390201415611b12576040517f08c379a0000000000000000000000000000000000000000000000000000000008152600401611b099061534b565b60405180910390fd5b611b1c600861301c565b33600d85604051611b2d9190614d96565b908152602001604051809103902060000160006101000a81548173ffffffffffffffffffffffffffffffffffffffff021916908373ffffffffffffffffffffffffffffffffffffffff16021790555083600d85604051611b8d9190614d96565b90815260200160405180910390206001019080519060200190611bb19291906141e4565b5082600d85604051611bc39190614d96565b90815260200160405180910390206002019080519060200190611be79291906141e4565b506000600d85604051611bfa9190614d96565b908152602001604051809103902060040160006101000a81548160ff02191690836003811115611c53577f4e487b7100000000000000000000000000000000000000000000000000000000600052602160045260246000fd5b02179055506000600d85604051611c6a9190614d96565b9081526020016040518091039020600601819055506000611c8b6008613032565b9050611c973382613040565b611ca1818661325e565b80600e86604051611cb29190614d96565b908152602001604051809103902081905550600f60003373ffffffffffffffffffffffffffffffffffffffff1673ffffffffffffffffffffffffffffffffffffffff1681526020019081526020016000208190806001815401808255809150506001900390600052602060002001600090919091909150556001600f60003373ffffffffffffffffffffffffffffffffffffffff1673ffffffffffffffffffffffffffffffffffffffff16815260200190815260200160002080549050611d799190615611565b60106000838152602001908152602001600020819055507f59e3e0f1aabce96b386d212c7c9563c597464cb2f714aa8cf022346ea95cfbc68582604051611dc1929190614fef565b60405180910390a1809250505092915050565b60008073ffffffffffffffffffffffffffffffffffffffff168273ffffffffffffffffffffffffffffffffffffffff161415611e45576040517f08c379a0000000000000000000000000000000000000000000000000000000008152600401611e3c9061524b565b60405180910390fd5b600360008373ffffffffffffffffffffffffffffffffffffffff1673ffffffffffffffffffffffffffffffffffffffff168152602001908152602001600020549050919050565b611e946132d2565b611e9e6000613350565b565b6000600660009054906101000a900473ffffffffffffffffffffffffffffffffffffffff16905090565b606060018054611ed99061578c565b80601f0160208091040260200160405190810160405280929190818152602001828054611f059061578c565b8015611f525780601f10611f2757610100808354040283529160200191611f52565b820191906000526020600020905b815481529060010190602001808311611f3557829003601f168201915b5050505050905090565b611f6e611f67612eb6565b8383613416565b5050565b611f7a6132d2565b80600b819055507f2644fd26359c107ff7991b6dfc36ce902b334ce4e3891bbecacc5922aa620efa81604051611fb0919061542b565b60405180910390a150565b611fc36132d2565b3373ffffffffffffffffffffffffffffffffffffffff166108fc829081150290604051600060405180830381858888f19350505050158015612009573d6000803e3d6000fd5b5050565b600f60008473ffffffffffffffffffffffffffffffffffffffff1673ffffffffffffffffffffffffffffffffffffffff168152602001908152602001600020829080600181540180825580915050600190039060005260206000200160009091909190915055600f60008573ffffffffffffffffffffffffffffffffffffffff1673ffffffffffffffffffffffffffffffffffffffff1681526020019081526020016000206001600f60008773ffffffffffffffffffffffffffffffffffffffff1673ffffffffffffffffffffffffffffffffffffffff168152602001908152602001600020805490506121019190615611565b81548110612138577f4e487b7100000000000000000000000000000000000000000000000000000000600052603260045260246000fd5b9060005260206000200154600f60008673ffffffffffffffffffffffffffffffffffffffff1673ffffffffffffffffffffffffffffffffffffffff1681526020019081526020016000206010600085815260200190815260200160002054815481106121cd577f4e487b7100000000000000000000000000000000000000000000000000000000600052603260045260246000fd5b9060005260206000200181905550600f60008573ffffffffffffffffffffffffffffffffffffffff1673ffffffffffffffffffffffffffffffffffffffff168152602001908152602001600020805480612250577f4e487b7100000000000000000000000000000000000000000000000000000000600052603160045260246000fd5b600190038181906000526020600020016000905590556001600f60008573ffffffffffffffffffffffffffffffffffffffff1673ffffffffffffffffffffffffffffffffffffffff168152602001908152602001600020805490506122b59190615611565b60106000848152602001908152602001600020819055506122d884848484613583565b50505050565b600e818051602081018201805184825260208301602085012081835280955050505050506000915090505481565b6060612317826135e5565b9050919050565b600f602052816000526040600020818154811061233a57600080fd5b90600052602060002001600091509150505481565b6000600560008473ffffffffffffffffffffffffffffffffffffffff1673ffffffffffffffffffffffffffffffffffffffff16815260200190815260200160002060008373ffffffffffffffffffffffffffffffffffffffff1673ffffffffffffffffffffffffffffffffffffffff16815260200190815260200160002060009054906101000a900460ff16905092915050565b600c60009054906101000a900473ffffffffffffffffffffffffffffffffffffffff1681565b6124116132d2565b600073ffffffffffffffffffffffffffffffffffffffff168173ffffffffffffffffffffffffffffffffffffffff161415612481576040517f08c379a00000000000000000000000000000000000000000000000000000000081526004016124789061512b565b60405180910390fd5b61248a81613350565b50565b6124956132d2565b600073ffffffffffffffffffffffffffffffffffffffff168173ffffffffffffffffffffffffffffffffffffffff161415612505576040517f08c379a00000000000000000000000000000000000000000000000000000000081526004016124fc9061532b565b60405180910390fd5b80600c60006101000a81548173ffffffffffffffffffffffffffffffffffffffff021916908373ffffffffffffffffffffffffffffffffffffffff1602179055507fe57e7c1f36cc83fade34e32351e6eee7eb9da532662b1b5da10c631e8222aca7816040516125759190614dec565b60405180910390a150565b6000600d826040516125929190614d96565b908152602001604051809103902090508180519060200120816001016040516125bb9190614d7f565b604051809103902014612603576040517f08c379a00000000000000000000000000000000000000000000000000000000081526004016125fa9061508b565b60405180910390fd5b6001600381111561263d577f4e487b7100000000000000000000000000000000000000000000000000000000600052602160045260246000fd5b8160040160009054906101000a900460ff166003811115612687577f4e487b7100000000000000000000000000000000000000000000000000000000600052602160045260246000fd5b146126c7576040517f08c379a00000000000000000000000000000000000000000000000000000000081526004016126be9061522b565b60405180910390fd5b60008160060154141561270f576040517f08c379a00000000000000000000000000000000000000000000000000000000081526004016127069061528b565b60405180910390fd5b600073ffffffffffffffffffffffffffffffffffffffff16600c60009054906101000a900473ffffffffffffffffffffffffffffffffffffffff1673ffffffffffffffffffffffffffffffffffffffff1614156127a1576040517f08c379a00000000000000000000000000000000000000000000000000000000081526004016127989061520b565b60405180910390fd5b60008160050160008360060154815260200190815260200160002090506127c6612fd7565b81600301541080156127e2575080600401546127e0612fd7565b115b612821576040517f08c379a0000000000000000000000000000000000000000000000000000000008152600401612818906150eb565b60405180910390fd5b6002600381111561285b577f4e487b7100000000000000000000000000000000000000000000000000000000600052602160045260246000fd5b8160020160009054906101000a900460ff1660038111156128a5577f4e487b7100000000000000000000000000000000000000000000000000000000600052602160045260246000fd5b14806129325750600160038111156128e6577f4e487b7100000000000000000000000000000000000000000000000000000000600052602160045260246000fd5b8260040160009054906101000a900460ff166003811115612930577f4e487b7100000000000000000000000000000000000000000000000000000000600052602160045260246000fd5b145b612971576040517f08c379a00000000000000000000000000000000000000000000000000000000081526004016129689061514b565b60405180910390fd5b6000816001015490506000808460000160009054906101000a900473ffffffffffffffffffffffffffffffffffffffff169050600073ffffffffffffffffffffffffffffffffffffffff168460000160009054906101000a900473ffffffffffffffffffffffffffffffffffffffff1673ffffffffffffffffffffffffffffffffffffffff1614612cf2576000600b541115612a25576103e8600b5484612a1891906155b7565b612a229190615586565b91505b60008211612a68576040517f08c379a0000000000000000000000000000000000000000000000000000000008152600401612a5f906153cb565b60405180910390fd5b612ad98560000160009054906101000a900473ffffffffffffffffffffffffffffffffffffffff168560000160009054906101000a900473ffffffffffffffffffffffffffffffffffffffff16600e89604051612ac59190614d96565b908152602001604051809103902054610cfb565b8360000160009054906101000a900473ffffffffffffffffffffffffffffffffffffffff168560000160006101000a81548173ffffffffffffffffffffffffffffffffffffffff021916908373ffffffffffffffffffffffffffffffffffffffff160217905550600960009054906101000a900473ffffffffffffffffffffffffffffffffffffffff1673ffffffffffffffffffffffffffffffffffffffff1663a9059cbb8660000160009054906101000a900473ffffffffffffffffffffffffffffffffffffffff168486612baf9190615611565b6040518363ffffffff1660e01b8152600401612bcc929190614f22565b602060405180830381600087803b158015612be657600080fd5b505af1158015612bfa573d6000803e3d6000fd5b505050506040513d601f19601f82011682018060405250810190612c1e91906145ba565b50600960009054906101000a900473ffffffffffffffffffffffffffffffffffffffff1673ffffffffffffffffffffffffffffffffffffffff1663a9059cbb600c60009054906101000a900473ffffffffffffffffffffffffffffffffffffffff16846040518363ffffffff1660e01b8152600401612c9e929190614e07565b602060405180830381600087803b158015612cb857600080fd5b505af1158015612ccc573d6000803e3d6000fd5b505050506040513d601f19601f82011682018060405250810190612cf091906145ba565b505b7f4af0d96588e310fac2873d03b8fd52d531822431514d49018854f40becd4d39486828660000160009054906101000a900473ffffffffffffffffffffffffffffffffffffffff1685604051612d4b9493929190614fa3565b60405180910390a160038460020160006101000a81548160ff02191690836003811115612da1577f4e487b7100000000000000000000000000000000000000000000000000000000600052602160045260246000fd5b021790555060038560040160006101000a81548160ff02191690836003811115612df4577f4e487b7100000000000000000000000000000000000000000000000000000000600052602160045260246000fd5b0217905550505050505050565b60007f01ffc9a7000000000000000000000000000000000000000000000000000000007bffffffffffffffffffffffffffffffffffffffffffffffffffffffff1916827bffffffffffffffffffffffffffffffffffffffffffffffffffffffff1916149050919050565b612e74816136f8565b612eb3576040517f08c379a0000000000000000000000000000000000000000000000000000000008152600401612eaa9061536b565b60405180910390fd5b50565b600033905090565b816004600083815260200190815260200160002060006101000a81548173ffffffffffffffffffffffffffffffffffffffff021916908373ffffffffffffffffffffffffffffffffffffffff160217905550808273ffffffffffffffffffffffffffffffffffffffff16612f3183611a06565b73ffffffffffffffffffffffffffffffffffffffff167f8c5be1e5ebec7d5bd14f71427d1e84f3dd0314c0f7b2291e5b200ac8c7c3b92560405160405180910390a45050565b612f88612f82612eb6565b82613739565b612fc7576040517f08c379a0000000000000000000000000000000000000000000000000000000008152600401612fbe9061506b565b60405180910390fd5b612fd28383836137ce565b505050565b600042905090565b60006002600083815260200190815260200160002060009054906101000a900473ffffffffffffffffffffffffffffffffffffffff169050919050565b6001816000016000828254019250508190555050565b600081600001549050919050565b600073ffffffffffffffffffffffffffffffffffffffff168273ffffffffffffffffffffffffffffffffffffffff1614156130b0576040517f08c379a00000000000000000000000000000000000000000000000000000000081526004016130a7906152eb565b60405180910390fd5b6130b9816136f8565b156130f9576040517f08c379a00000000000000000000000000000000000000000000000000000000081526004016130f09061518b565b60405180910390fd5b613107600083836001613ac8565b613110816136f8565b15613150576040517f08c379a00000000000000000000000000000000000000000000000000000000081526004016131479061518b565b60405180910390fd5b6001600360008473ffffffffffffffffffffffffffffffffffffffff1673ffffffffffffffffffffffffffffffffffffffff16815260200190815260200160002060008282540192505081905550816002600083815260200190815260200160002060006101000a81548173ffffffffffffffffffffffffffffffffffffffff021916908373ffffffffffffffffffffffffffffffffffffffff160217905550808273ffffffffffffffffffffffffffffffffffffffff16600073ffffffffffffffffffffffffffffffffffffffff167fddf252ad1be2c89b69c2b068fc378daa952ba7f163c4a11628f55a4df523b3ef60405160405180910390a461325a600083836001613bee565b5050565b613267826136f8565b6132a6576040517f08c379a000000000000000000000000000000000000000000000000000000000815260040161329d9061526b565b60405180910390fd5b806007600084815260200190815260200160002090805190602001906132cd9291906141e4565b505050565b6132da612eb6565b73ffffffffffffffffffffffffffffffffffffffff166132f8611ea0565b73ffffffffffffffffffffffffffffffffffffffff161461334e576040517f08c379a00000000000000000000000000000000000000000000000000000000081526004016133459061530b565b60405180910390fd5b565b6000600660009054906101000a900473ffffffffffffffffffffffffffffffffffffffff16905081600660006101000a81548173ffffffffffffffffffffffffffffffffffffffff021916908373ffffffffffffffffffffffffffffffffffffffff1602179055508173ffffffffffffffffffffffffffffffffffffffff168173ffffffffffffffffffffffffffffffffffffffff167f8be0079c531659141344cd1fd0a4f28419497f9722a3daafe3b4186f6b6457e060405160405180910390a35050565b8173ffffffffffffffffffffffffffffffffffffffff168373ffffffffffffffffffffffffffffffffffffffff161415613485576040517f08c379a000000000000000000000000000000000000000000000000000000000815260040161347c906151cb565b60405180910390fd5b80600560008573ffffffffffffffffffffffffffffffffffffffff1673ffffffffffffffffffffffffffffffffffffffff16815260200190815260200160002060008473ffffffffffffffffffffffffffffffffffffffff1673ffffffffffffffffffffffffffffffffffffffff16815260200190815260200160002060006101000a81548160ff0219169083151502179055508173ffffffffffffffffffffffffffffffffffffffff168373ffffffffffffffffffffffffffffffffffffffff167f17307eab39ab6107e8899845ad3d59bd9653f200f220920489ca2b5937696c31836040516135769190614f4b565b60405180910390a3505050565b61359461358e612eb6565b83613739565b6135d3576040517f08c379a00000000000000000000000000000000000000000000000000000000081526004016135ca9061506b565b60405180910390fd5b6135df84848484613bf4565b50505050565b60606135f082612e6b565b60006007600084815260200190815260200160002080546136109061578c565b80601f016020809104026020016040519081016040528092919081815260200182805461363c9061578c565b80156136895780601f1061365e57610100808354040283529160200191613689565b820191906000526020600020905b81548152906001019060200180831161366c57829003601f168201915b50505050509050600061369a613c50565b90506000815114156136b05781925050506136f3565b6000825111156136e55780826040516020016136cd929190614dad565b604051602081830303815290604052925050506136f3565b6136ee84613c67565b925050505b919050565b60008073ffffffffffffffffffffffffffffffffffffffff1661371a83612fdf565b73ffffffffffffffffffffffffffffffffffffffff1614159050919050565b60008061374583611a06565b90508073ffffffffffffffffffffffffffffffffffffffff168473ffffffffffffffffffffffffffffffffffffffff1614806137875750613786818561234f565b5b806137c557508373ffffffffffffffffffffffffffffffffffffffff166137ad846108c8565b73ffffffffffffffffffffffffffffffffffffffff16145b91505092915050565b8273ffffffffffffffffffffffffffffffffffffffff166137ee82611a06565b73ffffffffffffffffffffffffffffffffffffffff1614613844576040517f08c379a000000000000000000000000000000000000000000000000000000000815260040161383b9061516b565b60405180910390fd5b600073ffffffffffffffffffffffffffffffffffffffff168273ffffffffffffffffffffffffffffffffffffffff1614156138b4576040517f08c379a00000000000000000000000000000000000000000000000000000000081526004016138ab906151ab565b60405180910390fd5b6138c18383836001613ac8565b8273ffffffffffffffffffffffffffffffffffffffff166138e182611a06565b73ffffffffffffffffffffffffffffffffffffffff1614613937576040517f08c379a000000000000000000000000000000000000000000000000000000000815260040161392e9061516b565b60405180910390fd5b6004600082815260200190815260200160002060006101000a81549073ffffffffffffffffffffffffffffffffffffffff02191690556001600360008573ffffffffffffffffffffffffffffffffffffffff1673ffffffffffffffffffffffffffffffffffffffff168152602001908152602001600020600082825403925050819055506001600360008473ffffffffffffffffffffffffffffffffffffffff1673ffffffffffffffffffffffffffffffffffffffff16815260200190815260200160002060008282540192505081905550816002600083815260200190815260200160002060006101000a81548173ffffffffffffffffffffffffffffffffffffffff021916908373ffffffffffffffffffffffffffffffffffffffff160217905550808273ffffffffffffffffffffffffffffffffffffffff168473ffffffffffffffffffffffffffffffffffffffff167fddf252ad1be2c89b69c2b068fc378daa952ba7f163c4a11628f55a4df523b3ef60405160405180910390a4613ac38383836001613bee565b505050565b6001811115613be857600073ffffffffffffffffffffffffffffffffffffffff168473ffffffffffffffffffffffffffffffffffffffff1614613b5c5780600360008673ffffffffffffffffffffffffffffffffffffffff1673ffffffffffffffffffffffffffffffffffffffff1681526020019081526020016000206000828254613b549190615611565b925050819055505b600073ffffffffffffffffffffffffffffffffffffffff168373ffffffffffffffffffffffffffffffffffffffff1614613be75780600360008573ffffffffffffffffffffffffffffffffffffffff1673ffffffffffffffffffffffffffffffffffffffff1681526020019081526020016000206000828254613bdf9190615530565b925050819055505b5b50505050565b50505050565b613bff8484846137ce565b613c0b84848484613ccf565b613c4a576040517f08c379a0000000000000000000000000000000000000000000000000000000008152600401613c419061510b565b60405180910390fd5b50505050565b606060405180602001604052806000815250905090565b6060613c7282612e6b565b6000613c7c613c50565b90506000815111613c9c5760405180602001604052806000815250613cc7565b80613ca684613e66565b604051602001613cb7929190614dad565b6040516020818303038152906040525b915050919050565b6000613cf08473ffffffffffffffffffffffffffffffffffffffff16613f8a565b15613e59578373ffffffffffffffffffffffffffffffffffffffff1663150b7a02613d19612eb6565b8786866040518563ffffffff1660e01b8152600401613d3b9493929190614e67565b602060405180830381600087803b158015613d5557600080fd5b505af1925050508015613d8657506040513d601f19601f82011682018060405250810190613d83919061460c565b60015b613e09573d8060008114613db6576040519150601f19603f3d011682016040523d82523d6000602084013e613dbb565b606091505b50600081511415613e01576040517f08c379a0000000000000000000000000000000000000000000000000000000008152600401613df89061510b565b60405180910390fd5b805181602001fd5b63150b7a0260e01b7bffffffffffffffffffffffffffffffffffffffffffffffffffffffff1916817bffffffffffffffffffffffffffffffffffffffffffffffffffffffff191614915050613e5e565b600190505b949350505050565b606060006001613e7584613fad565b01905060008167ffffffffffffffff811115613eba577f4e487b7100000000000000000000000000000000000000000000000000000000600052604160045260246000fd5b6040519080825280601f01601f191660200182016040528015613eec5781602001600182028036833780820191505090505b509050600082602001820190505b600115613f7f578080600190039150507f3031323334353637383961626364656600000000000000000000000000000000600a86061a8153600a8581613f69577f4e487b7100000000000000000000000000000000000000000000000000000000600052601260045260246000fd5b0494506000851415613f7a57613f7f565b613efa565b819350505050919050565b6000808273ffffffffffffffffffffffffffffffffffffffff163b119050919050565b600080600090507a184f03e93ff9f4daa797ed6e38ed64bf6a1f0100000000000000008310614031577a184f03e93ff9f4daa797ed6e38ed64bf6a1f0100000000000000008381614027577f4e487b7100000000000000000000000000000000000000000000000000000000600052601260045260246000fd5b0492506040810190505b6d04ee2d6d415b85acef81000000008310614094576d04ee2d6d415b85acef8100000000838161408a577f4e487b7100000000000000000000000000000000000000000000000000000000600052601260045260246000fd5b0492506020810190505b662386f26fc1000083106140e957662386f26fc1000083816140df577f4e487b7100000000000000000000000000000000000000000000000000000000600052601260045260246000fd5b0492506010810190505b6305f5e1008310614138576305f5e100838161412e577f4e487b7100000000000000000000000000000000000000000000000000000000600052601260045260246000fd5b0492506008810190505b6127108310614183576127108381614179577f4e487b7100000000000000000000000000000000000000000000000000000000600052601260045260246000fd5b0492506004810190505b606483106141cc57606483816141c2577f4e487b7100000000000000000000000000000000000000000000000000000000600052601260045260246000fd5b0492506002810190505b600a83106141db576001810190505b80915050919050565b8280546141f09061578c565b90600052602060002090601f0160209004810192826142125760008555614259565b82601f1061422b57805160ff1916838001178555614259565b82800160010185558215614259579182015b8281111561425857825182559160200191906001019061423d565b5b509050614266919061426a565b5090565b5b8082111561428357600081600090555060010161426b565b5090565b600061429a6142958461546b565b615446565b9050828152602081018484840111156142b257600080fd5b6142bd84828561574a565b509392505050565b60006142d86142d38461549c565b615446565b9050828152602081018484840111156142f057600080fd5b6142fb84828561574a565b509392505050565b60008135905061431281615f49565b92915050565b60008135905061432781615f60565b92915050565b60008135905061433c81615f77565b92915050565b60008151905061435181615f77565b92915050565b60008135905061436681615f8e565b92915050565b60008151905061437b81615f8e565b92915050565b600082601f83011261439257600080fd5b81356143a2848260208601614287565b91505092915050565b600082601f8301126143bc57600080fd5b81356143cc8482602086016142c5565b91505092915050565b6000813590506143e481615fa5565b92915050565b6000602082840312156143fc57600080fd5b600061440a84828501614303565b91505092915050565b60006020828403121561442557600080fd5b600061443384828501614318565b91505092915050565b6000806040838503121561444f57600080fd5b600061445d85828601614303565b925050602061446e85828601614303565b9150509250929050565b60008060006060848603121561448d57600080fd5b600061449b86828701614303565b93505060206144ac86828701614303565b92505060406144bd868287016143d5565b9150509250925092565b600080600080608085870312156144dd57600080fd5b60006144eb87828801614303565b94505060206144fc87828801614303565b935050604061450d878288016143d5565b925050606085013567ffffffffffffffff81111561452a57600080fd5b61453687828801614381565b91505092959194509250565b6000806040838503121561455557600080fd5b600061456385828601614303565b92505060206145748582860161432d565b9150509250929050565b6000806040838503121561459157600080fd5b600061459f85828601614303565b92505060206145b0858286016143d5565b9150509250929050565b6000602082840312156145cc57600080fd5b60006145da84828501614342565b91505092915050565b6000602082840312156145f557600080fd5b600061460384828501614357565b91505092915050565b60006020828403121561461e57600080fd5b600061462c8482850161436c565b91505092915050565b60006020828403121561464757600080fd5b600082013567ffffffffffffffff81111561466157600080fd5b61466d848285016143ab565b91505092915050565b6000806040838503121561468957600080fd5b600083013567ffffffffffffffff8111156146a357600080fd5b6146af858286016143ab565b925050602083013567ffffffffffffffff8111156146cc57600080fd5b6146d8858286016143ab565b9150509250929050565b600080604083850312156146f557600080fd5b600083013567ffffffffffffffff81111561470f57600080fd5b61471b858286016143ab565b925050602061472c858286016143d5565b9150509250929050565b6000806000806080858703121561474c57600080fd5b600085013567ffffffffffffffff81111561476657600080fd5b614772878288016143ab565b9450506020614783878288016143d5565b9350506040614794878288016143d5565b92505060606147a5878288016143d5565b91505092959194509250565b6000602082840312156147c357600080fd5b60006147d1848285016143d5565b91505092915050565b6147e3816156de565b82525050565b6147f281615657565b82525050565b61480181615645565b82525050565b61481081615669565b82525050565b6000614821826154e2565b61482b81856154f8565b935061483b818560208601615759565b614844816158da565b840191505092915050565b6000815461485c8161578c565b6148668186615509565b945060018216600081146148815760018114614892576148c5565b60ff198316865281860193506148c5565b61489b856154cd565b60005b838110156148bd5781548189015260018201915060208101905061489e565b838801955050505b50505092915050565b6148d7816156f0565b82525050565b6148e681615714565b82525050565b60006148f7826154ed565b6149018185615514565b9350614911818560208601615759565b61491a816158da565b840191505092915050565b6000614930826154ed565b61493a8185615525565b935061494a818560208601615759565b80840191505092915050565b6000614963602d83615514565b915061496e826158eb565b604082019050919050565b6000614986600183615514565b91506149918261593a565b602082019050919050565b60006149a9602283615514565b91506149b482615963565b604082019050919050565b60006149cc600283615514565b91506149d7826159b2565b602082019050919050565b60006149ef600283615514565b91506149fa826159db565b602082019050919050565b6000614a12603283615514565b9150614a1d82615a04565b604082019050919050565b6000614a35602683615514565b9150614a4082615a53565b604082019050919050565b6000614a58600283615514565b9150614a6382615aa2565b602082019050919050565b6000614a7b602583615514565b9150614a8682615acb565b604082019050919050565b6000614a9e601c83615514565b9150614aa982615b1a565b602082019050919050565b6000614ac1602483615514565b9150614acc82615b43565b604082019050919050565b6000614ae4601983615514565b9150614aef82615b92565b602082019050919050565b6000614b07600183615514565b9150614b1282615bbb565b602082019050919050565b6000614b2a600b83615514565b9150614b3582615be4565b602082019050919050565b6000614b4d600283615514565b9150614b5882615c0d565b602082019050919050565b6000614b70602983615514565b9150614b7b82615c36565b604082019050919050565b6000614b93602e83615514565b9150614b9e82615c85565b604082019050919050565b6000614bb6600283615514565b9150614bc182615cd4565b602082019050919050565b6000614bd9600283615514565b9150614be482615cfd565b602082019050919050565b6000614bfc600283615514565b9150614c0782615d26565b602082019050919050565b6000614c1f602083615514565b9150614c2a82615d4f565b602082019050919050565b6000614c42602083615514565b9150614c4d82615d78565b602082019050919050565b6000614c65600c83615514565b9150614c7082615da1565b602082019050919050565b6000614c88600183615514565b9150614c9382615dca565b602082019050919050565b6000614cab601883615514565b9150614cb682615df3565b602082019050919050565b6000614cce602183615514565b9150614cd982615e1c565b604082019050919050565b6000614cf1603d83615514565b9150614cfc82615e6b565b604082019050919050565b6000614d14600983615514565b9150614d1f82615eba565b602082019050919050565b6000614d37600183615514565b9150614d4282615ee3565b602082019050919050565b6000614d5a600183615514565b9150614d6582615f0c565b602082019050919050565b614d79816156d4565b82525050565b6000614d8b828461484f565b915081905092915050565b6000614da28284614925565b915081905092915050565b6000614db98285614925565b9150614dc58284614925565b91508190509392505050565b6000602082019050614de660008301846147f8565b92915050565b6000602082019050614e0160008301846147e9565b92915050565b6000604082019050614e1c60008301856147da565b614e296020830184614d70565b9392505050565b6000606082019050614e4560008301866147f8565b614e5260208301856147f8565b614e5f6040830184614d70565b949350505050565b6000608082019050614e7c60008301876147f8565b614e8960208301866147f8565b614e966040830185614d70565b8181036060830152614ea88184614816565b905095945050505050565b600060c082019050614ec860008301896147f8565b8181036020830152614eda81886148ec565b90508181036040830152614eee81876148ec565b9050614efd6060830186614d70565b614f0a60808301856148dd565b614f1760a0830184614d70565b979650505050505050565b6000604082019050614f3760008301856147f8565b614f446020830184614d70565b9392505050565b6000602082019050614f606000830184614807565b92915050565b6000602082019050614f7b60008301846148ce565b92915050565b60006020820190508181036000830152614f9b81846148ec565b905092915050565b60006080820190508181036000830152614fbd81876148ec565b9050614fcc60208301866147f8565b614fd960408301856147f8565b614fe66060830184614d70565b95945050505050565b6000604082019050818103600083015261500981856148ec565b90506150186020830184614d70565b9392505050565b6000608082019050818103600083015261503981876148ec565b90506150486020830186614d70565b6150556040830185614d70565b6150626060830184614d70565b95945050505050565b6000602082019050818103600083015261508481614956565b9050919050565b600060208201905081810360008301526150a481614979565b9050919050565b600060208201905081810360008301526150c48161499c565b9050919050565b600060208201905081810360008301526150e4816149bf565b9050919050565b60006020820190508181036000830152615104816149e2565b9050919050565b6000602082019050818103600083015261512481614a05565b9050919050565b6000602082019050818103600083015261514481614a28565b9050919050565b6000602082019050818103600083015261516481614a4b565b9050919050565b6000602082019050818103600083015261518481614a6e565b9050919050565b600060208201905081810360008301526151a481614a91565b9050919050565b600060208201905081810360008301526151c481614ab4565b9050919050565b600060208201905081810360008301526151e481614ad7565b9050919050565b6000602082019050818103600083015261520481614afa565b9050919050565b6000602082019050818103600083015261522481614b1d565b9050919050565b6000602082019050818103600083015261524481614b40565b9050919050565b6000602082019050818103600083015261526481614b63565b9050919050565b6000602082019050818103600083015261528481614b86565b9050919050565b600060208201905081810360008301526152a481614ba9565b9050919050565b600060208201905081810360008301526152c481614bcc565b9050919050565b600060208201905081810360008301526152e481614bef565b9050919050565b6000602082019050818103600083015261530481614c12565b9050919050565b6000602082019050818103600083015261532481614c35565b9050919050565b6000602082019050818103600083015261534481614c58565b9050919050565b6000602082019050818103600083015261536481614c7b565b9050919050565b6000602082019050818103600083015261538481614c9e565b9050919050565b600060208201905081810360008301526153a481614cc1565b9050919050565b600060208201905081810360008301526153c481614ce4565b9050919050565b600060208201905081810360008301526153e481614d07565b9050919050565b6000602082019050818103600083015261540481614d2a565b9050919050565b6000602082019050818103600083015261542481614d4d565b9050919050565b60006020820190506154406000830184614d70565b92915050565b6000615450615461565b905061545c82826157be565b919050565b6000604051905090565b600067ffffffffffffffff821115615486576154856158ab565b5b61548f826158da565b9050602081019050919050565b600067ffffffffffffffff8211156154b7576154b66158ab565b5b6154c0826158da565b9050602081019050919050565b60008190508160005260206000209050919050565b600081519050919050565b600081519050919050565b600082825260208201905092915050565b600081905092915050565b600082825260208201905092915050565b600081905092915050565b600061553b826156d4565b9150615546836156d4565b9250827fffffffffffffffffffffffffffffffffffffffffffffffffffffffffffffffff0382111561557b5761557a6157ef565b5b828201905092915050565b6000615591826156d4565b915061559c836156d4565b9250826155ac576155ab61581e565b5b828204905092915050565b60006155c2826156d4565b91506155cd836156d4565b9250817fffffffffffffffffffffffffffffffffffffffffffffffffffffffffffffffff0483118215151615615606576156056157ef565b5b828202905092915050565b600061561c826156d4565b9150615627836156d4565b92508282101561563a576156396157ef565b5b828203905092915050565b6000615650826156b4565b9050919050565b6000615662826156b4565b9050919050565b60008115159050919050565b60007fffffffff0000000000000000000000000000000000000000000000000000000082169050919050565b60008190506156af82615f35565b919050565b600073ffffffffffffffffffffffffffffffffffffffff82169050919050565b6000819050919050565b60006156e982615726565b9050919050565b60006156fb82615702565b9050919050565b600061570d826156b4565b9050919050565b600061571f826156a1565b9050919050565b600061573182615738565b9050919050565b6000615743826156b4565b9050919050565b82818337600083830152505050565b60005b8381101561577757808201518184015260208101905061575c565b83811115615786576000848401525b50505050565b600060028204905060018216806157a457607f821691505b602082108114156157b8576157b761587c565b5b50919050565b6157c7826158da565b810181811067ffffffffffffffff821117156157e6576157e56158ab565b5b80604052505050565b7f4e487b7100000000000000000000000000000000000000000000000000000000600052601160045260246000fd5b7f4e487b7100000000000000000000000000000000000000000000000000000000600052601260045260246000fd5b7f4e487b7100000000000000000000000000000000000000000000000000000000600052602160045260246000fd5b7f4e487b7100000000000000000000000000000000000000000000000000000000600052602260045260246000fd5b7f4e487b7100000000000000000000000000000000000000000000000000000000600052604160045260246000fd5b6000601f19601f8301169050919050565b7f4552433732313a2063616c6c6572206973206e6f7420746f6b656e206f776e6560008201527f72206f7220617070726f76656400000000000000000000000000000000000000602082015250565b7f3400000000000000000000000000000000000000000000000000000000000000600082015250565b7f53746172742074696d65206d757374206265206265666f726520656e6420746960008201527f6d65000000000000000000000000000000000000000000000000000000000000602082015250565b7f3130000000000000000000000000000000000000000000000000000000000000600082015250565b7f3135000000000000000000000000000000000000000000000000000000000000600082015250565b7f4552433732313a207472616e7366657220746f206e6f6e20455243373231526560008201527f63656976657220696d706c656d656e7465720000000000000000000000000000602082015250565b7f4f776e61626c653a206e6577206f776e657220697320746865207a65726f206160008201527f6464726573730000000000000000000000000000000000000000000000000000602082015250565b7f3136000000000000000000000000000000000000000000000000000000000000600082015250565b7f4552433732313a207472616e736665722066726f6d20696e636f72726563742060008201527f6f776e6572000000000000000000000000000000000000000000000000000000602082015250565b7f4552433732313a20746f6b656e20616c7265616479206d696e74656400000000600082015250565b7f4552433732313a207472616e7366657220746f20746865207a65726f2061646460008201527f7265737300000000000000000000000000000000000000000000000000000000602082015250565b7f4552433732313a20617070726f766520746f2063616c6c657200000000000000600082015250565b7f3700000000000000000000000000000000000000000000000000000000000000600082015250565b7f6665652061646472657373000000000000000000000000000000000000000000600082015250565b7f3134000000000000000000000000000000000000000000000000000000000000600082015250565b7f4552433732313a2061646472657373207a65726f206973206e6f74206120766160008201527f6c6964206f776e65720000000000000000000000000000000000000000000000602082015250565b7f45524337323155524953746f726167653a2055524920736574206f66206e6f6e60008201527f6578697374656e7420746f6b656e000000000000000000000000000000000000602082015250565b7f3131000000000000000000000000000000000000000000000000000000000000600082015250565b7f3133000000000000000000000000000000000000000000000000000000000000600082015250565b7f3132000000000000000000000000000000000000000000000000000000000000600082015250565b7f4552433732313a206d696e7420746f20746865207a65726f2061646472657373600082015250565b7f4f776e61626c653a2063616c6c6572206973206e6f7420746865206f776e6572600082015250565b7f7a65726f20616464726573730000000000000000000000000000000000000000600082015250565b7f3200000000000000000000000000000000000000000000000000000000000000600082015250565b7f4552433732313a20696e76616c696420746f6b656e2049440000000000000000600082015250565b7f4552433732313a20617070726f76616c20746f2063757272656e74206f776e6560008201527f7200000000000000000000000000000000000000000000000000000000000000602082015250565b7f4552433732313a20617070726f76652063616c6c6572206973206e6f7420746f60008201527f6b656e206f776e6572206f7220617070726f76656420666f7220616c6c000000602082015250565b7f7061792076616c75650000000000000000000000000000000000000000000000600082015250565b7f3600000000000000000000000000000000000000000000000000000000000000600082015250565b7f3800000000000000000000000000000000000000000000000000000000000000600082015250565b60048110615f4657615f4561584d565b5b50565b615f5281615645565b8114615f5d57600080fd5b50565b615f6981615657565b8114615f7457600080fd5b50565b615f8081615669565b8114615f8b57600080fd5b50565b615f9781615675565b8114615fa257600080fd5b50565b615fae816156d4565b8114615fb957600080fd5b5056fea2646970667358221220f3ac0d489fadbe0a767d7d8d17016cfdf5ce99d8c588a791cdffa6909723237a64736f6c63430008040033",
  "linkReferences": {},
  "deployedLinkReferences": {}
}