{
  "_format": "hh-sol-artifact-1",
  "contractName": "DbAudio",
  "sourceName": "contracts/DbAudio.sol",
  "abi": [
    {
      "inputs": [],
      "stateMutability": "nonpayable",
      "type": "constructor"
    },
    {
      "anonymous": false,
      "inputs": [
        {
          "indexed": true,
          "internalType": "address",
          "name": "owner",
          "type": "address"
        },
        {
          "indexed": true,
          "internalType": "address",
          "name": "approved",
          "type": "address"
        },
        {
          "indexed": true,
          "internalType": "uint256",
          "name": "tokenId",
          "type": "uint256"
        }
      ],
      "name": "Approval",
      "type": "event"
    },
    {
      "anonymous": false,
      "inputs": [
        {
          "indexed": true,
          "internalType": "address",
          "name": "owner",
          "type": "address"
        },
        {
          "indexed": true,
          "internalType": "address",
          "name": "operator",
          "type": "address"
        },
        {
          "indexed": false,
          "internalType": "bool",
          "name": "approved",
          "type": "bool"
        }
      ],
      "name": "ApprovalForAll",
      "type": "event"
    },
    {
      "anonymous": false,
      "inputs": [
        {
          "indexed": false,
          "internalType": "string",
          "name": "uri",
          "type": "string"
        },
        {
          "indexed": false,
          "internalType": "uint256",
          "name": "startPrice",
          "type": "uint256"
        },
        {
          "indexed": false,
          "internalType": "uint256",
          "name": "startTime",
          "type": "uint256"
        },
        {
          "indexed": false,
          "internalType": "uint256",
          "name": "endTime",
          "type": "uint256"
        }
      ],
      "name": "BidEvent",
      "type": "event"
    },
    {
      "anonymous": false,
      "inputs": [
        {
          "indexed": false,
          "internalType": "string",
          "name": "uri",
          "type": "string"
        },
        {
          "indexed": false,
          "internalType": "uint256",
          "name": "index",
          "type": "uint256"
        }
      ],
      "name": "CreateNFT",
      "type": "event"
    },
    {
      "anonymous": false,
      "inputs": [
        {
          "indexed": true,
          "internalType": "address",
          "name": "previousOwner",
          "type": "address"
        },
        {
          "indexed": true,
          "internalType": "address",
          "name": "newOwner",
          "type": "address"
        }
      ],
      "name": "OwnershipTransferred",
      "type": "event"
    },
    {
      "anonymous": false,
      "inputs": [
        {
          "indexed": true,
          "internalType": "address",
          "name": "from",
          "type": "address"
        },
        {
          "indexed": true,
          "internalType": "address",
          "name": "to",
          "type": "address"
        },
        {
          "indexed": true,
          "internalType": "uint256",
          "name": "tokenId",
          "type": "uint256"
        }
      ],
      "name": "Transfer",
      "type": "event"
    },
    {
      "inputs": [
        {
          "internalType": "address",
          "name": "to",
          "type": "address"
        },
        {
          "internalType": "uint256",
          "name": "tokenId",
          "type": "uint256"
        }
      ],
      "name": "approve",
      "outputs": [],
      "stateMutability": "nonpayable",
      "type": "function"
    },
    {
      "inputs": [
        {
          "internalType": "address",
          "name": "owner",
          "type": "address"
        }
      ],
      "name": "balanceOf",
      "outputs": [
        {
          "internalType": "uint256",
          "name": "",
          "type": "uint256"
        }
      ],
      "stateMutability": "view",
      "type": "function"
    },
    {
      "inputs": [
        {
          "internalType": "string",
          "name": "uri",
          "type": "string"
        }
      ],
      "name": "bid",
      "outputs": [],
      "stateMutability": "payable",
      "type": "function"
    },
    {
      "inputs": [],
      "name": "biddingFee",
      "outputs": [
        {
          "internalType": "uint256",
          "name": "",
          "type": "uint256"
        }
      ],
      "stateMutability": "view",
      "type": "function"
    },
    {
      "inputs": [
        {
          "internalType": "string",
          "name": "uri",
          "type": "string"
        },
        {
          "internalType": "uint256",
          "name": "startPrice",
          "type": "uint256"
        },
        {
          "internalType": "uint256",
          "name": "startTime",
          "type": "uint256"
        },
        {
          "internalType": "uint256",
          "name": "endTime",
          "type": "uint256"
        }
      ],
      "name": "createBidding",
      "outputs": [],
      "stateMutability": "payable",
      "type": "function"
    },
    {
      "inputs": [
        {
          "internalType": "string",
          "name": "uri",
          "type": "string"
        },
        {
          "internalType": "string",
          "name": "name",
          "type": "string"
        },
        {
          "internalType": "uint256",
          "name": "price",
          "type": "uint256"
        }
      ],
      "name": "createNFT",
      "outputs": [
        {
          "internalType": "uint256",
          "name": "",
          "type": "uint256"
        }
      ],
      "stateMutability": "nonpayable",
      "type": "function"
    },
    {
      "inputs": [
        {
          "internalType": "uint256",
          "name": "tokenId",
          "type": "uint256"
        }
      ],
      "name": "getApproved",
      "outputs": [
        {
          "internalType": "address",
          "name": "",
          "type": "address"
        }
      ],
      "stateMutability": "view",
      "type": "function"
    },
    {
      "inputs": [
        {
          "internalType": "uint256",
          "name": "",
          "type": "uint256"
        }
      ],
      "name": "indexOfToken",
      "outputs": [
        {
          "internalType": "uint256",
          "name": "",
          "type": "uint256"
        }
      ],
      "stateMutability": "view",
      "type": "function"
    },
    {
      "inputs": [
        {
          "internalType": "address",
          "name": "owner",
          "type": "address"
        },
        {
          "internalType": "address",
          "name": "operator",
          "type": "address"
        }
      ],
      "name": "isApprovedForAll",
      "outputs": [
        {
          "internalType": "bool",
          "name": "",
          "type": "bool"
        }
      ],
      "stateMutability": "view",
      "type": "function"
    },
    {
      "inputs": [
        {
          "internalType": "string",
          "name": "",
          "type": "string"
        }
      ],
      "name": "listNFT",
      "outputs": [
        {
          "internalType": "address",
          "name": "owner",
          "type": "address"
        },
        {
          "internalType": "string",
          "name": "url",
          "type": "string"
        },
        {
          "internalType": "string",
          "name": "name",
          "type": "string"
        },
        {
          "internalType": "uint256",
          "name": "price",
          "type": "uint256"
        },
        {
          "internalType": "enum DbAudio.AudioStatus",
          "name": "status",
          "type": "uint8"
        },
        {
          "internalType": "uint256",
          "name": "currentBidding",
          "type": "uint256"
        }
      ],
      "stateMutability": "view",
      "type": "function"
    },
    {
      "inputs": [
        {
          "internalType": "address",
          "name": "",
          "type": "address"
        },
        {
          "internalType": "uint256",
          "name": "",
          "type": "uint256"
        }
      ],
      "name": "listOwnToken",
      "outputs": [
        {
          "internalType": "uint256",
          "name": "",
          "type": "uint256"
        }
      ],
      "stateMutability": "view",
      "type": "function"
    },
    {
      "inputs": [],
      "name": "name",
      "outputs": [
        {
          "internalType": "string",
          "name": "",
          "type": "string"
        }
      ],
      "stateMutability": "view",
      "type": "function"
    },
    {
      "inputs": [],
      "name": "owner",
      "outputs": [
        {
          "internalType": "address",
          "name": "",
          "type": "address"
        }
      ],
      "stateMutability": "view",
      "type": "function"
    },
    {
      "inputs": [
        {
          "internalType": "uint256",
          "name": "tokenId",
          "type": "uint256"
        }
      ],
      "name": "ownerOf",
      "outputs": [
        {
          "internalType": "address",
          "name": "",
          "type": "address"
        }
      ],
      "stateMutability": "view",
      "type": "function"
    },
    {
      "inputs": [],
      "name": "renounceOwnership",
      "outputs": [],
      "stateMutability": "nonpayable",
      "type": "function"
    },
    {
      "inputs": [
        {
          "internalType": "address",
          "name": "from",
          "type": "address"
        },
        {
          "internalType": "address",
          "name": "to",
          "type": "address"
        },
        {
          "internalType": "uint256",
          "name": "tokenId",
          "type": "uint256"
        }
      ],
      "name": "safeTransferFrom",
      "outputs": [],
      "stateMutability": "nonpayable",
      "type": "function"
    },
    {
      "inputs": [
        {
          "internalType": "address",
          "name": "from",
          "type": "address"
        },
        {
          "internalType": "address",
          "name": "to",
          "type": "address"
        },
        {
          "internalType": "uint256",
          "name": "tokenId",
          "type": "uint256"
        },
        {
          "internalType": "bytes",
          "name": "_data",
          "type": "bytes"
        }
      ],
      "name": "safeTransferFrom",
      "outputs": [],
      "stateMutability": "nonpayable",
      "type": "function"
    },
    {
      "inputs": [
        {
          "internalType": "address",
          "name": "operator",
          "type": "address"
        },
        {
          "internalType": "bool",
          "name": "approved",
          "type": "bool"
        }
      ],
      "name": "setApprovalForAll",
      "outputs": [],
      "stateMutability": "nonpayable",
      "type": "function"
    },
    {
      "inputs": [
        {
          "internalType": "string",
          "name": "uri",
          "type": "string"
        },
        {
          "internalType": "uint256",
          "name": "price",
          "type": "uint256"
        }
      ],
      "name": "setPriceNFT",
      "outputs": [],
      "stateMutability": "nonpayable",
      "type": "function"
    },
    {
      "inputs": [
        {
          "internalType": "uint256",
          "name": "share",
          "type": "uint256"
        }
      ],
      "name": "setSharePercent",
      "outputs": [],
      "stateMutability": "nonpayable",
      "type": "function"
    },
    {
      "inputs": [
        {
          "internalType": "uint256",
          "name": "money",
          "type": "uint256"
        }
      ],
      "name": "setbiddingFee",
      "outputs": [],
      "stateMutability": "nonpayable",
      "type": "function"
    },
    {
      "inputs": [
        {
          "internalType": "string",
          "name": "uri",
          "type": "string"
        }
      ],
      "name": "settleBiddingSession",
      "outputs": [],
      "stateMutability": "nonpayable",
      "type": "function"
    },
    {
      "inputs": [],
      "name": "sharePercent",
      "outputs": [
        {
          "internalType": "uint256",
          "name": "",
          "type": "uint256"
        }
      ],
      "stateMutability": "view",
      "type": "function"
    },
    {
      "inputs": [
        {
          "internalType": "bytes4",
          "name": "interfaceId",
          "type": "bytes4"
        }
      ],
      "name": "supportsInterface",
      "outputs": [
        {
          "internalType": "bool",
          "name": "",
          "type": "bool"
        }
      ],
      "stateMutability": "view",
      "type": "function"
    },
    {
      "inputs": [],
      "name": "symbol",
      "outputs": [
        {
          "internalType": "string",
          "name": "",
          "type": "string"
        }
      ],
      "stateMutability": "view",
      "type": "function"
    },
    {
      "inputs": [
        {
          "internalType": "string",
          "name": "",
          "type": "string"
        }
      ],
      "name": "tokenIdMapping",
      "outputs": [
        {
          "internalType": "uint256",
          "name": "",
          "type": "uint256"
        }
      ],
      "stateMutability": "view",
      "type": "function"
    },
    {
      "inputs": [
        {
          "internalType": "uint256",
          "name": "tokenId",
          "type": "uint256"
        }
      ],
      "name": "tokenURI",
      "outputs": [
        {
          "internalType": "string",
          "name": "",
          "type": "string"
        }
      ],
      "stateMutability": "view",
      "type": "function"
    },
    {
      "inputs": [
        {
          "internalType": "address",
          "name": "from",
          "type": "address"
        },
        {
          "internalType": "address",
          "name": "to",
          "type": "address"
        },
        {
          "internalType": "uint256",
          "name": "tokenId",
          "type": "uint256"
        }
      ],
      "name": "transferFrom",
      "outputs": [],
      "stateMutability": "nonpayable",
      "type": "function"
    },
    {
      "inputs": [
        {
          "internalType": "string",
          "name": "uri",
          "type": "string"
        },
        {
          "internalType": "address",
          "name": "to",
          "type": "address"
        }
      ],
      "name": "transferNFT",
      "outputs": [],
      "stateMutability": "nonpayable",
      "type": "function"
    },
    {
      "inputs": [
        {
          "internalType": "address",
          "name": "newOwner",
          "type": "address"
        }
      ],
      "name": "transferOwnership",
      "outputs": [],
      "stateMutability": "nonpayable",
      "type": "function"
    },
    {
      "inputs": [
        {
          "internalType": "uint256",
          "name": "money",
          "type": "uint256"
        }
      ],
      "name": "withDrawAll",
      "outputs": [],
      "stateMutability": "nonpayable",
      "type": "function"
    }
  ],
  "bytecode": "0x60806040523480156200001157600080fd5b506040518060400160405280600981526020017f44656369626c696e6700000000000000000000000000000000000000000000008152506040518060400160405280600281526020017f4442000000000000000000000000000000000000000000000000000000000000815250816000908051906020019062000096929190620001b8565b508060019080519060200190620000af929190620001b8565b505050620000d2620000c6620000ea60201b60201c565b620000f260201b60201c565b6000600d81905550622dc6c0600e81905550620002cd565b600033905090565b6000600660009054906101000a900473ffffffffffffffffffffffffffffffffffffffff16905081600660006101000a81548173ffffffffffffffffffffffffffffffffffffffff021916908373ffffffffffffffffffffffffffffffffffffffff1602179055508173ffffffffffffffffffffffffffffffffffffffff168173ffffffffffffffffffffffffffffffffffffffff167f8be0079c531659141344cd1fd0a4f28419497f9722a3daafe3b4186f6b6457e060405160405180910390a35050565b828054620001c69062000268565b90600052602060002090601f016020900481019282620001ea576000855562000236565b82601f106200020557805160ff191683800117855562000236565b8280016001018555821562000236579182015b828111156200023557825182559160200191906001019062000218565b5b50905062000245919062000249565b5090565b5b80821115620002645760008160009055506001016200024a565b5090565b600060028204905060018216806200028157607f821691505b602082108114156200029857620002976200029e565b5b50919050565b7f4e487b7100000000000000000000000000000000000000000000000000000000600052602260045260246000fd5b615d9f80620002dd6000396000f3fe6080604052600436106101d85760003560e01c80637aef951c11610102578063b88eabdd11610095578063d8189e0511610064578063d8189e05146106c7578063e985e9c514610704578063f2fde38b14610741578063ff41edbc1461076a576101d8565b8063b88eabdd146105f9578063c15edf5f14610636578063c87b56dd14610661578063cf023fdd1461069e576101d8565b8063a22cb465116100d1578063a22cb46514610555578063a818e0c81461057e578063ab8a8020146105a7578063b88d4fde146105d0576101d8565b80637aef951c146104ba57806386d060fe146104d65780638da5cb5b146104ff57806395d89b411461052a576101d8565b806342842e0e1161017a5780635ffd9d07116101495780635ffd9d07146103ec5780636352211e1461042957806370a0823114610466578063715018a6146104a3576101d8565b806342842e0e1461033a5780634387330e1461036357806348005848146103a557806349706de7146103c1576101d8565b8063095ea7b3116101b6578063095ea7b31461028257806323b872dd146102ab5780633241d34a146102d4578063411e9ef214610311576101d8565b806301ffc9a7146101dd57806306fdde031461021a578063081812fc14610245575b600080fd5b3480156101e957600080fd5b5061020460048036038101906101ff9190614190565b610793565b6040516102119190614b3d565b60405180910390f35b34801561022657600080fd5b5061022f610875565b60405161023c9190614b58565b60405180910390f35b34801561025157600080fd5b5061026c600480360381019061026791906143c5565b610907565b6040516102799190614a67565b60405180910390f35b34801561028e57600080fd5b506102a960048036038101906102a49190614154565b61098c565b005b3480156102b757600080fd5b506102d260048036038101906102cd919061404e565b610aa4565b005b3480156102e057600080fd5b506102fb60048036038101906102f69190614277565b610d73565b6040516103089190615056565b60405180910390f35b34801561031d57600080fd5b50610338600480360381019061033391906143c5565b6110e1565b005b34801561034657600080fd5b50610361600480360381019061035c919061404e565b6111b8565b005b34801561036f57600080fd5b5061038a600480360381019061038591906141e2565b6111d8565b60405161039c96959493929190614ace565b60405180910390f35b6103bf60048036038101906103ba919061434a565b611367565b005b3480156103cd57600080fd5b506103d66118a2565b6040516103e39190615056565b60405180910390f35b3480156103f857600080fd5b50610413600480360381019061040e91906143c5565b6118a8565b6040516104209190615056565b60405180910390f35b34801561043557600080fd5b50610450600480360381019061044b91906143c5565b6118c0565b60405161045d9190614a67565b60405180910390f35b34801561047257600080fd5b5061048d60048036038101906104889190613fe9565b611972565b60405161049a9190615056565b60405180910390f35b3480156104af57600080fd5b506104b8611a2a565b005b6104d460048036038101906104cf91906141e2565b611ab2565b005b3480156104e257600080fd5b506104fd60048036038101906104f891906143c5565b611ee4565b005b34801561050b57600080fd5b50610514611f6a565b6040516105219190614a67565b60405180910390f35b34801561053657600080fd5b5061053f611f94565b60405161054c9190614b58565b60405180910390f35b34801561056157600080fd5b5061057c60048036038101906105779190614118565b612026565b005b34801561058a57600080fd5b506105a560048036038101906105a091906142f6565b61203c565b005b3480156105b357600080fd5b506105ce60048036038101906105c991906143c5565b6120fe565b005b3480156105dc57600080fd5b506105f760048036038101906105f2919061409d565b6121c4565b005b34801561060557600080fd5b50610620600480360381019061061b91906141e2565b612495565b60405161062d9190615056565b60405180910390f35b34801561064257600080fd5b5061064b6124c3565b6040516106589190615056565b60405180910390f35b34801561066d57600080fd5b50610688600480360381019061068391906143c5565b6124c9565b6040516106959190614b58565b60405180910390f35b3480156106aa57600080fd5b506106c560048036038101906106c09190614223565b6124db565b005b3480156106d357600080fd5b506106ee60048036038101906106e99190614154565b612661565b6040516106fb9190615056565b60405180910390f35b34801561071057600080fd5b5061072b60048036038101906107269190614012565b612692565b6040516107389190614b3d565b60405180910390f35b34801561074d57600080fd5b5061076860048036038101906107639190613fe9565b612726565b005b34801561077657600080fd5b50610791600480360381019061078c91906141e2565b61281e565b005b60007f80ac58cd000000000000000000000000000000000000000000000000000000007bffffffffffffffffffffffffffffffffffffffffffffffffffffffff1916827bffffffffffffffffffffffffffffffffffffffffffffffffffffffff1916148061085e57507f5b5e139f000000000000000000000000000000000000000000000000000000007bffffffffffffffffffffffffffffffffffffffffffffffffffffffff1916827bffffffffffffffffffffffffffffffffffffffffffffffffffffffff1916145b8061086e575061086d82612ded565b5b9050919050565b6060600080546108849061534b565b80601f01602080910402602001604051908101604052809291908181526020018280546108b09061534b565b80156108fd5780601f106108d2576101008083540402835291602001916108fd565b820191906000526020600020905b8154815290600101906020018083116108e057829003601f168201915b5050505050905090565b600061091282612e57565b610951576040517f08c379a000000000000000000000000000000000000000000000000000000000815260040161094890614ef6565b60405180910390fd5b6004600083815260200190815260200160002060009054906101000a900473ffffffffffffffffffffffffffffffffffffffff169050919050565b6000610997826118c0565b90508073ffffffffffffffffffffffffffffffffffffffff168373ffffffffffffffffffffffffffffffffffffffff161415610a08576040517f08c379a00000000000000000000000000000000000000000000000000000000081526004016109ff90614f76565b60405180910390fd5b8073ffffffffffffffffffffffffffffffffffffffff16610a27612ec3565b73ffffffffffffffffffffffffffffffffffffffff161480610a565750610a5581610a50612ec3565b612692565b5b610a95576040517f08c379a0000000000000000000000000000000000000000000000000000000008152600401610a8c90614dd6565b60405180910390fd5b610a9f8383612ecb565b505050565b600b60008373ffffffffffffffffffffffffffffffffffffffff1673ffffffffffffffffffffffffffffffffffffffff168152602001908152602001600020819080600181540180825580915050600190039060005260206000200160009091909190915055600b60008473ffffffffffffffffffffffffffffffffffffffff1673ffffffffffffffffffffffffffffffffffffffff1681526020019081526020016000206001600b60008673ffffffffffffffffffffffffffffffffffffffff1673ffffffffffffffffffffffffffffffffffffffff16815260200190815260200160002080549050610b98919061523c565b81548110610bcf577f4e487b7100000000000000000000000000000000000000000000000000000000600052603260045260246000fd5b9060005260206000200154600b60008573ffffffffffffffffffffffffffffffffffffffff1673ffffffffffffffffffffffffffffffffffffffff168152602001908152602001600020600c60008481526020019081526020016000205481548110610c64577f4e487b7100000000000000000000000000000000000000000000000000000000600052603260045260246000fd5b9060005260206000200181905550600b60008473ffffffffffffffffffffffffffffffffffffffff1673ffffffffffffffffffffffffffffffffffffffff168152602001908152602001600020805480610ce7577f4e487b7100000000000000000000000000000000000000000000000000000000600052603160045260246000fd5b600190038181906000526020600020016000905590556001600b60008473ffffffffffffffffffffffffffffffffffffffff1673ffffffffffffffffffffffffffffffffffffffff16815260200190815260200160002080549050610d4c919061523c565b600c600083815260200190815260200160002081905550610d6e838383612f84565b505050565b600080600985604051610d869190614a2c565b90815260200160405180910390209050848051906020012081600101604051610daf9190614a15565b60405180910390201415610df8576040517f08c379a0000000000000000000000000000000000000000000000000000000008152600401610def90614f56565b60405180910390fd5b610e026008612fe4565b33600986604051610e139190614a2c565b908152602001604051809103902060000160006101000a81548173ffffffffffffffffffffffffffffffffffffffff021916908373ffffffffffffffffffffffffffffffffffffffff16021790555084600986604051610e739190614a2c565b90815260200160405180910390206001019080519060200190610e97929190613e0d565b5083600986604051610ea99190614a2c565b90815260200160405180910390206002019080519060200190610ecd929190613e0d565b5082600986604051610edf9190614a2c565b9081526020016040518091039020600301819055506000600986604051610f069190614a2c565b908152602001604051809103902060040160006101000a81548160ff02191690836003811115610f5f577f4e487b7100000000000000000000000000000000000000000000000000000000600052602160045260246000fd5b02179055506000600986604051610f769190614a2c565b9081526020016040518091039020600601819055506000610f976008612ffa565b9050610fa33382613008565b610fad81876131e2565b80600a87604051610fbe9190614a2c565b908152602001604051809103902081905550600b60003373ffffffffffffffffffffffffffffffffffffffff1673ffffffffffffffffffffffffffffffffffffffff1681526020019081526020016000208190806001815401808255809150506001900390600052602060002001600090919091909150556001600b60003373ffffffffffffffffffffffffffffffffffffffff1673ffffffffffffffffffffffffffffffffffffffff16815260200190815260200160002080549050611085919061523c565b600c6000838152602001908152602001600020819055507f59e3e0f1aabce96b386d212c7c9563c597464cb2f714aa8cf022346ea95cfbc686826040516110cd929190614b7a565b60405180910390a180925050509392505050565b6110e9612ec3565b73ffffffffffffffffffffffffffffffffffffffff16611107611f6a565b73ffffffffffffffffffffffffffffffffffffffff161461115d576040517f08c379a000000000000000000000000000000000000000000000000000000000815260040161115490614f16565b60405180910390fd5b6000811015801561116f575060648111155b6111ae576040517f08c379a00000000000000000000000000000000000000000000000000000000081526004016111a590614fb6565b60405180910390fd5b80600d8190555050565b6111d3838383604051806020016040528060008152506121c4565b505050565b6009818051602081018201805184825260208301602085012081835280955050505050506000915090508060000160009054906101000a900473ffffffffffffffffffffffffffffffffffffffff16908060010180546112379061534b565b80601f01602080910402602001604051908101604052809291908181526020018280546112639061534b565b80156112b05780601f10611285576101008083540402835291602001916112b0565b820191906000526020600020905b81548152906001019060200180831161129357829003601f168201915b5050505050908060020180546112c59061534b565b80601f01602080910402602001604051908101604052809291908181526020018280546112f19061534b565b801561133e5780601f106113135761010080835404028352916020019161133e565b820191906000526020600020905b81548152906001019060200180831161132157829003601f168201915b5050505050908060030154908060040160009054906101000a900460ff16908060060154905086565b8082106113a9576040517f08c379a00000000000000000000000000000000000000000000000000000000081526004016113a090614c16565b60405180910390fd5b60006009856040516113bb9190614a2c565b908152602001604051809103902090508480519060200120816001016040516113e49190614a15565b60405180910390201461142c576040517f08c379a000000000000000000000000000000000000000000000000000000000815260040161142390614bf6565b60405180910390fd5b3373ffffffffffffffffffffffffffffffffffffffff168160000160009054906101000a900473ffffffffffffffffffffffffffffffffffffffff1673ffffffffffffffffffffffffffffffffffffffff16146114be576040517f08c379a00000000000000000000000000000000000000000000000000000000081526004016114b590615016565b60405180910390fd5b428211611500576040517f08c379a00000000000000000000000000000000000000000000000000000000081526004016114f790614d76565b60405180910390fd5b6000600381111561153a577f4e487b7100000000000000000000000000000000000000000000000000000000600052602160045260246000fd5b8160040160009054906101000a900460ff166003811115611584577f4e487b7100000000000000000000000000000000000000000000000000000000600052602160045260246000fd5b148061161057506003808111156115c4577f4e487b7100000000000000000000000000000000000000000000000000000000600052602160045260246000fd5b8160040160009054906101000a900460ff16600381111561160e577f4e487b7100000000000000000000000000000000000000000000000000000000600052602160045260246000fd5b145b61164f576040517f08c379a000000000000000000000000000000000000000000000000000000000815260040161164690615036565b60405180910390fd5b34600e541115611694576040517f08c379a000000000000000000000000000000000000000000000000000000000815260040161168b90614ff6565b60405180910390fd5b60018160060160008282546116a9919061515b565b9250508190555060008160050160008360060154815260200190815260200160002060000160006101000a81548173ffffffffffffffffffffffffffffffffffffffff021916908373ffffffffffffffffffffffffffffffffffffffff16021790555083816005016000836006015481526020019081526020016000206001018190555042831161173b57600061173e565b60015b8160050160008360060154815260200190815260200160002060020160006101000a81548160ff021916908360038111156117a2577f4e487b7100000000000000000000000000000000000000000000000000000000600052602160045260246000fd5b02179055508281600501600083600601548152602001908152602001600020600301819055508181600501600083600601548152602001908152602001600020600401819055506000816005016000836006015481526020019081526020016000206005018190555060018160040160006101000a81548160ff02191690836003811115611859577f4e487b7100000000000000000000000000000000000000000000000000000000600052602160045260246000fd5b02179055507fe233c542868b104ebadeaae493a99c04bab3c65b4a0540ab44d7f753f8b0a4c6858585856040516118939493929190614baa565b60405180910390a15050505050565b600e5481565b600c6020528060005260406000206000915090505481565b6000806002600084815260200190815260200160002060009054906101000a900473ffffffffffffffffffffffffffffffffffffffff169050600073ffffffffffffffffffffffffffffffffffffffff168173ffffffffffffffffffffffffffffffffffffffff161415611969576040517f08c379a000000000000000000000000000000000000000000000000000000000815260040161196090614e16565b60405180910390fd5b80915050919050565b60008073ffffffffffffffffffffffffffffffffffffffff168273ffffffffffffffffffffffffffffffffffffffff1614156119e3576040517f08c379a00000000000000000000000000000000000000000000000000000000081526004016119da90614df6565b60405180910390fd5b600360008373ffffffffffffffffffffffffffffffffffffffff1673ffffffffffffffffffffffffffffffffffffffff168152602001908152602001600020549050919050565b611a32612ec3565b73ffffffffffffffffffffffffffffffffffffffff16611a50611f6a565b73ffffffffffffffffffffffffffffffffffffffff1614611aa6576040517f08c379a0000000000000000000000000000000000000000000000000000000008152600401611a9d90614f16565b60405180910390fd5b611ab06000613256565b565b6000600982604051611ac49190614a2c565b90815260200160405180910390209050818051906020012081600101604051611aed9190614a15565b604051809103902014611b35576040517f08c379a0000000000000000000000000000000000000000000000000000000008152600401611b2c90614bf6565b60405180910390fd5b60016003811115611b6f577f4e487b7100000000000000000000000000000000000000000000000000000000600052602160045260246000fd5b8160040160009054906101000a900460ff166003811115611bb9577f4e487b7100000000000000000000000000000000000000000000000000000000600052602160045260246000fd5b14611bf9576040517f08c379a0000000000000000000000000000000000000000000000000000000008152600401611bf090614c36565b60405180910390fd5b600081600601541415611c41576040517f08c379a0000000000000000000000000000000000000000000000000000000008152600401611c3890614e56565b60405180910390fd5b600081600501600083600601548152602001908152602001600020905042816003015411158015611c76575080600401544211155b611cb5576040517f08c379a0000000000000000000000000000000000000000000000000000000008152600401611cac90614e96565b60405180910390fd5b34816001015410611cfb576040517f08c379a0000000000000000000000000000000000000000000000000000000008152600401611cf290614e76565b60405180910390fd5b60028160020160006101000a81548160ff02191690836003811115611d49577f4e487b7100000000000000000000000000000000000000000000000000000000600052602160045260246000fd5b0217905550600060405180606001604052803373ffffffffffffffffffffffffffffffffffffffff1681526020013481526020014281525090506001826005016000828254611d98919061515b565b92505081905550808260060160008460050154815260200190815260200160002060008201518160000160006101000a81548173ffffffffffffffffffffffffffffffffffffffff021916908373ffffffffffffffffffffffffffffffffffffffff160217905550602082015181600101556040820151816002015590505060008260000160009054906101000a900473ffffffffffffffffffffffffffffffffffffffff169050600083600101549050338460000160006101000a81548173ffffffffffffffffffffffffffffffffffffffff021916908373ffffffffffffffffffffffffffffffffffffffff1602179055503484600101819055508173ffffffffffffffffffffffffffffffffffffffff166108fc829081150290604051600060405180830381858888f19350505050158015611edb573d6000803e3d6000fd5b50505050505050565b611eec612ec3565b73ffffffffffffffffffffffffffffffffffffffff16611f0a611f6a565b73ffffffffffffffffffffffffffffffffffffffff1614611f60576040517f08c379a0000000000000000000000000000000000000000000000000000000008152600401611f5790614f16565b60405180910390fd5b80600e8190555050565b6000600660009054906101000a900473ffffffffffffffffffffffffffffffffffffffff16905090565b606060018054611fa39061534b565b80601f0160208091040260200160405190810160405280929190818152602001828054611fcf9061534b565b801561201c5780601f10611ff15761010080835404028352916020019161201c565b820191906000526020600020905b815481529060010190602001808311611fff57829003601f168201915b5050505050905090565b612038612031612ec3565b838361331c565b5050565b600060098360405161204e9190614a2c565b908152602001604051809103902090503373ffffffffffffffffffffffffffffffffffffffff168160000160009054906101000a900473ffffffffffffffffffffffffffffffffffffffff1673ffffffffffffffffffffffffffffffffffffffff16146120f0576040517f08c379a00000000000000000000000000000000000000000000000000000000081526004016120e790614d16565b60405180910390fd5b818160030181905550505050565b612106612ec3565b73ffffffffffffffffffffffffffffffffffffffff16612124611f6a565b73ffffffffffffffffffffffffffffffffffffffff161461217a576040517f08c379a000000000000000000000000000000000000000000000000000000000815260040161217190614f16565b60405180910390fd5b3373ffffffffffffffffffffffffffffffffffffffff166108fc829081150290604051600060405180830381858888f193505050501580156121c0573d6000803e3d6000fd5b5050565b600b60008473ffffffffffffffffffffffffffffffffffffffff1673ffffffffffffffffffffffffffffffffffffffff168152602001908152602001600020829080600181540180825580915050600190039060005260206000200160009091909190915055600b60008573ffffffffffffffffffffffffffffffffffffffff1673ffffffffffffffffffffffffffffffffffffffff1681526020019081526020016000206001600b60008773ffffffffffffffffffffffffffffffffffffffff1673ffffffffffffffffffffffffffffffffffffffff168152602001908152602001600020805490506122b8919061523c565b815481106122ef577f4e487b7100000000000000000000000000000000000000000000000000000000600052603260045260246000fd5b9060005260206000200154600b60008673ffffffffffffffffffffffffffffffffffffffff1673ffffffffffffffffffffffffffffffffffffffff168152602001908152602001600020600c60008581526020019081526020016000205481548110612384577f4e487b7100000000000000000000000000000000000000000000000000000000600052603260045260246000fd5b9060005260206000200181905550600b60008573ffffffffffffffffffffffffffffffffffffffff1673ffffffffffffffffffffffffffffffffffffffff168152602001908152602001600020805480612407577f4e487b7100000000000000000000000000000000000000000000000000000000600052603160045260246000fd5b600190038181906000526020600020016000905590556001600b60008573ffffffffffffffffffffffffffffffffffffffff1673ffffffffffffffffffffffffffffffffffffffff1681526020019081526020016000208054905061246c919061523c565b600c60008481526020019081526020016000208190555061248f84848484613489565b50505050565b600a818051602081018201805184825260208301602085012081835280955050505050506000915090505481565b600d5481565b60606124d4826134eb565b9050919050565b60006009836040516124ed9190614a2c565b908152602001604051809103902090508280519060200120816001016040516125169190614a15565b60405180910390201461255e576040517f08c379a000000000000000000000000000000000000000000000000000000000815260040161255590614bf6565b60405180910390fd5b3373ffffffffffffffffffffffffffffffffffffffff168160000160009054906101000a900473ffffffffffffffffffffffffffffffffffffffff1673ffffffffffffffffffffffffffffffffffffffff16146125f0576040517f08c379a00000000000000000000000000000000000000000000000000000000081526004016125e790614fd6565b60405180910390fd5b6126193383600a866040516126059190614a2c565b9081526020016040518091039020546111b8565b818160000160006101000a81548173ffffffffffffffffffffffffffffffffffffffff021916908373ffffffffffffffffffffffffffffffffffffffff160217905550505050565b600b602052816000526040600020818154811061267d57600080fd5b90600052602060002001600091509150505481565b6000600560008473ffffffffffffffffffffffffffffffffffffffff1673ffffffffffffffffffffffffffffffffffffffff16815260200190815260200160002060008373ffffffffffffffffffffffffffffffffffffffff1673ffffffffffffffffffffffffffffffffffffffff16815260200190815260200160002060009054906101000a900460ff16905092915050565b61272e612ec3565b73ffffffffffffffffffffffffffffffffffffffff1661274c611f6a565b73ffffffffffffffffffffffffffffffffffffffff16146127a2576040517f08c379a000000000000000000000000000000000000000000000000000000000815260040161279990614f16565b60405180910390fd5b600073ffffffffffffffffffffffffffffffffffffffff168173ffffffffffffffffffffffffffffffffffffffff161415612812576040517f08c379a000000000000000000000000000000000000000000000000000000000815260040161280990614c96565b60405180910390fd5b61281b81613256565b50565b60006009826040516128309190614a2c565b908152602001604051809103902090508180519060200120816001016040516128599190614a15565b6040518091039020146128a1576040517f08c379a000000000000000000000000000000000000000000000000000000000815260040161289890614bf6565b60405180910390fd5b600160038111156128db577f4e487b7100000000000000000000000000000000000000000000000000000000600052602160045260246000fd5b8160040160009054906101000a900460ff166003811115612925577f4e487b7100000000000000000000000000000000000000000000000000000000600052602160045260246000fd5b14612965576040517f08c379a000000000000000000000000000000000000000000000000000000000815260040161295c90614db6565b60405180910390fd5b6000816006015414156129ad576040517f08c379a00000000000000000000000000000000000000000000000000000000081526004016129a490614e56565b60405180910390fd5b60008160050160008360060154815260200190815260200160002090504281600301541080156129e05750806004015442115b612a1f576040517f08c379a0000000000000000000000000000000000000000000000000000000008152600401612a1690614c56565b60405180910390fd5b60026003811115612a59577f4e487b7100000000000000000000000000000000000000000000000000000000600052602160045260246000fd5b8160020160009054906101000a900460ff166003811115612aa3577f4e487b7100000000000000000000000000000000000000000000000000000000600052602160045260246000fd5b1480612b30575060016003811115612ae4577f4e487b7100000000000000000000000000000000000000000000000000000000600052602160045260246000fd5b8260040160009054906101000a900460ff166003811115612b2e577f4e487b7100000000000000000000000000000000000000000000000000000000600052602160045260246000fd5b145b612b6f576040517f08c379a0000000000000000000000000000000000000000000000000000000008152600401612b6690614cb6565b60405180910390fd5b600073ffffffffffffffffffffffffffffffffffffffff168160000160009054906101000a900473ffffffffffffffffffffffffffffffffffffffff1673ffffffffffffffffffffffffffffffffffffffff1614612d42576000816001015490506000600d541115612bfd576305f5e1006305f5cd7882612bf091906151e2565b612bfa91906151b1565b90505b612c6e8360000160009054906101000a900473ffffffffffffffffffffffffffffffffffffffff168360000160009054906101000a900473ffffffffffffffffffffffffffffffffffffffff16600a87604051612c5a9190614a2c565b9081526020016040518091039020546111b8565b8160000160009054906101000a900473ffffffffffffffffffffffffffffffffffffffff168360000160006101000a81548173ffffffffffffffffffffffffffffffffffffffff021916908373ffffffffffffffffffffffffffffffffffffffff1602179055508260000160009054906101000a900473ffffffffffffffffffffffffffffffffffffffff1673ffffffffffffffffffffffffffffffffffffffff166108fc829081150290604051600060405180830381858888f19350505050158015612d3f573d6000803e3d6000fd5b50505b60038160020160006101000a81548160ff02191690836003811115612d90577f4e487b7100000000000000000000000000000000000000000000000000000000600052602160045260246000fd5b021790555060038260040160006101000a81548160ff02191690836003811115612de3577f4e487b7100000000000000000000000000000000000000000000000000000000600052602160045260246000fd5b0217905550505050565b60007f01ffc9a7000000000000000000000000000000000000000000000000000000007bffffffffffffffffffffffffffffffffffffffffffffffffffffffff1916827bffffffffffffffffffffffffffffffffffffffffffffffffffffffff1916149050919050565b60008073ffffffffffffffffffffffffffffffffffffffff166002600084815260200190815260200160002060009054906101000a900473ffffffffffffffffffffffffffffffffffffffff1673ffffffffffffffffffffffffffffffffffffffff1614159050919050565b600033905090565b816004600083815260200190815260200160002060006101000a81548173ffffffffffffffffffffffffffffffffffffffff021916908373ffffffffffffffffffffffffffffffffffffffff160217905550808273ffffffffffffffffffffffffffffffffffffffff16612f3e836118c0565b73ffffffffffffffffffffffffffffffffffffffff167f8c5be1e5ebec7d5bd14f71427d1e84f3dd0314c0f7b2291e5b200ac8c7c3b92560405160405180910390a45050565b612f95612f8f612ec3565b8261363d565b612fd4576040517f08c379a0000000000000000000000000000000000000000000000000000000008152600401612fcb90614f96565b60405180910390fd5b612fdf83838361371b565b505050565b6001816000016000828254019250508190555050565b600081600001549050919050565b600073ffffffffffffffffffffffffffffffffffffffff168273ffffffffffffffffffffffffffffffffffffffff161415613078576040517f08c379a000000000000000000000000000000000000000000000000000000000815260040161306f90614eb6565b60405180910390fd5b61308181612e57565b156130c1576040517f08c379a00000000000000000000000000000000000000000000000000000000081526004016130b890614cf6565b60405180910390fd5b6130cd60008383613982565b6001600360008473ffffffffffffffffffffffffffffffffffffffff1673ffffffffffffffffffffffffffffffffffffffff168152602001908152602001600020600082825461311d919061515b565b92505081905550816002600083815260200190815260200160002060006101000a81548173ffffffffffffffffffffffffffffffffffffffff021916908373ffffffffffffffffffffffffffffffffffffffff160217905550808273ffffffffffffffffffffffffffffffffffffffff16600073ffffffffffffffffffffffffffffffffffffffff167fddf252ad1be2c89b69c2b068fc378daa952ba7f163c4a11628f55a4df523b3ef60405160405180910390a46131de60008383613987565b5050565b6131eb82612e57565b61322a576040517f08c379a000000000000000000000000000000000000000000000000000000000815260040161322190614e36565b60405180910390fd5b80600760008481526020019081526020016000209080519060200190613251929190613e0d565b505050565b6000600660009054906101000a900473ffffffffffffffffffffffffffffffffffffffff16905081600660006101000a81548173ffffffffffffffffffffffffffffffffffffffff021916908373ffffffffffffffffffffffffffffffffffffffff1602179055508173ffffffffffffffffffffffffffffffffffffffff168173ffffffffffffffffffffffffffffffffffffffff167f8be0079c531659141344cd1fd0a4f28419497f9722a3daafe3b4186f6b6457e060405160405180910390a35050565b8173ffffffffffffffffffffffffffffffffffffffff168373ffffffffffffffffffffffffffffffffffffffff16141561338b576040517f08c379a000000000000000000000000000000000000000000000000000000000815260040161338290614d56565b60405180910390fd5b80600560008573ffffffffffffffffffffffffffffffffffffffff1673ffffffffffffffffffffffffffffffffffffffff16815260200190815260200160002060008473ffffffffffffffffffffffffffffffffffffffff1673ffffffffffffffffffffffffffffffffffffffff16815260200190815260200160002060006101000a81548160ff0219169083151502179055508173ffffffffffffffffffffffffffffffffffffffff168373ffffffffffffffffffffffffffffffffffffffff167f17307eab39ab6107e8899845ad3d59bd9653f200f220920489ca2b5937696c318360405161347c9190614b3d565b60405180910390a3505050565b61349a613494612ec3565b8361363d565b6134d9576040517f08c379a00000000000000000000000000000000000000000000000000000000081526004016134d090614f96565b60405180910390fd5b6134e58484848461398c565b50505050565b60606134f682612e57565b613535576040517f08c379a000000000000000000000000000000000000000000000000000000000815260040161352c90614ed6565b60405180910390fd5b60006007600084815260200190815260200160002080546135559061534b565b80601f01602080910402602001604051908101604052809291908181526020018280546135819061534b565b80156135ce5780601f106135a3576101008083540402835291602001916135ce565b820191906000526020600020905b8154815290600101906020018083116135b157829003601f168201915b5050505050905060006135df6139e8565b90506000815114156135f5578192505050613638565b60008251111561362a578082604051602001613612929190614a43565b60405160208183030381529060405292505050613638565b613633846139ff565b925050505b919050565b600061364882612e57565b613687576040517f08c379a000000000000000000000000000000000000000000000000000000000815260040161367e90614d96565b60405180910390fd5b6000613692836118c0565b90508073ffffffffffffffffffffffffffffffffffffffff168473ffffffffffffffffffffffffffffffffffffffff16148061370157508373ffffffffffffffffffffffffffffffffffffffff166136e984610907565b73ffffffffffffffffffffffffffffffffffffffff16145b8061371257506137118185612692565b5b91505092915050565b8273ffffffffffffffffffffffffffffffffffffffff1661373b826118c0565b73ffffffffffffffffffffffffffffffffffffffff1614613791576040517f08c379a000000000000000000000000000000000000000000000000000000000815260040161378890614cd6565b60405180910390fd5b600073ffffffffffffffffffffffffffffffffffffffff168273ffffffffffffffffffffffffffffffffffffffff161415613801576040517f08c379a00000000000000000000000000000000000000000000000000000000081526004016137f890614d36565b60405180910390fd5b61380c838383613982565b613817600082612ecb565b6001600360008573ffffffffffffffffffffffffffffffffffffffff1673ffffffffffffffffffffffffffffffffffffffff1681526020019081526020016000206000828254613867919061523c565b925050819055506001600360008473ffffffffffffffffffffffffffffffffffffffff1673ffffffffffffffffffffffffffffffffffffffff16815260200190815260200160002060008282546138be919061515b565b92505081905550816002600083815260200190815260200160002060006101000a81548173ffffffffffffffffffffffffffffffffffffffff021916908373ffffffffffffffffffffffffffffffffffffffff160217905550808273ffffffffffffffffffffffffffffffffffffffff168473ffffffffffffffffffffffffffffffffffffffff167fddf252ad1be2c89b69c2b068fc378daa952ba7f163c4a11628f55a4df523b3ef60405160405180910390a461397d838383613987565b505050565b505050565b505050565b61399784848461371b565b6139a384848484613aa6565b6139e2576040517f08c379a00000000000000000000000000000000000000000000000000000000081526004016139d990614c76565b60405180910390fd5b50505050565b606060405180602001604052806000815250905090565b6060613a0a82612e57565b613a49576040517f08c379a0000000000000000000000000000000000000000000000000000000008152600401613a4090614f36565b60405180910390fd5b6000613a536139e8565b90506000815111613a735760405180602001604052806000815250613a9e565b80613a7d84613c3d565b604051602001613a8e929190614a43565b6040516020818303038152906040525b915050919050565b6000613ac78473ffffffffffffffffffffffffffffffffffffffff16613dea565b15613c30578373ffffffffffffffffffffffffffffffffffffffff1663150b7a02613af0612ec3565b8786866040518563ffffffff1660e01b8152600401613b129493929190614a82565b602060405180830381600087803b158015613b2c57600080fd5b505af1925050508015613b5d57506040513d601f19601f82011682018060405250810190613b5a91906141b9565b60015b613be0573d8060008114613b8d576040519150601f19603f3d011682016040523d82523d6000602084013e613b92565b606091505b50600081511415613bd8576040517f08c379a0000000000000000000000000000000000000000000000000000000008152600401613bcf90614c76565b60405180910390fd5b805181602001fd5b63150b7a0260e01b7bffffffffffffffffffffffffffffffffffffffffffffffffffffffff1916817bffffffffffffffffffffffffffffffffffffffffffffffffffffffff191614915050613c35565b600190505b949350505050565b60606000821415613c85576040518060400160405280600181526020017f30000000000000000000000000000000000000000000000000000000000000008152509050613de5565b600082905060005b60008214613cb7578080613ca0906153ae565b915050600a82613cb091906151b1565b9150613c8d565b60008167ffffffffffffffff811115613cf9577f4e487b7100000000000000000000000000000000000000000000000000000000600052604160045260246000fd5b6040519080825280601f01601f191660200182016040528015613d2b5781602001600182028036833780820191505090505b5090505b60008514613dde57600182613d44919061523c565b9150600a85613d5391906153f7565b6030613d5f919061515b565b60f81b818381518110613d9b577f4e487b7100000000000000000000000000000000000000000000000000000000600052603260045260246000fd5b60200101907effffffffffffffffffffffffffffffffffffffffffffffffffffffffffffff1916908160001a905350600a85613dd791906151b1565b9450613d2f565b8093505050505b919050565b6000808273ffffffffffffffffffffffffffffffffffffffff163b119050919050565b828054613e199061534b565b90600052602060002090601f016020900481019282613e3b5760008555613e82565b82601f10613e5457805160ff1916838001178555613e82565b82800160010185558215613e82579182015b82811115613e81578251825591602001919060010190613e66565b5b509050613e8f9190613e93565b5090565b5b80821115613eac576000816000905550600101613e94565b5090565b6000613ec3613ebe84615096565b615071565b905082815260208101848484011115613edb57600080fd5b613ee6848285615309565b509392505050565b6000613f01613efc846150c7565b615071565b905082815260208101848484011115613f1957600080fd5b613f24848285615309565b509392505050565b600081359050613f3b81615d0d565b92915050565b600081359050613f5081615d24565b92915050565b600081359050613f6581615d3b565b92915050565b600081519050613f7a81615d3b565b92915050565b600082601f830112613f9157600080fd5b8135613fa1848260208601613eb0565b91505092915050565b600082601f830112613fbb57600080fd5b8135613fcb848260208601613eee565b91505092915050565b600081359050613fe381615d52565b92915050565b600060208284031215613ffb57600080fd5b600061400984828501613f2c565b91505092915050565b6000806040838503121561402557600080fd5b600061403385828601613f2c565b925050602061404485828601613f2c565b9150509250929050565b60008060006060848603121561406357600080fd5b600061407186828701613f2c565b935050602061408286828701613f2c565b925050604061409386828701613fd4565b9150509250925092565b600080600080608085870312156140b357600080fd5b60006140c187828801613f2c565b94505060206140d287828801613f2c565b93505060406140e387828801613fd4565b925050606085013567ffffffffffffffff81111561410057600080fd5b61410c87828801613f80565b91505092959194509250565b6000806040838503121561412b57600080fd5b600061413985828601613f2c565b925050602061414a85828601613f41565b9150509250929050565b6000806040838503121561416757600080fd5b600061417585828601613f2c565b925050602061418685828601613fd4565b9150509250929050565b6000602082840312156141a257600080fd5b60006141b084828501613f56565b91505092915050565b6000602082840312156141cb57600080fd5b60006141d984828501613f6b565b91505092915050565b6000602082840312156141f457600080fd5b600082013567ffffffffffffffff81111561420e57600080fd5b61421a84828501613faa565b91505092915050565b6000806040838503121561423657600080fd5b600083013567ffffffffffffffff81111561425057600080fd5b61425c85828601613faa565b925050602061426d85828601613f2c565b9150509250929050565b60008060006060848603121561428c57600080fd5b600084013567ffffffffffffffff8111156142a657600080fd5b6142b286828701613faa565b935050602084013567ffffffffffffffff8111156142cf57600080fd5b6142db86828701613faa565b92505060406142ec86828701613fd4565b9150509250925092565b6000806040838503121561430957600080fd5b600083013567ffffffffffffffff81111561432357600080fd5b61432f85828601613faa565b925050602061434085828601613fd4565b9150509250929050565b6000806000806080858703121561436057600080fd5b600085013567ffffffffffffffff81111561437a57600080fd5b61438687828801613faa565b945050602061439787828801613fd4565b93505060406143a887828801613fd4565b92505060606143b987828801613fd4565b91505092959194509250565b6000602082840312156143d757600080fd5b60006143e584828501613fd4565b91505092915050565b6143f781615270565b82525050565b61440681615282565b82525050565b60006144178261510d565b6144218185615123565b9350614431818560208601615318565b61443a81615513565b840191505092915050565b600081546144528161534b565b61445c8186615134565b945060018216600081146144775760018114614488576144bb565b60ff198316865281860193506144bb565b614491856150f8565b60005b838110156144b357815481890152600182019150602081019050614494565b838801955050505b50505092915050565b6144cd816152f7565b82525050565b60006144de82615118565b6144e8818561513f565b93506144f8818560208601615318565b61450181615513565b840191505092915050565b600061451782615118565b6145218185615150565b9350614531818560208601615318565b80840191505092915050565b600061454a60018361513f565b915061455582615524565b602082019050919050565b600061456d60228361513f565b91506145788261554d565b604082019050919050565b600061459060028361513f565b915061459b8261559c565b602082019050919050565b60006145b360028361513f565b91506145be826155c5565b602082019050919050565b60006145d660328361513f565b91506145e1826155ee565b604082019050919050565b60006145f960268361513f565b91506146048261563d565b604082019050919050565b600061461c60028361513f565b91506146278261568c565b602082019050919050565b600061463f60258361513f565b915061464a826156b5565b604082019050919050565b6000614662601c8361513f565b915061466d82615704565b602082019050919050565b600061468560018361513f565b91506146908261572d565b602082019050919050565b60006146a860248361513f565b91506146b382615756565b604082019050919050565b60006146cb60198361513f565b91506146d6826157a5565b602082019050919050565b60006146ee60018361513f565b91506146f9826157ce565b602082019050919050565b6000614711602c8361513f565b915061471c826157f7565b604082019050919050565b600061473460028361513f565b915061473f82615846565b602082019050919050565b600061475760388361513f565b91506147628261586f565b604082019050919050565b600061477a602a8361513f565b9150614785826158be565b604082019050919050565b600061479d60298361513f565b91506147a88261590d565b604082019050919050565b60006147c0602e8361513f565b91506147cb8261595c565b604082019050919050565b60006147e360028361513f565b91506147ee826159ab565b602082019050919050565b600061480660028361513f565b9150614811826159d4565b602082019050919050565b600061482960028361513f565b9150614834826159fd565b602082019050919050565b600061484c60208361513f565b915061485782615a26565b602082019050919050565b600061486f60318361513f565b915061487a82615a4f565b604082019050919050565b6000614892602c8361513f565b915061489d82615a9e565b604082019050919050565b60006148b560208361513f565b91506148c082615aed565b602082019050919050565b60006148d8602f8361513f565b91506148e382615b16565b604082019050919050565b60006148fb60018361513f565b915061490682615b65565b602082019050919050565b600061491e60218361513f565b915061492982615b8e565b604082019050919050565b600061494160318361513f565b915061494c82615bdd565b604082019050919050565b600061496460018361513f565b915061496f82615c2c565b602082019050919050565b600061498760018361513f565b915061499282615c55565b602082019050919050565b60006149aa60018361513f565b91506149b582615c7e565b602082019050919050565b60006149cd60018361513f565b91506149d882615ca7565b602082019050919050565b60006149f060018361513f565b91506149fb82615cd0565b602082019050919050565b614a0f816152ed565b82525050565b6000614a218284614445565b915081905092915050565b6000614a38828461450c565b915081905092915050565b6000614a4f828561450c565b9150614a5b828461450c565b91508190509392505050565b6000602082019050614a7c60008301846143ee565b92915050565b6000608082019050614a9760008301876143ee565b614aa460208301866143ee565b614ab16040830185614a06565b8181036060830152614ac3818461440c565b905095945050505050565b600060c082019050614ae360008301896143ee565b8181036020830152614af581886144d3565b90508181036040830152614b0981876144d3565b9050614b186060830186614a06565b614b2560808301856144c4565b614b3260a0830184614a06565b979650505050505050565b6000602082019050614b5260008301846143fd565b92915050565b60006020820190508181036000830152614b7281846144d3565b905092915050565b60006040820190508181036000830152614b9481856144d3565b9050614ba36020830184614a06565b9392505050565b60006080820190508181036000830152614bc481876144d3565b9050614bd36020830186614a06565b614be06040830185614a06565b614bed6060830184614a06565b95945050505050565b60006020820190508181036000830152614c0f8161453d565b9050919050565b60006020820190508181036000830152614c2f81614560565b9050919050565b60006020820190508181036000830152614c4f81614583565b9050919050565b60006020820190508181036000830152614c6f816145a6565b9050919050565b60006020820190508181036000830152614c8f816145c9565b9050919050565b60006020820190508181036000830152614caf816145ec565b9050919050565b60006020820190508181036000830152614ccf8161460f565b9050919050565b60006020820190508181036000830152614cef81614632565b9050919050565b60006020820190508181036000830152614d0f81614655565b9050919050565b60006020820190508181036000830152614d2f81614678565b9050919050565b60006020820190508181036000830152614d4f8161469b565b9050919050565b60006020820190508181036000830152614d6f816146be565b9050919050565b60006020820190508181036000830152614d8f816146e1565b9050919050565b60006020820190508181036000830152614daf81614704565b9050919050565b60006020820190508181036000830152614dcf81614727565b9050919050565b60006020820190508181036000830152614def8161474a565b9050919050565b60006020820190508181036000830152614e0f8161476d565b9050919050565b60006020820190508181036000830152614e2f81614790565b9050919050565b60006020820190508181036000830152614e4f816147b3565b9050919050565b60006020820190508181036000830152614e6f816147d6565b9050919050565b60006020820190508181036000830152614e8f816147f9565b9050919050565b60006020820190508181036000830152614eaf8161481c565b9050919050565b60006020820190508181036000830152614ecf8161483f565b9050919050565b60006020820190508181036000830152614eef81614862565b9050919050565b60006020820190508181036000830152614f0f81614885565b9050919050565b60006020820190508181036000830152614f2f816148a8565b9050919050565b60006020820190508181036000830152614f4f816148cb565b9050919050565b60006020820190508181036000830152614f6f816148ee565b9050919050565b60006020820190508181036000830152614f8f81614911565b9050919050565b60006020820190508181036000830152614faf81614934565b9050919050565b60006020820190508181036000830152614fcf81614957565b9050919050565b60006020820190508181036000830152614fef8161497a565b9050919050565b6000602082019050818103600083015261500f8161499d565b9050919050565b6000602082019050818103600083015261502f816149c0565b9050919050565b6000602082019050818103600083015261504f816149e3565b9050919050565b600060208201905061506b6000830184614a06565b92915050565b600061507b61508c565b9050615087828261537d565b919050565b6000604051905090565b600067ffffffffffffffff8211156150b1576150b06154e4565b5b6150ba82615513565b9050602081019050919050565b600067ffffffffffffffff8211156150e2576150e16154e4565b5b6150eb82615513565b9050602081019050919050565b60008190508160005260206000209050919050565b600081519050919050565b600081519050919050565b600082825260208201905092915050565b600081905092915050565b600082825260208201905092915050565b600081905092915050565b6000615166826152ed565b9150615171836152ed565b9250827fffffffffffffffffffffffffffffffffffffffffffffffffffffffffffffffff038211156151a6576151a5615428565b5b828201905092915050565b60006151bc826152ed565b91506151c7836152ed565b9250826151d7576151d6615457565b5b828204905092915050565b60006151ed826152ed565b91506151f8836152ed565b9250817fffffffffffffffffffffffffffffffffffffffffffffffffffffffffffffffff048311821515161561523157615230615428565b5b828202905092915050565b6000615247826152ed565b9150615252836152ed565b92508282101561526557615264615428565b5b828203905092915050565b600061527b826152cd565b9050919050565b60008115159050919050565b60007fffffffff0000000000000000000000000000000000000000000000000000000082169050919050565b60008190506152c882615cf9565b919050565b600073ffffffffffffffffffffffffffffffffffffffff82169050919050565b6000819050919050565b6000615302826152ba565b9050919050565b82818337600083830152505050565b60005b8381101561533657808201518184015260208101905061531b565b83811115615345576000848401525b50505050565b6000600282049050600182168061536357607f821691505b60208210811415615377576153766154b5565b5b50919050565b61538682615513565b810181811067ffffffffffffffff821117156153a5576153a46154e4565b5b80604052505050565b60006153b9826152ed565b91507fffffffffffffffffffffffffffffffffffffffffffffffffffffffffffffffff8214156153ec576153eb615428565b5b600182019050919050565b6000615402826152ed565b915061540d836152ed565b92508261541d5761541c615457565b5b828206905092915050565b7f4e487b7100000000000000000000000000000000000000000000000000000000600052601160045260246000fd5b7f4e487b7100000000000000000000000000000000000000000000000000000000600052601260045260246000fd5b7f4e487b7100000000000000000000000000000000000000000000000000000000600052602160045260246000fd5b7f4e487b7100000000000000000000000000000000000000000000000000000000600052602260045260246000fd5b7f4e487b7100000000000000000000000000000000000000000000000000000000600052604160045260246000fd5b6000601f19601f8301169050919050565b7f3400000000000000000000000000000000000000000000000000000000000000600082015250565b7f53746172742074696d65206d757374206265206265666f726520656e6420746960008201527f6d65000000000000000000000000000000000000000000000000000000000000602082015250565b7f3130000000000000000000000000000000000000000000000000000000000000600082015250565b7f3135000000000000000000000000000000000000000000000000000000000000600082015250565b7f4552433732313a207472616e7366657220746f206e6f6e20455243373231526560008201527f63656976657220696d706c656d656e7465720000000000000000000000000000602082015250565b7f4f776e61626c653a206e6577206f776e657220697320746865207a65726f206160008201527f6464726573730000000000000000000000000000000000000000000000000000602082015250565b7f3136000000000000000000000000000000000000000000000000000000000000600082015250565b7f4552433732313a207472616e736665722066726f6d20696e636f72726563742060008201527f6f776e6572000000000000000000000000000000000000000000000000000000602082015250565b7f4552433732313a20746f6b656e20616c7265616479206d696e74656400000000600082015250565b7f3300000000000000000000000000000000000000000000000000000000000000600082015250565b7f4552433732313a207472616e7366657220746f20746865207a65726f2061646460008201527f7265737300000000000000000000000000000000000000000000000000000000602082015250565b7f4552433732313a20617070726f766520746f2063616c6c657200000000000000600082015250565b7f3700000000000000000000000000000000000000000000000000000000000000600082015250565b7f4552433732313a206f70657261746f7220717565727920666f72206e6f6e657860008201527f697374656e7420746f6b656e0000000000000000000000000000000000000000602082015250565b7f3134000000000000000000000000000000000000000000000000000000000000600082015250565b7f4552433732313a20617070726f76652063616c6c6572206973206e6f74206f7760008201527f6e6572206e6f7220617070726f76656420666f7220616c6c0000000000000000602082015250565b7f4552433732313a2062616c616e636520717565727920666f7220746865207a6560008201527f726f206164647265737300000000000000000000000000000000000000000000602082015250565b7f4552433732313a206f776e657220717565727920666f72206e6f6e657869737460008201527f656e7420746f6b656e0000000000000000000000000000000000000000000000602082015250565b7f45524337323155524953746f726167653a2055524920736574206f66206e6f6e60008201527f6578697374656e7420746f6b656e000000000000000000000000000000000000602082015250565b7f3131000000000000000000000000000000000000000000000000000000000000600082015250565b7f3133000000000000000000000000000000000000000000000000000000000000600082015250565b7f3132000000000000000000000000000000000000000000000000000000000000600082015250565b7f4552433732313a206d696e7420746f20746865207a65726f2061646472657373600082015250565b7f45524337323155524953746f726167653a2055524920717565727920666f722060008201527f6e6f6e6578697374656e7420746f6b656e000000000000000000000000000000602082015250565b7f4552433732313a20617070726f76656420717565727920666f72206e6f6e657860008201527f697374656e7420746f6b656e0000000000000000000000000000000000000000602082015250565b7f4f776e61626c653a2063616c6c6572206973206e6f7420746865206f776e6572600082015250565b7f4552433732314d657461646174613a2055524920717565727920666f72206e6f60008201527f6e6578697374656e7420746f6b656e0000000000000000000000000000000000602082015250565b7f3200000000000000000000000000000000000000000000000000000000000000600082015250565b7f4552433732313a20617070726f76616c20746f2063757272656e74206f776e6560008201527f7200000000000000000000000000000000000000000000000000000000000000602082015250565b7f4552433732313a207472616e736665722063616c6c6572206973206e6f74206f60008201527f776e6572206e6f7220617070726f766564000000000000000000000000000000602082015250565b7f3100000000000000000000000000000000000000000000000000000000000000600082015250565b7f3500000000000000000000000000000000000000000000000000000000000000600082015250565b7f3900000000000000000000000000000000000000000000000000000000000000600082015250565b7f3600000000000000000000000000000000000000000000000000000000000000600082015250565b7f3800000000000000000000000000000000000000000000000000000000000000600082015250565b60048110615d0a57615d09615486565b5b50565b615d1681615270565b8114615d2157600080fd5b50565b615d2d81615282565b8114615d3857600080fd5b50565b615d448161528e565b8114615d4f57600080fd5b50565b615d5b816152ed565b8114615d6657600080fd5b5056fea264697066735822122071fb641e4887d78b1e30031d45ed287daaecb27d76e863b79d1345e7bdcdf68664736f6c63430008040033",
  "linkReferences": {},
  "deployedLinkReferences": {}
}