{
  "_format": "hh-sol-artifact-1",
  "contractName": "DbAudio",
  "sourceName": "contracts/DbAudio.sol",
  "abi": [
    {
      "inputs": [],
      "stateMutability": "nonpayable",
      "type": "constructor"
    },
    {
      "anonymous": false,
      "inputs": [
        {
          "indexed": true,
          "internalType": "address",
          "name": "owner",
          "type": "address"
        },
        {
          "indexed": true,
          "internalType": "address",
          "name": "approved",
          "type": "address"
        },
        {
          "indexed": true,
          "internalType": "uint256",
          "name": "tokenId",
          "type": "uint256"
        }
      ],
      "name": "Approval",
      "type": "event"
    },
    {
      "anonymous": false,
      "inputs": [
        {
          "indexed": true,
          "internalType": "address",
          "name": "owner",
          "type": "address"
        },
        {
          "indexed": true,
          "internalType": "address",
          "name": "operator",
          "type": "address"
        },
        {
          "indexed": false,
          "internalType": "bool",
          "name": "approved",
          "type": "bool"
        }
      ],
      "name": "ApprovalForAll",
      "type": "event"
    },
    {
      "anonymous": false,
      "inputs": [
        {
          "indexed": true,
          "internalType": "address",
          "name": "previousOwner",
          "type": "address"
        },
        {
          "indexed": true,
          "internalType": "address",
          "name": "newOwner",
          "type": "address"
        }
      ],
      "name": "OwnershipTransferred",
      "type": "event"
    },
    {
      "anonymous": false,
      "inputs": [
        {
          "indexed": true,
          "internalType": "address",
          "name": "from",
          "type": "address"
        },
        {
          "indexed": true,
          "internalType": "address",
          "name": "to",
          "type": "address"
        },
        {
          "indexed": true,
          "internalType": "uint256",
          "name": "tokenId",
          "type": "uint256"
        }
      ],
      "name": "Transfer",
      "type": "event"
    },
    {
      "inputs": [
        {
          "internalType": "address",
          "name": "to",
          "type": "address"
        },
        {
          "internalType": "uint256",
          "name": "tokenId",
          "type": "uint256"
        }
      ],
      "name": "approve",
      "outputs": [],
      "stateMutability": "nonpayable",
      "type": "function"
    },
    {
      "inputs": [
        {
          "internalType": "address",
          "name": "owner",
          "type": "address"
        }
      ],
      "name": "balanceOf",
      "outputs": [
        {
          "internalType": "uint256",
          "name": "",
          "type": "uint256"
        }
      ],
      "stateMutability": "view",
      "type": "function"
    },
    {
      "inputs": [
        {
          "internalType": "string",
          "name": "uri",
          "type": "string"
        }
      ],
      "name": "bid",
      "outputs": [],
      "stateMutability": "payable",
      "type": "function"
    },
    {
      "inputs": [],
      "name": "biddingFee",
      "outputs": [
        {
          "internalType": "uint256",
          "name": "",
          "type": "uint256"
        }
      ],
      "stateMutability": "view",
      "type": "function"
    },
    {
      "inputs": [
        {
          "internalType": "string",
          "name": "uri",
          "type": "string"
        },
        {
          "internalType": "uint256",
          "name": "startPrice",
          "type": "uint256"
        },
        {
          "internalType": "uint256",
          "name": "startTime",
          "type": "uint256"
        },
        {
          "internalType": "uint256",
          "name": "endTime",
          "type": "uint256"
        }
      ],
      "name": "createBidding",
      "outputs": [],
      "stateMutability": "payable",
      "type": "function"
    },
    {
      "inputs": [
        {
          "internalType": "string",
          "name": "uri",
          "type": "string"
        },
        {
          "internalType": "string",
          "name": "name",
          "type": "string"
        },
        {
          "internalType": "uint256",
          "name": "price",
          "type": "uint256"
        }
      ],
      "name": "createNFT",
      "outputs": [
        {
          "internalType": "uint256",
          "name": "",
          "type": "uint256"
        }
      ],
      "stateMutability": "nonpayable",
      "type": "function"
    },
    {
      "inputs": [
        {
          "internalType": "uint256",
          "name": "tokenId",
          "type": "uint256"
        }
      ],
      "name": "getApproved",
      "outputs": [
        {
          "internalType": "address",
          "name": "",
          "type": "address"
        }
      ],
      "stateMutability": "view",
      "type": "function"
    },
    {
      "inputs": [
        {
          "internalType": "string",
          "name": "uri",
          "type": "string"
        },
        {
          "internalType": "uint256",
          "name": "index",
          "type": "uint256"
        },
        {
          "internalType": "uint256",
          "name": "sessionId",
          "type": "uint256"
        }
      ],
      "name": "getBidSession",
      "outputs": [
        {
          "internalType": "address",
          "name": "",
          "type": "address"
        },
        {
          "internalType": "uint256",
          "name": "",
          "type": "uint256"
        },
        {
          "internalType": "uint256",
          "name": "",
          "type": "uint256"
        }
      ],
      "stateMutability": "view",
      "type": "function"
    },
    {
      "inputs": [
        {
          "internalType": "string",
          "name": "uri",
          "type": "string"
        },
        {
          "internalType": "uint256",
          "name": "index",
          "type": "uint256"
        }
      ],
      "name": "getBidding",
      "outputs": [
        {
          "internalType": "address",
          "name": "",
          "type": "address"
        },
        {
          "internalType": "uint256",
          "name": "",
          "type": "uint256"
        },
        {
          "internalType": "enum DbAudio.BidStatus",
          "name": "",
          "type": "uint8"
        },
        {
          "internalType": "uint256",
          "name": "",
          "type": "uint256"
        },
        {
          "internalType": "uint256",
          "name": "",
          "type": "uint256"
        },
        {
          "internalType": "uint256",
          "name": "",
          "type": "uint256"
        }
      ],
      "stateMutability": "view",
      "type": "function"
    },
    {
      "inputs": [
        {
          "internalType": "uint256",
          "name": "",
          "type": "uint256"
        }
      ],
      "name": "indexOfToken",
      "outputs": [
        {
          "internalType": "uint256",
          "name": "",
          "type": "uint256"
        }
      ],
      "stateMutability": "view",
      "type": "function"
    },
    {
      "inputs": [
        {
          "internalType": "address",
          "name": "owner",
          "type": "address"
        },
        {
          "internalType": "address",
          "name": "operator",
          "type": "address"
        }
      ],
      "name": "isApprovedForAll",
      "outputs": [
        {
          "internalType": "bool",
          "name": "",
          "type": "bool"
        }
      ],
      "stateMutability": "view",
      "type": "function"
    },
    {
      "inputs": [
        {
          "internalType": "string",
          "name": "",
          "type": "string"
        }
      ],
      "name": "listNFT",
      "outputs": [
        {
          "internalType": "address",
          "name": "owner",
          "type": "address"
        },
        {
          "internalType": "string",
          "name": "url",
          "type": "string"
        },
        {
          "internalType": "string",
          "name": "name",
          "type": "string"
        },
        {
          "internalType": "uint256",
          "name": "price",
          "type": "uint256"
        },
        {
          "internalType": "enum DbAudio.AudioStatus",
          "name": "status",
          "type": "uint8"
        },
        {
          "internalType": "uint256",
          "name": "currentBidding",
          "type": "uint256"
        }
      ],
      "stateMutability": "view",
      "type": "function"
    },
    {
      "inputs": [
        {
          "internalType": "address",
          "name": "",
          "type": "address"
        },
        {
          "internalType": "uint256",
          "name": "",
          "type": "uint256"
        }
      ],
      "name": "listOwnToken",
      "outputs": [
        {
          "internalType": "uint256",
          "name": "",
          "type": "uint256"
        }
      ],
      "stateMutability": "view",
      "type": "function"
    },
    {
      "inputs": [],
      "name": "name",
      "outputs": [
        {
          "internalType": "string",
          "name": "",
          "type": "string"
        }
      ],
      "stateMutability": "view",
      "type": "function"
    },
    {
      "inputs": [],
      "name": "owner",
      "outputs": [
        {
          "internalType": "address",
          "name": "",
          "type": "address"
        }
      ],
      "stateMutability": "view",
      "type": "function"
    },
    {
      "inputs": [
        {
          "internalType": "uint256",
          "name": "tokenId",
          "type": "uint256"
        }
      ],
      "name": "ownerOf",
      "outputs": [
        {
          "internalType": "address",
          "name": "",
          "type": "address"
        }
      ],
      "stateMutability": "view",
      "type": "function"
    },
    {
      "inputs": [],
      "name": "renounceOwnership",
      "outputs": [],
      "stateMutability": "nonpayable",
      "type": "function"
    },
    {
      "inputs": [
        {
          "internalType": "address",
          "name": "from",
          "type": "address"
        },
        {
          "internalType": "address",
          "name": "to",
          "type": "address"
        },
        {
          "internalType": "uint256",
          "name": "tokenId",
          "type": "uint256"
        }
      ],
      "name": "safeTransferFrom",
      "outputs": [],
      "stateMutability": "nonpayable",
      "type": "function"
    },
    {
      "inputs": [
        {
          "internalType": "address",
          "name": "from",
          "type": "address"
        },
        {
          "internalType": "address",
          "name": "to",
          "type": "address"
        },
        {
          "internalType": "uint256",
          "name": "tokenId",
          "type": "uint256"
        },
        {
          "internalType": "bytes",
          "name": "_data",
          "type": "bytes"
        }
      ],
      "name": "safeTransferFrom",
      "outputs": [],
      "stateMutability": "nonpayable",
      "type": "function"
    },
    {
      "inputs": [
        {
          "internalType": "address",
          "name": "operator",
          "type": "address"
        },
        {
          "internalType": "bool",
          "name": "approved",
          "type": "bool"
        }
      ],
      "name": "setApprovalForAll",
      "outputs": [],
      "stateMutability": "nonpayable",
      "type": "function"
    },
    {
      "inputs": [
        {
          "internalType": "string",
          "name": "uri",
          "type": "string"
        },
        {
          "internalType": "uint256",
          "name": "price",
          "type": "uint256"
        }
      ],
      "name": "setPriceNFT",
      "outputs": [],
      "stateMutability": "nonpayable",
      "type": "function"
    },
    {
      "inputs": [
        {
          "internalType": "uint256",
          "name": "share",
          "type": "uint256"
        }
      ],
      "name": "setSharePercent",
      "outputs": [],
      "stateMutability": "nonpayable",
      "type": "function"
    },
    {
      "inputs": [
        {
          "internalType": "uint256",
          "name": "money",
          "type": "uint256"
        }
      ],
      "name": "setbiddingFee",
      "outputs": [],
      "stateMutability": "nonpayable",
      "type": "function"
    },
    {
      "inputs": [
        {
          "internalType": "string",
          "name": "uri",
          "type": "string"
        }
      ],
      "name": "settleBiddingSession",
      "outputs": [],
      "stateMutability": "nonpayable",
      "type": "function"
    },
    {
      "inputs": [],
      "name": "sharePercent",
      "outputs": [
        {
          "internalType": "uint256",
          "name": "",
          "type": "uint256"
        }
      ],
      "stateMutability": "view",
      "type": "function"
    },
    {
      "inputs": [
        {
          "internalType": "bytes4",
          "name": "interfaceId",
          "type": "bytes4"
        }
      ],
      "name": "supportsInterface",
      "outputs": [
        {
          "internalType": "bool",
          "name": "",
          "type": "bool"
        }
      ],
      "stateMutability": "view",
      "type": "function"
    },
    {
      "inputs": [],
      "name": "symbol",
      "outputs": [
        {
          "internalType": "string",
          "name": "",
          "type": "string"
        }
      ],
      "stateMutability": "view",
      "type": "function"
    },
    {
      "inputs": [
        {
          "internalType": "string",
          "name": "",
          "type": "string"
        }
      ],
      "name": "tokenIdMapping",
      "outputs": [
        {
          "internalType": "uint256",
          "name": "",
          "type": "uint256"
        }
      ],
      "stateMutability": "view",
      "type": "function"
    },
    {
      "inputs": [
        {
          "internalType": "uint256",
          "name": "tokenId",
          "type": "uint256"
        }
      ],
      "name": "tokenURI",
      "outputs": [
        {
          "internalType": "string",
          "name": "",
          "type": "string"
        }
      ],
      "stateMutability": "view",
      "type": "function"
    },
    {
      "inputs": [
        {
          "internalType": "address",
          "name": "from",
          "type": "address"
        },
        {
          "internalType": "address",
          "name": "to",
          "type": "address"
        },
        {
          "internalType": "uint256",
          "name": "tokenId",
          "type": "uint256"
        }
      ],
      "name": "transferFrom",
      "outputs": [],
      "stateMutability": "nonpayable",
      "type": "function"
    },
    {
      "inputs": [
        {
          "internalType": "string",
          "name": "uri",
          "type": "string"
        },
        {
          "internalType": "address",
          "name": "to",
          "type": "address"
        }
      ],
      "name": "transferNFT",
      "outputs": [],
      "stateMutability": "nonpayable",
      "type": "function"
    },
    {
      "inputs": [
        {
          "internalType": "address",
          "name": "newOwner",
          "type": "address"
        }
      ],
      "name": "transferOwnership",
      "outputs": [],
      "stateMutability": "nonpayable",
      "type": "function"
    },
    {
      "inputs": [
        {
          "internalType": "uint256",
          "name": "money",
          "type": "uint256"
        }
      ],
      "name": "withDrawAll",
      "outputs": [],
      "stateMutability": "nonpayable",
      "type": "function"
    }
  ],
  "bytecode": "0x60806040523480156200001157600080fd5b506040518060400160405280600781526020017f4462417564696f000000000000000000000000000000000000000000000000008152506040518060400160405280600481526020017f4442415500000000000000000000000000000000000000000000000000000000815250816000908051906020019062000096929190620001b8565b508060019080519060200190620000af929190620001b8565b505050620000d2620000c6620000ea60201b60201c565b620000f260201b60201c565b6000600981905550622dc6c0600a81905550620002cd565b600033905090565b6000600660009054906101000a900473ffffffffffffffffffffffffffffffffffffffff16905081600660006101000a81548173ffffffffffffffffffffffffffffffffffffffff021916908373ffffffffffffffffffffffffffffffffffffffff1602179055508173ffffffffffffffffffffffffffffffffffffffff168173ffffffffffffffffffffffffffffffffffffffff167f8be0079c531659141344cd1fd0a4f28419497f9722a3daafe3b4186f6b6457e060405160405180910390a35050565b828054620001c69062000268565b90600052602060002090601f016020900481019282620001ea576000855562000236565b82601f106200020557805160ff191683800117855562000236565b8280016001018555821562000236579182015b828111156200023557825182559160200191906001019062000218565b5b50905062000245919062000249565b5090565b5b80821115620002645760008160009055506001016200024a565b5090565b600060028204905060018216806200028157607f821691505b602082108114156200029857620002976200029e565b5b50919050565b7f4e487b7100000000000000000000000000000000000000000000000000000000600052602260045260246000fd5b61602780620002dd6000396000f3fe6080604052600436106101ee5760003560e01c80637aef951c1161010d578063b88d4fde116100a0578063cf023fdd1161006f578063cf023fdd14610735578063d8189e051461075e578063e985e9c51461079b578063f2fde38b146107d8578063ff41edbc14610801576101ee565b8063b88d4fde14610667578063b88eabdd14610690578063c15edf5f146106cd578063c87b56dd146106f8576101ee565b806395d89b41116100dc57806395d89b41146105c1578063a22cb465146105ec578063a818e0c814610615578063ab8a80201461063e576101ee565b80637aef951c1461050f57806386d060fe1461052b57806387ea4e38146105545780638da5cb5b14610596576101ee565b806342842e0e116101855780635ffd9d07116101545780635ffd9d07146104415780636352211e1461047e57806370a08231146104bb578063715018a6146104f8576101ee565b806342842e0e1461038f5780634387330e146103b857806348005848146103fa57806349706de714610416576101ee565b806323b872dd116101c157806323b872dd146102c1578063271336e6146102ea5780633241d34a14610329578063411e9ef214610366576101ee565b806301ffc9a7146101f357806306fdde0314610230578063081812fc1461025b578063095ea7b314610298575b600080fd5b3480156101ff57600080fd5b5061021a6004803603810190610215919061434d565b61082a565b6040516102279190614e08565b60405180910390f35b34801561023c57600080fd5b5061024561090c565b6040516102529190614e23565b60405180910390f35b34801561026757600080fd5b50610282600480360381019061027d91906145e9565b61099e565b60405161028f9190614c9a565b60405180910390f35b3480156102a457600080fd5b506102bf60048036038101906102ba9190614311565b610a23565b005b3480156102cd57600080fd5b506102e860048036038101906102e3919061420b565b610b3b565b005b3480156102f657600080fd5b50610311600480360381019061030c9190614507565b610e0a565b60405161032093929190614dd1565b60405180910390f35b34801561033557600080fd5b50610350600480360381019061034b9190614434565b610ef8565b60405161035d91906152a5565b60405180910390f35b34801561037257600080fd5b5061038d600480360381019061038891906145e9565b61122d565b005b34801561039b57600080fd5b506103b660048036038101906103b1919061420b565b611304565b005b3480156103c457600080fd5b506103df60048036038101906103da919061439f565b611324565b6040516103f196959493929190614d01565b60405180910390f35b610414600480360381019061040f919061456e565b6114b3565b005b34801561042257600080fd5b5061042b6119b1565b60405161043891906152a5565b60405180910390f35b34801561044d57600080fd5b50610468600480360381019061046391906145e9565b6119b7565b60405161047591906152a5565b60405180910390f35b34801561048a57600080fd5b506104a560048036038101906104a091906145e9565b6119cf565b6040516104b29190614c9a565b60405180910390f35b3480156104c757600080fd5b506104e260048036038101906104dd91906141a6565b611a81565b6040516104ef91906152a5565b60405180910390f35b34801561050457600080fd5b5061050d611b39565b005b6105296004803603810190610524919061439f565b611bc1565b005b34801561053757600080fd5b50610552600480360381019061054d91906145e9565b611ff3565b005b34801561056057600080fd5b5061057b600480360381019061057691906144b3565b612079565b60405161058d96959493929190614d70565b60405180910390f35b3480156105a257600080fd5b506105ab612120565b6040516105b89190614c9a565b60405180910390f35b3480156105cd57600080fd5b506105d661214a565b6040516105e39190614e23565b60405180910390f35b3480156105f857600080fd5b50610613600480360381019061060e91906142d5565b6121dc565b005b34801561062157600080fd5b5061063c600480360381019061063791906144b3565b6121f2565b005b34801561064a57600080fd5b50610665600480360381019061066091906145e9565b6122b4565b005b34801561067357600080fd5b5061068e6004803603810190610689919061425a565b61237a565b005b34801561069c57600080fd5b506106b760048036038101906106b2919061439f565b61264b565b6040516106c491906152a5565b60405180910390f35b3480156106d957600080fd5b506106e2612679565b6040516106ef91906152a5565b60405180910390f35b34801561070457600080fd5b5061071f600480360381019061071a91906145e9565b61267f565b60405161072c9190614e23565b60405180910390f35b34801561074157600080fd5b5061075c600480360381019061075791906143e0565b612691565b005b34801561076a57600080fd5b5061078560048036038101906107809190614311565b612817565b60405161079291906152a5565b60405180910390f35b3480156107a757600080fd5b506107c260048036038101906107bd91906141cf565b612848565b6040516107cf9190614e08565b60405180910390f35b3480156107e457600080fd5b506107ff60048036038101906107fa91906141a6565b6128dc565b005b34801561080d57600080fd5b506108286004803603810190610823919061439f565b6129d4565b005b60007f80ac58cd000000000000000000000000000000000000000000000000000000007bffffffffffffffffffffffffffffffffffffffffffffffffffffffff1916827bffffffffffffffffffffffffffffffffffffffffffffffffffffffff191614806108f557507f5b5e139f000000000000000000000000000000000000000000000000000000007bffffffffffffffffffffffffffffffffffffffffffffffffffffffff1916827bffffffffffffffffffffffffffffffffffffffffffffffffffffffff1916145b80610905575061090482612faa565b5b9050919050565b60606000805461091b906155bf565b80601f0160208091040260200160405190810160405280929190818152602001828054610947906155bf565b80156109945780601f1061096957610100808354040283529160200191610994565b820191906000526020600020905b81548152906001019060200180831161097757829003601f168201915b5050505050905090565b60006109a982613014565b6109e8576040517f08c379a00000000000000000000000000000000000000000000000000000000081526004016109df90615145565b60405180910390fd5b6004600083815260200190815260200160002060009054906101000a900473ffffffffffffffffffffffffffffffffffffffff169050919050565b6000610a2e826119cf565b90508073ffffffffffffffffffffffffffffffffffffffff168373ffffffffffffffffffffffffffffffffffffffff161415610a9f576040517f08c379a0000000000000000000000000000000000000000000000000000000008152600401610a96906151c5565b60405180910390fd5b8073ffffffffffffffffffffffffffffffffffffffff16610abe613080565b73ffffffffffffffffffffffffffffffffffffffff161480610aed5750610aec81610ae7613080565b612848565b5b610b2c576040517f08c379a0000000000000000000000000000000000000000000000000000000008152600401610b2390615025565b60405180910390fd5b610b368383613088565b505050565b600d60008373ffffffffffffffffffffffffffffffffffffffff1673ffffffffffffffffffffffffffffffffffffffff168152602001908152602001600020819080600181540180825580915050600190039060005260206000200160009091909190915055600d60008473ffffffffffffffffffffffffffffffffffffffff1673ffffffffffffffffffffffffffffffffffffffff1681526020019081526020016000206001600d60008673ffffffffffffffffffffffffffffffffffffffff1673ffffffffffffffffffffffffffffffffffffffff16815260200190815260200160002080549050610c2f919061548b565b81548110610c66577f4e487b7100000000000000000000000000000000000000000000000000000000600052603260045260246000fd5b9060005260206000200154600d60008573ffffffffffffffffffffffffffffffffffffffff1673ffffffffffffffffffffffffffffffffffffffff168152602001908152602001600020600e60008481526020019081526020016000205481548110610cfb577f4e487b7100000000000000000000000000000000000000000000000000000000600052603260045260246000fd5b9060005260206000200181905550600d60008473ffffffffffffffffffffffffffffffffffffffff1673ffffffffffffffffffffffffffffffffffffffff168152602001908152602001600020805480610d7e577f4e487b7100000000000000000000000000000000000000000000000000000000600052603160045260246000fd5b600190038181906000526020600020016000905590556001600d60008473ffffffffffffffffffffffffffffffffffffffff1673ffffffffffffffffffffffffffffffffffffffff16815260200190815260200160002080549050610de3919061548b565b600e600083815260200190815260200160002081905550610e05838383613141565b505050565b600080600080600b87604051610e209190614c5f565b908152602001604051809103902090506000816005016000888152602001908152602001600020905060008160060160008881526020019081526020016000206040518060600160405290816000820160009054906101000a900473ffffffffffffffffffffffffffffffffffffffff1673ffffffffffffffffffffffffffffffffffffffff1673ffffffffffffffffffffffffffffffffffffffff16815260200160018201548152602001600282015481525050905080600001518160200151826040015195509550955050505093509350939050565b600080600b85604051610f0b9190614c5f565b90815260200160405180910390209050848051906020012081600101604051610f349190614c48565b60405180910390201415610f7d576040517f08c379a0000000000000000000000000000000000000000000000000000000008152600401610f74906151a5565b60405180910390fd5b610f8760086131a1565b33600b86604051610f989190614c5f565b908152602001604051809103902060000160006101000a81548173ffffffffffffffffffffffffffffffffffffffff021916908373ffffffffffffffffffffffffffffffffffffffff16021790555084600b86604051610ff89190614c5f565b9081526020016040518091039020600101908051906020019061101c929190613fca565b5083600b8660405161102e9190614c5f565b90815260200160405180910390206002019080519060200190611052929190613fca565b5082600b866040516110649190614c5f565b9081526020016040518091039020600301819055506000600b8660405161108b9190614c5f565b908152602001604051809103902060040160006101000a81548160ff021916908360038111156110e4577f4e487b7100000000000000000000000000000000000000000000000000000000600052602160045260246000fd5b02179055506000600b866040516110fb9190614c5f565b908152602001604051809103902060060181905550600061111c60086131b7565b905061112833826131c5565b611132818761339f565b80600c876040516111439190614c5f565b908152602001604051809103902081905550600d60003373ffffffffffffffffffffffffffffffffffffffff1673ffffffffffffffffffffffffffffffffffffffff1681526020019081526020016000208190806001815401808255809150506001900390600052602060002001600090919091909150556001600d60003373ffffffffffffffffffffffffffffffffffffffff1673ffffffffffffffffffffffffffffffffffffffff1681526020019081526020016000208054905061120a919061548b565b600e60008381526020019081526020016000208190555080925050509392505050565b611235613080565b73ffffffffffffffffffffffffffffffffffffffff16611253612120565b73ffffffffffffffffffffffffffffffffffffffff16146112a9576040517f08c379a00000000000000000000000000000000000000000000000000000000081526004016112a090615165565b60405180910390fd5b600081101580156112bb575060648111155b6112fa576040517f08c379a00000000000000000000000000000000000000000000000000000000081526004016112f190615205565b60405180910390fd5b8060098190555050565b61131f8383836040518060200160405280600081525061237a565b505050565b600b818051602081018201805184825260208301602085012081835280955050505050506000915090508060000160009054906101000a900473ffffffffffffffffffffffffffffffffffffffff1690806001018054611383906155bf565b80601f01602080910402602001604051908101604052809291908181526020018280546113af906155bf565b80156113fc5780601f106113d1576101008083540402835291602001916113fc565b820191906000526020600020905b8154815290600101906020018083116113df57829003601f168201915b505050505090806002018054611411906155bf565b80601f016020809104026020016040519081016040528092919081815260200182805461143d906155bf565b801561148a5780601f1061145f5761010080835404028352916020019161148a565b820191906000526020600020905b81548152906001019060200180831161146d57829003601f168201915b5050505050908060030154908060040160009054906101000a900460ff16908060060154905086565b8082106114f5576040517f08c379a00000000000000000000000000000000000000000000000000000000081526004016114ec90614e65565b60405180910390fd5b6000600b856040516115079190614c5f565b908152602001604051809103902090508480519060200120816001016040516115309190614c48565b604051809103902014611578576040517f08c379a000000000000000000000000000000000000000000000000000000000815260040161156f90614e45565b60405180910390fd5b3373ffffffffffffffffffffffffffffffffffffffff168160000160009054906101000a900473ffffffffffffffffffffffffffffffffffffffff1673ffffffffffffffffffffffffffffffffffffffff161461160a576040517f08c379a000000000000000000000000000000000000000000000000000000000815260040161160190615265565b60405180910390fd5b42821161164c576040517f08c379a000000000000000000000000000000000000000000000000000000000815260040161164390614fc5565b60405180910390fd5b60006003811115611686577f4e487b7100000000000000000000000000000000000000000000000000000000600052602160045260246000fd5b8160040160009054906101000a900460ff1660038111156116d0577f4e487b7100000000000000000000000000000000000000000000000000000000600052602160045260246000fd5b148061175c5750600380811115611710577f4e487b7100000000000000000000000000000000000000000000000000000000600052602160045260246000fd5b8160040160009054906101000a900460ff16600381111561175a577f4e487b7100000000000000000000000000000000000000000000000000000000600052602160045260246000fd5b145b61179b576040517f08c379a000000000000000000000000000000000000000000000000000000000815260040161179290615285565b60405180910390fd5b34600a5411156117e0576040517f08c379a00000000000000000000000000000000000000000000000000000000081526004016117d790615245565b60405180910390fd5b60018160060160008282546117f591906153aa565b9250508190555060008160050160008360060154815260200190815260200160002060000160006101000a81548173ffffffffffffffffffffffffffffffffffffffff021916908373ffffffffffffffffffffffffffffffffffffffff16021790555083816005016000836006015481526020019081526020016000206001018190555042831161188757600061188a565b60015b8160050160008360060154815260200190815260200160002060020160006101000a81548160ff021916908360038111156118ee577f4e487b7100000000000000000000000000000000000000000000000000000000600052602160045260246000fd5b02179055508281600501600083600601548152602001908152602001600020600301819055508181600501600083600601548152602001908152602001600020600401819055506000816005016000836006015481526020019081526020016000206005018190555060018160040160006101000a81548160ff021916908360038111156119a5577f4e487b7100000000000000000000000000000000000000000000000000000000600052602160045260246000fd5b02179055505050505050565b600a5481565b600e6020528060005260406000206000915090505481565b6000806002600084815260200190815260200160002060009054906101000a900473ffffffffffffffffffffffffffffffffffffffff169050600073ffffffffffffffffffffffffffffffffffffffff168173ffffffffffffffffffffffffffffffffffffffff161415611a78576040517f08c379a0000000000000000000000000000000000000000000000000000000008152600401611a6f90615065565b60405180910390fd5b80915050919050565b60008073ffffffffffffffffffffffffffffffffffffffff168273ffffffffffffffffffffffffffffffffffffffff161415611af2576040517f08c379a0000000000000000000000000000000000000000000000000000000008152600401611ae990615045565b60405180910390fd5b600360008373ffffffffffffffffffffffffffffffffffffffff1673ffffffffffffffffffffffffffffffffffffffff168152602001908152602001600020549050919050565b611b41613080565b73ffffffffffffffffffffffffffffffffffffffff16611b5f612120565b73ffffffffffffffffffffffffffffffffffffffff1614611bb5576040517f08c379a0000000000000000000000000000000000000000000000000000000008152600401611bac90615165565b60405180910390fd5b611bbf6000613413565b565b6000600b82604051611bd39190614c5f565b90815260200160405180910390209050818051906020012081600101604051611bfc9190614c48565b604051809103902014611c44576040517f08c379a0000000000000000000000000000000000000000000000000000000008152600401611c3b90614e45565b60405180910390fd5b60016003811115611c7e577f4e487b7100000000000000000000000000000000000000000000000000000000600052602160045260246000fd5b8160040160009054906101000a900460ff166003811115611cc8577f4e487b7100000000000000000000000000000000000000000000000000000000600052602160045260246000fd5b14611d08576040517f08c379a0000000000000000000000000000000000000000000000000000000008152600401611cff90614e85565b60405180910390fd5b600081600601541415611d50576040517f08c379a0000000000000000000000000000000000000000000000000000000008152600401611d47906150a5565b60405180910390fd5b600081600501600083600601548152602001908152602001600020905042816003015411158015611d85575080600401544211155b611dc4576040517f08c379a0000000000000000000000000000000000000000000000000000000008152600401611dbb906150e5565b60405180910390fd5b34816001015410611e0a576040517f08c379a0000000000000000000000000000000000000000000000000000000008152600401611e01906150c5565b60405180910390fd5b60028160020160006101000a81548160ff02191690836003811115611e58577f4e487b7100000000000000000000000000000000000000000000000000000000600052602160045260246000fd5b0217905550600060405180606001604052803373ffffffffffffffffffffffffffffffffffffffff1681526020013481526020014281525090506001826005016000828254611ea791906153aa565b92505081905550808260060160008460050154815260200190815260200160002060008201518160000160006101000a81548173ffffffffffffffffffffffffffffffffffffffff021916908373ffffffffffffffffffffffffffffffffffffffff160217905550602082015181600101556040820151816002015590505060008260000160009054906101000a900473ffffffffffffffffffffffffffffffffffffffff169050600083600101549050338460000160006101000a81548173ffffffffffffffffffffffffffffffffffffffff021916908373ffffffffffffffffffffffffffffffffffffffff1602179055503484600101819055508173ffffffffffffffffffffffffffffffffffffffff166108fc829081150290604051600060405180830381858888f19350505050158015611fea573d6000803e3d6000fd5b50505050505050565b611ffb613080565b73ffffffffffffffffffffffffffffffffffffffff16612019612120565b73ffffffffffffffffffffffffffffffffffffffff161461206f576040517f08c379a000000000000000000000000000000000000000000000000000000000815260040161206690615165565b60405180910390fd5b80600a8190555050565b6000806000806000806000600b896040516120949190614c5f565b9081526020016040518091039020905060008160050160008a815260200190815260200160002090508060000160009054906101000a900473ffffffffffffffffffffffffffffffffffffffff1681600101548260020160009054906101000a900460ff1683600301548460040154856005015497509750975097509750975050509295509295509295565b6000600660009054906101000a900473ffffffffffffffffffffffffffffffffffffffff16905090565b606060018054612159906155bf565b80601f0160208091040260200160405190810160405280929190818152602001828054612185906155bf565b80156121d25780601f106121a7576101008083540402835291602001916121d2565b820191906000526020600020905b8154815290600101906020018083116121b557829003601f168201915b5050505050905090565b6121ee6121e7613080565b83836134d9565b5050565b6000600b836040516122049190614c5f565b908152602001604051809103902090503373ffffffffffffffffffffffffffffffffffffffff168160000160009054906101000a900473ffffffffffffffffffffffffffffffffffffffff1673ffffffffffffffffffffffffffffffffffffffff16146122a6576040517f08c379a000000000000000000000000000000000000000000000000000000000815260040161229d90614f65565b60405180910390fd5b818160030181905550505050565b6122bc613080565b73ffffffffffffffffffffffffffffffffffffffff166122da612120565b73ffffffffffffffffffffffffffffffffffffffff1614612330576040517f08c379a000000000000000000000000000000000000000000000000000000000815260040161232790615165565b60405180910390fd5b3373ffffffffffffffffffffffffffffffffffffffff166108fc829081150290604051600060405180830381858888f19350505050158015612376573d6000803e3d6000fd5b5050565b600d60008473ffffffffffffffffffffffffffffffffffffffff1673ffffffffffffffffffffffffffffffffffffffff168152602001908152602001600020829080600181540180825580915050600190039060005260206000200160009091909190915055600d60008573ffffffffffffffffffffffffffffffffffffffff1673ffffffffffffffffffffffffffffffffffffffff1681526020019081526020016000206001600d60008773ffffffffffffffffffffffffffffffffffffffff1673ffffffffffffffffffffffffffffffffffffffff1681526020019081526020016000208054905061246e919061548b565b815481106124a5577f4e487b7100000000000000000000000000000000000000000000000000000000600052603260045260246000fd5b9060005260206000200154600d60008673ffffffffffffffffffffffffffffffffffffffff1673ffffffffffffffffffffffffffffffffffffffff168152602001908152602001600020600e6000858152602001908152602001600020548154811061253a577f4e487b7100000000000000000000000000000000000000000000000000000000600052603260045260246000fd5b9060005260206000200181905550600d60008573ffffffffffffffffffffffffffffffffffffffff1673ffffffffffffffffffffffffffffffffffffffff1681526020019081526020016000208054806125bd577f4e487b7100000000000000000000000000000000000000000000000000000000600052603160045260246000fd5b600190038181906000526020600020016000905590556001600d60008573ffffffffffffffffffffffffffffffffffffffff1673ffffffffffffffffffffffffffffffffffffffff16815260200190815260200160002080549050612622919061548b565b600e60008481526020019081526020016000208190555061264584848484613646565b50505050565b600c818051602081018201805184825260208301602085012081835280955050505050506000915090505481565b60095481565b606061268a826136a8565b9050919050565b6000600b836040516126a39190614c5f565b908152602001604051809103902090508280519060200120816001016040516126cc9190614c48565b604051809103902014612714576040517f08c379a000000000000000000000000000000000000000000000000000000000815260040161270b90614e45565b60405180910390fd5b3373ffffffffffffffffffffffffffffffffffffffff168160000160009054906101000a900473ffffffffffffffffffffffffffffffffffffffff1673ffffffffffffffffffffffffffffffffffffffff16146127a6576040517f08c379a000000000000000000000000000000000000000000000000000000000815260040161279d90615225565b60405180910390fd5b6127cf3383600c866040516127bb9190614c5f565b908152602001604051809103902054611304565b818160000160006101000a81548173ffffffffffffffffffffffffffffffffffffffff021916908373ffffffffffffffffffffffffffffffffffffffff160217905550505050565b600d602052816000526040600020818154811061283357600080fd5b90600052602060002001600091509150505481565b6000600560008473ffffffffffffffffffffffffffffffffffffffff1673ffffffffffffffffffffffffffffffffffffffff16815260200190815260200160002060008373ffffffffffffffffffffffffffffffffffffffff1673ffffffffffffffffffffffffffffffffffffffff16815260200190815260200160002060009054906101000a900460ff16905092915050565b6128e4613080565b73ffffffffffffffffffffffffffffffffffffffff16612902612120565b73ffffffffffffffffffffffffffffffffffffffff1614612958576040517f08c379a000000000000000000000000000000000000000000000000000000000815260040161294f90615165565b60405180910390fd5b600073ffffffffffffffffffffffffffffffffffffffff168173ffffffffffffffffffffffffffffffffffffffff1614156129c8576040517f08c379a00000000000000000000000000000000000000000000000000000000081526004016129bf90614ee5565b60405180910390fd5b6129d181613413565b50565b6000600b826040516129e69190614c5f565b90815260200160405180910390209050818051906020012081600101604051612a0f9190614c48565b604051809103902014612a57576040517f08c379a0000000000000000000000000000000000000000000000000000000008152600401612a4e90614e45565b60405180910390fd5b60016003811115612a91577f4e487b7100000000000000000000000000000000000000000000000000000000600052602160045260246000fd5b8160040160009054906101000a900460ff166003811115612adb577f4e487b7100000000000000000000000000000000000000000000000000000000600052602160045260246000fd5b14612b1b576040517f08c379a0000000000000000000000000000000000000000000000000000000008152600401612b1290615005565b60405180910390fd5b600081600601541415612b63576040517f08c379a0000000000000000000000000000000000000000000000000000000008152600401612b5a906150a5565b60405180910390fd5b6000816005016000836006015481526020019081526020016000209050428160030154108015612b965750806004015442115b612bd5576040517f08c379a0000000000000000000000000000000000000000000000000000000008152600401612bcc90614ea5565b60405180910390fd5b60026003811115612c0f577f4e487b7100000000000000000000000000000000000000000000000000000000600052602160045260246000fd5b8160020160009054906101000a900460ff166003811115612c59577f4e487b7100000000000000000000000000000000000000000000000000000000600052602160045260246000fd5b1480612ce6575060016003811115612c9a577f4e487b7100000000000000000000000000000000000000000000000000000000600052602160045260246000fd5b8260040160009054906101000a900460ff166003811115612ce4577f4e487b7100000000000000000000000000000000000000000000000000000000600052602160045260246000fd5b145b612d25576040517f08c379a0000000000000000000000000000000000000000000000000000000008152600401612d1c90614f05565b60405180910390fd5b600073ffffffffffffffffffffffffffffffffffffffff168160000160009054906101000a900473ffffffffffffffffffffffffffffffffffffffff1673ffffffffffffffffffffffffffffffffffffffff1614612eff5760008160010154905060006009541115612dba5760646009546064612da2919061548b565b82612dad9190615431565b612db79190615400565b90505b8260000160009054906101000a900473ffffffffffffffffffffffffffffffffffffffff1673ffffffffffffffffffffffffffffffffffffffff166108fc829081150290604051600060405180830381858888f19350505050158015612e24573d6000803e3d6000fd5b50612e968360000160009054906101000a900473ffffffffffffffffffffffffffffffffffffffff168360000160009054906101000a900473ffffffffffffffffffffffffffffffffffffffff16600c87604051612e829190614c5f565b908152602001604051809103902054611304565b8160000160009054906101000a900473ffffffffffffffffffffffffffffffffffffffff168360000160006101000a81548173ffffffffffffffffffffffffffffffffffffffff021916908373ffffffffffffffffffffffffffffffffffffffff160217905550505b60038160020160006101000a81548160ff02191690836003811115612f4d577f4e487b7100000000000000000000000000000000000000000000000000000000600052602160045260246000fd5b021790555060038260040160006101000a81548160ff02191690836003811115612fa0577f4e487b7100000000000000000000000000000000000000000000000000000000600052602160045260246000fd5b0217905550505050565b60007f01ffc9a7000000000000000000000000000000000000000000000000000000007bffffffffffffffffffffffffffffffffffffffffffffffffffffffff1916827bffffffffffffffffffffffffffffffffffffffffffffffffffffffff1916149050919050565b60008073ffffffffffffffffffffffffffffffffffffffff166002600084815260200190815260200160002060009054906101000a900473ffffffffffffffffffffffffffffffffffffffff1673ffffffffffffffffffffffffffffffffffffffff1614159050919050565b600033905090565b816004600083815260200190815260200160002060006101000a81548173ffffffffffffffffffffffffffffffffffffffff021916908373ffffffffffffffffffffffffffffffffffffffff160217905550808273ffffffffffffffffffffffffffffffffffffffff166130fb836119cf565b73ffffffffffffffffffffffffffffffffffffffff167f8c5be1e5ebec7d5bd14f71427d1e84f3dd0314c0f7b2291e5b200ac8c7c3b92560405160405180910390a45050565b61315261314c613080565b826137fa565b613191576040517f08c379a0000000000000000000000000000000000000000000000000000000008152600401613188906151e5565b60405180910390fd5b61319c8383836138d8565b505050565b6001816000016000828254019250508190555050565b600081600001549050919050565b600073ffffffffffffffffffffffffffffffffffffffff168273ffffffffffffffffffffffffffffffffffffffff161415613235576040517f08c379a000000000000000000000000000000000000000000000000000000000815260040161322c90615105565b60405180910390fd5b61323e81613014565b1561327e576040517f08c379a000000000000000000000000000000000000000000000000000000000815260040161327590614f45565b60405180910390fd5b61328a60008383613b3f565b6001600360008473ffffffffffffffffffffffffffffffffffffffff1673ffffffffffffffffffffffffffffffffffffffff16815260200190815260200160002060008282546132da91906153aa565b92505081905550816002600083815260200190815260200160002060006101000a81548173ffffffffffffffffffffffffffffffffffffffff021916908373ffffffffffffffffffffffffffffffffffffffff160217905550808273ffffffffffffffffffffffffffffffffffffffff16600073ffffffffffffffffffffffffffffffffffffffff167fddf252ad1be2c89b69c2b068fc378daa952ba7f163c4a11628f55a4df523b3ef60405160405180910390a461339b60008383613b44565b5050565b6133a882613014565b6133e7576040517f08c379a00000000000000000000000000000000000000000000000000000000081526004016133de90615085565b60405180910390fd5b8060076000848152602001908152602001600020908051906020019061340e929190613fca565b505050565b6000600660009054906101000a900473ffffffffffffffffffffffffffffffffffffffff16905081600660006101000a81548173ffffffffffffffffffffffffffffffffffffffff021916908373ffffffffffffffffffffffffffffffffffffffff1602179055508173ffffffffffffffffffffffffffffffffffffffff168173ffffffffffffffffffffffffffffffffffffffff167f8be0079c531659141344cd1fd0a4f28419497f9722a3daafe3b4186f6b6457e060405160405180910390a35050565b8173ffffffffffffffffffffffffffffffffffffffff168373ffffffffffffffffffffffffffffffffffffffff161415613548576040517f08c379a000000000000000000000000000000000000000000000000000000000815260040161353f90614fa5565b60405180910390fd5b80600560008573ffffffffffffffffffffffffffffffffffffffff1673ffffffffffffffffffffffffffffffffffffffff16815260200190815260200160002060008473ffffffffffffffffffffffffffffffffffffffff1673ffffffffffffffffffffffffffffffffffffffff16815260200190815260200160002060006101000a81548160ff0219169083151502179055508173ffffffffffffffffffffffffffffffffffffffff168373ffffffffffffffffffffffffffffffffffffffff167f17307eab39ab6107e8899845ad3d59bd9653f200f220920489ca2b5937696c31836040516136399190614e08565b60405180910390a3505050565b613657613651613080565b836137fa565b613696576040517f08c379a000000000000000000000000000000000000000000000000000000000815260040161368d906151e5565b60405180910390fd5b6136a284848484613b49565b50505050565b60606136b382613014565b6136f2576040517f08c379a00000000000000000000000000000000000000000000000000000000081526004016136e990615125565b60405180910390fd5b6000600760008481526020019081526020016000208054613712906155bf565b80601f016020809104026020016040519081016040528092919081815260200182805461373e906155bf565b801561378b5780601f106137605761010080835404028352916020019161378b565b820191906000526020600020905b81548152906001019060200180831161376e57829003601f168201915b50505050509050600061379c613ba5565b90506000815114156137b25781925050506137f5565b6000825111156137e75780826040516020016137cf929190614c76565b604051602081830303815290604052925050506137f5565b6137f084613bbc565b925050505b919050565b600061380582613014565b613844576040517f08c379a000000000000000000000000000000000000000000000000000000000815260040161383b90614fe5565b60405180910390fd5b600061384f836119cf565b90508073ffffffffffffffffffffffffffffffffffffffff168473ffffffffffffffffffffffffffffffffffffffff1614806138be57508373ffffffffffffffffffffffffffffffffffffffff166138a68461099e565b73ffffffffffffffffffffffffffffffffffffffff16145b806138cf57506138ce8185612848565b5b91505092915050565b8273ffffffffffffffffffffffffffffffffffffffff166138f8826119cf565b73ffffffffffffffffffffffffffffffffffffffff161461394e576040517f08c379a000000000000000000000000000000000000000000000000000000000815260040161394590614f25565b60405180910390fd5b600073ffffffffffffffffffffffffffffffffffffffff168273ffffffffffffffffffffffffffffffffffffffff1614156139be576040517f08c379a00000000000000000000000000000000000000000000000000000000081526004016139b590614f85565b60405180910390fd5b6139c9838383613b3f565b6139d4600082613088565b6001600360008573ffffffffffffffffffffffffffffffffffffffff1673ffffffffffffffffffffffffffffffffffffffff1681526020019081526020016000206000828254613a24919061548b565b925050819055506001600360008473ffffffffffffffffffffffffffffffffffffffff1673ffffffffffffffffffffffffffffffffffffffff1681526020019081526020016000206000828254613a7b91906153aa565b92505081905550816002600083815260200190815260200160002060006101000a81548173ffffffffffffffffffffffffffffffffffffffff021916908373ffffffffffffffffffffffffffffffffffffffff160217905550808273ffffffffffffffffffffffffffffffffffffffff168473ffffffffffffffffffffffffffffffffffffffff167fddf252ad1be2c89b69c2b068fc378daa952ba7f163c4a11628f55a4df523b3ef60405160405180910390a4613b3a838383613b44565b505050565b505050565b505050565b613b548484846138d8565b613b6084848484613c63565b613b9f576040517f08c379a0000000000000000000000000000000000000000000000000000000008152600401613b9690614ec5565b60405180910390fd5b50505050565b606060405180602001604052806000815250905090565b6060613bc782613014565b613c06576040517f08c379a0000000000000000000000000000000000000000000000000000000008152600401613bfd90615185565b60405180910390fd5b6000613c10613ba5565b90506000815111613c305760405180602001604052806000815250613c5b565b80613c3a84613dfa565b604051602001613c4b929190614c76565b6040516020818303038152906040525b915050919050565b6000613c848473ffffffffffffffffffffffffffffffffffffffff16613fa7565b15613ded578373ffffffffffffffffffffffffffffffffffffffff1663150b7a02613cad613080565b8786866040518563ffffffff1660e01b8152600401613ccf9493929190614cb5565b602060405180830381600087803b158015613ce957600080fd5b505af1925050508015613d1a57506040513d601f19601f82011682018060405250810190613d179190614376565b60015b613d9d573d8060008114613d4a576040519150601f19603f3d011682016040523d82523d6000602084013e613d4f565b606091505b50600081511415613d95576040517f08c379a0000000000000000000000000000000000000000000000000000000008152600401613d8c90614ec5565b60405180910390fd5b805181602001fd5b63150b7a0260e01b7bffffffffffffffffffffffffffffffffffffffffffffffffffffffff1916817bffffffffffffffffffffffffffffffffffffffffffffffffffffffff191614915050613df2565b600190505b949350505050565b60606000821415613e42576040518060400160405280600181526020017f30000000000000000000000000000000000000000000000000000000000000008152509050613fa2565b600082905060005b60008214613e74578080613e5d90615622565b915050600a82613e6d9190615400565b9150613e4a565b60008167ffffffffffffffff811115613eb6577f4e487b7100000000000000000000000000000000000000000000000000000000600052604160045260246000fd5b6040519080825280601f01601f191660200182016040528015613ee85781602001600182028036833780820191505090505b5090505b60008514613f9b57600182613f01919061548b565b9150600a85613f10919061566b565b6030613f1c91906153aa565b60f81b818381518110613f58577f4e487b7100000000000000000000000000000000000000000000000000000000600052603260045260246000fd5b60200101907effffffffffffffffffffffffffffffffffffffffffffffffffffffffffffff1916908160001a905350600a85613f949190615400565b9450613eec565b8093505050505b919050565b6000808273ffffffffffffffffffffffffffffffffffffffff163b119050919050565b828054613fd6906155bf565b90600052602060002090601f016020900481019282613ff8576000855561403f565b82601f1061401157805160ff191683800117855561403f565b8280016001018555821561403f579182015b8281111561403e578251825591602001919060010190614023565b5b50905061404c9190614050565b5090565b5b80821115614069576000816000905550600101614051565b5090565b600061408061407b846152e5565b6152c0565b90508281526020810184848401111561409857600080fd5b6140a384828561557d565b509392505050565b60006140be6140b984615316565b6152c0565b9050828152602081018484840111156140d657600080fd5b6140e184828561557d565b509392505050565b6000813590506140f881615f95565b92915050565b60008135905061410d81615fac565b92915050565b60008135905061412281615fc3565b92915050565b60008151905061413781615fc3565b92915050565b600082601f83011261414e57600080fd5b813561415e84826020860161406d565b91505092915050565b600082601f83011261417857600080fd5b81356141888482602086016140ab565b91505092915050565b6000813590506141a081615fda565b92915050565b6000602082840312156141b857600080fd5b60006141c6848285016140e9565b91505092915050565b600080604083850312156141e257600080fd5b60006141f0858286016140e9565b9250506020614201858286016140e9565b9150509250929050565b60008060006060848603121561422057600080fd5b600061422e868287016140e9565b935050602061423f868287016140e9565b925050604061425086828701614191565b9150509250925092565b6000806000806080858703121561427057600080fd5b600061427e878288016140e9565b945050602061428f878288016140e9565b93505060406142a087828801614191565b925050606085013567ffffffffffffffff8111156142bd57600080fd5b6142c98782880161413d565b91505092959194509250565b600080604083850312156142e857600080fd5b60006142f6858286016140e9565b9250506020614307858286016140fe565b9150509250929050565b6000806040838503121561432457600080fd5b6000614332858286016140e9565b925050602061434385828601614191565b9150509250929050565b60006020828403121561435f57600080fd5b600061436d84828501614113565b91505092915050565b60006020828403121561438857600080fd5b600061439684828501614128565b91505092915050565b6000602082840312156143b157600080fd5b600082013567ffffffffffffffff8111156143cb57600080fd5b6143d784828501614167565b91505092915050565b600080604083850312156143f357600080fd5b600083013567ffffffffffffffff81111561440d57600080fd5b61441985828601614167565b925050602061442a858286016140e9565b9150509250929050565b60008060006060848603121561444957600080fd5b600084013567ffffffffffffffff81111561446357600080fd5b61446f86828701614167565b935050602084013567ffffffffffffffff81111561448c57600080fd5b61449886828701614167565b92505060406144a986828701614191565b9150509250925092565b600080604083850312156144c657600080fd5b600083013567ffffffffffffffff8111156144e057600080fd5b6144ec85828601614167565b92505060206144fd85828601614191565b9150509250929050565b60008060006060848603121561451c57600080fd5b600084013567ffffffffffffffff81111561453657600080fd5b61454286828701614167565b935050602061455386828701614191565b925050604061456486828701614191565b9150509250925092565b6000806000806080858703121561458457600080fd5b600085013567ffffffffffffffff81111561459e57600080fd5b6145aa87828801614167565b94505060206145bb87828801614191565b93505060406145cc87828801614191565b92505060606145dd87828801614191565b91505092959194509250565b6000602082840312156145fb57600080fd5b600061460984828501614191565b91505092915050565b61461b816154bf565b82525050565b61462a816154d1565b82525050565b600061463b8261535c565b6146458185615372565b935061465581856020860161558c565b61465e81615787565b840191505092915050565b60008154614676816155bf565b6146808186615383565b9450600182166000811461469b57600181146146ac576146df565b60ff198316865281860193506146df565b6146b585615347565b60005b838110156146d7578154818901526001820191506020810190506146b8565b838801955050505b50505092915050565b6146f181615559565b82525050565b6147008161556b565b82525050565b600061471182615367565b61471b818561538e565b935061472b81856020860161558c565b61473481615787565b840191505092915050565b600061474a82615367565b614754818561539f565b935061476481856020860161558c565b80840191505092915050565b600061477d60018361538e565b915061478882615798565b602082019050919050565b60006147a060228361538e565b91506147ab826157c1565b604082019050919050565b60006147c360028361538e565b91506147ce82615810565b602082019050919050565b60006147e660028361538e565b91506147f182615839565b602082019050919050565b600061480960328361538e565b915061481482615862565b604082019050919050565b600061482c60268361538e565b9150614837826158b1565b604082019050919050565b600061484f60028361538e565b915061485a82615900565b602082019050919050565b600061487260258361538e565b915061487d82615929565b604082019050919050565b6000614895601c8361538e565b91506148a082615978565b602082019050919050565b60006148b860018361538e565b91506148c3826159a1565b602082019050919050565b60006148db60248361538e565b91506148e6826159ca565b604082019050919050565b60006148fe60198361538e565b915061490982615a19565b602082019050919050565b600061492160018361538e565b915061492c82615a42565b602082019050919050565b6000614944602c8361538e565b915061494f82615a6b565b604082019050919050565b600061496760028361538e565b915061497282615aba565b602082019050919050565b600061498a60388361538e565b915061499582615ae3565b604082019050919050565b60006149ad602a8361538e565b91506149b882615b32565b604082019050919050565b60006149d060298361538e565b91506149db82615b81565b604082019050919050565b60006149f3602e8361538e565b91506149fe82615bd0565b604082019050919050565b6000614a1660028361538e565b9150614a2182615c1f565b602082019050919050565b6000614a3960028361538e565b9150614a4482615c48565b602082019050919050565b6000614a5c60028361538e565b9150614a6782615c71565b602082019050919050565b6000614a7f60208361538e565b9150614a8a82615c9a565b602082019050919050565b6000614aa260318361538e565b9150614aad82615cc3565b604082019050919050565b6000614ac5602c8361538e565b9150614ad082615d12565b604082019050919050565b6000614ae860208361538e565b9150614af382615d61565b602082019050919050565b6000614b0b602f8361538e565b9150614b1682615d8a565b604082019050919050565b6000614b2e60018361538e565b9150614b3982615dd9565b602082019050919050565b6000614b5160218361538e565b9150614b5c82615e02565b604082019050919050565b6000614b7460318361538e565b9150614b7f82615e51565b604082019050919050565b6000614b9760018361538e565b9150614ba282615ea0565b602082019050919050565b6000614bba60018361538e565b9150614bc582615ec9565b602082019050919050565b6000614bdd60018361538e565b9150614be882615ef2565b602082019050919050565b6000614c0060018361538e565b9150614c0b82615f1b565b602082019050919050565b6000614c2360018361538e565b9150614c2e82615f44565b602082019050919050565b614c428161554f565b82525050565b6000614c548284614669565b915081905092915050565b6000614c6b828461473f565b915081905092915050565b6000614c82828561473f565b9150614c8e828461473f565b91508190509392505050565b6000602082019050614caf6000830184614612565b92915050565b6000608082019050614cca6000830187614612565b614cd76020830186614612565b614ce46040830185614c39565b8181036060830152614cf68184614630565b905095945050505050565b600060c082019050614d166000830189614612565b8181036020830152614d288188614706565b90508181036040830152614d3c8187614706565b9050614d4b6060830186614c39565b614d5860808301856146e8565b614d6560a0830184614c39565b979650505050505050565b600060c082019050614d856000830189614612565b614d926020830188614c39565b614d9f60408301876146f7565b614dac6060830186614c39565b614db96080830185614c39565b614dc660a0830184614c39565b979650505050505050565b6000606082019050614de66000830186614612565b614df36020830185614c39565b614e006040830184614c39565b949350505050565b6000602082019050614e1d6000830184614621565b92915050565b60006020820190508181036000830152614e3d8184614706565b905092915050565b60006020820190508181036000830152614e5e81614770565b9050919050565b60006020820190508181036000830152614e7e81614793565b9050919050565b60006020820190508181036000830152614e9e816147b6565b9050919050565b60006020820190508181036000830152614ebe816147d9565b9050919050565b60006020820190508181036000830152614ede816147fc565b9050919050565b60006020820190508181036000830152614efe8161481f565b9050919050565b60006020820190508181036000830152614f1e81614842565b9050919050565b60006020820190508181036000830152614f3e81614865565b9050919050565b60006020820190508181036000830152614f5e81614888565b9050919050565b60006020820190508181036000830152614f7e816148ab565b9050919050565b60006020820190508181036000830152614f9e816148ce565b9050919050565b60006020820190508181036000830152614fbe816148f1565b9050919050565b60006020820190508181036000830152614fde81614914565b9050919050565b60006020820190508181036000830152614ffe81614937565b9050919050565b6000602082019050818103600083015261501e8161495a565b9050919050565b6000602082019050818103600083015261503e8161497d565b9050919050565b6000602082019050818103600083015261505e816149a0565b9050919050565b6000602082019050818103600083015261507e816149c3565b9050919050565b6000602082019050818103600083015261509e816149e6565b9050919050565b600060208201905081810360008301526150be81614a09565b9050919050565b600060208201905081810360008301526150de81614a2c565b9050919050565b600060208201905081810360008301526150fe81614a4f565b9050919050565b6000602082019050818103600083015261511e81614a72565b9050919050565b6000602082019050818103600083015261513e81614a95565b9050919050565b6000602082019050818103600083015261515e81614ab8565b9050919050565b6000602082019050818103600083015261517e81614adb565b9050919050565b6000602082019050818103600083015261519e81614afe565b9050919050565b600060208201905081810360008301526151be81614b21565b9050919050565b600060208201905081810360008301526151de81614b44565b9050919050565b600060208201905081810360008301526151fe81614b67565b9050919050565b6000602082019050818103600083015261521e81614b8a565b9050919050565b6000602082019050818103600083015261523e81614bad565b9050919050565b6000602082019050818103600083015261525e81614bd0565b9050919050565b6000602082019050818103600083015261527e81614bf3565b9050919050565b6000602082019050818103600083015261529e81614c16565b9050919050565b60006020820190506152ba6000830184614c39565b92915050565b60006152ca6152db565b90506152d682826155f1565b919050565b6000604051905090565b600067ffffffffffffffff821115615300576152ff615758565b5b61530982615787565b9050602081019050919050565b600067ffffffffffffffff82111561533157615330615758565b5b61533a82615787565b9050602081019050919050565b60008190508160005260206000209050919050565b600081519050919050565b600081519050919050565b600082825260208201905092915050565b600081905092915050565b600082825260208201905092915050565b600081905092915050565b60006153b58261554f565b91506153c08361554f565b9250827fffffffffffffffffffffffffffffffffffffffffffffffffffffffffffffffff038211156153f5576153f461569c565b5b828201905092915050565b600061540b8261554f565b91506154168361554f565b925082615426576154256156cb565b5b828204905092915050565b600061543c8261554f565b91506154478361554f565b9250817fffffffffffffffffffffffffffffffffffffffffffffffffffffffffffffffff04831182151516156154805761547f61569c565b5b828202905092915050565b60006154968261554f565b91506154a18361554f565b9250828210156154b4576154b361569c565b5b828203905092915050565b60006154ca8261552f565b9050919050565b60008115159050919050565b60007fffffffff0000000000000000000000000000000000000000000000000000000082169050919050565b600081905061551782615f6d565b919050565b600081905061552a82615f81565b919050565b600073ffffffffffffffffffffffffffffffffffffffff82169050919050565b6000819050919050565b600061556482615509565b9050919050565b60006155768261551c565b9050919050565b82818337600083830152505050565b60005b838110156155aa57808201518184015260208101905061558f565b838111156155b9576000848401525b50505050565b600060028204905060018216806155d757607f821691505b602082108114156155eb576155ea615729565b5b50919050565b6155fa82615787565b810181811067ffffffffffffffff8211171561561957615618615758565b5b80604052505050565b600061562d8261554f565b91507fffffffffffffffffffffffffffffffffffffffffffffffffffffffffffffffff8214156156605761565f61569c565b5b600182019050919050565b60006156768261554f565b91506156818361554f565b925082615691576156906156cb565b5b828206905092915050565b7f4e487b7100000000000000000000000000000000000000000000000000000000600052601160045260246000fd5b7f4e487b7100000000000000000000000000000000000000000000000000000000600052601260045260246000fd5b7f4e487b7100000000000000000000000000000000000000000000000000000000600052602160045260246000fd5b7f4e487b7100000000000000000000000000000000000000000000000000000000600052602260045260246000fd5b7f4e487b7100000000000000000000000000000000000000000000000000000000600052604160045260246000fd5b6000601f19601f8301169050919050565b7f3400000000000000000000000000000000000000000000000000000000000000600082015250565b7f53746172742074696d65206d757374206265206265666f726520656e6420746960008201527f6d65000000000000000000000000000000000000000000000000000000000000602082015250565b7f3130000000000000000000000000000000000000000000000000000000000000600082015250565b7f3135000000000000000000000000000000000000000000000000000000000000600082015250565b7f4552433732313a207472616e7366657220746f206e6f6e20455243373231526560008201527f63656976657220696d706c656d656e7465720000000000000000000000000000602082015250565b7f4f776e61626c653a206e6577206f776e657220697320746865207a65726f206160008201527f6464726573730000000000000000000000000000000000000000000000000000602082015250565b7f3136000000000000000000000000000000000000000000000000000000000000600082015250565b7f4552433732313a207472616e736665722066726f6d20696e636f72726563742060008201527f6f776e6572000000000000000000000000000000000000000000000000000000602082015250565b7f4552433732313a20746f6b656e20616c7265616479206d696e74656400000000600082015250565b7f3300000000000000000000000000000000000000000000000000000000000000600082015250565b7f4552433732313a207472616e7366657220746f20746865207a65726f2061646460008201527f7265737300000000000000000000000000000000000000000000000000000000602082015250565b7f4552433732313a20617070726f766520746f2063616c6c657200000000000000600082015250565b7f3700000000000000000000000000000000000000000000000000000000000000600082015250565b7f4552433732313a206f70657261746f7220717565727920666f72206e6f6e657860008201527f697374656e7420746f6b656e0000000000000000000000000000000000000000602082015250565b7f3134000000000000000000000000000000000000000000000000000000000000600082015250565b7f4552433732313a20617070726f76652063616c6c6572206973206e6f74206f7760008201527f6e6572206e6f7220617070726f76656420666f7220616c6c0000000000000000602082015250565b7f4552433732313a2062616c616e636520717565727920666f7220746865207a6560008201527f726f206164647265737300000000000000000000000000000000000000000000602082015250565b7f4552433732313a206f776e657220717565727920666f72206e6f6e657869737460008201527f656e7420746f6b656e0000000000000000000000000000000000000000000000602082015250565b7f45524337323155524953746f726167653a2055524920736574206f66206e6f6e60008201527f6578697374656e7420746f6b656e000000000000000000000000000000000000602082015250565b7f3131000000000000000000000000000000000000000000000000000000000000600082015250565b7f3133000000000000000000000000000000000000000000000000000000000000600082015250565b7f3132000000000000000000000000000000000000000000000000000000000000600082015250565b7f4552433732313a206d696e7420746f20746865207a65726f2061646472657373600082015250565b7f45524337323155524953746f726167653a2055524920717565727920666f722060008201527f6e6f6e6578697374656e7420746f6b656e000000000000000000000000000000602082015250565b7f4552433732313a20617070726f76656420717565727920666f72206e6f6e657860008201527f697374656e7420746f6b656e0000000000000000000000000000000000000000602082015250565b7f4f776e61626c653a2063616c6c6572206973206e6f7420746865206f776e6572600082015250565b7f4552433732314d657461646174613a2055524920717565727920666f72206e6f60008201527f6e6578697374656e7420746f6b656e0000000000000000000000000000000000602082015250565b7f3200000000000000000000000000000000000000000000000000000000000000600082015250565b7f4552433732313a20617070726f76616c20746f2063757272656e74206f776e6560008201527f7200000000000000000000000000000000000000000000000000000000000000602082015250565b7f4552433732313a207472616e736665722063616c6c6572206973206e6f74206f60008201527f776e6572206e6f7220617070726f766564000000000000000000000000000000602082015250565b7f3100000000000000000000000000000000000000000000000000000000000000600082015250565b7f3500000000000000000000000000000000000000000000000000000000000000600082015250565b7f3900000000000000000000000000000000000000000000000000000000000000600082015250565b7f3600000000000000000000000000000000000000000000000000000000000000600082015250565b7f3800000000000000000000000000000000000000000000000000000000000000600082015250565b60048110615f7e57615f7d6156fa565b5b50565b60048110615f9257615f916156fa565b5b50565b615f9e816154bf565b8114615fa957600080fd5b50565b615fb5816154d1565b8114615fc057600080fd5b50565b615fcc816154dd565b8114615fd757600080fd5b50565b615fe38161554f565b8114615fee57600080fd5b5056fea264697066735822122082ba2046b8dddc124de1db3250f7b6d7bd798e49757b5f2340056a1fc323d31364736f6c63430008040033",
  "linkReferences": {},
  "deployedLinkReferences": {}
}