{
  "_format": "hh-sol-artifact-1",
  "contractName": "DbAudio",
  "sourceName": "contracts/DbAudio.sol",
  "abi": [
    {
      "inputs": [],
      "stateMutability": "nonpayable",
      "type": "constructor"
    },
    {
      "anonymous": false,
      "inputs": [
        {
          "indexed": true,
          "internalType": "address",
          "name": "owner",
          "type": "address"
        },
        {
          "indexed": true,
          "internalType": "address",
          "name": "approved",
          "type": "address"
        },
        {
          "indexed": true,
          "internalType": "uint256",
          "name": "tokenId",
          "type": "uint256"
        }
      ],
      "name": "Approval",
      "type": "event"
    },
    {
      "anonymous": false,
      "inputs": [
        {
          "indexed": true,
          "internalType": "address",
          "name": "owner",
          "type": "address"
        },
        {
          "indexed": true,
          "internalType": "address",
          "name": "operator",
          "type": "address"
        },
        {
          "indexed": false,
          "internalType": "bool",
          "name": "approved",
          "type": "bool"
        }
      ],
      "name": "ApprovalForAll",
      "type": "event"
    },
    {
      "anonymous": false,
      "inputs": [
        {
          "indexed": false,
          "internalType": "string",
          "name": "uri",
          "type": "string"
        },
        {
          "indexed": false,
          "internalType": "uint256",
          "name": "startPrice",
          "type": "uint256"
        },
        {
          "indexed": false,
          "internalType": "uint256",
          "name": "startTime",
          "type": "uint256"
        },
        {
          "indexed": false,
          "internalType": "uint256",
          "name": "endTime",
          "type": "uint256"
        }
      ],
      "name": "BidEvent",
      "type": "event"
    },
    {
      "anonymous": false,
      "inputs": [
        {
          "indexed": false,
          "internalType": "string",
          "name": "uri",
          "type": "string"
        },
        {
          "indexed": false,
          "internalType": "uint256",
          "name": "index",
          "type": "uint256"
        }
      ],
      "name": "CreateNFT",
      "type": "event"
    },
    {
      "anonymous": false,
      "inputs": [
        {
          "indexed": true,
          "internalType": "address",
          "name": "previousOwner",
          "type": "address"
        },
        {
          "indexed": true,
          "internalType": "address",
          "name": "newOwner",
          "type": "address"
        }
      ],
      "name": "OwnershipTransferred",
      "type": "event"
    },
    {
      "anonymous": false,
      "inputs": [
        {
          "indexed": false,
          "internalType": "string",
          "name": "uri",
          "type": "string"
        },
        {
          "indexed": false,
          "internalType": "address",
          "name": "oldowner",
          "type": "address"
        },
        {
          "indexed": false,
          "internalType": "address",
          "name": "newowner",
          "type": "address"
        },
        {
          "indexed": false,
          "internalType": "uint256",
          "name": "price",
          "type": "uint256"
        }
      ],
      "name": "SettleBidding",
      "type": "event"
    },
    {
      "anonymous": false,
      "inputs": [
        {
          "indexed": true,
          "internalType": "address",
          "name": "from",
          "type": "address"
        },
        {
          "indexed": true,
          "internalType": "address",
          "name": "to",
          "type": "address"
        },
        {
          "indexed": true,
          "internalType": "uint256",
          "name": "tokenId",
          "type": "uint256"
        }
      ],
      "name": "Transfer",
      "type": "event"
    },
    {
      "inputs": [
        {
          "internalType": "address",
          "name": "to",
          "type": "address"
        },
        {
          "internalType": "uint256",
          "name": "tokenId",
          "type": "uint256"
        }
      ],
      "name": "approve",
      "outputs": [],
      "stateMutability": "nonpayable",
      "type": "function"
    },
    {
      "inputs": [
        {
          "internalType": "address",
          "name": "owner",
          "type": "address"
        }
      ],
      "name": "balanceOf",
      "outputs": [
        {
          "internalType": "uint256",
          "name": "",
          "type": "uint256"
        }
      ],
      "stateMutability": "view",
      "type": "function"
    },
    {
      "inputs": [
        {
          "internalType": "string",
          "name": "uri",
          "type": "string"
        },
        {
          "internalType": "uint256",
          "name": "_amount",
          "type": "uint256"
        }
      ],
      "name": "bid",
      "outputs": [],
      "stateMutability": "payable",
      "type": "function"
    },
    {
      "inputs": [
        {
          "internalType": "string",
          "name": "uri",
          "type": "string"
        },
        {
          "internalType": "uint256",
          "name": "startPrice",
          "type": "uint256"
        },
        {
          "internalType": "uint256",
          "name": "startTime",
          "type": "uint256"
        },
        {
          "internalType": "uint256",
          "name": "endTime",
          "type": "uint256"
        }
      ],
      "name": "createBidding",
      "outputs": [],
      "stateMutability": "payable",
      "type": "function"
    },
    {
      "inputs": [
        {
          "internalType": "string",
          "name": "uri",
          "type": "string"
        },
        {
          "internalType": "string",
          "name": "name",
          "type": "string"
        },
        {
          "internalType": "uint256",
          "name": "price",
          "type": "uint256"
        }
      ],
      "name": "createNFT",
      "outputs": [
        {
          "internalType": "uint256",
          "name": "",
          "type": "uint256"
        }
      ],
      "stateMutability": "nonpayable",
      "type": "function"
    },
    {
      "inputs": [],
      "name": "dbToken",
      "outputs": [
        {
          "internalType": "contract IERC20",
          "name": "",
          "type": "address"
        }
      ],
      "stateMutability": "view",
      "type": "function"
    },
    {
      "inputs": [
        {
          "internalType": "uint256",
          "name": "tokenId",
          "type": "uint256"
        }
      ],
      "name": "getApproved",
      "outputs": [
        {
          "internalType": "address",
          "name": "",
          "type": "address"
        }
      ],
      "stateMutability": "view",
      "type": "function"
    },
    {
      "inputs": [
        {
          "internalType": "uint256",
          "name": "",
          "type": "uint256"
        }
      ],
      "name": "indexOfToken",
      "outputs": [
        {
          "internalType": "uint256",
          "name": "",
          "type": "uint256"
        }
      ],
      "stateMutability": "view",
      "type": "function"
    },
    {
      "inputs": [
        {
          "internalType": "address",
          "name": "owner",
          "type": "address"
        },
        {
          "internalType": "address",
          "name": "operator",
          "type": "address"
        }
      ],
      "name": "isApprovedForAll",
      "outputs": [
        {
          "internalType": "bool",
          "name": "",
          "type": "bool"
        }
      ],
      "stateMutability": "view",
      "type": "function"
    },
    {
      "inputs": [
        {
          "internalType": "string",
          "name": "",
          "type": "string"
        }
      ],
      "name": "listNFT",
      "outputs": [
        {
          "internalType": "address",
          "name": "owner",
          "type": "address"
        },
        {
          "internalType": "string",
          "name": "url",
          "type": "string"
        },
        {
          "internalType": "string",
          "name": "name",
          "type": "string"
        },
        {
          "internalType": "uint256",
          "name": "price",
          "type": "uint256"
        },
        {
          "internalType": "enum DbAudio.AudioStatus",
          "name": "status",
          "type": "uint8"
        },
        {
          "internalType": "uint256",
          "name": "currentBidding",
          "type": "uint256"
        }
      ],
      "stateMutability": "view",
      "type": "function"
    },
    {
      "inputs": [
        {
          "internalType": "address",
          "name": "",
          "type": "address"
        },
        {
          "internalType": "uint256",
          "name": "",
          "type": "uint256"
        }
      ],
      "name": "listOwnToken",
      "outputs": [
        {
          "internalType": "uint256",
          "name": "",
          "type": "uint256"
        }
      ],
      "stateMutability": "view",
      "type": "function"
    },
    {
      "inputs": [],
      "name": "name",
      "outputs": [
        {
          "internalType": "string",
          "name": "",
          "type": "string"
        }
      ],
      "stateMutability": "view",
      "type": "function"
    },
    {
      "inputs": [],
      "name": "owner",
      "outputs": [
        {
          "internalType": "address",
          "name": "",
          "type": "address"
        }
      ],
      "stateMutability": "view",
      "type": "function"
    },
    {
      "inputs": [
        {
          "internalType": "uint256",
          "name": "tokenId",
          "type": "uint256"
        }
      ],
      "name": "ownerOf",
      "outputs": [
        {
          "internalType": "address",
          "name": "",
          "type": "address"
        }
      ],
      "stateMutability": "view",
      "type": "function"
    },
    {
      "inputs": [],
      "name": "renounceOwnership",
      "outputs": [],
      "stateMutability": "nonpayable",
      "type": "function"
    },
    {
      "inputs": [
        {
          "internalType": "address",
          "name": "from",
          "type": "address"
        },
        {
          "internalType": "address",
          "name": "to",
          "type": "address"
        },
        {
          "internalType": "uint256",
          "name": "tokenId",
          "type": "uint256"
        }
      ],
      "name": "safeTransferFrom",
      "outputs": [],
      "stateMutability": "nonpayable",
      "type": "function"
    },
    {
      "inputs": [
        {
          "internalType": "address",
          "name": "from",
          "type": "address"
        },
        {
          "internalType": "address",
          "name": "to",
          "type": "address"
        },
        {
          "internalType": "uint256",
          "name": "tokenId",
          "type": "uint256"
        },
        {
          "internalType": "bytes",
          "name": "_data",
          "type": "bytes"
        }
      ],
      "name": "safeTransferFrom",
      "outputs": [],
      "stateMutability": "nonpayable",
      "type": "function"
    },
    {
      "inputs": [
        {
          "internalType": "address",
          "name": "operator",
          "type": "address"
        },
        {
          "internalType": "bool",
          "name": "approved",
          "type": "bool"
        }
      ],
      "name": "setApprovalForAll",
      "outputs": [],
      "stateMutability": "nonpayable",
      "type": "function"
    },
    {
      "inputs": [
        {
          "internalType": "uint256",
          "name": "share",
          "type": "uint256"
        }
      ],
      "name": "setSharePercent",
      "outputs": [],
      "stateMutability": "nonpayable",
      "type": "function"
    },
    {
      "inputs": [
        {
          "internalType": "string",
          "name": "uri",
          "type": "string"
        }
      ],
      "name": "settleBiddingSession",
      "outputs": [],
      "stateMutability": "payable",
      "type": "function"
    },
    {
      "inputs": [],
      "name": "sharePercent",
      "outputs": [
        {
          "internalType": "uint256",
          "name": "",
          "type": "uint256"
        }
      ],
      "stateMutability": "view",
      "type": "function"
    },
    {
      "inputs": [
        {
          "internalType": "bytes4",
          "name": "interfaceId",
          "type": "bytes4"
        }
      ],
      "name": "supportsInterface",
      "outputs": [
        {
          "internalType": "bool",
          "name": "",
          "type": "bool"
        }
      ],
      "stateMutability": "view",
      "type": "function"
    },
    {
      "inputs": [],
      "name": "symbol",
      "outputs": [
        {
          "internalType": "string",
          "name": "",
          "type": "string"
        }
      ],
      "stateMutability": "view",
      "type": "function"
    },
    {
      "inputs": [
        {
          "internalType": "string",
          "name": "",
          "type": "string"
        }
      ],
      "name": "tokenIdMapping",
      "outputs": [
        {
          "internalType": "uint256",
          "name": "",
          "type": "uint256"
        }
      ],
      "stateMutability": "view",
      "type": "function"
    },
    {
      "inputs": [
        {
          "internalType": "uint256",
          "name": "tokenId",
          "type": "uint256"
        }
      ],
      "name": "tokenURI",
      "outputs": [
        {
          "internalType": "string",
          "name": "",
          "type": "string"
        }
      ],
      "stateMutability": "view",
      "type": "function"
    },
    {
      "inputs": [
        {
          "internalType": "address",
          "name": "from",
          "type": "address"
        },
        {
          "internalType": "address",
          "name": "to",
          "type": "address"
        },
        {
          "internalType": "uint256",
          "name": "tokenId",
          "type": "uint256"
        }
      ],
      "name": "transferFrom",
      "outputs": [],
      "stateMutability": "nonpayable",
      "type": "function"
    },
    {
      "inputs": [
        {
          "internalType": "string",
          "name": "uri",
          "type": "string"
        },
        {
          "internalType": "address",
          "name": "to",
          "type": "address"
        }
      ],
      "name": "transferNFT",
      "outputs": [],
      "stateMutability": "nonpayable",
      "type": "function"
    },
    {
      "inputs": [
        {
          "internalType": "address",
          "name": "newOwner",
          "type": "address"
        }
      ],
      "name": "transferOwnership",
      "outputs": [],
      "stateMutability": "nonpayable",
      "type": "function"
    },
    {
      "inputs": [
        {
          "internalType": "uint256",
          "name": "money",
          "type": "uint256"
        }
      ],
      "name": "withDrawAll",
      "outputs": [],
      "stateMutability": "nonpayable",
      "type": "function"
    }
  ],
  "bytecode": "0x60806040523480156200001157600080fd5b506040518060400160405280600981526020017f44656369626c696e6700000000000000000000000000000000000000000000008152506040518060400160405280600281526020017f444200000000000000000000000000000000000000000000000000000000000081525081600090805190602001906200009692919062000203565b508060019080519060200190620000af92919062000203565b505050620000d2620000c66200013560201b60201c565b6200013d60201b60201c565b6000600d8190555073aa8adb51329ba9640d86aa10b0f374d97a7b31d9600e60006101000a81548173ffffffffffffffffffffffffffffffffffffffff021916908373ffffffffffffffffffffffffffffffffffffffff16021790555062000318565b600033905090565b6000600660009054906101000a900473ffffffffffffffffffffffffffffffffffffffff16905081600660006101000a81548173ffffffffffffffffffffffffffffffffffffffff021916908373ffffffffffffffffffffffffffffffffffffffff1602179055508173ffffffffffffffffffffffffffffffffffffffff168173ffffffffffffffffffffffffffffffffffffffff167f8be0079c531659141344cd1fd0a4f28419497f9722a3daafe3b4186f6b6457e060405160405180910390a35050565b8280546200021190620002b3565b90600052602060002090601f01602090048101928262000235576000855562000281565b82601f106200025057805160ff191683800117855562000281565b8280016001018555821562000281579182015b828111156200028057825182559160200191906001019062000263565b5b50905062000290919062000294565b5090565b5b80821115620002af57600081600090555060010162000295565b5090565b60006002820490506001821680620002cc57607f821691505b60208210811415620002e357620002e2620002e9565b5b50919050565b7f4e487b7100000000000000000000000000000000000000000000000000000000600052602260045260246000fd5b615e6f80620003286000396000f3fe6080604052600436106101c25760003560e01c806370a08231116100f7578063b88eabdd11610095578063d8189e0511610064578063d8189e051461065f578063e985e9c51461069c578063f2fde38b146106d9578063ff41edbc14610702576101c2565b8063b88eabdd14610591578063c15edf5f146105ce578063c87b56dd146105f9578063cf023fdd14610636576101c2565b806395d89b41116100d157806395d89b41146104eb578063a22cb46514610516578063ab8a80201461053f578063b88d4fde14610568576101c2565b806370a082311461046c578063715018a6146104a95780638da5cb5b146104c0576101c2565b806342842e0e116101645780635f00baa71161013e5780635f00baa7146103ab5780635f483313146103d65780635ffd9d07146103f25780636352211e1461042f576101c2565b806342842e0e146103245780634387330e1461034d578063480058481461038f576101c2565b8063095ea7b3116101a0578063095ea7b31461026c57806323b872dd146102955780633241d34a146102be578063411e9ef2146102fb576101c2565b806301ffc9a7146101c757806306fdde0314610204578063081812fc1461022f575b600080fd5b3480156101d357600080fd5b506101ee60048036038101906101e9919061423e565b61071e565b6040516101fb9190614c14565b60405180910390f35b34801561021057600080fd5b50610219610800565b6040516102269190614c4a565b60405180910390f35b34801561023b57600080fd5b5061025660048036038101906102519190614473565b610892565b6040516102639190614ade565b60405180910390f35b34801561027857600080fd5b50610293600480360381019061028e91906141d9565b610917565b005b3480156102a157600080fd5b506102bc60048036038101906102b791906140d3565b610a2f565b005b3480156102ca57600080fd5b506102e560048036038101906102e09190614325565b610cfe565b6040516102f29190615154565b60405180910390f35b34801561030757600080fd5b50610322600480360381019061031d9190614473565b61106c565b005b34801561033057600080fd5b5061034b600480360381019061034691906140d3565b611143565b005b34801561035957600080fd5b50610374600480360381019061036f9190614290565b611163565b60405161038696959493929190614b7c565b60405180910390f35b6103a960048036038101906103a491906143f8565b6112f2565b005b3480156103b757600080fd5b506103c06117e8565b6040516103cd9190614c2f565b60405180910390f35b6103f060048036038101906103eb91906143a4565b61180e565b005b3480156103fe57600080fd5b5061041960048036038101906104149190614473565b611d91565b6040516104269190615154565b60405180910390f35b34801561043b57600080fd5b5061045660048036038101906104519190614473565b611da9565b6040516104639190614ade565b60405180910390f35b34801561047857600080fd5b50610493600480360381019061048e919061406e565b611e5b565b6040516104a09190615154565b60405180910390f35b3480156104b557600080fd5b506104be611f13565b005b3480156104cc57600080fd5b506104d5611f9b565b6040516104e29190614ade565b60405180910390f35b3480156104f757600080fd5b50610500611fc5565b60405161050d9190614c4a565b60405180910390f35b34801561052257600080fd5b5061053d6004803603810190610538919061419d565b612057565b005b34801561054b57600080fd5b5061056660048036038101906105619190614473565b61206d565b005b34801561057457600080fd5b5061058f600480360381019061058a9190614122565b612133565b005b34801561059d57600080fd5b506105b860048036038101906105b39190614290565b612404565b6040516105c59190615154565b60405180910390f35b3480156105da57600080fd5b506105e3612432565b6040516105f09190615154565b60405180910390f35b34801561060557600080fd5b50610620600480360381019061061b9190614473565b612438565b60405161062d9190614c4a565b60405180910390f35b34801561064257600080fd5b5061065d600480360381019061065891906142d1565b61244a565b005b34801561066b57600080fd5b50610686600480360381019061068191906141d9565b6125d0565b6040516106939190615154565b60405180910390f35b3480156106a857600080fd5b506106c360048036038101906106be9190614097565b612601565b6040516106d09190614c14565b60405180910390f35b3480156106e557600080fd5b5061070060048036038101906106fb919061406e565b612695565b005b61071c60048036038101906107179190614290565b61278d565b005b60007f80ac58cd000000000000000000000000000000000000000000000000000000007bffffffffffffffffffffffffffffffffffffffffffffffffffffffff1916827bffffffffffffffffffffffffffffffffffffffffffffffffffffffff191614806107e957507f5b5e139f000000000000000000000000000000000000000000000000000000007bffffffffffffffffffffffffffffffffffffffffffffffffffffffff1916827bffffffffffffffffffffffffffffffffffffffffffffffffffffffff1916145b806107f957506107f882612e5d565b5b9050919050565b60606000805461080f9061546d565b80601f016020809104026020016040519081016040528092919081815260200182805461083b9061546d565b80156108885780601f1061085d57610100808354040283529160200191610888565b820191906000526020600020905b81548152906001019060200180831161086b57829003601f168201915b5050505050905090565b600061089d82612ec7565b6108dc576040517f08c379a00000000000000000000000000000000000000000000000000000000081526004016108d390615014565b60405180910390fd5b6004600083815260200190815260200160002060009054906101000a900473ffffffffffffffffffffffffffffffffffffffff169050919050565b600061092282611da9565b90508073ffffffffffffffffffffffffffffffffffffffff168373ffffffffffffffffffffffffffffffffffffffff161415610993576040517f08c379a000000000000000000000000000000000000000000000000000000000815260040161098a90615094565b60405180910390fd5b8073ffffffffffffffffffffffffffffffffffffffff166109b2612f33565b73ffffffffffffffffffffffffffffffffffffffff1614806109e157506109e0816109db612f33565b612601565b5b610a20576040517f08c379a0000000000000000000000000000000000000000000000000000000008152600401610a1790614ef4565b60405180910390fd5b610a2a8383612f3b565b505050565b600b60008373ffffffffffffffffffffffffffffffffffffffff1673ffffffffffffffffffffffffffffffffffffffff168152602001908152602001600020819080600181540180825580915050600190039060005260206000200160009091909190915055600b60008473ffffffffffffffffffffffffffffffffffffffff1673ffffffffffffffffffffffffffffffffffffffff1681526020019081526020016000206001600b60008673ffffffffffffffffffffffffffffffffffffffff1673ffffffffffffffffffffffffffffffffffffffff16815260200190815260200160002080549050610b23919061533a565b81548110610b5a577f4e487b7100000000000000000000000000000000000000000000000000000000600052603260045260246000fd5b9060005260206000200154600b60008573ffffffffffffffffffffffffffffffffffffffff1673ffffffffffffffffffffffffffffffffffffffff168152602001908152602001600020600c60008481526020019081526020016000205481548110610bef577f4e487b7100000000000000000000000000000000000000000000000000000000600052603260045260246000fd5b9060005260206000200181905550600b60008473ffffffffffffffffffffffffffffffffffffffff1673ffffffffffffffffffffffffffffffffffffffff168152602001908152602001600020805480610c72577f4e487b7100000000000000000000000000000000000000000000000000000000600052603160045260246000fd5b600190038181906000526020600020016000905590556001600b60008473ffffffffffffffffffffffffffffffffffffffff1673ffffffffffffffffffffffffffffffffffffffff16815260200190815260200160002080549050610cd7919061533a565b600c600083815260200190815260200160002081905550610cf9838383612ff4565b505050565b600080600985604051610d119190614aa3565b90815260200160405180910390209050848051906020012081600101604051610d3a9190614a8c565b60405180910390201415610d83576040517f08c379a0000000000000000000000000000000000000000000000000000000008152600401610d7a90615074565b60405180910390fd5b610d8d6008613054565b33600986604051610d9e9190614aa3565b908152602001604051809103902060000160006101000a81548173ffffffffffffffffffffffffffffffffffffffff021916908373ffffffffffffffffffffffffffffffffffffffff16021790555084600986604051610dfe9190614aa3565b90815260200160405180910390206001019080519060200190610e22929190613e7d565b5083600986604051610e349190614aa3565b90815260200160405180910390206002019080519060200190610e58929190613e7d565b5082600986604051610e6a9190614aa3565b9081526020016040518091039020600301819055506000600986604051610e919190614aa3565b908152602001604051809103902060040160006101000a81548160ff02191690836003811115610eea577f4e487b7100000000000000000000000000000000000000000000000000000000600052602160045260246000fd5b02179055506000600986604051610f019190614aa3565b9081526020016040518091039020600601819055506000610f22600861306a565b9050610f2e3382613078565b610f388187613252565b80600a87604051610f499190614aa3565b908152602001604051809103902081905550600b60003373ffffffffffffffffffffffffffffffffffffffff1673ffffffffffffffffffffffffffffffffffffffff1681526020019081526020016000208190806001815401808255809150506001900390600052602060002001600090919091909150556001600b60003373ffffffffffffffffffffffffffffffffffffffff1673ffffffffffffffffffffffffffffffffffffffff16815260200190815260200160002080549050611010919061533a565b600c6000838152602001908152602001600020819055507f59e3e0f1aabce96b386d212c7c9563c597464cb2f714aa8cf022346ea95cfbc68682604051611058929190614cb8565b60405180910390a180925050509392505050565b611074612f33565b73ffffffffffffffffffffffffffffffffffffffff16611092611f9b565b73ffffffffffffffffffffffffffffffffffffffff16146110e8576040517f08c379a00000000000000000000000000000000000000000000000000000000081526004016110df90615034565b60405180910390fd5b600081101580156110fa575060648111155b611139576040517f08c379a0000000000000000000000000000000000000000000000000000000008152600401611130906150d4565b60405180910390fd5b80600d8190555050565b61115e83838360405180602001604052806000815250612133565b505050565b6009818051602081018201805184825260208301602085012081835280955050505050506000915090508060000160009054906101000a900473ffffffffffffffffffffffffffffffffffffffff16908060010180546111c29061546d565b80601f01602080910402602001604051908101604052809291908181526020018280546111ee9061546d565b801561123b5780601f106112105761010080835404028352916020019161123b565b820191906000526020600020905b81548152906001019060200180831161121e57829003601f168201915b5050505050908060020180546112509061546d565b80601f016020809104026020016040519081016040528092919081815260200182805461127c9061546d565b80156112c95780601f1061129e576101008083540402835291602001916112c9565b820191906000526020600020905b8154815290600101906020018083116112ac57829003601f168201915b5050505050908060030154908060040160009054906101000a900460ff16908060060154905086565b808210611334576040517f08c379a000000000000000000000000000000000000000000000000000000000815260040161132b90614d54565b60405180910390fd5b60006009856040516113469190614aa3565b9081526020016040518091039020905084805190602001208160010160405161136f9190614a8c565b6040518091039020146113b7576040517f08c379a00000000000000000000000000000000000000000000000000000000081526004016113ae90614d34565b60405180910390fd5b3373ffffffffffffffffffffffffffffffffffffffff168160000160009054906101000a900473ffffffffffffffffffffffffffffffffffffffff1673ffffffffffffffffffffffffffffffffffffffff1614611449576040517f08c379a000000000000000000000000000000000000000000000000000000000815260040161144090615114565b60405180910390fd5b42821161148b576040517f08c379a000000000000000000000000000000000000000000000000000000000815260040161148290614e94565b60405180910390fd5b600060038111156114c5577f4e487b7100000000000000000000000000000000000000000000000000000000600052602160045260246000fd5b8160040160009054906101000a900460ff16600381111561150f577f4e487b7100000000000000000000000000000000000000000000000000000000600052602160045260246000fd5b148061159b575060038081111561154f577f4e487b7100000000000000000000000000000000000000000000000000000000600052602160045260246000fd5b8160040160009054906101000a900460ff166003811115611599577f4e487b7100000000000000000000000000000000000000000000000000000000600052602160045260246000fd5b145b6115da576040517f08c379a00000000000000000000000000000000000000000000000000000000081526004016115d190615134565b60405180910390fd5b60018160060160008282546115ef9190615259565b9250508190555060008160050160008360060154815260200190815260200160002060000160006101000a81548173ffffffffffffffffffffffffffffffffffffffff021916908373ffffffffffffffffffffffffffffffffffffffff160217905550838160050160008360060154815260200190815260200160002060010181905550428311611681576000611684565b60015b8160050160008360060154815260200190815260200160002060020160006101000a81548160ff021916908360038111156116e8577f4e487b7100000000000000000000000000000000000000000000000000000000600052602160045260246000fd5b02179055508281600501600083600601548152602001908152602001600020600301819055508181600501600083600601548152602001908152602001600020600401819055506000816005016000836006015481526020019081526020016000206005018190555060018160040160006101000a81548160ff0219169083600381111561179f577f4e487b7100000000000000000000000000000000000000000000000000000000600052602160045260246000fd5b02179055507fe233c542868b104ebadeaae493a99c04bab3c65b4a0540ab44d7f753f8b0a4c6858585856040516117d99493929190614ce8565b60405180910390a15050505050565b600e60009054906101000a900473ffffffffffffffffffffffffffffffffffffffff1681565b600e60009054906101000a900473ffffffffffffffffffffffffffffffffffffffff1673ffffffffffffffffffffffffffffffffffffffff166323b872dd3330846040518463ffffffff1660e01b815260040161186d93929190614af9565b602060405180830381600087803b15801561188757600080fd5b505af115801561189b573d6000803e3d6000fd5b505050506040513d601f19601f820116820180604052508101906118bf9190614215565b5060006009836040516118d29190614aa3565b908152602001604051809103902090508280519060200120816001016040516118fb9190614a8c565b604051809103902014611943576040517f08c379a000000000000000000000000000000000000000000000000000000000815260040161193a90614d34565b60405180910390fd5b6001600381111561197d577f4e487b7100000000000000000000000000000000000000000000000000000000600052602160045260246000fd5b8160040160009054906101000a900460ff1660038111156119c7577f4e487b7100000000000000000000000000000000000000000000000000000000600052602160045260246000fd5b14611a07576040517f08c379a00000000000000000000000000000000000000000000000000000000081526004016119fe90614d74565b60405180910390fd5b600081600601541415611a4f576040517f08c379a0000000000000000000000000000000000000000000000000000000008152600401611a4690614f74565b60405180910390fd5b600081600501600083600601548152602001908152602001600020905042816003015411158015611a84575080600401544211155b611ac3576040517f08c379a0000000000000000000000000000000000000000000000000000000008152600401611aba90614fb4565b60405180910390fd5b82816001015410611b09576040517f08c379a0000000000000000000000000000000000000000000000000000000008152600401611b0090614f94565b60405180910390fd5b60028160020160006101000a81548160ff02191690836003811115611b57577f4e487b7100000000000000000000000000000000000000000000000000000000600052602160045260246000fd5b0217905550600060405180606001604052803373ffffffffffffffffffffffffffffffffffffffff1681526020018581526020014281525090506001826005016000828254611ba69190615259565b92505081905550808260060160008460050154815260200190815260200160002060008201518160000160006101000a81548173ffffffffffffffffffffffffffffffffffffffff021916908373ffffffffffffffffffffffffffffffffffffffff160217905550602082015181600101556040820151816002015590505060008260000160009054906101000a900473ffffffffffffffffffffffffffffffffffffffff169050600083600101549050338460000160006101000a81548173ffffffffffffffffffffffffffffffffffffffff021916908373ffffffffffffffffffffffffffffffffffffffff160217905550858460010181905550600073ffffffffffffffffffffffffffffffffffffffff168273ffffffffffffffffffffffffffffffffffffffff1614611d8857600e60009054906101000a900473ffffffffffffffffffffffffffffffffffffffff1673ffffffffffffffffffffffffffffffffffffffff1663a9059cbb83836040518363ffffffff1660e01b8152600401611d34929190614beb565b602060405180830381600087803b158015611d4e57600080fd5b505af1158015611d62573d6000803e3d6000fd5b505050506040513d601f19601f82011682018060405250810190611d869190614215565b505b50505050505050565b600c6020528060005260406000206000915090505481565b6000806002600084815260200190815260200160002060009054906101000a900473ffffffffffffffffffffffffffffffffffffffff169050600073ffffffffffffffffffffffffffffffffffffffff168173ffffffffffffffffffffffffffffffffffffffff161415611e52576040517f08c379a0000000000000000000000000000000000000000000000000000000008152600401611e4990614f34565b60405180910390fd5b80915050919050565b60008073ffffffffffffffffffffffffffffffffffffffff168273ffffffffffffffffffffffffffffffffffffffff161415611ecc576040517f08c379a0000000000000000000000000000000000000000000000000000000008152600401611ec390614f14565b60405180910390fd5b600360008373ffffffffffffffffffffffffffffffffffffffff1673ffffffffffffffffffffffffffffffffffffffff168152602001908152602001600020549050919050565b611f1b612f33565b73ffffffffffffffffffffffffffffffffffffffff16611f39611f9b565b73ffffffffffffffffffffffffffffffffffffffff1614611f8f576040517f08c379a0000000000000000000000000000000000000000000000000000000008152600401611f8690615034565b60405180910390fd5b611f9960006132c6565b565b6000600660009054906101000a900473ffffffffffffffffffffffffffffffffffffffff16905090565b606060018054611fd49061546d565b80601f01602080910402602001604051908101604052809291908181526020018280546120009061546d565b801561204d5780601f106120225761010080835404028352916020019161204d565b820191906000526020600020905b81548152906001019060200180831161203057829003601f168201915b5050505050905090565b612069612062612f33565b838361338c565b5050565b612075612f33565b73ffffffffffffffffffffffffffffffffffffffff16612093611f9b565b73ffffffffffffffffffffffffffffffffffffffff16146120e9576040517f08c379a00000000000000000000000000000000000000000000000000000000081526004016120e090615034565b60405180910390fd5b3373ffffffffffffffffffffffffffffffffffffffff166108fc829081150290604051600060405180830381858888f1935050505015801561212f573d6000803e3d6000fd5b5050565b600b60008473ffffffffffffffffffffffffffffffffffffffff1673ffffffffffffffffffffffffffffffffffffffff168152602001908152602001600020829080600181540180825580915050600190039060005260206000200160009091909190915055600b60008573ffffffffffffffffffffffffffffffffffffffff1673ffffffffffffffffffffffffffffffffffffffff1681526020019081526020016000206001600b60008773ffffffffffffffffffffffffffffffffffffffff1673ffffffffffffffffffffffffffffffffffffffff16815260200190815260200160002080549050612227919061533a565b8154811061225e577f4e487b7100000000000000000000000000000000000000000000000000000000600052603260045260246000fd5b9060005260206000200154600b60008673ffffffffffffffffffffffffffffffffffffffff1673ffffffffffffffffffffffffffffffffffffffff168152602001908152602001600020600c600085815260200190815260200160002054815481106122f3577f4e487b7100000000000000000000000000000000000000000000000000000000600052603260045260246000fd5b9060005260206000200181905550600b60008573ffffffffffffffffffffffffffffffffffffffff1673ffffffffffffffffffffffffffffffffffffffff168152602001908152602001600020805480612376577f4e487b7100000000000000000000000000000000000000000000000000000000600052603160045260246000fd5b600190038181906000526020600020016000905590556001600b60008573ffffffffffffffffffffffffffffffffffffffff1673ffffffffffffffffffffffffffffffffffffffff168152602001908152602001600020805490506123db919061533a565b600c6000848152602001908152602001600020819055506123fe848484846134f9565b50505050565b600a818051602081018201805184825260208301602085012081835280955050505050506000915090505481565b600d5481565b60606124438261355b565b9050919050565b600060098360405161245c9190614aa3565b908152602001604051809103902090508280519060200120816001016040516124859190614a8c565b6040518091039020146124cd576040517f08c379a00000000000000000000000000000000000000000000000000000000081526004016124c490614d34565b60405180910390fd5b3373ffffffffffffffffffffffffffffffffffffffff168160000160009054906101000a900473ffffffffffffffffffffffffffffffffffffffff1673ffffffffffffffffffffffffffffffffffffffff161461255f576040517f08c379a0000000000000000000000000000000000000000000000000000000008152600401612556906150f4565b60405180910390fd5b6125883383600a866040516125749190614aa3565b908152602001604051809103902054611143565b818160000160006101000a81548173ffffffffffffffffffffffffffffffffffffffff021916908373ffffffffffffffffffffffffffffffffffffffff160217905550505050565b600b60205281600052604060002081815481106125ec57600080fd5b90600052602060002001600091509150505481565b6000600560008473ffffffffffffffffffffffffffffffffffffffff1673ffffffffffffffffffffffffffffffffffffffff16815260200190815260200160002060008373ffffffffffffffffffffffffffffffffffffffff1673ffffffffffffffffffffffffffffffffffffffff16815260200190815260200160002060009054906101000a900460ff16905092915050565b61269d612f33565b73ffffffffffffffffffffffffffffffffffffffff166126bb611f9b565b73ffffffffffffffffffffffffffffffffffffffff1614612711576040517f08c379a000000000000000000000000000000000000000000000000000000000815260040161270890615034565b60405180910390fd5b600073ffffffffffffffffffffffffffffffffffffffff168173ffffffffffffffffffffffffffffffffffffffff161415612781576040517f08c379a000000000000000000000000000000000000000000000000000000000815260040161277890614dd4565b60405180910390fd5b61278a816132c6565b50565b600060098260405161279f9190614aa3565b908152602001604051809103902090508180519060200120816001016040516127c89190614a8c565b604051809103902014612810576040517f08c379a000000000000000000000000000000000000000000000000000000000815260040161280790614d34565b60405180910390fd5b6001600381111561284a577f4e487b7100000000000000000000000000000000000000000000000000000000600052602160045260246000fd5b8160040160009054906101000a900460ff166003811115612894577f4e487b7100000000000000000000000000000000000000000000000000000000600052602160045260246000fd5b146128d4576040517f08c379a00000000000000000000000000000000000000000000000000000000081526004016128cb90614ed4565b60405180910390fd5b60008160060154141561291c576040517f08c379a000000000000000000000000000000000000000000000000000000000815260040161291390614f74565b60405180910390fd5b600081600501600083600601548152602001908152602001600020905042816003015410801561294f5750806004015442115b61298e576040517f08c379a000000000000000000000000000000000000000000000000000000000815260040161298590614d94565b60405180910390fd5b600260038111156129c8577f4e487b7100000000000000000000000000000000000000000000000000000000600052602160045260246000fd5b8160020160009054906101000a900460ff166003811115612a12577f4e487b7100000000000000000000000000000000000000000000000000000000600052602160045260246000fd5b1480612a9f575060016003811115612a53577f4e487b7100000000000000000000000000000000000000000000000000000000600052602160045260246000fd5b8260040160009054906101000a900460ff166003811115612a9d577f4e487b7100000000000000000000000000000000000000000000000000000000600052602160045260246000fd5b145b612ade576040517f08c379a0000000000000000000000000000000000000000000000000000000008152600401612ad590614df4565b60405180910390fd5b60008160010154905060008360000160009054906101000a900473ffffffffffffffffffffffffffffffffffffffff169050600073ffffffffffffffffffffffffffffffffffffffff168360000160009054906101000a900473ffffffffffffffffffffffffffffffffffffffff1673ffffffffffffffffffffffffffffffffffffffff1614612d4f576000600d541115612ba2576305f5e100600d546305f5e100612b8a919061533a565b83612b9591906152e0565b612b9f91906152af565b91505b612c138460000160009054906101000a900473ffffffffffffffffffffffffffffffffffffffff168460000160009054906101000a900473ffffffffffffffffffffffffffffffffffffffff16600a88604051612bff9190614aa3565b908152602001604051809103902054611143565b8260000160009054906101000a900473ffffffffffffffffffffffffffffffffffffffff168460000160006101000a81548173ffffffffffffffffffffffffffffffffffffffff021916908373ffffffffffffffffffffffffffffffffffffffff160217905550600e60009054906101000a900473ffffffffffffffffffffffffffffffffffffffff1673ffffffffffffffffffffffffffffffffffffffff1663a9059cbb8560000160009054906101000a900473ffffffffffffffffffffffffffffffffffffffff16846040518363ffffffff1660e01b8152600401612cfb929190614beb565b602060405180830381600087803b158015612d1557600080fd5b505af1158015612d29573d6000803e3d6000fd5b505050506040513d601f19601f82011682018060405250810190612d4d9190614215565b505b7f4af0d96588e310fac2873d03b8fd52d531822431514d49018854f40becd4d39485828560000160009054906101000a900473ffffffffffffffffffffffffffffffffffffffff1685604051612da89493929190614c6c565b60405180910390a160038360020160006101000a81548160ff02191690836003811115612dfe577f4e487b7100000000000000000000000000000000000000000000000000000000600052602160045260246000fd5b021790555060038460040160006101000a81548160ff02191690836003811115612e51577f4e487b7100000000000000000000000000000000000000000000000000000000600052602160045260246000fd5b02179055505050505050565b60007f01ffc9a7000000000000000000000000000000000000000000000000000000007bffffffffffffffffffffffffffffffffffffffffffffffffffffffff1916827bffffffffffffffffffffffffffffffffffffffffffffffffffffffff1916149050919050565b60008073ffffffffffffffffffffffffffffffffffffffff166002600084815260200190815260200160002060009054906101000a900473ffffffffffffffffffffffffffffffffffffffff1673ffffffffffffffffffffffffffffffffffffffff1614159050919050565b600033905090565b816004600083815260200190815260200160002060006101000a81548173ffffffffffffffffffffffffffffffffffffffff021916908373ffffffffffffffffffffffffffffffffffffffff160217905550808273ffffffffffffffffffffffffffffffffffffffff16612fae83611da9565b73ffffffffffffffffffffffffffffffffffffffff167f8c5be1e5ebec7d5bd14f71427d1e84f3dd0314c0f7b2291e5b200ac8c7c3b92560405160405180910390a45050565b613005612fff612f33565b826136ad565b613044576040517f08c379a000000000000000000000000000000000000000000000000000000000815260040161303b906150b4565b60405180910390fd5b61304f83838361378b565b505050565b6001816000016000828254019250508190555050565b600081600001549050919050565b600073ffffffffffffffffffffffffffffffffffffffff168273ffffffffffffffffffffffffffffffffffffffff1614156130e8576040517f08c379a00000000000000000000000000000000000000000000000000000000081526004016130df90614fd4565b60405180910390fd5b6130f181612ec7565b15613131576040517f08c379a000000000000000000000000000000000000000000000000000000000815260040161312890614e34565b60405180910390fd5b61313d600083836139f2565b6001600360008473ffffffffffffffffffffffffffffffffffffffff1673ffffffffffffffffffffffffffffffffffffffff168152602001908152602001600020600082825461318d9190615259565b92505081905550816002600083815260200190815260200160002060006101000a81548173ffffffffffffffffffffffffffffffffffffffff021916908373ffffffffffffffffffffffffffffffffffffffff160217905550808273ffffffffffffffffffffffffffffffffffffffff16600073ffffffffffffffffffffffffffffffffffffffff167fddf252ad1be2c89b69c2b068fc378daa952ba7f163c4a11628f55a4df523b3ef60405160405180910390a461324e600083836139f7565b5050565b61325b82612ec7565b61329a576040517f08c379a000000000000000000000000000000000000000000000000000000000815260040161329190614f54565b60405180910390fd5b806007600084815260200190815260200160002090805190602001906132c1929190613e7d565b505050565b6000600660009054906101000a900473ffffffffffffffffffffffffffffffffffffffff16905081600660006101000a81548173ffffffffffffffffffffffffffffffffffffffff021916908373ffffffffffffffffffffffffffffffffffffffff1602179055508173ffffffffffffffffffffffffffffffffffffffff168173ffffffffffffffffffffffffffffffffffffffff167f8be0079c531659141344cd1fd0a4f28419497f9722a3daafe3b4186f6b6457e060405160405180910390a35050565b8173ffffffffffffffffffffffffffffffffffffffff168373ffffffffffffffffffffffffffffffffffffffff1614156133fb576040517f08c379a00000000000000000000000000000000000000000000000000000000081526004016133f290614e74565b60405180910390fd5b80600560008573ffffffffffffffffffffffffffffffffffffffff1673ffffffffffffffffffffffffffffffffffffffff16815260200190815260200160002060008473ffffffffffffffffffffffffffffffffffffffff1673ffffffffffffffffffffffffffffffffffffffff16815260200190815260200160002060006101000a81548160ff0219169083151502179055508173ffffffffffffffffffffffffffffffffffffffff168373ffffffffffffffffffffffffffffffffffffffff167f17307eab39ab6107e8899845ad3d59bd9653f200f220920489ca2b5937696c31836040516134ec9190614c14565b60405180910390a3505050565b61350a613504612f33565b836136ad565b613549576040517f08c379a0000000000000000000000000000000000000000000000000000000008152600401613540906150b4565b60405180910390fd5b613555848484846139fc565b50505050565b606061356682612ec7565b6135a5576040517f08c379a000000000000000000000000000000000000000000000000000000000815260040161359c90614ff4565b60405180910390fd5b60006007600084815260200190815260200160002080546135c59061546d565b80601f01602080910402602001604051908101604052809291908181526020018280546135f19061546d565b801561363e5780601f106136135761010080835404028352916020019161363e565b820191906000526020600020905b81548152906001019060200180831161362157829003601f168201915b50505050509050600061364f613a58565b90506000815114156136655781925050506136a8565b60008251111561369a578082604051602001613682929190614aba565b604051602081830303815290604052925050506136a8565b6136a384613a6f565b925050505b919050565b60006136b882612ec7565b6136f7576040517f08c379a00000000000000000000000000000000000000000000000000000000081526004016136ee90614eb4565b60405180910390fd5b600061370283611da9565b90508073ffffffffffffffffffffffffffffffffffffffff168473ffffffffffffffffffffffffffffffffffffffff16148061377157508373ffffffffffffffffffffffffffffffffffffffff1661375984610892565b73ffffffffffffffffffffffffffffffffffffffff16145b8061378257506137818185612601565b5b91505092915050565b8273ffffffffffffffffffffffffffffffffffffffff166137ab82611da9565b73ffffffffffffffffffffffffffffffffffffffff1614613801576040517f08c379a00000000000000000000000000000000000000000000000000000000081526004016137f890614e14565b60405180910390fd5b600073ffffffffffffffffffffffffffffffffffffffff168273ffffffffffffffffffffffffffffffffffffffff161415613871576040517f08c379a000000000000000000000000000000000000000000000000000000000815260040161386890614e54565b60405180910390fd5b61387c8383836139f2565b613887600082612f3b565b6001600360008573ffffffffffffffffffffffffffffffffffffffff1673ffffffffffffffffffffffffffffffffffffffff16815260200190815260200160002060008282546138d7919061533a565b925050819055506001600360008473ffffffffffffffffffffffffffffffffffffffff1673ffffffffffffffffffffffffffffffffffffffff168152602001908152602001600020600082825461392e9190615259565b92505081905550816002600083815260200190815260200160002060006101000a81548173ffffffffffffffffffffffffffffffffffffffff021916908373ffffffffffffffffffffffffffffffffffffffff160217905550808273ffffffffffffffffffffffffffffffffffffffff168473ffffffffffffffffffffffffffffffffffffffff167fddf252ad1be2c89b69c2b068fc378daa952ba7f163c4a11628f55a4df523b3ef60405160405180910390a46139ed8383836139f7565b505050565b505050565b505050565b613a0784848461378b565b613a1384848484613b16565b613a52576040517f08c379a0000000000000000000000000000000000000000000000000000000008152600401613a4990614db4565b60405180910390fd5b50505050565b606060405180602001604052806000815250905090565b6060613a7a82612ec7565b613ab9576040517f08c379a0000000000000000000000000000000000000000000000000000000008152600401613ab090615054565b60405180910390fd5b6000613ac3613a58565b90506000815111613ae35760405180602001604052806000815250613b0e565b80613aed84613cad565b604051602001613afe929190614aba565b6040516020818303038152906040525b915050919050565b6000613b378473ffffffffffffffffffffffffffffffffffffffff16613e5a565b15613ca0578373ffffffffffffffffffffffffffffffffffffffff1663150b7a02613b60612f33565b8786866040518563ffffffff1660e01b8152600401613b829493929190614b30565b602060405180830381600087803b158015613b9c57600080fd5b505af1925050508015613bcd57506040513d601f19601f82011682018060405250810190613bca9190614267565b60015b613c50573d8060008114613bfd576040519150601f19603f3d011682016040523d82523d6000602084013e613c02565b606091505b50600081511415613c48576040517f08c379a0000000000000000000000000000000000000000000000000000000008152600401613c3f90614db4565b60405180910390fd5b805181602001fd5b63150b7a0260e01b7bffffffffffffffffffffffffffffffffffffffffffffffffffffffff1916817bffffffffffffffffffffffffffffffffffffffffffffffffffffffff191614915050613ca5565b600190505b949350505050565b60606000821415613cf5576040518060400160405280600181526020017f30000000000000000000000000000000000000000000000000000000000000008152509050613e55565b600082905060005b60008214613d27578080613d10906154d0565b915050600a82613d2091906152af565b9150613cfd565b60008167ffffffffffffffff811115613d69577f4e487b7100000000000000000000000000000000000000000000000000000000600052604160045260246000fd5b6040519080825280601f01601f191660200182016040528015613d9b5781602001600182028036833780820191505090505b5090505b60008514613e4e57600182613db4919061533a565b9150600a85613dc39190615519565b6030613dcf9190615259565b60f81b818381518110613e0b577f4e487b7100000000000000000000000000000000000000000000000000000000600052603260045260246000fd5b60200101907effffffffffffffffffffffffffffffffffffffffffffffffffffffffffffff1916908160001a905350600a85613e4791906152af565b9450613d9f565b8093505050505b919050565b6000808273ffffffffffffffffffffffffffffffffffffffff163b119050919050565b828054613e899061546d565b90600052602060002090601f016020900481019282613eab5760008555613ef2565b82601f10613ec457805160ff1916838001178555613ef2565b82800160010185558215613ef2579182015b82811115613ef1578251825591602001919060010190613ed6565b5b509050613eff9190613f03565b5090565b5b80821115613f1c576000816000905550600101613f04565b5090565b6000613f33613f2e84615194565b61516f565b905082815260208101848484011115613f4b57600080fd5b613f5684828561542b565b509392505050565b6000613f71613f6c846151c5565b61516f565b905082815260208101848484011115613f8957600080fd5b613f9484828561542b565b509392505050565b600081359050613fab81615ddd565b92915050565b600081359050613fc081615df4565b92915050565b600081519050613fd581615df4565b92915050565b600081359050613fea81615e0b565b92915050565b600081519050613fff81615e0b565b92915050565b600082601f83011261401657600080fd5b8135614026848260208601613f20565b91505092915050565b600082601f83011261404057600080fd5b8135614050848260208601613f5e565b91505092915050565b60008135905061406881615e22565b92915050565b60006020828403121561408057600080fd5b600061408e84828501613f9c565b91505092915050565b600080604083850312156140aa57600080fd5b60006140b885828601613f9c565b92505060206140c985828601613f9c565b9150509250929050565b6000806000606084860312156140e857600080fd5b60006140f686828701613f9c565b935050602061410786828701613f9c565b925050604061411886828701614059565b9150509250925092565b6000806000806080858703121561413857600080fd5b600061414687828801613f9c565b945050602061415787828801613f9c565b935050604061416887828801614059565b925050606085013567ffffffffffffffff81111561418557600080fd5b61419187828801614005565b91505092959194509250565b600080604083850312156141b057600080fd5b60006141be85828601613f9c565b92505060206141cf85828601613fb1565b9150509250929050565b600080604083850312156141ec57600080fd5b60006141fa85828601613f9c565b925050602061420b85828601614059565b9150509250929050565b60006020828403121561422757600080fd5b600061423584828501613fc6565b91505092915050565b60006020828403121561425057600080fd5b600061425e84828501613fdb565b91505092915050565b60006020828403121561427957600080fd5b600061428784828501613ff0565b91505092915050565b6000602082840312156142a257600080fd5b600082013567ffffffffffffffff8111156142bc57600080fd5b6142c88482850161402f565b91505092915050565b600080604083850312156142e457600080fd5b600083013567ffffffffffffffff8111156142fe57600080fd5b61430a8582860161402f565b925050602061431b85828601613f9c565b9150509250929050565b60008060006060848603121561433a57600080fd5b600084013567ffffffffffffffff81111561435457600080fd5b6143608682870161402f565b935050602084013567ffffffffffffffff81111561437d57600080fd5b6143898682870161402f565b925050604061439a86828701614059565b9150509250925092565b600080604083850312156143b757600080fd5b600083013567ffffffffffffffff8111156143d157600080fd5b6143dd8582860161402f565b92505060206143ee85828601614059565b9150509250929050565b6000806000806080858703121561440e57600080fd5b600085013567ffffffffffffffff81111561442857600080fd5b6144348782880161402f565b945050602061444587828801614059565b935050604061445687828801614059565b925050606061446787828801614059565b91505092959194509250565b60006020828403121561448557600080fd5b600061449384828501614059565b91505092915050565b6144a58161536e565b82525050565b6144b481615380565b82525050565b60006144c58261520b565b6144cf8185615221565b93506144df81856020860161543a565b6144e881615635565b840191505092915050565b600081546145008161546d565b61450a8186615232565b94506001821660008114614525576001811461453657614569565b60ff19831686528186019350614569565b61453f856151f6565b60005b8381101561456157815481890152600182019150602081019050614542565b838801955050505b50505092915050565b61457b816153f5565b82525050565b61458a81615419565b82525050565b600061459b82615216565b6145a5818561523d565b93506145b581856020860161543a565b6145be81615635565b840191505092915050565b60006145d482615216565b6145de818561524e565b93506145ee81856020860161543a565b80840191505092915050565b600061460760018361523d565b915061461282615646565b602082019050919050565b600061462a60228361523d565b91506146358261566f565b604082019050919050565b600061464d60028361523d565b9150614658826156be565b602082019050919050565b600061467060028361523d565b915061467b826156e7565b602082019050919050565b600061469360328361523d565b915061469e82615710565b604082019050919050565b60006146b660268361523d565b91506146c18261575f565b604082019050919050565b60006146d960028361523d565b91506146e4826157ae565b602082019050919050565b60006146fc60258361523d565b9150614707826157d7565b604082019050919050565b600061471f601c8361523d565b915061472a82615826565b602082019050919050565b600061474260248361523d565b915061474d8261584f565b604082019050919050565b600061476560198361523d565b91506147708261589e565b602082019050919050565b600061478860018361523d565b9150614793826158c7565b602082019050919050565b60006147ab602c8361523d565b91506147b6826158f0565b604082019050919050565b60006147ce60028361523d565b91506147d98261593f565b602082019050919050565b60006147f160388361523d565b91506147fc82615968565b604082019050919050565b6000614814602a8361523d565b915061481f826159b7565b604082019050919050565b600061483760298361523d565b915061484282615a06565b604082019050919050565b600061485a602e8361523d565b915061486582615a55565b604082019050919050565b600061487d60028361523d565b915061488882615aa4565b602082019050919050565b60006148a060028361523d565b91506148ab82615acd565b602082019050919050565b60006148c360028361523d565b91506148ce82615af6565b602082019050919050565b60006148e660208361523d565b91506148f182615b1f565b602082019050919050565b600061490960318361523d565b915061491482615b48565b604082019050919050565b600061492c602c8361523d565b915061493782615b97565b604082019050919050565b600061494f60208361523d565b915061495a82615be6565b602082019050919050565b6000614972602f8361523d565b915061497d82615c0f565b604082019050919050565b600061499560018361523d565b91506149a082615c5e565b602082019050919050565b60006149b860218361523d565b91506149c382615c87565b604082019050919050565b60006149db60318361523d565b91506149e682615cd6565b604082019050919050565b60006149fe60018361523d565b9150614a0982615d25565b602082019050919050565b6000614a2160018361523d565b9150614a2c82615d4e565b602082019050919050565b6000614a4460018361523d565b9150614a4f82615d77565b602082019050919050565b6000614a6760018361523d565b9150614a7282615da0565b602082019050919050565b614a86816153eb565b82525050565b6000614a9882846144f3565b915081905092915050565b6000614aaf82846145c9565b915081905092915050565b6000614ac682856145c9565b9150614ad282846145c9565b91508190509392505050565b6000602082019050614af3600083018461449c565b92915050565b6000606082019050614b0e600083018661449c565b614b1b602083018561449c565b614b286040830184614a7d565b949350505050565b6000608082019050614b45600083018761449c565b614b52602083018661449c565b614b5f6040830185614a7d565b8181036060830152614b7181846144ba565b905095945050505050565b600060c082019050614b91600083018961449c565b8181036020830152614ba38188614590565b90508181036040830152614bb78187614590565b9050614bc66060830186614a7d565b614bd36080830185614581565b614be060a0830184614a7d565b979650505050505050565b6000604082019050614c00600083018561449c565b614c0d6020830184614a7d565b9392505050565b6000602082019050614c2960008301846144ab565b92915050565b6000602082019050614c446000830184614572565b92915050565b60006020820190508181036000830152614c648184614590565b905092915050565b60006080820190508181036000830152614c868187614590565b9050614c95602083018661449c565b614ca2604083018561449c565b614caf6060830184614a7d565b95945050505050565b60006040820190508181036000830152614cd28185614590565b9050614ce16020830184614a7d565b9392505050565b60006080820190508181036000830152614d028187614590565b9050614d116020830186614a7d565b614d1e6040830185614a7d565b614d2b6060830184614a7d565b95945050505050565b60006020820190508181036000830152614d4d816145fa565b9050919050565b60006020820190508181036000830152614d6d8161461d565b9050919050565b60006020820190508181036000830152614d8d81614640565b9050919050565b60006020820190508181036000830152614dad81614663565b9050919050565b60006020820190508181036000830152614dcd81614686565b9050919050565b60006020820190508181036000830152614ded816146a9565b9050919050565b60006020820190508181036000830152614e0d816146cc565b9050919050565b60006020820190508181036000830152614e2d816146ef565b9050919050565b60006020820190508181036000830152614e4d81614712565b9050919050565b60006020820190508181036000830152614e6d81614735565b9050919050565b60006020820190508181036000830152614e8d81614758565b9050919050565b60006020820190508181036000830152614ead8161477b565b9050919050565b60006020820190508181036000830152614ecd8161479e565b9050919050565b60006020820190508181036000830152614eed816147c1565b9050919050565b60006020820190508181036000830152614f0d816147e4565b9050919050565b60006020820190508181036000830152614f2d81614807565b9050919050565b60006020820190508181036000830152614f4d8161482a565b9050919050565b60006020820190508181036000830152614f6d8161484d565b9050919050565b60006020820190508181036000830152614f8d81614870565b9050919050565b60006020820190508181036000830152614fad81614893565b9050919050565b60006020820190508181036000830152614fcd816148b6565b9050919050565b60006020820190508181036000830152614fed816148d9565b9050919050565b6000602082019050818103600083015261500d816148fc565b9050919050565b6000602082019050818103600083015261502d8161491f565b9050919050565b6000602082019050818103600083015261504d81614942565b9050919050565b6000602082019050818103600083015261506d81614965565b9050919050565b6000602082019050818103600083015261508d81614988565b9050919050565b600060208201905081810360008301526150ad816149ab565b9050919050565b600060208201905081810360008301526150cd816149ce565b9050919050565b600060208201905081810360008301526150ed816149f1565b9050919050565b6000602082019050818103600083015261510d81614a14565b9050919050565b6000602082019050818103600083015261512d81614a37565b9050919050565b6000602082019050818103600083015261514d81614a5a565b9050919050565b60006020820190506151696000830184614a7d565b92915050565b600061517961518a565b9050615185828261549f565b919050565b6000604051905090565b600067ffffffffffffffff8211156151af576151ae615606565b5b6151b882615635565b9050602081019050919050565b600067ffffffffffffffff8211156151e0576151df615606565b5b6151e982615635565b9050602081019050919050565b60008190508160005260206000209050919050565b600081519050919050565b600081519050919050565b600082825260208201905092915050565b600081905092915050565b600082825260208201905092915050565b600081905092915050565b6000615264826153eb565b915061526f836153eb565b9250827fffffffffffffffffffffffffffffffffffffffffffffffffffffffffffffffff038211156152a4576152a361554a565b5b828201905092915050565b60006152ba826153eb565b91506152c5836153eb565b9250826152d5576152d4615579565b5b828204905092915050565b60006152eb826153eb565b91506152f6836153eb565b9250817fffffffffffffffffffffffffffffffffffffffffffffffffffffffffffffffff048311821515161561532f5761532e61554a565b5b828202905092915050565b6000615345826153eb565b9150615350836153eb565b9250828210156153635761536261554a565b5b828203905092915050565b6000615379826153cb565b9050919050565b60008115159050919050565b60007fffffffff0000000000000000000000000000000000000000000000000000000082169050919050565b60008190506153c682615dc9565b919050565b600073ffffffffffffffffffffffffffffffffffffffff82169050919050565b6000819050919050565b600061540082615407565b9050919050565b6000615412826153cb565b9050919050565b6000615424826153b8565b9050919050565b82818337600083830152505050565b60005b8381101561545857808201518184015260208101905061543d565b83811115615467576000848401525b50505050565b6000600282049050600182168061548557607f821691505b60208210811415615499576154986155d7565b5b50919050565b6154a882615635565b810181811067ffffffffffffffff821117156154c7576154c6615606565b5b80604052505050565b60006154db826153eb565b91507fffffffffffffffffffffffffffffffffffffffffffffffffffffffffffffffff82141561550e5761550d61554a565b5b600182019050919050565b6000615524826153eb565b915061552f836153eb565b92508261553f5761553e615579565b5b828206905092915050565b7f4e487b7100000000000000000000000000000000000000000000000000000000600052601160045260246000fd5b7f4e487b7100000000000000000000000000000000000000000000000000000000600052601260045260246000fd5b7f4e487b7100000000000000000000000000000000000000000000000000000000600052602160045260246000fd5b7f4e487b7100000000000000000000000000000000000000000000000000000000600052602260045260246000fd5b7f4e487b7100000000000000000000000000000000000000000000000000000000600052604160045260246000fd5b6000601f19601f8301169050919050565b7f3400000000000000000000000000000000000000000000000000000000000000600082015250565b7f53746172742074696d65206d757374206265206265666f726520656e6420746960008201527f6d65000000000000000000000000000000000000000000000000000000000000602082015250565b7f3130000000000000000000000000000000000000000000000000000000000000600082015250565b7f3135000000000000000000000000000000000000000000000000000000000000600082015250565b7f4552433732313a207472616e7366657220746f206e6f6e20455243373231526560008201527f63656976657220696d706c656d656e7465720000000000000000000000000000602082015250565b7f4f776e61626c653a206e6577206f776e657220697320746865207a65726f206160008201527f6464726573730000000000000000000000000000000000000000000000000000602082015250565b7f3136000000000000000000000000000000000000000000000000000000000000600082015250565b7f4552433732313a207472616e736665722066726f6d20696e636f72726563742060008201527f6f776e6572000000000000000000000000000000000000000000000000000000602082015250565b7f4552433732313a20746f6b656e20616c7265616479206d696e74656400000000600082015250565b7f4552433732313a207472616e7366657220746f20746865207a65726f2061646460008201527f7265737300000000000000000000000000000000000000000000000000000000602082015250565b7f4552433732313a20617070726f766520746f2063616c6c657200000000000000600082015250565b7f3700000000000000000000000000000000000000000000000000000000000000600082015250565b7f4552433732313a206f70657261746f7220717565727920666f72206e6f6e657860008201527f697374656e7420746f6b656e0000000000000000000000000000000000000000602082015250565b7f3134000000000000000000000000000000000000000000000000000000000000600082015250565b7f4552433732313a20617070726f76652063616c6c6572206973206e6f74206f7760008201527f6e6572206e6f7220617070726f76656420666f7220616c6c0000000000000000602082015250565b7f4552433732313a2062616c616e636520717565727920666f7220746865207a6560008201527f726f206164647265737300000000000000000000000000000000000000000000602082015250565b7f4552433732313a206f776e657220717565727920666f72206e6f6e657869737460008201527f656e7420746f6b656e0000000000000000000000000000000000000000000000602082015250565b7f45524337323155524953746f726167653a2055524920736574206f66206e6f6e60008201527f6578697374656e7420746f6b656e000000000000000000000000000000000000602082015250565b7f3131000000000000000000000000000000000000000000000000000000000000600082015250565b7f3133000000000000000000000000000000000000000000000000000000000000600082015250565b7f3132000000000000000000000000000000000000000000000000000000000000600082015250565b7f4552433732313a206d696e7420746f20746865207a65726f2061646472657373600082015250565b7f45524337323155524953746f726167653a2055524920717565727920666f722060008201527f6e6f6e6578697374656e7420746f6b656e000000000000000000000000000000602082015250565b7f4552433732313a20617070726f76656420717565727920666f72206e6f6e657860008201527f697374656e7420746f6b656e0000000000000000000000000000000000000000602082015250565b7f4f776e61626c653a2063616c6c6572206973206e6f7420746865206f776e6572600082015250565b7f4552433732314d657461646174613a2055524920717565727920666f72206e6f60008201527f6e6578697374656e7420746f6b656e0000000000000000000000000000000000602082015250565b7f3200000000000000000000000000000000000000000000000000000000000000600082015250565b7f4552433732313a20617070726f76616c20746f2063757272656e74206f776e6560008201527f7200000000000000000000000000000000000000000000000000000000000000602082015250565b7f4552433732313a207472616e736665722063616c6c6572206973206e6f74206f60008201527f776e6572206e6f7220617070726f766564000000000000000000000000000000602082015250565b7f3100000000000000000000000000000000000000000000000000000000000000600082015250565b7f3500000000000000000000000000000000000000000000000000000000000000600082015250565b7f3600000000000000000000000000000000000000000000000000000000000000600082015250565b7f3800000000000000000000000000000000000000000000000000000000000000600082015250565b60048110615dda57615dd96155a8565b5b50565b615de68161536e565b8114615df157600080fd5b50565b615dfd81615380565b8114615e0857600080fd5b50565b615e148161538c565b8114615e1f57600080fd5b50565b615e2b816153eb565b8114615e3657600080fd5b5056fea26469706673582212201676149809d8e00c8c57ff848556fc1ca0e9753e7a574785999d554282df34a464736f6c63430008040033",
  "linkReferences": {},
  "deployedLinkReferences": {}
}