{
  "_format": "hh-sol-artifact-1",
  "contractName": "Decibling",
  "sourceName": "contracts/DbAudio.sol",
  "abi": [
    {
      "anonymous": false,
      "inputs": [
        {
          "indexed": true,
          "internalType": "address",
          "name": "owner",
          "type": "address"
        },
        {
          "indexed": true,
          "internalType": "address",
          "name": "approved",
          "type": "address"
        },
        {
          "indexed": true,
          "internalType": "uint256",
          "name": "tokenId",
          "type": "uint256"
        }
      ],
      "name": "Approval",
      "type": "event"
    },
    {
      "anonymous": false,
      "inputs": [
        {
          "indexed": true,
          "internalType": "address",
          "name": "owner",
          "type": "address"
        },
        {
          "indexed": true,
          "internalType": "address",
          "name": "operator",
          "type": "address"
        },
        {
          "indexed": false,
          "internalType": "bool",
          "name": "approved",
          "type": "bool"
        }
      ],
      "name": "ApprovalForAll",
      "type": "event"
    },
    {
      "anonymous": false,
      "inputs": [
        {
          "indexed": false,
          "internalType": "uint8",
          "name": "version",
          "type": "uint8"
        }
      ],
      "name": "Initialized",
      "type": "event"
    },
    {
      "anonymous": false,
      "inputs": [
        {
          "indexed": true,
          "internalType": "address",
          "name": "previousOwner",
          "type": "address"
        },
        {
          "indexed": true,
          "internalType": "address",
          "name": "newOwner",
          "type": "address"
        }
      ],
      "name": "OwnershipTransferred",
      "type": "event"
    },
    {
      "anonymous": false,
      "inputs": [
        {
          "indexed": true,
          "internalType": "address",
          "name": "from",
          "type": "address"
        },
        {
          "indexed": true,
          "internalType": "address",
          "name": "to",
          "type": "address"
        },
        {
          "indexed": true,
          "internalType": "uint256",
          "name": "tokenId",
          "type": "uint256"
        }
      ],
      "name": "Transfer",
      "type": "event"
    },
    {
      "inputs": [
        {
          "internalType": "address",
          "name": "to",
          "type": "address"
        },
        {
          "internalType": "uint256",
          "name": "tokenId",
          "type": "uint256"
        }
      ],
      "name": "approve",
      "outputs": [],
      "stateMutability": "nonpayable",
      "type": "function"
    },
    {
      "inputs": [
        {
          "internalType": "address",
          "name": "owner",
          "type": "address"
        }
      ],
      "name": "balanceOf",
      "outputs": [
        {
          "internalType": "uint256",
          "name": "",
          "type": "uint256"
        }
      ],
      "stateMutability": "view",
      "type": "function"
    },
    {
      "inputs": [
        {
          "internalType": "string",
          "name": "uri",
          "type": "string"
        }
      ],
      "name": "bid",
      "outputs": [],
      "stateMutability": "payable",
      "type": "function"
    },
    {
      "inputs": [],
      "name": "biddingFee",
      "outputs": [
        {
          "internalType": "uint256",
          "name": "",
          "type": "uint256"
        }
      ],
      "stateMutability": "view",
      "type": "function"
    },
    {
      "inputs": [
        {
          "internalType": "string",
          "name": "uri",
          "type": "string"
        },
        {
          "internalType": "uint256",
          "name": "startPrice",
          "type": "uint256"
        },
        {
          "internalType": "uint256",
          "name": "startTime",
          "type": "uint256"
        },
        {
          "internalType": "uint256",
          "name": "endTime",
          "type": "uint256"
        }
      ],
      "name": "createBidding",
      "outputs": [],
      "stateMutability": "payable",
      "type": "function"
    },
    {
      "inputs": [
        {
          "internalType": "string",
          "name": "uri",
          "type": "string"
        },
        {
          "internalType": "string",
          "name": "name",
          "type": "string"
        },
        {
          "internalType": "uint256",
          "name": "price",
          "type": "uint256"
        }
      ],
      "name": "createNFT",
      "outputs": [
        {
          "internalType": "uint256",
          "name": "",
          "type": "uint256"
        }
      ],
      "stateMutability": "nonpayable",
      "type": "function"
    },
    {
      "inputs": [
        {
          "internalType": "uint256",
          "name": "tokenId",
          "type": "uint256"
        }
      ],
      "name": "getApproved",
      "outputs": [
        {
          "internalType": "address",
          "name": "",
          "type": "address"
        }
      ],
      "stateMutability": "view",
      "type": "function"
    },
    {
      "inputs": [
        {
          "internalType": "uint256",
          "name": "",
          "type": "uint256"
        }
      ],
      "name": "indexOfToken",
      "outputs": [
        {
          "internalType": "uint256",
          "name": "",
          "type": "uint256"
        }
      ],
      "stateMutability": "view",
      "type": "function"
    },
    {
      "inputs": [],
      "name": "initialize",
      "outputs": [],
      "stateMutability": "nonpayable",
      "type": "function"
    },
    {
      "inputs": [
        {
          "internalType": "address",
          "name": "owner",
          "type": "address"
        },
        {
          "internalType": "address",
          "name": "operator",
          "type": "address"
        }
      ],
      "name": "isApprovedForAll",
      "outputs": [
        {
          "internalType": "bool",
          "name": "",
          "type": "bool"
        }
      ],
      "stateMutability": "view",
      "type": "function"
    },
    {
      "inputs": [
        {
          "internalType": "string",
          "name": "",
          "type": "string"
        }
      ],
      "name": "listNFT",
      "outputs": [
        {
          "internalType": "address",
          "name": "owner",
          "type": "address"
        },
        {
          "internalType": "string",
          "name": "url",
          "type": "string"
        },
        {
          "internalType": "string",
          "name": "name",
          "type": "string"
        },
        {
          "internalType": "uint256",
          "name": "price",
          "type": "uint256"
        },
        {
          "internalType": "enum Decibling.AudioStatus",
          "name": "status",
          "type": "uint8"
        },
        {
          "internalType": "uint256",
          "name": "currentBidding",
          "type": "uint256"
        }
      ],
      "stateMutability": "view",
      "type": "function"
    },
    {
      "inputs": [
        {
          "internalType": "address",
          "name": "",
          "type": "address"
        },
        {
          "internalType": "uint256",
          "name": "",
          "type": "uint256"
        }
      ],
      "name": "listOwnToken",
      "outputs": [
        {
          "internalType": "uint256",
          "name": "",
          "type": "uint256"
        }
      ],
      "stateMutability": "view",
      "type": "function"
    },
    {
      "inputs": [],
      "name": "name",
      "outputs": [
        {
          "internalType": "string",
          "name": "",
          "type": "string"
        }
      ],
      "stateMutability": "view",
      "type": "function"
    },
    {
      "inputs": [],
      "name": "owner",
      "outputs": [
        {
          "internalType": "address",
          "name": "",
          "type": "address"
        }
      ],
      "stateMutability": "view",
      "type": "function"
    },
    {
      "inputs": [
        {
          "internalType": "uint256",
          "name": "tokenId",
          "type": "uint256"
        }
      ],
      "name": "ownerOf",
      "outputs": [
        {
          "internalType": "address",
          "name": "",
          "type": "address"
        }
      ],
      "stateMutability": "view",
      "type": "function"
    },
    {
      "inputs": [],
      "name": "renounceOwnership",
      "outputs": [],
      "stateMutability": "nonpayable",
      "type": "function"
    },
    {
      "inputs": [
        {
          "internalType": "address",
          "name": "from",
          "type": "address"
        },
        {
          "internalType": "address",
          "name": "to",
          "type": "address"
        },
        {
          "internalType": "uint256",
          "name": "tokenId",
          "type": "uint256"
        }
      ],
      "name": "safeTransferFrom",
      "outputs": [],
      "stateMutability": "nonpayable",
      "type": "function"
    },
    {
      "inputs": [
        {
          "internalType": "address",
          "name": "from",
          "type": "address"
        },
        {
          "internalType": "address",
          "name": "to",
          "type": "address"
        },
        {
          "internalType": "uint256",
          "name": "tokenId",
          "type": "uint256"
        },
        {
          "internalType": "bytes",
          "name": "_data",
          "type": "bytes"
        }
      ],
      "name": "safeTransferFrom",
      "outputs": [],
      "stateMutability": "nonpayable",
      "type": "function"
    },
    {
      "inputs": [
        {
          "internalType": "address",
          "name": "operator",
          "type": "address"
        },
        {
          "internalType": "bool",
          "name": "approved",
          "type": "bool"
        }
      ],
      "name": "setApprovalForAll",
      "outputs": [],
      "stateMutability": "nonpayable",
      "type": "function"
    },
    {
      "inputs": [
        {
          "internalType": "string",
          "name": "uri",
          "type": "string"
        },
        {
          "internalType": "uint256",
          "name": "price",
          "type": "uint256"
        }
      ],
      "name": "setPriceNFT",
      "outputs": [],
      "stateMutability": "nonpayable",
      "type": "function"
    },
    {
      "inputs": [
        {
          "internalType": "uint256",
          "name": "share",
          "type": "uint256"
        }
      ],
      "name": "setSharePercent",
      "outputs": [],
      "stateMutability": "nonpayable",
      "type": "function"
    },
    {
      "inputs": [
        {
          "internalType": "uint256",
          "name": "money",
          "type": "uint256"
        }
      ],
      "name": "setbiddingFee",
      "outputs": [],
      "stateMutability": "nonpayable",
      "type": "function"
    },
    {
      "inputs": [
        {
          "internalType": "string",
          "name": "uri",
          "type": "string"
        }
      ],
      "name": "settleBiddingSession",
      "outputs": [],
      "stateMutability": "nonpayable",
      "type": "function"
    },
    {
      "inputs": [],
      "name": "sharePercent",
      "outputs": [
        {
          "internalType": "uint256",
          "name": "",
          "type": "uint256"
        }
      ],
      "stateMutability": "view",
      "type": "function"
    },
    {
      "inputs": [
        {
          "internalType": "bytes4",
          "name": "interfaceId",
          "type": "bytes4"
        }
      ],
      "name": "supportsInterface",
      "outputs": [
        {
          "internalType": "bool",
          "name": "",
          "type": "bool"
        }
      ],
      "stateMutability": "view",
      "type": "function"
    },
    {
      "inputs": [],
      "name": "symbol",
      "outputs": [
        {
          "internalType": "string",
          "name": "",
          "type": "string"
        }
      ],
      "stateMutability": "view",
      "type": "function"
    },
    {
      "inputs": [
        {
          "internalType": "string",
          "name": "",
          "type": "string"
        }
      ],
      "name": "tokenIdMapping",
      "outputs": [
        {
          "internalType": "uint256",
          "name": "",
          "type": "uint256"
        }
      ],
      "stateMutability": "view",
      "type": "function"
    },
    {
      "inputs": [
        {
          "internalType": "uint256",
          "name": "tokenId",
          "type": "uint256"
        }
      ],
      "name": "tokenURI",
      "outputs": [
        {
          "internalType": "string",
          "name": "",
          "type": "string"
        }
      ],
      "stateMutability": "view",
      "type": "function"
    },
    {
      "inputs": [
        {
          "internalType": "address",
          "name": "from",
          "type": "address"
        },
        {
          "internalType": "address",
          "name": "to",
          "type": "address"
        },
        {
          "internalType": "uint256",
          "name": "tokenId",
          "type": "uint256"
        }
      ],
      "name": "transferFrom",
      "outputs": [],
      "stateMutability": "nonpayable",
      "type": "function"
    },
    {
      "inputs": [
        {
          "internalType": "string",
          "name": "uri",
          "type": "string"
        },
        {
          "internalType": "address",
          "name": "to",
          "type": "address"
        }
      ],
      "name": "transferNFT",
      "outputs": [],
      "stateMutability": "nonpayable",
      "type": "function"
    },
    {
      "inputs": [
        {
          "internalType": "address",
          "name": "newOwner",
          "type": "address"
        }
      ],
      "name": "transferOwnership",
      "outputs": [],
      "stateMutability": "nonpayable",
      "type": "function"
    },
    {
      "inputs": [
        {
          "internalType": "uint256",
          "name": "money",
          "type": "uint256"
        }
      ],
      "name": "withDrawAll",
      "outputs": [],
      "stateMutability": "nonpayable",
      "type": "function"
    }
  ],
  "bytecode": "0x608060405234801561001057600080fd5b50615d8580620000216000396000f3fe6080604052600436106101e35760003560e01c80638129fc1c11610102578063b88eabdd11610095578063d8189e0511610064578063d8189e05146106e9578063e985e9c514610726578063f2fde38b14610763578063ff41edbc1461078c576101e3565b8063b88eabdd1461061b578063c15edf5f14610658578063c87b56dd14610683578063cf023fdd146106c0576101e3565b8063a22cb465116100d1578063a22cb46514610577578063a818e0c8146105a0578063ab8a8020146105c9578063b88d4fde146105f2576101e3565b80638129fc1c146104e157806386d060fe146104f85780638da5cb5b1461052157806395d89b411461054c576101e3565b80634387330e1161017a5780636352211e116101495780636352211e1461043457806370a0823114610471578063715018a6146104ae5780637aef951c146104c5576101e3565b80634387330e1461036e57806348005848146103b057806349706de7146103cc5780635ffd9d07146103f7576101e3565b806323b872dd116101b657806323b872dd146102b65780633241d34a146102df578063411e9ef21461031c57806342842e0e14610345576101e3565b806301ffc9a7146101e857806306fdde0314610225578063081812fc14610250578063095ea7b31461028d575b600080fd5b3480156101f457600080fd5b5061020f600480360381019061020a91906142f3565b6107b5565b60405161021c9190614c69565b60405180910390f35b34801561023157600080fd5b5061023a610897565b6040516102479190614c9f565b60405180910390f35b34801561025c57600080fd5b5061027760048036038101906102729190614528565b610929565b6040516102849190614b93565b60405180910390f35b34801561029957600080fd5b506102b460048036038101906102af91906142b7565b61096f565b005b3480156102c257600080fd5b506102dd60048036038101906102d891906141b1565b610a87565b005b3480156102eb57600080fd5b50610306600480360381019061030191906143da565b610d5e565b60405161031391906150e1565b60405180910390f35b34801561032857600080fd5b50610343600480360381019061033e9190614528565b611096565b005b34801561035157600080fd5b5061036c600480360381019061036791906141b1565b6110f9565b005b34801561037a57600080fd5b5061039560048036038101906103909190614345565b611119565b6040516103a796959493929190614bfa565b60405180910390f35b6103ca60048036038101906103c591906144ad565b6112a8565b005b3480156103d857600080fd5b506103e16117a6565b6040516103ee91906150e1565b60405180910390f35b34801561040357600080fd5b5061041e60048036038101906104199190614528565b6117ac565b60405161042b91906150e1565b60405180910390f35b34801561044057600080fd5b5061045b60048036038101906104569190614528565b6117c5565b6040516104689190614b93565b60405180910390f35b34801561047d57600080fd5b506104986004803603810190610493919061414c565b611877565b6040516104a591906150e1565b60405180910390f35b3480156104ba57600080fd5b506104c361192f565b005b6104df60048036038101906104da9190614345565b611943565b005b3480156104ed57600080fd5b506104f6611d75565b005b34801561050457600080fd5b5061051f600480360381019061051a9190614528565b611f2f565b005b34801561052d57600080fd5b50610536611f41565b6040516105439190614b93565b60405180910390f35b34801561055857600080fd5b50610561611f6b565b60405161056e9190614c9f565b60405180910390f35b34801561058357600080fd5b5061059e6004803603810190610599919061427b565b611ffd565b005b3480156105ac57600080fd5b506105c760048036038101906105c29190614459565b612013565b005b3480156105d557600080fd5b506105f060048036038101906105eb9190614528565b6120d5565b005b3480156105fe57600080fd5b5061061960048036038101906106149190614200565b612127565b005b34801561062757600080fd5b50610642600480360381019061063d9190614345565b612400565b60405161064f91906150e1565b60405180910390f35b34801561066457600080fd5b5061066d61242e565b60405161067a91906150e1565b60405180910390f35b34801561068f57600080fd5b506106aa60048036038101906106a59190614528565b612434565b6040516106b79190614c9f565b60405180910390f35b3480156106cc57600080fd5b506106e760048036038101906106e29190614386565b612446565b005b3480156106f557600080fd5b50610710600480360381019061070b91906142b7565b6125cc565b60405161071d91906150e1565b60405180910390f35b34801561073257600080fd5b5061074d60048036038101906107489190614175565b6125fe565b60405161075a9190614c69565b60405180910390f35b34801561076f57600080fd5b5061078a6004803603810190610785919061414c565b612692565b005b34801561079857600080fd5b506107b360048036038101906107ae9190614345565b612716565b005b60007f80ac58cd000000000000000000000000000000000000000000000000000000007bffffffffffffffffffffffffffffffffffffffffffffffffffffffff1916827bffffffffffffffffffffffffffffffffffffffffffffffffffffffff1916148061088057507f5b5e139f000000000000000000000000000000000000000000000000000000007bffffffffffffffffffffffffffffffffffffffffffffffffffffffff1916827bffffffffffffffffffffffffffffffffffffffffffffffffffffffff1916145b80610890575061088f82612cec565b5b9050919050565b6060606580546108a6906153f5565b80601f01602080910402602001604051908101604052809291908181526020018280546108d2906153f5565b801561091f5780601f106108f45761010080835404028352916020019161091f565b820191906000526020600020905b81548152906001019060200180831161090257829003601f168201915b5050505050905090565b600061093482612d56565b6069600083815260200190815260200160002060009054906101000a900473ffffffffffffffffffffffffffffffffffffffff169050919050565b600061097a826117c5565b90508073ffffffffffffffffffffffffffffffffffffffff168373ffffffffffffffffffffffffffffffffffffffff1614156109eb576040517f08c379a00000000000000000000000000000000000000000000000000000000081526004016109e290614fe1565b60405180910390fd5b8073ffffffffffffffffffffffffffffffffffffffff16610a0a612da1565b73ffffffffffffffffffffffffffffffffffffffff161480610a395750610a3881610a33612da1565b6125fe565b5b610a78576040517f08c379a0000000000000000000000000000000000000000000000000000000008152600401610a6f90614f41565b60405180910390fd5b610a828383612da9565b505050565b61010060008373ffffffffffffffffffffffffffffffffffffffff1673ffffffffffffffffffffffffffffffffffffffff16815260200190815260200160002081908060018154018082558091505060019003906000526020600020016000909190919091505561010060008473ffffffffffffffffffffffffffffffffffffffff1673ffffffffffffffffffffffffffffffffffffffff168152602001908152602001600020600161010060008673ffffffffffffffffffffffffffffffffffffffff1673ffffffffffffffffffffffffffffffffffffffff16815260200190815260200160002080549050610b7e91906152c7565b81548110610bb5577f4e487b7100000000000000000000000000000000000000000000000000000000600052603260045260246000fd5b906000526020600020015461010060008573ffffffffffffffffffffffffffffffffffffffff1673ffffffffffffffffffffffffffffffffffffffff16815260200190815260200160002061010160008481526020019081526020016000205481548110610c4c577f4e487b7100000000000000000000000000000000000000000000000000000000600052603260045260246000fd5b906000526020600020018190555061010060008473ffffffffffffffffffffffffffffffffffffffff1673ffffffffffffffffffffffffffffffffffffffff168152602001908152602001600020805480610cd0577f4e487b7100000000000000000000000000000000000000000000000000000000600052603160045260246000fd5b60019003818190600052602060002001600090559055600161010060008473ffffffffffffffffffffffffffffffffffffffff1673ffffffffffffffffffffffffffffffffffffffff16815260200190815260200160002080549050610d3691906152c7565b610101600083815260200190815260200160002081905550610d59838383612e62565b505050565b60008060fe85604051610d719190614b58565b90815260200160405180910390209050848051906020012081600101604051610d9a9190614b41565b60405180910390201415610de3576040517f08c379a0000000000000000000000000000000000000000000000000000000008152600401610dda90614fa1565b60405180910390fd5b6000610def60fb612ec2565b9050610dfb60fb612ed0565b3360fe87604051610e0c9190614b58565b908152602001604051809103902060000160006101000a81548173ffffffffffffffffffffffffffffffffffffffff021916908373ffffffffffffffffffffffffffffffffffffffff1602179055508560fe87604051610e6c9190614b58565b90815260200160405180910390206001019080519060200190610e90929190613f70565b508460fe87604051610ea29190614b58565b90815260200160405180910390206002019080519060200190610ec6929190613f70565b508360fe87604051610ed89190614b58565b908152602001604051809103902060030181905550600060fe87604051610eff9190614b58565b908152602001604051809103902060040160006101000a81548160ff02191690836003811115610f58577f4e487b7100000000000000000000000000000000000000000000000000000000600052602160045260246000fd5b0217905550600060fe87604051610f6f9190614b58565b908152602001604051809103902060060181905550610f8e3382612ee6565b610f988187612f04565b8060ff87604051610fa99190614b58565b90815260200160405180910390208190555061010060003373ffffffffffffffffffffffffffffffffffffffff1673ffffffffffffffffffffffffffffffffffffffff168152602001908152602001600020819080600181540180825580915050600190039060005260206000200160009091909190915055600161010060003373ffffffffffffffffffffffffffffffffffffffff1673ffffffffffffffffffffffffffffffffffffffff1681526020019081526020016000208054905061107291906152c7565b61010160008381526020019081526020016000208190555080925050509392505050565b61109e612f78565b600081101580156110b0575060648111155b6110ef576040517f08c379a00000000000000000000000000000000000000000000000000000000081526004016110e690615001565b60405180910390fd5b8060fc8190555050565b61111483838360405180602001604052806000815250612127565b505050565b60fe818051602081018201805184825260208301602085012081835280955050505050506000915090508060000160009054906101000a900473ffffffffffffffffffffffffffffffffffffffff1690806001018054611178906153f5565b80601f01602080910402602001604051908101604052809291908181526020018280546111a4906153f5565b80156111f15780601f106111c6576101008083540402835291602001916111f1565b820191906000526020600020905b8154815290600101906020018083116111d457829003601f168201915b505050505090806002018054611206906153f5565b80601f0160208091040260200160405190810160405280929190818152602001828054611232906153f5565b801561127f5780601f106112545761010080835404028352916020019161127f565b820191906000526020600020905b81548152906001019060200180831161126257829003601f168201915b5050505050908060030154908060040160009054906101000a900460ff16908060060154905086565b8082106112ea576040517f08c379a00000000000000000000000000000000000000000000000000000000081526004016112e190614ce1565b60405180910390fd5b600060fe856040516112fc9190614b58565b908152602001604051809103902090508480519060200120816001016040516113259190614b41565b60405180910390201461136d576040517f08c379a000000000000000000000000000000000000000000000000000000000815260040161136490614cc1565b60405180910390fd5b3373ffffffffffffffffffffffffffffffffffffffff168160000160009054906101000a900473ffffffffffffffffffffffffffffffffffffffff1673ffffffffffffffffffffffffffffffffffffffff16146113ff576040517f08c379a00000000000000000000000000000000000000000000000000000000081526004016113f690615081565b60405180910390fd5b428211611441576040517f08c379a000000000000000000000000000000000000000000000000000000000815260040161143890614e41565b60405180910390fd5b6000600381111561147b577f4e487b7100000000000000000000000000000000000000000000000000000000600052602160045260246000fd5b8160040160009054906101000a900460ff1660038111156114c5577f4e487b7100000000000000000000000000000000000000000000000000000000600052602160045260246000fd5b14806115515750600380811115611505577f4e487b7100000000000000000000000000000000000000000000000000000000600052602160045260246000fd5b8160040160009054906101000a900460ff16600381111561154f577f4e487b7100000000000000000000000000000000000000000000000000000000600052602160045260246000fd5b145b611590576040517f08c379a0000000000000000000000000000000000000000000000000000000008152600401611587906150a1565b60405180910390fd5b3460fd5411156115d5576040517f08c379a00000000000000000000000000000000000000000000000000000000081526004016115cc90615041565b60405180910390fd5b60018160060160008282546115ea91906151e6565b9250508190555060008160050160008360060154815260200190815260200160002060000160006101000a81548173ffffffffffffffffffffffffffffffffffffffff021916908373ffffffffffffffffffffffffffffffffffffffff16021790555083816005016000836006015481526020019081526020016000206001018190555042831161167c57600061167f565b60015b8160050160008360060154815260200190815260200160002060020160006101000a81548160ff021916908360038111156116e3577f4e487b7100000000000000000000000000000000000000000000000000000000600052602160045260246000fd5b02179055508281600501600083600601548152602001908152602001600020600301819055508181600501600083600601548152602001908152602001600020600401819055506000816005016000836006015481526020019081526020016000206005018190555060018160040160006101000a81548160ff0219169083600381111561179a577f4e487b7100000000000000000000000000000000000000000000000000000000600052602160045260246000fd5b02179055505050505050565b60fd5481565b6101016020528060005260406000206000915090505481565b6000806067600084815260200190815260200160002060009054906101000a900473ffffffffffffffffffffffffffffffffffffffff169050600073ffffffffffffffffffffffffffffffffffffffff168173ffffffffffffffffffffffffffffffffffffffff16141561186e576040517f08c379a000000000000000000000000000000000000000000000000000000000815260040161186590614fc1565b60405180910390fd5b80915050919050565b60008073ffffffffffffffffffffffffffffffffffffffff168273ffffffffffffffffffffffffffffffffffffffff1614156118e8576040517f08c379a00000000000000000000000000000000000000000000000000000000081526004016118df90614e81565b60405180910390fd5b606860008373ffffffffffffffffffffffffffffffffffffffff1673ffffffffffffffffffffffffffffffffffffffff168152602001908152602001600020549050919050565b611937612f78565b6119416000612ff6565b565b600060fe826040516119559190614b58565b9081526020016040518091039020905081805190602001208160010160405161197e9190614b41565b6040518091039020146119c6576040517f08c379a00000000000000000000000000000000000000000000000000000000081526004016119bd90614cc1565b60405180910390fd5b60016003811115611a00577f4e487b7100000000000000000000000000000000000000000000000000000000600052602160045260246000fd5b8160040160009054906101000a900460ff166003811115611a4a577f4e487b7100000000000000000000000000000000000000000000000000000000600052602160045260246000fd5b14611a8a576040517f08c379a0000000000000000000000000000000000000000000000000000000008152600401611a8190614d01565b60405180910390fd5b600081600601541415611ad2576040517f08c379a0000000000000000000000000000000000000000000000000000000008152600401611ac990614ec1565b60405180910390fd5b600081600501600083600601548152602001908152602001600020905042816003015411158015611b07575080600401544211155b611b46576040517f08c379a0000000000000000000000000000000000000000000000000000000008152600401611b3d90614f21565b60405180910390fd5b34816001015410611b8c576040517f08c379a0000000000000000000000000000000000000000000000000000000008152600401611b8390614ee1565b60405180910390fd5b60028160020160006101000a81548160ff02191690836003811115611bda577f4e487b7100000000000000000000000000000000000000000000000000000000600052602160045260246000fd5b0217905550600060405180606001604052803373ffffffffffffffffffffffffffffffffffffffff1681526020013481526020014281525090506001826005016000828254611c2991906151e6565b92505081905550808260060160008460050154815260200190815260200160002060008201518160000160006101000a81548173ffffffffffffffffffffffffffffffffffffffff021916908373ffffffffffffffffffffffffffffffffffffffff160217905550602082015181600101556040820151816002015590505060008260000160009054906101000a900473ffffffffffffffffffffffffffffffffffffffff169050600083600101549050338460000160006101000a81548173ffffffffffffffffffffffffffffffffffffffff021916908373ffffffffffffffffffffffffffffffffffffffff1602179055503484600101819055508173ffffffffffffffffffffffffffffffffffffffff166108fc829081150290604051600060405180830381858888f19350505050158015611d6c573d6000803e3d6000fd5b50505050505050565b60008060019054906101000a900460ff16159050808015611da65750600160008054906101000a900460ff1660ff16105b80611dd35750611db5306130bc565b158015611dd25750600160008054906101000a900460ff1660ff16145b5b611e12576040517f08c379a0000000000000000000000000000000000000000000000000000000008152600401611e0990614f01565b60405180910390fd5b60016000806101000a81548160ff021916908360ff1602179055508015611e4f576001600060016101000a81548160ff0219169083151502179055505b611ec36040518060400160405280600a81526020017f4465636962696c696e67000000000000000000000000000000000000000000008152506040518060400160405280600281526020017f44420000000000000000000000000000000000000000000000000000000000008152506130df565b611ecb61313c565b611ed361318d565b8015611f2c5760008060016101000a81548160ff0219169083151502179055507f7f26b83ff96e1f2b6a682f133852f6798a09c465da95921460cefb38474024986001604051611f239190614c84565b60405180910390a15b50565b611f37612f78565b8060fd8190555050565b6000609760009054906101000a900473ffffffffffffffffffffffffffffffffffffffff16905090565b606060668054611f7a906153f5565b80601f0160208091040260200160405190810160405280929190818152602001828054611fa6906153f5565b8015611ff35780601f10611fc857610100808354040283529160200191611ff3565b820191906000526020600020905b815481529060010190602001808311611fd657829003601f168201915b5050505050905090565b61200f612008612da1565b83836131e6565b5050565b600060fe836040516120259190614b58565b908152602001604051809103902090503373ffffffffffffffffffffffffffffffffffffffff168160000160009054906101000a900473ffffffffffffffffffffffffffffffffffffffff1673ffffffffffffffffffffffffffffffffffffffff16146120c7576040517f08c379a00000000000000000000000000000000000000000000000000000000081526004016120be90614de1565b60405180910390fd5b818160030181905550505050565b6120dd612f78565b3373ffffffffffffffffffffffffffffffffffffffff166108fc829081150290604051600060405180830381858888f19350505050158015612123573d6000803e3d6000fd5b5050565b61010060008473ffffffffffffffffffffffffffffffffffffffff1673ffffffffffffffffffffffffffffffffffffffff16815260200190815260200160002082908060018154018082558091505060019003906000526020600020016000909190919091505561010060008573ffffffffffffffffffffffffffffffffffffffff1673ffffffffffffffffffffffffffffffffffffffff168152602001908152602001600020600161010060008773ffffffffffffffffffffffffffffffffffffffff1673ffffffffffffffffffffffffffffffffffffffff1681526020019081526020016000208054905061221e91906152c7565b81548110612255577f4e487b7100000000000000000000000000000000000000000000000000000000600052603260045260246000fd5b906000526020600020015461010060008673ffffffffffffffffffffffffffffffffffffffff1673ffffffffffffffffffffffffffffffffffffffff168152602001908152602001600020610101600085815260200190815260200160002054815481106122ec577f4e487b7100000000000000000000000000000000000000000000000000000000600052603260045260246000fd5b906000526020600020018190555061010060008573ffffffffffffffffffffffffffffffffffffffff1673ffffffffffffffffffffffffffffffffffffffff168152602001908152602001600020805480612370577f4e487b7100000000000000000000000000000000000000000000000000000000600052603160045260246000fd5b60019003818190600052602060002001600090559055600161010060008573ffffffffffffffffffffffffffffffffffffffff1673ffffffffffffffffffffffffffffffffffffffff168152602001908152602001600020805490506123d691906152c7565b6101016000848152602001908152602001600020819055506123fa84848484613353565b50505050565b60ff818051602081018201805184825260208301602085012081835280955050505050506000915090505481565b60fc5481565b606061243f826133b5565b9050919050565b600060fe836040516124589190614b58565b908152602001604051809103902090508280519060200120816001016040516124819190614b41565b6040518091039020146124c9576040517f08c379a00000000000000000000000000000000000000000000000000000000081526004016124c090614cc1565b60405180910390fd5b3373ffffffffffffffffffffffffffffffffffffffff168160000160009054906101000a900473ffffffffffffffffffffffffffffffffffffffff1673ffffffffffffffffffffffffffffffffffffffff161461255b576040517f08c379a000000000000000000000000000000000000000000000000000000000815260040161255290615021565b60405180910390fd5b612584338360ff866040516125709190614b58565b9081526020016040518091039020546110f9565b818160000160006101000a81548173ffffffffffffffffffffffffffffffffffffffff021916908373ffffffffffffffffffffffffffffffffffffffff160217905550505050565b61010060205281600052604060002081815481106125e957600080fd5b90600052602060002001600091509150505481565b6000606a60008473ffffffffffffffffffffffffffffffffffffffff1673ffffffffffffffffffffffffffffffffffffffff16815260200190815260200160002060008373ffffffffffffffffffffffffffffffffffffffff1673ffffffffffffffffffffffffffffffffffffffff16815260200190815260200160002060009054906101000a900460ff16905092915050565b61269a612f78565b600073ffffffffffffffffffffffffffffffffffffffff168173ffffffffffffffffffffffffffffffffffffffff16141561270a576040517f08c379a000000000000000000000000000000000000000000000000000000000815260040161270190614d61565b60405180910390fd5b61271381612ff6565b50565b600060fe826040516127289190614b58565b908152602001604051809103902090508180519060200120816001016040516127519190614b41565b604051809103902014612799576040517f08c379a000000000000000000000000000000000000000000000000000000000815260040161279090614cc1565b60405180910390fd5b600160038111156127d3577f4e487b7100000000000000000000000000000000000000000000000000000000600052602160045260246000fd5b8160040160009054906101000a900460ff16600381111561281d577f4e487b7100000000000000000000000000000000000000000000000000000000600052602160045260246000fd5b1461285d576040517f08c379a000000000000000000000000000000000000000000000000000000000815260040161285490614e61565b60405180910390fd5b6000816006015414156128a5576040517f08c379a000000000000000000000000000000000000000000000000000000000815260040161289c90614ec1565b60405180910390fd5b60008160050160008360060154815260200190815260200160002090504281600301541080156128d85750806004015442115b612917576040517f08c379a000000000000000000000000000000000000000000000000000000000815260040161290e90614d21565b60405180910390fd5b60026003811115612951577f4e487b7100000000000000000000000000000000000000000000000000000000600052602160045260246000fd5b8160020160009054906101000a900460ff16600381111561299b577f4e487b7100000000000000000000000000000000000000000000000000000000600052602160045260246000fd5b1480612a285750600160038111156129dc577f4e487b7100000000000000000000000000000000000000000000000000000000600052602160045260246000fd5b8260040160009054906101000a900460ff166003811115612a26577f4e487b7100000000000000000000000000000000000000000000000000000000600052602160045260246000fd5b145b612a67576040517f08c379a0000000000000000000000000000000000000000000000000000000008152600401612a5e90614d81565b60405180910390fd5b600073ffffffffffffffffffffffffffffffffffffffff168160000160009054906101000a900473ffffffffffffffffffffffffffffffffffffffff1673ffffffffffffffffffffffffffffffffffffffff1614612c4157600081600101549050600060fc541115612afc57606460fc546064612ae491906152c7565b82612aef919061526d565b612af9919061523c565b90505b8260000160009054906101000a900473ffffffffffffffffffffffffffffffffffffffff1673ffffffffffffffffffffffffffffffffffffffff166108fc829081150290604051600060405180830381858888f19350505050158015612b66573d6000803e3d6000fd5b50612bd88360000160009054906101000a900473ffffffffffffffffffffffffffffffffffffffff168360000160009054906101000a900473ffffffffffffffffffffffffffffffffffffffff1660ff87604051612bc49190614b58565b9081526020016040518091039020546110f9565b8160000160009054906101000a900473ffffffffffffffffffffffffffffffffffffffff168360000160006101000a81548173ffffffffffffffffffffffffffffffffffffffff021916908373ffffffffffffffffffffffffffffffffffffffff160217905550505b60038160020160006101000a81548160ff02191690836003811115612c8f577f4e487b7100000000000000000000000000000000000000000000000000000000600052602160045260246000fd5b021790555060038260040160006101000a81548160ff02191690836003811115612ce2577f4e487b7100000000000000000000000000000000000000000000000000000000600052602160045260246000fd5b0217905550505050565b60007f01ffc9a7000000000000000000000000000000000000000000000000000000007bffffffffffffffffffffffffffffffffffffffffffffffffffffffff1916827bffffffffffffffffffffffffffffffffffffffffffffffffffffffff1916149050919050565b612d5f816134c8565b612d9e576040517f08c379a0000000000000000000000000000000000000000000000000000000008152600401612d9590614fc1565b60405180910390fd5b50565b600033905090565b816069600083815260200190815260200160002060006101000a81548173ffffffffffffffffffffffffffffffffffffffff021916908373ffffffffffffffffffffffffffffffffffffffff160217905550808273ffffffffffffffffffffffffffffffffffffffff16612e1c836117c5565b73ffffffffffffffffffffffffffffffffffffffff167f8c5be1e5ebec7d5bd14f71427d1e84f3dd0314c0f7b2291e5b200ac8c7c3b92560405160405180910390a45050565b612e73612e6d612da1565b82613534565b612eb2576040517f08c379a0000000000000000000000000000000000000000000000000000000008152600401612ea9906150c1565b60405180910390fd5b612ebd8383836135c9565b505050565b600081600001549050919050565b6001816000016000828254019250508190555050565b612f00828260405180602001604052806000815250613830565b5050565b612f0d826134c8565b612f4c576040517f08c379a0000000000000000000000000000000000000000000000000000000008152600401612f4390614ea1565b60405180910390fd5b8060c960008481526020019081526020016000209080519060200190612f73929190613f70565b505050565b612f80612da1565b73ffffffffffffffffffffffffffffffffffffffff16612f9e611f41565b73ffffffffffffffffffffffffffffffffffffffff1614612ff4576040517f08c379a0000000000000000000000000000000000000000000000000000000008152600401612feb90614f81565b60405180910390fd5b565b6000609760009054906101000a900473ffffffffffffffffffffffffffffffffffffffff16905081609760006101000a81548173ffffffffffffffffffffffffffffffffffffffff021916908373ffffffffffffffffffffffffffffffffffffffff1602179055508173ffffffffffffffffffffffffffffffffffffffff168173ffffffffffffffffffffffffffffffffffffffff167f8be0079c531659141344cd1fd0a4f28419497f9722a3daafe3b4186f6b6457e060405160405180910390a35050565b6000808273ffffffffffffffffffffffffffffffffffffffff163b119050919050565b600060019054906101000a900460ff1661312e576040517f08c379a000000000000000000000000000000000000000000000000000000000815260040161312590615061565b60405180910390fd5b613138828261388b565b5050565b600060019054906101000a900460ff1661318b576040517f08c379a000000000000000000000000000000000000000000000000000000000815260040161318290615061565b60405180910390fd5b565b600060019054906101000a900460ff166131dc576040517f08c379a00000000000000000000000000000000000000000000000000000000081526004016131d390615061565b60405180910390fd5b6131e461390c565b565b8173ffffffffffffffffffffffffffffffffffffffff168373ffffffffffffffffffffffffffffffffffffffff161415613255576040517f08c379a000000000000000000000000000000000000000000000000000000000815260040161324c90614e21565b60405180910390fd5b80606a60008573ffffffffffffffffffffffffffffffffffffffff1673ffffffffffffffffffffffffffffffffffffffff16815260200190815260200160002060008473ffffffffffffffffffffffffffffffffffffffff1673ffffffffffffffffffffffffffffffffffffffff16815260200190815260200160002060006101000a81548160ff0219169083151502179055508173ffffffffffffffffffffffffffffffffffffffff168373ffffffffffffffffffffffffffffffffffffffff167f17307eab39ab6107e8899845ad3d59bd9653f200f220920489ca2b5937696c31836040516133469190614c69565b60405180910390a3505050565b61336461335e612da1565b83613534565b6133a3576040517f08c379a000000000000000000000000000000000000000000000000000000000815260040161339a906150c1565b60405180910390fd5b6133af8484848461396d565b50505050565b60606133c082612d56565b600060c9600084815260200190815260200160002080546133e0906153f5565b80601f016020809104026020016040519081016040528092919081815260200182805461340c906153f5565b80156134595780601f1061342e57610100808354040283529160200191613459565b820191906000526020600020905b81548152906001019060200180831161343c57829003601f168201915b50505050509050600061346a6139c9565b90506000815114156134805781925050506134c3565b6000825111156134b557808260405160200161349d929190614b6f565b604051602081830303815290604052925050506134c3565b6134be846139e0565b925050505b919050565b60008073ffffffffffffffffffffffffffffffffffffffff166067600084815260200190815260200160002060009054906101000a900473ffffffffffffffffffffffffffffffffffffffff1673ffffffffffffffffffffffffffffffffffffffff1614159050919050565b600080613540836117c5565b90508073ffffffffffffffffffffffffffffffffffffffff168473ffffffffffffffffffffffffffffffffffffffff161480613582575061358181856125fe565b5b806135c057508373ffffffffffffffffffffffffffffffffffffffff166135a884610929565b73ffffffffffffffffffffffffffffffffffffffff16145b91505092915050565b8273ffffffffffffffffffffffffffffffffffffffff166135e9826117c5565b73ffffffffffffffffffffffffffffffffffffffff161461363f576040517f08c379a000000000000000000000000000000000000000000000000000000000815260040161363690614da1565b60405180910390fd5b600073ffffffffffffffffffffffffffffffffffffffff168273ffffffffffffffffffffffffffffffffffffffff1614156136af576040517f08c379a00000000000000000000000000000000000000000000000000000000081526004016136a690614e01565b60405180910390fd5b6136ba838383613a48565b6136c5600082612da9565b6001606860008573ffffffffffffffffffffffffffffffffffffffff1673ffffffffffffffffffffffffffffffffffffffff168152602001908152602001600020600082825461371591906152c7565b925050819055506001606860008473ffffffffffffffffffffffffffffffffffffffff1673ffffffffffffffffffffffffffffffffffffffff168152602001908152602001600020600082825461376c91906151e6565b92505081905550816067600083815260200190815260200160002060006101000a81548173ffffffffffffffffffffffffffffffffffffffff021916908373ffffffffffffffffffffffffffffffffffffffff160217905550808273ffffffffffffffffffffffffffffffffffffffff168473ffffffffffffffffffffffffffffffffffffffff167fddf252ad1be2c89b69c2b068fc378daa952ba7f163c4a11628f55a4df523b3ef60405160405180910390a461382b838383613a4d565b505050565b61383a8383613a52565b6138476000848484613c2c565b613886576040517f08c379a000000000000000000000000000000000000000000000000000000000815260040161387d90614d41565b60405180910390fd5b505050565b600060019054906101000a900460ff166138da576040517f08c379a00000000000000000000000000000000000000000000000000000000081526004016138d190615061565b60405180910390fd5b81606590805190602001906138f0929190613f70565b508060669080519060200190613907929190613f70565b505050565b600060019054906101000a900460ff1661395b576040517f08c379a000000000000000000000000000000000000000000000000000000000815260040161395290615061565b60405180910390fd5b61396b613966612da1565b612ff6565b565b6139788484846135c9565b61398484848484613c2c565b6139c3576040517f08c379a00000000000000000000000000000000000000000000000000000000081526004016139ba90614d41565b60405180910390fd5b50505050565b606060405180602001604052806000815250905090565b60606139eb82612d56565b60006139f56139c9565b90506000815111613a155760405180602001604052806000815250613a40565b80613a1f84613dc3565b604051602001613a30929190614b6f565b6040516020818303038152906040525b915050919050565b505050565b505050565b600073ffffffffffffffffffffffffffffffffffffffff168273ffffffffffffffffffffffffffffffffffffffff161415613ac2576040517f08c379a0000000000000000000000000000000000000000000000000000000008152600401613ab990614f61565b60405180910390fd5b613acb816134c8565b15613b0b576040517f08c379a0000000000000000000000000000000000000000000000000000000008152600401613b0290614dc1565b60405180910390fd5b613b1760008383613a48565b6001606860008473ffffffffffffffffffffffffffffffffffffffff1673ffffffffffffffffffffffffffffffffffffffff1681526020019081526020016000206000828254613b6791906151e6565b92505081905550816067600083815260200190815260200160002060006101000a81548173ffffffffffffffffffffffffffffffffffffffff021916908373ffffffffffffffffffffffffffffffffffffffff160217905550808273ffffffffffffffffffffffffffffffffffffffff16600073ffffffffffffffffffffffffffffffffffffffff167fddf252ad1be2c89b69c2b068fc378daa952ba7f163c4a11628f55a4df523b3ef60405160405180910390a4613c2860008383613a4d565b5050565b6000613c4d8473ffffffffffffffffffffffffffffffffffffffff166130bc565b15613db6578373ffffffffffffffffffffffffffffffffffffffff1663150b7a02613c76612da1565b8786866040518563ffffffff1660e01b8152600401613c989493929190614bae565b602060405180830381600087803b158015613cb257600080fd5b505af1925050508015613ce357506040513d601f19601f82011682018060405250810190613ce0919061431c565b60015b613d66573d8060008114613d13576040519150601f19603f3d011682016040523d82523d6000602084013e613d18565b606091505b50600081511415613d5e576040517f08c379a0000000000000000000000000000000000000000000000000000000008152600401613d5590614d41565b60405180910390fd5b805181602001fd5b63150b7a0260e01b7bffffffffffffffffffffffffffffffffffffffffffffffffffffffff1916817bffffffffffffffffffffffffffffffffffffffffffffffffffffffff191614915050613dbb565b600190505b949350505050565b60606000821415613e0b576040518060400160405280600181526020017f30000000000000000000000000000000000000000000000000000000000000008152509050613f6b565b600082905060005b60008214613e3d578080613e2690615458565b915050600a82613e36919061523c565b9150613e13565b60008167ffffffffffffffff811115613e7f577f4e487b7100000000000000000000000000000000000000000000000000000000600052604160045260246000fd5b6040519080825280601f01601f191660200182016040528015613eb15781602001600182028036833780820191505090505b5090505b60008514613f6457600182613eca91906152c7565b9150600a85613ed991906154a1565b6030613ee591906151e6565b60f81b818381518110613f21577f4e487b7100000000000000000000000000000000000000000000000000000000600052603260045260246000fd5b60200101907effffffffffffffffffffffffffffffffffffffffffffffffffffffffffffff1916908160001a905350600a85613f5d919061523c565b9450613eb5565b8093505050505b919050565b828054613f7c906153f5565b90600052602060002090601f016020900481019282613f9e5760008555613fe5565b82601f10613fb757805160ff1916838001178555613fe5565b82800160010185558215613fe5579182015b82811115613fe4578251825591602001919060010190613fc9565b5b509050613ff29190613ff6565b5090565b5b8082111561400f576000816000905550600101613ff7565b5090565b600061402661402184615121565b6150fc565b90508281526020810184848401111561403e57600080fd5b6140498482856153b3565b509392505050565b600061406461405f84615152565b6150fc565b90508281526020810184848401111561407c57600080fd5b6140878482856153b3565b509392505050565b60008135905061409e81615cf3565b92915050565b6000813590506140b381615d0a565b92915050565b6000813590506140c881615d21565b92915050565b6000815190506140dd81615d21565b92915050565b600082601f8301126140f457600080fd5b8135614104848260208601614013565b91505092915050565b600082601f83011261411e57600080fd5b813561412e848260208601614051565b91505092915050565b60008135905061414681615d38565b92915050565b60006020828403121561415e57600080fd5b600061416c8482850161408f565b91505092915050565b6000806040838503121561418857600080fd5b60006141968582860161408f565b92505060206141a78582860161408f565b9150509250929050565b6000806000606084860312156141c657600080fd5b60006141d48682870161408f565b93505060206141e58682870161408f565b92505060406141f686828701614137565b9150509250925092565b6000806000806080858703121561421657600080fd5b60006142248782880161408f565b94505060206142358782880161408f565b935050604061424687828801614137565b925050606085013567ffffffffffffffff81111561426357600080fd5b61426f878288016140e3565b91505092959194509250565b6000806040838503121561428e57600080fd5b600061429c8582860161408f565b92505060206142ad858286016140a4565b9150509250929050565b600080604083850312156142ca57600080fd5b60006142d88582860161408f565b92505060206142e985828601614137565b9150509250929050565b60006020828403121561430557600080fd5b6000614313848285016140b9565b91505092915050565b60006020828403121561432e57600080fd5b600061433c848285016140ce565b91505092915050565b60006020828403121561435757600080fd5b600082013567ffffffffffffffff81111561437157600080fd5b61437d8482850161410d565b91505092915050565b6000806040838503121561439957600080fd5b600083013567ffffffffffffffff8111156143b357600080fd5b6143bf8582860161410d565b92505060206143d08582860161408f565b9150509250929050565b6000806000606084860312156143ef57600080fd5b600084013567ffffffffffffffff81111561440957600080fd5b6144158682870161410d565b935050602084013567ffffffffffffffff81111561443257600080fd5b61443e8682870161410d565b925050604061444f86828701614137565b9150509250925092565b6000806040838503121561446c57600080fd5b600083013567ffffffffffffffff81111561448657600080fd5b6144928582860161410d565b92505060206144a385828601614137565b9150509250929050565b600080600080608085870312156144c357600080fd5b600085013567ffffffffffffffff8111156144dd57600080fd5b6144e98782880161410d565b94505060206144fa87828801614137565b935050604061450b87828801614137565b925050606061451c87828801614137565b91505092959194509250565b60006020828403121561453a57600080fd5b600061454884828501614137565b91505092915050565b61455a816152fb565b82525050565b6145698161530d565b82525050565b600061457a82615198565b61458481856151ae565b93506145948185602086016153c2565b61459d816155bd565b840191505092915050565b600081546145b5816153f5565b6145bf81866151bf565b945060018216600081146145da57600181146145eb5761461e565b60ff1983168652818601935061461e565b6145f485615183565b60005b83811015614616578154818901526001820191506020810190506145f7565b838801955050505b50505092915050565b6146308161538f565b82525050565b61463f816153a1565b82525050565b6000614650826151a3565b61465a81856151ca565b935061466a8185602086016153c2565b614673816155bd565b840191505092915050565b6000614689826151a3565b61469381856151db565b93506146a38185602086016153c2565b80840191505092915050565b60006146bc6001836151ca565b91506146c7826155ce565b602082019050919050565b60006146df6022836151ca565b91506146ea826155f7565b604082019050919050565b60006147026002836151ca565b915061470d82615646565b602082019050919050565b60006147256002836151ca565b91506147308261566f565b602082019050919050565b60006147486032836151ca565b915061475382615698565b604082019050919050565b600061476b6026836151ca565b9150614776826156e7565b604082019050919050565b600061478e6002836151ca565b915061479982615736565b602082019050919050565b60006147b16025836151ca565b91506147bc8261575f565b604082019050919050565b60006147d4601c836151ca565b91506147df826157ae565b602082019050919050565b60006147f76001836151ca565b9150614802826157d7565b602082019050919050565b600061481a6024836151ca565b915061482582615800565b604082019050919050565b600061483d6019836151ca565b91506148488261584f565b602082019050919050565b60006148606001836151ca565b915061486b82615878565b602082019050919050565b60006148836002836151ca565b915061488e826158a1565b602082019050919050565b60006148a66029836151ca565b91506148b1826158ca565b604082019050919050565b60006148c9602e836151ca565b91506148d482615919565b604082019050919050565b60006148ec6002836151ca565b91506148f782615968565b602082019050919050565b600061490f6002836151ca565b915061491a82615991565b602082019050919050565b6000614932602e836151ca565b915061493d826159ba565b604082019050919050565b60006149556002836151ca565b915061496082615a09565b602082019050919050565b6000614978603e836151ca565b915061498382615a32565b604082019050919050565b600061499b6020836151ca565b91506149a682615a81565b602082019050919050565b60006149be6020836151ca565b91506149c982615aaa565b602082019050919050565b60006149e16001836151ca565b91506149ec82615ad3565b602082019050919050565b6000614a046018836151ca565b9150614a0f82615afc565b602082019050919050565b6000614a276021836151ca565b9150614a3282615b25565b604082019050919050565b6000614a4a6001836151ca565b9150614a5582615b74565b602082019050919050565b6000614a6d6001836151ca565b9150614a7882615b9d565b602082019050919050565b6000614a906001836151ca565b9150614a9b82615bc6565b602082019050919050565b6000614ab3602b836151ca565b9150614abe82615bef565b604082019050919050565b6000614ad66001836151ca565b9150614ae182615c3e565b602082019050919050565b6000614af96001836151ca565b9150614b0482615c67565b602082019050919050565b6000614b1c602e836151ca565b9150614b2782615c90565b604082019050919050565b614b3b81615378565b82525050565b6000614b4d82846145a8565b915081905092915050565b6000614b64828461467e565b915081905092915050565b6000614b7b828561467e565b9150614b87828461467e565b91508190509392505050565b6000602082019050614ba86000830184614551565b92915050565b6000608082019050614bc36000830187614551565b614bd06020830186614551565b614bdd6040830185614b32565b8181036060830152614bef818461456f565b905095945050505050565b600060c082019050614c0f6000830189614551565b8181036020830152614c218188614645565b90508181036040830152614c358187614645565b9050614c446060830186614b32565b614c516080830185614627565b614c5e60a0830184614b32565b979650505050505050565b6000602082019050614c7e6000830184614560565b92915050565b6000602082019050614c996000830184614636565b92915050565b60006020820190508181036000830152614cb98184614645565b905092915050565b60006020820190508181036000830152614cda816146af565b9050919050565b60006020820190508181036000830152614cfa816146d2565b9050919050565b60006020820190508181036000830152614d1a816146f5565b9050919050565b60006020820190508181036000830152614d3a81614718565b9050919050565b60006020820190508181036000830152614d5a8161473b565b9050919050565b60006020820190508181036000830152614d7a8161475e565b9050919050565b60006020820190508181036000830152614d9a81614781565b9050919050565b60006020820190508181036000830152614dba816147a4565b9050919050565b60006020820190508181036000830152614dda816147c7565b9050919050565b60006020820190508181036000830152614dfa816147ea565b9050919050565b60006020820190508181036000830152614e1a8161480d565b9050919050565b60006020820190508181036000830152614e3a81614830565b9050919050565b60006020820190508181036000830152614e5a81614853565b9050919050565b60006020820190508181036000830152614e7a81614876565b9050919050565b60006020820190508181036000830152614e9a81614899565b9050919050565b60006020820190508181036000830152614eba816148bc565b9050919050565b60006020820190508181036000830152614eda816148df565b9050919050565b60006020820190508181036000830152614efa81614902565b9050919050565b60006020820190508181036000830152614f1a81614925565b9050919050565b60006020820190508181036000830152614f3a81614948565b9050919050565b60006020820190508181036000830152614f5a8161496b565b9050919050565b60006020820190508181036000830152614f7a8161498e565b9050919050565b60006020820190508181036000830152614f9a816149b1565b9050919050565b60006020820190508181036000830152614fba816149d4565b9050919050565b60006020820190508181036000830152614fda816149f7565b9050919050565b60006020820190508181036000830152614ffa81614a1a565b9050919050565b6000602082019050818103600083015261501a81614a3d565b9050919050565b6000602082019050818103600083015261503a81614a60565b9050919050565b6000602082019050818103600083015261505a81614a83565b9050919050565b6000602082019050818103600083015261507a81614aa6565b9050919050565b6000602082019050818103600083015261509a81614ac9565b9050919050565b600060208201905081810360008301526150ba81614aec565b9050919050565b600060208201905081810360008301526150da81614b0f565b9050919050565b60006020820190506150f66000830184614b32565b92915050565b6000615106615117565b90506151128282615427565b919050565b6000604051905090565b600067ffffffffffffffff82111561513c5761513b61558e565b5b615145826155bd565b9050602081019050919050565b600067ffffffffffffffff82111561516d5761516c61558e565b5b615176826155bd565b9050602081019050919050565b60008190508160005260206000209050919050565b600081519050919050565b600081519050919050565b600082825260208201905092915050565b600081905092915050565b600082825260208201905092915050565b600081905092915050565b60006151f182615378565b91506151fc83615378565b9250827fffffffffffffffffffffffffffffffffffffffffffffffffffffffffffffffff03821115615231576152306154d2565b5b828201905092915050565b600061524782615378565b915061525283615378565b92508261526257615261615501565b5b828204905092915050565b600061527882615378565b915061528383615378565b9250817fffffffffffffffffffffffffffffffffffffffffffffffffffffffffffffffff04831182151516156152bc576152bb6154d2565b5b828202905092915050565b60006152d282615378565b91506152dd83615378565b9250828210156152f0576152ef6154d2565b5b828203905092915050565b600061530682615358565b9050919050565b60008115159050919050565b60007fffffffff0000000000000000000000000000000000000000000000000000000082169050919050565b600081905061535382615cdf565b919050565b600073ffffffffffffffffffffffffffffffffffffffff82169050919050565b6000819050919050565b600060ff82169050919050565b600061539a82615345565b9050919050565b60006153ac82615382565b9050919050565b82818337600083830152505050565b60005b838110156153e05780820151818401526020810190506153c5565b838111156153ef576000848401525b50505050565b6000600282049050600182168061540d57607f821691505b602082108114156154215761542061555f565b5b50919050565b615430826155bd565b810181811067ffffffffffffffff8211171561544f5761544e61558e565b5b80604052505050565b600061546382615378565b91507fffffffffffffffffffffffffffffffffffffffffffffffffffffffffffffffff821415615496576154956154d2565b5b600182019050919050565b60006154ac82615378565b91506154b783615378565b9250826154c7576154c6615501565b5b828206905092915050565b7f4e487b7100000000000000000000000000000000000000000000000000000000600052601160045260246000fd5b7f4e487b7100000000000000000000000000000000000000000000000000000000600052601260045260246000fd5b7f4e487b7100000000000000000000000000000000000000000000000000000000600052602160045260246000fd5b7f4e487b7100000000000000000000000000000000000000000000000000000000600052602260045260246000fd5b7f4e487b7100000000000000000000000000000000000000000000000000000000600052604160045260246000fd5b6000601f19601f8301169050919050565b7f3400000000000000000000000000000000000000000000000000000000000000600082015250565b7f53746172742074696d65206d757374206265206265666f726520656e6420746960008201527f6d65000000000000000000000000000000000000000000000000000000000000602082015250565b7f3130000000000000000000000000000000000000000000000000000000000000600082015250565b7f3135000000000000000000000000000000000000000000000000000000000000600082015250565b7f4552433732313a207472616e7366657220746f206e6f6e20455243373231526560008201527f63656976657220696d706c656d656e7465720000000000000000000000000000602082015250565b7f4f776e61626c653a206e6577206f776e657220697320746865207a65726f206160008201527f6464726573730000000000000000000000000000000000000000000000000000602082015250565b7f3136000000000000000000000000000000000000000000000000000000000000600082015250565b7f4552433732313a207472616e736665722066726f6d20696e636f72726563742060008201527f6f776e6572000000000000000000000000000000000000000000000000000000602082015250565b7f4552433732313a20746f6b656e20616c7265616479206d696e74656400000000600082015250565b7f3300000000000000000000000000000000000000000000000000000000000000600082015250565b7f4552433732313a207472616e7366657220746f20746865207a65726f2061646460008201527f7265737300000000000000000000000000000000000000000000000000000000602082015250565b7f4552433732313a20617070726f766520746f2063616c6c657200000000000000600082015250565b7f3700000000000000000000000000000000000000000000000000000000000000600082015250565b7f3134000000000000000000000000000000000000000000000000000000000000600082015250565b7f4552433732313a2061646472657373207a65726f206973206e6f74206120766160008201527f6c6964206f776e65720000000000000000000000000000000000000000000000602082015250565b7f45524337323155524953746f726167653a2055524920736574206f66206e6f6e60008201527f6578697374656e7420746f6b656e000000000000000000000000000000000000602082015250565b7f3131000000000000000000000000000000000000000000000000000000000000600082015250565b7f3133000000000000000000000000000000000000000000000000000000000000600082015250565b7f496e697469616c697a61626c653a20636f6e747261637420697320616c72656160008201527f647920696e697469616c697a6564000000000000000000000000000000000000602082015250565b7f3132000000000000000000000000000000000000000000000000000000000000600082015250565b7f4552433732313a20617070726f76652063616c6c6572206973206e6f7420746f60008201527f6b656e206f776e6572206e6f7220617070726f76656420666f7220616c6c0000602082015250565b7f4552433732313a206d696e7420746f20746865207a65726f2061646472657373600082015250565b7f4f776e61626c653a2063616c6c6572206973206e6f7420746865206f776e6572600082015250565b7f3200000000000000000000000000000000000000000000000000000000000000600082015250565b7f4552433732313a20696e76616c696420746f6b656e2049440000000000000000600082015250565b7f4552433732313a20617070726f76616c20746f2063757272656e74206f776e6560008201527f7200000000000000000000000000000000000000000000000000000000000000602082015250565b7f3100000000000000000000000000000000000000000000000000000000000000600082015250565b7f3500000000000000000000000000000000000000000000000000000000000000600082015250565b7f3900000000000000000000000000000000000000000000000000000000000000600082015250565b7f496e697469616c697a61626c653a20636f6e7472616374206973206e6f74206960008201527f6e697469616c697a696e67000000000000000000000000000000000000000000602082015250565b7f3600000000000000000000000000000000000000000000000000000000000000600082015250565b7f3800000000000000000000000000000000000000000000000000000000000000600082015250565b7f4552433732313a2063616c6c6572206973206e6f7420746f6b656e206f776e6560008201527f72206e6f7220617070726f766564000000000000000000000000000000000000602082015250565b60048110615cf057615cef615530565b5b50565b615cfc816152fb565b8114615d0757600080fd5b50565b615d138161530d565b8114615d1e57600080fd5b50565b615d2a81615319565b8114615d3557600080fd5b50565b615d4181615378565b8114615d4c57600080fd5b5056fea26469706673582212205cb931dfe49fbded825f9f6635c34781287e30ef9fb2208409a3641f82952a2c64736f6c63430008040033",
  "linkReferences": {},
  "deployedLinkReferences": {}
}