{
  "_format": "hh-sol-artifact-1",
  "contractName": "DeciblingAuction",
  "sourceName": "contracts/DeciblingAuction.sol",
  "abi": [
    {
      "inputs": [
        {
          "internalType": "address",
          "name": "_tokenAddress",
          "type": "address"
        },
        {
          "internalType": "address payable",
          "name": "_platformFeeRecipient",
          "type": "address"
        }
      ],
      "stateMutability": "nonpayable",
      "type": "constructor"
    },
    {
      "anonymous": false,
      "inputs": [
        {
          "indexed": true,
          "internalType": "address",
          "name": "owner",
          "type": "address"
        },
        {
          "indexed": true,
          "internalType": "address",
          "name": "approved",
          "type": "address"
        },
        {
          "indexed": true,
          "internalType": "uint256",
          "name": "tokenId",
          "type": "uint256"
        }
      ],
      "name": "Approval",
      "type": "event"
    },
    {
      "anonymous": false,
      "inputs": [
        {
          "indexed": true,
          "internalType": "address",
          "name": "owner",
          "type": "address"
        },
        {
          "indexed": true,
          "internalType": "address",
          "name": "operator",
          "type": "address"
        },
        {
          "indexed": false,
          "internalType": "bool",
          "name": "approved",
          "type": "bool"
        }
      ],
      "name": "ApprovalForAll",
      "type": "event"
    },
    {
      "anonymous": false,
      "inputs": [
        {
          "indexed": false,
          "internalType": "string",
          "name": "uri",
          "type": "string"
        },
        {
          "indexed": false,
          "internalType": "address",
          "name": "user",
          "type": "address"
        },
        {
          "indexed": false,
          "internalType": "uint256",
          "name": "amount",
          "type": "uint256"
        }
      ],
      "name": "BidPlaced",
      "type": "event"
    },
    {
      "anonymous": false,
      "inputs": [
        {
          "indexed": false,
          "internalType": "string",
          "name": "uri",
          "type": "string"
        },
        {
          "indexed": false,
          "internalType": "uint256",
          "name": "startPrice",
          "type": "uint256"
        },
        {
          "indexed": false,
          "internalType": "uint256",
          "name": "increment",
          "type": "uint256"
        },
        {
          "indexed": false,
          "internalType": "uint256",
          "name": "startTime",
          "type": "uint256"
        },
        {
          "indexed": false,
          "internalType": "uint256",
          "name": "endTime",
          "type": "uint256"
        }
      ],
      "name": "CreateBid",
      "type": "event"
    },
    {
      "anonymous": false,
      "inputs": [
        {
          "indexed": false,
          "internalType": "string",
          "name": "uri",
          "type": "string"
        },
        {
          "indexed": false,
          "internalType": "uint256",
          "name": "index",
          "type": "uint256"
        }
      ],
      "name": "CreateNFT",
      "type": "event"
    },
    {
      "anonymous": false,
      "inputs": [
        {
          "indexed": true,
          "internalType": "address",
          "name": "previousOwner",
          "type": "address"
        },
        {
          "indexed": true,
          "internalType": "address",
          "name": "newOwner",
          "type": "address"
        }
      ],
      "name": "OwnershipTransferred",
      "type": "event"
    },
    {
      "anonymous": false,
      "inputs": [
        {
          "indexed": false,
          "internalType": "string",
          "name": "uri",
          "type": "string"
        },
        {
          "indexed": false,
          "internalType": "address",
          "name": "oldowner",
          "type": "address"
        },
        {
          "indexed": false,
          "internalType": "address",
          "name": "newowner",
          "type": "address"
        },
        {
          "indexed": false,
          "internalType": "uint256",
          "name": "totalPrice",
          "type": "uint256"
        },
        {
          "indexed": false,
          "internalType": "uint256",
          "name": "platformValue",
          "type": "uint256"
        },
        {
          "indexed": false,
          "internalType": "uint256",
          "name": "saleCount",
          "type": "uint256"
        }
      ],
      "name": "SettleBid",
      "type": "event"
    },
    {
      "anonymous": false,
      "inputs": [
        {
          "indexed": true,
          "internalType": "address",
          "name": "from",
          "type": "address"
        },
        {
          "indexed": true,
          "internalType": "address",
          "name": "to",
          "type": "address"
        },
        {
          "indexed": true,
          "internalType": "uint256",
          "name": "tokenId",
          "type": "uint256"
        }
      ],
      "name": "Transfer",
      "type": "event"
    },
    {
      "anonymous": false,
      "inputs": [
        {
          "indexed": false,
          "internalType": "address payable",
          "name": "platformFeeRecipient",
          "type": "address"
        }
      ],
      "name": "UpdatePlatformFeeRecipient",
      "type": "event"
    },
    {
      "anonymous": false,
      "inputs": [
        {
          "indexed": false,
          "internalType": "uint256",
          "name": "firstSaleFee",
          "type": "uint256"
        },
        {
          "indexed": false,
          "internalType": "uint256",
          "name": "secondSaleFee",
          "type": "uint256"
        }
      ],
      "name": "UpdatePlatformFees",
      "type": "event"
    },
    {
      "inputs": [
        {
          "internalType": "address",
          "name": "to",
          "type": "address"
        },
        {
          "internalType": "uint256",
          "name": "tokenId",
          "type": "uint256"
        }
      ],
      "name": "approve",
      "outputs": [],
      "stateMutability": "nonpayable",
      "type": "function"
    },
    {
      "inputs": [
        {
          "internalType": "uint256",
          "name": "",
          "type": "uint256"
        }
      ],
      "name": "auctions",
      "outputs": [
        {
          "internalType": "address",
          "name": "winner",
          "type": "address"
        },
        {
          "internalType": "uint256",
          "name": "startPrice",
          "type": "uint256"
        },
        {
          "internalType": "uint256",
          "name": "increment",
          "type": "uint256"
        },
        {
          "internalType": "uint256",
          "name": "startTime",
          "type": "uint256"
        },
        {
          "internalType": "uint256",
          "name": "endTime",
          "type": "uint256"
        },
        {
          "internalType": "bool",
          "name": "resulted",
          "type": "bool"
        }
      ],
      "stateMutability": "view",
      "type": "function"
    },
    {
      "inputs": [
        {
          "internalType": "address",
          "name": "owner",
          "type": "address"
        }
      ],
      "name": "balanceOf",
      "outputs": [
        {
          "internalType": "uint256",
          "name": "",
          "type": "uint256"
        }
      ],
      "stateMutability": "view",
      "type": "function"
    },
    {
      "inputs": [
        {
          "internalType": "string",
          "name": "uri",
          "type": "string"
        },
        {
          "internalType": "uint256",
          "name": "_amount",
          "type": "uint256"
        }
      ],
      "name": "bid",
      "outputs": [],
      "stateMutability": "payable",
      "type": "function"
    },
    {
      "inputs": [
        {
          "internalType": "string",
          "name": "uri",
          "type": "string"
        },
        {
          "internalType": "uint256",
          "name": "startPrice",
          "type": "uint256"
        },
        {
          "internalType": "uint256",
          "name": "increment",
          "type": "uint256"
        },
        {
          "internalType": "uint256",
          "name": "startTime",
          "type": "uint256"
        },
        {
          "internalType": "uint256",
          "name": "endTime",
          "type": "uint256"
        }
      ],
      "name": "createBidding",
      "outputs": [],
      "stateMutability": "nonpayable",
      "type": "function"
    },
    {
      "inputs": [
        {
          "internalType": "string",
          "name": "uri",
          "type": "string"
        },
        {
          "internalType": "string",
          "name": "name",
          "type": "string"
        }
      ],
      "name": "createNFT",
      "outputs": [],
      "stateMutability": "nonpayable",
      "type": "function"
    },
    {
      "inputs": [],
      "name": "firstSaleFee",
      "outputs": [
        {
          "internalType": "uint256",
          "name": "",
          "type": "uint256"
        }
      ],
      "stateMutability": "view",
      "type": "function"
    },
    {
      "inputs": [
        {
          "internalType": "uint256",
          "name": "tokenId",
          "type": "uint256"
        }
      ],
      "name": "getApproved",
      "outputs": [
        {
          "internalType": "address",
          "name": "",
          "type": "address"
        }
      ],
      "stateMutability": "view",
      "type": "function"
    },
    {
      "inputs": [
        {
          "internalType": "address",
          "name": "owner",
          "type": "address"
        },
        {
          "internalType": "address",
          "name": "operator",
          "type": "address"
        }
      ],
      "name": "isApprovedForAll",
      "outputs": [
        {
          "internalType": "bool",
          "name": "",
          "type": "bool"
        }
      ],
      "stateMutability": "view",
      "type": "function"
    },
    {
      "inputs": [
        {
          "internalType": "string",
          "name": "",
          "type": "string"
        }
      ],
      "name": "listNFT",
      "outputs": [
        {
          "internalType": "address",
          "name": "owner",
          "type": "address"
        },
        {
          "internalType": "string",
          "name": "name",
          "type": "string"
        },
        {
          "internalType": "uint256",
          "name": "price",
          "type": "uint256"
        },
        {
          "internalType": "uint256",
          "name": "saleCount",
          "type": "uint256"
        },
        {
          "internalType": "enum DeciblingAuction.AudioStatus",
          "name": "status",
          "type": "uint8"
        }
      ],
      "stateMutability": "view",
      "type": "function"
    },
    {
      "inputs": [],
      "name": "name",
      "outputs": [
        {
          "internalType": "string",
          "name": "",
          "type": "string"
        }
      ],
      "stateMutability": "view",
      "type": "function"
    },
    {
      "inputs": [],
      "name": "owner",
      "outputs": [
        {
          "internalType": "address",
          "name": "",
          "type": "address"
        }
      ],
      "stateMutability": "view",
      "type": "function"
    },
    {
      "inputs": [
        {
          "internalType": "uint256",
          "name": "tokenId",
          "type": "uint256"
        }
      ],
      "name": "ownerOf",
      "outputs": [
        {
          "internalType": "address",
          "name": "",
          "type": "address"
        }
      ],
      "stateMutability": "view",
      "type": "function"
    },
    {
      "inputs": [],
      "name": "renounceOwnership",
      "outputs": [],
      "stateMutability": "nonpayable",
      "type": "function"
    },
    {
      "inputs": [
        {
          "internalType": "address",
          "name": "from",
          "type": "address"
        },
        {
          "internalType": "address",
          "name": "to",
          "type": "address"
        },
        {
          "internalType": "uint256",
          "name": "tokenId",
          "type": "uint256"
        }
      ],
      "name": "safeTransferFrom",
      "outputs": [],
      "stateMutability": "nonpayable",
      "type": "function"
    },
    {
      "inputs": [
        {
          "internalType": "address",
          "name": "from",
          "type": "address"
        },
        {
          "internalType": "address",
          "name": "to",
          "type": "address"
        },
        {
          "internalType": "uint256",
          "name": "tokenId",
          "type": "uint256"
        },
        {
          "internalType": "bytes",
          "name": "data",
          "type": "bytes"
        }
      ],
      "name": "safeTransferFrom",
      "outputs": [],
      "stateMutability": "nonpayable",
      "type": "function"
    },
    {
      "inputs": [],
      "name": "secondSaleFee",
      "outputs": [
        {
          "internalType": "uint256",
          "name": "",
          "type": "uint256"
        }
      ],
      "stateMutability": "view",
      "type": "function"
    },
    {
      "inputs": [
        {
          "internalType": "address",
          "name": "operator",
          "type": "address"
        },
        {
          "internalType": "bool",
          "name": "approved",
          "type": "bool"
        }
      ],
      "name": "setApprovalForAll",
      "outputs": [],
      "stateMutability": "nonpayable",
      "type": "function"
    },
    {
      "inputs": [
        {
          "internalType": "string",
          "name": "uri",
          "type": "string"
        }
      ],
      "name": "settleBiddingSession",
      "outputs": [],
      "stateMutability": "payable",
      "type": "function"
    },
    {
      "inputs": [
        {
          "internalType": "bytes4",
          "name": "interfaceId",
          "type": "bytes4"
        }
      ],
      "name": "supportsInterface",
      "outputs": [
        {
          "internalType": "bool",
          "name": "",
          "type": "bool"
        }
      ],
      "stateMutability": "view",
      "type": "function"
    },
    {
      "inputs": [],
      "name": "symbol",
      "outputs": [
        {
          "internalType": "string",
          "name": "",
          "type": "string"
        }
      ],
      "stateMutability": "view",
      "type": "function"
    },
    {
      "inputs": [
        {
          "internalType": "string",
          "name": "",
          "type": "string"
        }
      ],
      "name": "tokenIdMapping",
      "outputs": [
        {
          "internalType": "uint256",
          "name": "",
          "type": "uint256"
        }
      ],
      "stateMutability": "view",
      "type": "function"
    },
    {
      "inputs": [
        {
          "internalType": "uint256",
          "name": "tokenId",
          "type": "uint256"
        }
      ],
      "name": "tokenURI",
      "outputs": [
        {
          "internalType": "string",
          "name": "",
          "type": "string"
        }
      ],
      "stateMutability": "view",
      "type": "function"
    },
    {
      "inputs": [
        {
          "internalType": "uint256",
          "name": "",
          "type": "uint256"
        }
      ],
      "name": "topBids",
      "outputs": [
        {
          "internalType": "address",
          "name": "user",
          "type": "address"
        },
        {
          "internalType": "uint256",
          "name": "price",
          "type": "uint256"
        },
        {
          "internalType": "uint256",
          "name": "timestamp",
          "type": "uint256"
        }
      ],
      "stateMutability": "view",
      "type": "function"
    },
    {
      "inputs": [
        {
          "internalType": "address",
          "name": "from",
          "type": "address"
        },
        {
          "internalType": "address",
          "name": "to",
          "type": "address"
        },
        {
          "internalType": "uint256",
          "name": "tokenId",
          "type": "uint256"
        }
      ],
      "name": "transferFrom",
      "outputs": [],
      "stateMutability": "nonpayable",
      "type": "function"
    },
    {
      "inputs": [
        {
          "internalType": "address",
          "name": "newOwner",
          "type": "address"
        }
      ],
      "name": "transferOwnership",
      "outputs": [],
      "stateMutability": "nonpayable",
      "type": "function"
    },
    {
      "inputs": [
        {
          "internalType": "address payable",
          "name": "_platformFeeRecipient",
          "type": "address"
        }
      ],
      "name": "updatePlatformFeeRecipient",
      "outputs": [],
      "stateMutability": "nonpayable",
      "type": "function"
    },
    {
      "inputs": [
        {
          "internalType": "uint256",
          "name": "_firstSaleFee",
          "type": "uint256"
        },
        {
          "internalType": "uint256",
          "name": "_secondSaleFee",
          "type": "uint256"
        }
      ],
      "name": "updatePlatformFees",
      "outputs": [],
      "stateMutability": "nonpayable",
      "type": "function"
    }
  ],
  "bytecode": "0x6080604052607d600a556064600b553480156200001b57600080fd5b5060405162005bf538038062005bf583398181016040528101906200004191906200046d565b6040518060400160405280600981526020017f44656369626c696e6700000000000000000000000000000000000000000000008152506040518060400160405280600281526020017f64420000000000000000000000000000000000000000000000000000000000008152508160009080519060200190620000c59291906200030e565b508060019080519060200190620000de9291906200030e565b50505062000101620000f56200024060201b60201c565b6200024860201b60201c565b6001600781905550600073ffffffffffffffffffffffffffffffffffffffff168273ffffffffffffffffffffffffffffffffffffffff1614158015620001745750600073ffffffffffffffffffffffffffffffffffffffff168173ffffffffffffffffffffffffffffffffffffffff1614155b620001b6576040517f08c379a0000000000000000000000000000000000000000000000000000000008152600401620001ad906200053b565b60405180910390fd5b81600960006101000a81548173ffffffffffffffffffffffffffffffffffffffff021916908373ffffffffffffffffffffffffffffffffffffffff16021790555080600c60006101000a81548173ffffffffffffffffffffffffffffffffffffffff021916908373ffffffffffffffffffffffffffffffffffffffff1602179055505050620005c2565b600033905090565b6000600660009054906101000a900473ffffffffffffffffffffffffffffffffffffffff16905081600660006101000a81548173ffffffffffffffffffffffffffffffffffffffff021916908373ffffffffffffffffffffffffffffffffffffffff1602179055508173ffffffffffffffffffffffffffffffffffffffff168173ffffffffffffffffffffffffffffffffffffffff167f8be0079c531659141344cd1fd0a4f28419497f9722a3daafe3b4186f6b6457e060405160405180910390a35050565b8280546200031c906200058c565b90600052602060002090601f0160209004810192826200034057600085556200038c565b82601f106200035b57805160ff19168380011785556200038c565b828001600101855582156200038c579182015b828111156200038b5782518255916020019190600101906200036e565b5b5090506200039b91906200039f565b5090565b5b80821115620003ba576000816000905550600101620003a0565b5090565b600080fd5b600073ffffffffffffffffffffffffffffffffffffffff82169050919050565b6000620003f082620003c3565b9050919050565b6200040281620003e3565b81146200040e57600080fd5b50565b6000815190506200042281620003f7565b92915050565b60006200043582620003c3565b9050919050565b620004478162000428565b81146200045357600080fd5b50565b60008151905062000467816200043c565b92915050565b60008060408385031215620004875762000486620003be565b5b6000620004978582860162000411565b9250506020620004aa8582860162000456565b9150509250929050565b600082825260208201905092915050565b7f44656369626c696e6741756374696f6e3a20436f6e7374727563746f7220776160008201527f6c6c6574732063616e6e6f74206265207a65726f000000000000000000000000602082015250565b600062000523603483620004b4565b91506200053082620004c5565b604082019050919050565b60006020820190508181036000830152620005568162000514565b9050919050565b7f4e487b7100000000000000000000000000000000000000000000000000000000600052602260045260246000fd5b60006002820490506001821680620005a557607f821691505b60208210811415620005bc57620005bb6200055d565b5b50919050565b61562380620005d26000396000f3fe6080604052600436106101b75760003560e01c806370a08231116100ec578063be06d53e1161008a578063f2fde38b11610064578063f2fde38b14610650578063f5fe7f7114610679578063fcc6f66d146106a2578063ff41edbc146106cd576101b7565b8063be06d53e146105ad578063c87b56dd146105d6578063e985e9c514610613576101b7565b806395d89b41116100c657806395d89b41146104f3578063a22cb4651461051e578063b88d4fde14610547578063b88eabdd14610570576101b7565b806370a0823114610474578063715018a6146104b15780638da5cb5b146104c8576101b7565b806342842e0e11610159578063571a26a011610133578063571a26a0146103b05780635f483313146103f25780636352211e1461040e57806368613d171461044b576101b7565b806342842e0e1461031b5780634387330e146103445780634874b2f414610385576101b7565b8063081812fc11610195578063081812fc14610263578063095ea7b3146102a057806323b872dd146102c95780633c909e93146102f2576101b7565b8063010d9813146101bc57806301ffc9a7146101fb57806306fdde0314610238575b600080fd5b3480156101c857600080fd5b506101e360048036038101906101de91906137e9565b6106e9565b6040516101f293929190613866565b60405180910390f35b34801561020757600080fd5b50610222600480360381019061021d91906138f5565b610733565b60405161022f919061393d565b60405180910390f35b34801561024457600080fd5b5061024d610815565b60405161025a91906139f1565b60405180910390f35b34801561026f57600080fd5b5061028a600480360381019061028591906137e9565b6108a7565b6040516102979190613a13565b60405180910390f35b3480156102ac57600080fd5b506102c760048036038101906102c29190613a5a565b6108ed565b005b3480156102d557600080fd5b506102f060048036038101906102eb9190613a9a565b610a05565b005b3480156102fe57600080fd5b5061031960048036038101906103149190613aed565b610a65565b005b34801561032757600080fd5b50610342600480360381019061033d9190613a9a565b610ab8565b005b34801561035057600080fd5b5061036b60048036038101906103669190613c62565b610ad8565b60405161037c959493929190613d22565b60405180910390f35b34801561039157600080fd5b5061039a610bd9565b6040516103a79190613d7c565b60405180910390f35b3480156103bc57600080fd5b506103d760048036038101906103d291906137e9565b610bdf565b6040516103e996959493929190613d97565b60405180910390f35b61040c60048036038101906104079190613df8565b610c48565b005b34801561041a57600080fd5b50610435600480360381019061043091906137e9565b611189565b6040516104429190613a13565b60405180910390f35b34801561045757600080fd5b50610472600480360381019061046d9190613eb4565b611210565b005b34801561048057600080fd5b5061049b60048036038101906104969190613f35565b61145d565b6040516104a89190613d7c565b60405180910390f35b3480156104bd57600080fd5b506104c6611515565b005b3480156104d457600080fd5b506104dd611529565b6040516104ea9190613a13565b60405180910390f35b3480156104ff57600080fd5b50610508611553565b60405161051591906139f1565b60405180910390f35b34801561052a57600080fd5b5061054560048036038101906105409190613f8e565b6115e5565b005b34801561055357600080fd5b5061056e6004803603810190610569919061406f565b6115fb565b005b34801561057c57600080fd5b5061059760048036038101906105929190613c62565b61165d565b6040516105a49190613d7c565b60405180910390f35b3480156105b957600080fd5b506105d460048036038101906105cf91906140f2565b61168b565b005b3480156105e257600080fd5b506105fd60048036038101906105f891906137e9565b611ac3565b60405161060a91906139f1565b60405180910390f35b34801561061f57600080fd5b5061063a6004803603810190610635919061418c565b611b2b565b604051610647919061393d565b60405180910390f35b34801561065c57600080fd5b5061067760048036038101906106729190613f35565b611bbf565b005b34801561068557600080fd5b506106a0600480360381019061069b919061420a565b611c43565b005b3480156106ae57600080fd5b506106b7611d36565b6040516106c49190613d7c565b60405180910390f35b6106e760048036038101906106e29190613c62565b611d3c565b005b60106020528060005260406000206000915090508060000160009054906101000a900473ffffffffffffffffffffffffffffffffffffffff16908060010154908060020154905083565b60007f80ac58cd000000000000000000000000000000000000000000000000000000007bffffffffffffffffffffffffffffffffffffffffffffffffffffffff1916827bffffffffffffffffffffffffffffffffffffffffffffffffffffffff191614806107fe57507f5b5e139f000000000000000000000000000000000000000000000000000000007bffffffffffffffffffffffffffffffffffffffffffffffffffffffff1916827bffffffffffffffffffffffffffffffffffffffffffffffffffffffff1916145b8061080e575061080d826125e5565b5b9050919050565b60606000805461082490614266565b80601f016020809104026020016040519081016040528092919081815260200182805461085090614266565b801561089d5780601f106108725761010080835404028352916020019161089d565b820191906000526020600020905b81548152906001019060200180831161088057829003601f168201915b5050505050905090565b60006108b28261264f565b6004600083815260200190815260200160002060009054906101000a900473ffffffffffffffffffffffffffffffffffffffff169050919050565b60006108f882611189565b90508073ffffffffffffffffffffffffffffffffffffffff168373ffffffffffffffffffffffffffffffffffffffff161415610969576040517f08c379a00000000000000000000000000000000000000000000000000000000081526004016109609061430a565b60405180910390fd5b8073ffffffffffffffffffffffffffffffffffffffff1661098861269a565b73ffffffffffffffffffffffffffffffffffffffff1614806109b757506109b6816109b161269a565b611b2b565b5b6109f6576040517f08c379a00000000000000000000000000000000000000000000000000000000081526004016109ed9061439c565b60405180910390fd5b610a0083836126a2565b505050565b610a16610a1061269a565b8261275b565b610a55576040517f08c379a0000000000000000000000000000000000000000000000000000000008152600401610a4c9061442e565b60405180910390fd5b610a608383836127f0565b505050565b610a6d612aea565b81600a8190555080600b819055507f36ac9417f4c4141853b0a7cba911657b2d3d3a399db1e48e7430dd66ce91692d8282604051610aac92919061444e565b60405180910390a15050565b610ad3838383604051806020016040528060008152506115fb565b505050565b600d818051602081018201805184825260208301602085012081835280955050505050506000915090508060000160009054906101000a900473ffffffffffffffffffffffffffffffffffffffff1690806001018054610b3790614266565b80601f0160208091040260200160405190810160405280929190818152602001828054610b6390614266565b8015610bb05780601f10610b8557610100808354040283529160200191610bb0565b820191906000526020600020905b815481529060010190602001808311610b9357829003601f168201915b5050505050908060020154908060030154908060040160009054906101000a900460ff16905085565b600a5481565b600f6020528060005260406000206000915090508060000160009054906101000a900473ffffffffffffffffffffffffffffffffffffffff16908060010154908060020154908060030154908060040154908060050160009054906101000a900460ff16905086565b610c50612b68565b6000600d83604051610c6291906144b3565b908152602001604051809103902090506000600e84604051610c8491906144b3565b90815260200160405180910390205490506000600e85604051610ca791906144b3565b90815260200160405180910390205411610cf6576040517f08c379a0000000000000000000000000000000000000000000000000000000008152600401610ced90614516565b60405180910390fd5b600180811115610d0957610d08613cab565b5b8260040160009054906101000a900460ff166001811115610d2d57610d2c613cab565b5b14610d6d576040517f08c379a0000000000000000000000000000000000000000000000000000000008152600401610d6490614582565b60405180910390fd5b6000600f60008381526020019081526020016000209050610d8c612bb8565b816003015411158015610daa57508060040154610da7612bb8565b11155b610de9576040517f08c379a0000000000000000000000000000000000000000000000000000000008152600401610de0906145ee565b60405180910390fd5b600960009054906101000a900473ffffffffffffffffffffffffffffffffffffffff1673ffffffffffffffffffffffffffffffffffffffff166323b872dd3330876040518463ffffffff1660e01b8152600401610e489392919061460e565b602060405180830381600087803b158015610e6257600080fd5b505af1158015610e76573d6000803e3d6000fd5b505050506040513d601f19601f82011682018060405250810190610e9a919061465a565b610ed9576040517f08c379a0000000000000000000000000000000000000000000000000000000008152600401610ed0906146d3565b60405180910390fd5b600060106000848152602001908152602001600020905060008160000160009054906101000a900473ffffffffffffffffffffffffffffffffffffffff169050600082600101549050600073ffffffffffffffffffffffffffffffffffffffff168273ffffffffffffffffffffffffffffffffffffffff161415610f9f5780871015610f9a576040517f08c379a0000000000000000000000000000000000000000000000000000000008152600401610f919061473f565b60405180910390fd5b6110e0565b836002015481610faf919061478e565b871015610ff1576040517f08c379a0000000000000000000000000000000000000000000000000000000008152600401610fe89061473f565b60405180910390fd5b600960009054906101000a900473ffffffffffffffffffffffffffffffffffffffff1673ffffffffffffffffffffffffffffffffffffffff1663a9059cbb83836040518363ffffffff1660e01b815260040161104e9291906147e4565b602060405180830381600087803b15801561106857600080fd5b505af115801561107c573d6000803e3d6000fd5b505050506040513d601f19601f820116820180604052508101906110a0919061465a565b6110df576040517f08c379a00000000000000000000000000000000000000000000000000000000081526004016110d6906146d3565b60405180910390fd5b5b338360000160006101000a81548173ffffffffffffffffffffffffffffffffffffffff021916908373ffffffffffffffffffffffffffffffffffffffff160217905550868360010181905550611134612bb8565b83600201819055507f027aaa4de8a8577ab88766593b19e891945e65f7d03ad3551436d3db7feed23388338960405161116f9392919061480d565b60405180910390a1505050505050611185612bc0565b5050565b60008061119583612bca565b9050600073ffffffffffffffffffffffffffffffffffffffff168173ffffffffffffffffffffffffffffffffffffffff161415611207576040517f08c379a00000000000000000000000000000000000000000000000000000000081526004016111fe90614897565b60405180910390fd5b80915050919050565b6000600e85856040516112249291906148dc565b90815260200160405180910390205414611273576040517f08c379a000000000000000000000000000000000000000000000000000000000815260040161126a90614516565b60405180910390fd5b61127d6008612c07565b60006112896008612c1d565b90506112953382612c2b565b80600e86866040516112a89291906148dc565b9081526020016040518091039020819055506040518060a001604052803373ffffffffffffffffffffffffffffffffffffffff16815260200184848080601f016020809104026020016040519081016040528093929190818152602001838380828437600081840152601f19601f82011690508083019250505050505050815260200160008152602001600081526020016000600181111561134d5761134c613cab565b5b815250600d86866040516113629291906148dc565b908152602001604051809103902060008201518160000160006101000a81548173ffffffffffffffffffffffffffffffffffffffff021916908373ffffffffffffffffffffffffffffffffffffffff16021790555060208201518160010190805190602001906113d39291906136fc565b50604082015181600201556060820151816003015560808201518160040160006101000a81548160ff0219169083600181111561141357611412613cab565b5b02179055509050507f59e3e0f1aabce96b386d212c7c9563c597464cb2f714aa8cf022346ea95cfbc685858360405161144e93929190614922565b60405180910390a15050505050565b60008073ffffffffffffffffffffffffffffffffffffffff168273ffffffffffffffffffffffffffffffffffffffff1614156114ce576040517f08c379a00000000000000000000000000000000000000000000000000000000081526004016114c5906149c6565b60405180910390fd5b600360008373ffffffffffffffffffffffffffffffffffffffff1673ffffffffffffffffffffffffffffffffffffffff168152602001908152602001600020549050919050565b61151d612aea565b6115276000612c49565b565b6000600660009054906101000a900473ffffffffffffffffffffffffffffffffffffffff16905090565b60606001805461156290614266565b80601f016020809104026020016040519081016040528092919081815260200182805461158e90614266565b80156115db5780601f106115b0576101008083540402835291602001916115db565b820191906000526020600020905b8154815290600101906020018083116115be57829003601f168201915b5050505050905090565b6115f76115f061269a565b8383612d0f565b5050565b61160c61160661269a565b8361275b565b61164b576040517f08c379a00000000000000000000000000000000000000000000000000000000081526004016116429061442e565b60405180910390fd5b61165784848484612e7c565b50505050565b600e818051602081018201805184825260208301602085012081835280955050505050506000915090505481565b6000600d878760405161169f9291906148dc565b908152602001604051809103902090506000600e88886040516116c39291906148dc565b9081526020016040518091039020549050828410611716576040517f08c379a000000000000000000000000000000000000000000000000000000000815260040161170d90614a32565b60405180910390fd5b6000600e898960405161172a9291906148dc565b90815260200160405180910390205411611779576040517f08c379a000000000000000000000000000000000000000000000000000000000815260040161177090614516565b60405180910390fd5b3373ffffffffffffffffffffffffffffffffffffffff168260000160009054906101000a900473ffffffffffffffffffffffffffffffffffffffff1673ffffffffffffffffffffffffffffffffffffffff161461180b576040517f08c379a000000000000000000000000000000000000000000000000000000000815260040161180290614a9e565b60405180910390fd5b611813612bb8565b8311611854576040517f08c379a000000000000000000000000000000000000000000000000000000000815260040161184b90614b0a565b60405180910390fd5b6000600181111561186857611867613cab565b5b8260040160009054906101000a900460ff16600181111561188c5761188b613cab565b5b146118cc576040517f08c379a00000000000000000000000000000000000000000000000000000000081526004016118c390614582565b60405180910390fd5b6000851161190f576040517f08c379a000000000000000000000000000000000000000000000000000000000815260040161190690614b76565b60405180910390fd5b61012c8461191d919061478e565b83101561195f576040517f08c379a000000000000000000000000000000000000000000000000000000000815260040161195690614be2565b60405180910390fd5b6040518060c00160405280600073ffffffffffffffffffffffffffffffffffffffff16815260200187815260200186815260200185815260200184815260200160001515815250600f600083815260200190815260200160002060008201518160000160006101000a81548173ffffffffffffffffffffffffffffffffffffffff021916908373ffffffffffffffffffffffffffffffffffffffff1602179055506020820151816001015560408201518160020155606082015181600301556080820151816004015560a08201518160050160006101000a81548160ff02191690831515021790555090505060018260040160006101000a81548160ff02191690836001811115611a7357611a72613cab565b5b02179055507f63f381f48ee15f142676f98f2e372636463db4fe612c8bd998b1b5b57149d9d2888888888888604051611ab196959493929190614c02565b60405180910390a15050505050505050565b6060611ace8261264f565b6000611ad8612ed8565b90506000815111611af85760405180602001604052806000815250611b23565b80611b0284612eef565b604051602001611b13929190614c5e565b6040516020818303038152906040525b915050919050565b6000600560008473ffffffffffffffffffffffffffffffffffffffff1673ffffffffffffffffffffffffffffffffffffffff16815260200190815260200160002060008373ffffffffffffffffffffffffffffffffffffffff1673ffffffffffffffffffffffffffffffffffffffff16815260200190815260200160002060009054906101000a900460ff16905092915050565b611bc7612aea565b600073ffffffffffffffffffffffffffffffffffffffff168173ffffffffffffffffffffffffffffffffffffffff161415611c37576040517f08c379a0000000000000000000000000000000000000000000000000000000008152600401611c2e90614cf4565b60405180910390fd5b611c4081612c49565b50565b611c4b612aea565b600073ffffffffffffffffffffffffffffffffffffffff168173ffffffffffffffffffffffffffffffffffffffff161415611cbb576040517f08c379a0000000000000000000000000000000000000000000000000000000008152600401611cb290614d60565b60405180910390fd5b80600c60006101000a81548173ffffffffffffffffffffffffffffffffffffffff021916908373ffffffffffffffffffffffffffffffffffffffff1602179055507fe57e7c1f36cc83fade34e32351e6eee7eb9da532662b1b5da10c631e8222aca781604051611d2b9190614d8f565b60405180910390a150565b600b5481565b611d44612b68565b6000600d82604051611d5691906144b3565b908152602001604051809103902090506000600e83604051611d7891906144b3565b90815260200160405180910390205490503373ffffffffffffffffffffffffffffffffffffffff168260000160009054906101000a900473ffffffffffffffffffffffffffffffffffffffff1673ffffffffffffffffffffffffffffffffffffffff161480611e1957503373ffffffffffffffffffffffffffffffffffffffff16611e01611529565b73ffffffffffffffffffffffffffffffffffffffff16145b611e58576040517f08c379a0000000000000000000000000000000000000000000000000000000008152600401611e4f90614a9e565b60405180910390fd5b6000600e84604051611e6a91906144b3565b90815260200160405180910390205411611eb9576040517f08c379a0000000000000000000000000000000000000000000000000000000008152600401611eb090614516565b60405180910390fd5b600180811115611ecc57611ecb613cab565b5b8260040160009054906101000a900460ff166001811115611ef057611eef613cab565b5b14611f30576040517f08c379a0000000000000000000000000000000000000000000000000000000008152600401611f2790614582565b60405180910390fd5b600073ffffffffffffffffffffffffffffffffffffffff16600c60009054906101000a900473ffffffffffffffffffffffffffffffffffffffff1673ffffffffffffffffffffffffffffffffffffffff161415611fc2576040517f08c379a0000000000000000000000000000000000000000000000000000000008152600401611fb990614df6565b60405180910390fd5b6000600f600083815260200190815260200160002090508060050160009054906101000a900460ff161561202b576040517f08c379a000000000000000000000000000000000000000000000000000000000815260040161202290614e62565b60405180910390fd5b612033612bb8565b816003015410801561204f5750806004015461204d612bb8565b115b61208e576040517f08c379a000000000000000000000000000000000000000000000000000000000815260040161208590614ece565b60405180910390fd5b600060106000848152602001908152602001600020905060008160000160009054906101000a900473ffffffffffffffffffffffffffffffffffffffff16905060008260010154905060018460050160006101000a81548160ff02191690831515021790555060106000868152602001908152602001600020600080820160006101000a81549073ffffffffffffffffffffffffffffffffffffffff02191690556001820160009055600282016000905550506000808760000160009054906101000a900473ffffffffffffffffffffffffffffffffffffffff169050600073ffffffffffffffffffffffffffffffffffffffff168473ffffffffffffffffffffffffffffffffffffffff16146125a557600088600301541480156121b557506000600a54115b156121ea576121e36103e86121d5600a5486612fc790919063ffffffff16565b612fdd90919063ffffffff16565b9150612216565b6122136103e8612205600b5486612fc790919063ffffffff16565b612fdd90919063ffffffff16565b91505b600082141561225a576040517f08c379a000000000000000000000000000000000000000000000000000000000815260040161225190614f3a565b60405180910390fd5b600960009054906101000a900473ffffffffffffffffffffffffffffffffffffffff1673ffffffffffffffffffffffffffffffffffffffff1663a9059cbb8284866122a59190614f5a565b6040518363ffffffff1660e01b81526004016122c29291906147e4565b602060405180830381600087803b1580156122dc57600080fd5b505af11580156122f0573d6000803e3d6000fd5b505050506040513d601f19601f82011682018060405250810190612314919061465a565b612353576040517f08c379a000000000000000000000000000000000000000000000000000000000815260040161234a906146d3565b60405180910390fd5b600960009054906101000a900473ffffffffffffffffffffffffffffffffffffffff1673ffffffffffffffffffffffffffffffffffffffff1663a9059cbb600c60009054906101000a900473ffffffffffffffffffffffffffffffffffffffff16846040518363ffffffff1660e01b81526004016123d2929190614fed565b602060405180830381600087803b1580156123ec57600080fd5b505af1158015612400573d6000803e3d6000fd5b505050506040513d601f19601f82011682018060405250810190612424919061465a565b612463576040517f08c379a000000000000000000000000000000000000000000000000000000000815260040161245a906146d3565b60405180910390fd5b61248c8185600e8c60405161247891906144b3565b908152602001604051809103902054610ab8565b838860000160006101000a81548173ffffffffffffffffffffffffffffffffffffffff021916908373ffffffffffffffffffffffffffffffffffffffff1602179055508288600201819055506124f060018960030154612ff390919063ffffffff16565b8860030181905550838660000160006101000a81548173ffffffffffffffffffffffffffffffffffffffff021916908373ffffffffffffffffffffffffffffffffffffffff1602179055507f116ab0c03bfff8d9996e5c0d5ebdd4daf07ee1141c125826627d3015920f553089828860000160009054906101000a900473ffffffffffffffffffffffffffffffffffffffff1686868d6003015460405161259c96959493929190615016565b60405180910390a15b60008860040160006101000a81548160ff021916908360018111156125cd576125cc613cab565b5b021790555050505050505050506125e2612bc0565b50565b60007f01ffc9a7000000000000000000000000000000000000000000000000000000007bffffffffffffffffffffffffffffffffffffffffffffffffffffffff1916827bffffffffffffffffffffffffffffffffffffffffffffffffffffffff1916149050919050565b61265881613009565b612697576040517f08c379a000000000000000000000000000000000000000000000000000000000815260040161268e90614897565b60405180910390fd5b50565b600033905090565b816004600083815260200190815260200160002060006101000a81548173ffffffffffffffffffffffffffffffffffffffff021916908373ffffffffffffffffffffffffffffffffffffffff160217905550808273ffffffffffffffffffffffffffffffffffffffff1661271583611189565b73ffffffffffffffffffffffffffffffffffffffff167f8c5be1e5ebec7d5bd14f71427d1e84f3dd0314c0f7b2291e5b200ac8c7c3b92560405160405180910390a45050565b60008061276783611189565b90508073ffffffffffffffffffffffffffffffffffffffff168473ffffffffffffffffffffffffffffffffffffffff1614806127a957506127a88185611b2b565b5b806127e757508373ffffffffffffffffffffffffffffffffffffffff166127cf846108a7565b73ffffffffffffffffffffffffffffffffffffffff16145b91505092915050565b8273ffffffffffffffffffffffffffffffffffffffff1661281082611189565b73ffffffffffffffffffffffffffffffffffffffff1614612866576040517f08c379a000000000000000000000000000000000000000000000000000000000815260040161285d906150f0565b60405180910390fd5b600073ffffffffffffffffffffffffffffffffffffffff168273ffffffffffffffffffffffffffffffffffffffff1614156128d6576040517f08c379a00000000000000000000000000000000000000000000000000000000081526004016128cd90615182565b60405180910390fd5b6128e3838383600161304a565b8273ffffffffffffffffffffffffffffffffffffffff1661290382611189565b73ffffffffffffffffffffffffffffffffffffffff1614612959576040517f08c379a0000000000000000000000000000000000000000000000000000000008152600401612950906150f0565b60405180910390fd5b6004600082815260200190815260200160002060006101000a81549073ffffffffffffffffffffffffffffffffffffffff02191690556001600360008573ffffffffffffffffffffffffffffffffffffffff1673ffffffffffffffffffffffffffffffffffffffff168152602001908152602001600020600082825403925050819055506001600360008473ffffffffffffffffffffffffffffffffffffffff1673ffffffffffffffffffffffffffffffffffffffff16815260200190815260200160002060008282540192505081905550816002600083815260200190815260200160002060006101000a81548173ffffffffffffffffffffffffffffffffffffffff021916908373ffffffffffffffffffffffffffffffffffffffff160217905550808273ffffffffffffffffffffffffffffffffffffffff168473ffffffffffffffffffffffffffffffffffffffff167fddf252ad1be2c89b69c2b068fc378daa952ba7f163c4a11628f55a4df523b3ef60405160405180910390a4612ae58383836001613170565b505050565b612af261269a565b73ffffffffffffffffffffffffffffffffffffffff16612b10611529565b73ffffffffffffffffffffffffffffffffffffffff1614612b66576040517f08c379a0000000000000000000000000000000000000000000000000000000008152600401612b5d906151ee565b60405180910390fd5b565b60026007541415612bae576040517f08c379a0000000000000000000000000000000000000000000000000000000008152600401612ba59061525a565b60405180910390fd5b6002600781905550565b600042905090565b6001600781905550565b60006002600083815260200190815260200160002060009054906101000a900473ffffffffffffffffffffffffffffffffffffffff169050919050565b6001816000016000828254019250508190555050565b600081600001549050919050565b612c45828260405180602001604052806000815250613176565b5050565b6000600660009054906101000a900473ffffffffffffffffffffffffffffffffffffffff16905081600660006101000a81548173ffffffffffffffffffffffffffffffffffffffff021916908373ffffffffffffffffffffffffffffffffffffffff1602179055508173ffffffffffffffffffffffffffffffffffffffff168173ffffffffffffffffffffffffffffffffffffffff167f8be0079c531659141344cd1fd0a4f28419497f9722a3daafe3b4186f6b6457e060405160405180910390a35050565b8173ffffffffffffffffffffffffffffffffffffffff168373ffffffffffffffffffffffffffffffffffffffff161415612d7e576040517f08c379a0000000000000000000000000000000000000000000000000000000008152600401612d75906152c6565b60405180910390fd5b80600560008573ffffffffffffffffffffffffffffffffffffffff1673ffffffffffffffffffffffffffffffffffffffff16815260200190815260200160002060008473ffffffffffffffffffffffffffffffffffffffff1673ffffffffffffffffffffffffffffffffffffffff16815260200190815260200160002060006101000a81548160ff0219169083151502179055508173ffffffffffffffffffffffffffffffffffffffff168373ffffffffffffffffffffffffffffffffffffffff167f17307eab39ab6107e8899845ad3d59bd9653f200f220920489ca2b5937696c3183604051612e6f919061393d565b60405180910390a3505050565b612e878484846127f0565b612e93848484846131d1565b612ed2576040517f08c379a0000000000000000000000000000000000000000000000000000000008152600401612ec990615358565b60405180910390fd5b50505050565b606060405180602001604052806000815250905090565b606060006001612efe84613368565b01905060008167ffffffffffffffff811115612f1d57612f1c613b37565b5b6040519080825280601f01601f191660200182016040528015612f4f5781602001600182028036833780820191505090505b509050600082602001820190505b600115612fbc578080600190039150507f3031323334353637383961626364656600000000000000000000000000000000600a86061a8153600a8581612fa657612fa5615378565b5b0494506000851415612fb757612fbc565b612f5d565b819350505050919050565b60008183612fd591906153a7565b905092915050565b60008183612feb9190615401565b905092915050565b60008183613001919061478e565b905092915050565b60008073ffffffffffffffffffffffffffffffffffffffff1661302b83612bca565b73ffffffffffffffffffffffffffffffffffffffff1614159050919050565b600181111561316a57600073ffffffffffffffffffffffffffffffffffffffff168473ffffffffffffffffffffffffffffffffffffffff16146130de5780600360008673ffffffffffffffffffffffffffffffffffffffff1673ffffffffffffffffffffffffffffffffffffffff16815260200190815260200160002060008282546130d69190614f5a565b925050819055505b600073ffffffffffffffffffffffffffffffffffffffff168373ffffffffffffffffffffffffffffffffffffffff16146131695780600360008573ffffffffffffffffffffffffffffffffffffffff1673ffffffffffffffffffffffffffffffffffffffff1681526020019081526020016000206000828254613161919061478e565b925050819055505b5b50505050565b50505050565b61318083836134bb565b61318d60008484846131d1565b6131cc576040517f08c379a00000000000000000000000000000000000000000000000000000000081526004016131c390615358565b60405180910390fd5b505050565b60006131f28473ffffffffffffffffffffffffffffffffffffffff166136d9565b1561335b578373ffffffffffffffffffffffffffffffffffffffff1663150b7a0261321b61269a565b8786866040518563ffffffff1660e01b815260040161323d9493929190615487565b602060405180830381600087803b15801561325757600080fd5b505af192505050801561328857506040513d601f19601f8201168201806040525081019061328591906154e8565b60015b61330b573d80600081146132b8576040519150601f19603f3d011682016040523d82523d6000602084013e6132bd565b606091505b50600081511415613303576040517f08c379a00000000000000000000000000000000000000000000000000000000081526004016132fa90615358565b60405180910390fd5b805181602001fd5b63150b7a0260e01b7bffffffffffffffffffffffffffffffffffffffffffffffffffffffff1916817bffffffffffffffffffffffffffffffffffffffffffffffffffffffff191614915050613360565b600190505b949350505050565b600080600090507a184f03e93ff9f4daa797ed6e38ed64bf6a1f01000000000000000083106133c6577a184f03e93ff9f4daa797ed6e38ed64bf6a1f01000000000000000083816133bc576133bb615378565b5b0492506040810190505b6d04ee2d6d415b85acef81000000008310613403576d04ee2d6d415b85acef810000000083816133f9576133f8615378565b5b0492506020810190505b662386f26fc10000831061343257662386f26fc10000838161342857613427615378565b5b0492506010810190505b6305f5e100831061345b576305f5e100838161345157613450615378565b5b0492506008810190505b612710831061348057612710838161347657613475615378565b5b0492506004810190505b606483106134a3576064838161349957613498615378565b5b0492506002810190505b600a83106134b2576001810190505b80915050919050565b600073ffffffffffffffffffffffffffffffffffffffff168273ffffffffffffffffffffffffffffffffffffffff16141561352b576040517f08c379a000000000000000000000000000000000000000000000000000000000815260040161352290615561565b60405180910390fd5b61353481613009565b15613574576040517f08c379a000000000000000000000000000000000000000000000000000000000815260040161356b906155cd565b60405180910390fd5b61358260008383600161304a565b61358b81613009565b156135cb576040517f08c379a00000000000000000000000000000000000000000000000000000000081526004016135c2906155cd565b60405180910390fd5b6001600360008473ffffffffffffffffffffffffffffffffffffffff1673ffffffffffffffffffffffffffffffffffffffff16815260200190815260200160002060008282540192505081905550816002600083815260200190815260200160002060006101000a81548173ffffffffffffffffffffffffffffffffffffffff021916908373ffffffffffffffffffffffffffffffffffffffff160217905550808273ffffffffffffffffffffffffffffffffffffffff16600073ffffffffffffffffffffffffffffffffffffffff167fddf252ad1be2c89b69c2b068fc378daa952ba7f163c4a11628f55a4df523b3ef60405160405180910390a46136d5600083836001613170565b5050565b6000808273ffffffffffffffffffffffffffffffffffffffff163b119050919050565b82805461370890614266565b90600052602060002090601f01602090048101928261372a5760008555613771565b82601f1061374357805160ff1916838001178555613771565b82800160010185558215613771579182015b82811115613770578251825591602001919060010190613755565b5b50905061377e9190613782565b5090565b5b8082111561379b576000816000905550600101613783565b5090565b6000604051905090565b600080fd5b600080fd5b6000819050919050565b6137c6816137b3565b81146137d157600080fd5b50565b6000813590506137e3816137bd565b92915050565b6000602082840312156137ff576137fe6137a9565b5b600061380d848285016137d4565b91505092915050565b600073ffffffffffffffffffffffffffffffffffffffff82169050919050565b600061384182613816565b9050919050565b61385181613836565b82525050565b613860816137b3565b82525050565b600060608201905061387b6000830186613848565b6138886020830185613857565b6138956040830184613857565b949350505050565b60007fffffffff0000000000000000000000000000000000000000000000000000000082169050919050565b6138d28161389d565b81146138dd57600080fd5b50565b6000813590506138ef816138c9565b92915050565b60006020828403121561390b5761390a6137a9565b5b6000613919848285016138e0565b91505092915050565b60008115159050919050565b61393781613922565b82525050565b6000602082019050613952600083018461392e565b92915050565b600081519050919050565b600082825260208201905092915050565b60005b83811015613992578082015181840152602081019050613977565b838111156139a1576000848401525b50505050565b6000601f19601f8301169050919050565b60006139c382613958565b6139cd8185613963565b93506139dd818560208601613974565b6139e6816139a7565b840191505092915050565b60006020820190508181036000830152613a0b81846139b8565b905092915050565b6000602082019050613a286000830184613848565b92915050565b613a3781613836565b8114613a4257600080fd5b50565b600081359050613a5481613a2e565b92915050565b60008060408385031215613a7157613a706137a9565b5b6000613a7f85828601613a45565b9250506020613a90858286016137d4565b9150509250929050565b600080600060608486031215613ab357613ab26137a9565b5b6000613ac186828701613a45565b9350506020613ad286828701613a45565b9250506040613ae3868287016137d4565b9150509250925092565b60008060408385031215613b0457613b036137a9565b5b6000613b12858286016137d4565b9250506020613b23858286016137d4565b9150509250929050565b600080fd5b600080fd5b7f4e487b7100000000000000000000000000000000000000000000000000000000600052604160045260246000fd5b613b6f826139a7565b810181811067ffffffffffffffff82111715613b8e57613b8d613b37565b5b80604052505050565b6000613ba161379f565b9050613bad8282613b66565b919050565b600067ffffffffffffffff821115613bcd57613bcc613b37565b5b613bd6826139a7565b9050602081019050919050565b82818337600083830152505050565b6000613c05613c0084613bb2565b613b97565b905082815260208101848484011115613c2157613c20613b32565b5b613c2c848285613be3565b509392505050565b600082601f830112613c4957613c48613b2d565b5b8135613c59848260208601613bf2565b91505092915050565b600060208284031215613c7857613c776137a9565b5b600082013567ffffffffffffffff811115613c9657613c956137ae565b5b613ca284828501613c34565b91505092915050565b7f4e487b7100000000000000000000000000000000000000000000000000000000600052602160045260246000fd5b60028110613ceb57613cea613cab565b5b50565b6000819050613cfc82613cda565b919050565b6000613d0c82613cee565b9050919050565b613d1c81613d01565b82525050565b600060a082019050613d376000830188613848565b8181036020830152613d4981876139b8565b9050613d586040830186613857565b613d656060830185613857565b613d726080830184613d13565b9695505050505050565b6000602082019050613d916000830184613857565b92915050565b600060c082019050613dac6000830189613848565b613db96020830188613857565b613dc66040830187613857565b613dd36060830186613857565b613de06080830185613857565b613ded60a083018461392e565b979650505050505050565b60008060408385031215613e0f57613e0e6137a9565b5b600083013567ffffffffffffffff811115613e2d57613e2c6137ae565b5b613e3985828601613c34565b9250506020613e4a858286016137d4565b9150509250929050565b600080fd5b600080fd5b60008083601f840112613e7457613e73613b2d565b5b8235905067ffffffffffffffff811115613e9157613e90613e54565b5b602083019150836001820283011115613ead57613eac613e59565b5b9250929050565b60008060008060408587031215613ece57613ecd6137a9565b5b600085013567ffffffffffffffff811115613eec57613eeb6137ae565b5b613ef887828801613e5e565b9450945050602085013567ffffffffffffffff811115613f1b57613f1a6137ae565b5b613f2787828801613e5e565b925092505092959194509250565b600060208284031215613f4b57613f4a6137a9565b5b6000613f5984828501613a45565b91505092915050565b613f6b81613922565b8114613f7657600080fd5b50565b600081359050613f8881613f62565b92915050565b60008060408385031215613fa557613fa46137a9565b5b6000613fb385828601613a45565b9250506020613fc485828601613f79565b9150509250929050565b600067ffffffffffffffff821115613fe957613fe8613b37565b5b613ff2826139a7565b9050602081019050919050565b600061401261400d84613fce565b613b97565b90508281526020810184848401111561402e5761402d613b32565b5b614039848285613be3565b509392505050565b600082601f83011261405657614055613b2d565b5b8135614066848260208601613fff565b91505092915050565b60008060008060808587031215614089576140886137a9565b5b600061409787828801613a45565b94505060206140a887828801613a45565b93505060406140b9878288016137d4565b925050606085013567ffffffffffffffff8111156140da576140d96137ae565b5b6140e687828801614041565b91505092959194509250565b60008060008060008060a0878903121561410f5761410e6137a9565b5b600087013567ffffffffffffffff81111561412d5761412c6137ae565b5b61413989828a01613e5e565b9650965050602061414c89828a016137d4565b945050604061415d89828a016137d4565b935050606061416e89828a016137d4565b925050608061417f89828a016137d4565b9150509295509295509295565b600080604083850312156141a3576141a26137a9565b5b60006141b185828601613a45565b92505060206141c285828601613a45565b9150509250929050565b60006141d782613816565b9050919050565b6141e7816141cc565b81146141f257600080fd5b50565b600081359050614204816141de565b92915050565b6000602082840312156142205761421f6137a9565b5b600061422e848285016141f5565b91505092915050565b7f4e487b7100000000000000000000000000000000000000000000000000000000600052602260045260246000fd5b6000600282049050600182168061427e57607f821691505b6020821081141561429257614291614237565b5b50919050565b7f4552433732313a20617070726f76616c20746f2063757272656e74206f776e6560008201527f7200000000000000000000000000000000000000000000000000000000000000602082015250565b60006142f4602183613963565b91506142ff82614298565b604082019050919050565b60006020820190508181036000830152614323816142e7565b9050919050565b7f4552433732313a20617070726f76652063616c6c6572206973206e6f7420746f60008201527f6b656e206f776e6572206f7220617070726f76656420666f7220616c6c000000602082015250565b6000614386603d83613963565b91506143918261432a565b604082019050919050565b600060208201905081810360008301526143b581614379565b9050919050565b7f4552433732313a2063616c6c6572206973206e6f7420746f6b656e206f776e6560008201527f72206f7220617070726f76656400000000000000000000000000000000000000602082015250565b6000614418602d83613963565b9150614423826143bc565b604082019050919050565b600060208201905081810360008301526144478161440b565b9050919050565b60006040820190506144636000830185613857565b6144706020830184613857565b9392505050565b600081905092915050565b600061448d82613958565b6144978185614477565b93506144a7818560208601613974565b80840191505092915050565b60006144bf8284614482565b915081905092915050565b7f3200000000000000000000000000000000000000000000000000000000000000600082015250565b6000614500600183613963565b915061450b826144ca565b602082019050919050565b6000602082019050818103600083015261452f816144f3565b9050919050565b7f3800000000000000000000000000000000000000000000000000000000000000600082015250565b600061456c600183613963565b915061457782614536565b602082019050919050565b6000602082019050818103600083015261459b8161455f565b9050919050565b7f3132000000000000000000000000000000000000000000000000000000000000600082015250565b60006145d8600283613963565b91506145e3826145a2565b602082019050919050565b60006020820190508181036000830152614607816145cb565b9050919050565b60006060820190506146236000830186613848565b6146306020830185613848565b61463d6040830184613857565b949350505050565b60008151905061465481613f62565b92915050565b6000602082840312156146705761466f6137a9565b5b600061467e84828501614645565b91505092915050565b7f3236000000000000000000000000000000000000000000000000000000000000600082015250565b60006146bd600283613963565b91506146c882614687565b602082019050919050565b600060208201905081810360008301526146ec816146b0565b9050919050565b7f3133000000000000000000000000000000000000000000000000000000000000600082015250565b6000614729600283613963565b9150614734826146f3565b602082019050919050565b600060208201905081810360008301526147588161471c565b9050919050565b7f4e487b7100000000000000000000000000000000000000000000000000000000600052601160045260246000fd5b6000614799826137b3565b91506147a4836137b3565b9250827fffffffffffffffffffffffffffffffffffffffffffffffffffffffffffffffff038211156147d9576147d861475f565b5b828201905092915050565b60006040820190506147f96000830185613848565b6148066020830184613857565b9392505050565b6000606082019050818103600083015261482781866139b8565b90506148366020830185613848565b6148436040830184613857565b949350505050565b7f4552433732313a20696e76616c696420746f6b656e2049440000000000000000600082015250565b6000614881601883613963565b915061488c8261484b565b602082019050919050565b600060208201905081810360008301526148b081614874565b9050919050565b60006148c38385614477565b93506148d0838584613be3565b82840190509392505050565b60006148e98284866148b7565b91508190509392505050565b60006149018385613963565b935061490e838584613be3565b614917836139a7565b840190509392505050565b6000604082019050818103600083015261493d8185876148f5565b905061494c6020830184613857565b949350505050565b7f4552433732313a2061646472657373207a65726f206973206e6f74206120766160008201527f6c6964206f776e65720000000000000000000000000000000000000000000000602082015250565b60006149b0602983613963565b91506149bb82614954565b604082019050919050565b600060208201905081810360008301526149df816149a3565b9050919050565b7f3138000000000000000000000000000000000000000000000000000000000000600082015250565b6000614a1c600283613963565b9150614a27826149e6565b602082019050919050565b60006020820190508181036000830152614a4b81614a0f565b9050919050565b7f3600000000000000000000000000000000000000000000000000000000000000600082015250565b6000614a88600183613963565b9150614a9382614a52565b602082019050919050565b60006020820190508181036000830152614ab781614a7b565b9050919050565b7f3700000000000000000000000000000000000000000000000000000000000000600082015250565b6000614af4600183613963565b9150614aff82614abe565b602082019050919050565b60006020820190508181036000830152614b2381614ae7565b9050919050565b7f3232000000000000000000000000000000000000000000000000000000000000600082015250565b6000614b60600283613963565b9150614b6b82614b2a565b602082019050919050565b60006020820190508181036000830152614b8f81614b53565b9050919050565b7f3234000000000000000000000000000000000000000000000000000000000000600082015250565b6000614bcc600283613963565b9150614bd782614b96565b602082019050919050565b60006020820190508181036000830152614bfb81614bbf565b9050919050565b600060a0820190508181036000830152614c1d81888a6148f5565b9050614c2c6020830187613857565b614c396040830186613857565b614c466060830185613857565b614c536080830184613857565b979650505050505050565b6000614c6a8285614482565b9150614c768284614482565b91508190509392505050565b7f4f776e61626c653a206e6577206f776e657220697320746865207a65726f206160008201527f6464726573730000000000000000000000000000000000000000000000000000602082015250565b6000614cde602683613963565b9150614ce982614c82565b604082019050919050565b60006020820190508181036000830152614d0d81614cd1565b9050919050565b7f3231000000000000000000000000000000000000000000000000000000000000600082015250565b6000614d4a600283613963565b9150614d5582614d14565b602082019050919050565b60006020820190508181036000830152614d7981614d3d565b9050919050565b614d89816141cc565b82525050565b6000602082019050614da46000830184614d80565b92915050565b7f3139000000000000000000000000000000000000000000000000000000000000600082015250565b6000614de0600283613963565b9150614deb82614daa565b602082019050919050565b60006020820190508181036000830152614e0f81614dd3565b9050919050565b7f3237000000000000000000000000000000000000000000000000000000000000600082015250565b6000614e4c600283613963565b9150614e5782614e16565b602082019050919050565b60006020820190508181036000830152614e7b81614e3f565b9050919050565b7f3135000000000000000000000000000000000000000000000000000000000000600082015250565b6000614eb8600283613963565b9150614ec382614e82565b602082019050919050565b60006020820190508181036000830152614ee781614eab565b9050919050565b7f3230000000000000000000000000000000000000000000000000000000000000600082015250565b6000614f24600283613963565b9150614f2f82614eee565b602082019050919050565b60006020820190508181036000830152614f5381614f17565b9050919050565b6000614f65826137b3565b9150614f70836137b3565b925082821015614f8357614f8261475f565b5b828203905092915050565b6000819050919050565b6000614fb3614fae614fa984613816565b614f8e565b613816565b9050919050565b6000614fc582614f98565b9050919050565b6000614fd782614fba565b9050919050565b614fe781614fcc565b82525050565b60006040820190506150026000830185614fde565b61500f6020830184613857565b9392505050565b600060c082019050818103600083015261503081896139b8565b905061503f6020830188613848565b61504c6040830187613848565b6150596060830186613857565b6150666080830185613857565b61507360a0830184613857565b979650505050505050565b7f4552433732313a207472616e736665722066726f6d20696e636f72726563742060008201527f6f776e6572000000000000000000000000000000000000000000000000000000602082015250565b60006150da602583613963565b91506150e58261507e565b604082019050919050565b60006020820190508181036000830152615109816150cd565b9050919050565b7f4552433732313a207472616e7366657220746f20746865207a65726f2061646460008201527f7265737300000000000000000000000000000000000000000000000000000000602082015250565b600061516c602483613963565b915061517782615110565b604082019050919050565b6000602082019050818103600083015261519b8161515f565b9050919050565b7f4f776e61626c653a2063616c6c6572206973206e6f7420746865206f776e6572600082015250565b60006151d8602083613963565b91506151e3826151a2565b602082019050919050565b60006020820190508181036000830152615207816151cb565b9050919050565b7f5265656e7472616e637947756172643a207265656e7472616e742063616c6c00600082015250565b6000615244601f83613963565b915061524f8261520e565b602082019050919050565b6000602082019050818103600083015261527381615237565b9050919050565b7f4552433732313a20617070726f766520746f2063616c6c657200000000000000600082015250565b60006152b0601983613963565b91506152bb8261527a565b602082019050919050565b600060208201905081810360008301526152df816152a3565b9050919050565b7f4552433732313a207472616e7366657220746f206e6f6e20455243373231526560008201527f63656976657220696d706c656d656e7465720000000000000000000000000000602082015250565b6000615342603283613963565b915061534d826152e6565b604082019050919050565b6000602082019050818103600083015261537181615335565b9050919050565b7f4e487b7100000000000000000000000000000000000000000000000000000000600052601260045260246000fd5b60006153b2826137b3565b91506153bd836137b3565b9250817fffffffffffffffffffffffffffffffffffffffffffffffffffffffffffffffff04831182151516156153f6576153f561475f565b5b828202905092915050565b600061540c826137b3565b9150615417836137b3565b92508261542757615426615378565b5b828204905092915050565b600081519050919050565b600082825260208201905092915050565b600061545982615432565b615463818561543d565b9350615473818560208601613974565b61547c816139a7565b840191505092915050565b600060808201905061549c6000830187613848565b6154a96020830186613848565b6154b66040830185613857565b81810360608301526154c8818461544e565b905095945050505050565b6000815190506154e2816138c9565b92915050565b6000602082840312156154fe576154fd6137a9565b5b600061550c848285016154d3565b91505092915050565b7f4552433732313a206d696e7420746f20746865207a65726f2061646472657373600082015250565b600061554b602083613963565b915061555682615515565b602082019050919050565b6000602082019050818103600083015261557a8161553e565b9050919050565b7f4552433732313a20746f6b656e20616c7265616479206d696e74656400000000600082015250565b60006155b7601c83613963565b91506155c282615581565b602082019050919050565b600060208201905081810360008301526155e6816155aa565b905091905056fea2646970667358221220d32f8085188866714714c98035a4d58203bb13a295474b76c75846b7779a4a3b64736f6c63430008090033",
  "linkReferences": {},
  "deployedLinkReferences": {}
}