{
  "_format": "hh-sol-artifact-1",
  "contractName": "DeciblingAuction",
  "sourceName": "contracts/DeciblingAuction.sol",
  "abi": [
    {
      "inputs": [
        {
          "internalType": "address",
          "name": "_tokenAddress",
          "type": "address"
        },
        {
          "internalType": "address payable",
          "name": "_platformFeeRecipient",
          "type": "address"
        }
      ],
      "stateMutability": "nonpayable",
      "type": "constructor"
    },
    {
      "anonymous": false,
      "inputs": [
        {
          "indexed": true,
          "internalType": "address",
          "name": "owner",
          "type": "address"
        },
        {
          "indexed": true,
          "internalType": "address",
          "name": "approved",
          "type": "address"
        },
        {
          "indexed": true,
          "internalType": "uint256",
          "name": "tokenId",
          "type": "uint256"
        }
      ],
      "name": "Approval",
      "type": "event"
    },
    {
      "anonymous": false,
      "inputs": [
        {
          "indexed": true,
          "internalType": "address",
          "name": "owner",
          "type": "address"
        },
        {
          "indexed": true,
          "internalType": "address",
          "name": "operator",
          "type": "address"
        },
        {
          "indexed": false,
          "internalType": "bool",
          "name": "approved",
          "type": "bool"
        }
      ],
      "name": "ApprovalForAll",
      "type": "event"
    },
    {
      "anonymous": false,
      "inputs": [
        {
          "indexed": false,
          "internalType": "string",
          "name": "uri",
          "type": "string"
        },
        {
          "indexed": false,
          "internalType": "address",
          "name": "user",
          "type": "address"
        },
        {
          "indexed": false,
          "internalType": "uint256",
          "name": "amount",
          "type": "uint256"
        }
      ],
      "name": "BidPlaced",
      "type": "event"
    },
    {
      "anonymous": false,
      "inputs": [
        {
          "indexed": false,
          "internalType": "string",
          "name": "uri",
          "type": "string"
        },
        {
          "indexed": false,
          "internalType": "uint256",
          "name": "startPrice",
          "type": "uint256"
        },
        {
          "indexed": false,
          "internalType": "uint256",
          "name": "increment",
          "type": "uint256"
        },
        {
          "indexed": false,
          "internalType": "uint256",
          "name": "startTime",
          "type": "uint256"
        },
        {
          "indexed": false,
          "internalType": "uint256",
          "name": "endTime",
          "type": "uint256"
        }
      ],
      "name": "CreateBid",
      "type": "event"
    },
    {
      "anonymous": false,
      "inputs": [
        {
          "indexed": false,
          "internalType": "string",
          "name": "uri",
          "type": "string"
        },
        {
          "indexed": false,
          "internalType": "uint256",
          "name": "index",
          "type": "uint256"
        }
      ],
      "name": "CreateNFT",
      "type": "event"
    },
    {
      "anonymous": false,
      "inputs": [
        {
          "indexed": true,
          "internalType": "address",
          "name": "previousOwner",
          "type": "address"
        },
        {
          "indexed": true,
          "internalType": "address",
          "name": "newOwner",
          "type": "address"
        }
      ],
      "name": "OwnershipTransferred",
      "type": "event"
    },
    {
      "anonymous": false,
      "inputs": [
        {
          "indexed": false,
          "internalType": "string",
          "name": "uri",
          "type": "string"
        },
        {
          "indexed": false,
          "internalType": "address",
          "name": "oldowner",
          "type": "address"
        },
        {
          "indexed": false,
          "internalType": "address",
          "name": "newowner",
          "type": "address"
        },
        {
          "indexed": false,
          "internalType": "uint256",
          "name": "totalPrice",
          "type": "uint256"
        },
        {
          "indexed": false,
          "internalType": "uint256",
          "name": "platformValue",
          "type": "uint256"
        },
        {
          "indexed": false,
          "internalType": "uint256",
          "name": "saleCount",
          "type": "uint256"
        }
      ],
      "name": "SettleBid",
      "type": "event"
    },
    {
      "anonymous": false,
      "inputs": [
        {
          "indexed": true,
          "internalType": "address",
          "name": "from",
          "type": "address"
        },
        {
          "indexed": true,
          "internalType": "address",
          "name": "to",
          "type": "address"
        },
        {
          "indexed": true,
          "internalType": "uint256",
          "name": "tokenId",
          "type": "uint256"
        }
      ],
      "name": "Transfer",
      "type": "event"
    },
    {
      "anonymous": false,
      "inputs": [
        {
          "indexed": false,
          "internalType": "string",
          "name": "uri",
          "type": "string"
        },
        {
          "indexed": false,
          "internalType": "uint256",
          "name": "endtime",
          "type": "uint256"
        }
      ],
      "name": "UpdateBidEndTime",
      "type": "event"
    },
    {
      "anonymous": false,
      "inputs": [
        {
          "indexed": false,
          "internalType": "address payable",
          "name": "platformFeeRecipient",
          "type": "address"
        }
      ],
      "name": "UpdatePlatformFeeRecipient",
      "type": "event"
    },
    {
      "anonymous": false,
      "inputs": [
        {
          "indexed": false,
          "internalType": "uint256",
          "name": "firstSaleFee",
          "type": "uint256"
        },
        {
          "indexed": false,
          "internalType": "uint256",
          "name": "secondSaleFee",
          "type": "uint256"
        }
      ],
      "name": "UpdatePlatformFees",
      "type": "event"
    },
    {
      "inputs": [
        {
          "internalType": "address",
          "name": "to",
          "type": "address"
        },
        {
          "internalType": "uint256",
          "name": "tokenId",
          "type": "uint256"
        }
      ],
      "name": "approve",
      "outputs": [],
      "stateMutability": "nonpayable",
      "type": "function"
    },
    {
      "inputs": [
        {
          "internalType": "uint256",
          "name": "",
          "type": "uint256"
        }
      ],
      "name": "auctions",
      "outputs": [
        {
          "internalType": "address",
          "name": "winner",
          "type": "address"
        },
        {
          "internalType": "uint256",
          "name": "startPrice",
          "type": "uint256"
        },
        {
          "internalType": "uint256",
          "name": "increment",
          "type": "uint256"
        },
        {
          "internalType": "uint256",
          "name": "startTime",
          "type": "uint256"
        },
        {
          "internalType": "uint256",
          "name": "endTime",
          "type": "uint256"
        },
        {
          "internalType": "bool",
          "name": "resulted",
          "type": "bool"
        }
      ],
      "stateMutability": "view",
      "type": "function"
    },
    {
      "inputs": [
        {
          "internalType": "address",
          "name": "owner",
          "type": "address"
        }
      ],
      "name": "balanceOf",
      "outputs": [
        {
          "internalType": "uint256",
          "name": "",
          "type": "uint256"
        }
      ],
      "stateMutability": "view",
      "type": "function"
    },
    {
      "inputs": [
        {
          "internalType": "string",
          "name": "uri",
          "type": "string"
        },
        {
          "internalType": "uint256",
          "name": "_amount",
          "type": "uint256"
        }
      ],
      "name": "bid",
      "outputs": [],
      "stateMutability": "payable",
      "type": "function"
    },
    {
      "inputs": [
        {
          "internalType": "string",
          "name": "uri",
          "type": "string"
        },
        {
          "internalType": "uint256",
          "name": "startPrice",
          "type": "uint256"
        },
        {
          "internalType": "uint256",
          "name": "increment",
          "type": "uint256"
        },
        {
          "internalType": "uint256",
          "name": "startTime",
          "type": "uint256"
        },
        {
          "internalType": "uint256",
          "name": "endTime",
          "type": "uint256"
        }
      ],
      "name": "createBidding",
      "outputs": [],
      "stateMutability": "nonpayable",
      "type": "function"
    },
    {
      "inputs": [
        {
          "internalType": "string",
          "name": "uri",
          "type": "string"
        },
        {
          "internalType": "string",
          "name": "name",
          "type": "string"
        }
      ],
      "name": "createNFT",
      "outputs": [],
      "stateMutability": "nonpayable",
      "type": "function"
    },
    {
      "inputs": [],
      "name": "firstSaleFee",
      "outputs": [
        {
          "internalType": "uint256",
          "name": "",
          "type": "uint256"
        }
      ],
      "stateMutability": "view",
      "type": "function"
    },
    {
      "inputs": [
        {
          "internalType": "uint256",
          "name": "tokenId",
          "type": "uint256"
        }
      ],
      "name": "getApproved",
      "outputs": [
        {
          "internalType": "address",
          "name": "",
          "type": "address"
        }
      ],
      "stateMutability": "view",
      "type": "function"
    },
    {
      "inputs": [
        {
          "internalType": "address",
          "name": "owner",
          "type": "address"
        },
        {
          "internalType": "address",
          "name": "operator",
          "type": "address"
        }
      ],
      "name": "isApprovedForAll",
      "outputs": [
        {
          "internalType": "bool",
          "name": "",
          "type": "bool"
        }
      ],
      "stateMutability": "view",
      "type": "function"
    },
    {
      "inputs": [
        {
          "internalType": "string",
          "name": "",
          "type": "string"
        }
      ],
      "name": "listNFT",
      "outputs": [
        {
          "internalType": "address",
          "name": "owner",
          "type": "address"
        },
        {
          "internalType": "string",
          "name": "name",
          "type": "string"
        },
        {
          "internalType": "uint256",
          "name": "price",
          "type": "uint256"
        },
        {
          "internalType": "uint256",
          "name": "saleCount",
          "type": "uint256"
        },
        {
          "internalType": "enum DeciblingAuction.AudioStatus",
          "name": "status",
          "type": "uint8"
        }
      ],
      "stateMutability": "view",
      "type": "function"
    },
    {
      "inputs": [],
      "name": "name",
      "outputs": [
        {
          "internalType": "string",
          "name": "",
          "type": "string"
        }
      ],
      "stateMutability": "view",
      "type": "function"
    },
    {
      "inputs": [],
      "name": "owner",
      "outputs": [
        {
          "internalType": "address",
          "name": "",
          "type": "address"
        }
      ],
      "stateMutability": "view",
      "type": "function"
    },
    {
      "inputs": [
        {
          "internalType": "uint256",
          "name": "tokenId",
          "type": "uint256"
        }
      ],
      "name": "ownerOf",
      "outputs": [
        {
          "internalType": "address",
          "name": "",
          "type": "address"
        }
      ],
      "stateMutability": "view",
      "type": "function"
    },
    {
      "inputs": [],
      "name": "renounceOwnership",
      "outputs": [],
      "stateMutability": "nonpayable",
      "type": "function"
    },
    {
      "inputs": [
        {
          "internalType": "address",
          "name": "from",
          "type": "address"
        },
        {
          "internalType": "address",
          "name": "to",
          "type": "address"
        },
        {
          "internalType": "uint256",
          "name": "tokenId",
          "type": "uint256"
        }
      ],
      "name": "safeTransferFrom",
      "outputs": [],
      "stateMutability": "nonpayable",
      "type": "function"
    },
    {
      "inputs": [
        {
          "internalType": "address",
          "name": "from",
          "type": "address"
        },
        {
          "internalType": "address",
          "name": "to",
          "type": "address"
        },
        {
          "internalType": "uint256",
          "name": "tokenId",
          "type": "uint256"
        },
        {
          "internalType": "bytes",
          "name": "data",
          "type": "bytes"
        }
      ],
      "name": "safeTransferFrom",
      "outputs": [],
      "stateMutability": "nonpayable",
      "type": "function"
    },
    {
      "inputs": [],
      "name": "secondSaleFee",
      "outputs": [
        {
          "internalType": "uint256",
          "name": "",
          "type": "uint256"
        }
      ],
      "stateMutability": "view",
      "type": "function"
    },
    {
      "inputs": [
        {
          "internalType": "address",
          "name": "operator",
          "type": "address"
        },
        {
          "internalType": "bool",
          "name": "approved",
          "type": "bool"
        }
      ],
      "name": "setApprovalForAll",
      "outputs": [],
      "stateMutability": "nonpayable",
      "type": "function"
    },
    {
      "inputs": [
        {
          "internalType": "string",
          "name": "uri",
          "type": "string"
        }
      ],
      "name": "settleBiddingSession",
      "outputs": [],
      "stateMutability": "payable",
      "type": "function"
    },
    {
      "inputs": [
        {
          "internalType": "bytes4",
          "name": "interfaceId",
          "type": "bytes4"
        }
      ],
      "name": "supportsInterface",
      "outputs": [
        {
          "internalType": "bool",
          "name": "",
          "type": "bool"
        }
      ],
      "stateMutability": "view",
      "type": "function"
    },
    {
      "inputs": [],
      "name": "symbol",
      "outputs": [
        {
          "internalType": "string",
          "name": "",
          "type": "string"
        }
      ],
      "stateMutability": "view",
      "type": "function"
    },
    {
      "inputs": [
        {
          "internalType": "string",
          "name": "",
          "type": "string"
        }
      ],
      "name": "tokenIdMapping",
      "outputs": [
        {
          "internalType": "uint256",
          "name": "",
          "type": "uint256"
        }
      ],
      "stateMutability": "view",
      "type": "function"
    },
    {
      "inputs": [
        {
          "internalType": "uint256",
          "name": "tokenId",
          "type": "uint256"
        }
      ],
      "name": "tokenURI",
      "outputs": [
        {
          "internalType": "string",
          "name": "",
          "type": "string"
        }
      ],
      "stateMutability": "view",
      "type": "function"
    },
    {
      "inputs": [
        {
          "internalType": "uint256",
          "name": "",
          "type": "uint256"
        }
      ],
      "name": "topBids",
      "outputs": [
        {
          "internalType": "address",
          "name": "user",
          "type": "address"
        },
        {
          "internalType": "uint256",
          "name": "price",
          "type": "uint256"
        },
        {
          "internalType": "uint256",
          "name": "timestamp",
          "type": "uint256"
        }
      ],
      "stateMutability": "view",
      "type": "function"
    },
    {
      "inputs": [
        {
          "internalType": "address",
          "name": "from",
          "type": "address"
        },
        {
          "internalType": "address",
          "name": "to",
          "type": "address"
        },
        {
          "internalType": "uint256",
          "name": "tokenId",
          "type": "uint256"
        }
      ],
      "name": "transferFrom",
      "outputs": [],
      "stateMutability": "nonpayable",
      "type": "function"
    },
    {
      "inputs": [
        {
          "internalType": "address",
          "name": "newOwner",
          "type": "address"
        }
      ],
      "name": "transferOwnership",
      "outputs": [],
      "stateMutability": "nonpayable",
      "type": "function"
    },
    {
      "inputs": [
        {
          "internalType": "string",
          "name": "uri",
          "type": "string"
        },
        {
          "internalType": "uint256",
          "name": "endtime",
          "type": "uint256"
        }
      ],
      "name": "updateBidEndtime",
      "outputs": [],
      "stateMutability": "nonpayable",
      "type": "function"
    },
    {
      "inputs": [
        {
          "internalType": "address payable",
          "name": "_platformFeeRecipient",
          "type": "address"
        }
      ],
      "name": "updatePlatformFeeRecipient",
      "outputs": [],
      "stateMutability": "nonpayable",
      "type": "function"
    },
    {
      "inputs": [
        {
          "internalType": "uint256",
          "name": "_firstSaleFee",
          "type": "uint256"
        },
        {
          "internalType": "uint256",
          "name": "_secondSaleFee",
          "type": "uint256"
        }
      ],
      "name": "updatePlatformFees",
      "outputs": [],
      "stateMutability": "nonpayable",
      "type": "function"
    }
  ],
  "bytecode": "0x6080604052607d600a556064600b553480156200001b57600080fd5b50604051620064e9380380620064e983398181016040528101906200004191906200046d565b6040518060400160405280600981526020017f44656369626c696e6700000000000000000000000000000000000000000000008152506040518060400160405280600281526020017f64420000000000000000000000000000000000000000000000000000000000008152508160009080519060200190620000c59291906200030e565b508060019080519060200190620000de9291906200030e565b50505062000101620000f56200024060201b60201c565b6200024860201b60201c565b6001600781905550600073ffffffffffffffffffffffffffffffffffffffff168273ffffffffffffffffffffffffffffffffffffffff1614158015620001745750600073ffffffffffffffffffffffffffffffffffffffff168173ffffffffffffffffffffffffffffffffffffffff1614155b620001b6576040517f08c379a0000000000000000000000000000000000000000000000000000000008152600401620001ad9062000515565b60405180910390fd5b81600960006101000a81548173ffffffffffffffffffffffffffffffffffffffff021916908373ffffffffffffffffffffffffffffffffffffffff16021790555080600c60006101000a81548173ffffffffffffffffffffffffffffffffffffffff021916908373ffffffffffffffffffffffffffffffffffffffff16021790555050506200059c565b600033905090565b6000600660009054906101000a900473ffffffffffffffffffffffffffffffffffffffff16905081600660006101000a81548173ffffffffffffffffffffffffffffffffffffffff021916908373ffffffffffffffffffffffffffffffffffffffff1602179055508173ffffffffffffffffffffffffffffffffffffffff168173ffffffffffffffffffffffffffffffffffffffff167f8be0079c531659141344cd1fd0a4f28419497f9722a3daafe3b4186f6b6457e060405160405180910390a35050565b8280546200031c9062000566565b90600052602060002090601f0160209004810192826200034057600085556200038c565b82601f106200035b57805160ff19168380011785556200038c565b828001600101855582156200038c579182015b828111156200038b5782518255916020019190600101906200036e565b5b5090506200039b91906200039f565b5090565b5b80821115620003ba576000816000905550600101620003a0565b5090565b600080fd5b600073ffffffffffffffffffffffffffffffffffffffff82169050919050565b6000620003f082620003c3565b9050919050565b6200040281620003e3565b81146200040e57600080fd5b50565b6000815190506200042281620003f7565b92915050565b60006200043582620003c3565b9050919050565b620004478162000428565b81146200045357600080fd5b50565b60008151905062000467816200043c565b92915050565b60008060408385031215620004875762000486620003be565b5b6000620004978582860162000411565b9250506020620004aa8582860162000456565b9150509250929050565b600082825260208201905092915050565b7f3334000000000000000000000000000000000000000000000000000000000000600082015250565b6000620004fd600283620004b4565b91506200050a82620004c5565b602082019050919050565b600060208201905081810360008301526200053081620004ee565b9050919050565b7f4e487b7100000000000000000000000000000000000000000000000000000000600052602260045260246000fd5b600060028204905060018216806200057f57607f821691505b6020821081141562000596576200059562000537565b5b50919050565b615f3d80620005ac6000396000f3fe6080604052600436106101c25760003560e01c806370a08231116100f7578063b95fb84e11610095578063f2fde38b11610064578063f2fde38b14610684578063f5fe7f71146106ad578063fcc6f66d146106d6578063ff41edbc14610701576101c2565b8063b95fb84e146105b8578063be06d53e146105e1578063c87b56dd1461060a578063e985e9c514610647576101c2565b806395d89b41116100d157806395d89b41146104fe578063a22cb46514610529578063b88d4fde14610552578063b88eabdd1461057b576101c2565b806370a082311461047f578063715018a6146104bc5780638da5cb5b146104d3576101c2565b806342842e0e11610164578063571a26a01161013e578063571a26a0146103bb5780635f483313146103fd5780636352211e1461041957806368613d1714610456576101c2565b806342842e0e146103265780634387330e1461034f5780634874b2f414610390576101c2565b8063081812fc116101a0578063081812fc1461026e578063095ea7b3146102ab57806323b872dd146102d45780633c909e93146102fd576101c2565b8063010d9813146101c757806301ffc9a71461020657806306fdde0314610243575b600080fd5b3480156101d357600080fd5b506101ee60048036038101906101e99190613ddf565b61071d565b6040516101fd93929190613e5c565b60405180910390f35b34801561021257600080fd5b5061022d60048036038101906102289190613eeb565b610767565b60405161023a9190613f33565b60405180910390f35b34801561024f57600080fd5b50610258610849565b6040516102659190613fe7565b60405180910390f35b34801561027a57600080fd5b5061029560048036038101906102909190613ddf565b6108db565b6040516102a29190614009565b60405180910390f35b3480156102b757600080fd5b506102d260048036038101906102cd9190614050565b610921565b005b3480156102e057600080fd5b506102fb60048036038101906102f69190614090565b610a39565b005b34801561030957600080fd5b50610324600480360381019061031f91906140e3565b610a99565b005b34801561033257600080fd5b5061034d60048036038101906103489190614090565b610aec565b005b34801561035b57600080fd5b5061037660048036038101906103719190614258565b610b0c565b604051610387959493929190614318565b60405180910390f35b34801561039c57600080fd5b506103a5610c0d565b6040516103b29190614372565b60405180910390f35b3480156103c757600080fd5b506103e260048036038101906103dd9190613ddf565b610c13565b6040516103f49695949392919061438d565b60405180910390f35b610417600480360381019061041291906143ee565b610c7c565b005b34801561042557600080fd5b50610440600480360381019061043b9190613ddf565b611250565b60405161044d9190614009565b60405180910390f35b34801561046257600080fd5b5061047d600480360381019061047891906144aa565b6112d7565b005b34801561048b57600080fd5b506104a660048036038101906104a1919061452b565b611642565b6040516104b39190614372565b60405180910390f35b3480156104c857600080fd5b506104d16116fa565b005b3480156104df57600080fd5b506104e861170e565b6040516104f59190614009565b60405180910390f35b34801561050a57600080fd5b50610513611738565b6040516105209190613fe7565b60405180910390f35b34801561053557600080fd5b50610550600480360381019061054b9190614584565b6117ca565b005b34801561055e57600080fd5b5061057960048036038101906105749190614665565b6117e0565b005b34801561058757600080fd5b506105a2600480360381019061059d9190614258565b611842565b6040516105af9190614372565b60405180910390f35b3480156105c457600080fd5b506105df60048036038101906105da91906143ee565b611870565b005b3480156105ed57600080fd5b50610608600480360381019061060391906146e8565b611c46565b005b34801561061657600080fd5b50610631600480360381019061062c9190613ddf565b61207e565b60405161063e9190613fe7565b60405180910390f35b34801561065357600080fd5b5061066e60048036038101906106699190614782565b6120e6565b60405161067b9190613f33565b60405180910390f35b34801561069057600080fd5b506106ab60048036038101906106a6919061452b565b61217a565b005b3480156106b957600080fd5b506106d460048036038101906106cf9190614800565b6121fe565b005b3480156106e257600080fd5b506106eb6122f1565b6040516106f89190614372565b60405180910390f35b61071b60048036038101906107169190614258565b6122f7565b005b60106020528060005260406000206000915090508060000160009054906101000a900473ffffffffffffffffffffffffffffffffffffffff16908060010154908060020154905083565b60007f80ac58cd000000000000000000000000000000000000000000000000000000007bffffffffffffffffffffffffffffffffffffffffffffffffffffffff1916827bffffffffffffffffffffffffffffffffffffffffffffffffffffffff1916148061083257507f5b5e139f000000000000000000000000000000000000000000000000000000007bffffffffffffffffffffffffffffffffffffffffffffffffffffffff1916827bffffffffffffffffffffffffffffffffffffffffffffffffffffffff1916145b80610842575061084182612bdb565b5b9050919050565b6060600080546108589061485c565b80601f01602080910402602001604051908101604052809291908181526020018280546108849061485c565b80156108d15780601f106108a6576101008083540402835291602001916108d1565b820191906000526020600020905b8154815290600101906020018083116108b457829003601f168201915b5050505050905090565b60006108e682612c45565b6004600083815260200190815260200160002060009054906101000a900473ffffffffffffffffffffffffffffffffffffffff169050919050565b600061092c82611250565b90508073ffffffffffffffffffffffffffffffffffffffff168373ffffffffffffffffffffffffffffffffffffffff16141561099d576040517f08c379a000000000000000000000000000000000000000000000000000000000815260040161099490614900565b60405180910390fd5b8073ffffffffffffffffffffffffffffffffffffffff166109bc612c90565b73ffffffffffffffffffffffffffffffffffffffff1614806109eb57506109ea816109e5612c90565b6120e6565b5b610a2a576040517f08c379a0000000000000000000000000000000000000000000000000000000008152600401610a2190614992565b60405180910390fd5b610a348383612c98565b505050565b610a4a610a44612c90565b82612d51565b610a89576040517f08c379a0000000000000000000000000000000000000000000000000000000008152600401610a8090614a24565b60405180910390fd5b610a94838383612de6565b505050565b610aa16130e0565b81600a8190555080600b819055507f36ac9417f4c4141853b0a7cba911657b2d3d3a399db1e48e7430dd66ce91692d8282604051610ae0929190614a44565b60405180910390a15050565b610b07838383604051806020016040528060008152506117e0565b505050565b600d818051602081018201805184825260208301602085012081835280955050505050506000915090508060000160009054906101000a900473ffffffffffffffffffffffffffffffffffffffff1690806001018054610b6b9061485c565b80601f0160208091040260200160405190810160405280929190818152602001828054610b979061485c565b8015610be45780601f10610bb957610100808354040283529160200191610be4565b820191906000526020600020905b815481529060010190602001808311610bc757829003601f168201915b5050505050908060020154908060030154908060040160009054906101000a900460ff16905085565b600a5481565b600f6020528060005260406000206000915090508060000160009054906101000a900473ffffffffffffffffffffffffffffffffffffffff16908060010154908060020154908060030154908060040154908060050160009054906101000a900460ff16905086565b610c8461315e565b6000600d83604051610c969190614aa9565b908152602001604051809103902090506000600e84604051610cb89190614aa9565b90815260200160405180910390205490503373ffffffffffffffffffffffffffffffffffffffff168260000160009054906101000a900473ffffffffffffffffffffffffffffffffffffffff1673ffffffffffffffffffffffffffffffffffffffff161415610d5c576040517f08c379a0000000000000000000000000000000000000000000000000000000008152600401610d5390614b0c565b60405180910390fd5b6000600e85604051610d6e9190614aa9565b90815260200160405180910390205411610dbd576040517f08c379a0000000000000000000000000000000000000000000000000000000008152600401610db490614b78565b60405180910390fd5b600180811115610dd057610dcf6142a1565b5b8260040160009054906101000a900460ff166001811115610df457610df36142a1565b5b14610e34576040517f08c379a0000000000000000000000000000000000000000000000000000000008152600401610e2b90614be4565b60405180910390fd5b6000600f60008381526020019081526020016000209050610e536131ae565b816003015411158015610e7157508060040154610e6e6131ae565b11155b610eb0576040517f08c379a0000000000000000000000000000000000000000000000000000000008152600401610ea790614c50565b60405180910390fd5b600960009054906101000a900473ffffffffffffffffffffffffffffffffffffffff1673ffffffffffffffffffffffffffffffffffffffff166323b872dd3330876040518463ffffffff1660e01b8152600401610f0f93929190614c70565b602060405180830381600087803b158015610f2957600080fd5b505af1158015610f3d573d6000803e3d6000fd5b505050506040513d601f19601f82011682018060405250810190610f619190614cbc565b610fa0576040517f08c379a0000000000000000000000000000000000000000000000000000000008152600401610f9790614b78565b60405180910390fd5b600060106000848152602001908152602001600020905060008160000160009054906101000a900473ffffffffffffffffffffffffffffffffffffffff169050600082600101549050600073ffffffffffffffffffffffffffffffffffffffff168273ffffffffffffffffffffffffffffffffffffffff1614156110665780871015611061576040517f08c379a000000000000000000000000000000000000000000000000000000000815260040161105890614d35565b60405180910390fd5b6111a7565b8360020154816110769190614d84565b8710156110b8576040517f08c379a00000000000000000000000000000000000000000000000000000000081526004016110af90614d35565b60405180910390fd5b600960009054906101000a900473ffffffffffffffffffffffffffffffffffffffff1673ffffffffffffffffffffffffffffffffffffffff1663a9059cbb83836040518363ffffffff1660e01b8152600401611115929190614dda565b602060405180830381600087803b15801561112f57600080fd5b505af1158015611143573d6000803e3d6000fd5b505050506040513d601f19601f820116820180604052508101906111679190614cbc565b6111a6576040517f08c379a000000000000000000000000000000000000000000000000000000000815260040161119d90614b78565b60405180910390fd5b5b338360000160006101000a81548173ffffffffffffffffffffffffffffffffffffffff021916908373ffffffffffffffffffffffffffffffffffffffff1602179055508683600101819055506111fb6131ae565b83600201819055507f027aaa4de8a8577ab88766593b19e891945e65f7d03ad3551436d3db7feed23388338960405161123693929190614e03565b60405180910390a150505050505061124c6131b6565b5050565b60008061125c836131c0565b9050600073ffffffffffffffffffffffffffffffffffffffff168173ffffffffffffffffffffffffffffffffffffffff1614156112ce576040517f08c379a00000000000000000000000000000000000000000000000000000000081526004016112c590614e8d565b60405180910390fd5b80915050919050565b600084848080601f016020809104026020016040519081016040528093929190818152602001838380828437600081840152601f19601f820116905080830192505050505050509050600081511415611365576040517f08c379a000000000000000000000000000000000000000000000000000000000815260040161135c90614ef9565b60405180910390fd5b600083838080601f016020809104026020016040519081016040528093929190818152602001838380828437600081840152601f19601f8201169050808301925050505050505090506000815114156113f3576040517f08c379a00000000000000000000000000000000000000000000000000000000081526004016113ea90614f65565b60405180910390fd5b6000600e8787604051611407929190614faa565b90815260200160405180910390205414611456576040517f08c379a000000000000000000000000000000000000000000000000000000000815260040161144d9061500f565b60405180910390fd5b61146060086131fd565b600061146c6008613213565b90506114783382613221565b80600e888860405161148b929190614faa565b9081526020016040518091039020819055506040518060a001604052803373ffffffffffffffffffffffffffffffffffffffff16815260200186868080601f016020809104026020016040519081016040528093929190818152602001838380828437600081840152601f19601f8201169050808301925050505050505081526020016000815260200160008152602001600060018111156115305761152f6142a1565b5b815250600d8888604051611545929190614faa565b908152602001604051809103902060008201518160000160006101000a81548173ffffffffffffffffffffffffffffffffffffffff021916908373ffffffffffffffffffffffffffffffffffffffff16021790555060208201518160010190805190602001906115b6929190613cf2565b50604082015181600201556060820151816003015560808201518160040160006101000a81548160ff021916908360018111156115f6576115f56142a1565b5b02179055509050507f59e3e0f1aabce96b386d212c7c9563c597464cb2f714aa8cf022346ea95cfbc68787836040516116319392919061505c565b60405180910390a150505050505050565b60008073ffffffffffffffffffffffffffffffffffffffff168273ffffffffffffffffffffffffffffffffffffffff1614156116b3576040517f08c379a00000000000000000000000000000000000000000000000000000000081526004016116aa90615100565b60405180910390fd5b600360008373ffffffffffffffffffffffffffffffffffffffff1673ffffffffffffffffffffffffffffffffffffffff168152602001908152602001600020549050919050565b6117026130e0565b61170c600061323f565b565b6000600660009054906101000a900473ffffffffffffffffffffffffffffffffffffffff16905090565b6060600180546117479061485c565b80601f01602080910402602001604051908101604052809291908181526020018280546117739061485c565b80156117c05780601f10611795576101008083540402835291602001916117c0565b820191906000526020600020905b8154815290600101906020018083116117a357829003601f168201915b5050505050905090565b6117dc6117d5612c90565b8383613305565b5050565b6117f16117eb612c90565b83612d51565b611830576040517f08c379a000000000000000000000000000000000000000000000000000000000815260040161182790614a24565b60405180910390fd5b61183c84848484613472565b50505050565b600e818051602081018201805184825260208301602085012081835280955050505050506000915090505481565b6118786130e0565b6000600d8360405161188a9190614aa9565b908152602001604051809103902090506000600e846040516118ac9190614aa9565b90815260200160405180910390205490503373ffffffffffffffffffffffffffffffffffffffff168260000160009054906101000a900473ffffffffffffffffffffffffffffffffffffffff1673ffffffffffffffffffffffffffffffffffffffff16148061194d57503373ffffffffffffffffffffffffffffffffffffffff1661193561170e565b73ffffffffffffffffffffffffffffffffffffffff16145b61198c576040517f08c379a00000000000000000000000000000000000000000000000000000000081526004016119839061516c565b60405180910390fd5b6000600e8560405161199e9190614aa9565b908152602001604051809103902054116119ed576040517f08c379a00000000000000000000000000000000000000000000000000000000081526004016119e490614b78565b60405180910390fd5b600180811115611a00576119ff6142a1565b5b8260040160009054906101000a900460ff166001811115611a2457611a236142a1565b5b14611a64576040517f08c379a0000000000000000000000000000000000000000000000000000000008152600401611a5b90614be4565b60405180910390fd5b6000600f600083815260200190815260200160002090508060050160009054906101000a900460ff1615611acd576040517f08c379a0000000000000000000000000000000000000000000000000000000008152600401611ac490614ef9565b60405180910390fd5b8060040154611ada6131ae565b10611b1a576040517f08c379a0000000000000000000000000000000000000000000000000000000008152600401611b11906151d8565b60405180910390fd5b6000816004015411611b61576040517f08c379a0000000000000000000000000000000000000000000000000000000008152600401611b5890615244565b60405180910390fd5b83816003015410611ba7576040517f08c379a0000000000000000000000000000000000000000000000000000000008152600401611b9e906152b0565b60405180910390fd5b61012c611bb26131ae565b611bbc9190614d84565b8411611bfd576040517f08c379a0000000000000000000000000000000000000000000000000000000008152600401611bf49061531c565b60405180910390fd5b8381600401819055507facf5feaf01a2b58e31c33e934d0c35924ca8bbd81db430bd81d7a2211bffc0318585604051611c3792919061533c565b60405180910390a15050505050565b6000600d8787604051611c5a929190614faa565b908152602001604051809103902090506000600e8888604051611c7e929190614faa565b9081526020016040518091039020549050828410611cd1576040517f08c379a0000000000000000000000000000000000000000000000000000000008152600401611cc8906153b8565b60405180910390fd5b6000600e8989604051611ce5929190614faa565b90815260200160405180910390205411611d34576040517f08c379a0000000000000000000000000000000000000000000000000000000008152600401611d2b90614b78565b60405180910390fd5b3373ffffffffffffffffffffffffffffffffffffffff168260000160009054906101000a900473ffffffffffffffffffffffffffffffffffffffff1673ffffffffffffffffffffffffffffffffffffffff1614611dc6576040517f08c379a0000000000000000000000000000000000000000000000000000000008152600401611dbd9061516c565b60405180910390fd5b611dce6131ae565b8311611e0f576040517f08c379a0000000000000000000000000000000000000000000000000000000008152600401611e0690615424565b60405180910390fd5b60006001811115611e2357611e226142a1565b5b8260040160009054906101000a900460ff166001811115611e4757611e466142a1565b5b14611e87576040517f08c379a0000000000000000000000000000000000000000000000000000000008152600401611e7e90614be4565b60405180910390fd5b60008511611eca576040517f08c379a0000000000000000000000000000000000000000000000000000000008152600401611ec190615490565b60405180910390fd5b61012c84611ed89190614d84565b831015611f1a576040517f08c379a0000000000000000000000000000000000000000000000000000000008152600401611f11906154fc565b60405180910390fd5b6040518060c00160405280600073ffffffffffffffffffffffffffffffffffffffff16815260200187815260200186815260200185815260200184815260200160001515815250600f600083815260200190815260200160002060008201518160000160006101000a81548173ffffffffffffffffffffffffffffffffffffffff021916908373ffffffffffffffffffffffffffffffffffffffff1602179055506020820151816001015560408201518160020155606082015181600301556080820151816004015560a08201518160050160006101000a81548160ff02191690831515021790555090505060018260040160006101000a81548160ff0219169083600181111561202e5761202d6142a1565b5b02179055507f63f381f48ee15f142676f98f2e372636463db4fe612c8bd998b1b5b57149d9d288888888888860405161206c9695949392919061551c565b60405180910390a15050505050505050565b606061208982612c45565b60006120936134ce565b905060008151116120b357604051806020016040528060008152506120de565b806120bd846134e5565b6040516020016120ce929190615578565b6040516020818303038152906040525b915050919050565b6000600560008473ffffffffffffffffffffffffffffffffffffffff1673ffffffffffffffffffffffffffffffffffffffff16815260200190815260200160002060008373ffffffffffffffffffffffffffffffffffffffff1673ffffffffffffffffffffffffffffffffffffffff16815260200190815260200160002060009054906101000a900460ff16905092915050565b6121826130e0565b600073ffffffffffffffffffffffffffffffffffffffff168173ffffffffffffffffffffffffffffffffffffffff1614156121f2576040517f08c379a00000000000000000000000000000000000000000000000000000000081526004016121e99061560e565b60405180910390fd5b6121fb8161323f565b50565b6122066130e0565b600073ffffffffffffffffffffffffffffffffffffffff168173ffffffffffffffffffffffffffffffffffffffff161415612276576040517f08c379a000000000000000000000000000000000000000000000000000000000815260040161226d9061567a565b60405180910390fd5b80600c60006101000a81548173ffffffffffffffffffffffffffffffffffffffff021916908373ffffffffffffffffffffffffffffffffffffffff1602179055507fe57e7c1f36cc83fade34e32351e6eee7eb9da532662b1b5da10c631e8222aca7816040516122e691906156a9565b60405180910390a150565b600b5481565b6122ff61315e565b6000600d826040516123119190614aa9565b908152602001604051809103902090506000600e836040516123339190614aa9565b90815260200160405180910390205490503373ffffffffffffffffffffffffffffffffffffffff168260000160009054906101000a900473ffffffffffffffffffffffffffffffffffffffff1673ffffffffffffffffffffffffffffffffffffffff1614806123d457503373ffffffffffffffffffffffffffffffffffffffff166123bc61170e565b73ffffffffffffffffffffffffffffffffffffffff16145b612413576040517f08c379a000000000000000000000000000000000000000000000000000000000815260040161240a9061516c565b60405180910390fd5b6000600e846040516124259190614aa9565b90815260200160405180910390205411612474576040517f08c379a000000000000000000000000000000000000000000000000000000000815260040161246b90614b78565b60405180910390fd5b600180811115612487576124866142a1565b5b8260040160009054906101000a900460ff1660018111156124ab576124aa6142a1565b5b146124eb576040517f08c379a00000000000000000000000000000000000000000000000000000000081526004016124e290614be4565b60405180910390fd5b600073ffffffffffffffffffffffffffffffffffffffff16600c60009054906101000a900473ffffffffffffffffffffffffffffffffffffffff1673ffffffffffffffffffffffffffffffffffffffff16141561257d576040517f08c379a000000000000000000000000000000000000000000000000000000000815260040161257490615710565b60405180910390fd5b6000600f600083815260200190815260200160002090508060050160009054906101000a900460ff16156125e6576040517f08c379a00000000000000000000000000000000000000000000000000000000081526004016125dd90614ef9565b60405180910390fd5b6125ee6131ae565b816003015410801561260a575080600401546126086131ae565b115b612649576040517f08c379a00000000000000000000000000000000000000000000000000000000081526004016126409061577c565b60405180910390fd5b600060106000848152602001908152602001600020905060008160000160009054906101000a900473ffffffffffffffffffffffffffffffffffffffff169050600073ffffffffffffffffffffffffffffffffffffffff168173ffffffffffffffffffffffffffffffffffffffff1614156126f9576040517f08c379a00000000000000000000000000000000000000000000000000000000081526004016126f0906157e8565b60405180910390fd5b60008260010154905060018460050160006101000a81548160ff02191690831515021790555060106000868152602001908152602001600020600080820160006101000a81549073ffffffffffffffffffffffffffffffffffffffff02191690556001820160009055600282016000905550506000808760000160009054906101000a900473ffffffffffffffffffffffffffffffffffffffff169050600088600301541480156127ac57506000600a54115b156127e1576127da6103e86127cc600a54866135bd90919063ffffffff16565b6135d390919063ffffffff16565b915061280d565b61280a6103e86127fc600b54866135bd90919063ffffffff16565b6135d390919063ffffffff16565b91505b6000821415612851576040517f08c379a000000000000000000000000000000000000000000000000000000000815260040161284890615854565b60405180910390fd5b600960009054906101000a900473ffffffffffffffffffffffffffffffffffffffff1673ffffffffffffffffffffffffffffffffffffffff1663a9059cbb82848661289c9190615874565b6040518363ffffffff1660e01b81526004016128b9929190614dda565b602060405180830381600087803b1580156128d357600080fd5b505af11580156128e7573d6000803e3d6000fd5b505050506040513d601f19601f8201168201806040525081019061290b9190614cbc565b61294a576040517f08c379a000000000000000000000000000000000000000000000000000000000815260040161294190614b78565b60405180910390fd5b600960009054906101000a900473ffffffffffffffffffffffffffffffffffffffff1673ffffffffffffffffffffffffffffffffffffffff1663a9059cbb600c60009054906101000a900473ffffffffffffffffffffffffffffffffffffffff16846040518363ffffffff1660e01b81526004016129c9929190615907565b602060405180830381600087803b1580156129e357600080fd5b505af11580156129f7573d6000803e3d6000fd5b505050506040513d601f19601f82011682018060405250810190612a1b9190614cbc565b612a5a576040517f08c379a0000000000000000000000000000000000000000000000000000000008152600401612a5190614b78565b60405180910390fd5b612a838185600e8c604051612a6f9190614aa9565b908152602001604051809103902054610aec565b838860000160006101000a81548173ffffffffffffffffffffffffffffffffffffffff021916908373ffffffffffffffffffffffffffffffffffffffff160217905550828860020181905550612ae7600189600301546135e990919063ffffffff16565b886003018190555060008860040160006101000a81548160ff02191690836001811115612b1757612b166142a1565b5b0217905550838660000160006101000a81548173ffffffffffffffffffffffffffffffffffffffff021916908373ffffffffffffffffffffffffffffffffffffffff1602179055507f116ab0c03bfff8d9996e5c0d5ebdd4daf07ee1141c125826627d3015920f553089828860000160009054906101000a900473ffffffffffffffffffffffffffffffffffffffff1686868d60030154604051612bc096959493929190615930565b60405180910390a15050505050505050612bd86131b6565b50565b60007f01ffc9a7000000000000000000000000000000000000000000000000000000007bffffffffffffffffffffffffffffffffffffffffffffffffffffffff1916827bffffffffffffffffffffffffffffffffffffffffffffffffffffffff1916149050919050565b612c4e816135ff565b612c8d576040517f08c379a0000000000000000000000000000000000000000000000000000000008152600401612c8490614e8d565b60405180910390fd5b50565b600033905090565b816004600083815260200190815260200160002060006101000a81548173ffffffffffffffffffffffffffffffffffffffff021916908373ffffffffffffffffffffffffffffffffffffffff160217905550808273ffffffffffffffffffffffffffffffffffffffff16612d0b83611250565b73ffffffffffffffffffffffffffffffffffffffff167f8c5be1e5ebec7d5bd14f71427d1e84f3dd0314c0f7b2291e5b200ac8c7c3b92560405160405180910390a45050565b600080612d5d83611250565b90508073ffffffffffffffffffffffffffffffffffffffff168473ffffffffffffffffffffffffffffffffffffffff161480612d9f5750612d9e81856120e6565b5b80612ddd57508373ffffffffffffffffffffffffffffffffffffffff16612dc5846108db565b73ffffffffffffffffffffffffffffffffffffffff16145b91505092915050565b8273ffffffffffffffffffffffffffffffffffffffff16612e0682611250565b73ffffffffffffffffffffffffffffffffffffffff1614612e5c576040517f08c379a0000000000000000000000000000000000000000000000000000000008152600401612e5390615a0a565b60405180910390fd5b600073ffffffffffffffffffffffffffffffffffffffff168273ffffffffffffffffffffffffffffffffffffffff161415612ecc576040517f08c379a0000000000000000000000000000000000000000000000000000000008152600401612ec390615a9c565b60405180910390fd5b612ed98383836001613640565b8273ffffffffffffffffffffffffffffffffffffffff16612ef982611250565b73ffffffffffffffffffffffffffffffffffffffff1614612f4f576040517f08c379a0000000000000000000000000000000000000000000000000000000008152600401612f4690615a0a565b60405180910390fd5b6004600082815260200190815260200160002060006101000a81549073ffffffffffffffffffffffffffffffffffffffff02191690556001600360008573ffffffffffffffffffffffffffffffffffffffff1673ffffffffffffffffffffffffffffffffffffffff168152602001908152602001600020600082825403925050819055506001600360008473ffffffffffffffffffffffffffffffffffffffff1673ffffffffffffffffffffffffffffffffffffffff16815260200190815260200160002060008282540192505081905550816002600083815260200190815260200160002060006101000a81548173ffffffffffffffffffffffffffffffffffffffff021916908373ffffffffffffffffffffffffffffffffffffffff160217905550808273ffffffffffffffffffffffffffffffffffffffff168473ffffffffffffffffffffffffffffffffffffffff167fddf252ad1be2c89b69c2b068fc378daa952ba7f163c4a11628f55a4df523b3ef60405160405180910390a46130db8383836001613766565b505050565b6130e8612c90565b73ffffffffffffffffffffffffffffffffffffffff1661310661170e565b73ffffffffffffffffffffffffffffffffffffffff161461315c576040517f08c379a000000000000000000000000000000000000000000000000000000000815260040161315390615b08565b60405180910390fd5b565b600260075414156131a4576040517f08c379a000000000000000000000000000000000000000000000000000000000815260040161319b90615b74565b60405180910390fd5b6002600781905550565b600042905090565b6001600781905550565b60006002600083815260200190815260200160002060009054906101000a900473ffffffffffffffffffffffffffffffffffffffff169050919050565b6001816000016000828254019250508190555050565b600081600001549050919050565b61323b82826040518060200160405280600081525061376c565b5050565b6000600660009054906101000a900473ffffffffffffffffffffffffffffffffffffffff16905081600660006101000a81548173ffffffffffffffffffffffffffffffffffffffff021916908373ffffffffffffffffffffffffffffffffffffffff1602179055508173ffffffffffffffffffffffffffffffffffffffff168173ffffffffffffffffffffffffffffffffffffffff167f8be0079c531659141344cd1fd0a4f28419497f9722a3daafe3b4186f6b6457e060405160405180910390a35050565b8173ffffffffffffffffffffffffffffffffffffffff168373ffffffffffffffffffffffffffffffffffffffff161415613374576040517f08c379a000000000000000000000000000000000000000000000000000000000815260040161336b90615be0565b60405180910390fd5b80600560008573ffffffffffffffffffffffffffffffffffffffff1673ffffffffffffffffffffffffffffffffffffffff16815260200190815260200160002060008473ffffffffffffffffffffffffffffffffffffffff1673ffffffffffffffffffffffffffffffffffffffff16815260200190815260200160002060006101000a81548160ff0219169083151502179055508173ffffffffffffffffffffffffffffffffffffffff168373ffffffffffffffffffffffffffffffffffffffff167f17307eab39ab6107e8899845ad3d59bd9653f200f220920489ca2b5937696c31836040516134659190613f33565b60405180910390a3505050565b61347d848484612de6565b613489848484846137c7565b6134c8576040517f08c379a00000000000000000000000000000000000000000000000000000000081526004016134bf90615c72565b60405180910390fd5b50505050565b606060405180602001604052806000815250905090565b6060600060016134f48461395e565b01905060008167ffffffffffffffff8111156135135761351261412d565b5b6040519080825280601f01601f1916602001820160405280156135455781602001600182028036833780820191505090505b509050600082602001820190505b6001156135b2578080600190039150507f3031323334353637383961626364656600000000000000000000000000000000600a86061a8153600a858161359c5761359b615c92565b5b04945060008514156135ad576135b2565b613553565b819350505050919050565b600081836135cb9190615cc1565b905092915050565b600081836135e19190615d1b565b905092915050565b600081836135f79190614d84565b905092915050565b60008073ffffffffffffffffffffffffffffffffffffffff16613621836131c0565b73ffffffffffffffffffffffffffffffffffffffff1614159050919050565b600181111561376057600073ffffffffffffffffffffffffffffffffffffffff168473ffffffffffffffffffffffffffffffffffffffff16146136d45780600360008673ffffffffffffffffffffffffffffffffffffffff1673ffffffffffffffffffffffffffffffffffffffff16815260200190815260200160002060008282546136cc9190615874565b925050819055505b600073ffffffffffffffffffffffffffffffffffffffff168373ffffffffffffffffffffffffffffffffffffffff161461375f5780600360008573ffffffffffffffffffffffffffffffffffffffff1673ffffffffffffffffffffffffffffffffffffffff16815260200190815260200160002060008282546137579190614d84565b925050819055505b5b50505050565b50505050565b6137768383613ab1565b61378360008484846137c7565b6137c2576040517f08c379a00000000000000000000000000000000000000000000000000000000081526004016137b990615c72565b60405180910390fd5b505050565b60006137e88473ffffffffffffffffffffffffffffffffffffffff16613ccf565b15613951578373ffffffffffffffffffffffffffffffffffffffff1663150b7a02613811612c90565b8786866040518563ffffffff1660e01b81526004016138339493929190615da1565b602060405180830381600087803b15801561384d57600080fd5b505af192505050801561387e57506040513d601f19601f8201168201806040525081019061387b9190615e02565b60015b613901573d80600081146138ae576040519150601f19603f3d011682016040523d82523d6000602084013e6138b3565b606091505b506000815114156138f9576040517f08c379a00000000000000000000000000000000000000000000000000000000081526004016138f090615c72565b60405180910390fd5b805181602001fd5b63150b7a0260e01b7bffffffffffffffffffffffffffffffffffffffffffffffffffffffff1916817bffffffffffffffffffffffffffffffffffffffffffffffffffffffff191614915050613956565b600190505b949350505050565b600080600090507a184f03e93ff9f4daa797ed6e38ed64bf6a1f01000000000000000083106139bc577a184f03e93ff9f4daa797ed6e38ed64bf6a1f01000000000000000083816139b2576139b1615c92565b5b0492506040810190505b6d04ee2d6d415b85acef810000000083106139f9576d04ee2d6d415b85acef810000000083816139ef576139ee615c92565b5b0492506020810190505b662386f26fc100008310613a2857662386f26fc100008381613a1e57613a1d615c92565b5b0492506010810190505b6305f5e1008310613a51576305f5e1008381613a4757613a46615c92565b5b0492506008810190505b6127108310613a76576127108381613a6c57613a6b615c92565b5b0492506004810190505b60648310613a995760648381613a8f57613a8e615c92565b5b0492506002810190505b600a8310613aa8576001810190505b80915050919050565b600073ffffffffffffffffffffffffffffffffffffffff168273ffffffffffffffffffffffffffffffffffffffff161415613b21576040517f08c379a0000000000000000000000000000000000000000000000000000000008152600401613b1890615e7b565b60405180910390fd5b613b2a816135ff565b15613b6a576040517f08c379a0000000000000000000000000000000000000000000000000000000008152600401613b6190615ee7565b60405180910390fd5b613b78600083836001613640565b613b81816135ff565b15613bc1576040517f08c379a0000000000000000000000000000000000000000000000000000000008152600401613bb890615ee7565b60405180910390fd5b6001600360008473ffffffffffffffffffffffffffffffffffffffff1673ffffffffffffffffffffffffffffffffffffffff16815260200190815260200160002060008282540192505081905550816002600083815260200190815260200160002060006101000a81548173ffffffffffffffffffffffffffffffffffffffff021916908373ffffffffffffffffffffffffffffffffffffffff160217905550808273ffffffffffffffffffffffffffffffffffffffff16600073ffffffffffffffffffffffffffffffffffffffff167fddf252ad1be2c89b69c2b068fc378daa952ba7f163c4a11628f55a4df523b3ef60405160405180910390a4613ccb600083836001613766565b5050565b6000808273ffffffffffffffffffffffffffffffffffffffff163b119050919050565b828054613cfe9061485c565b90600052602060002090601f016020900481019282613d205760008555613d67565b82601f10613d3957805160ff1916838001178555613d67565b82800160010185558215613d67579182015b82811115613d66578251825591602001919060010190613d4b565b5b509050613d749190613d78565b5090565b5b80821115613d91576000816000905550600101613d79565b5090565b6000604051905090565b600080fd5b600080fd5b6000819050919050565b613dbc81613da9565b8114613dc757600080fd5b50565b600081359050613dd981613db3565b92915050565b600060208284031215613df557613df4613d9f565b5b6000613e0384828501613dca565b91505092915050565b600073ffffffffffffffffffffffffffffffffffffffff82169050919050565b6000613e3782613e0c565b9050919050565b613e4781613e2c565b82525050565b613e5681613da9565b82525050565b6000606082019050613e716000830186613e3e565b613e7e6020830185613e4d565b613e8b6040830184613e4d565b949350505050565b60007fffffffff0000000000000000000000000000000000000000000000000000000082169050919050565b613ec881613e93565b8114613ed357600080fd5b50565b600081359050613ee581613ebf565b92915050565b600060208284031215613f0157613f00613d9f565b5b6000613f0f84828501613ed6565b91505092915050565b60008115159050919050565b613f2d81613f18565b82525050565b6000602082019050613f486000830184613f24565b92915050565b600081519050919050565b600082825260208201905092915050565b60005b83811015613f88578082015181840152602081019050613f6d565b83811115613f97576000848401525b50505050565b6000601f19601f8301169050919050565b6000613fb982613f4e565b613fc38185613f59565b9350613fd3818560208601613f6a565b613fdc81613f9d565b840191505092915050565b600060208201905081810360008301526140018184613fae565b905092915050565b600060208201905061401e6000830184613e3e565b92915050565b61402d81613e2c565b811461403857600080fd5b50565b60008135905061404a81614024565b92915050565b6000806040838503121561406757614066613d9f565b5b60006140758582860161403b565b925050602061408685828601613dca565b9150509250929050565b6000806000606084860312156140a9576140a8613d9f565b5b60006140b78682870161403b565b93505060206140c88682870161403b565b92505060406140d986828701613dca565b9150509250925092565b600080604083850312156140fa576140f9613d9f565b5b600061410885828601613dca565b925050602061411985828601613dca565b9150509250929050565b600080fd5b600080fd5b7f4e487b7100000000000000000000000000000000000000000000000000000000600052604160045260246000fd5b61416582613f9d565b810181811067ffffffffffffffff821117156141845761418361412d565b5b80604052505050565b6000614197613d95565b90506141a3828261415c565b919050565b600067ffffffffffffffff8211156141c3576141c261412d565b5b6141cc82613f9d565b9050602081019050919050565b82818337600083830152505050565b60006141fb6141f6846141a8565b61418d565b90508281526020810184848401111561421757614216614128565b5b6142228482856141d9565b509392505050565b600082601f83011261423f5761423e614123565b5b813561424f8482602086016141e8565b91505092915050565b60006020828403121561426e5761426d613d9f565b5b600082013567ffffffffffffffff81111561428c5761428b613da4565b5b6142988482850161422a565b91505092915050565b7f4e487b7100000000000000000000000000000000000000000000000000000000600052602160045260246000fd5b600281106142e1576142e06142a1565b5b50565b60008190506142f2826142d0565b919050565b6000614302826142e4565b9050919050565b614312816142f7565b82525050565b600060a08201905061432d6000830188613e3e565b818103602083015261433f8187613fae565b905061434e6040830186613e4d565b61435b6060830185613e4d565b6143686080830184614309565b9695505050505050565b60006020820190506143876000830184613e4d565b92915050565b600060c0820190506143a26000830189613e3e565b6143af6020830188613e4d565b6143bc6040830187613e4d565b6143c96060830186613e4d565b6143d66080830185613e4d565b6143e360a0830184613f24565b979650505050505050565b6000806040838503121561440557614404613d9f565b5b600083013567ffffffffffffffff81111561442357614422613da4565b5b61442f8582860161422a565b925050602061444085828601613dca565b9150509250929050565b600080fd5b600080fd5b60008083601f84011261446a57614469614123565b5b8235905067ffffffffffffffff8111156144875761448661444a565b5b6020830191508360018202830111156144a3576144a261444f565b5b9250929050565b600080600080604085870312156144c4576144c3613d9f565b5b600085013567ffffffffffffffff8111156144e2576144e1613da4565b5b6144ee87828801614454565b9450945050602085013567ffffffffffffffff81111561451157614510613da4565b5b61451d87828801614454565b925092505092959194509250565b60006020828403121561454157614540613d9f565b5b600061454f8482850161403b565b91505092915050565b61456181613f18565b811461456c57600080fd5b50565b60008135905061457e81614558565b92915050565b6000806040838503121561459b5761459a613d9f565b5b60006145a98582860161403b565b92505060206145ba8582860161456f565b9150509250929050565b600067ffffffffffffffff8211156145df576145de61412d565b5b6145e882613f9d565b9050602081019050919050565b6000614608614603846145c4565b61418d565b90508281526020810184848401111561462457614623614128565b5b61462f8482856141d9565b509392505050565b600082601f83011261464c5761464b614123565b5b813561465c8482602086016145f5565b91505092915050565b6000806000806080858703121561467f5761467e613d9f565b5b600061468d8782880161403b565b945050602061469e8782880161403b565b93505060406146af87828801613dca565b925050606085013567ffffffffffffffff8111156146d0576146cf613da4565b5b6146dc87828801614637565b91505092959194509250565b60008060008060008060a0878903121561470557614704613d9f565b5b600087013567ffffffffffffffff81111561472357614722613da4565b5b61472f89828a01614454565b9650965050602061474289828a01613dca565b945050604061475389828a01613dca565b935050606061476489828a01613dca565b925050608061477589828a01613dca565b9150509295509295509295565b6000806040838503121561479957614798613d9f565b5b60006147a78582860161403b565b92505060206147b88582860161403b565b9150509250929050565b60006147cd82613e0c565b9050919050565b6147dd816147c2565b81146147e857600080fd5b50565b6000813590506147fa816147d4565b92915050565b60006020828403121561481657614815613d9f565b5b6000614824848285016147eb565b91505092915050565b7f4e487b7100000000000000000000000000000000000000000000000000000000600052602260045260246000fd5b6000600282049050600182168061487457607f821691505b602082108114156148885761488761482d565b5b50919050565b7f4552433732313a20617070726f76616c20746f2063757272656e74206f776e6560008201527f7200000000000000000000000000000000000000000000000000000000000000602082015250565b60006148ea602183613f59565b91506148f58261488e565b604082019050919050565b60006020820190508181036000830152614919816148dd565b9050919050565b7f4552433732313a20617070726f76652063616c6c6572206973206e6f7420746f60008201527f6b656e206f776e6572206f7220617070726f76656420666f7220616c6c000000602082015250565b600061497c603d83613f59565b915061498782614920565b604082019050919050565b600060208201905081810360008301526149ab8161496f565b9050919050565b7f4552433732313a2063616c6c6572206973206e6f7420746f6b656e206f776e6560008201527f72206f7220617070726f76656400000000000000000000000000000000000000602082015250565b6000614a0e602d83613f59565b9150614a19826149b2565b604082019050919050565b60006020820190508181036000830152614a3d81614a01565b9050919050565b6000604082019050614a596000830185613e4d565b614a666020830184613e4d565b9392505050565b600081905092915050565b6000614a8382613f4e565b614a8d8185614a6d565b9350614a9d818560208601613f6a565b80840191505092915050565b6000614ab58284614a78565b915081905092915050565b7f3235000000000000000000000000000000000000000000000000000000000000600082015250565b6000614af6600283613f59565b9150614b0182614ac0565b602082019050919050565b60006020820190508181036000830152614b2581614ae9565b9050919050565b7f3236000000000000000000000000000000000000000000000000000000000000600082015250565b6000614b62600283613f59565b9150614b6d82614b2c565b602082019050919050565b60006020820190508181036000830152614b9181614b55565b9050919050565b7f3800000000000000000000000000000000000000000000000000000000000000600082015250565b6000614bce600183613f59565b9150614bd982614b98565b602082019050919050565b60006020820190508181036000830152614bfd81614bc1565b9050919050565b7f3132000000000000000000000000000000000000000000000000000000000000600082015250565b6000614c3a600283613f59565b9150614c4582614c04565b602082019050919050565b60006020820190508181036000830152614c6981614c2d565b9050919050565b6000606082019050614c856000830186613e3e565b614c926020830185613e3e565b614c9f6040830184613e4d565b949350505050565b600081519050614cb681614558565b92915050565b600060208284031215614cd257614cd1613d9f565b5b6000614ce084828501614ca7565b91505092915050565b7f3133000000000000000000000000000000000000000000000000000000000000600082015250565b6000614d1f600283613f59565b9150614d2a82614ce9565b602082019050919050565b60006020820190508181036000830152614d4e81614d12565b9050919050565b7f4e487b7100000000000000000000000000000000000000000000000000000000600052601160045260246000fd5b6000614d8f82613da9565b9150614d9a83613da9565b9250827fffffffffffffffffffffffffffffffffffffffffffffffffffffffffffffffff03821115614dcf57614dce614d55565b5b828201905092915050565b6000604082019050614def6000830185613e3e565b614dfc6020830184613e4d565b9392505050565b60006060820190508181036000830152614e1d8186613fae565b9050614e2c6020830185613e3e565b614e396040830184613e4d565b949350505050565b7f4552433732313a20696e76616c696420746f6b656e2049440000000000000000600082015250565b6000614e77601883613f59565b9150614e8282614e41565b602082019050919050565b60006020820190508181036000830152614ea681614e6a565b9050919050565b7f3237000000000000000000000000000000000000000000000000000000000000600082015250565b6000614ee3600283613f59565b9150614eee82614ead565b602082019050919050565b60006020820190508181036000830152614f1281614ed6565b9050919050565b7f3238000000000000000000000000000000000000000000000000000000000000600082015250565b6000614f4f600283613f59565b9150614f5a82614f19565b602082019050919050565b60006020820190508181036000830152614f7e81614f42565b9050919050565b6000614f918385614a6d565b9350614f9e8385846141d9565b82840190509392505050565b6000614fb7828486614f85565b91508190509392505050565b7f3200000000000000000000000000000000000000000000000000000000000000600082015250565b6000614ff9600183613f59565b915061500482614fc3565b602082019050919050565b6000602082019050818103600083015261502881614fec565b9050919050565b600061503b8385613f59565b93506150488385846141d9565b61505183613f9d565b840190509392505050565b6000604082019050818103600083015261507781858761502f565b90506150866020830184613e4d565b949350505050565b7f4552433732313a2061646472657373207a65726f206973206e6f74206120766160008201527f6c6964206f776e65720000000000000000000000000000000000000000000000602082015250565b60006150ea602983613f59565b91506150f58261508e565b604082019050919050565b60006020820190508181036000830152615119816150dd565b9050919050565b7f3600000000000000000000000000000000000000000000000000000000000000600082015250565b6000615156600183613f59565b915061516182615120565b602082019050919050565b6000602082019050818103600083015261518581615149565b9050919050565b7f3330000000000000000000000000000000000000000000000000000000000000600082015250565b60006151c2600283613f59565b91506151cd8261518c565b602082019050919050565b600060208201905081810360008301526151f1816151b5565b9050919050565b7f3331000000000000000000000000000000000000000000000000000000000000600082015250565b600061522e600283613f59565b9150615239826151f8565b602082019050919050565b6000602082019050818103600083015261525d81615221565b9050919050565b7f3332000000000000000000000000000000000000000000000000000000000000600082015250565b600061529a600283613f59565b91506152a582615264565b602082019050919050565b600060208201905081810360008301526152c98161528d565b9050919050565b7f3333000000000000000000000000000000000000000000000000000000000000600082015250565b6000615306600283613f59565b9150615311826152d0565b602082019050919050565b60006020820190508181036000830152615335816152f9565b9050919050565b600060408201905081810360008301526153568185613fae565b90506153656020830184613e4d565b9392505050565b7f3138000000000000000000000000000000000000000000000000000000000000600082015250565b60006153a2600283613f59565b91506153ad8261536c565b602082019050919050565b600060208201905081810360008301526153d181615395565b9050919050565b7f3700000000000000000000000000000000000000000000000000000000000000600082015250565b600061540e600183613f59565b9150615419826153d8565b602082019050919050565b6000602082019050818103600083015261543d81615401565b9050919050565b7f3232000000000000000000000000000000000000000000000000000000000000600082015250565b600061547a600283613f59565b915061548582615444565b602082019050919050565b600060208201905081810360008301526154a98161546d565b9050919050565b7f3234000000000000000000000000000000000000000000000000000000000000600082015250565b60006154e6600283613f59565b91506154f1826154b0565b602082019050919050565b60006020820190508181036000830152615515816154d9565b9050919050565b600060a082019050818103600083015261553781888a61502f565b90506155466020830187613e4d565b6155536040830186613e4d565b6155606060830185613e4d565b61556d6080830184613e4d565b979650505050505050565b60006155848285614a78565b91506155908284614a78565b91508190509392505050565b7f4f776e61626c653a206e6577206f776e657220697320746865207a65726f206160008201527f6464726573730000000000000000000000000000000000000000000000000000602082015250565b60006155f8602683613f59565b91506156038261559c565b604082019050919050565b60006020820190508181036000830152615627816155eb565b9050919050565b7f3231000000000000000000000000000000000000000000000000000000000000600082015250565b6000615664600283613f59565b915061566f8261562e565b602082019050919050565b6000602082019050818103600083015261569381615657565b9050919050565b6156a3816147c2565b82525050565b60006020820190506156be600083018461569a565b92915050565b7f3139000000000000000000000000000000000000000000000000000000000000600082015250565b60006156fa600283613f59565b9150615705826156c4565b602082019050919050565b60006020820190508181036000830152615729816156ed565b9050919050565b7f3135000000000000000000000000000000000000000000000000000000000000600082015250565b6000615766600283613f59565b915061577182615730565b602082019050919050565b6000602082019050818103600083015261579581615759565b9050919050565b7f3239000000000000000000000000000000000000000000000000000000000000600082015250565b60006157d2600283613f59565b91506157dd8261579c565b602082019050919050565b60006020820190508181036000830152615801816157c5565b9050919050565b7f3230000000000000000000000000000000000000000000000000000000000000600082015250565b600061583e600283613f59565b915061584982615808565b602082019050919050565b6000602082019050818103600083015261586d81615831565b9050919050565b600061587f82613da9565b915061588a83613da9565b92508282101561589d5761589c614d55565b5b828203905092915050565b6000819050919050565b60006158cd6158c86158c384613e0c565b6158a8565b613e0c565b9050919050565b60006158df826158b2565b9050919050565b60006158f1826158d4565b9050919050565b615901816158e6565b82525050565b600060408201905061591c60008301856158f8565b6159296020830184613e4d565b9392505050565b600060c082019050818103600083015261594a8189613fae565b90506159596020830188613e3e565b6159666040830187613e3e565b6159736060830186613e4d565b6159806080830185613e4d565b61598d60a0830184613e4d565b979650505050505050565b7f4552433732313a207472616e736665722066726f6d20696e636f72726563742060008201527f6f776e6572000000000000000000000000000000000000000000000000000000602082015250565b60006159f4602583613f59565b91506159ff82615998565b604082019050919050565b60006020820190508181036000830152615a23816159e7565b9050919050565b7f4552433732313a207472616e7366657220746f20746865207a65726f2061646460008201527f7265737300000000000000000000000000000000000000000000000000000000602082015250565b6000615a86602483613f59565b9150615a9182615a2a565b604082019050919050565b60006020820190508181036000830152615ab581615a79565b9050919050565b7f4f776e61626c653a2063616c6c6572206973206e6f7420746865206f776e6572600082015250565b6000615af2602083613f59565b9150615afd82615abc565b602082019050919050565b60006020820190508181036000830152615b2181615ae5565b9050919050565b7f5265656e7472616e637947756172643a207265656e7472616e742063616c6c00600082015250565b6000615b5e601f83613f59565b9150615b6982615b28565b602082019050919050565b60006020820190508181036000830152615b8d81615b51565b9050919050565b7f4552433732313a20617070726f766520746f2063616c6c657200000000000000600082015250565b6000615bca601983613f59565b9150615bd582615b94565b602082019050919050565b60006020820190508181036000830152615bf981615bbd565b9050919050565b7f4552433732313a207472616e7366657220746f206e6f6e20455243373231526560008201527f63656976657220696d706c656d656e7465720000000000000000000000000000602082015250565b6000615c5c603283613f59565b9150615c6782615c00565b604082019050919050565b60006020820190508181036000830152615c8b81615c4f565b9050919050565b7f4e487b7100000000000000000000000000000000000000000000000000000000600052601260045260246000fd5b6000615ccc82613da9565b9150615cd783613da9565b9250817fffffffffffffffffffffffffffffffffffffffffffffffffffffffffffffffff0483118215151615615d1057615d0f614d55565b5b828202905092915050565b6000615d2682613da9565b9150615d3183613da9565b925082615d4157615d40615c92565b5b828204905092915050565b600081519050919050565b600082825260208201905092915050565b6000615d7382615d4c565b615d7d8185615d57565b9350615d8d818560208601613f6a565b615d9681613f9d565b840191505092915050565b6000608082019050615db66000830187613e3e565b615dc36020830186613e3e565b615dd06040830185613e4d565b8181036060830152615de28184615d68565b905095945050505050565b600081519050615dfc81613ebf565b92915050565b600060208284031215615e1857615e17613d9f565b5b6000615e2684828501615ded565b91505092915050565b7f4552433732313a206d696e7420746f20746865207a65726f2061646472657373600082015250565b6000615e65602083613f59565b9150615e7082615e2f565b602082019050919050565b60006020820190508181036000830152615e9481615e58565b9050919050565b7f4552433732313a20746f6b656e20616c7265616479206d696e74656400000000600082015250565b6000615ed1601c83613f59565b9150615edc82615e9b565b602082019050919050565b60006020820190508181036000830152615f0081615ec4565b905091905056fea2646970667358221220981beeda49c78286da009baf8ffca07168afb48862deb4ee5b1b42ed240ca10564736f6c63430008090033",
  "linkReferences": {},
  "deployedLinkReferences": {}
}