{
  "_format": "hh-sol-artifact-1",
  "contractName": "DeciblingAuction",
  "sourceName": "contracts/DeciblingAuction.sol",
  "abi": [
    {
      "inputs": [
        {
          "internalType": "address",
          "name": "_tokenAddress",
          "type": "address"
        },
        {
          "internalType": "address payable",
          "name": "_platformFeeRecipient",
          "type": "address"
        }
      ],
      "stateMutability": "nonpayable",
      "type": "constructor"
    },
    {
      "anonymous": false,
      "inputs": [
        {
          "indexed": true,
          "internalType": "address",
          "name": "owner",
          "type": "address"
        },
        {
          "indexed": true,
          "internalType": "address",
          "name": "approved",
          "type": "address"
        },
        {
          "indexed": true,
          "internalType": "uint256",
          "name": "tokenId",
          "type": "uint256"
        }
      ],
      "name": "Approval",
      "type": "event"
    },
    {
      "anonymous": false,
      "inputs": [
        {
          "indexed": true,
          "internalType": "address",
          "name": "owner",
          "type": "address"
        },
        {
          "indexed": true,
          "internalType": "address",
          "name": "operator",
          "type": "address"
        },
        {
          "indexed": false,
          "internalType": "bool",
          "name": "approved",
          "type": "bool"
        }
      ],
      "name": "ApprovalForAll",
      "type": "event"
    },
    {
      "anonymous": false,
      "inputs": [
        {
          "indexed": false,
          "internalType": "string",
          "name": "uri",
          "type": "string"
        },
        {
          "indexed": false,
          "internalType": "address",
          "name": "user",
          "type": "address"
        },
        {
          "indexed": false,
          "internalType": "uint256",
          "name": "amount",
          "type": "uint256"
        }
      ],
      "name": "BidPlaced",
      "type": "event"
    },
    {
      "anonymous": false,
      "inputs": [
        {
          "indexed": false,
          "internalType": "string",
          "name": "uri",
          "type": "string"
        },
        {
          "indexed": false,
          "internalType": "uint256",
          "name": "startPrice",
          "type": "uint256"
        },
        {
          "indexed": false,
          "internalType": "uint256",
          "name": "increment",
          "type": "uint256"
        },
        {
          "indexed": false,
          "internalType": "uint256",
          "name": "startTime",
          "type": "uint256"
        },
        {
          "indexed": false,
          "internalType": "uint256",
          "name": "endTime",
          "type": "uint256"
        }
      ],
      "name": "CreateBid",
      "type": "event"
    },
    {
      "anonymous": false,
      "inputs": [
        {
          "indexed": false,
          "internalType": "string",
          "name": "uri",
          "type": "string"
        },
        {
          "indexed": false,
          "internalType": "uint256",
          "name": "index",
          "type": "uint256"
        }
      ],
      "name": "CreateNFT",
      "type": "event"
    },
    {
      "anonymous": false,
      "inputs": [
        {
          "indexed": true,
          "internalType": "address",
          "name": "previousOwner",
          "type": "address"
        },
        {
          "indexed": true,
          "internalType": "address",
          "name": "newOwner",
          "type": "address"
        }
      ],
      "name": "OwnershipTransferred",
      "type": "event"
    },
    {
      "anonymous": false,
      "inputs": [
        {
          "indexed": false,
          "internalType": "string",
          "name": "uri",
          "type": "string"
        },
        {
          "indexed": false,
          "internalType": "address",
          "name": "oldowner",
          "type": "address"
        },
        {
          "indexed": false,
          "internalType": "address",
          "name": "newowner",
          "type": "address"
        },
        {
          "indexed": false,
          "internalType": "uint256",
          "name": "totalPrice",
          "type": "uint256"
        },
        {
          "indexed": false,
          "internalType": "uint256",
          "name": "platformValue",
          "type": "uint256"
        },
        {
          "indexed": false,
          "internalType": "uint256",
          "name": "saleCount",
          "type": "uint256"
        }
      ],
      "name": "SettleBid",
      "type": "event"
    },
    {
      "anonymous": false,
      "inputs": [
        {
          "indexed": true,
          "internalType": "address",
          "name": "from",
          "type": "address"
        },
        {
          "indexed": true,
          "internalType": "address",
          "name": "to",
          "type": "address"
        },
        {
          "indexed": true,
          "internalType": "uint256",
          "name": "tokenId",
          "type": "uint256"
        }
      ],
      "name": "Transfer",
      "type": "event"
    },
    {
      "anonymous": false,
      "inputs": [
        {
          "indexed": false,
          "internalType": "address payable",
          "name": "platformFeeRecipient",
          "type": "address"
        }
      ],
      "name": "UpdatePlatformFeeRecipient",
      "type": "event"
    },
    {
      "anonymous": false,
      "inputs": [
        {
          "indexed": false,
          "internalType": "uint256",
          "name": "firstSaleFee",
          "type": "uint256"
        },
        {
          "indexed": false,
          "internalType": "uint256",
          "name": "secondSaleFee",
          "type": "uint256"
        }
      ],
      "name": "UpdatePlatformFees",
      "type": "event"
    },
    {
      "inputs": [
        {
          "internalType": "address",
          "name": "to",
          "type": "address"
        },
        {
          "internalType": "uint256",
          "name": "tokenId",
          "type": "uint256"
        }
      ],
      "name": "approve",
      "outputs": [],
      "stateMutability": "nonpayable",
      "type": "function"
    },
    {
      "inputs": [
        {
          "internalType": "uint256",
          "name": "",
          "type": "uint256"
        }
      ],
      "name": "auctions",
      "outputs": [
        {
          "internalType": "address",
          "name": "winner",
          "type": "address"
        },
        {
          "internalType": "uint256",
          "name": "startPrice",
          "type": "uint256"
        },
        {
          "internalType": "uint256",
          "name": "increment",
          "type": "uint256"
        },
        {
          "internalType": "uint256",
          "name": "startTime",
          "type": "uint256"
        },
        {
          "internalType": "uint256",
          "name": "endTime",
          "type": "uint256"
        },
        {
          "internalType": "bool",
          "name": "resulted",
          "type": "bool"
        }
      ],
      "stateMutability": "view",
      "type": "function"
    },
    {
      "inputs": [
        {
          "internalType": "address",
          "name": "owner",
          "type": "address"
        }
      ],
      "name": "balanceOf",
      "outputs": [
        {
          "internalType": "uint256",
          "name": "",
          "type": "uint256"
        }
      ],
      "stateMutability": "view",
      "type": "function"
    },
    {
      "inputs": [
        {
          "internalType": "string",
          "name": "uri",
          "type": "string"
        },
        {
          "internalType": "uint256",
          "name": "_amount",
          "type": "uint256"
        }
      ],
      "name": "bid",
      "outputs": [],
      "stateMutability": "payable",
      "type": "function"
    },
    {
      "inputs": [
        {
          "internalType": "string",
          "name": "uri",
          "type": "string"
        },
        {
          "internalType": "uint256",
          "name": "startPrice",
          "type": "uint256"
        },
        {
          "internalType": "uint256",
          "name": "increment",
          "type": "uint256"
        },
        {
          "internalType": "uint256",
          "name": "startTime",
          "type": "uint256"
        },
        {
          "internalType": "uint256",
          "name": "endTime",
          "type": "uint256"
        }
      ],
      "name": "createBidding",
      "outputs": [],
      "stateMutability": "nonpayable",
      "type": "function"
    },
    {
      "inputs": [
        {
          "internalType": "string",
          "name": "uri",
          "type": "string"
        },
        {
          "internalType": "string",
          "name": "name",
          "type": "string"
        }
      ],
      "name": "createNFT",
      "outputs": [],
      "stateMutability": "nonpayable",
      "type": "function"
    },
    {
      "inputs": [],
      "name": "firstSaleFee",
      "outputs": [
        {
          "internalType": "uint256",
          "name": "",
          "type": "uint256"
        }
      ],
      "stateMutability": "view",
      "type": "function"
    },
    {
      "inputs": [
        {
          "internalType": "uint256",
          "name": "tokenId",
          "type": "uint256"
        }
      ],
      "name": "getApproved",
      "outputs": [
        {
          "internalType": "address",
          "name": "",
          "type": "address"
        }
      ],
      "stateMutability": "view",
      "type": "function"
    },
    {
      "inputs": [
        {
          "internalType": "address",
          "name": "owner",
          "type": "address"
        },
        {
          "internalType": "address",
          "name": "operator",
          "type": "address"
        }
      ],
      "name": "isApprovedForAll",
      "outputs": [
        {
          "internalType": "bool",
          "name": "",
          "type": "bool"
        }
      ],
      "stateMutability": "view",
      "type": "function"
    },
    {
      "inputs": [
        {
          "internalType": "string",
          "name": "",
          "type": "string"
        }
      ],
      "name": "listNFT",
      "outputs": [
        {
          "internalType": "address",
          "name": "owner",
          "type": "address"
        },
        {
          "internalType": "string",
          "name": "name",
          "type": "string"
        },
        {
          "internalType": "uint256",
          "name": "price",
          "type": "uint256"
        },
        {
          "internalType": "uint256",
          "name": "saleCount",
          "type": "uint256"
        },
        {
          "internalType": "enum DeciblingAuction.AudioStatus",
          "name": "status",
          "type": "uint8"
        }
      ],
      "stateMutability": "view",
      "type": "function"
    },
    {
      "inputs": [],
      "name": "name",
      "outputs": [
        {
          "internalType": "string",
          "name": "",
          "type": "string"
        }
      ],
      "stateMutability": "view",
      "type": "function"
    },
    {
      "inputs": [],
      "name": "owner",
      "outputs": [
        {
          "internalType": "address",
          "name": "",
          "type": "address"
        }
      ],
      "stateMutability": "view",
      "type": "function"
    },
    {
      "inputs": [
        {
          "internalType": "uint256",
          "name": "tokenId",
          "type": "uint256"
        }
      ],
      "name": "ownerOf",
      "outputs": [
        {
          "internalType": "address",
          "name": "",
          "type": "address"
        }
      ],
      "stateMutability": "view",
      "type": "function"
    },
    {
      "inputs": [],
      "name": "renounceOwnership",
      "outputs": [],
      "stateMutability": "nonpayable",
      "type": "function"
    },
    {
      "inputs": [
        {
          "internalType": "address",
          "name": "from",
          "type": "address"
        },
        {
          "internalType": "address",
          "name": "to",
          "type": "address"
        },
        {
          "internalType": "uint256",
          "name": "tokenId",
          "type": "uint256"
        }
      ],
      "name": "safeTransferFrom",
      "outputs": [],
      "stateMutability": "nonpayable",
      "type": "function"
    },
    {
      "inputs": [
        {
          "internalType": "address",
          "name": "from",
          "type": "address"
        },
        {
          "internalType": "address",
          "name": "to",
          "type": "address"
        },
        {
          "internalType": "uint256",
          "name": "tokenId",
          "type": "uint256"
        },
        {
          "internalType": "bytes",
          "name": "data",
          "type": "bytes"
        }
      ],
      "name": "safeTransferFrom",
      "outputs": [],
      "stateMutability": "nonpayable",
      "type": "function"
    },
    {
      "inputs": [],
      "name": "secondSaleFee",
      "outputs": [
        {
          "internalType": "uint256",
          "name": "",
          "type": "uint256"
        }
      ],
      "stateMutability": "view",
      "type": "function"
    },
    {
      "inputs": [
        {
          "internalType": "address",
          "name": "operator",
          "type": "address"
        },
        {
          "internalType": "bool",
          "name": "approved",
          "type": "bool"
        }
      ],
      "name": "setApprovalForAll",
      "outputs": [],
      "stateMutability": "nonpayable",
      "type": "function"
    },
    {
      "inputs": [
        {
          "internalType": "string",
          "name": "uri",
          "type": "string"
        }
      ],
      "name": "settleBiddingSession",
      "outputs": [],
      "stateMutability": "payable",
      "type": "function"
    },
    {
      "inputs": [
        {
          "internalType": "bytes4",
          "name": "interfaceId",
          "type": "bytes4"
        }
      ],
      "name": "supportsInterface",
      "outputs": [
        {
          "internalType": "bool",
          "name": "",
          "type": "bool"
        }
      ],
      "stateMutability": "view",
      "type": "function"
    },
    {
      "inputs": [],
      "name": "symbol",
      "outputs": [
        {
          "internalType": "string",
          "name": "",
          "type": "string"
        }
      ],
      "stateMutability": "view",
      "type": "function"
    },
    {
      "inputs": [
        {
          "internalType": "string",
          "name": "",
          "type": "string"
        }
      ],
      "name": "tokenIdMapping",
      "outputs": [
        {
          "internalType": "uint256",
          "name": "",
          "type": "uint256"
        }
      ],
      "stateMutability": "view",
      "type": "function"
    },
    {
      "inputs": [
        {
          "internalType": "uint256",
          "name": "tokenId",
          "type": "uint256"
        }
      ],
      "name": "tokenURI",
      "outputs": [
        {
          "internalType": "string",
          "name": "",
          "type": "string"
        }
      ],
      "stateMutability": "view",
      "type": "function"
    },
    {
      "inputs": [
        {
          "internalType": "uint256",
          "name": "",
          "type": "uint256"
        }
      ],
      "name": "topBids",
      "outputs": [
        {
          "internalType": "address",
          "name": "user",
          "type": "address"
        },
        {
          "internalType": "uint256",
          "name": "price",
          "type": "uint256"
        },
        {
          "internalType": "uint256",
          "name": "timestamp",
          "type": "uint256"
        }
      ],
      "stateMutability": "view",
      "type": "function"
    },
    {
      "inputs": [
        {
          "internalType": "address",
          "name": "from",
          "type": "address"
        },
        {
          "internalType": "address",
          "name": "to",
          "type": "address"
        },
        {
          "internalType": "uint256",
          "name": "tokenId",
          "type": "uint256"
        }
      ],
      "name": "transferFrom",
      "outputs": [],
      "stateMutability": "nonpayable",
      "type": "function"
    },
    {
      "inputs": [
        {
          "internalType": "address",
          "name": "newOwner",
          "type": "address"
        }
      ],
      "name": "transferOwnership",
      "outputs": [],
      "stateMutability": "nonpayable",
      "type": "function"
    },
    {
      "inputs": [
        {
          "internalType": "address payable",
          "name": "_platformFeeRecipient",
          "type": "address"
        }
      ],
      "name": "updatePlatformFeeRecipient",
      "outputs": [],
      "stateMutability": "nonpayable",
      "type": "function"
    },
    {
      "inputs": [
        {
          "internalType": "uint256",
          "name": "_firstSaleFee",
          "type": "uint256"
        },
        {
          "internalType": "uint256",
          "name": "_secondSaleFee",
          "type": "uint256"
        }
      ],
      "name": "updatePlatformFees",
      "outputs": [],
      "stateMutability": "nonpayable",
      "type": "function"
    }
  ],
  "bytecode": "0x6080604052607d600a556064600b553480156200001b57600080fd5b5060405162005e7e38038062005e7e83398181016040528101906200004191906200046d565b6040518060400160405280600981526020017f44656369626c696e6700000000000000000000000000000000000000000000008152506040518060400160405280600281526020017f64420000000000000000000000000000000000000000000000000000000000008152508160009080519060200190620000c59291906200030e565b508060019080519060200190620000de9291906200030e565b50505062000101620000f56200024060201b60201c565b6200024860201b60201c565b6001600781905550600073ffffffffffffffffffffffffffffffffffffffff168273ffffffffffffffffffffffffffffffffffffffff1614158015620001745750600073ffffffffffffffffffffffffffffffffffffffff168173ffffffffffffffffffffffffffffffffffffffff1614155b620001b6576040517f08c379a0000000000000000000000000000000000000000000000000000000008152600401620001ad906200053b565b60405180910390fd5b81600960006101000a81548173ffffffffffffffffffffffffffffffffffffffff021916908373ffffffffffffffffffffffffffffffffffffffff16021790555080600c60006101000a81548173ffffffffffffffffffffffffffffffffffffffff021916908373ffffffffffffffffffffffffffffffffffffffff1602179055505050620005c2565b600033905090565b6000600660009054906101000a900473ffffffffffffffffffffffffffffffffffffffff16905081600660006101000a81548173ffffffffffffffffffffffffffffffffffffffff021916908373ffffffffffffffffffffffffffffffffffffffff1602179055508173ffffffffffffffffffffffffffffffffffffffff168173ffffffffffffffffffffffffffffffffffffffff167f8be0079c531659141344cd1fd0a4f28419497f9722a3daafe3b4186f6b6457e060405160405180910390a35050565b8280546200031c906200058c565b90600052602060002090601f0160209004810192826200034057600085556200038c565b82601f106200035b57805160ff19168380011785556200038c565b828001600101855582156200038c579182015b828111156200038b5782518255916020019190600101906200036e565b5b5090506200039b91906200039f565b5090565b5b80821115620003ba576000816000905550600101620003a0565b5090565b600080fd5b600073ffffffffffffffffffffffffffffffffffffffff82169050919050565b6000620003f082620003c3565b9050919050565b6200040281620003e3565b81146200040e57600080fd5b50565b6000815190506200042281620003f7565b92915050565b60006200043582620003c3565b9050919050565b620004478162000428565b81146200045357600080fd5b50565b60008151905062000467816200043c565b92915050565b60008060408385031215620004875762000486620003be565b5b6000620004978582860162000411565b9250506020620004aa8582860162000456565b9150509250929050565b600082825260208201905092915050565b7f44656369626c696e6741756374696f6e3a20436f6e7374727563746f7220776160008201527f6c6c6574732063616e6e6f74206265207a65726f000000000000000000000000602082015250565b600062000523603483620004b4565b91506200053082620004c5565b604082019050919050565b60006020820190508181036000830152620005568162000514565b9050919050565b7f4e487b7100000000000000000000000000000000000000000000000000000000600052602260045260246000fd5b60006002820490506001821680620005a557607f821691505b60208210811415620005bc57620005bb6200055d565b5b50919050565b6158ac80620005d26000396000f3fe6080604052600436106101b75760003560e01c806370a08231116100ec578063be06d53e1161008a578063f2fde38b11610064578063f2fde38b14610650578063f5fe7f7114610679578063fcc6f66d146106a2578063ff41edbc146106cd576101b7565b8063be06d53e146105ad578063c87b56dd146105d6578063e985e9c514610613576101b7565b806395d89b41116100c657806395d89b41146104f3578063a22cb4651461051e578063b88d4fde14610547578063b88eabdd14610570576101b7565b806370a0823114610474578063715018a6146104b15780638da5cb5b146104c8576101b7565b806342842e0e11610159578063571a26a011610133578063571a26a0146103b05780635f483313146103f25780636352211e1461040e57806368613d171461044b576101b7565b806342842e0e1461031b5780634387330e146103445780634874b2f414610385576101b7565b8063081812fc11610195578063081812fc14610263578063095ea7b3146102a057806323b872dd146102c95780633c909e93146102f2576101b7565b8063010d9813146101bc57806301ffc9a7146101fb57806306fdde0314610238575b600080fd5b3480156101c857600080fd5b506101e360048036038101906101de919061399a565b6106e9565b6040516101f293929190613a17565b60405180910390f35b34801561020757600080fd5b50610222600480360381019061021d9190613aa6565b610733565b60405161022f9190613aee565b60405180910390f35b34801561024457600080fd5b5061024d610815565b60405161025a9190613ba2565b60405180910390f35b34801561026f57600080fd5b5061028a6004803603810190610285919061399a565b6108a7565b6040516102979190613bc4565b60405180910390f35b3480156102ac57600080fd5b506102c760048036038101906102c29190613c0b565b6108ed565b005b3480156102d557600080fd5b506102f060048036038101906102eb9190613c4b565b610a05565b005b3480156102fe57600080fd5b5061031960048036038101906103149190613c9e565b610a65565b005b34801561032757600080fd5b50610342600480360381019061033d9190613c4b565b610ab8565b005b34801561035057600080fd5b5061036b60048036038101906103669190613e13565b610ad8565b60405161037c959493929190613ed3565b60405180910390f35b34801561039157600080fd5b5061039a610bd9565b6040516103a79190613f2d565b60405180910390f35b3480156103bc57600080fd5b506103d760048036038101906103d2919061399a565b610bdf565b6040516103e996959493929190613f48565b60405180910390f35b61040c60048036038101906104079190613fa9565b610c48565b005b34801561041a57600080fd5b506104356004803603810190610430919061399a565b61121c565b6040516104429190613bc4565b60405180910390f35b34801561045757600080fd5b50610472600480360381019061046d9190614065565b6112a3565b005b34801561048057600080fd5b5061049b600480360381019061049691906140e6565b61160e565b6040516104a89190613f2d565b60405180910390f35b3480156104bd57600080fd5b506104c66116c6565b005b3480156104d457600080fd5b506104dd6116da565b6040516104ea9190613bc4565b60405180910390f35b3480156104ff57600080fd5b50610508611704565b6040516105159190613ba2565b60405180910390f35b34801561052a57600080fd5b506105456004803603810190610540919061413f565b611796565b005b34801561055357600080fd5b5061056e60048036038101906105699190614220565b6117ac565b005b34801561057c57600080fd5b5061059760048036038101906105929190613e13565b61180e565b6040516105a49190613f2d565b60405180910390f35b3480156105b957600080fd5b506105d460048036038101906105cf91906142a3565b61183c565b005b3480156105e257600080fd5b506105fd60048036038101906105f8919061399a565b611c74565b60405161060a9190613ba2565b60405180910390f35b34801561061f57600080fd5b5061063a6004803603810190610635919061433d565b611cdc565b6040516106479190613aee565b60405180910390f35b34801561065c57600080fd5b50610677600480360381019061067291906140e6565b611d70565b005b34801561068557600080fd5b506106a0600480360381019061069b91906143bb565b611df4565b005b3480156106ae57600080fd5b506106b7611ee7565b6040516106c49190613f2d565b60405180910390f35b6106e760048036038101906106e29190613e13565b611eed565b005b60106020528060005260406000206000915090508060000160009054906101000a900473ffffffffffffffffffffffffffffffffffffffff16908060010154908060020154905083565b60007f80ac58cd000000000000000000000000000000000000000000000000000000007bffffffffffffffffffffffffffffffffffffffffffffffffffffffff1916827bffffffffffffffffffffffffffffffffffffffffffffffffffffffff191614806107fe57507f5b5e139f000000000000000000000000000000000000000000000000000000007bffffffffffffffffffffffffffffffffffffffffffffffffffffffff1916827bffffffffffffffffffffffffffffffffffffffffffffffffffffffff1916145b8061080e575061080d82612796565b5b9050919050565b60606000805461082490614417565b80601f016020809104026020016040519081016040528092919081815260200182805461085090614417565b801561089d5780601f106108725761010080835404028352916020019161089d565b820191906000526020600020905b81548152906001019060200180831161088057829003601f168201915b5050505050905090565b60006108b282612800565b6004600083815260200190815260200160002060009054906101000a900473ffffffffffffffffffffffffffffffffffffffff169050919050565b60006108f88261121c565b90508073ffffffffffffffffffffffffffffffffffffffff168373ffffffffffffffffffffffffffffffffffffffff161415610969576040517f08c379a0000000000000000000000000000000000000000000000000000000008152600401610960906144bb565b60405180910390fd5b8073ffffffffffffffffffffffffffffffffffffffff1661098861284b565b73ffffffffffffffffffffffffffffffffffffffff1614806109b757506109b6816109b161284b565b611cdc565b5b6109f6576040517f08c379a00000000000000000000000000000000000000000000000000000000081526004016109ed9061454d565b60405180910390fd5b610a008383612853565b505050565b610a16610a1061284b565b8261290c565b610a55576040517f08c379a0000000000000000000000000000000000000000000000000000000008152600401610a4c906145df565b60405180910390fd5b610a608383836129a1565b505050565b610a6d612c9b565b81600a8190555080600b819055507f36ac9417f4c4141853b0a7cba911657b2d3d3a399db1e48e7430dd66ce91692d8282604051610aac9291906145ff565b60405180910390a15050565b610ad3838383604051806020016040528060008152506117ac565b505050565b600d818051602081018201805184825260208301602085012081835280955050505050506000915090508060000160009054906101000a900473ffffffffffffffffffffffffffffffffffffffff1690806001018054610b3790614417565b80601f0160208091040260200160405190810160405280929190818152602001828054610b6390614417565b8015610bb05780601f10610b8557610100808354040283529160200191610bb0565b820191906000526020600020905b815481529060010190602001808311610b9357829003601f168201915b5050505050908060020154908060030154908060040160009054906101000a900460ff16905085565b600a5481565b600f6020528060005260406000206000915090508060000160009054906101000a900473ffffffffffffffffffffffffffffffffffffffff16908060010154908060020154908060030154908060040154908060050160009054906101000a900460ff16905086565b610c50612d19565b6000600d83604051610c629190614664565b908152602001604051809103902090506000600e84604051610c849190614664565b90815260200160405180910390205490503373ffffffffffffffffffffffffffffffffffffffff168260000160009054906101000a900473ffffffffffffffffffffffffffffffffffffffff1673ffffffffffffffffffffffffffffffffffffffff161415610d28576040517f08c379a0000000000000000000000000000000000000000000000000000000008152600401610d1f906146c7565b60405180910390fd5b6000600e85604051610d3a9190614664565b90815260200160405180910390205411610d89576040517f08c379a0000000000000000000000000000000000000000000000000000000008152600401610d8090614733565b60405180910390fd5b600180811115610d9c57610d9b613e5c565b5b8260040160009054906101000a900460ff166001811115610dc057610dbf613e5c565b5b14610e00576040517f08c379a0000000000000000000000000000000000000000000000000000000008152600401610df79061479f565b60405180910390fd5b6000600f60008381526020019081526020016000209050610e1f612d69565b816003015411158015610e3d57508060040154610e3a612d69565b11155b610e7c576040517f08c379a0000000000000000000000000000000000000000000000000000000008152600401610e739061480b565b60405180910390fd5b600960009054906101000a900473ffffffffffffffffffffffffffffffffffffffff1673ffffffffffffffffffffffffffffffffffffffff166323b872dd3330876040518463ffffffff1660e01b8152600401610edb9392919061482b565b602060405180830381600087803b158015610ef557600080fd5b505af1158015610f09573d6000803e3d6000fd5b505050506040513d601f19601f82011682018060405250810190610f2d9190614877565b610f6c576040517f08c379a0000000000000000000000000000000000000000000000000000000008152600401610f6390614733565b60405180910390fd5b600060106000848152602001908152602001600020905060008160000160009054906101000a900473ffffffffffffffffffffffffffffffffffffffff169050600082600101549050600073ffffffffffffffffffffffffffffffffffffffff168273ffffffffffffffffffffffffffffffffffffffff161415611032578087101561102d576040517f08c379a0000000000000000000000000000000000000000000000000000000008152600401611024906148f0565b60405180910390fd5b611173565b836002015481611042919061493f565b871015611084576040517f08c379a000000000000000000000000000000000000000000000000000000000815260040161107b906148f0565b60405180910390fd5b600960009054906101000a900473ffffffffffffffffffffffffffffffffffffffff1673ffffffffffffffffffffffffffffffffffffffff1663a9059cbb83836040518363ffffffff1660e01b81526004016110e1929190614995565b602060405180830381600087803b1580156110fb57600080fd5b505af115801561110f573d6000803e3d6000fd5b505050506040513d601f19601f820116820180604052508101906111339190614877565b611172576040517f08c379a000000000000000000000000000000000000000000000000000000000815260040161116990614733565b60405180910390fd5b5b338360000160006101000a81548173ffffffffffffffffffffffffffffffffffffffff021916908373ffffffffffffffffffffffffffffffffffffffff1602179055508683600101819055506111c7612d69565b83600201819055507f027aaa4de8a8577ab88766593b19e891945e65f7d03ad3551436d3db7feed233883389604051611202939291906149be565b60405180910390a1505050505050611218612d71565b5050565b60008061122883612d7b565b9050600073ffffffffffffffffffffffffffffffffffffffff168173ffffffffffffffffffffffffffffffffffffffff16141561129a576040517f08c379a000000000000000000000000000000000000000000000000000000000815260040161129190614a48565b60405180910390fd5b80915050919050565b600084848080601f016020809104026020016040519081016040528093929190818152602001838380828437600081840152601f19601f820116905080830192505050505050509050600081511415611331576040517f08c379a000000000000000000000000000000000000000000000000000000000815260040161132890614ab4565b60405180910390fd5b600083838080601f016020809104026020016040519081016040528093929190818152602001838380828437600081840152601f19601f8201169050808301925050505050505090506000815114156113bf576040517f08c379a00000000000000000000000000000000000000000000000000000000081526004016113b690614b20565b60405180910390fd5b6000600e87876040516113d3929190614b65565b90815260200160405180910390205414611422576040517f08c379a000000000000000000000000000000000000000000000000000000000815260040161141990614bca565b60405180910390fd5b61142c6008612db8565b60006114386008612dce565b90506114443382612ddc565b80600e8888604051611457929190614b65565b9081526020016040518091039020819055506040518060a001604052803373ffffffffffffffffffffffffffffffffffffffff16815260200186868080601f016020809104026020016040519081016040528093929190818152602001838380828437600081840152601f19601f8201169050808301925050505050505081526020016000815260200160008152602001600060018111156114fc576114fb613e5c565b5b815250600d8888604051611511929190614b65565b908152602001604051809103902060008201518160000160006101000a81548173ffffffffffffffffffffffffffffffffffffffff021916908373ffffffffffffffffffffffffffffffffffffffff16021790555060208201518160010190805190602001906115829291906138ad565b50604082015181600201556060820151816003015560808201518160040160006101000a81548160ff021916908360018111156115c2576115c1613e5c565b5b02179055509050507f59e3e0f1aabce96b386d212c7c9563c597464cb2f714aa8cf022346ea95cfbc68787836040516115fd93929190614c17565b60405180910390a150505050505050565b60008073ffffffffffffffffffffffffffffffffffffffff168273ffffffffffffffffffffffffffffffffffffffff16141561167f576040517f08c379a000000000000000000000000000000000000000000000000000000000815260040161167690614cbb565b60405180910390fd5b600360008373ffffffffffffffffffffffffffffffffffffffff1673ffffffffffffffffffffffffffffffffffffffff168152602001908152602001600020549050919050565b6116ce612c9b565b6116d86000612dfa565b565b6000600660009054906101000a900473ffffffffffffffffffffffffffffffffffffffff16905090565b60606001805461171390614417565b80601f016020809104026020016040519081016040528092919081815260200182805461173f90614417565b801561178c5780601f106117615761010080835404028352916020019161178c565b820191906000526020600020905b81548152906001019060200180831161176f57829003601f168201915b5050505050905090565b6117a86117a161284b565b8383612ec0565b5050565b6117bd6117b761284b565b8361290c565b6117fc576040517f08c379a00000000000000000000000000000000000000000000000000000000081526004016117f3906145df565b60405180910390fd5b6118088484848461302d565b50505050565b600e818051602081018201805184825260208301602085012081835280955050505050506000915090505481565b6000600d8787604051611850929190614b65565b908152602001604051809103902090506000600e8888604051611874929190614b65565b90815260200160405180910390205490508284106118c7576040517f08c379a00000000000000000000000000000000000000000000000000000000081526004016118be90614d27565b60405180910390fd5b6000600e89896040516118db929190614b65565b9081526020016040518091039020541161192a576040517f08c379a000000000000000000000000000000000000000000000000000000000815260040161192190614733565b60405180910390fd5b3373ffffffffffffffffffffffffffffffffffffffff168260000160009054906101000a900473ffffffffffffffffffffffffffffffffffffffff1673ffffffffffffffffffffffffffffffffffffffff16146119bc576040517f08c379a00000000000000000000000000000000000000000000000000000000081526004016119b390614d93565b60405180910390fd5b6119c4612d69565b8311611a05576040517f08c379a00000000000000000000000000000000000000000000000000000000081526004016119fc90614dff565b60405180910390fd5b60006001811115611a1957611a18613e5c565b5b8260040160009054906101000a900460ff166001811115611a3d57611a3c613e5c565b5b14611a7d576040517f08c379a0000000000000000000000000000000000000000000000000000000008152600401611a749061479f565b60405180910390fd5b60008511611ac0576040517f08c379a0000000000000000000000000000000000000000000000000000000008152600401611ab790614e6b565b60405180910390fd5b61012c84611ace919061493f565b831015611b10576040517f08c379a0000000000000000000000000000000000000000000000000000000008152600401611b0790614ed7565b60405180910390fd5b6040518060c00160405280600073ffffffffffffffffffffffffffffffffffffffff16815260200187815260200186815260200185815260200184815260200160001515815250600f600083815260200190815260200160002060008201518160000160006101000a81548173ffffffffffffffffffffffffffffffffffffffff021916908373ffffffffffffffffffffffffffffffffffffffff1602179055506020820151816001015560408201518160020155606082015181600301556080820151816004015560a08201518160050160006101000a81548160ff02191690831515021790555090505060018260040160006101000a81548160ff02191690836001811115611c2457611c23613e5c565b5b02179055507f63f381f48ee15f142676f98f2e372636463db4fe612c8bd998b1b5b57149d9d2888888888888604051611c6296959493929190614ef7565b60405180910390a15050505050505050565b6060611c7f82612800565b6000611c89613089565b90506000815111611ca95760405180602001604052806000815250611cd4565b80611cb3846130a0565b604051602001611cc4929190614f53565b6040516020818303038152906040525b915050919050565b6000600560008473ffffffffffffffffffffffffffffffffffffffff1673ffffffffffffffffffffffffffffffffffffffff16815260200190815260200160002060008373ffffffffffffffffffffffffffffffffffffffff1673ffffffffffffffffffffffffffffffffffffffff16815260200190815260200160002060009054906101000a900460ff16905092915050565b611d78612c9b565b600073ffffffffffffffffffffffffffffffffffffffff168173ffffffffffffffffffffffffffffffffffffffff161415611de8576040517f08c379a0000000000000000000000000000000000000000000000000000000008152600401611ddf90614fe9565b60405180910390fd5b611df181612dfa565b50565b611dfc612c9b565b600073ffffffffffffffffffffffffffffffffffffffff168173ffffffffffffffffffffffffffffffffffffffff161415611e6c576040517f08c379a0000000000000000000000000000000000000000000000000000000008152600401611e6390615055565b60405180910390fd5b80600c60006101000a81548173ffffffffffffffffffffffffffffffffffffffff021916908373ffffffffffffffffffffffffffffffffffffffff1602179055507fe57e7c1f36cc83fade34e32351e6eee7eb9da532662b1b5da10c631e8222aca781604051611edc9190615084565b60405180910390a150565b600b5481565b611ef5612d19565b6000600d82604051611f079190614664565b908152602001604051809103902090506000600e83604051611f299190614664565b90815260200160405180910390205490503373ffffffffffffffffffffffffffffffffffffffff168260000160009054906101000a900473ffffffffffffffffffffffffffffffffffffffff1673ffffffffffffffffffffffffffffffffffffffff161480611fca57503373ffffffffffffffffffffffffffffffffffffffff16611fb26116da565b73ffffffffffffffffffffffffffffffffffffffff16145b612009576040517f08c379a000000000000000000000000000000000000000000000000000000000815260040161200090614d93565b60405180910390fd5b6000600e8460405161201b9190614664565b9081526020016040518091039020541161206a576040517f08c379a000000000000000000000000000000000000000000000000000000000815260040161206190614733565b60405180910390fd5b60018081111561207d5761207c613e5c565b5b8260040160009054906101000a900460ff1660018111156120a1576120a0613e5c565b5b146120e1576040517f08c379a00000000000000000000000000000000000000000000000000000000081526004016120d89061479f565b60405180910390fd5b600073ffffffffffffffffffffffffffffffffffffffff16600c60009054906101000a900473ffffffffffffffffffffffffffffffffffffffff1673ffffffffffffffffffffffffffffffffffffffff161415612173576040517f08c379a000000000000000000000000000000000000000000000000000000000815260040161216a906150eb565b60405180910390fd5b6000600f600083815260200190815260200160002090508060050160009054906101000a900460ff16156121dc576040517f08c379a00000000000000000000000000000000000000000000000000000000081526004016121d390614ab4565b60405180910390fd5b6121e4612d69565b8160030154108015612200575080600401546121fe612d69565b115b61223f576040517f08c379a000000000000000000000000000000000000000000000000000000000815260040161223690615157565b60405180910390fd5b600060106000848152602001908152602001600020905060008160000160009054906101000a900473ffffffffffffffffffffffffffffffffffffffff16905060008260010154905060018460050160006101000a81548160ff02191690831515021790555060106000868152602001908152602001600020600080820160006101000a81549073ffffffffffffffffffffffffffffffffffffffff02191690556001820160009055600282016000905550506000808760000160009054906101000a900473ffffffffffffffffffffffffffffffffffffffff169050600073ffffffffffffffffffffffffffffffffffffffff168473ffffffffffffffffffffffffffffffffffffffff1614612756576000886003015414801561236657506000600a54115b1561239b576123946103e8612386600a548661317890919063ffffffff16565b61318e90919063ffffffff16565b91506123c7565b6123c46103e86123b6600b548661317890919063ffffffff16565b61318e90919063ffffffff16565b91505b600082141561240b576040517f08c379a0000000000000000000000000000000000000000000000000000000008152600401612402906151c3565b60405180910390fd5b600960009054906101000a900473ffffffffffffffffffffffffffffffffffffffff1673ffffffffffffffffffffffffffffffffffffffff1663a9059cbb82848661245691906151e3565b6040518363ffffffff1660e01b8152600401612473929190614995565b602060405180830381600087803b15801561248d57600080fd5b505af11580156124a1573d6000803e3d6000fd5b505050506040513d601f19601f820116820180604052508101906124c59190614877565b612504576040517f08c379a00000000000000000000000000000000000000000000000000000000081526004016124fb90614733565b60405180910390fd5b600960009054906101000a900473ffffffffffffffffffffffffffffffffffffffff1673ffffffffffffffffffffffffffffffffffffffff1663a9059cbb600c60009054906101000a900473ffffffffffffffffffffffffffffffffffffffff16846040518363ffffffff1660e01b8152600401612583929190615276565b602060405180830381600087803b15801561259d57600080fd5b505af11580156125b1573d6000803e3d6000fd5b505050506040513d601f19601f820116820180604052508101906125d59190614877565b612614576040517f08c379a000000000000000000000000000000000000000000000000000000000815260040161260b90614733565b60405180910390fd5b61263d8185600e8c6040516126299190614664565b908152602001604051809103902054610ab8565b838860000160006101000a81548173ffffffffffffffffffffffffffffffffffffffff021916908373ffffffffffffffffffffffffffffffffffffffff1602179055508288600201819055506126a1600189600301546131a490919063ffffffff16565b8860030181905550838660000160006101000a81548173ffffffffffffffffffffffffffffffffffffffff021916908373ffffffffffffffffffffffffffffffffffffffff1602179055507f116ab0c03bfff8d9996e5c0d5ebdd4daf07ee1141c125826627d3015920f553089828860000160009054906101000a900473ffffffffffffffffffffffffffffffffffffffff1686868d6003015460405161274d9695949392919061529f565b60405180910390a15b60008860040160006101000a81548160ff0219169083600181111561277e5761277d613e5c565b5b02179055505050505050505050612793612d71565b50565b60007f01ffc9a7000000000000000000000000000000000000000000000000000000007bffffffffffffffffffffffffffffffffffffffffffffffffffffffff1916827bffffffffffffffffffffffffffffffffffffffffffffffffffffffff1916149050919050565b612809816131ba565b612848576040517f08c379a000000000000000000000000000000000000000000000000000000000815260040161283f90614a48565b60405180910390fd5b50565b600033905090565b816004600083815260200190815260200160002060006101000a81548173ffffffffffffffffffffffffffffffffffffffff021916908373ffffffffffffffffffffffffffffffffffffffff160217905550808273ffffffffffffffffffffffffffffffffffffffff166128c68361121c565b73ffffffffffffffffffffffffffffffffffffffff167f8c5be1e5ebec7d5bd14f71427d1e84f3dd0314c0f7b2291e5b200ac8c7c3b92560405160405180910390a45050565b6000806129188361121c565b90508073ffffffffffffffffffffffffffffffffffffffff168473ffffffffffffffffffffffffffffffffffffffff16148061295a57506129598185611cdc565b5b8061299857508373ffffffffffffffffffffffffffffffffffffffff16612980846108a7565b73ffffffffffffffffffffffffffffffffffffffff16145b91505092915050565b8273ffffffffffffffffffffffffffffffffffffffff166129c18261121c565b73ffffffffffffffffffffffffffffffffffffffff1614612a17576040517f08c379a0000000000000000000000000000000000000000000000000000000008152600401612a0e90615379565b60405180910390fd5b600073ffffffffffffffffffffffffffffffffffffffff168273ffffffffffffffffffffffffffffffffffffffff161415612a87576040517f08c379a0000000000000000000000000000000000000000000000000000000008152600401612a7e9061540b565b60405180910390fd5b612a9483838360016131fb565b8273ffffffffffffffffffffffffffffffffffffffff16612ab48261121c565b73ffffffffffffffffffffffffffffffffffffffff1614612b0a576040517f08c379a0000000000000000000000000000000000000000000000000000000008152600401612b0190615379565b60405180910390fd5b6004600082815260200190815260200160002060006101000a81549073ffffffffffffffffffffffffffffffffffffffff02191690556001600360008573ffffffffffffffffffffffffffffffffffffffff1673ffffffffffffffffffffffffffffffffffffffff168152602001908152602001600020600082825403925050819055506001600360008473ffffffffffffffffffffffffffffffffffffffff1673ffffffffffffffffffffffffffffffffffffffff16815260200190815260200160002060008282540192505081905550816002600083815260200190815260200160002060006101000a81548173ffffffffffffffffffffffffffffffffffffffff021916908373ffffffffffffffffffffffffffffffffffffffff160217905550808273ffffffffffffffffffffffffffffffffffffffff168473ffffffffffffffffffffffffffffffffffffffff167fddf252ad1be2c89b69c2b068fc378daa952ba7f163c4a11628f55a4df523b3ef60405160405180910390a4612c968383836001613321565b505050565b612ca361284b565b73ffffffffffffffffffffffffffffffffffffffff16612cc16116da565b73ffffffffffffffffffffffffffffffffffffffff1614612d17576040517f08c379a0000000000000000000000000000000000000000000000000000000008152600401612d0e90615477565b60405180910390fd5b565b60026007541415612d5f576040517f08c379a0000000000000000000000000000000000000000000000000000000008152600401612d56906154e3565b60405180910390fd5b6002600781905550565b600042905090565b6001600781905550565b60006002600083815260200190815260200160002060009054906101000a900473ffffffffffffffffffffffffffffffffffffffff169050919050565b6001816000016000828254019250508190555050565b600081600001549050919050565b612df6828260405180602001604052806000815250613327565b5050565b6000600660009054906101000a900473ffffffffffffffffffffffffffffffffffffffff16905081600660006101000a81548173ffffffffffffffffffffffffffffffffffffffff021916908373ffffffffffffffffffffffffffffffffffffffff1602179055508173ffffffffffffffffffffffffffffffffffffffff168173ffffffffffffffffffffffffffffffffffffffff167f8be0079c531659141344cd1fd0a4f28419497f9722a3daafe3b4186f6b6457e060405160405180910390a35050565b8173ffffffffffffffffffffffffffffffffffffffff168373ffffffffffffffffffffffffffffffffffffffff161415612f2f576040517f08c379a0000000000000000000000000000000000000000000000000000000008152600401612f269061554f565b60405180910390fd5b80600560008573ffffffffffffffffffffffffffffffffffffffff1673ffffffffffffffffffffffffffffffffffffffff16815260200190815260200160002060008473ffffffffffffffffffffffffffffffffffffffff1673ffffffffffffffffffffffffffffffffffffffff16815260200190815260200160002060006101000a81548160ff0219169083151502179055508173ffffffffffffffffffffffffffffffffffffffff168373ffffffffffffffffffffffffffffffffffffffff167f17307eab39ab6107e8899845ad3d59bd9653f200f220920489ca2b5937696c31836040516130209190613aee565b60405180910390a3505050565b6130388484846129a1565b61304484848484613382565b613083576040517f08c379a000000000000000000000000000000000000000000000000000000000815260040161307a906155e1565b60405180910390fd5b50505050565b606060405180602001604052806000815250905090565b6060600060016130af84613519565b01905060008167ffffffffffffffff8111156130ce576130cd613ce8565b5b6040519080825280601f01601f1916602001820160405280156131005781602001600182028036833780820191505090505b509050600082602001820190505b60011561316d578080600190039150507f3031323334353637383961626364656600000000000000000000000000000000600a86061a8153600a858161315757613156615601565b5b04945060008514156131685761316d565b61310e565b819350505050919050565b600081836131869190615630565b905092915050565b6000818361319c919061568a565b905092915050565b600081836131b2919061493f565b905092915050565b60008073ffffffffffffffffffffffffffffffffffffffff166131dc83612d7b565b73ffffffffffffffffffffffffffffffffffffffff1614159050919050565b600181111561331b57600073ffffffffffffffffffffffffffffffffffffffff168473ffffffffffffffffffffffffffffffffffffffff161461328f5780600360008673ffffffffffffffffffffffffffffffffffffffff1673ffffffffffffffffffffffffffffffffffffffff168152602001908152602001600020600082825461328791906151e3565b925050819055505b600073ffffffffffffffffffffffffffffffffffffffff168373ffffffffffffffffffffffffffffffffffffffff161461331a5780600360008573ffffffffffffffffffffffffffffffffffffffff1673ffffffffffffffffffffffffffffffffffffffff1681526020019081526020016000206000828254613312919061493f565b925050819055505b5b50505050565b50505050565b613331838361366c565b61333e6000848484613382565b61337d576040517f08c379a0000000000000000000000000000000000000000000000000000000008152600401613374906155e1565b60405180910390fd5b505050565b60006133a38473ffffffffffffffffffffffffffffffffffffffff1661388a565b1561350c578373ffffffffffffffffffffffffffffffffffffffff1663150b7a026133cc61284b565b8786866040518563ffffffff1660e01b81526004016133ee9493929190615710565b602060405180830381600087803b15801561340857600080fd5b505af192505050801561343957506040513d601f19601f820116820180604052508101906134369190615771565b60015b6134bc573d8060008114613469576040519150601f19603f3d011682016040523d82523d6000602084013e61346e565b606091505b506000815114156134b4576040517f08c379a00000000000000000000000000000000000000000000000000000000081526004016134ab906155e1565b60405180910390fd5b805181602001fd5b63150b7a0260e01b7bffffffffffffffffffffffffffffffffffffffffffffffffffffffff1916817bffffffffffffffffffffffffffffffffffffffffffffffffffffffff191614915050613511565b600190505b949350505050565b600080600090507a184f03e93ff9f4daa797ed6e38ed64bf6a1f0100000000000000008310613577577a184f03e93ff9f4daa797ed6e38ed64bf6a1f010000000000000000838161356d5761356c615601565b5b0492506040810190505b6d04ee2d6d415b85acef810000000083106135b4576d04ee2d6d415b85acef810000000083816135aa576135a9615601565b5b0492506020810190505b662386f26fc1000083106135e357662386f26fc1000083816135d9576135d8615601565b5b0492506010810190505b6305f5e100831061360c576305f5e100838161360257613601615601565b5b0492506008810190505b612710831061363157612710838161362757613626615601565b5b0492506004810190505b60648310613654576064838161364a57613649615601565b5b0492506002810190505b600a8310613663576001810190505b80915050919050565b600073ffffffffffffffffffffffffffffffffffffffff168273ffffffffffffffffffffffffffffffffffffffff1614156136dc576040517f08c379a00000000000000000000000000000000000000000000000000000000081526004016136d3906157ea565b60405180910390fd5b6136e5816131ba565b15613725576040517f08c379a000000000000000000000000000000000000000000000000000000000815260040161371c90615856565b60405180910390fd5b6137336000838360016131fb565b61373c816131ba565b1561377c576040517f08c379a000000000000000000000000000000000000000000000000000000000815260040161377390615856565b60405180910390fd5b6001600360008473ffffffffffffffffffffffffffffffffffffffff1673ffffffffffffffffffffffffffffffffffffffff16815260200190815260200160002060008282540192505081905550816002600083815260200190815260200160002060006101000a81548173ffffffffffffffffffffffffffffffffffffffff021916908373ffffffffffffffffffffffffffffffffffffffff160217905550808273ffffffffffffffffffffffffffffffffffffffff16600073ffffffffffffffffffffffffffffffffffffffff167fddf252ad1be2c89b69c2b068fc378daa952ba7f163c4a11628f55a4df523b3ef60405160405180910390a4613886600083836001613321565b5050565b6000808273ffffffffffffffffffffffffffffffffffffffff163b119050919050565b8280546138b990614417565b90600052602060002090601f0160209004810192826138db5760008555613922565b82601f106138f457805160ff1916838001178555613922565b82800160010185558215613922579182015b82811115613921578251825591602001919060010190613906565b5b50905061392f9190613933565b5090565b5b8082111561394c576000816000905550600101613934565b5090565b6000604051905090565b600080fd5b600080fd5b6000819050919050565b61397781613964565b811461398257600080fd5b50565b6000813590506139948161396e565b92915050565b6000602082840312156139b0576139af61395a565b5b60006139be84828501613985565b91505092915050565b600073ffffffffffffffffffffffffffffffffffffffff82169050919050565b60006139f2826139c7565b9050919050565b613a02816139e7565b82525050565b613a1181613964565b82525050565b6000606082019050613a2c60008301866139f9565b613a396020830185613a08565b613a466040830184613a08565b949350505050565b60007fffffffff0000000000000000000000000000000000000000000000000000000082169050919050565b613a8381613a4e565b8114613a8e57600080fd5b50565b600081359050613aa081613a7a565b92915050565b600060208284031215613abc57613abb61395a565b5b6000613aca84828501613a91565b91505092915050565b60008115159050919050565b613ae881613ad3565b82525050565b6000602082019050613b036000830184613adf565b92915050565b600081519050919050565b600082825260208201905092915050565b60005b83811015613b43578082015181840152602081019050613b28565b83811115613b52576000848401525b50505050565b6000601f19601f8301169050919050565b6000613b7482613b09565b613b7e8185613b14565b9350613b8e818560208601613b25565b613b9781613b58565b840191505092915050565b60006020820190508181036000830152613bbc8184613b69565b905092915050565b6000602082019050613bd960008301846139f9565b92915050565b613be8816139e7565b8114613bf357600080fd5b50565b600081359050613c0581613bdf565b92915050565b60008060408385031215613c2257613c2161395a565b5b6000613c3085828601613bf6565b9250506020613c4185828601613985565b9150509250929050565b600080600060608486031215613c6457613c6361395a565b5b6000613c7286828701613bf6565b9350506020613c8386828701613bf6565b9250506040613c9486828701613985565b9150509250925092565b60008060408385031215613cb557613cb461395a565b5b6000613cc385828601613985565b9250506020613cd485828601613985565b9150509250929050565b600080fd5b600080fd5b7f4e487b7100000000000000000000000000000000000000000000000000000000600052604160045260246000fd5b613d2082613b58565b810181811067ffffffffffffffff82111715613d3f57613d3e613ce8565b5b80604052505050565b6000613d52613950565b9050613d5e8282613d17565b919050565b600067ffffffffffffffff821115613d7e57613d7d613ce8565b5b613d8782613b58565b9050602081019050919050565b82818337600083830152505050565b6000613db6613db184613d63565b613d48565b905082815260208101848484011115613dd257613dd1613ce3565b5b613ddd848285613d94565b509392505050565b600082601f830112613dfa57613df9613cde565b5b8135613e0a848260208601613da3565b91505092915050565b600060208284031215613e2957613e2861395a565b5b600082013567ffffffffffffffff811115613e4757613e4661395f565b5b613e5384828501613de5565b91505092915050565b7f4e487b7100000000000000000000000000000000000000000000000000000000600052602160045260246000fd5b60028110613e9c57613e9b613e5c565b5b50565b6000819050613ead82613e8b565b919050565b6000613ebd82613e9f565b9050919050565b613ecd81613eb2565b82525050565b600060a082019050613ee860008301886139f9565b8181036020830152613efa8187613b69565b9050613f096040830186613a08565b613f166060830185613a08565b613f236080830184613ec4565b9695505050505050565b6000602082019050613f426000830184613a08565b92915050565b600060c082019050613f5d60008301896139f9565b613f6a6020830188613a08565b613f776040830187613a08565b613f846060830186613a08565b613f916080830185613a08565b613f9e60a0830184613adf565b979650505050505050565b60008060408385031215613fc057613fbf61395a565b5b600083013567ffffffffffffffff811115613fde57613fdd61395f565b5b613fea85828601613de5565b9250506020613ffb85828601613985565b9150509250929050565b600080fd5b600080fd5b60008083601f84011261402557614024613cde565b5b8235905067ffffffffffffffff81111561404257614041614005565b5b60208301915083600182028301111561405e5761405d61400a565b5b9250929050565b6000806000806040858703121561407f5761407e61395a565b5b600085013567ffffffffffffffff81111561409d5761409c61395f565b5b6140a98782880161400f565b9450945050602085013567ffffffffffffffff8111156140cc576140cb61395f565b5b6140d88782880161400f565b925092505092959194509250565b6000602082840312156140fc576140fb61395a565b5b600061410a84828501613bf6565b91505092915050565b61411c81613ad3565b811461412757600080fd5b50565b60008135905061413981614113565b92915050565b600080604083850312156141565761415561395a565b5b600061416485828601613bf6565b92505060206141758582860161412a565b9150509250929050565b600067ffffffffffffffff82111561419a57614199613ce8565b5b6141a382613b58565b9050602081019050919050565b60006141c36141be8461417f565b613d48565b9050828152602081018484840111156141df576141de613ce3565b5b6141ea848285613d94565b509392505050565b600082601f83011261420757614206613cde565b5b81356142178482602086016141b0565b91505092915050565b6000806000806080858703121561423a5761423961395a565b5b600061424887828801613bf6565b945050602061425987828801613bf6565b935050604061426a87828801613985565b925050606085013567ffffffffffffffff81111561428b5761428a61395f565b5b614297878288016141f2565b91505092959194509250565b60008060008060008060a087890312156142c0576142bf61395a565b5b600087013567ffffffffffffffff8111156142de576142dd61395f565b5b6142ea89828a0161400f565b965096505060206142fd89828a01613985565b945050604061430e89828a01613985565b935050606061431f89828a01613985565b925050608061433089828a01613985565b9150509295509295509295565b600080604083850312156143545761435361395a565b5b600061436285828601613bf6565b925050602061437385828601613bf6565b9150509250929050565b6000614388826139c7565b9050919050565b6143988161437d565b81146143a357600080fd5b50565b6000813590506143b58161438f565b92915050565b6000602082840312156143d1576143d061395a565b5b60006143df848285016143a6565b91505092915050565b7f4e487b7100000000000000000000000000000000000000000000000000000000600052602260045260246000fd5b6000600282049050600182168061442f57607f821691505b60208210811415614443576144426143e8565b5b50919050565b7f4552433732313a20617070726f76616c20746f2063757272656e74206f776e6560008201527f7200000000000000000000000000000000000000000000000000000000000000602082015250565b60006144a5602183613b14565b91506144b082614449565b604082019050919050565b600060208201905081810360008301526144d481614498565b9050919050565b7f4552433732313a20617070726f76652063616c6c6572206973206e6f7420746f60008201527f6b656e206f776e6572206f7220617070726f76656420666f7220616c6c000000602082015250565b6000614537603d83613b14565b9150614542826144db565b604082019050919050565b600060208201905081810360008301526145668161452a565b9050919050565b7f4552433732313a2063616c6c6572206973206e6f7420746f6b656e206f776e6560008201527f72206f7220617070726f76656400000000000000000000000000000000000000602082015250565b60006145c9602d83613b14565b91506145d48261456d565b604082019050919050565b600060208201905081810360008301526145f8816145bc565b9050919050565b60006040820190506146146000830185613a08565b6146216020830184613a08565b9392505050565b600081905092915050565b600061463e82613b09565b6146488185614628565b9350614658818560208601613b25565b80840191505092915050565b60006146708284614633565b915081905092915050565b7f3235000000000000000000000000000000000000000000000000000000000000600082015250565b60006146b1600283613b14565b91506146bc8261467b565b602082019050919050565b600060208201905081810360008301526146e0816146a4565b9050919050565b7f3236000000000000000000000000000000000000000000000000000000000000600082015250565b600061471d600283613b14565b9150614728826146e7565b602082019050919050565b6000602082019050818103600083015261474c81614710565b9050919050565b7f3800000000000000000000000000000000000000000000000000000000000000600082015250565b6000614789600183613b14565b915061479482614753565b602082019050919050565b600060208201905081810360008301526147b88161477c565b9050919050565b7f3132000000000000000000000000000000000000000000000000000000000000600082015250565b60006147f5600283613b14565b9150614800826147bf565b602082019050919050565b60006020820190508181036000830152614824816147e8565b9050919050565b600060608201905061484060008301866139f9565b61484d60208301856139f9565b61485a6040830184613a08565b949350505050565b60008151905061487181614113565b92915050565b60006020828403121561488d5761488c61395a565b5b600061489b84828501614862565b91505092915050565b7f3133000000000000000000000000000000000000000000000000000000000000600082015250565b60006148da600283613b14565b91506148e5826148a4565b602082019050919050565b60006020820190508181036000830152614909816148cd565b9050919050565b7f4e487b7100000000000000000000000000000000000000000000000000000000600052601160045260246000fd5b600061494a82613964565b915061495583613964565b9250827fffffffffffffffffffffffffffffffffffffffffffffffffffffffffffffffff0382111561498a57614989614910565b5b828201905092915050565b60006040820190506149aa60008301856139f9565b6149b76020830184613a08565b9392505050565b600060608201905081810360008301526149d88186613b69565b90506149e760208301856139f9565b6149f46040830184613a08565b949350505050565b7f4552433732313a20696e76616c696420746f6b656e2049440000000000000000600082015250565b6000614a32601883613b14565b9150614a3d826149fc565b602082019050919050565b60006020820190508181036000830152614a6181614a25565b9050919050565b7f3237000000000000000000000000000000000000000000000000000000000000600082015250565b6000614a9e600283613b14565b9150614aa982614a68565b602082019050919050565b60006020820190508181036000830152614acd81614a91565b9050919050565b7f3238000000000000000000000000000000000000000000000000000000000000600082015250565b6000614b0a600283613b14565b9150614b1582614ad4565b602082019050919050565b60006020820190508181036000830152614b3981614afd565b9050919050565b6000614b4c8385614628565b9350614b59838584613d94565b82840190509392505050565b6000614b72828486614b40565b91508190509392505050565b7f3200000000000000000000000000000000000000000000000000000000000000600082015250565b6000614bb4600183613b14565b9150614bbf82614b7e565b602082019050919050565b60006020820190508181036000830152614be381614ba7565b9050919050565b6000614bf68385613b14565b9350614c03838584613d94565b614c0c83613b58565b840190509392505050565b60006040820190508181036000830152614c32818587614bea565b9050614c416020830184613a08565b949350505050565b7f4552433732313a2061646472657373207a65726f206973206e6f74206120766160008201527f6c6964206f776e65720000000000000000000000000000000000000000000000602082015250565b6000614ca5602983613b14565b9150614cb082614c49565b604082019050919050565b60006020820190508181036000830152614cd481614c98565b9050919050565b7f3138000000000000000000000000000000000000000000000000000000000000600082015250565b6000614d11600283613b14565b9150614d1c82614cdb565b602082019050919050565b60006020820190508181036000830152614d4081614d04565b9050919050565b7f3600000000000000000000000000000000000000000000000000000000000000600082015250565b6000614d7d600183613b14565b9150614d8882614d47565b602082019050919050565b60006020820190508181036000830152614dac81614d70565b9050919050565b7f3700000000000000000000000000000000000000000000000000000000000000600082015250565b6000614de9600183613b14565b9150614df482614db3565b602082019050919050565b60006020820190508181036000830152614e1881614ddc565b9050919050565b7f3232000000000000000000000000000000000000000000000000000000000000600082015250565b6000614e55600283613b14565b9150614e6082614e1f565b602082019050919050565b60006020820190508181036000830152614e8481614e48565b9050919050565b7f3234000000000000000000000000000000000000000000000000000000000000600082015250565b6000614ec1600283613b14565b9150614ecc82614e8b565b602082019050919050565b60006020820190508181036000830152614ef081614eb4565b9050919050565b600060a0820190508181036000830152614f1281888a614bea565b9050614f216020830187613a08565b614f2e6040830186613a08565b614f3b6060830185613a08565b614f486080830184613a08565b979650505050505050565b6000614f5f8285614633565b9150614f6b8284614633565b91508190509392505050565b7f4f776e61626c653a206e6577206f776e657220697320746865207a65726f206160008201527f6464726573730000000000000000000000000000000000000000000000000000602082015250565b6000614fd3602683613b14565b9150614fde82614f77565b604082019050919050565b6000602082019050818103600083015261500281614fc6565b9050919050565b7f3231000000000000000000000000000000000000000000000000000000000000600082015250565b600061503f600283613b14565b915061504a82615009565b602082019050919050565b6000602082019050818103600083015261506e81615032565b9050919050565b61507e8161437d565b82525050565b60006020820190506150996000830184615075565b92915050565b7f3139000000000000000000000000000000000000000000000000000000000000600082015250565b60006150d5600283613b14565b91506150e08261509f565b602082019050919050565b60006020820190508181036000830152615104816150c8565b9050919050565b7f3135000000000000000000000000000000000000000000000000000000000000600082015250565b6000615141600283613b14565b915061514c8261510b565b602082019050919050565b6000602082019050818103600083015261517081615134565b9050919050565b7f3230000000000000000000000000000000000000000000000000000000000000600082015250565b60006151ad600283613b14565b91506151b882615177565b602082019050919050565b600060208201905081810360008301526151dc816151a0565b9050919050565b60006151ee82613964565b91506151f983613964565b92508282101561520c5761520b614910565b5b828203905092915050565b6000819050919050565b600061523c615237615232846139c7565b615217565b6139c7565b9050919050565b600061524e82615221565b9050919050565b600061526082615243565b9050919050565b61527081615255565b82525050565b600060408201905061528b6000830185615267565b6152986020830184613a08565b9392505050565b600060c08201905081810360008301526152b98189613b69565b90506152c860208301886139f9565b6152d560408301876139f9565b6152e26060830186613a08565b6152ef6080830185613a08565b6152fc60a0830184613a08565b979650505050505050565b7f4552433732313a207472616e736665722066726f6d20696e636f72726563742060008201527f6f776e6572000000000000000000000000000000000000000000000000000000602082015250565b6000615363602583613b14565b915061536e82615307565b604082019050919050565b6000602082019050818103600083015261539281615356565b9050919050565b7f4552433732313a207472616e7366657220746f20746865207a65726f2061646460008201527f7265737300000000000000000000000000000000000000000000000000000000602082015250565b60006153f5602483613b14565b915061540082615399565b604082019050919050565b60006020820190508181036000830152615424816153e8565b9050919050565b7f4f776e61626c653a2063616c6c6572206973206e6f7420746865206f776e6572600082015250565b6000615461602083613b14565b915061546c8261542b565b602082019050919050565b6000602082019050818103600083015261549081615454565b9050919050565b7f5265656e7472616e637947756172643a207265656e7472616e742063616c6c00600082015250565b60006154cd601f83613b14565b91506154d882615497565b602082019050919050565b600060208201905081810360008301526154fc816154c0565b9050919050565b7f4552433732313a20617070726f766520746f2063616c6c657200000000000000600082015250565b6000615539601983613b14565b915061554482615503565b602082019050919050565b600060208201905081810360008301526155688161552c565b9050919050565b7f4552433732313a207472616e7366657220746f206e6f6e20455243373231526560008201527f63656976657220696d706c656d656e7465720000000000000000000000000000602082015250565b60006155cb603283613b14565b91506155d68261556f565b604082019050919050565b600060208201905081810360008301526155fa816155be565b9050919050565b7f4e487b7100000000000000000000000000000000000000000000000000000000600052601260045260246000fd5b600061563b82613964565b915061564683613964565b9250817fffffffffffffffffffffffffffffffffffffffffffffffffffffffffffffffff048311821515161561567f5761567e614910565b5b828202905092915050565b600061569582613964565b91506156a083613964565b9250826156b0576156af615601565b5b828204905092915050565b600081519050919050565b600082825260208201905092915050565b60006156e2826156bb565b6156ec81856156c6565b93506156fc818560208601613b25565b61570581613b58565b840191505092915050565b600060808201905061572560008301876139f9565b61573260208301866139f9565b61573f6040830185613a08565b818103606083015261575181846156d7565b905095945050505050565b60008151905061576b81613a7a565b92915050565b6000602082840312156157875761578661395a565b5b60006157958482850161575c565b91505092915050565b7f4552433732313a206d696e7420746f20746865207a65726f2061646472657373600082015250565b60006157d4602083613b14565b91506157df8261579e565b602082019050919050565b60006020820190508181036000830152615803816157c7565b9050919050565b7f4552433732313a20746f6b656e20616c7265616479206d696e74656400000000600082015250565b6000615840601c83613b14565b915061584b8261580a565b602082019050919050565b6000602082019050818103600083015261586f81615833565b905091905056fea26469706673582212208479ab24fbdcbdce4cef0ad8fa676220db238557e7de04b6380c32b10ad8f63e64736f6c63430008090033",
  "linkReferences": {},
  "deployedLinkReferences": {}
}