{
  "_format": "hh-sol-artifact-1",
  "contractName": "DbMultiSend",
  "sourceName": "contracts/DbMultiSend.sol",
  "abi": [
    {
      "inputs": [
        {
          "components": [
            {
              "internalType": "address",
              "name": "addr",
              "type": "address"
            },
            {
              "internalType": "uint256",
              "name": "amount",
              "type": "uint256"
            }
          ],
          "internalType": "struct DbMultiSend.Recipient[]",
          "name": "recipients",
          "type": "tuple[]"
        }
      ],
      "name": "multiSend",
      "outputs": [],
      "stateMutability": "payable",
      "type": "function"
    },
    {
      "inputs": [
        {
          "components": [
            {
              "internalType": "address",
              "name": "addr",
              "type": "address"
            },
            {
              "internalType": "uint256",
              "name": "amount",
              "type": "uint256"
            }
          ],
          "internalType": "struct DbMultiSend.Recipient[]",
          "name": "recipients",
          "type": "tuple[]"
        }
      ],
      "name": "multiSendEth",
      "outputs": [],
      "stateMutability": "payable",
      "type": "function"
    }
  ],
  "bytecode": "0x608060405234801561001057600080fd5b5061080b806100206000396000f3fe6080604052600436106100295760003560e01c80638d25da9e1461002e578063b4ee7ccf1461004a575b600080fd5b61004860048036038101906100439190610472565b610066565b005b610064600480360381019061005f9190610472565b61016d565b005b60005b81518110156101225760008282815181106100ad577f4e487b7100000000000000000000000000000000000000000000000000000000600052603260045260246000fd5b60200260200101516000015190508073ffffffffffffffffffffffffffffffffffffffff166108fc8451346100e291906105d6565b9081150290604051600060405180830381858888f1935050505015801561010d573d6000803e3d6000fd5b5050808061011a90610680565b915050610069565b503373ffffffffffffffffffffffffffffffffffffffff166108fc479081150290604051600060405180830381858888f19350505050158015610169573d6000803e3d6000fd5b5050565b600073aa8adb51329ba9640d86aa10b0f374d97a7b31d9905060005b825181101561034c5760008382815181106101cd577f4e487b7100000000000000000000000000000000000000000000000000000000600052603260045260246000fd5b60200260200101516020015111610219576040517f08c379a000000000000000000000000000000000000000000000000000000000815260040161021090610554565b60405180910390fd5b8173ffffffffffffffffffffffffffffffffffffffff166323b872dd3385848151811061026f577f4e487b7100000000000000000000000000000000000000000000000000000000600052603260045260246000fd5b6020026020010151600001518685815181106102b4577f4e487b7100000000000000000000000000000000000000000000000000000000600052603260045260246000fd5b6020026020010151602001516040518463ffffffff1660e01b81526004016102de9392919061051d565b602060405180830381600087803b1580156102f857600080fd5b505af115801561030c573d6000803e3d6000fd5b505050506040513d601f19601f8201168201806040525081019061033091906104b3565b61033957600080fd5b808061034490610680565b915050610189565b505050565b600061036461035f84610599565b610574565b9050808382526020820190508285604086028201111561038357600080fd5b60005b858110156103b357816103998882610411565b845260208401935060408301925050600181019050610386565b5050509392505050565b6000813590506103cc81610790565b92915050565b600082601f8301126103e357600080fd5b81356103f3848260208601610351565b91505092915050565b60008151905061040b816107a7565b92915050565b60006040828403121561042357600080fd5b61042d6040610574565b9050600061043d848285016103bd565b60008301525060206104518482850161045d565b60208301525092915050565b60008135905061046c816107be565b92915050565b60006020828403121561048457600080fd5b600082013567ffffffffffffffff81111561049e57600080fd5b6104aa848285016103d2565b91505092915050565b6000602082840312156104c557600080fd5b60006104d3848285016103fc565b91505092915050565b6104e581610607565b82525050565b60006104f8600e836105c5565b915061050382610767565b602082019050919050565b61051781610645565b82525050565b600060608201905061053260008301866104dc565b61053f60208301856104dc565b61054c604083018461050e565b949350505050565b6000602082019050818103600083015261056d816104eb565b9050919050565b600061057e61058f565b905061058a828261064f565b919050565b6000604051905090565b600067ffffffffffffffff8211156105b4576105b3610727565b5b602082029050602081019050919050565b600082825260208201905092915050565b60006105e182610645565b91506105ec83610645565b9250826105fc576105fb6106f8565b5b828204905092915050565b600061061282610625565b9050919050565b60008115159050919050565b600073ffffffffffffffffffffffffffffffffffffffff82169050919050565b6000819050919050565b61065882610756565b810181811067ffffffffffffffff8211171561067757610676610727565b5b80604052505050565b600061068b82610645565b91507fffffffffffffffffffffffffffffffffffffffffffffffffffffffffffffffff8214156106be576106bd6106c9565b5b600182019050919050565b7f4e487b7100000000000000000000000000000000000000000000000000000000600052601160045260246000fd5b7f4e487b7100000000000000000000000000000000000000000000000000000000600052601260045260246000fd5b7f4e487b7100000000000000000000000000000000000000000000000000000000600052604160045260246000fd5b6000601f19601f8301169050919050565b7f496e76616c696420616d6f756e74000000000000000000000000000000000000600082015250565b61079981610607565b81146107a457600080fd5b50565b6107b081610619565b81146107bb57600080fd5b50565b6107c781610645565b81146107d257600080fd5b5056fea2646970667358221220f3f873de712add6164e0a4c1e201dbf6c3b354565b8020415f043fde1f1338f964736f6c63430008040033",
  "linkReferences": {},
  "deployedLinkReferences": {}
}