{
  "_format": "hh-sol-artifact-1",
  "contractName": "DeciblingStaking",
  "sourceName": "contracts/DeciblingStaking.sol",
  "abi": [
    {
      "inputs": [
        {
          "internalType": "address",
          "name": "_tokenAddress",
          "type": "address"
        },
        {
          "internalType": "address payable",
          "name": "_platformFeeRecipient",
          "type": "address"
        }
      ],
      "stateMutability": "nonpayable",
      "type": "constructor"
    },
    {
      "anonymous": false,
      "inputs": [
        {
          "indexed": false,
          "internalType": "address",
          "name": "_user",
          "type": "address"
        },
        {
          "indexed": false,
          "internalType": "string",
          "name": "pool",
          "type": "string"
        },
        {
          "indexed": false,
          "internalType": "uint256",
          "name": "time",
          "type": "uint256"
        },
        {
          "indexed": false,
          "internalType": "uint256",
          "name": "amount",
          "type": "uint256"
        },
        {
          "indexed": false,
          "internalType": "uint256",
          "name": "amountToOwner",
          "type": "uint256"
        },
        {
          "indexed": false,
          "internalType": "uint256",
          "name": "platformValue",
          "type": "uint256"
        },
        {
          "indexed": false,
          "internalType": "uint256",
          "name": "platformValueToOwner",
          "type": "uint256"
        }
      ],
      "name": "IssueToken",
      "type": "event"
    },
    {
      "anonymous": false,
      "inputs": [
        {
          "indexed": false,
          "internalType": "string",
          "name": "id",
          "type": "string"
        }
      ],
      "name": "NewPool",
      "type": "event"
    },
    {
      "anonymous": false,
      "inputs": [
        {
          "indexed": true,
          "internalType": "address",
          "name": "previousOwner",
          "type": "address"
        },
        {
          "indexed": true,
          "internalType": "address",
          "name": "newOwner",
          "type": "address"
        }
      ],
      "name": "OwnershipTransferred",
      "type": "event"
    },
    {
      "anonymous": false,
      "inputs": [
        {
          "indexed": false,
          "internalType": "address",
          "name": "_user",
          "type": "address"
        },
        {
          "indexed": false,
          "internalType": "uint256",
          "name": "time",
          "type": "uint256"
        },
        {
          "indexed": false,
          "internalType": "uint256",
          "name": "amount",
          "type": "uint256"
        },
        {
          "indexed": false,
          "internalType": "string",
          "name": "pool",
          "type": "string"
        }
      ],
      "name": "Stake",
      "type": "event"
    },
    {
      "anonymous": false,
      "inputs": [
        {
          "indexed": false,
          "internalType": "address",
          "name": "_user",
          "type": "address"
        },
        {
          "indexed": false,
          "internalType": "uint256",
          "name": "time",
          "type": "uint256"
        },
        {
          "indexed": false,
          "internalType": "string",
          "name": "pool",
          "type": "string"
        },
        {
          "indexed": false,
          "internalType": "uint256",
          "name": "unstakeAmount",
          "type": "uint256"
        }
      ],
      "name": "Unstake",
      "type": "event"
    },
    {
      "anonymous": false,
      "inputs": [
        {
          "indexed": false,
          "internalType": "uint256",
          "name": "platformFee",
          "type": "uint256"
        }
      ],
      "name": "UpdatePlatformFee",
      "type": "event"
    },
    {
      "anonymous": false,
      "inputs": [
        {
          "indexed": false,
          "internalType": "address payable",
          "name": "platformFeeRecipient",
          "type": "address"
        }
      ],
      "name": "UpdatePlatformFeeRecipient",
      "type": "event"
    },
    {
      "anonymous": false,
      "inputs": [
        {
          "indexed": false,
          "internalType": "string",
          "name": "id",
          "type": "string"
        },
        {
          "indexed": false,
          "internalType": "uint256",
          "name": "r",
          "type": "uint256"
        },
        {
          "indexed": false,
          "internalType": "uint256",
          "name": "r_to_owner",
          "type": "uint256"
        },
        {
          "indexed": false,
          "internalType": "uint256",
          "name": "base",
          "type": "uint256"
        },
        {
          "indexed": false,
          "internalType": "uint256",
          "name": "base_to_owner",
          "type": "uint256"
        }
      ],
      "name": "UpdatePool",
      "type": "event"
    },
    {
      "anonymous": false,
      "inputs": [
        {
          "indexed": false,
          "internalType": "string",
          "name": "id",
          "type": "string"
        },
        {
          "indexed": false,
          "internalType": "address payable",
          "name": "owner",
          "type": "address"
        }
      ],
      "name": "UpdatePoolOwner",
      "type": "event"
    },
    {
      "anonymous": false,
      "inputs": [
        {
          "indexed": false,
          "internalType": "address",
          "name": "_user",
          "type": "address"
        },
        {
          "indexed": false,
          "internalType": "uint256",
          "name": "time",
          "type": "uint256"
        },
        {
          "indexed": false,
          "internalType": "string",
          "name": "id",
          "type": "string"
        },
        {
          "indexed": false,
          "internalType": "uint256",
          "name": "actualAmount",
          "type": "uint256"
        }
      ],
      "name": "UpdateUnclaimAmount",
      "type": "event"
    },
    {
      "inputs": [],
      "name": "froyToken",
      "outputs": [
        {
          "internalType": "contract IERC20",
          "name": "",
          "type": "address"
        }
      ],
      "stateMutability": "view",
      "type": "function"
    },
    {
      "inputs": [
        {
          "components": [
            {
              "internalType": "address",
              "name": "to",
              "type": "address"
            },
            {
              "internalType": "string",
              "name": "id",
              "type": "string"
            }
          ],
          "internalType": "struct DeciblingStaking.ClaimInfo[]",
          "name": "claims",
          "type": "tuple[]"
        }
      ],
      "name": "issueToken",
      "outputs": [],
      "stateMutability": "nonpayable",
      "type": "function"
    },
    {
      "inputs": [
        {
          "internalType": "string",
          "name": "_id",
          "type": "string"
        },
        {
          "internalType": "uint256",
          "name": "_r",
          "type": "uint256"
        },
        {
          "internalType": "uint256",
          "name": "_r_to_owner",
          "type": "uint256"
        }
      ],
      "name": "newPool",
      "outputs": [],
      "stateMutability": "nonpayable",
      "type": "function"
    },
    {
      "inputs": [],
      "name": "owner",
      "outputs": [
        {
          "internalType": "address",
          "name": "",
          "type": "address"
        }
      ],
      "stateMutability": "view",
      "type": "function"
    },
    {
      "inputs": [],
      "name": "platformFee",
      "outputs": [
        {
          "internalType": "uint256",
          "name": "",
          "type": "uint256"
        }
      ],
      "stateMutability": "view",
      "type": "function"
    },
    {
      "inputs": [],
      "name": "platformFeeRecipient",
      "outputs": [
        {
          "internalType": "address payable",
          "name": "",
          "type": "address"
        }
      ],
      "stateMutability": "view",
      "type": "function"
    },
    {
      "inputs": [
        {
          "internalType": "string",
          "name": "",
          "type": "string"
        }
      ],
      "name": "pools",
      "outputs": [
        {
          "internalType": "address",
          "name": "owner",
          "type": "address"
        },
        {
          "internalType": "uint256",
          "name": "rToOwner",
          "type": "uint256"
        },
        {
          "internalType": "uint256",
          "name": "r",
          "type": "uint256"
        },
        {
          "internalType": "uint256",
          "name": "base",
          "type": "uint256"
        },
        {
          "internalType": "uint256",
          "name": "baseToOwner",
          "type": "uint256"
        }
      ],
      "stateMutability": "view",
      "type": "function"
    },
    {
      "inputs": [],
      "name": "renounceOwnership",
      "outputs": [],
      "stateMutability": "nonpayable",
      "type": "function"
    },
    {
      "inputs": [
        {
          "internalType": "string",
          "name": "id",
          "type": "string"
        },
        {
          "internalType": "uint256",
          "name": "_amount",
          "type": "uint256"
        }
      ],
      "name": "stake",
      "outputs": [],
      "stateMutability": "nonpayable",
      "type": "function"
    },
    {
      "inputs": [
        {
          "internalType": "string",
          "name": "",
          "type": "string"
        },
        {
          "internalType": "address",
          "name": "",
          "type": "address"
        }
      ],
      "name": "stakes",
      "outputs": [
        {
          "internalType": "uint256",
          "name": "amount",
          "type": "uint256"
        },
        {
          "internalType": "uint256",
          "name": "stakeTime",
          "type": "uint256"
        },
        {
          "internalType": "uint256",
          "name": "unclaimAmount",
          "type": "uint256"
        },
        {
          "internalType": "uint256",
          "name": "unclaimAmountToOwner",
          "type": "uint256"
        }
      ],
      "stateMutability": "view",
      "type": "function"
    },
    {
      "inputs": [
        {
          "internalType": "address",
          "name": "newOwner",
          "type": "address"
        }
      ],
      "name": "transferOwnership",
      "outputs": [],
      "stateMutability": "nonpayable",
      "type": "function"
    },
    {
      "inputs": [
        {
          "internalType": "string",
          "name": "id",
          "type": "string"
        },
        {
          "internalType": "uint256",
          "name": "unstakeAmount",
          "type": "uint256"
        }
      ],
      "name": "unstake",
      "outputs": [],
      "stateMutability": "nonpayable",
      "type": "function"
    },
    {
      "inputs": [
        {
          "internalType": "uint256",
          "name": "_platformFee",
          "type": "uint256"
        }
      ],
      "name": "updatePlatformFee",
      "outputs": [],
      "stateMutability": "nonpayable",
      "type": "function"
    },
    {
      "inputs": [
        {
          "internalType": "address payable",
          "name": "_platformFeeRecipient",
          "type": "address"
        }
      ],
      "name": "updatePlatformFeeRecipient",
      "outputs": [],
      "stateMutability": "nonpayable",
      "type": "function"
    },
    {
      "inputs": [
        {
          "internalType": "string",
          "name": "id",
          "type": "string"
        },
        {
          "internalType": "uint256",
          "name": "_r",
          "type": "uint256"
        },
        {
          "internalType": "uint256",
          "name": "_r_to_owner",
          "type": "uint256"
        }
      ],
      "name": "updatePool",
      "outputs": [],
      "stateMutability": "nonpayable",
      "type": "function"
    },
    {
      "inputs": [
        {
          "internalType": "string",
          "name": "_id",
          "type": "string"
        },
        {
          "internalType": "address payable",
          "name": "_owner",
          "type": "address"
        }
      ],
      "name": "updatePoolOwner",
      "outputs": [],
      "stateMutability": "nonpayable",
      "type": "function"
    }
  ],
  "bytecode": "0x608060405260056002553480156200001657600080fd5b50604051620041733803806200417383398181016040528101906200003c91906200061f565b6200005c62000050620001dd60201b60201c565b620001e560201b60201c565b600073ffffffffffffffffffffffffffffffffffffffff168273ffffffffffffffffffffffffffffffffffffffff1614158015620000c75750600073ffffffffffffffffffffffffffffffffffffffff168173ffffffffffffffffffffffffffffffffffffffff1614155b62000109576040517f08c379a00000000000000000000000000000000000000000000000000000000081526004016200010090620006ed565b60405180910390fd5b81600160006101000a81548173ffffffffffffffffffffffffffffffffffffffff021916908373ffffffffffffffffffffffffffffffffffffffff16021790555080600360006101000a81548173ffffffffffffffffffffffffffffffffffffffff021916908373ffffffffffffffffffffffffffffffffffffffff160217905550620001d56040518060400160405280600e81526020017f64656369626c696e675f706f6f6c00000000000000000000000000000000000081525060026000620002a960201b60201c565b505062000a09565b600033905090565b60008060009054906101000a900473ffffffffffffffffffffffffffffffffffffffff169050816000806101000a81548173ffffffffffffffffffffffffffffffffffffffff021916908373ffffffffffffffffffffffffffffffffffffffff1602179055508173ffffffffffffffffffffffffffffffffffffffff168173ffffffffffffffffffffffffffffffffffffffff167f8be0079c531659141344cd1fd0a4f28419497f9722a3daafe3b4186f6b6457e060405160405180910390a35050565b6000839050600081511415620002f6576040517f08c379a0000000000000000000000000000000000000000000000000000000008152600401620002ed906200075f565b60405180910390fd5b3360058560405162000309919062000804565b908152602001604051809103902060000160006101000a81548173ffffffffffffffffffffffffffffffffffffffff021916908373ffffffffffffffffffffffffffffffffffffffff1602179055506200036b848484620003aa60201b60201c565b7f91911924d66747ff20690c8eadf917d5af4379cb477324c2e878dbd00e779558846040516200039c91906200086f565b60405180910390a150505050565b6000839050600081511415620003f7576040517f08c379a0000000000000000000000000000000000000000000000000000000008152600401620003ee906200075f565b60405180910390fd5b826005856040516200040a919062000804565b9081526020016040518091039020600201819055508160058560405162000432919062000804565b90815260200160405180910390206001018190555063bbf81e0083670de0b6b3a7640000620004629190620008cc565b6200046e91906200095c565b60058560405162000480919062000804565b90815260200160405180910390206003018190555063bbf81e0082670de0b6b3a7640000620004b09190620008cc565b620004bc91906200095c565b600585604051620004ce919062000804565b9081526020016040518091039020600401819055507fd3ebb844cb39e2f72d8f563ae711245b5f0b1c1a4cc5e596b79089db0ae830de84848460058860405162000519919062000804565b9081526020016040518091039020600301546005896040516200053d919062000804565b90815260200160405180910390206004015460405162000562959493929190620009a5565b60405180910390a150505050565b600080fd5b600073ffffffffffffffffffffffffffffffffffffffff82169050919050565b6000620005a28262000575565b9050919050565b620005b48162000595565b8114620005c057600080fd5b50565b600081519050620005d481620005a9565b92915050565b6000620005e78262000575565b9050919050565b620005f981620005da565b81146200060557600080fd5b50565b6000815190506200061981620005ee565b92915050565b6000806040838503121562000639576200063862000570565b5b60006200064985828601620005c3565b92505060206200065c8582860162000608565b9150509250929050565b600082825260208201905092915050565b7f436f6e7374727563746f722077616c6c6574732063616e6e6f74206265207a6560008201527f726f000000000000000000000000000000000000000000000000000000000000602082015250565b6000620006d560228362000666565b9150620006e28262000677565b604082019050919050565b600060208201905081810360008301526200070881620006c6565b9050919050565b7f696e76616c696420706f6f6c2069640000000000000000000000000000000000600082015250565b600062000747600f8362000666565b915062000754826200070f565b602082019050919050565b600060208201905081810360008301526200077a8162000738565b9050919050565b600081519050919050565b600081905092915050565b60005b83811015620007b75780820151818401526020810190506200079a565b83811115620007c7576000848401525b50505050565b6000620007da8262000781565b620007e681856200078c565b9350620007f881856020860162000797565b80840191505092915050565b6000620008128284620007cd565b915081905092915050565b6000601f19601f8301169050919050565b60006200083b8262000781565b62000847818562000666565b93506200085981856020860162000797565b62000864816200081d565b840191505092915050565b600060208201905081810360008301526200088b81846200082e565b905092915050565b6000819050919050565b7f4e487b7100000000000000000000000000000000000000000000000000000000600052601160045260246000fd5b6000620008d98262000893565b9150620008e68362000893565b9250817fffffffffffffffffffffffffffffffffffffffffffffffffffffffffffffffff04831182151516156200092257620009216200089d565b5b828202905092915050565b7f4e487b7100000000000000000000000000000000000000000000000000000000600052601260045260246000fd5b6000620009698262000893565b9150620009768362000893565b9250826200098957620009886200092d565b5b828204905092915050565b6200099f8162000893565b82525050565b600060a0820190508181036000830152620009c181886200082e565b9050620009d2602083018762000994565b620009e1604083018662000994565b620009f0606083018562000994565b620009ff608083018462000994565b9695505050505050565b61375a8062000a196000396000f3fe608060405234801561001057600080fd5b50600436106101005760003560e01c8063aa0b598811610097578063ea598f5111610066578063ea598f5114610278578063eb13554f14610294578063f2fde38b146102b2578063f5fe7f71146102ce57610100565b8063aa0b5988146101f1578063d37c92dc1461020d578063d5bc8e0b14610229578063e5bb3a501461024557610100565b80639283f094116100d35780639283f094146101675780639494c8ae1461018557806396dab2a4146101a15780639d6f17a8146101bd57610100565b806326232a2e14610105578063715018a6146101235780637feea8841461012d5780638da5cb5b14610149575b600080fd5b61010d6102ea565b60405161011a91906123b8565b60405180910390f35b61012b6102f0565b005b61014760048036038101906101429190612559565b610304565b005b6101516104e3565b60405161015e9190612609565b60405180910390f35b61016f61050c565b60405161017c9190612683565b60405180910390f35b61019f600480360381019061019a919061269e565b610532565b005b6101bb60048036038101906101b69190612738565b6108c3565b005b6101d760048036038101906101d29190612794565b610b07565b6040516101e89594939291906127dd565b60405180910390f35b61020b60048036038101906102069190612830565b610b73565b005b6102276004803603810190610222919061269e565b610bbc565b005b610243600480360381019061023e91906128bd565b61108f565b005b61025f600480360381019061025a9190612936565b61181f565b60405161026f9493929190612992565b60405180910390f35b610292600480360381019061028d9190612559565b611872565b005b61029c611a16565b6040516102a991906129e6565b60405180910390f35b6102cc60048036038101906102c79190612a01565b611a3c565b005b6102e860048036038101906102e39190612a2e565b611ac0565b005b60025481565b6102f8611bb3565b6103026000611c31565b565b3373ffffffffffffffffffffffffffffffffffffffff1660058460405161032b9190612ad5565b908152602001604051809103902060000160009054906101000a900473ffffffffffffffffffffffffffffffffffffffff1673ffffffffffffffffffffffffffffffffffffffff1614806103b157503373ffffffffffffffffffffffffffffffffffffffff166103996104e3565b73ffffffffffffffffffffffffffffffffffffffff16145b6103f0576040517f08c379a00000000000000000000000000000000000000000000000000000000081526004016103e790612b49565b60405180910390fd5b60038210158015610402575060088211155b610441576040517f08c379a000000000000000000000000000000000000000000000000000000000815260040161043890612bb5565b60405180910390fd5b6005811115610485576040517f08c379a000000000000000000000000000000000000000000000000000000000815260040161047c90612c21565b60405180910390fd5b600882826104939190612c70565b146104d3576040517f08c379a00000000000000000000000000000000000000000000000000000000081526004016104ca90612d12565b60405180910390fd5b6104de838383611cf5565b505050565b60008060009054906101000a900473ffffffffffffffffffffffffffffffffffffffff16905090565b600160009054906101000a900473ffffffffffffffffffffffffffffffffffffffff1681565b600082905060008151141561057c576040517f08c379a000000000000000000000000000000000000000000000000000000000815260040161057390612d7e565b60405180910390fd5b600082116105bf576040517f08c379a00000000000000000000000000000000000000000000000000000000081526004016105b690612dea565b60405180910390fd5b600073ffffffffffffffffffffffffffffffffffffffff166005846040516105e79190612ad5565b908152602001604051809103902060000160009054906101000a900473ffffffffffffffffffffffffffffffffffffffff1673ffffffffffffffffffffffffffffffffffffffff161415610670576040517f08c379a000000000000000000000000000000000000000000000000000000000815260040161066790612e56565b60405180910390fd5b600061067a611ea2565b9050600160009054906101000a900473ffffffffffffffffffffffffffffffffffffffff1673ffffffffffffffffffffffffffffffffffffffff166323b872dd3330866040518463ffffffff1660e01b81526004016106db93929190612e76565b602060405180830381600087803b1580156106f557600080fd5b505af1158015610709573d6000803e3d6000fd5b505050506040513d601f19601f8201168201806040525081019061072d9190612ee5565b61073657600080fd5b60006004856040516107489190612ad5565b908152602001604051809103902060003373ffffffffffffffffffffffffffffffffffffffff1673ffffffffffffffffffffffffffffffffffffffff16815260200190815260200160002060010154146107a8576107a7338286611eaa565b5b806004856040516107b99190612ad5565b908152602001604051809103902060003373ffffffffffffffffffffffffffffffffffffffff1673ffffffffffffffffffffffffffffffffffffffff168152602001908152602001600020600101819055508260048560405161081c9190612ad5565b908152602001604051809103902060003373ffffffffffffffffffffffffffffffffffffffff1673ffffffffffffffffffffffffffffffffffffffff16815260200190815260200160002060000160008282546108799190612c70565b925050819055507f2308d14ad2fe14dd80f24580b205a6008f905d88b0bf9b72b21b23b8480c70e7338285876040516108b59493929190612f4b565b60405180910390a150505050565b600082905060008151141561090d576040517f08c379a000000000000000000000000000000000000000000000000000000000815260040161090490612d7e565b60405180910390fd5b3373ffffffffffffffffffffffffffffffffffffffff166005846040516109349190612ad5565b908152602001604051809103902060000160009054906101000a900473ffffffffffffffffffffffffffffffffffffffff1673ffffffffffffffffffffffffffffffffffffffff1614806109ba57503373ffffffffffffffffffffffffffffffffffffffff166109a26104e3565b73ffffffffffffffffffffffffffffffffffffffff16145b6109f9576040517f08c379a00000000000000000000000000000000000000000000000000000000081526004016109f090612b49565b60405180910390fd5b600073ffffffffffffffffffffffffffffffffffffffff168273ffffffffffffffffffffffffffffffffffffffff161415610a69576040517f08c379a0000000000000000000000000000000000000000000000000000000008152600401610a6090612fe3565b60405180910390fd5b81600584604051610a7a9190612ad5565b908152602001604051809103902060000160006101000a81548173ffffffffffffffffffffffffffffffffffffffff021916908373ffffffffffffffffffffffffffffffffffffffff1602179055507f964c219cd9f665a0c2f549b1bf821b619eb681810a760d27d462539d84d466de8383604051610afa929190613003565b60405180910390a1505050565b6005818051602081018201805184825260208301602085012081835280955050505050506000915090508060000160009054906101000a900473ffffffffffffffffffffffffffffffffffffffff16908060010154908060020154908060030154908060040154905085565b610b7b611bb3565b806002819055507f2644fd26359c107ff7991b6dfc36ce902b334ce4e3891bbecacc5922aa620efa81604051610bb191906123b8565b60405180910390a150565b6000829050600081511415610c06576040517f08c379a0000000000000000000000000000000000000000000000000000000008152600401610bfd90612d7e565b60405180910390fd5b6000339050600073ffffffffffffffffffffffffffffffffffffffff16600585604051610c339190612ad5565b908152602001604051809103902060000160009054906101000a900473ffffffffffffffffffffffffffffffffffffffff1673ffffffffffffffffffffffffffffffffffffffff161415610cbc576040517f08c379a0000000000000000000000000000000000000000000000000000000008152600401610cb390612e56565b60405180910390fd5b60008311610cff576040517f08c379a0000000000000000000000000000000000000000000000000000000008152600401610cf690612dea565b60405180910390fd5b6000600485604051610d119190612ad5565b908152602001604051809103902060008373ffffffffffffffffffffffffffffffffffffffff1673ffffffffffffffffffffffffffffffffffffffff168152602001908152602001600020600001541415610da1576040517f08c379a0000000000000000000000000000000000000000000000000000000008152600401610d989061307f565b60405180910390fd5b600484604051610db19190612ad5565b908152602001604051809103902060008273ffffffffffffffffffffffffffffffffffffffff1673ffffffffffffffffffffffffffffffffffffffff1681526020019081526020016000206000015483111580610e0e5750600083145b610e4d576040517f08c379a0000000000000000000000000000000000000000000000000000000008152600401610e44906130eb565b60405180910390fd5b6000610e57611ea2565b9050610e64828287611eaa565b83600486604051610e759190612ad5565b908152602001604051809103902060008473ffffffffffffffffffffffffffffffffffffffff1673ffffffffffffffffffffffffffffffffffffffff16815260200190815260200160002060000154610ece919061310b565b600486604051610ede9190612ad5565b908152602001604051809103902060008473ffffffffffffffffffffffffffffffffffffffff1673ffffffffffffffffffffffffffffffffffffffff1681526020019081526020016000206000018190555080600486604051610f419190612ad5565b908152602001604051809103902060008473ffffffffffffffffffffffffffffffffffffffff1673ffffffffffffffffffffffffffffffffffffffff16815260200190815260200160002060010181905550600160009054906101000a900473ffffffffffffffffffffffffffffffffffffffff1673ffffffffffffffffffffffffffffffffffffffff1663a9059cbb83866040518363ffffffff1660e01b8152600401610ff092919061313f565b602060405180830381600087803b15801561100a57600080fd5b505af115801561101e573d6000803e3d6000fd5b505050506040513d601f19601f820116820180604052508101906110429190612ee5565b61104b57600080fd5b7f8fbf0edce1bd66cf87d7a725f95fc2ec31be980e61d805b8d306ce5a64ea98dd828287876040516110809493929190613168565b60405180910390a15050505050565b600082829050116110d5576040517f08c379a00000000000000000000000000000000000000000000000000000000081526004016110cc90613200565b60405180910390fd5b60006110df611ea2565b905060005b8383905081101561181957600084848381811061110457611103613220565b5b9050602002810190611116919061325e565b60000160208101906111289190612a01565b9050600085858481811061113f5761113e613220565b5b9050602002810190611151919061325e565b80602001906111609190613286565b8080601f016020809104026020016040519081016040528093929190818152602001838380828437600081840152601f19601f8201169050808301925050505050505090503373ffffffffffffffffffffffffffffffffffffffff166005826040516111cc9190612ad5565b908152602001604051809103902060000160009054906101000a900473ffffffffffffffffffffffffffffffffffffffff1673ffffffffffffffffffffffffffffffffffffffff16148061125257503373ffffffffffffffffffffffffffffffffffffffff1661123a6104e3565b73ffffffffffffffffffffffffffffffffffffffff16145b611291576040517f08c379a000000000000000000000000000000000000000000000000000000000815260040161128890612b49565b60405180910390fd5b60008190506000815114156112a857505050611806565b6112b3838684611eaa565b60006004836040516112c59190612ad5565b908152602001604051809103902060008573ffffffffffffffffffffffffffffffffffffffff1673ffffffffffffffffffffffffffffffffffffffff16815260200190815260200160002060020154905060006004846040516113289190612ad5565b908152602001604051809103902060008673ffffffffffffffffffffffffffffffffffffffff1673ffffffffffffffffffffffffffffffffffffffff168152602001908152602001600020600301549050600080600060025411156113dc5760646002548561139791906132e9565b6113a19190613372565b915081846113af919061310b565b93506064600254846113c191906132e9565b6113cb9190613372565b905080836113d9919061310b565b92505b60006004876040516113ee9190612ad5565b908152602001604051809103902060008973ffffffffffffffffffffffffffffffffffffffff1673ffffffffffffffffffffffffffffffffffffffff1681526020019081526020016000206002018190555060006004876040516114529190612ad5565b908152602001604051809103902060008973ffffffffffffffffffffffffffffffffffffffff1673ffffffffffffffffffffffffffffffffffffffff16815260200190815260200160002060030181905550886004876040516114b59190612ad5565b908152602001604051809103902060008973ffffffffffffffffffffffffffffffffffffffff1673ffffffffffffffffffffffffffffffffffffffff1681526020019081526020016000206001018190555060008411156115c957600160009054906101000a900473ffffffffffffffffffffffffffffffffffffffff1673ffffffffffffffffffffffffffffffffffffffff1663a9059cbb88866040518363ffffffff1660e01b815260040161156d92919061313f565b602060405180830381600087803b15801561158757600080fd5b505af115801561159b573d6000803e3d6000fd5b505050506040513d601f19601f820116820180604052508101906115bf9190612ee5565b6115c857600080fd5b5b60008311156116cc57600160009054906101000a900473ffffffffffffffffffffffffffffffffffffffff1673ffffffffffffffffffffffffffffffffffffffff1663a9059cbb6005886040516116209190612ad5565b908152602001604051809103902060000160009054906101000a900473ffffffffffffffffffffffffffffffffffffffff16856040518363ffffffff1660e01b815260040161167092919061313f565b602060405180830381600087803b15801561168a57600080fd5b505af115801561169e573d6000803e3d6000fd5b505050506040513d601f19601f820116820180604052508101906116c29190612ee5565b6116cb57600080fd5b5b60008211156117bb57600160009054906101000a900473ffffffffffffffffffffffffffffffffffffffff1673ffffffffffffffffffffffffffffffffffffffff1663a9059cbb600360009054906101000a900473ffffffffffffffffffffffffffffffffffffffff1683856117429190612c70565b6040518363ffffffff1660e01b815260040161175f9291906133c4565b602060405180830381600087803b15801561177957600080fd5b505af115801561178d573d6000803e3d6000fd5b505050506040513d601f19601f820116820180604052508101906117b19190612ee5565b6117ba57600080fd5b5b7f418b81ea3758cb2400252cd70fcd9f242eea6821793acf34a65140130535ea5087878b878787876040516117f697969594939291906133ed565b60405180910390a1505050505050505b808061181190613463565b9150506110e4565b50505050565b600482805160208101820180518482526020830160208501208183528095505050505050602052806000526040600020600091509150508060000154908060010154908060020154908060030154905084565b600073ffffffffffffffffffffffffffffffffffffffff1660058460405161189a9190612ad5565b908152602001604051809103902060000160009054906101000a900473ffffffffffffffffffffffffffffffffffffffff1673ffffffffffffffffffffffffffffffffffffffff1614611922576040517f08c379a0000000000000000000000000000000000000000000000000000000008152600401611919906134f8565b60405180910390fd5b60038210158015611934575060088211155b611973576040517f08c379a000000000000000000000000000000000000000000000000000000000815260040161196a90612bb5565b60405180910390fd5b60058111156119b7576040517f08c379a00000000000000000000000000000000000000000000000000000000081526004016119ae90612c21565b60405180910390fd5b600882826119c59190612c70565b1115611a06576040517f08c379a00000000000000000000000000000000000000000000000000000000081526004016119fd9061358a565b60405180910390fd5b611a118383836122a5565b505050565b600360009054906101000a900473ffffffffffffffffffffffffffffffffffffffff1681565b611a44611bb3565b600073ffffffffffffffffffffffffffffffffffffffff168173ffffffffffffffffffffffffffffffffffffffff161415611ab4576040517f08c379a0000000000000000000000000000000000000000000000000000000008152600401611aab9061361c565b60405180910390fd5b611abd81611c31565b50565b611ac8611bb3565b600073ffffffffffffffffffffffffffffffffffffffff168173ffffffffffffffffffffffffffffffffffffffff161415611b38576040517f08c379a0000000000000000000000000000000000000000000000000000000008152600401611b2f90612fe3565b60405180910390fd5b80600360006101000a81548173ffffffffffffffffffffffffffffffffffffffff021916908373ffffffffffffffffffffffffffffffffffffffff1602179055507fe57e7c1f36cc83fade34e32351e6eee7eb9da532662b1b5da10c631e8222aca781604051611ba891906129e6565b60405180910390a150565b611bbb612397565b73ffffffffffffffffffffffffffffffffffffffff16611bd96104e3565b73ffffffffffffffffffffffffffffffffffffffff1614611c2f576040517f08c379a0000000000000000000000000000000000000000000000000000000008152600401611c2690613688565b60405180910390fd5b565b60008060009054906101000a900473ffffffffffffffffffffffffffffffffffffffff169050816000806101000a81548173ffffffffffffffffffffffffffffffffffffffff021916908373ffffffffffffffffffffffffffffffffffffffff1602179055508173ffffffffffffffffffffffffffffffffffffffff168173ffffffffffffffffffffffffffffffffffffffff167f8be0079c531659141344cd1fd0a4f28419497f9722a3daafe3b4186f6b6457e060405160405180910390a35050565b6000839050600081511415611d3f576040517f08c379a0000000000000000000000000000000000000000000000000000000008152600401611d3690612d7e565b60405180910390fd5b82600585604051611d509190612ad5565b90815260200160405180910390206002018190555081600585604051611d769190612ad5565b90815260200160405180910390206001018190555063bbf81e0083670de0b6b3a7640000611da491906132e9565b611dae9190613372565b600585604051611dbe9190612ad5565b90815260200160405180910390206003018190555063bbf81e0082670de0b6b3a7640000611dec91906132e9565b611df69190613372565b600585604051611e069190612ad5565b9081526020016040518091039020600401819055507fd3ebb844cb39e2f72d8f563ae711245b5f0b1c1a4cc5e596b79089db0ae830de848484600588604051611e4f9190612ad5565b908152602001604051809103902060030154600589604051611e719190612ad5565b908152602001604051809103902060040154604051611e949594939291906136a8565b60405180910390a150505050565b600042905090565b6000819050600081511415611ef4576040517f08c379a0000000000000000000000000000000000000000000000000000000008152600401611eeb90612d7e565b60405180910390fd5b6000600483604051611f069190612ad5565b908152602001604051809103902060008673ffffffffffffffffffffffffffffffffffffffff1673ffffffffffffffffffffffffffffffffffffffff1681526020019081526020016000206001015484611f60919061310b565b9050600064017a029afc9050600080600586604051611f7f9190612ad5565b90815260200160405180910390206003015410611fbb57600585604051611fa69190612ad5565b90815260200160405180910390206003015491505b6000600586604051611fcd9190612ad5565b9081526020016040518091039020600401541061200957600585604051611ff49190612ad5565b90815260200160405180910390206004015490505b670de0b6b3a76400006004866040516120229190612ad5565b908152602001604051809103902060008973ffffffffffffffffffffffffffffffffffffffff1673ffffffffffffffffffffffffffffffffffffffff16815260200190815260200160002060000154848461207d91906132e9565b61208791906132e9565b6120919190613372565b6004866040516120a19190612ad5565b908152602001604051809103902060008973ffffffffffffffffffffffffffffffffffffffff1673ffffffffffffffffffffffffffffffffffffffff16815260200190815260200160002060020160008282546120fe9190612c70565b92505081905550670de0b6b3a764000060048660405161211e9190612ad5565b908152602001604051809103902060008973ffffffffffffffffffffffffffffffffffffffff1673ffffffffffffffffffffffffffffffffffffffff16815260200190815260200160002060000154848361217991906132e9565b61218391906132e9565b61218d9190613372565b60048660405161219d9190612ad5565b908152602001604051809103902060008973ffffffffffffffffffffffffffffffffffffffff1673ffffffffffffffffffffffffffffffffffffffff16815260200190815260200160002060030160008282546121fa9190612c70565b925050819055507f104ad64895f6ea3e87bdc469d3d354717a78531cd0a8d33e0b835bf067b7a6408787876004896040516122359190612ad5565b908152602001604051809103902060008c73ffffffffffffffffffffffffffffffffffffffff1673ffffffffffffffffffffffffffffffffffffffff168152602001908152602001600020600201546040516122949493929190613168565b60405180910390a150505050505050565b60008390506000815114156122ef576040517f08c379a00000000000000000000000000000000000000000000000000000000081526004016122e690612d7e565b60405180910390fd5b336005856040516123009190612ad5565b908152602001604051809103902060000160006101000a81548173ffffffffffffffffffffffffffffffffffffffff021916908373ffffffffffffffffffffffffffffffffffffffff16021790555061235a848484611cf5565b7f91911924d66747ff20690c8eadf917d5af4379cb477324c2e878dbd00e779558846040516123899190613702565b60405180910390a150505050565b600033905090565b6000819050919050565b6123b28161239f565b82525050565b60006020820190506123cd60008301846123a9565b92915050565b6000604051905090565b600080fd5b600080fd5b600080fd5b600080fd5b6000601f19601f8301169050919050565b7f4e487b7100000000000000000000000000000000000000000000000000000000600052604160045260246000fd5b61243a826123f1565b810181811067ffffffffffffffff8211171561245957612458612402565b5b80604052505050565b600061246c6123d3565b90506124788282612431565b919050565b600067ffffffffffffffff82111561249857612497612402565b5b6124a1826123f1565b9050602081019050919050565b82818337600083830152505050565b60006124d06124cb8461247d565b612462565b9050828152602081018484840111156124ec576124eb6123ec565b5b6124f78482856124ae565b509392505050565b600082601f830112612514576125136123e7565b5b81356125248482602086016124bd565b91505092915050565b6125368161239f565b811461254157600080fd5b50565b6000813590506125538161252d565b92915050565b600080600060608486031215612572576125716123dd565b5b600084013567ffffffffffffffff8111156125905761258f6123e2565b5b61259c868287016124ff565b93505060206125ad86828701612544565b92505060406125be86828701612544565b9150509250925092565b600073ffffffffffffffffffffffffffffffffffffffff82169050919050565b60006125f3826125c8565b9050919050565b612603816125e8565b82525050565b600060208201905061261e60008301846125fa565b92915050565b6000819050919050565b600061264961264461263f846125c8565b612624565b6125c8565b9050919050565b600061265b8261262e565b9050919050565b600061266d82612650565b9050919050565b61267d81612662565b82525050565b60006020820190506126986000830184612674565b92915050565b600080604083850312156126b5576126b46123dd565b5b600083013567ffffffffffffffff8111156126d3576126d26123e2565b5b6126df858286016124ff565b92505060206126f085828601612544565b9150509250929050565b6000612705826125c8565b9050919050565b612715816126fa565b811461272057600080fd5b50565b6000813590506127328161270c565b92915050565b6000806040838503121561274f5761274e6123dd565b5b600083013567ffffffffffffffff81111561276d5761276c6123e2565b5b612779858286016124ff565b925050602061278a85828601612723565b9150509250929050565b6000602082840312156127aa576127a96123dd565b5b600082013567ffffffffffffffff8111156127c8576127c76123e2565b5b6127d4848285016124ff565b91505092915050565b600060a0820190506127f260008301886125fa565b6127ff60208301876123a9565b61280c60408301866123a9565b61281960608301856123a9565b61282660808301846123a9565b9695505050505050565b600060208284031215612846576128456123dd565b5b600061285484828501612544565b91505092915050565b600080fd5b600080fd5b60008083601f84011261287d5761287c6123e7565b5b8235905067ffffffffffffffff81111561289a5761289961285d565b5b6020830191508360208202830111156128b6576128b5612862565b5b9250929050565b600080602083850312156128d4576128d36123dd565b5b600083013567ffffffffffffffff8111156128f2576128f16123e2565b5b6128fe85828601612867565b92509250509250929050565b612913816125e8565b811461291e57600080fd5b50565b6000813590506129308161290a565b92915050565b6000806040838503121561294d5761294c6123dd565b5b600083013567ffffffffffffffff81111561296b5761296a6123e2565b5b612977858286016124ff565b925050602061298885828601612921565b9150509250929050565b60006080820190506129a760008301876123a9565b6129b460208301866123a9565b6129c160408301856123a9565b6129ce60608301846123a9565b95945050505050565b6129e0816126fa565b82525050565b60006020820190506129fb60008301846129d7565b92915050565b600060208284031215612a1757612a166123dd565b5b6000612a2584828501612921565b91505092915050565b600060208284031215612a4457612a436123dd565b5b6000612a5284828501612723565b91505092915050565b600081519050919050565b600081905092915050565b60005b83811015612a8f578082015181840152602081019050612a74565b83811115612a9e576000848401525b50505050565b6000612aaf82612a5b565b612ab98185612a66565b9350612ac9818560208601612a71565b80840191505092915050565b6000612ae18284612aa4565b915081905092915050565b600082825260208201905092915050565b7f6e6f7420706f6f6c206f776e6572206f722061646d696e000000000000000000600082015250565b6000612b33601783612aec565b9150612b3e82612afd565b602082019050919050565b60006020820190508181036000830152612b6281612b26565b9050919050565b7f696e76616c69642072657475726e2076616c7565000000000000000000000000600082015250565b6000612b9f601483612aec565b9150612baa82612b69565b602082019050919050565b60006020820190508181036000830152612bce81612b92565b9050919050565b7f696e76616c69642072657475726e20746f206f776e65722076616c7565000000600082015250565b6000612c0b601d83612aec565b9150612c1682612bd5565b602082019050919050565b60006020820190508181036000830152612c3a81612bfe565b9050919050565b7f4e487b7100000000000000000000000000000000000000000000000000000000600052601160045260246000fd5b6000612c7b8261239f565b9150612c868361239f565b9250827fffffffffffffffffffffffffffffffffffffffffffffffffffffffffffffffff03821115612cbb57612cba612c41565b5b828201905092915050565b7f746f74616c2072657475726e206d75737420626520657175616c203800000000600082015250565b6000612cfc601c83612aec565b9150612d0782612cc6565b602082019050919050565b60006020820190508181036000830152612d2b81612cef565b9050919050565b7f696e76616c696420706f6f6c2069640000000000000000000000000000000000600082015250565b6000612d68600f83612aec565b9150612d7382612d32565b602082019050919050565b60006020820190508181036000830152612d9781612d5b565b9050919050565b7f616d6f756e74206d757374206265206c6172676572207468616e207a65726f00600082015250565b6000612dd4601f83612aec565b9150612ddf82612d9e565b602082019050919050565b60006020820190508181036000830152612e0381612dc7565b9050919050565b7f6e6f7420616e2061637469766520706f6f6c0000000000000000000000000000600082015250565b6000612e40601283612aec565b9150612e4b82612e0a565b602082019050919050565b60006020820190508181036000830152612e6f81612e33565b9050919050565b6000606082019050612e8b60008301866125fa565b612e9860208301856125fa565b612ea560408301846123a9565b949350505050565b60008115159050919050565b612ec281612ead565b8114612ecd57600080fd5b50565b600081519050612edf81612eb9565b92915050565b600060208284031215612efb57612efa6123dd565b5b6000612f0984828501612ed0565b91505092915050565b6000612f1d82612a5b565b612f278185612aec565b9350612f37818560208601612a71565b612f40816123f1565b840191505092915050565b6000608082019050612f6060008301876125fa565b612f6d60208301866123a9565b612f7a60408301856123a9565b8181036060830152612f8c8184612f12565b905095945050505050565b7f3231000000000000000000000000000000000000000000000000000000000000600082015250565b6000612fcd600283612aec565b9150612fd882612f97565b602082019050919050565b60006020820190508181036000830152612ffc81612fc0565b9050919050565b6000604082019050818103600083015261301d8185612f12565b905061302c60208301846129d7565b9392505050565b7f3100000000000000000000000000000000000000000000000000000000000000600082015250565b6000613069600183612aec565b915061307482613033565b602082019050919050565b600060208201905081810360008301526130988161305c565b9050919050565b7f3138000000000000000000000000000000000000000000000000000000000000600082015250565b60006130d5600283612aec565b91506130e08261309f565b602082019050919050565b60006020820190508181036000830152613104816130c8565b9050919050565b60006131168261239f565b91506131218361239f565b92508282101561313457613133612c41565b5b828203905092915050565b600060408201905061315460008301856125fa565b61316160208301846123a9565b9392505050565b600060808201905061317d60008301876125fa565b61318a60208301866123a9565b818103604083015261319c8185612f12565b90506131ab60608301846123a9565b95945050505050565b7f3233000000000000000000000000000000000000000000000000000000000000600082015250565b60006131ea600283612aec565b91506131f5826131b4565b602082019050919050565b60006020820190508181036000830152613219816131dd565b9050919050565b7f4e487b7100000000000000000000000000000000000000000000000000000000600052603260045260246000fd5b600080fd5b600080fd5b600080fd5b60008235600160400383360303811261327a5761327961324f565b5b80830191505092915050565b600080833560016020038436030381126132a3576132a261324f565b5b80840192508235915067ffffffffffffffff8211156132c5576132c4613254565b5b6020830192506001820236038313156132e1576132e0613259565b5b509250929050565b60006132f48261239f565b91506132ff8361239f565b9250817fffffffffffffffffffffffffffffffffffffffffffffffffffffffffffffffff048311821515161561333857613337612c41565b5b828202905092915050565b7f4e487b7100000000000000000000000000000000000000000000000000000000600052601260045260246000fd5b600061337d8261239f565b91506133888361239f565b92508261339857613397613343565b5b828204905092915050565b60006133ae82612650565b9050919050565b6133be816133a3565b82525050565b60006040820190506133d960008301856133b5565b6133e660208301846123a9565b9392505050565b600060e082019050613402600083018a6125fa565b81810360208301526134148189612f12565b905061342360408301886123a9565b61343060608301876123a9565b61343d60808301866123a9565b61344a60a08301856123a9565b61345760c08301846123a9565b98975050505050505050565b600061346e8261239f565b91507fffffffffffffffffffffffffffffffffffffffffffffffffffffffffffffffff8214156134a1576134a0612c41565b5b600182019050919050565b7f706f6f6c20657869737473000000000000000000000000000000000000000000600082015250565b60006134e2600b83612aec565b91506134ed826134ac565b602082019050919050565b60006020820190508181036000830152613511816134d5565b9050919050565b7f746f74616c2072657475726e206d757374206265206c657373207468616e206f60008201527f7220657175616c20380000000000000000000000000000000000000000000000602082015250565b6000613574602983612aec565b915061357f82613518565b604082019050919050565b600060208201905081810360008301526135a381613567565b9050919050565b7f4f776e61626c653a206e6577206f776e657220697320746865207a65726f206160008201527f6464726573730000000000000000000000000000000000000000000000000000602082015250565b6000613606602683612aec565b9150613611826135aa565b604082019050919050565b60006020820190508181036000830152613635816135f9565b9050919050565b7f4f776e61626c653a2063616c6c6572206973206e6f7420746865206f776e6572600082015250565b6000613672602083612aec565b915061367d8261363c565b602082019050919050565b600060208201905081810360008301526136a181613665565b9050919050565b600060a08201905081810360008301526136c28188612f12565b90506136d160208301876123a9565b6136de60408301866123a9565b6136eb60608301856123a9565b6136f860808301846123a9565b9695505050505050565b6000602082019050818103600083015261371c8184612f12565b90509291505056fea2646970667358221220bf08cbd3806788bc39202125dc31f207655093484247646e5338aa2797e4cb8d64736f6c63430008090033",
  "linkReferences": {},
  "deployedLinkReferences": {}
}