{
  "_format": "hh-sol-artifact-1",
  "contractName": "DeciblingStaking",
  "sourceName": "contracts/DeciblingStaking.sol",
  "abi": [
    {
      "inputs": [],
      "stateMutability": "nonpayable",
      "type": "constructor"
    },
    {
      "anonymous": false,
      "inputs": [
        {
          "indexed": false,
          "internalType": "address",
          "name": "previousAdmin",
          "type": "address"
        },
        {
          "indexed": false,
          "internalType": "address",
          "name": "newAdmin",
          "type": "address"
        }
      ],
      "name": "AdminChanged",
      "type": "event"
    },
    {
      "anonymous": false,
      "inputs": [
        {
          "indexed": true,
          "internalType": "address",
          "name": "beacon",
          "type": "address"
        }
      ],
      "name": "BeaconUpgraded",
      "type": "event"
    },
    {
      "anonymous": false,
      "inputs": [
        {
          "indexed": false,
          "internalType": "string",
          "name": "poolId",
          "type": "string"
        },
        {
          "indexed": false,
          "internalType": "address",
          "name": "user",
          "type": "address"
        }
      ],
      "name": "Claim",
      "type": "event"
    },
    {
      "anonymous": false,
      "inputs": [
        {
          "indexed": false,
          "internalType": "uint8",
          "name": "version",
          "type": "uint8"
        }
      ],
      "name": "Initialized",
      "type": "event"
    },
    {
      "anonymous": false,
      "inputs": [
        {
          "indexed": false,
          "internalType": "string",
          "name": "poolId",
          "type": "string"
        }
      ],
      "name": "NewPool",
      "type": "event"
    },
    {
      "anonymous": false,
      "inputs": [
        {
          "indexed": true,
          "internalType": "address",
          "name": "previousOwner",
          "type": "address"
        },
        {
          "indexed": true,
          "internalType": "address",
          "name": "newOwner",
          "type": "address"
        }
      ],
      "name": "OwnershipTransferred",
      "type": "event"
    },
    {
      "anonymous": false,
      "inputs": [
        {
          "indexed": false,
          "internalType": "string",
          "name": "poolId",
          "type": "string"
        },
        {
          "indexed": false,
          "internalType": "address",
          "name": "user",
          "type": "address"
        },
        {
          "indexed": false,
          "internalType": "uint256",
          "name": "profitAmount",
          "type": "uint256"
        }
      ],
      "name": "Reinvest",
      "type": "event"
    },
    {
      "anonymous": false,
      "inputs": [
        {
          "indexed": false,
          "internalType": "string",
          "name": "poolId",
          "type": "string"
        },
        {
          "indexed": false,
          "internalType": "address",
          "name": "user",
          "type": "address"
        },
        {
          "indexed": false,
          "internalType": "uint256",
          "name": "amount",
          "type": "uint256"
        }
      ],
      "name": "Stake",
      "type": "event"
    },
    {
      "anonymous": false,
      "inputs": [
        {
          "indexed": false,
          "internalType": "string",
          "name": "poolId",
          "type": "string"
        },
        {
          "indexed": false,
          "internalType": "address",
          "name": "user",
          "type": "address"
        },
        {
          "indexed": false,
          "internalType": "uint256",
          "name": "amount",
          "type": "uint256"
        }
      ],
      "name": "Unstake",
      "type": "event"
    },
    {
      "anonymous": false,
      "inputs": [
        {
          "indexed": false,
          "internalType": "string",
          "name": "poolId",
          "type": "string"
        },
        {
          "indexed": false,
          "internalType": "uint8",
          "name": "r",
          "type": "uint8"
        },
        {
          "indexed": false,
          "internalType": "uint8",
          "name": "rToOwner",
          "type": "uint8"
        },
        {
          "indexed": false,
          "internalType": "bool",
          "name": "isDefault",
          "type": "bool"
        }
      ],
      "name": "UpdatePool",
      "type": "event"
    },
    {
      "anonymous": false,
      "inputs": [
        {
          "indexed": false,
          "internalType": "string",
          "name": "poolId",
          "type": "string"
        },
        {
          "indexed": false,
          "internalType": "address",
          "name": "owner",
          "type": "address"
        }
      ],
      "name": "UpdatePoolOwner",
      "type": "event"
    },
    {
      "anonymous": false,
      "inputs": [
        {
          "indexed": true,
          "internalType": "address",
          "name": "implementation",
          "type": "address"
        }
      ],
      "name": "Upgraded",
      "type": "event"
    },
    {
      "inputs": [
        {
          "internalType": "uint256",
          "name": "_principal",
          "type": "uint256"
        },
        {
          "internalType": "uint256",
          "name": "_rate",
          "type": "uint256"
        },
        {
          "internalType": "uint256",
          "name": "_age",
          "type": "uint256"
        }
      ],
      "name": "accrueInterest",
      "outputs": [
        {
          "internalType": "uint256",
          "name": "",
          "type": "uint256"
        }
      ],
      "stateMutability": "pure",
      "type": "function"
    },
    {
      "inputs": [
        {
          "internalType": "string",
          "name": "id",
          "type": "string"
        }
      ],
      "name": "claim",
      "outputs": [],
      "stateMutability": "nonpayable",
      "type": "function"
    },
    {
      "inputs": [
        {
          "internalType": "string",
          "name": "id",
          "type": "string"
        },
        {
          "internalType": "address[]",
          "name": "users",
          "type": "address[]"
        }
      ],
      "name": "claimForPoolProfit",
      "outputs": [],
      "stateMutability": "nonpayable",
      "type": "function"
    },
    {
      "inputs": [
        {
          "internalType": "address",
          "name": "froyAddr",
          "type": "address"
        }
      ],
      "name": "initialize",
      "outputs": [],
      "stateMutability": "nonpayable",
      "type": "function"
    },
    {
      "inputs": [],
      "name": "merkleRoot",
      "outputs": [
        {
          "internalType": "bytes32",
          "name": "",
          "type": "bytes32"
        }
      ],
      "stateMutability": "view",
      "type": "function"
    },
    {
      "inputs": [
        {
          "internalType": "bytes32[]",
          "name": "proof",
          "type": "bytes32[]"
        },
        {
          "internalType": "string",
          "name": "id",
          "type": "string"
        }
      ],
      "name": "newPool",
      "outputs": [],
      "stateMutability": "nonpayable",
      "type": "function"
    },
    {
      "inputs": [],
      "name": "owner",
      "outputs": [
        {
          "internalType": "address",
          "name": "",
          "type": "address"
        }
      ],
      "stateMutability": "view",
      "type": "function"
    },
    {
      "inputs": [
        {
          "internalType": "string",
          "name": "_pid",
          "type": "string"
        },
        {
          "internalType": "address",
          "name": "user",
          "type": "address"
        },
        {
          "internalType": "bool",
          "name": "forPoolOwner",
          "type": "bool"
        }
      ],
      "name": "payout",
      "outputs": [
        {
          "internalType": "uint256",
          "name": "value",
          "type": "uint256"
        }
      ],
      "stateMutability": "view",
      "type": "function"
    },
    {
      "inputs": [
        {
          "internalType": "string",
          "name": "",
          "type": "string"
        }
      ],
      "name": "pools",
      "outputs": [
        {
          "internalType": "address",
          "name": "owner",
          "type": "address"
        },
        {
          "internalType": "uint256",
          "name": "hardCap",
          "type": "uint256"
        },
        {
          "internalType": "uint256",
          "name": "totalDeposit",
          "type": "uint256"
        },
        {
          "internalType": "uint8",
          "name": "rToOwner",
          "type": "uint8"
        },
        {
          "internalType": "uint8",
          "name": "r",
          "type": "uint8"
        },
        {
          "internalType": "bool",
          "name": "isDefault",
          "type": "bool"
        }
      ],
      "stateMutability": "view",
      "type": "function"
    },
    {
      "inputs": [],
      "name": "proxiableUUID",
      "outputs": [
        {
          "internalType": "bytes32",
          "name": "",
          "type": "bytes32"
        }
      ],
      "stateMutability": "view",
      "type": "function"
    },
    {
      "inputs": [
        {
          "internalType": "string",
          "name": "id",
          "type": "string"
        }
      ],
      "name": "reinvest",
      "outputs": [
        {
          "internalType": "bool",
          "name": "",
          "type": "bool"
        }
      ],
      "stateMutability": "nonpayable",
      "type": "function"
    },
    {
      "inputs": [],
      "name": "renounceOwnership",
      "outputs": [],
      "stateMutability": "nonpayable",
      "type": "function"
    },
    {
      "inputs": [],
      "name": "setDefaultPool",
      "outputs": [],
      "stateMutability": "nonpayable",
      "type": "function"
    },
    {
      "inputs": [
        {
          "internalType": "bytes32",
          "name": "newMerkleRoot",
          "type": "bytes32"
        }
      ],
      "name": "setMerkleRoot",
      "outputs": [],
      "stateMutability": "nonpayable",
      "type": "function"
    },
    {
      "inputs": [
        {
          "internalType": "string",
          "name": "id",
          "type": "string"
        },
        {
          "internalType": "uint256",
          "name": "cap",
          "type": "uint256"
        }
      ],
      "name": "setPoolHardCap",
      "outputs": [],
      "stateMutability": "nonpayable",
      "type": "function"
    },
    {
      "inputs": [
        {
          "internalType": "address",
          "name": "addr",
          "type": "address"
        }
      ],
      "name": "setReserveContract",
      "outputs": [],
      "stateMutability": "nonpayable",
      "type": "function"
    },
    {
      "inputs": [
        {
          "internalType": "string",
          "name": "id",
          "type": "string"
        },
        {
          "internalType": "uint256",
          "name": "amount",
          "type": "uint256"
        }
      ],
      "name": "stake",
      "outputs": [],
      "stateMutability": "nonpayable",
      "type": "function"
    },
    {
      "inputs": [
        {
          "internalType": "string",
          "name": "",
          "type": "string"
        },
        {
          "internalType": "address",
          "name": "",
          "type": "address"
        }
      ],
      "name": "stakers",
      "outputs": [
        {
          "internalType": "uint256",
          "name": "totalDeposit",
          "type": "uint256"
        },
        {
          "internalType": "uint256",
          "name": "depositTime",
          "type": "uint256"
        },
        {
          "internalType": "uint256",
          "name": "lastPayout",
          "type": "uint256"
        },
        {
          "internalType": "uint256",
          "name": "lastPayoutToPoolOwner",
          "type": "uint256"
        }
      ],
      "stateMutability": "view",
      "type": "function"
    },
    {
      "inputs": [],
      "name": "token",
      "outputs": [
        {
          "internalType": "contract IERC20",
          "name": "",
          "type": "address"
        }
      ],
      "stateMutability": "view",
      "type": "function"
    },
    {
      "inputs": [
        {
          "internalType": "address",
          "name": "newOwner",
          "type": "address"
        }
      ],
      "name": "transferOwnership",
      "outputs": [],
      "stateMutability": "nonpayable",
      "type": "function"
    },
    {
      "inputs": [
        {
          "internalType": "uint256",
          "name": "_amount",
          "type": "uint256"
        }
      ],
      "name": "transferToken",
      "outputs": [],
      "stateMutability": "nonpayable",
      "type": "function"
    },
    {
      "inputs": [],
      "name": "treasury",
      "outputs": [
        {
          "internalType": "contract DeciblingReserve",
          "name": "",
          "type": "address"
        }
      ],
      "stateMutability": "view",
      "type": "function"
    },
    {
      "inputs": [
        {
          "internalType": "string",
          "name": "id",
          "type": "string"
        },
        {
          "internalType": "uint256",
          "name": "amount",
          "type": "uint256"
        }
      ],
      "name": "unstake",
      "outputs": [],
      "stateMutability": "nonpayable",
      "type": "function"
    },
    {
      "inputs": [
        {
          "internalType": "bytes32[]",
          "name": "proof",
          "type": "bytes32[]"
        },
        {
          "internalType": "string",
          "name": "id",
          "type": "string"
        },
        {
          "internalType": "uint8",
          "name": "_r",
          "type": "uint8"
        },
        {
          "internalType": "uint8",
          "name": "_rToOwner",
          "type": "uint8"
        }
      ],
      "name": "updatePool",
      "outputs": [],
      "stateMutability": "nonpayable",
      "type": "function"
    },
    {
      "inputs": [
        {
          "internalType": "bytes32[]",
          "name": "proof",
          "type": "bytes32[]"
        },
        {
          "internalType": "string",
          "name": "id",
          "type": "string"
        },
        {
          "internalType": "address",
          "name": "poolOwner",
          "type": "address"
        }
      ],
      "name": "updatePoolOwner",
      "outputs": [],
      "stateMutability": "nonpayable",
      "type": "function"
    },
    {
      "inputs": [
        {
          "internalType": "address",
          "name": "newImplementation",
          "type": "address"
        }
      ],
      "name": "upgradeTo",
      "outputs": [],
      "stateMutability": "nonpayable",
      "type": "function"
    },
    {
      "inputs": [
        {
          "internalType": "address",
          "name": "newImplementation",
          "type": "address"
        },
        {
          "internalType": "bytes",
          "name": "data",
          "type": "bytes"
        }
      ],
      "name": "upgradeToAndCall",
      "outputs": [],
      "stateMutability": "payable",
      "type": "function"
    },
    {
      "inputs": [
        {
          "internalType": "uint256",
          "name": "_rateWad",
          "type": "uint256"
        }
      ],
      "name": "yearlyRateToRay",
      "outputs": [
        {
          "internalType": "uint256",
          "name": "",
          "type": "uint256"
        }
      ],
      "stateMutability": "pure",
      "type": "function"
    }
  ],
  "bytecode": "0x60a06040523073ffffffffffffffffffffffffffffffffffffffff1660809073ffffffffffffffffffffffffffffffffffffffff168152503480156200004457600080fd5b50620000556200005b60201b60201c565b62000206565b600060019054906101000a900460ff1615620000ae576040517f08c379a0000000000000000000000000000000000000000000000000000000008152600401620000a590620001a9565b60405180910390fd5b60ff801660008054906101000a900460ff1660ff161015620001205760ff6000806101000a81548160ff021916908360ff1602179055507f7f26b83ff96e1f2b6a682f133852f6798a09c465da95921460cefb384740249860ff604051620001179190620001e9565b60405180910390a15b565b600082825260208201905092915050565b7f496e697469616c697a61626c653a20636f6e747261637420697320696e69746960008201527f616c697a696e6700000000000000000000000000000000000000000000000000602082015250565b60006200019160278362000122565b91506200019e8262000133565b604082019050919050565b60006020820190508181036000830152620001c48162000182565b9050919050565b600060ff82169050919050565b620001e381620001cb565b82525050565b6000602082019050620002006000830184620001d8565b92915050565b608051615f0d6200023e60003960008181610736015281816107c501528181610ee501528181610f7401526110e20152615f0d6000f3fe6080604052600436106101b75760003560e01c80637cb64759116100ec578063d37c92dc1161008a578063f2fde38b11610064578063f2fde38b146105eb578063f3fe12c914610614578063f49ab1f71461063d578063fc0c546a14610666576101b7565b8063d37c92dc1461055c578063d43ed9f114610585578063de251fb6146105ae576101b7565b80639494c8ae116100c65780639494c8ae1461049f5780639d6f17a8146104c85780639fc71b311461050a578063c4d66de814610533576101b7565b80637cb647591461040e5780638885b730146104375780638da5cb5b14610474576101b7565b80634f1ef286116101595780635526459611610133578063552645961461036657806358b52d821461038f57806361d027b3146103cc578063715018a6146103f7576101b7565b80634f1ef286146102f6578063527a52c81461031257806352d1902d1461033b576101b7565b80633659cfe6116101955780633659cfe61461023b5780633b443e7d146102645780634264d15a1461028d57806343551cd1146102cd576101b7565b8063060614cb146101bc5780631d7e98d4146101f95780632eb4a7ab14610210575b600080fd5b3480156101c857600080fd5b506101e360048036038101906101de9190613ad4565b610691565b6040516101f09190613b10565b60405180910390f35b34801561020557600080fd5b5061020e6106d1565b005b34801561021c57600080fd5b5061022561072e565b6040516102329190613b44565b60405180910390f35b34801561024757600080fd5b50610262600480360381019061025d9190613bbd565b610734565b005b34801561027057600080fd5b5061028b60048036038101906102869190613d90565b6108bd565b005b34801561029957600080fd5b506102b460048036038101906102af9190613e20565b610bfe565b6040516102c49493929190613e7c565b60405180910390f35b3480156102d957600080fd5b506102f460048036038101906102ef9190613f17565b610c51565b005b610310600480360381019061030b9190614034565b610ee3565b005b34801561031e57600080fd5b5061033960048036038101906103349190613bbd565b611020565b005b34801561034757600080fd5b506103506110de565b60405161035d9190613b44565b60405180910390f35b34801561037257600080fd5b5061038d600480360381019061038891906140c9565b611197565b005b34801561039b57600080fd5b506103b660048036038101906103b1919061416d565b611569565b6040516103c391906141d1565b60405180910390f35b3480156103d857600080fd5b506103e16115d5565b6040516103ee919061424b565b60405180910390f35b34801561040357600080fd5b5061040c6115fb565b005b34801561041a57600080fd5b5061043560048036038101906104309190614292565b61160f565b005b34801561044357600080fd5b5061045e600480360381019061045991906142eb565b611621565b60405161046b9190613b10565b60405180910390f35b34801561048057600080fd5b50610489611802565b6040516104969190614369565b60405180910390f35b3480156104ab57600080fd5b506104c660048036038101906104c19190614384565b61182c565b005b3480156104d457600080fd5b506104ef60048036038101906104ea919061416d565b611bfa565b604051610501969594939291906143ef565b60405180910390f35b34801561051657600080fd5b50610531600480360381019061052c9190613ad4565b611c93565b005b34801561053f57600080fd5b5061055a60048036038101906105559190613bbd565b611d55565b005b34801561056857600080fd5b50610583600480360381019061057e9190614384565b611ee5565b005b34801561059157600080fd5b506105ac60048036038101906105a79190614450565b612350565b005b3480156105ba57600080fd5b506105d560048036038101906105d091906144cc565b61252c565b6040516105e29190613b10565b60405180910390f35b3480156105f757600080fd5b50610612600480360381019061060d9190613bbd565b61254a565b005b34801561062057600080fd5b5061063b6004803603810190610636919061416d565b6125ce565b005b34801561064957600080fd5b50610664600480360381019061065f9190614384565b61285a565b005b34801561067257600080fd5b5061067b6129d1565b6040516106889190614540565b60405180910390f35b60006106ca6106a7670de0b6b3a76400006129f7565b6106c56106b3856129f7565b6106c06301e13380612a0e565b612a2d565b612a6d565b9050919050565b6106d9612ac6565b60006040518060400160405280600e81526020017f64656369626c696e675f706f6f6c000000000000000000000000000000000000815250905061071c81612b44565b61072b81600260006001612bde565b50565b60fd5481565b7f000000000000000000000000000000000000000000000000000000000000000073ffffffffffffffffffffffffffffffffffffffff163073ffffffffffffffffffffffffffffffffffffffff1614156107c3576040517f08c379a00000000000000000000000000000000000000000000000000000000081526004016107ba906145de565b60405180910390fd5b7f000000000000000000000000000000000000000000000000000000000000000073ffffffffffffffffffffffffffffffffffffffff16610802612cff565b73ffffffffffffffffffffffffffffffffffffffff1614610858576040517f08c379a000000000000000000000000000000000000000000000000000000000815260040161084f90614670565b60405180910390fd5b61086181612d56565b6108ba81600067ffffffffffffffff8111156108805761087f613c65565b5b6040519080825280601f01601f1916602001820160405280156108b25781602001600182028036833780820191505090505b506000612d61565b50565b816000819050600081511415610908576040517f08c379a00000000000000000000000000000000000000000000000000000000081526004016108ff90614702565b60405180910390fd5b833373ffffffffffffffffffffffffffffffffffffffff1660ff82604051610930919061479c565b908152602001604051809103902060000160009054906101000a900473ffffffffffffffffffffffffffffffffffffffff1673ffffffffffffffffffffffffffffffffffffffff1614806109b657503373ffffffffffffffffffffffffffffffffffffffff1661099e611802565b73ffffffffffffffffffffffffffffffffffffffff16145b6109f5576040517f08c379a00000000000000000000000000000000000000000000000000000000081526004016109ec90614825565b60405180910390fd5b84600073ffffffffffffffffffffffffffffffffffffffff1660ff82604051610a1e919061479c565b908152602001604051809103902060000160009054906101000a900473ffffffffffffffffffffffffffffffffffffffff1673ffffffffffffffffffffffffffffffffffffffff161415610aa7576040517f08c379a0000000000000000000000000000000000000000000000000000000008152600401610a9e906148b7565b60405180910390fd5b87876000801b60fd5414610b76576000610abf612ede565b604051602001610acf919061491f565b604051602081830303815290604052805190602001209050610b35838380806020026020016040519081016040528093929190818152602001838360200280828437600081840152601f19601f8201169050808301925050505050505060fd5483612ee6565b610b74576040517f08c379a0000000000000000000000000000000000000000000000000000000008152600401610b6b90614986565b60405180910390fd5b505b86600073ffffffffffffffffffffffffffffffffffffffff168173ffffffffffffffffffffffffffffffffffffffff161415610be7576040517f08c379a0000000000000000000000000000000000000000000000000000000008152600401610bde90614a18565b60405180910390fd5b610bf18989612efd565b5050505050505050505050565b60fe82805160208101820180518482526020830160208501208183528095505050505050602052806000526040600020600091509150508060000154908060010154908060020154908060030154905084565b826000819050600081511415610c9c576040517f08c379a0000000000000000000000000000000000000000000000000000000008152600401610c9390614702565b60405180910390fd5b84600073ffffffffffffffffffffffffffffffffffffffff1660ff82604051610cc5919061479c565b908152602001604051809103902060000160009054906101000a900473ffffffffffffffffffffffffffffffffffffffff1673ffffffffffffffffffffffffffffffffffffffff161415610d4e576040517f08c379a0000000000000000000000000000000000000000000000000000000008152600401610d45906148b7565b60405180910390fd5b600073ffffffffffffffffffffffffffffffffffffffff1660fc60009054906101000a900473ffffffffffffffffffffffffffffffffffffffff1673ffffffffffffffffffffffffffffffffffffffff161415610de0576040517f08c379a0000000000000000000000000000000000000000000000000000000008152600401610dd790614aaa565b60405180910390fd5b60fc60009054906101000a900473ffffffffffffffffffffffffffffffffffffffff1673ffffffffffffffffffffffffffffffffffffffff166399f61c4a8787876040518463ffffffff1660e01b8152600401610e3f93929190614bc6565b602060405180830381600087803b158015610e5957600080fd5b505af1158015610e6d573d6000803e3d6000fd5b505050506040513d601f19601f82011682018060405250810190610e919190614c14565b610ed0576040517f08c379a0000000000000000000000000000000000000000000000000000000008152600401610ec790614cb3565b60405180910390fd5b610edb868686612f9a565b505050505050565b7f000000000000000000000000000000000000000000000000000000000000000073ffffffffffffffffffffffffffffffffffffffff163073ffffffffffffffffffffffffffffffffffffffff161415610f72576040517f08c379a0000000000000000000000000000000000000000000000000000000008152600401610f69906145de565b60405180910390fd5b7f000000000000000000000000000000000000000000000000000000000000000073ffffffffffffffffffffffffffffffffffffffff16610fb1612cff565b73ffffffffffffffffffffffffffffffffffffffff1614611007576040517f08c379a0000000000000000000000000000000000000000000000000000000008152600401610ffe90614670565b60405180910390fd5b61101082612d56565b61101c82826001612d61565b5050565b611028612ac6565b80600073ffffffffffffffffffffffffffffffffffffffff168173ffffffffffffffffffffffffffffffffffffffff161415611099576040517f08c379a000000000000000000000000000000000000000000000000000000000815260040161109090614a18565b60405180910390fd5b8160fc60006101000a81548173ffffffffffffffffffffffffffffffffffffffff021916908373ffffffffffffffffffffffffffffffffffffffff1602179055505050565b60007f000000000000000000000000000000000000000000000000000000000000000073ffffffffffffffffffffffffffffffffffffffff163073ffffffffffffffffffffffffffffffffffffffff161461116e576040517f08c379a000000000000000000000000000000000000000000000000000000000815260040161116590614d45565b60405180910390fd5b7f360894a13ba1a3210667c828492db98dca3e2076cc3735a920a3ca505d382bbc60001b905090565b8260008190506000815114156111e2576040517f08c379a00000000000000000000000000000000000000000000000000000000081526004016111d990614702565b60405180910390fd5b843373ffffffffffffffffffffffffffffffffffffffff1660ff8260405161120a919061479c565b908152602001604051809103902060000160009054906101000a900473ffffffffffffffffffffffffffffffffffffffff1673ffffffffffffffffffffffffffffffffffffffff16148061129057503373ffffffffffffffffffffffffffffffffffffffff16611278611802565b73ffffffffffffffffffffffffffffffffffffffff16145b6112cf576040517f08c379a00000000000000000000000000000000000000000000000000000000081526004016112c690614825565b60405180910390fd5b85600073ffffffffffffffffffffffffffffffffffffffff1660ff826040516112f8919061479c565b908152602001604051809103902060000160009054906101000a900473ffffffffffffffffffffffffffffffffffffffff1673ffffffffffffffffffffffffffffffffffffffff161415611381576040517f08c379a0000000000000000000000000000000000000000000000000000000008152600401611378906148b7565b60405180910390fd5b88886000801b60fd5414611450576000611399612ede565b6040516020016113a9919061491f565b60405160208183030381529060405280519060200120905061140f838380806020026020016040519081016040528093929190818152602001838360200280828437600081840152601f19601f8201169050808301925050505050505060fd5483612ee6565b61144e576040517f08c379a000000000000000000000000000000000000000000000000000000000815260040161144590614986565b60405180910390fd5b505b60038860ff1610158015611468575060088860ff1611155b6114a7576040517f08c379a000000000000000000000000000000000000000000000000000000000815260040161149e90614dd7565b60405180910390fd5b60008760ff16101580156114bf575060058760ff1611155b6114fe576040517f08c379a00000000000000000000000000000000000000000000000000000000081526004016114f590614e69565b60405180910390fd5b6008888861150c9190614eb8565b60ff161461154f576040517f08c379a000000000000000000000000000000000000000000000000000000000815260040161154690614f61565b60405180910390fd5b61155c8989896000612bde565b5050505050505050505050565b60008061157883336000611621565b905060008111156115cb5761158f8382600161308b565b7f7f721fb677bb15908084eff74db79910ed07199b54f12a68b864ba63d04797378333836040516115c293929190614f81565b60405180910390a15b6001915050919050565b60fc60009054906101000a900473ffffffffffffffffffffffffffffffffffffffff1681565b611603612ac6565b61160d60006132bc565b565b611617612ac6565b8060fd8190555050565b600082600073ffffffffffffffffffffffffffffffffffffffff168173ffffffffffffffffffffffffffffffffffffffff161415611694576040517f08c379a000000000000000000000000000000000000000000000000000000000815260040161168b90614a18565b60405180910390fd5b600060fe866040516116a6919061479c565b908152602001604051809103902060008673ffffffffffffffffffffffffffffffffffffffff1673ffffffffffffffffffffffffffffffffffffffff1681526020019081526020016000209050600060ff87604051611705919061479c565b90815260200160405180910390209050600082600201549050851561172c57826003015490505b600083600101548211611743578360010154611745565b815b90506000611751613382565b905060008460030160019054906101000a900460ff1690508815611784578460030160009054906101000a900460ff1690505b818310156117f45760006117c36064670de0b6b3a76400008460ff166117aa9190614fd3565b6117b49190615044565b67ffffffffffffffff16610691565b9050600087600001549050806117e5828488886117e09190615075565b61252c565b6117ef9190615075565b995050505b505050505050509392505050565b6000603360009054906101000a900473ffffffffffffffffffffffffffffffffffffffff16905090565b816000819050600081511415611877576040517f08c379a000000000000000000000000000000000000000000000000000000000815260040161186e90614702565b60405180910390fd5b82600081116118bb576040517f08c379a00000000000000000000000000000000000000000000000000000000081526004016118b29061511b565b60405180910390fd5b84600073ffffffffffffffffffffffffffffffffffffffff1660ff826040516118e4919061479c565b908152602001604051809103902060000160009054906101000a900473ffffffffffffffffffffffffffffffffffffffff1673ffffffffffffffffffffffffffffffffffffffff16141561196d576040517f08c379a0000000000000000000000000000000000000000000000000000000008152600401611964906148b7565b60405180910390fd5b60ff8660405161197d919061479c565b9081526020016040518091039020600101548560ff886040516119a0919061479c565b9081526020016040518091039020600201546119bc919061513b565b11156119fd576040517f08c379a00000000000000000000000000000000000000000000000000000000081526004016119f490615229565b60405180910390fd5b8460fb60009054906101000a900473ffffffffffffffffffffffffffffffffffffffff1673ffffffffffffffffffffffffffffffffffffffff1663dd62ed3e33306040518363ffffffff1660e01b8152600401611a5b929190615249565b60206040518083038186803b158015611a7357600080fd5b505afa158015611a87573d6000803e3d6000fd5b505050506040513d601f19601f82011682018060405250810190611aab9190615287565b1015611aec576040517f08c379a0000000000000000000000000000000000000000000000000000000008152600401611ae390615326565b60405180910390fd5b60fb60009054906101000a900473ffffffffffffffffffffffffffffffffffffffff1673ffffffffffffffffffffffffffffffffffffffff166323b872dd3330886040518463ffffffff1660e01b8152600401611b4b93929190615346565b602060405180830381600087803b158015611b6557600080fd5b505af1158015611b79573d6000803e3d6000fd5b505050506040513d601f19601f82011682018060405250810190611b9d9190614c14565b611bdc576040517f08c379a0000000000000000000000000000000000000000000000000000000008152600401611bd3906153ef565b60405180910390fd5b611be586611569565b50611bf28686600061308b565b505050505050565b60ff818051602081018201805184825260208301602085012081835280955050505050506000915090508060000160009054906101000a900473ffffffffffffffffffffffffffffffffffffffff16908060010154908060020154908060030160009054906101000a900460ff16908060030160019054906101000a900460ff16908060030160029054906101000a900460ff16905086565b611c9b612ac6565b60fb60009054906101000a900473ffffffffffffffffffffffffffffffffffffffff1673ffffffffffffffffffffffffffffffffffffffff1663a9059cbb611ce1611802565b836040518363ffffffff1660e01b8152600401611cff92919061540f565b602060405180830381600087803b158015611d1957600080fd5b505af1158015611d2d573d6000803e3d6000fd5b505050506040513d601f19601f82011682018060405250810190611d519190614c14565b5050565b60008060019054906101000a900460ff16159050808015611d865750600160008054906101000a900460ff1660ff16105b80611db35750611d953061338a565b158015611db25750600160008054906101000a900460ff1660ff16145b5b611df2576040517f08c379a0000000000000000000000000000000000000000000000000000000008152600401611de9906154aa565b60405180910390fd5b60016000806101000a81548160ff021916908360ff1602179055508015611e2f576001600060016101000a81548160ff0219169083151502179055505b8160fb60006101000a81548173ffffffffffffffffffffffffffffffffffffffff021916908373ffffffffffffffffffffffffffffffffffffffff160217905550611e786133ad565b611e80613406565b611e88613457565b8015611ee15760008060016101000a81548160ff0219169083151502179055507f7f26b83ff96e1f2b6a682f133852f6798a09c465da95921460cefb38474024986001604051611ed89190615505565b60405180910390a15b5050565b816000819050600081511415611f30576040517f08c379a0000000000000000000000000000000000000000000000000000000008152600401611f2790614702565b60405180910390fd5b8260008111611f74576040517f08c379a0000000000000000000000000000000000000000000000000000000008152600401611f6b9061511b565b60405180910390fd5b84600073ffffffffffffffffffffffffffffffffffffffff1660ff82604051611f9d919061479c565b908152602001604051809103902060000160009054906101000a900473ffffffffffffffffffffffffffffffffffffffff1673ffffffffffffffffffffffffffffffffffffffff161415612026576040517f08c379a000000000000000000000000000000000000000000000000000000000815260040161201d906148b7565b60405180910390fd5b600060fe87604051612038919061479c565b908152602001604051809103902060003373ffffffffffffffffffffffffffffffffffffffff1673ffffffffffffffffffffffffffffffffffffffff1681526020019081526020016000206000015414156120c8576040517f08c379a00000000000000000000000000000000000000000000000000000000081526004016120bf90615592565b60405180910390fd5b60fe866040516120d8919061479c565b908152602001604051809103902060003373ffffffffffffffffffffffffffffffffffffffff1673ffffffffffffffffffffffffffffffffffffffff16815260200190815260200160002060000154851115612169576040517f08c379a00000000000000000000000000000000000000000000000000000000081526004016121609061564a565b60405180910390fd5b60fb60009054906101000a900473ffffffffffffffffffffffffffffffffffffffff1673ffffffffffffffffffffffffffffffffffffffff1663a9059cbb33876040518363ffffffff1660e01b81526004016121c692919061540f565b602060405180830381600087803b1580156121e057600080fd5b505af11580156121f4573d6000803e3d6000fd5b505050506040513d601f19601f820116820180604052508101906122189190614c14565b612257576040517f08c379a000000000000000000000000000000000000000000000000000000000815260040161224e906153ef565b60405180910390fd5b612260866134b0565b8460fe87604051612271919061479c565b908152602001604051809103902060003373ffffffffffffffffffffffffffffffffffffffff1673ffffffffffffffffffffffffffffffffffffffff16815260200190815260200160002060000160008282546122ce9190615075565b925050819055508460ff876040516122e6919061479c565b908152602001604051809103902060020160008282546123069190615075565b925050819055507fabff4485adc7088e008d091c07744b6153e65e8f7ce2728fe3c3dbd95f743fd186338760405161234093929190614f81565b60405180910390a1505050505050565b80600081905060008151141561239b576040517f08c379a000000000000000000000000000000000000000000000000000000000815260040161239290614702565b60405180910390fd5b84846000801b60fd541461246a5760006123b3612ede565b6040516020016123c3919061491f565b604051602081830303815290604052805190602001209050612429838380806020026020016040519081016040528093929190818152602001838360200280828437600081840152601f19601f8201169050808301925050505050505060fd5483612ee6565b612468576040517f08c379a000000000000000000000000000000000000000000000000000000000815260040161245f90614986565b60405180910390fd5b505b600073ffffffffffffffffffffffffffffffffffffffff1660ff86604051612492919061479c565b908152602001604051809103902060000160009054906101000a900473ffffffffffffffffffffffffffffffffffffffff1673ffffffffffffffffffffffffffffffffffffffff161461251a576040517f08c379a0000000000000000000000000000000000000000000000000000000008152600401612511906156dc565b60405180910390fd5b61252385612b44565b50505050505050565b60006125418461253c8585613556565b6135e1565b90509392505050565b612552612ac6565b600073ffffffffffffffffffffffffffffffffffffffff168173ffffffffffffffffffffffffffffffffffffffff1614156125c2576040517f08c379a00000000000000000000000000000000000000000000000000000000081526004016125b99061576e565b60405180910390fd5b6125cb816132bc565b50565b806000819050600081511415612619576040517f08c379a000000000000000000000000000000000000000000000000000000000815260040161261090614702565b60405180910390fd5b82600073ffffffffffffffffffffffffffffffffffffffff1660ff82604051612642919061479c565b908152602001604051809103902060000160009054906101000a900473ffffffffffffffffffffffffffffffffffffffff1673ffffffffffffffffffffffffffffffffffffffff1614156126cb576040517f08c379a00000000000000000000000000000000000000000000000000000000081526004016126c2906148b7565b60405180910390fd5b600073ffffffffffffffffffffffffffffffffffffffff1660fc60009054906101000a900473ffffffffffffffffffffffffffffffffffffffff1673ffffffffffffffffffffffffffffffffffffffff16141561275d576040517f08c379a000000000000000000000000000000000000000000000000000000000815260040161275490614aaa565b60405180910390fd5b60fc60009054906101000a900473ffffffffffffffffffffffffffffffffffffffff1673ffffffffffffffffffffffffffffffffffffffff1663cc28ae4585336040518363ffffffff1660e01b81526004016127ba92919061578e565b602060405180830381600087803b1580156127d457600080fd5b505af11580156127e8573d6000803e3d6000fd5b505050506040513d601f19601f8201168201806040525081019061280c9190614c14565b61284b576040517f08c379a000000000000000000000000000000000000000000000000000000000815260040161284290615830565b60405180910390fd5b612854846134b0565b50505050565b612862612ac6565b8160008190506000815114156128ad576040517f08c379a00000000000000000000000000000000000000000000000000000000081526004016128a490614702565b60405180910390fd5b83600073ffffffffffffffffffffffffffffffffffffffff1660ff826040516128d6919061479c565b908152602001604051809103902060000160009054906101000a900473ffffffffffffffffffffffffffffffffffffffff1673ffffffffffffffffffffffffffffffffffffffff16141561295f576040517f08c379a0000000000000000000000000000000000000000000000000000000008152600401612956906148b7565b60405180910390fd5b83600081116129a3576040517f08c379a000000000000000000000000000000000000000000000000000000000815260040161299a9061511b565b60405180910390fd5b8460ff876040516129b4919061479c565b908152602001604051809103902060010181905550505050505050565b60fb60009054906101000a900473ffffffffffffffffffffffffffffffffffffffff1681565b6000612a0782633b9aca0061362d565b9050919050565b6000612a26826b033b2e3c9fd0803ce800000061362d565b9050919050565b600081612a5b612a49856b033b2e3c9fd0803ce800000061362d565b600285612a569190615850565b612a6d565b612a659190615850565b905092915050565b6000828284612a7c919061513b565b9150811015612ac0576040517f08c379a0000000000000000000000000000000000000000000000000000000008152600401612ab7906158cd565b60405180910390fd5b92915050565b612ace612ede565b73ffffffffffffffffffffffffffffffffffffffff16612aec611802565b73ffffffffffffffffffffffffffffffffffffffff1614612b42576040517f08c379a0000000000000000000000000000000000000000000000000000000008152600401612b3990615939565b60405180910390fd5b565b3360ff82604051612b55919061479c565b908152602001604051809103902060000160006101000a81548173ffffffffffffffffffffffffffffffffffffffff021916908373ffffffffffffffffffffffffffffffffffffffff1602179055507f91911924d66747ff20690c8eadf917d5af4379cb477324c2e878dbd00e77955881604051612bd39190615959565b60405180910390a150565b8260ff85604051612bef919061479c565b908152602001604051809103902060030160016101000a81548160ff021916908360ff1602179055508160ff85604051612c29919061479c565b908152602001604051809103902060030160006101000a81548160ff021916908360ff1602179055508060ff85604051612c63919061479c565b908152602001604051809103902060030160026101000a81548160ff0219169083151502179055506a084595161401484a00000060ff85604051612ca7919061479c565b9081526020016040518091039020600101819055507fe48a6126862cf6f42ca4469bc79a8de6071c5a3bfc1dcc90605907f8c234194584848484604051612cf1949392919061597b565b60405180910390a150505050565b6000612d2d7f360894a13ba1a3210667c828492db98dca3e2076cc3735a920a3ca505d382bbc60001b61369a565b60000160009054906101000a900473ffffffffffffffffffffffffffffffffffffffff16905090565b612d5e612ac6565b50565b612d8d7f4910fdfa16fed3260ed0e7147f7cc6da11a60208b5b9406d12a635614ffd914360001b6136a4565b60000160009054906101000a900460ff1615612db157612dac836136ae565b612ed9565b8273ffffffffffffffffffffffffffffffffffffffff166352d1902d6040518163ffffffff1660e01b815260040160206040518083038186803b158015612df757600080fd5b505afa925050508015612e2857506040513d601f19601f82011682018060405250810190612e2591906159dc565b60015b612e67576040517f08c379a0000000000000000000000000000000000000000000000000000000008152600401612e5e90615a7b565b60405180910390fd5b7f360894a13ba1a3210667c828492db98dca3e2076cc3735a920a3ca505d382bbc60001b8114612ecc576040517f08c379a0000000000000000000000000000000000000000000000000000000008152600401612ec390615b0d565b60405180910390fd5b50612ed8838383613767565b5b505050565b600033905090565b600082612ef38584613793565b1490509392505050565b8060ff83604051612f0e919061479c565b908152602001604051809103902060000160006101000a81548173ffffffffffffffffffffffffffffffffffffffff021916908373ffffffffffffffffffffffffffffffffffffffff1602179055507f964c219cd9f665a0c2f549b1bf821b619eb681810a760d27d462539d84d466de8282604051612f8e92919061578e565b60405180910390a15050565b60005b8282905081101561304c57612fb0613382565b60fe85604051612fc0919061479c565b90815260200160405180910390206000858585818110612fe357612fe2615b2d565b5b9050602002016020810190612ff89190613bbd565b73ffffffffffffffffffffffffffffffffffffffff1673ffffffffffffffffffffffffffffffffffffffff16815260200190815260200160002060030181905550808061304490615b5c565b915050612f9d565b507f06fda119de4fa2ec44bece09c8b2e32c01af05149a0e3431f736fbf3a8c3e68a833360405161307e92919061578e565b60405180910390a1505050565b806130fb57613098613382565b60fe846040516130a8919061479c565b908152602001604051809103902060003373ffffffffffffffffffffffffffffffffffffffff1673ffffffffffffffffffffffffffffffffffffffff168152602001908152602001600020600101819055505b8160ff8460405161310c919061479c565b9081526020016040518091039020600201600082825461312c919061513b565b925050819055508160fe84604051613144919061479c565b908152602001604051809103902060003373ffffffffffffffffffffffffffffffffffffffff1673ffffffffffffffffffffffffffffffffffffffff16815260200190815260200160002060000160008282546131a1919061513b565b925050819055506131b0613382565b60fe846040516131c0919061479c565b908152602001604051809103902060003373ffffffffffffffffffffffffffffffffffffffff1673ffffffffffffffffffffffffffffffffffffffff1681526020019081526020016000206002018190555061321a613382565b60fe8460405161322a919061479c565b908152602001604051809103902060003373ffffffffffffffffffffffffffffffffffffffff1673ffffffffffffffffffffffffffffffffffffffff168152602001908152602001600020600301819055507fb28dead8027f1e81117e29275c8111d4fef0dbafc7b4e32a0952fd186eeb67a58333846040516132af93929190614f81565b60405180910390a1505050565b6000603360009054906101000a900473ffffffffffffffffffffffffffffffffffffffff16905081603360006101000a81548173ffffffffffffffffffffffffffffffffffffffff021916908373ffffffffffffffffffffffffffffffffffffffff1602179055508173ffffffffffffffffffffffffffffffffffffffff168173ffffffffffffffffffffffffffffffffffffffff167f8be0079c531659141344cd1fd0a4f28419497f9722a3daafe3b4186f6b6457e060405160405180910390a35050565b600042905090565b6000808273ffffffffffffffffffffffffffffffffffffffff163b119050919050565b600060019054906101000a900460ff166133fc576040517f08c379a00000000000000000000000000000000000000000000000000000000081526004016133f390615c17565b60405180910390fd5b6134046137e9565b565b600060019054906101000a900460ff16613455576040517f08c379a000000000000000000000000000000000000000000000000000000000815260040161344c90615c17565b60405180910390fd5b565b600060019054906101000a900460ff166134a6576040517f08c379a000000000000000000000000000000000000000000000000000000000815260040161349d90615c17565b60405180910390fd5b6134ae61384a565b565b6134b8613382565b60fe826040516134c8919061479c565b908152602001604051809103902060003373ffffffffffffffffffffffffffffffffffffffff1673ffffffffffffffffffffffffffffffffffffffff168152602001908152602001600020600201819055507f06fda119de4fa2ec44bece09c8b2e32c01af05149a0e3431f736fbf3a8c3e68a813360405161354b92919061578e565b60405180910390a150565b6000806002836135669190615c37565b141561357e576b033b2e3c9fd0803ce8000000613580565b825b905060028261358f9190615850565b91505b600082146135db576135a483846135e1565b925060006002836135b59190615c37565b146135c7576135c481846135e1565b90505b6002826135d49190615850565b9150613592565b92915050565b60006b033b2e3c9fd0803ce800000061361b6135fd858561362d565b60026b033b2e3c9fd0803ce80000006136169190615850565b612a6d565b6136259190615850565b905092915050565b6000808214806136555750828283856136469190615c68565b9250826136539190615850565b145b613694576040517f08c379a000000000000000000000000000000000000000000000000000000000815260040161368b90615d0e565b60405180910390fd5b92915050565b6000819050919050565b6000819050919050565b6136b78161338a565b6136f6576040517f08c379a00000000000000000000000000000000000000000000000000000000081526004016136ed90615da0565b60405180910390fd5b806137237f360894a13ba1a3210667c828492db98dca3e2076cc3735a920a3ca505d382bbc60001b61369a565b60000160006101000a81548173ffffffffffffffffffffffffffffffffffffffff021916908373ffffffffffffffffffffffffffffffffffffffff16021790555050565b613770836138a3565b60008251118061377d5750805b1561378e5761378c83836138f2565b505b505050565b60008082905060005b84518110156137de576137c9828683815181106137bc576137bb615b2d565b5b60200260200101516139d6565b915080806137d690615b5c565b91505061379c565b508091505092915050565b600060019054906101000a900460ff16613838576040517f08c379a000000000000000000000000000000000000000000000000000000000815260040161382f90615c17565b60405180910390fd5b613848613843612ede565b6132bc565b565b600060019054906101000a900460ff16613899576040517f08c379a000000000000000000000000000000000000000000000000000000000815260040161389090615c17565b60405180910390fd5b6001606581905550565b6138ac816136ae565b8073ffffffffffffffffffffffffffffffffffffffff167fbc7cd75a20ee27fd9adebab32041f755214dbc6bffa90cc0225b39da2e5c2d3b60405160405180910390a250565b60606138fd8361338a565b61393c576040517f08c379a000000000000000000000000000000000000000000000000000000000815260040161393390615e32565b60405180910390fd5b6000808473ffffffffffffffffffffffffffffffffffffffff16846040516139649190615e99565b600060405180830381855af49150503d806000811461399f576040519150601f19603f3d011682016040523d82523d6000602084013e6139a4565b606091505b50915091506139cc8282604051806060016040528060278152602001615eb160279139613a01565b9250505092915050565b60008183106139ee576139e98284613a23565b6139f9565b6139f88383613a23565b5b905092915050565b60608315613a1157829050613a1c565b613a1b8383613a3a565b5b9392505050565b600082600052816020526040600020905092915050565b600082511115613a4d5781518083602001fd5b806040517f08c379a0000000000000000000000000000000000000000000000000000000008152600401613a819190615959565b60405180910390fd5b6000604051905090565b600080fd5b600080fd5b6000819050919050565b613ab181613a9e565b8114613abc57600080fd5b50565b600081359050613ace81613aa8565b92915050565b600060208284031215613aea57613ae9613a94565b5b6000613af884828501613abf565b91505092915050565b613b0a81613a9e565b82525050565b6000602082019050613b256000830184613b01565b92915050565b6000819050919050565b613b3e81613b2b565b82525050565b6000602082019050613b596000830184613b35565b92915050565b600073ffffffffffffffffffffffffffffffffffffffff82169050919050565b6000613b8a82613b5f565b9050919050565b613b9a81613b7f565b8114613ba557600080fd5b50565b600081359050613bb781613b91565b92915050565b600060208284031215613bd357613bd2613a94565b5b6000613be184828501613ba8565b91505092915050565b600080fd5b600080fd5b600080fd5b60008083601f840112613c0f57613c0e613bea565b5b8235905067ffffffffffffffff811115613c2c57613c2b613bef565b5b602083019150836020820283011115613c4857613c47613bf4565b5b9250929050565b600080fd5b6000601f19601f8301169050919050565b7f4e487b7100000000000000000000000000000000000000000000000000000000600052604160045260246000fd5b613c9d82613c54565b810181811067ffffffffffffffff82111715613cbc57613cbb613c65565b5b80604052505050565b6000613ccf613a8a565b9050613cdb8282613c94565b919050565b600067ffffffffffffffff821115613cfb57613cfa613c65565b5b613d0482613c54565b9050602081019050919050565b82818337600083830152505050565b6000613d33613d2e84613ce0565b613cc5565b905082815260208101848484011115613d4f57613d4e613c4f565b5b613d5a848285613d11565b509392505050565b600082601f830112613d7757613d76613bea565b5b8135613d87848260208601613d20565b91505092915050565b60008060008060608587031215613daa57613da9613a94565b5b600085013567ffffffffffffffff811115613dc857613dc7613a99565b5b613dd487828801613bf9565b9450945050602085013567ffffffffffffffff811115613df757613df6613a99565b5b613e0387828801613d62565b9250506040613e1487828801613ba8565b91505092959194509250565b60008060408385031215613e3757613e36613a94565b5b600083013567ffffffffffffffff811115613e5557613e54613a99565b5b613e6185828601613d62565b9250506020613e7285828601613ba8565b9150509250929050565b6000608082019050613e916000830187613b01565b613e9e6020830186613b01565b613eab6040830185613b01565b613eb86060830184613b01565b95945050505050565b60008083601f840112613ed757613ed6613bea565b5b8235905067ffffffffffffffff811115613ef457613ef3613bef565b5b602083019150836020820283011115613f1057613f0f613bf4565b5b9250929050565b600080600060408486031215613f3057613f2f613a94565b5b600084013567ffffffffffffffff811115613f4e57613f4d613a99565b5b613f5a86828701613d62565b935050602084013567ffffffffffffffff811115613f7b57613f7a613a99565b5b613f8786828701613ec1565b92509250509250925092565b600067ffffffffffffffff821115613fae57613fad613c65565b5b613fb782613c54565b9050602081019050919050565b6000613fd7613fd284613f93565b613cc5565b905082815260208101848484011115613ff357613ff2613c4f565b5b613ffe848285613d11565b509392505050565b600082601f83011261401b5761401a613bea565b5b813561402b848260208601613fc4565b91505092915050565b6000806040838503121561404b5761404a613a94565b5b600061405985828601613ba8565b925050602083013567ffffffffffffffff81111561407a57614079613a99565b5b61408685828601614006565b9150509250929050565b600060ff82169050919050565b6140a681614090565b81146140b157600080fd5b50565b6000813590506140c38161409d565b92915050565b6000806000806000608086880312156140e5576140e4613a94565b5b600086013567ffffffffffffffff81111561410357614102613a99565b5b61410f88828901613bf9565b9550955050602086013567ffffffffffffffff81111561413257614131613a99565b5b61413e88828901613d62565b935050604061414f888289016140b4565b9250506060614160888289016140b4565b9150509295509295909350565b60006020828403121561418357614182613a94565b5b600082013567ffffffffffffffff8111156141a1576141a0613a99565b5b6141ad84828501613d62565b91505092915050565b60008115159050919050565b6141cb816141b6565b82525050565b60006020820190506141e660008301846141c2565b92915050565b6000819050919050565b600061421161420c61420784613b5f565b6141ec565b613b5f565b9050919050565b6000614223826141f6565b9050919050565b600061423582614218565b9050919050565b6142458161422a565b82525050565b6000602082019050614260600083018461423c565b92915050565b61426f81613b2b565b811461427a57600080fd5b50565b60008135905061428c81614266565b92915050565b6000602082840312156142a8576142a7613a94565b5b60006142b68482850161427d565b91505092915050565b6142c8816141b6565b81146142d357600080fd5b50565b6000813590506142e5816142bf565b92915050565b60008060006060848603121561430457614303613a94565b5b600084013567ffffffffffffffff81111561432257614321613a99565b5b61432e86828701613d62565b935050602061433f86828701613ba8565b9250506040614350868287016142d6565b9150509250925092565b61436381613b7f565b82525050565b600060208201905061437e600083018461435a565b92915050565b6000806040838503121561439b5761439a613a94565b5b600083013567ffffffffffffffff8111156143b9576143b8613a99565b5b6143c585828601613d62565b92505060206143d685828601613abf565b9150509250929050565b6143e981614090565b82525050565b600060c082019050614404600083018961435a565b6144116020830188613b01565b61441e6040830187613b01565b61442b60608301866143e0565b61443860808301856143e0565b61444560a08301846141c2565b979650505050505050565b60008060006040848603121561446957614468613a94565b5b600084013567ffffffffffffffff81111561448757614486613a99565b5b61449386828701613bf9565b9350935050602084013567ffffffffffffffff8111156144b6576144b5613a99565b5b6144c286828701613d62565b9150509250925092565b6000806000606084860312156144e5576144e4613a94565b5b60006144f386828701613abf565b935050602061450486828701613abf565b925050604061451586828701613abf565b9150509250925092565b600061452a82614218565b9050919050565b61453a8161451f565b82525050565b60006020820190506145556000830184614531565b92915050565b600082825260208201905092915050565b7f46756e6374696f6e206d7573742062652063616c6c6564207468726f7567682060008201527f64656c656761746563616c6c0000000000000000000000000000000000000000602082015250565b60006145c8602c8361455b565b91506145d38261456c565b604082019050919050565b600060208201905081810360008301526145f7816145bb565b9050919050565b7f46756e6374696f6e206d7573742062652063616c6c6564207468726f7567682060008201527f6163746976652070726f78790000000000000000000000000000000000000000602082015250565b600061465a602c8361455b565b9150614665826145fe565b604082019050919050565b600060208201905081810360008301526146898161464d565b9050919050565b7f44656369626c696e675374616b696e673a20706f6f6c206c656e677468206d7560008201527f7374206265203e20300000000000000000000000000000000000000000000000602082015250565b60006146ec60298361455b565b91506146f782614690565b604082019050919050565b6000602082019050818103600083015261471b816146df565b9050919050565b600081519050919050565b600081905092915050565b60005b8381101561475657808201518184015260208101905061473b565b83811115614765576000848401525b50505050565b600061477682614722565b614780818561472d565b9350614790818560208601614738565b80840191505092915050565b60006147a8828461476b565b915081905092915050565b7f44656369626c696e67506f6f6c436f6e6669673a206e6f7420706f6f6c206f7760008201527f6e6572206f722061646d696e0000000000000000000000000000000000000000602082015250565b600061480f602c8361455b565b915061481a826147b3565b604082019050919050565b6000602082019050818103600083015261483e81614802565b9050919050565b7f44656369626c696e675374616b696e673a207468697320706f6f6c206973206e60008201527f6f74206578697374000000000000000000000000000000000000000000000000602082015250565b60006148a160288361455b565b91506148ac82614845565b604082019050919050565b600060208201905081810360008301526148d081614894565b9050919050565b60008160601b9050919050565b60006148ef826148d7565b9050919050565b6000614901826148e4565b9050919050565b61491961491482613b7f565b6148f6565b82525050565b600061492b8284614908565b60148201915081905092915050565b7f496e76616c69642070726f6f6600000000000000000000000000000000000000600082015250565b6000614970600d8361455b565b915061497b8261493a565b602082019050919050565b6000602082019050818103600083015261499f81614963565b9050919050565b7f44656369626c696e675374616b696e673a206e6f7420612076616c696420616460008201527f6472657373000000000000000000000000000000000000000000000000000000602082015250565b6000614a0260258361455b565b9150614a0d826149a6565b604082019050919050565b60006020820190508181036000830152614a31816149f5565b9050919050565b7f44656369626c696e675374616b696e673a207265736572766520636f6e74726160008201527f6374206973206e6f742075706461746564000000000000000000000000000000602082015250565b6000614a9460318361455b565b9150614a9f82614a38565b604082019050919050565b60006020820190508181036000830152614ac381614a87565b9050919050565b6000614ad582614722565b614adf818561455b565b9350614aef818560208601614738565b614af881613c54565b840191505092915050565b600082825260208201905092915050565b6000819050919050565b614b2781613b7f565b82525050565b6000614b398383614b1e565b60208301905092915050565b6000614b546020840184613ba8565b905092915050565b6000602082019050919050565b6000614b758385614b03565b9350614b8082614b14565b8060005b85811015614bb957614b968284614b45565b614ba08882614b2d565b9750614bab83614b5c565b925050600181019050614b84565b5085925050509392505050565b60006040820190508181036000830152614be08186614aca565b90508181036020830152614bf5818486614b69565b9050949350505050565b600081519050614c0e816142bf565b92915050565b600060208284031215614c2a57614c29613a94565b5b6000614c3884828501614bff565b91505092915050565b7f44656369626c696e675374616b696e673a2072657175657374207061796f757460008201527f20666f7220706f6f6c206f776e6572206661696c656400000000000000000000602082015250565b6000614c9d60368361455b565b9150614ca882614c41565b604082019050919050565b60006020820190508181036000830152614ccc81614c90565b9050919050565b7f555550535570677261646561626c653a206d757374206e6f742062652063616c60008201527f6c6564207468726f7567682064656c656761746563616c6c0000000000000000602082015250565b6000614d2f60388361455b565b9150614d3a82614cd3565b604082019050919050565b60006020820190508181036000830152614d5e81614d22565b9050919050565b7f44656369626c696e67506f6f6c436f6e6669673a20696e76616c69642072657460008201527f75726e2076616c75650000000000000000000000000000000000000000000000602082015250565b6000614dc160298361455b565b9150614dcc82614d65565b604082019050919050565b60006020820190508181036000830152614df081614db4565b9050919050565b7f44656369626c696e67506f6f6c436f6e6669673a20696e76616c69642072657460008201527f75726e20746f206f776e65722076616c75650000000000000000000000000000602082015250565b6000614e5360328361455b565b9150614e5e82614df7565b604082019050919050565b60006020820190508181036000830152614e8281614e46565b9050919050565b7f4e487b7100000000000000000000000000000000000000000000000000000000600052601160045260246000fd5b6000614ec382614090565b9150614ece83614090565b92508260ff03821115614ee457614ee3614e89565b5b828201905092915050565b7f44656369626c696e67506f6f6c436f6e6669673a20746f74616c20726574757260008201527f6e206d75737420626520657175616c2038000000000000000000000000000000602082015250565b6000614f4b60318361455b565b9150614f5682614eef565b604082019050919050565b60006020820190508181036000830152614f7a81614f3e565b9050919050565b60006060820190508181036000830152614f9b8186614aca565b9050614faa602083018561435a565b614fb76040830184613b01565b949350505050565b600067ffffffffffffffff82169050919050565b6000614fde82614fbf565b9150614fe983614fbf565b92508167ffffffffffffffff048311821515161561500a57615009614e89565b5b828202905092915050565b7f4e487b7100000000000000000000000000000000000000000000000000000000600052601260045260246000fd5b600061504f82614fbf565b915061505a83614fbf565b92508261506a57615069615015565b5b828204905092915050565b600061508082613a9e565b915061508b83613a9e565b92508282101561509e5761509d614e89565b5b828203905092915050565b7f44656369626c696e675374616b696e673a20616d6f756e74206d75737420626560008201527f203e203000000000000000000000000000000000000000000000000000000000602082015250565b600061510560248361455b565b9150615110826150a9565b604082019050919050565b60006020820190508181036000830152615134816150f8565b9050919050565b600061514682613a9e565b915061515183613a9e565b9250827fffffffffffffffffffffffffffffffffffffffffffffffffffffffffffffffff0382111561518657615185614e89565b5b828201905092915050565b7f44656369626c696e675374616b696e673a20486172642063617020726561636860008201527f65642c2063616e6e6f74207374616b65206d6f7265206f6e207468697320706f60208201527f6f6c000000000000000000000000000000000000000000000000000000000000604082015250565b600061521360428361455b565b915061521e82615191565b606082019050919050565b6000602082019050818103600083015261524281615206565b9050919050565b600060408201905061525e600083018561435a565b61526b602083018461435a565b9392505050565b60008151905061528181613aa8565b92915050565b60006020828403121561529d5761529c613a94565b5b60006152ab84828501615272565b91505092915050565b7f44656369626c696e675374616b696e67203a20506c656173652073657420616c60008201527f6c6f77616e636520666f7220746865206465706f736974000000000000000000602082015250565b600061531060378361455b565b915061531b826152b4565b604082019050919050565b6000602082019050818103600083015261533f81615303565b9050919050565b600060608201905061535b600083018661435a565b615368602083018561435a565b6153756040830184613b01565b949350505050565b7f44656369626c696e675374616b696e673a205472616e73666572206661696c6560008201527f6400000000000000000000000000000000000000000000000000000000000000602082015250565b60006153d960218361455b565b91506153e48261537d565b604082019050919050565b60006020820190508181036000830152615408816153cc565b9050919050565b6000604082019050615424600083018561435a565b6154316020830184613b01565b9392505050565b7f496e697469616c697a61626c653a20636f6e747261637420697320616c72656160008201527f647920696e697469616c697a6564000000000000000000000000000000000000602082015250565b6000615494602e8361455b565b915061549f82615438565b604082019050919050565b600060208201905081810360008301526154c381615487565b9050919050565b6000819050919050565b60006154ef6154ea6154e5846154ca565b6141ec565b614090565b9050919050565b6154ff816154d4565b82525050565b600060208201905061551a60008301846154f6565b92915050565b7f44656369626c696e675374616b696e673a20596f75722063757272656e74207360008201527f74616b6520616d6f756e74206f66207468697320706f6f6c2069732030000000602082015250565b600061557c603d8361455b565b915061558782615520565b604082019050919050565b600060208201905081810360008301526155ab8161556f565b9050919050565b7f44656369626c696e675374616b696e673a2054686520616d6f756e74206d757360008201527f7420626520736d616c6c6572207468616e20796f75722063757272656e74207360208201527f74616b6564000000000000000000000000000000000000000000000000000000604082015250565b600061563460458361455b565b915061563f826155b2565b606082019050919050565b6000602082019050818103600083015261566381615627565b9050919050565b7f44656369626c696e67506f6f6c436f6e6669673a20706f6f6c2069642065786960008201527f7374730000000000000000000000000000000000000000000000000000000000602082015250565b60006156c660238361455b565b91506156d18261566a565b604082019050919050565b600060208201905081810360008301526156f5816156b9565b9050919050565b7f4f776e61626c653a206e6577206f776e657220697320746865207a65726f206160008201527f6464726573730000000000000000000000000000000000000000000000000000602082015250565b600061575860268361455b565b9150615763826156fc565b604082019050919050565b600060208201905081810360008301526157878161574b565b9050919050565b600060408201905081810360008301526157a88185614aca565b90506157b7602083018461435a565b9392505050565b7f44656369626c696e675374616b696e673a2072657175657374207061796f757460008201527f206661696c656400000000000000000000000000000000000000000000000000602082015250565b600061581a60278361455b565b9150615825826157be565b604082019050919050565b600060208201905081810360008301526158498161580d565b9050919050565b600061585b82613a9e565b915061586683613a9e565b92508261587657615875615015565b5b828204905092915050565b7f64732d6d6174682d6164642d6f766572666c6f77000000000000000000000000600082015250565b60006158b760148361455b565b91506158c282615881565b602082019050919050565b600060208201905081810360008301526158e6816158aa565b9050919050565b7f4f776e61626c653a2063616c6c6572206973206e6f7420746865206f776e6572600082015250565b600061592360208361455b565b915061592e826158ed565b602082019050919050565b6000602082019050818103600083015261595281615916565b9050919050565b600060208201905081810360008301526159738184614aca565b905092915050565b600060808201905081810360008301526159958187614aca565b90506159a460208301866143e0565b6159b160408301856143e0565b6159be60608301846141c2565b95945050505050565b6000815190506159d681614266565b92915050565b6000602082840312156159f2576159f1613a94565b5b6000615a00848285016159c7565b91505092915050565b7f45524331393637557067726164653a206e657720696d706c656d656e7461746960008201527f6f6e206973206e6f742055555053000000000000000000000000000000000000602082015250565b6000615a65602e8361455b565b9150615a7082615a09565b604082019050919050565b60006020820190508181036000830152615a9481615a58565b9050919050565b7f45524331393637557067726164653a20756e737570706f727465642070726f7860008201527f6961626c65555549440000000000000000000000000000000000000000000000602082015250565b6000615af760298361455b565b9150615b0282615a9b565b604082019050919050565b60006020820190508181036000830152615b2681615aea565b9050919050565b7f4e487b7100000000000000000000000000000000000000000000000000000000600052603260045260246000fd5b6000615b6782613a9e565b91507fffffffffffffffffffffffffffffffffffffffffffffffffffffffffffffffff821415615b9a57615b99614e89565b5b600182019050919050565b7f496e697469616c697a61626c653a20636f6e7472616374206973206e6f74206960008201527f6e697469616c697a696e67000000000000000000000000000000000000000000602082015250565b6000615c01602b8361455b565b9150615c0c82615ba5565b604082019050919050565b60006020820190508181036000830152615c3081615bf4565b9050919050565b6000615c4282613a9e565b9150615c4d83613a9e565b925082615c5d57615c5c615015565b5b828206905092915050565b6000615c7382613a9e565b9150615c7e83613a9e565b9250817fffffffffffffffffffffffffffffffffffffffffffffffffffffffffffffffff0483118215151615615cb757615cb6614e89565b5b828202905092915050565b7f64732d6d6174682d6d756c2d6f766572666c6f77000000000000000000000000600082015250565b6000615cf860148361455b565b9150615d0382615cc2565b602082019050919050565b60006020820190508181036000830152615d2781615ceb565b9050919050565b7f455243313936373a206e657720696d706c656d656e746174696f6e206973206e60008201527f6f74206120636f6e747261637400000000000000000000000000000000000000602082015250565b6000615d8a602d8361455b565b9150615d9582615d2e565b604082019050919050565b60006020820190508181036000830152615db981615d7d565b9050919050565b7f416464726573733a2064656c65676174652063616c6c20746f206e6f6e2d636f60008201527f6e74726163740000000000000000000000000000000000000000000000000000602082015250565b6000615e1c60268361455b565b9150615e2782615dc0565b604082019050919050565b60006020820190508181036000830152615e4b81615e0f565b9050919050565b600081519050919050565b600081905092915050565b6000615e7382615e52565b615e7d8185615e5d565b9350615e8d818560208601614738565b80840191505092915050565b6000615ea58284615e68565b91508190509291505056fe416464726573733a206c6f772d6c6576656c2064656c65676174652063616c6c206661696c6564a264697066735822122073fa172be2001ad345c7306613e60588a898e89acff97b4b4961d4aedd53743664736f6c63430008090033",
  "linkReferences": {},
  "deployedLinkReferences": {}
}