{
  "_format": "hh-sol-artifact-1",
  "contractName": "DeciblingStaking",
  "sourceName": "contracts/DeciblingStaking.sol",
  "abi": [
    {
      "inputs": [
        {
          "internalType": "address",
          "name": "_tokenAddress",
          "type": "address"
        },
        {
          "internalType": "address payable",
          "name": "_platformFeeRecipient",
          "type": "address"
        }
      ],
      "stateMutability": "nonpayable",
      "type": "constructor"
    },
    {
      "anonymous": false,
      "inputs": [
        {
          "indexed": false,
          "internalType": "address",
          "name": "_user",
          "type": "address"
        },
        {
          "indexed": false,
          "internalType": "string",
          "name": "pool",
          "type": "string"
        },
        {
          "indexed": false,
          "internalType": "uint256",
          "name": "time",
          "type": "uint256"
        },
        {
          "indexed": false,
          "internalType": "uint256",
          "name": "amount",
          "type": "uint256"
        },
        {
          "indexed": false,
          "internalType": "uint256",
          "name": "amountToOwner",
          "type": "uint256"
        },
        {
          "indexed": false,
          "internalType": "uint256",
          "name": "platformValue",
          "type": "uint256"
        },
        {
          "indexed": false,
          "internalType": "uint256",
          "name": "platformValueToOwner",
          "type": "uint256"
        }
      ],
      "name": "IssueToken",
      "type": "event"
    },
    {
      "anonymous": false,
      "inputs": [
        {
          "indexed": true,
          "internalType": "address",
          "name": "previousOwner",
          "type": "address"
        },
        {
          "indexed": true,
          "internalType": "address",
          "name": "newOwner",
          "type": "address"
        }
      ],
      "name": "OwnershipTransferred",
      "type": "event"
    },
    {
      "anonymous": false,
      "inputs": [
        {
          "indexed": false,
          "internalType": "address",
          "name": "_user",
          "type": "address"
        },
        {
          "indexed": false,
          "internalType": "uint256",
          "name": "time",
          "type": "uint256"
        },
        {
          "indexed": false,
          "internalType": "uint256",
          "name": "amount",
          "type": "uint256"
        },
        {
          "indexed": false,
          "internalType": "string",
          "name": "pool",
          "type": "string"
        }
      ],
      "name": "Stake",
      "type": "event"
    },
    {
      "anonymous": false,
      "inputs": [
        {
          "indexed": false,
          "internalType": "address",
          "name": "_user",
          "type": "address"
        },
        {
          "indexed": false,
          "internalType": "uint256",
          "name": "time",
          "type": "uint256"
        },
        {
          "indexed": false,
          "internalType": "string",
          "name": "pool",
          "type": "string"
        },
        {
          "indexed": false,
          "internalType": "uint256",
          "name": "unstakeAmount",
          "type": "uint256"
        }
      ],
      "name": "Unstake",
      "type": "event"
    },
    {
      "anonymous": false,
      "inputs": [
        {
          "indexed": false,
          "internalType": "uint256",
          "name": "platformFee",
          "type": "uint256"
        }
      ],
      "name": "UpdatePlatformFee",
      "type": "event"
    },
    {
      "anonymous": false,
      "inputs": [
        {
          "indexed": false,
          "internalType": "address payable",
          "name": "platformFeeRecipient",
          "type": "address"
        }
      ],
      "name": "UpdatePlatformFeeRecipient",
      "type": "event"
    },
    {
      "anonymous": false,
      "inputs": [
        {
          "indexed": false,
          "internalType": "string",
          "name": "id",
          "type": "string"
        },
        {
          "indexed": false,
          "internalType": "uint256",
          "name": "r",
          "type": "uint256"
        },
        {
          "indexed": false,
          "internalType": "uint256",
          "name": "r_to_owner",
          "type": "uint256"
        },
        {
          "indexed": false,
          "internalType": "uint256",
          "name": "base",
          "type": "uint256"
        },
        {
          "indexed": false,
          "internalType": "uint256",
          "name": "base_to_owner",
          "type": "uint256"
        }
      ],
      "name": "UpdatePool",
      "type": "event"
    },
    {
      "anonymous": false,
      "inputs": [
        {
          "indexed": false,
          "internalType": "address",
          "name": "_user",
          "type": "address"
        },
        {
          "indexed": false,
          "internalType": "uint256",
          "name": "time",
          "type": "uint256"
        },
        {
          "indexed": false,
          "internalType": "string",
          "name": "id",
          "type": "string"
        },
        {
          "indexed": false,
          "internalType": "uint256",
          "name": "actualAmount",
          "type": "uint256"
        }
      ],
      "name": "UpdateUnclaimAmount",
      "type": "event"
    },
    {
      "inputs": [],
      "name": "froyToken",
      "outputs": [
        {
          "internalType": "contract IERC20",
          "name": "",
          "type": "address"
        }
      ],
      "stateMutability": "view",
      "type": "function"
    },
    {
      "inputs": [
        {
          "components": [
            {
              "internalType": "address",
              "name": "to",
              "type": "address"
            },
            {
              "internalType": "string",
              "name": "id",
              "type": "string"
            }
          ],
          "internalType": "struct DeciblingStaking.ClaimInfo[]",
          "name": "claims",
          "type": "tuple[]"
        }
      ],
      "name": "issueToken",
      "outputs": [],
      "stateMutability": "nonpayable",
      "type": "function"
    },
    {
      "inputs": [
        {
          "internalType": "string",
          "name": "_id",
          "type": "string"
        },
        {
          "internalType": "uint256",
          "name": "_r",
          "type": "uint256"
        },
        {
          "internalType": "uint256",
          "name": "_r_to_owner",
          "type": "uint256"
        }
      ],
      "name": "newPool",
      "outputs": [],
      "stateMutability": "nonpayable",
      "type": "function"
    },
    {
      "inputs": [],
      "name": "owner",
      "outputs": [
        {
          "internalType": "address",
          "name": "",
          "type": "address"
        }
      ],
      "stateMutability": "view",
      "type": "function"
    },
    {
      "inputs": [],
      "name": "platformFee",
      "outputs": [
        {
          "internalType": "uint256",
          "name": "",
          "type": "uint256"
        }
      ],
      "stateMutability": "view",
      "type": "function"
    },
    {
      "inputs": [],
      "name": "platformFeeRecipient",
      "outputs": [
        {
          "internalType": "address payable",
          "name": "",
          "type": "address"
        }
      ],
      "stateMutability": "view",
      "type": "function"
    },
    {
      "inputs": [
        {
          "internalType": "string",
          "name": "",
          "type": "string"
        }
      ],
      "name": "pools",
      "outputs": [
        {
          "internalType": "address",
          "name": "owner",
          "type": "address"
        },
        {
          "internalType": "uint256",
          "name": "r_to_owner",
          "type": "uint256"
        },
        {
          "internalType": "uint256",
          "name": "r",
          "type": "uint256"
        },
        {
          "internalType": "uint256",
          "name": "base",
          "type": "uint256"
        },
        {
          "internalType": "uint256",
          "name": "base_to_owner",
          "type": "uint256"
        }
      ],
      "stateMutability": "view",
      "type": "function"
    },
    {
      "inputs": [],
      "name": "renounceOwnership",
      "outputs": [],
      "stateMutability": "nonpayable",
      "type": "function"
    },
    {
      "inputs": [
        {
          "internalType": "string",
          "name": "id",
          "type": "string"
        },
        {
          "internalType": "uint256",
          "name": "_amount",
          "type": "uint256"
        }
      ],
      "name": "stake",
      "outputs": [],
      "stateMutability": "nonpayable",
      "type": "function"
    },
    {
      "inputs": [
        {
          "internalType": "string",
          "name": "",
          "type": "string"
        },
        {
          "internalType": "address",
          "name": "",
          "type": "address"
        }
      ],
      "name": "stakes",
      "outputs": [
        {
          "internalType": "uint256",
          "name": "amount",
          "type": "uint256"
        },
        {
          "internalType": "uint256",
          "name": "stakeTime",
          "type": "uint256"
        },
        {
          "internalType": "uint256",
          "name": "unclaimAmount",
          "type": "uint256"
        },
        {
          "internalType": "uint256",
          "name": "unclaimAmountToOwner",
          "type": "uint256"
        }
      ],
      "stateMutability": "view",
      "type": "function"
    },
    {
      "inputs": [
        {
          "internalType": "address",
          "name": "newOwner",
          "type": "address"
        }
      ],
      "name": "transferOwnership",
      "outputs": [],
      "stateMutability": "nonpayable",
      "type": "function"
    },
    {
      "inputs": [
        {
          "internalType": "string",
          "name": "id",
          "type": "string"
        },
        {
          "internalType": "uint256",
          "name": "unstakeAmount",
          "type": "uint256"
        }
      ],
      "name": "unstake",
      "outputs": [],
      "stateMutability": "nonpayable",
      "type": "function"
    },
    {
      "inputs": [
        {
          "internalType": "uint256",
          "name": "_platformFee",
          "type": "uint256"
        }
      ],
      "name": "updatePlatformFee",
      "outputs": [],
      "stateMutability": "nonpayable",
      "type": "function"
    },
    {
      "inputs": [
        {
          "internalType": "address payable",
          "name": "_platformFeeRecipient",
          "type": "address"
        }
      ],
      "name": "updatePlatformFeeRecipient",
      "outputs": [],
      "stateMutability": "nonpayable",
      "type": "function"
    },
    {
      "inputs": [
        {
          "internalType": "string",
          "name": "id",
          "type": "string"
        },
        {
          "internalType": "uint256",
          "name": "_r",
          "type": "uint256"
        },
        {
          "internalType": "uint256",
          "name": "_r_to_owner",
          "type": "uint256"
        }
      ],
      "name": "updatePool",
      "outputs": [],
      "stateMutability": "nonpayable",
      "type": "function"
    }
  ],
  "bytecode": "0x608060405260056002553480156200001657600080fd5b5060405162003b4a38038062003b4a83398181016040528101906200003c9190620005e6565b6200005c62000050620001dd60201b60201c565b620001e560201b60201c565b600073ffffffffffffffffffffffffffffffffffffffff168273ffffffffffffffffffffffffffffffffffffffff1614158015620000c75750600073ffffffffffffffffffffffffffffffffffffffff168173ffffffffffffffffffffffffffffffffffffffff1614155b62000109576040517f08c379a00000000000000000000000000000000000000000000000000000000081526004016200010090620006b4565b60405180910390fd5b81600160006101000a81548173ffffffffffffffffffffffffffffffffffffffff021916908373ffffffffffffffffffffffffffffffffffffffff16021790555080600360006101000a81548173ffffffffffffffffffffffffffffffffffffffff021916908373ffffffffffffffffffffffffffffffffffffffff160217905550620001d56040518060400160405280600e81526020017f64656369626c696e675f706f6f6c00000000000000000000000000000000000081525060026000620002a960201b60201c565b5050620009ac565b600033905090565b60008060009054906101000a900473ffffffffffffffffffffffffffffffffffffffff169050816000806101000a81548173ffffffffffffffffffffffffffffffffffffffff021916908373ffffffffffffffffffffffffffffffffffffffff1602179055508173ffffffffffffffffffffffffffffffffffffffff168173ffffffffffffffffffffffffffffffffffffffff167f8be0079c531659141344cd1fd0a4f28419497f9722a3daafe3b4186f6b6457e060405160405180910390a35050565b6000839050600081511415620002f6576040517f08c379a0000000000000000000000000000000000000000000000000000000008152600401620002ed9062000726565b60405180910390fd5b33600585604051620003099190620007cb565b908152602001604051809103902060000160006101000a81548173ffffffffffffffffffffffffffffffffffffffff021916908373ffffffffffffffffffffffffffffffffffffffff1602179055506200036b8484846200037160201b60201c565b50505050565b6000839050600081511415620003be576040517f08c379a0000000000000000000000000000000000000000000000000000000008152600401620003b59062000726565b60405180910390fd5b82600585604051620003d19190620007cb565b90815260200160405180910390206002018190555081600585604051620003f99190620007cb565b90815260200160405180910390206001018190555063bbf81e0083670de0b6b3a76400006200042991906200081d565b620004359190620008ad565b600585604051620004479190620007cb565b90815260200160405180910390206003018190555063bbf81e0082670de0b6b3a76400006200047791906200081d565b620004839190620008ad565b600585604051620004959190620007cb565b9081526020016040518091039020600401819055507fd3ebb844cb39e2f72d8f563ae711245b5f0b1c1a4cc5e596b79089db0ae830de848484600588604051620004e09190620007cb565b908152602001604051809103902060030154600589604051620005049190620007cb565b9081526020016040518091039020600401546040516200052995949392919062000948565b60405180910390a150505050565b600080fd5b600073ffffffffffffffffffffffffffffffffffffffff82169050919050565b600062000569826200053c565b9050919050565b6200057b816200055c565b81146200058757600080fd5b50565b6000815190506200059b8162000570565b92915050565b6000620005ae826200053c565b9050919050565b620005c081620005a1565b8114620005cc57600080fd5b50565b600081519050620005e081620005b5565b92915050565b600080604083850312156200060057620005ff62000537565b5b600062000610858286016200058a565b92505060206200062385828601620005cf565b9150509250929050565b600082825260208201905092915050565b7f436f6e7374727563746f722077616c6c6574732063616e6e6f74206265207a6560008201527f726f000000000000000000000000000000000000000000000000000000000000602082015250565b60006200069c6022836200062d565b9150620006a9826200063e565b604082019050919050565b60006020820190508181036000830152620006cf816200068d565b9050919050565b7f696e76616c696420706f6f6c2069640000000000000000000000000000000000600082015250565b60006200070e600f836200062d565b91506200071b82620006d6565b602082019050919050565b600060208201905081810360008301526200074181620006ff565b9050919050565b600081519050919050565b600081905092915050565b60005b838110156200077e57808201518184015260208101905062000761565b838111156200078e576000848401525b50505050565b6000620007a18262000748565b620007ad818562000753565b9350620007bf8185602086016200075e565b80840191505092915050565b6000620007d9828462000794565b915081905092915050565b6000819050919050565b7f4e487b7100000000000000000000000000000000000000000000000000000000600052601160045260246000fd5b60006200082a82620007e4565b91506200083783620007e4565b9250817fffffffffffffffffffffffffffffffffffffffffffffffffffffffffffffffff0483118215151615620008735762000872620007ee565b5b828202905092915050565b7f4e487b7100000000000000000000000000000000000000000000000000000000600052601260045260246000fd5b6000620008ba82620007e4565b9150620008c783620007e4565b925082620008da57620008d96200087e565b5b828204905092915050565b6000601f19601f8301169050919050565b6000620009038262000748565b6200090f81856200062d565b9350620009218185602086016200075e565b6200092c81620008e5565b840191505092915050565b6200094281620007e4565b82525050565b600060a0820190508181036000830152620009648188620008f6565b905062000975602083018762000937565b62000984604083018662000937565b62000993606083018562000937565b620009a2608083018462000937565b9695505050505050565b61318e80620009bc6000396000f3fe608060405234801561001057600080fd5b50600436106100f55760003560e01c8063aa0b598811610097578063ea598f5111610066578063ea598f5114610251578063eb13554f1461026d578063f2fde38b1461028b578063f5fe7f71146102a7576100f5565b8063aa0b5988146101ca578063d37c92dc146101e6578063d5bc8e0b14610202578063e5bb3a501461021e576100f5565b80638da5cb5b116100d35780638da5cb5b1461013e5780639283f0941461015c5780639494c8ae1461017a5780639d6f17a814610196576100f5565b806326232a2e146100fa578063715018a6146101185780637feea88414610122575b600080fd5b6101026102c3565b60405161010f9190611f72565b60405180910390f35b6101206102c9565b005b61013c60048036038101906101379190612113565b6102dd565b005b6101466104bd565b60405161015391906121c3565b60405180910390f35b6101646104e6565b604051610171919061223d565b60405180910390f35b610194600480360381019061018f9190612258565b61050c565b005b6101b060048036038101906101ab91906122b4565b6107ec565b6040516101c19594939291906122fd565b60405180910390f35b6101e460048036038101906101df9190612350565b610858565b005b61020060048036038101906101fb9190612258565b6108a1565b005b61021c600480360381019061021791906123dd565b610c80565b005b61023860048036038101906102339190612456565b611410565b60405161024894939291906124b2565b60405180910390f35b61026b60048036038101906102669190612113565b611463565b005b610275611607565b6040516102829190612518565b60405180910390f35b6102a560048036038101906102a09190612533565b61162d565b005b6102c160048036038101906102bc919061258c565b6116b1565b005b60025481565b6102d16117a4565b6102db6000611822565b565b3373ffffffffffffffffffffffffffffffffffffffff166005846040516103049190612633565b908152602001604051809103902060000160009054906101000a900473ffffffffffffffffffffffffffffffffffffffff1673ffffffffffffffffffffffffffffffffffffffff16148061038a57503373ffffffffffffffffffffffffffffffffffffffff166103726104bd565b73ffffffffffffffffffffffffffffffffffffffff16145b6103c9576040517f08c379a00000000000000000000000000000000000000000000000000000000081526004016103c0906126a7565b60405180910390fd5b600382101580156103db575060088211155b61041a576040517f08c379a000000000000000000000000000000000000000000000000000000000815260040161041190612713565b60405180910390fd5b600581111561045e576040517f08c379a00000000000000000000000000000000000000000000000000000000081526004016104559061277f565b60405180910390fd5b6008828261046c91906127ce565b11156104ad576040517f08c379a00000000000000000000000000000000000000000000000000000000081526004016104a490612896565b60405180910390fd5b6104b88383836118e6565b505050565b60008060009054906101000a900473ffffffffffffffffffffffffffffffffffffffff16905090565b600160009054906101000a900473ffffffffffffffffffffffffffffffffffffffff1681565b6000829050600081511415610556576040517f08c379a000000000000000000000000000000000000000000000000000000000815260040161054d90612902565b60405180910390fd5b60008211610599576040517f08c379a00000000000000000000000000000000000000000000000000000000081526004016105909061296e565b60405180910390fd5b60006105a3611a93565b9050600160009054906101000a900473ffffffffffffffffffffffffffffffffffffffff1673ffffffffffffffffffffffffffffffffffffffff166323b872dd3330866040518463ffffffff1660e01b81526004016106049392919061298e565b602060405180830381600087803b15801561061e57600080fd5b505af1158015610632573d6000803e3d6000fd5b505050506040513d601f19601f8201168201806040525081019061065691906129fd565b61065f57600080fd5b60006004856040516106719190612633565b908152602001604051809103902060003373ffffffffffffffffffffffffffffffffffffffff1673ffffffffffffffffffffffffffffffffffffffff16815260200190815260200160002060010154146106d1576106d0338286611a9b565b5b806004856040516106e29190612633565b908152602001604051809103902060003373ffffffffffffffffffffffffffffffffffffffff1673ffffffffffffffffffffffffffffffffffffffff16815260200190815260200160002060010181905550826004856040516107459190612633565b908152602001604051809103902060003373ffffffffffffffffffffffffffffffffffffffff1673ffffffffffffffffffffffffffffffffffffffff16815260200190815260200160002060000160008282546107a291906127ce565b925050819055507f2308d14ad2fe14dd80f24580b205a6008f905d88b0bf9b72b21b23b8480c70e7338285876040516107de9493929190612a63565b60405180910390a150505050565b6005818051602081018201805184825260208301602085012081835280955050505050506000915090508060000160009054906101000a900473ffffffffffffffffffffffffffffffffffffffff16908060010154908060020154908060030154908060040154905085565b6108606117a4565b806002819055507f2644fd26359c107ff7991b6dfc36ce902b334ce4e3891bbecacc5922aa620efa816040516108969190611f72565b60405180910390a150565b60008290506000815114156108eb576040517f08c379a00000000000000000000000000000000000000000000000000000000081526004016108e290612902565b60405180910390fd5b600033905060006004856040516109029190612633565b908152602001604051809103902060008373ffffffffffffffffffffffffffffffffffffffff1673ffffffffffffffffffffffffffffffffffffffff168152602001908152602001600020600001541415610992576040517f08c379a000000000000000000000000000000000000000000000000000000000815260040161098990612afb565b60405180910390fd5b6004846040516109a29190612633565b908152602001604051809103902060008273ffffffffffffffffffffffffffffffffffffffff1673ffffffffffffffffffffffffffffffffffffffff16815260200190815260200160002060000154831115806109ff5750600083145b610a3e576040517f08c379a0000000000000000000000000000000000000000000000000000000008152600401610a3590612b67565b60405180910390fd5b6000610a48611a93565b9050610a55828287611a9b565b83600486604051610a669190612633565b908152602001604051809103902060008473ffffffffffffffffffffffffffffffffffffffff1673ffffffffffffffffffffffffffffffffffffffff16815260200190815260200160002060000154610abf9190612b87565b600486604051610acf9190612633565b908152602001604051809103902060008473ffffffffffffffffffffffffffffffffffffffff1673ffffffffffffffffffffffffffffffffffffffff1681526020019081526020016000206000018190555080600486604051610b329190612633565b908152602001604051809103902060008473ffffffffffffffffffffffffffffffffffffffff1673ffffffffffffffffffffffffffffffffffffffff16815260200190815260200160002060010181905550600160009054906101000a900473ffffffffffffffffffffffffffffffffffffffff1673ffffffffffffffffffffffffffffffffffffffff1663a9059cbb83866040518363ffffffff1660e01b8152600401610be1929190612bbb565b602060405180830381600087803b158015610bfb57600080fd5b505af1158015610c0f573d6000803e3d6000fd5b505050506040513d601f19601f82011682018060405250810190610c3391906129fd565b610c3c57600080fd5b7f8fbf0edce1bd66cf87d7a725f95fc2ec31be980e61d805b8d306ce5a64ea98dd82828787604051610c719493929190612be4565b60405180910390a15050505050565b60008282905011610cc6576040517f08c379a0000000000000000000000000000000000000000000000000000000008152600401610cbd90612c7c565b60405180910390fd5b6000610cd0611a93565b905060005b8383905081101561140a576000848483818110610cf557610cf4612c9c565b5b9050602002810190610d079190612cda565b6000016020810190610d199190612533565b90506000858584818110610d3057610d2f612c9c565b5b9050602002810190610d429190612cda565b8060200190610d519190612d02565b8080601f016020809104026020016040519081016040528093929190818152602001838380828437600081840152601f19601f8201169050808301925050505050505090503373ffffffffffffffffffffffffffffffffffffffff16600582604051610dbd9190612633565b908152602001604051809103902060000160009054906101000a900473ffffffffffffffffffffffffffffffffffffffff1673ffffffffffffffffffffffffffffffffffffffff161480610e4357503373ffffffffffffffffffffffffffffffffffffffff16610e2b6104bd565b73ffffffffffffffffffffffffffffffffffffffff16145b610e82576040517f08c379a0000000000000000000000000000000000000000000000000000000008152600401610e79906126a7565b60405180910390fd5b6000819050600081511415610e99575050506113f7565b610ea4838684611a9b565b6000600483604051610eb69190612633565b908152602001604051809103902060008573ffffffffffffffffffffffffffffffffffffffff1673ffffffffffffffffffffffffffffffffffffffff1681526020019081526020016000206002015490506000600484604051610f199190612633565b908152602001604051809103902060008673ffffffffffffffffffffffffffffffffffffffff1673ffffffffffffffffffffffffffffffffffffffff16815260200190815260200160002060030154905060008060006002541115610fcd57606460025485610f889190612d65565b610f929190612dee565b91508184610fa09190612b87565b9350606460025484610fb29190612d65565b610fbc9190612dee565b90508083610fca9190612b87565b92505b6000600487604051610fdf9190612633565b908152602001604051809103902060008973ffffffffffffffffffffffffffffffffffffffff1673ffffffffffffffffffffffffffffffffffffffff1681526020019081526020016000206002018190555060006004876040516110439190612633565b908152602001604051809103902060008973ffffffffffffffffffffffffffffffffffffffff1673ffffffffffffffffffffffffffffffffffffffff16815260200190815260200160002060030181905550886004876040516110a69190612633565b908152602001604051809103902060008973ffffffffffffffffffffffffffffffffffffffff1673ffffffffffffffffffffffffffffffffffffffff1681526020019081526020016000206001018190555060008411156111ba57600160009054906101000a900473ffffffffffffffffffffffffffffffffffffffff1673ffffffffffffffffffffffffffffffffffffffff1663a9059cbb88866040518363ffffffff1660e01b815260040161115e929190612bbb565b602060405180830381600087803b15801561117857600080fd5b505af115801561118c573d6000803e3d6000fd5b505050506040513d601f19601f820116820180604052508101906111b091906129fd565b6111b957600080fd5b5b60008311156112bd57600160009054906101000a900473ffffffffffffffffffffffffffffffffffffffff1673ffffffffffffffffffffffffffffffffffffffff1663a9059cbb6005886040516112119190612633565b908152602001604051809103902060000160009054906101000a900473ffffffffffffffffffffffffffffffffffffffff16856040518363ffffffff1660e01b8152600401611261929190612bbb565b602060405180830381600087803b15801561127b57600080fd5b505af115801561128f573d6000803e3d6000fd5b505050506040513d601f19601f820116820180604052508101906112b391906129fd565b6112bc57600080fd5b5b60008211156113ac57600160009054906101000a900473ffffffffffffffffffffffffffffffffffffffff1673ffffffffffffffffffffffffffffffffffffffff1663a9059cbb600360009054906101000a900473ffffffffffffffffffffffffffffffffffffffff16838561133391906127ce565b6040518363ffffffff1660e01b8152600401611350929190612e40565b602060405180830381600087803b15801561136a57600080fd5b505af115801561137e573d6000803e3d6000fd5b505050506040513d601f19601f820116820180604052508101906113a291906129fd565b6113ab57600080fd5b5b7f418b81ea3758cb2400252cd70fcd9f242eea6821793acf34a65140130535ea5087878b878787876040516113e79796959493929190612e69565b60405180910390a1505050505050505b808061140290612edf565b915050610cd5565b50505050565b600482805160208101820180518482526020830160208501208183528095505050505050602052806000526040600020600091509150508060000154908060010154908060020154908060030154905084565b600073ffffffffffffffffffffffffffffffffffffffff1660058460405161148b9190612633565b908152602001604051809103902060000160009054906101000a900473ffffffffffffffffffffffffffffffffffffffff1673ffffffffffffffffffffffffffffffffffffffff1614611513576040517f08c379a000000000000000000000000000000000000000000000000000000000815260040161150a90612f74565b60405180910390fd5b60038210158015611525575060088211155b611564576040517f08c379a000000000000000000000000000000000000000000000000000000000815260040161155b90612713565b60405180910390fd5b60058111156115a8576040517f08c379a000000000000000000000000000000000000000000000000000000000815260040161159f9061277f565b60405180910390fd5b600882826115b691906127ce565b11156115f7576040517f08c379a00000000000000000000000000000000000000000000000000000000081526004016115ee90612896565b60405180910390fd5b611602838383611e96565b505050565b600360009054906101000a900473ffffffffffffffffffffffffffffffffffffffff1681565b6116356117a4565b600073ffffffffffffffffffffffffffffffffffffffff168173ffffffffffffffffffffffffffffffffffffffff1614156116a5576040517f08c379a000000000000000000000000000000000000000000000000000000000815260040161169c90613006565b60405180910390fd5b6116ae81611822565b50565b6116b96117a4565b600073ffffffffffffffffffffffffffffffffffffffff168173ffffffffffffffffffffffffffffffffffffffff161415611729576040517f08c379a000000000000000000000000000000000000000000000000000000000815260040161172090613072565b60405180910390fd5b80600360006101000a81548173ffffffffffffffffffffffffffffffffffffffff021916908373ffffffffffffffffffffffffffffffffffffffff1602179055507fe57e7c1f36cc83fade34e32351e6eee7eb9da532662b1b5da10c631e8222aca7816040516117999190612518565b60405180910390a150565b6117ac611f51565b73ffffffffffffffffffffffffffffffffffffffff166117ca6104bd565b73ffffffffffffffffffffffffffffffffffffffff1614611820576040517f08c379a0000000000000000000000000000000000000000000000000000000008152600401611817906130de565b60405180910390fd5b565b60008060009054906101000a900473ffffffffffffffffffffffffffffffffffffffff169050816000806101000a81548173ffffffffffffffffffffffffffffffffffffffff021916908373ffffffffffffffffffffffffffffffffffffffff1602179055508173ffffffffffffffffffffffffffffffffffffffff168173ffffffffffffffffffffffffffffffffffffffff167f8be0079c531659141344cd1fd0a4f28419497f9722a3daafe3b4186f6b6457e060405160405180910390a35050565b6000839050600081511415611930576040517f08c379a000000000000000000000000000000000000000000000000000000000815260040161192790612902565b60405180910390fd5b826005856040516119419190612633565b908152602001604051809103902060020181905550816005856040516119679190612633565b90815260200160405180910390206001018190555063bbf81e0083670de0b6b3a76400006119959190612d65565b61199f9190612dee565b6005856040516119af9190612633565b90815260200160405180910390206003018190555063bbf81e0082670de0b6b3a76400006119dd9190612d65565b6119e79190612dee565b6005856040516119f79190612633565b9081526020016040518091039020600401819055507fd3ebb844cb39e2f72d8f563ae711245b5f0b1c1a4cc5e596b79089db0ae830de848484600588604051611a409190612633565b908152602001604051809103902060030154600589604051611a629190612633565b908152602001604051809103902060040154604051611a859594939291906130fe565b60405180910390a150505050565b600042905090565b6000819050600081511415611ae5576040517f08c379a0000000000000000000000000000000000000000000000000000000008152600401611adc90612902565b60405180910390fd5b6000600483604051611af79190612633565b908152602001604051809103902060008673ffffffffffffffffffffffffffffffffffffffff1673ffffffffffffffffffffffffffffffffffffffff1681526020019081526020016000206001015484611b519190612b87565b9050600064017a029afc9050600080600586604051611b709190612633565b90815260200160405180910390206003015410611bac57600585604051611b979190612633565b90815260200160405180910390206003015491505b6000600586604051611bbe9190612633565b90815260200160405180910390206004015410611bfa57600585604051611be59190612633565b90815260200160405180910390206004015490505b670de0b6b3a7640000600486604051611c139190612633565b908152602001604051809103902060008973ffffffffffffffffffffffffffffffffffffffff1673ffffffffffffffffffffffffffffffffffffffff168152602001908152602001600020600001548484611c6e9190612d65565b611c789190612d65565b611c829190612dee565b600486604051611c929190612633565b908152602001604051809103902060008973ffffffffffffffffffffffffffffffffffffffff1673ffffffffffffffffffffffffffffffffffffffff1681526020019081526020016000206002016000828254611cef91906127ce565b92505081905550670de0b6b3a7640000600486604051611d0f9190612633565b908152602001604051809103902060008973ffffffffffffffffffffffffffffffffffffffff1673ffffffffffffffffffffffffffffffffffffffff168152602001908152602001600020600001548483611d6a9190612d65565b611d749190612d65565b611d7e9190612dee565b600486604051611d8e9190612633565b908152602001604051809103902060008973ffffffffffffffffffffffffffffffffffffffff1673ffffffffffffffffffffffffffffffffffffffff1681526020019081526020016000206003016000828254611deb91906127ce565b925050819055507f104ad64895f6ea3e87bdc469d3d354717a78531cd0a8d33e0b835bf067b7a640878787600489604051611e269190612633565b908152602001604051809103902060008c73ffffffffffffffffffffffffffffffffffffffff1673ffffffffffffffffffffffffffffffffffffffff16815260200190815260200160002060020154604051611e859493929190612be4565b60405180910390a150505050505050565b6000839050600081511415611ee0576040517f08c379a0000000000000000000000000000000000000000000000000000000008152600401611ed790612902565b60405180910390fd5b33600585604051611ef19190612633565b908152602001604051809103902060000160006101000a81548173ffffffffffffffffffffffffffffffffffffffff021916908373ffffffffffffffffffffffffffffffffffffffff160217905550611f4b8484846118e6565b50505050565b600033905090565b6000819050919050565b611f6c81611f59565b82525050565b6000602082019050611f876000830184611f63565b92915050565b6000604051905090565b600080fd5b600080fd5b600080fd5b600080fd5b6000601f19601f8301169050919050565b7f4e487b7100000000000000000000000000000000000000000000000000000000600052604160045260246000fd5b611ff482611fab565b810181811067ffffffffffffffff8211171561201357612012611fbc565b5b80604052505050565b6000612026611f8d565b90506120328282611feb565b919050565b600067ffffffffffffffff82111561205257612051611fbc565b5b61205b82611fab565b9050602081019050919050565b82818337600083830152505050565b600061208a61208584612037565b61201c565b9050828152602081018484840111156120a6576120a5611fa6565b5b6120b1848285612068565b509392505050565b600082601f8301126120ce576120cd611fa1565b5b81356120de848260208601612077565b91505092915050565b6120f081611f59565b81146120fb57600080fd5b50565b60008135905061210d816120e7565b92915050565b60008060006060848603121561212c5761212b611f97565b5b600084013567ffffffffffffffff81111561214a57612149611f9c565b5b612156868287016120b9565b9350506020612167868287016120fe565b9250506040612178868287016120fe565b9150509250925092565b600073ffffffffffffffffffffffffffffffffffffffff82169050919050565b60006121ad82612182565b9050919050565b6121bd816121a2565b82525050565b60006020820190506121d860008301846121b4565b92915050565b6000819050919050565b60006122036121fe6121f984612182565b6121de565b612182565b9050919050565b6000612215826121e8565b9050919050565b60006122278261220a565b9050919050565b6122378161221c565b82525050565b6000602082019050612252600083018461222e565b92915050565b6000806040838503121561226f5761226e611f97565b5b600083013567ffffffffffffffff81111561228d5761228c611f9c565b5b612299858286016120b9565b92505060206122aa858286016120fe565b9150509250929050565b6000602082840312156122ca576122c9611f97565b5b600082013567ffffffffffffffff8111156122e8576122e7611f9c565b5b6122f4848285016120b9565b91505092915050565b600060a08201905061231260008301886121b4565b61231f6020830187611f63565b61232c6040830186611f63565b6123396060830185611f63565b6123466080830184611f63565b9695505050505050565b60006020828403121561236657612365611f97565b5b6000612374848285016120fe565b91505092915050565b600080fd5b600080fd5b60008083601f84011261239d5761239c611fa1565b5b8235905067ffffffffffffffff8111156123ba576123b961237d565b5b6020830191508360208202830111156123d6576123d5612382565b5b9250929050565b600080602083850312156123f4576123f3611f97565b5b600083013567ffffffffffffffff81111561241257612411611f9c565b5b61241e85828601612387565b92509250509250929050565b612433816121a2565b811461243e57600080fd5b50565b6000813590506124508161242a565b92915050565b6000806040838503121561246d5761246c611f97565b5b600083013567ffffffffffffffff81111561248b5761248a611f9c565b5b612497858286016120b9565b92505060206124a885828601612441565b9150509250929050565b60006080820190506124c76000830187611f63565b6124d46020830186611f63565b6124e16040830185611f63565b6124ee6060830184611f63565b95945050505050565b600061250282612182565b9050919050565b612512816124f7565b82525050565b600060208201905061252d6000830184612509565b92915050565b60006020828403121561254957612548611f97565b5b600061255784828501612441565b91505092915050565b612569816124f7565b811461257457600080fd5b50565b60008135905061258681612560565b92915050565b6000602082840312156125a2576125a1611f97565b5b60006125b084828501612577565b91505092915050565b600081519050919050565b600081905092915050565b60005b838110156125ed5780820151818401526020810190506125d2565b838111156125fc576000848401525b50505050565b600061260d826125b9565b61261781856125c4565b93506126278185602086016125cf565b80840191505092915050565b600061263f8284612602565b915081905092915050565b600082825260208201905092915050565b7f6e6f7420706f6f6c206f776e6572206f722061646d696e000000000000000000600082015250565b600061269160178361264a565b915061269c8261265b565b602082019050919050565b600060208201905081810360008301526126c081612684565b9050919050565b7f696e76616c69642072657475726e2076616c7565000000000000000000000000600082015250565b60006126fd60148361264a565b9150612708826126c7565b602082019050919050565b6000602082019050818103600083015261272c816126f0565b9050919050565b7f696e76616c69642072657475726e20746f206f776e65722076616c7565000000600082015250565b6000612769601d8361264a565b915061277482612733565b602082019050919050565b600060208201905081810360008301526127988161275c565b9050919050565b7f4e487b7100000000000000000000000000000000000000000000000000000000600052601160045260246000fd5b60006127d982611f59565b91506127e483611f59565b9250827fffffffffffffffffffffffffffffffffffffffffffffffffffffffffffffffff038211156128195761281861279f565b5b828201905092915050565b7f746f74616c2072657475726e206d757374206265206c657373207468616e206f60008201527f7220657175616c20380000000000000000000000000000000000000000000000602082015250565b600061288060298361264a565b915061288b82612824565b604082019050919050565b600060208201905081810360008301526128af81612873565b9050919050565b7f696e76616c696420706f6f6c2069640000000000000000000000000000000000600082015250565b60006128ec600f8361264a565b91506128f7826128b6565b602082019050919050565b6000602082019050818103600083015261291b816128df565b9050919050565b7f616d6f756e74206d757374206265206c6172676572207468616e207a65726f00600082015250565b6000612958601f8361264a565b915061296382612922565b602082019050919050565b600060208201905081810360008301526129878161294b565b9050919050565b60006060820190506129a360008301866121b4565b6129b060208301856121b4565b6129bd6040830184611f63565b949350505050565b60008115159050919050565b6129da816129c5565b81146129e557600080fd5b50565b6000815190506129f7816129d1565b92915050565b600060208284031215612a1357612a12611f97565b5b6000612a21848285016129e8565b91505092915050565b6000612a35826125b9565b612a3f818561264a565b9350612a4f8185602086016125cf565b612a5881611fab565b840191505092915050565b6000608082019050612a7860008301876121b4565b612a856020830186611f63565b612a926040830185611f63565b8181036060830152612aa48184612a2a565b905095945050505050565b7f3100000000000000000000000000000000000000000000000000000000000000600082015250565b6000612ae560018361264a565b9150612af082612aaf565b602082019050919050565b60006020820190508181036000830152612b1481612ad8565b9050919050565b7f3138000000000000000000000000000000000000000000000000000000000000600082015250565b6000612b5160028361264a565b9150612b5c82612b1b565b602082019050919050565b60006020820190508181036000830152612b8081612b44565b9050919050565b6000612b9282611f59565b9150612b9d83611f59565b925082821015612bb057612baf61279f565b5b828203905092915050565b6000604082019050612bd060008301856121b4565b612bdd6020830184611f63565b9392505050565b6000608082019050612bf960008301876121b4565b612c066020830186611f63565b8181036040830152612c188185612a2a565b9050612c276060830184611f63565b95945050505050565b7f3233000000000000000000000000000000000000000000000000000000000000600082015250565b6000612c6660028361264a565b9150612c7182612c30565b602082019050919050565b60006020820190508181036000830152612c9581612c59565b9050919050565b7f4e487b7100000000000000000000000000000000000000000000000000000000600052603260045260246000fd5b600080fd5b600080fd5b600080fd5b600082356001604003833603038112612cf657612cf5612ccb565b5b80830191505092915050565b60008083356001602003843603038112612d1f57612d1e612ccb565b5b80840192508235915067ffffffffffffffff821115612d4157612d40612cd0565b5b602083019250600182023603831315612d5d57612d5c612cd5565b5b509250929050565b6000612d7082611f59565b9150612d7b83611f59565b9250817fffffffffffffffffffffffffffffffffffffffffffffffffffffffffffffffff0483118215151615612db457612db361279f565b5b828202905092915050565b7f4e487b7100000000000000000000000000000000000000000000000000000000600052601260045260246000fd5b6000612df982611f59565b9150612e0483611f59565b925082612e1457612e13612dbf565b5b828204905092915050565b6000612e2a8261220a565b9050919050565b612e3a81612e1f565b82525050565b6000604082019050612e556000830185612e31565b612e626020830184611f63565b9392505050565b600060e082019050612e7e600083018a6121b4565b8181036020830152612e908189612a2a565b9050612e9f6040830188611f63565b612eac6060830187611f63565b612eb96080830186611f63565b612ec660a0830185611f63565b612ed360c0830184611f63565b98975050505050505050565b6000612eea82611f59565b91507fffffffffffffffffffffffffffffffffffffffffffffffffffffffffffffffff821415612f1d57612f1c61279f565b5b600182019050919050565b7f706f6f6c20657869737473000000000000000000000000000000000000000000600082015250565b6000612f5e600b8361264a565b9150612f6982612f28565b602082019050919050565b60006020820190508181036000830152612f8d81612f51565b9050919050565b7f4f776e61626c653a206e6577206f776e657220697320746865207a65726f206160008201527f6464726573730000000000000000000000000000000000000000000000000000602082015250565b6000612ff060268361264a565b9150612ffb82612f94565b604082019050919050565b6000602082019050818103600083015261301f81612fe3565b9050919050565b7f3231000000000000000000000000000000000000000000000000000000000000600082015250565b600061305c60028361264a565b915061306782613026565b602082019050919050565b6000602082019050818103600083015261308b8161304f565b9050919050565b7f4f776e61626c653a2063616c6c6572206973206e6f7420746865206f776e6572600082015250565b60006130c860208361264a565b91506130d382613092565b602082019050919050565b600060208201905081810360008301526130f7816130bb565b9050919050565b600060a08201905081810360008301526131188188612a2a565b90506131276020830187611f63565b6131346040830186611f63565b6131416060830185611f63565b61314e6080830184611f63565b969550505050505056fea26469706673582212200fdb86909b0093c9f5c85cddd50614bff95e5d40b5fb80c5fd9b716beec5bec564736f6c63430008090033",
  "linkReferences": {},
  "deployedLinkReferences": {}
}