{
  "_format": "hh-sol-artifact-1",
  "contractName": "DbAudioUpgrable",
  "sourceName": "contracts/DbAudioUpgrable.sol",
  "abi": [
    {
      "anonymous": false,
      "inputs": [
        {
          "indexed": true,
          "internalType": "address",
          "name": "owner",
          "type": "address"
        },
        {
          "indexed": true,
          "internalType": "address",
          "name": "approved",
          "type": "address"
        },
        {
          "indexed": true,
          "internalType": "uint256",
          "name": "tokenId",
          "type": "uint256"
        }
      ],
      "name": "Approval",
      "type": "event"
    },
    {
      "anonymous": false,
      "inputs": [
        {
          "indexed": true,
          "internalType": "address",
          "name": "owner",
          "type": "address"
        },
        {
          "indexed": true,
          "internalType": "address",
          "name": "operator",
          "type": "address"
        },
        {
          "indexed": false,
          "internalType": "bool",
          "name": "approved",
          "type": "bool"
        }
      ],
      "name": "ApprovalForAll",
      "type": "event"
    },
    {
      "anonymous": false,
      "inputs": [
        {
          "indexed": false,
          "internalType": "string",
          "name": "uri",
          "type": "string"
        },
        {
          "indexed": false,
          "internalType": "uint256",
          "name": "startPrice",
          "type": "uint256"
        },
        {
          "indexed": false,
          "internalType": "uint256",
          "name": "startTime",
          "type": "uint256"
        },
        {
          "indexed": false,
          "internalType": "uint256",
          "name": "endTime",
          "type": "uint256"
        }
      ],
      "name": "BidEvent",
      "type": "event"
    },
    {
      "anonymous": false,
      "inputs": [
        {
          "indexed": false,
          "internalType": "string",
          "name": "uri",
          "type": "string"
        },
        {
          "indexed": false,
          "internalType": "uint256",
          "name": "index",
          "type": "uint256"
        }
      ],
      "name": "CreateNFT",
      "type": "event"
    },
    {
      "anonymous": false,
      "inputs": [
        {
          "indexed": false,
          "internalType": "uint8",
          "name": "version",
          "type": "uint8"
        }
      ],
      "name": "Initialized",
      "type": "event"
    },
    {
      "anonymous": false,
      "inputs": [
        {
          "indexed": true,
          "internalType": "address",
          "name": "previousOwner",
          "type": "address"
        },
        {
          "indexed": true,
          "internalType": "address",
          "name": "newOwner",
          "type": "address"
        }
      ],
      "name": "OwnershipTransferred",
      "type": "event"
    },
    {
      "anonymous": false,
      "inputs": [
        {
          "indexed": false,
          "internalType": "string",
          "name": "uri",
          "type": "string"
        },
        {
          "indexed": false,
          "internalType": "address",
          "name": "oldowner",
          "type": "address"
        },
        {
          "indexed": false,
          "internalType": "address",
          "name": "newowner",
          "type": "address"
        },
        {
          "indexed": false,
          "internalType": "uint256",
          "name": "price",
          "type": "uint256"
        }
      ],
      "name": "SettleBidding",
      "type": "event"
    },
    {
      "anonymous": false,
      "inputs": [
        {
          "indexed": true,
          "internalType": "address",
          "name": "from",
          "type": "address"
        },
        {
          "indexed": true,
          "internalType": "address",
          "name": "to",
          "type": "address"
        },
        {
          "indexed": true,
          "internalType": "uint256",
          "name": "tokenId",
          "type": "uint256"
        }
      ],
      "name": "Transfer",
      "type": "event"
    },
    {
      "inputs": [
        {
          "internalType": "address",
          "name": "to",
          "type": "address"
        },
        {
          "internalType": "uint256",
          "name": "tokenId",
          "type": "uint256"
        }
      ],
      "name": "approve",
      "outputs": [],
      "stateMutability": "nonpayable",
      "type": "function"
    },
    {
      "inputs": [
        {
          "internalType": "address",
          "name": "owner",
          "type": "address"
        }
      ],
      "name": "balanceOf",
      "outputs": [
        {
          "internalType": "uint256",
          "name": "",
          "type": "uint256"
        }
      ],
      "stateMutability": "view",
      "type": "function"
    },
    {
      "inputs": [
        {
          "internalType": "string",
          "name": "uri",
          "type": "string"
        },
        {
          "internalType": "uint256",
          "name": "_amount",
          "type": "uint256"
        }
      ],
      "name": "bid",
      "outputs": [],
      "stateMutability": "payable",
      "type": "function"
    },
    {
      "inputs": [
        {
          "internalType": "string",
          "name": "uri",
          "type": "string"
        },
        {
          "internalType": "uint256",
          "name": "startPrice",
          "type": "uint256"
        },
        {
          "internalType": "uint256",
          "name": "startTime",
          "type": "uint256"
        },
        {
          "internalType": "uint256",
          "name": "endTime",
          "type": "uint256"
        }
      ],
      "name": "createBidding",
      "outputs": [],
      "stateMutability": "payable",
      "type": "function"
    },
    {
      "inputs": [
        {
          "internalType": "string",
          "name": "uri",
          "type": "string"
        },
        {
          "internalType": "string",
          "name": "name",
          "type": "string"
        },
        {
          "internalType": "uint256",
          "name": "price",
          "type": "uint256"
        }
      ],
      "name": "createNFT",
      "outputs": [
        {
          "internalType": "uint256",
          "name": "",
          "type": "uint256"
        }
      ],
      "stateMutability": "nonpayable",
      "type": "function"
    },
    {
      "inputs": [],
      "name": "dbToken",
      "outputs": [
        {
          "internalType": "contract IERC20",
          "name": "",
          "type": "address"
        }
      ],
      "stateMutability": "view",
      "type": "function"
    },
    {
      "inputs": [
        {
          "internalType": "uint256",
          "name": "tokenId",
          "type": "uint256"
        }
      ],
      "name": "getApproved",
      "outputs": [
        {
          "internalType": "address",
          "name": "",
          "type": "address"
        }
      ],
      "stateMutability": "view",
      "type": "function"
    },
    {
      "inputs": [
        {
          "internalType": "uint256",
          "name": "",
          "type": "uint256"
        }
      ],
      "name": "indexOfToken",
      "outputs": [
        {
          "internalType": "uint256",
          "name": "",
          "type": "uint256"
        }
      ],
      "stateMutability": "view",
      "type": "function"
    },
    {
      "inputs": [],
      "name": "initialize",
      "outputs": [],
      "stateMutability": "nonpayable",
      "type": "function"
    },
    {
      "inputs": [
        {
          "internalType": "address",
          "name": "owner",
          "type": "address"
        },
        {
          "internalType": "address",
          "name": "operator",
          "type": "address"
        }
      ],
      "name": "isApprovedForAll",
      "outputs": [
        {
          "internalType": "bool",
          "name": "",
          "type": "bool"
        }
      ],
      "stateMutability": "view",
      "type": "function"
    },
    {
      "inputs": [
        {
          "internalType": "string",
          "name": "",
          "type": "string"
        }
      ],
      "name": "listNFT",
      "outputs": [
        {
          "internalType": "address",
          "name": "owner",
          "type": "address"
        },
        {
          "internalType": "string",
          "name": "url",
          "type": "string"
        },
        {
          "internalType": "string",
          "name": "name",
          "type": "string"
        },
        {
          "internalType": "uint256",
          "name": "price",
          "type": "uint256"
        },
        {
          "internalType": "enum DbAudioUpgrable.AudioStatus",
          "name": "status",
          "type": "uint8"
        },
        {
          "internalType": "uint256",
          "name": "currentBidding",
          "type": "uint256"
        }
      ],
      "stateMutability": "view",
      "type": "function"
    },
    {
      "inputs": [
        {
          "internalType": "address",
          "name": "",
          "type": "address"
        },
        {
          "internalType": "uint256",
          "name": "",
          "type": "uint256"
        }
      ],
      "name": "listOwnToken",
      "outputs": [
        {
          "internalType": "uint256",
          "name": "",
          "type": "uint256"
        }
      ],
      "stateMutability": "view",
      "type": "function"
    },
    {
      "inputs": [],
      "name": "name",
      "outputs": [
        {
          "internalType": "string",
          "name": "",
          "type": "string"
        }
      ],
      "stateMutability": "view",
      "type": "function"
    },
    {
      "inputs": [],
      "name": "owner",
      "outputs": [
        {
          "internalType": "address",
          "name": "",
          "type": "address"
        }
      ],
      "stateMutability": "view",
      "type": "function"
    },
    {
      "inputs": [
        {
          "internalType": "uint256",
          "name": "tokenId",
          "type": "uint256"
        }
      ],
      "name": "ownerOf",
      "outputs": [
        {
          "internalType": "address",
          "name": "",
          "type": "address"
        }
      ],
      "stateMutability": "view",
      "type": "function"
    },
    {
      "inputs": [],
      "name": "renounceOwnership",
      "outputs": [],
      "stateMutability": "nonpayable",
      "type": "function"
    },
    {
      "inputs": [
        {
          "internalType": "address",
          "name": "from",
          "type": "address"
        },
        {
          "internalType": "address",
          "name": "to",
          "type": "address"
        },
        {
          "internalType": "uint256",
          "name": "tokenId",
          "type": "uint256"
        }
      ],
      "name": "safeTransferFrom",
      "outputs": [],
      "stateMutability": "nonpayable",
      "type": "function"
    },
    {
      "inputs": [
        {
          "internalType": "address",
          "name": "from",
          "type": "address"
        },
        {
          "internalType": "address",
          "name": "to",
          "type": "address"
        },
        {
          "internalType": "uint256",
          "name": "tokenId",
          "type": "uint256"
        },
        {
          "internalType": "bytes",
          "name": "_data",
          "type": "bytes"
        }
      ],
      "name": "safeTransferFrom",
      "outputs": [],
      "stateMutability": "nonpayable",
      "type": "function"
    },
    {
      "inputs": [
        {
          "internalType": "address",
          "name": "operator",
          "type": "address"
        },
        {
          "internalType": "bool",
          "name": "approved",
          "type": "bool"
        }
      ],
      "name": "setApprovalForAll",
      "outputs": [],
      "stateMutability": "nonpayable",
      "type": "function"
    },
    {
      "inputs": [
        {
          "internalType": "uint256",
          "name": "share",
          "type": "uint256"
        }
      ],
      "name": "setSharePercent",
      "outputs": [],
      "stateMutability": "nonpayable",
      "type": "function"
    },
    {
      "inputs": [
        {
          "internalType": "string",
          "name": "uri",
          "type": "string"
        }
      ],
      "name": "settleBiddingSession",
      "outputs": [],
      "stateMutability": "payable",
      "type": "function"
    },
    {
      "inputs": [],
      "name": "sharePercent",
      "outputs": [
        {
          "internalType": "uint256",
          "name": "",
          "type": "uint256"
        }
      ],
      "stateMutability": "view",
      "type": "function"
    },
    {
      "inputs": [
        {
          "internalType": "bytes4",
          "name": "interfaceId",
          "type": "bytes4"
        }
      ],
      "name": "supportsInterface",
      "outputs": [
        {
          "internalType": "bool",
          "name": "",
          "type": "bool"
        }
      ],
      "stateMutability": "view",
      "type": "function"
    },
    {
      "inputs": [],
      "name": "symbol",
      "outputs": [
        {
          "internalType": "string",
          "name": "",
          "type": "string"
        }
      ],
      "stateMutability": "view",
      "type": "function"
    },
    {
      "inputs": [
        {
          "internalType": "string",
          "name": "",
          "type": "string"
        }
      ],
      "name": "tokenIdMapping",
      "outputs": [
        {
          "internalType": "uint256",
          "name": "",
          "type": "uint256"
        }
      ],
      "stateMutability": "view",
      "type": "function"
    },
    {
      "inputs": [
        {
          "internalType": "uint256",
          "name": "tokenId",
          "type": "uint256"
        }
      ],
      "name": "tokenURI",
      "outputs": [
        {
          "internalType": "string",
          "name": "",
          "type": "string"
        }
      ],
      "stateMutability": "view",
      "type": "function"
    },
    {
      "inputs": [
        {
          "internalType": "address",
          "name": "from",
          "type": "address"
        },
        {
          "internalType": "address",
          "name": "to",
          "type": "address"
        },
        {
          "internalType": "uint256",
          "name": "tokenId",
          "type": "uint256"
        }
      ],
      "name": "transferFrom",
      "outputs": [],
      "stateMutability": "nonpayable",
      "type": "function"
    },
    {
      "inputs": [
        {
          "internalType": "string",
          "name": "uri",
          "type": "string"
        },
        {
          "internalType": "address",
          "name": "to",
          "type": "address"
        }
      ],
      "name": "transferNFT",
      "outputs": [],
      "stateMutability": "nonpayable",
      "type": "function"
    },
    {
      "inputs": [
        {
          "internalType": "address",
          "name": "newOwner",
          "type": "address"
        }
      ],
      "name": "transferOwnership",
      "outputs": [],
      "stateMutability": "nonpayable",
      "type": "function"
    },
    {
      "inputs": [
        {
          "internalType": "uint256",
          "name": "money",
          "type": "uint256"
        }
      ],
      "name": "withDrawAll",
      "outputs": [],
      "stateMutability": "nonpayable",
      "type": "function"
    }
  ],
  "bytecode": "0x608060405234801561001057600080fd5b50615f8d80620000216000396000f3fe6080604052600436106101cd5760003560e01c8063715018a6116100f7578063b88eabdd11610095578063d8189e0511610064578063d8189e0514610681578063e985e9c5146106be578063f2fde38b146106fb578063ff41edbc14610724576101cd565b8063b88eabdd146105b3578063c15edf5f146105f0578063c87b56dd1461061b578063cf023fdd14610658576101cd565b806395d89b41116100d157806395d89b411461050d578063a22cb46514610538578063ab8a802014610561578063b88d4fde1461058a576101cd565b8063715018a6146104b45780638129fc1c146104cb5780638da5cb5b146104e2576101cd565b806342842e0e1161016f5780635f4833131161013e5780635f483313146103e15780635ffd9d07146103fd5780636352211e1461043a57806370a0823114610477576101cd565b806342842e0e1461032f5780634387330e14610358578063480058481461039a5780635f00baa7146103b6576101cd565b8063095ea7b3116101ab578063095ea7b31461027757806323b872dd146102a05780633241d34a146102c9578063411e9ef214610306576101cd565b806301ffc9a7146101d257806306fdde031461020f578063081812fc1461023a575b600080fd5b3480156101de57600080fd5b506101f960048036038101906101f4919061445d565b610740565b6040516102069190614dfc565b60405180910390f35b34801561021b57600080fd5b50610224610822565b6040516102319190614e4d565b60405180910390f35b34801561024657600080fd5b50610261600480360381019061025c9190614692565b6108b4565b60405161026e9190614cc6565b60405180910390f35b34801561028357600080fd5b5061029e600480360381019061029991906143f8565b6108fa565b005b3480156102ac57600080fd5b506102c760048036038101906102c291906142f2565b610a12565b005b3480156102d557600080fd5b506102f060048036038101906102eb9190614544565b610ce1565b6040516102fd9190615317565b60405180910390f35b34801561031257600080fd5b5061032d60048036038101906103289190614692565b61104f565b005b34801561033b57600080fd5b50610356600480360381019061035191906142f2565b6110b3565b005b34801561036457600080fd5b5061037f600480360381019061037a91906144af565b6110d3565b60405161039196959493929190614d64565b60405180910390f35b6103b460048036038101906103af9190614617565b611262565b005b3480156103c257600080fd5b506103cb611758565b6040516103d89190614e17565b60405180910390f35b6103fb60048036038101906103f691906145c3565b61177f565b005b34801561040957600080fd5b50610424600480360381019061041f9190614692565b611d04565b6040516104319190615317565b60405180910390f35b34801561044657600080fd5b50610461600480360381019061045c9190614692565b611d1c565b60405161046e9190614cc6565b60405180910390f35b34801561048357600080fd5b5061049e6004803603810190610499919061428d565b611dce565b6040516104ab9190615317565b60405180910390f35b3480156104c057600080fd5b506104c9611e86565b005b3480156104d757600080fd5b506104e0611e9a565b005b3480156104ee57600080fd5b506104f76120b3565b6040516105049190614cc6565b60405180910390f35b34801561051957600080fd5b506105226120dd565b60405161052f9190614e4d565b60405180910390f35b34801561054457600080fd5b5061055f600480360381019061055a91906143bc565b61216f565b005b34801561056d57600080fd5b5061058860048036038101906105839190614692565b612185565b005b34801561059657600080fd5b506105b160048036038101906105ac9190614341565b6121d7565b005b3480156105bf57600080fd5b506105da60048036038101906105d591906144af565b6124a8565b6040516105e79190615317565b60405180910390f35b3480156105fc57600080fd5b506106056124d6565b6040516106129190615317565b60405180910390f35b34801561062757600080fd5b50610642600480360381019061063d9190614692565b6124dd565b60405161064f9190614e4d565b60405180910390f35b34801561066457600080fd5b5061067f600480360381019061067a91906144f0565b6124ef565b005b34801561068d57600080fd5b506106a860048036038101906106a391906143f8565b612675565b6040516106b59190615317565b60405180910390f35b3480156106ca57600080fd5b506106e560048036038101906106e091906142b6565b6126a6565b6040516106f29190614dfc565b60405180910390f35b34801561070757600080fd5b50610722600480360381019061071d919061428d565b61273a565b005b61073e600480360381019061073991906144af565b6127be565b005b60007f80ac58cd000000000000000000000000000000000000000000000000000000007bffffffffffffffffffffffffffffffffffffffffffffffffffffffff1916827bffffffffffffffffffffffffffffffffffffffffffffffffffffffff1916148061080b57507f5b5e139f000000000000000000000000000000000000000000000000000000007bffffffffffffffffffffffffffffffffffffffffffffffffffffffff1916827bffffffffffffffffffffffffffffffffffffffffffffffffffffffff1916145b8061081b575061081a82612e91565b5b9050919050565b6060606580546108319061564f565b80601f016020809104026020016040519081016040528092919081815260200182805461085d9061564f565b80156108aa5780601f1061087f576101008083540402835291602001916108aa565b820191906000526020600020905b81548152906001019060200180831161088d57829003601f168201915b5050505050905090565b60006108bf82612efb565b6069600083815260200190815260200160002060009054906101000a900473ffffffffffffffffffffffffffffffffffffffff169050919050565b600061090582611d1c565b90508073ffffffffffffffffffffffffffffffffffffffff168373ffffffffffffffffffffffffffffffffffffffff161415610976576040517f08c379a000000000000000000000000000000000000000000000000000000000815260040161096d90615237565b60405180910390fd5b8073ffffffffffffffffffffffffffffffffffffffff16610995612f46565b73ffffffffffffffffffffffffffffffffffffffff1614806109c457506109c3816109be612f46565b6126a6565b5b610a03576040517f08c379a00000000000000000000000000000000000000000000000000000000081526004016109fa90615197565b60405180910390fd5b610a0d8383612f4e565b505050565b60fe60008373ffffffffffffffffffffffffffffffffffffffff1673ffffffffffffffffffffffffffffffffffffffff16815260200190815260200160002081908060018154018082558091505060019003906000526020600020016000909190919091505560fe60008473ffffffffffffffffffffffffffffffffffffffff1673ffffffffffffffffffffffffffffffffffffffff168152602001908152602001600020600160fe60008673ffffffffffffffffffffffffffffffffffffffff1673ffffffffffffffffffffffffffffffffffffffff16815260200190815260200160002080549050610b0691906154fd565b81548110610b3d577f4e487b7100000000000000000000000000000000000000000000000000000000600052603260045260246000fd5b906000526020600020015460fe60008573ffffffffffffffffffffffffffffffffffffffff1673ffffffffffffffffffffffffffffffffffffffff16815260200190815260200160002060ff60008481526020019081526020016000205481548110610bd2577f4e487b7100000000000000000000000000000000000000000000000000000000600052603260045260246000fd5b906000526020600020018190555060fe60008473ffffffffffffffffffffffffffffffffffffffff1673ffffffffffffffffffffffffffffffffffffffff168152602001908152602001600020805480610c55577f4e487b7100000000000000000000000000000000000000000000000000000000600052603160045260246000fd5b60019003818190600052602060002001600090559055600160fe60008473ffffffffffffffffffffffffffffffffffffffff1673ffffffffffffffffffffffffffffffffffffffff16815260200190815260200160002080549050610cba91906154fd565b60ff600083815260200190815260200160002081905550610cdc838383613007565b505050565b60008060fc85604051610cf49190614c8b565b90815260200160405180910390209050848051906020012081600101604051610d1d9190614c74565b60405180910390201415610d66576040517f08c379a0000000000000000000000000000000000000000000000000000000008152600401610d5d906151f7565b60405180910390fd5b610d7060fb613067565b3360fc86604051610d819190614c8b565b908152602001604051809103902060000160006101000a81548173ffffffffffffffffffffffffffffffffffffffff021916908373ffffffffffffffffffffffffffffffffffffffff1602179055508460fc86604051610de19190614c8b565b90815260200160405180910390206001019080519060200190610e0592919061409c565b508360fc86604051610e179190614c8b565b90815260200160405180910390206002019080519060200190610e3b92919061409c565b508260fc86604051610e4d9190614c8b565b908152602001604051809103902060030181905550600060fc86604051610e749190614c8b565b908152602001604051809103902060040160006101000a81548160ff02191690836003811115610ecd577f4e487b7100000000000000000000000000000000000000000000000000000000600052602160045260246000fd5b0217905550600060fc86604051610ee49190614c8b565b9081526020016040518091039020600601819055506000610f0560fb61307d565b9050610f11338261308b565b610f1b8187613265565b8060fd87604051610f2c9190614c8b565b90815260200160405180910390208190555060fe60003373ffffffffffffffffffffffffffffffffffffffff1673ffffffffffffffffffffffffffffffffffffffff168152602001908152602001600020819080600181540180825580915050600190039060005260206000200160009091909190915055600160fe60003373ffffffffffffffffffffffffffffffffffffffff1673ffffffffffffffffffffffffffffffffffffffff16815260200190815260200160002080549050610ff391906154fd565b60ff6000838152602001908152602001600020819055507f59e3e0f1aabce96b386d212c7c9563c597464cb2f714aa8cf022346ea95cfbc6868260405161103b929190614ebb565b60405180910390a180925050509392505050565b6110576132d9565b60008110158015611069575060648111155b6110a8576040517f08c379a000000000000000000000000000000000000000000000000000000000815260040161109f90615257565b60405180910390fd5b806101008190555050565b6110ce838383604051806020016040528060008152506121d7565b505050565b60fc818051602081018201805184825260208301602085012081835280955050505050506000915090508060000160009054906101000a900473ffffffffffffffffffffffffffffffffffffffff16908060010180546111329061564f565b80601f016020809104026020016040519081016040528092919081815260200182805461115e9061564f565b80156111ab5780601f10611180576101008083540402835291602001916111ab565b820191906000526020600020905b81548152906001019060200180831161118e57829003601f168201915b5050505050908060020180546111c09061564f565b80601f01602080910402602001604051908101604052809291908181526020018280546111ec9061564f565b80156112395780601f1061120e57610100808354040283529160200191611239565b820191906000526020600020905b81548152906001019060200180831161121c57829003601f168201915b5050505050908060030154908060040160009054906101000a900460ff16908060060154905086565b8082106112a4576040517f08c379a000000000000000000000000000000000000000000000000000000000815260040161129b90614f57565b60405180910390fd5b600060fc856040516112b69190614c8b565b908152602001604051809103902090508480519060200120816001016040516112df9190614c74565b604051809103902014611327576040517f08c379a000000000000000000000000000000000000000000000000000000000815260040161131e90614f37565b60405180910390fd5b3373ffffffffffffffffffffffffffffffffffffffff168160000160009054906101000a900473ffffffffffffffffffffffffffffffffffffffff1673ffffffffffffffffffffffffffffffffffffffff16146113b9576040517f08c379a00000000000000000000000000000000000000000000000000000000081526004016113b0906152b7565b60405180910390fd5b4282116113fb576040517f08c379a00000000000000000000000000000000000000000000000000000000081526004016113f290615097565b60405180910390fd5b60006003811115611435577f4e487b7100000000000000000000000000000000000000000000000000000000600052602160045260246000fd5b8160040160009054906101000a900460ff16600381111561147f577f4e487b7100000000000000000000000000000000000000000000000000000000600052602160045260246000fd5b148061150b57506003808111156114bf577f4e487b7100000000000000000000000000000000000000000000000000000000600052602160045260246000fd5b8160040160009054906101000a900460ff166003811115611509577f4e487b7100000000000000000000000000000000000000000000000000000000600052602160045260246000fd5b145b61154a576040517f08c379a0000000000000000000000000000000000000000000000000000000008152600401611541906152d7565b60405180910390fd5b600181600601600082825461155f919061541c565b9250508190555060008160050160008360060154815260200190815260200160002060000160006101000a81548173ffffffffffffffffffffffffffffffffffffffff021916908373ffffffffffffffffffffffffffffffffffffffff1602179055508381600501600083600601548152602001908152602001600020600101819055504283116115f15760006115f4565b60015b8160050160008360060154815260200190815260200160002060020160006101000a81548160ff02191690836003811115611658577f4e487b7100000000000000000000000000000000000000000000000000000000600052602160045260246000fd5b02179055508281600501600083600601548152602001908152602001600020600301819055508181600501600083600601548152602001908152602001600020600401819055506000816005016000836006015481526020019081526020016000206005018190555060018160040160006101000a81548160ff0219169083600381111561170f577f4e487b7100000000000000000000000000000000000000000000000000000000600052602160045260246000fd5b02179055507fe233c542868b104ebadeaae493a99c04bab3c65b4a0540ab44d7f753f8b0a4c6858585856040516117499493929190614eeb565b60405180910390a15050505050565b61010160009054906101000a900473ffffffffffffffffffffffffffffffffffffffff1681565b61010160009054906101000a900473ffffffffffffffffffffffffffffffffffffffff1673ffffffffffffffffffffffffffffffffffffffff166323b872dd3330846040518463ffffffff1660e01b81526004016117df93929190614ce1565b602060405180830381600087803b1580156117f957600080fd5b505af115801561180d573d6000803e3d6000fd5b505050506040513d601f19601f820116820180604052508101906118319190614434565b50600060fc836040516118449190614c8b565b9081526020016040518091039020905082805190602001208160010160405161186d9190614c74565b6040518091039020146118b5576040517f08c379a00000000000000000000000000000000000000000000000000000000081526004016118ac90614f37565b60405180910390fd5b600160038111156118ef577f4e487b7100000000000000000000000000000000000000000000000000000000600052602160045260246000fd5b8160040160009054906101000a900460ff166003811115611939577f4e487b7100000000000000000000000000000000000000000000000000000000600052602160045260246000fd5b14611979576040517f08c379a000000000000000000000000000000000000000000000000000000000815260040161197090614f77565b60405180910390fd5b6000816006015414156119c1576040517f08c379a00000000000000000000000000000000000000000000000000000000081526004016119b890615117565b60405180910390fd5b6000816005016000836006015481526020019081526020016000209050428160030154111580156119f6575080600401544211155b611a35576040517f08c379a0000000000000000000000000000000000000000000000000000000008152600401611a2c90615177565b60405180910390fd5b82816001015410611a7b576040517f08c379a0000000000000000000000000000000000000000000000000000000008152600401611a7290615137565b60405180910390fd5b60028160020160006101000a81548160ff02191690836003811115611ac9577f4e487b7100000000000000000000000000000000000000000000000000000000600052602160045260246000fd5b0217905550600060405180606001604052803373ffffffffffffffffffffffffffffffffffffffff1681526020018581526020014281525090506001826005016000828254611b18919061541c565b92505081905550808260060160008460050154815260200190815260200160002060008201518160000160006101000a81548173ffffffffffffffffffffffffffffffffffffffff021916908373ffffffffffffffffffffffffffffffffffffffff160217905550602082015181600101556040820151816002015590505060008260000160009054906101000a900473ffffffffffffffffffffffffffffffffffffffff169050600083600101549050338460000160006101000a81548173ffffffffffffffffffffffffffffffffffffffff021916908373ffffffffffffffffffffffffffffffffffffffff160217905550858460010181905550600073ffffffffffffffffffffffffffffffffffffffff168273ffffffffffffffffffffffffffffffffffffffff1614611cfb5761010160009054906101000a900473ffffffffffffffffffffffffffffffffffffffff1673ffffffffffffffffffffffffffffffffffffffff1663a9059cbb83836040518363ffffffff1660e01b8152600401611ca7929190614dd3565b602060405180830381600087803b158015611cc157600080fd5b505af1158015611cd5573d6000803e3d6000fd5b505050506040513d601f19601f82011682018060405250810190611cf99190614434565b505b50505050505050565b60ff6020528060005260406000206000915090505481565b6000806067600084815260200190815260200160002060009054906101000a900473ffffffffffffffffffffffffffffffffffffffff169050600073ffffffffffffffffffffffffffffffffffffffff168173ffffffffffffffffffffffffffffffffffffffff161415611dc5576040517f08c379a0000000000000000000000000000000000000000000000000000000008152600401611dbc90615217565b60405180910390fd5b80915050919050565b60008073ffffffffffffffffffffffffffffffffffffffff168273ffffffffffffffffffffffffffffffffffffffff161415611e3f576040517f08c379a0000000000000000000000000000000000000000000000000000000008152600401611e36906150d7565b60405180910390fd5b606860008373ffffffffffffffffffffffffffffffffffffffff1673ffffffffffffffffffffffffffffffffffffffff168152602001908152602001600020549050919050565b611e8e6132d9565b611e986000613357565b565b60008060019054906101000a900460ff16159050808015611ecb5750600160008054906101000a900460ff1660ff16105b80611ef85750611eda3061341d565b158015611ef75750600160008054906101000a900460ff1660ff16145b5b611f37576040517f08c379a0000000000000000000000000000000000000000000000000000000008152600401611f2e90615157565b60405180910390fd5b60016000806101000a81548160ff021916908360ff1602179055508015611f74576001600060016101000a81548160ff0219169083151502179055505b60006101008190555073aa8adb51329ba9640d86aa10b0f374d97a7b31d961010160006101000a81548173ffffffffffffffffffffffffffffffffffffffff021916908373ffffffffffffffffffffffffffffffffffffffff1602179055506120476040518060400160405280600981526020017f44656369626c696e6700000000000000000000000000000000000000000000008152506040518060400160405280600281526020017f4442000000000000000000000000000000000000000000000000000000000000815250613440565b61204f61349d565b6120576134ee565b80156120b05760008060016101000a81548160ff0219169083151502179055507f7f26b83ff96e1f2b6a682f133852f6798a09c465da95921460cefb384740249860016040516120a79190614e32565b60405180910390a15b50565b6000609760009054906101000a900473ffffffffffffffffffffffffffffffffffffffff16905090565b6060606680546120ec9061564f565b80601f01602080910402602001604051908101604052809291908181526020018280546121189061564f565b80156121655780601f1061213a57610100808354040283529160200191612165565b820191906000526020600020905b81548152906001019060200180831161214857829003601f168201915b5050505050905090565b61218161217a612f46565b8383613547565b5050565b61218d6132d9565b3373ffffffffffffffffffffffffffffffffffffffff166108fc829081150290604051600060405180830381858888f193505050501580156121d3573d6000803e3d6000fd5b5050565b60fe60008473ffffffffffffffffffffffffffffffffffffffff1673ffffffffffffffffffffffffffffffffffffffff16815260200190815260200160002082908060018154018082558091505060019003906000526020600020016000909190919091505560fe60008573ffffffffffffffffffffffffffffffffffffffff1673ffffffffffffffffffffffffffffffffffffffff168152602001908152602001600020600160fe60008773ffffffffffffffffffffffffffffffffffffffff1673ffffffffffffffffffffffffffffffffffffffff168152602001908152602001600020805490506122cb91906154fd565b81548110612302577f4e487b7100000000000000000000000000000000000000000000000000000000600052603260045260246000fd5b906000526020600020015460fe60008673ffffffffffffffffffffffffffffffffffffffff1673ffffffffffffffffffffffffffffffffffffffff16815260200190815260200160002060ff60008581526020019081526020016000205481548110612397577f4e487b7100000000000000000000000000000000000000000000000000000000600052603260045260246000fd5b906000526020600020018190555060fe60008573ffffffffffffffffffffffffffffffffffffffff1673ffffffffffffffffffffffffffffffffffffffff16815260200190815260200160002080548061241a577f4e487b7100000000000000000000000000000000000000000000000000000000600052603160045260246000fd5b60019003818190600052602060002001600090559055600160fe60008573ffffffffffffffffffffffffffffffffffffffff1673ffffffffffffffffffffffffffffffffffffffff1681526020019081526020016000208054905061247f91906154fd565b60ff6000848152602001908152602001600020819055506124a2848484846136b4565b50505050565b60fd818051602081018201805184825260208301602085012081835280955050505050506000915090505481565b6101005481565b60606124e882613716565b9050919050565b600060fc836040516125019190614c8b565b9081526020016040518091039020905082805190602001208160010160405161252a9190614c74565b604051809103902014612572576040517f08c379a000000000000000000000000000000000000000000000000000000000815260040161256990614f37565b60405180910390fd5b3373ffffffffffffffffffffffffffffffffffffffff168160000160009054906101000a900473ffffffffffffffffffffffffffffffffffffffff1673ffffffffffffffffffffffffffffffffffffffff1614612604576040517f08c379a00000000000000000000000000000000000000000000000000000000081526004016125fb90615277565b60405180910390fd5b61262d338360fd866040516126199190614c8b565b9081526020016040518091039020546110b3565b818160000160006101000a81548173ffffffffffffffffffffffffffffffffffffffff021916908373ffffffffffffffffffffffffffffffffffffffff160217905550505050565b60fe602052816000526040600020818154811061269157600080fd5b90600052602060002001600091509150505481565b6000606a60008473ffffffffffffffffffffffffffffffffffffffff1673ffffffffffffffffffffffffffffffffffffffff16815260200190815260200160002060008373ffffffffffffffffffffffffffffffffffffffff1673ffffffffffffffffffffffffffffffffffffffff16815260200190815260200160002060009054906101000a900460ff16905092915050565b6127426132d9565b600073ffffffffffffffffffffffffffffffffffffffff168173ffffffffffffffffffffffffffffffffffffffff1614156127b2576040517f08c379a00000000000000000000000000000000000000000000000000000000081526004016127a990614fd7565b60405180910390fd5b6127bb81613357565b50565b600060fc826040516127d09190614c8b565b908152602001604051809103902090508180519060200120816001016040516127f99190614c74565b604051809103902014612841576040517f08c379a000000000000000000000000000000000000000000000000000000000815260040161283890614f37565b60405180910390fd5b6001600381111561287b577f4e487b7100000000000000000000000000000000000000000000000000000000600052602160045260246000fd5b8160040160009054906101000a900460ff1660038111156128c5577f4e487b7100000000000000000000000000000000000000000000000000000000600052602160045260246000fd5b14612905576040517f08c379a00000000000000000000000000000000000000000000000000000000081526004016128fc906150b7565b60405180910390fd5b60008160060154141561294d576040517f08c379a000000000000000000000000000000000000000000000000000000000815260040161294490615117565b60405180910390fd5b60008160050160008360060154815260200190815260200160002090504281600301541080156129805750806004015442115b6129bf576040517f08c379a00000000000000000000000000000000000000000000000000000000081526004016129b690614f97565b60405180910390fd5b600260038111156129f9577f4e487b7100000000000000000000000000000000000000000000000000000000600052602160045260246000fd5b8160020160009054906101000a900460ff166003811115612a43577f4e487b7100000000000000000000000000000000000000000000000000000000600052602160045260246000fd5b1480612ad0575060016003811115612a84577f4e487b7100000000000000000000000000000000000000000000000000000000600052602160045260246000fd5b8260040160009054906101000a900460ff166003811115612ace577f4e487b7100000000000000000000000000000000000000000000000000000000600052602160045260246000fd5b145b612b0f576040517f08c379a0000000000000000000000000000000000000000000000000000000008152600401612b0690614ff7565b60405180910390fd5b60008160010154905060008360000160009054906101000a900473ffffffffffffffffffffffffffffffffffffffff169050600073ffffffffffffffffffffffffffffffffffffffff168360000160009054906101000a900473ffffffffffffffffffffffffffffffffffffffff1673ffffffffffffffffffffffffffffffffffffffff1614612d83576000610100541115612bd5576305f5e100610100546305f5e100612bbd91906154fd565b83612bc891906154a3565b612bd29190615472565b91505b612c468460000160009054906101000a900473ffffffffffffffffffffffffffffffffffffffff168460000160009054906101000a900473ffffffffffffffffffffffffffffffffffffffff1660fd88604051612c329190614c8b565b9081526020016040518091039020546110b3565b8260000160009054906101000a900473ffffffffffffffffffffffffffffffffffffffff168460000160006101000a81548173ffffffffffffffffffffffffffffffffffffffff021916908373ffffffffffffffffffffffffffffffffffffffff16021790555061010160009054906101000a900473ffffffffffffffffffffffffffffffffffffffff1673ffffffffffffffffffffffffffffffffffffffff1663a9059cbb8560000160009054906101000a900473ffffffffffffffffffffffffffffffffffffffff16846040518363ffffffff1660e01b8152600401612d2f929190614dd3565b602060405180830381600087803b158015612d4957600080fd5b505af1158015612d5d573d6000803e3d6000fd5b505050506040513d601f19601f82011682018060405250810190612d819190614434565b505b7f4af0d96588e310fac2873d03b8fd52d531822431514d49018854f40becd4d39485828560000160009054906101000a900473ffffffffffffffffffffffffffffffffffffffff1685604051612ddc9493929190614e6f565b60405180910390a160038360020160006101000a81548160ff02191690836003811115612e32577f4e487b7100000000000000000000000000000000000000000000000000000000600052602160045260246000fd5b021790555060038460040160006101000a81548160ff02191690836003811115612e85577f4e487b7100000000000000000000000000000000000000000000000000000000600052602160045260246000fd5b02179055505050505050565b60007f01ffc9a7000000000000000000000000000000000000000000000000000000007bffffffffffffffffffffffffffffffffffffffffffffffffffffffff1916827bffffffffffffffffffffffffffffffffffffffffffffffffffffffff1916149050919050565b612f0481613829565b612f43576040517f08c379a0000000000000000000000000000000000000000000000000000000008152600401612f3a90615217565b60405180910390fd5b50565b600033905090565b816069600083815260200190815260200160002060006101000a81548173ffffffffffffffffffffffffffffffffffffffff021916908373ffffffffffffffffffffffffffffffffffffffff160217905550808273ffffffffffffffffffffffffffffffffffffffff16612fc183611d1c565b73ffffffffffffffffffffffffffffffffffffffff167f8c5be1e5ebec7d5bd14f71427d1e84f3dd0314c0f7b2291e5b200ac8c7c3b92560405160405180910390a45050565b613018613012612f46565b82613895565b613057576040517f08c379a000000000000000000000000000000000000000000000000000000000815260040161304e906152f7565b60405180910390fd5b61306283838361392a565b505050565b6001816000016000828254019250508190555050565b600081600001549050919050565b600073ffffffffffffffffffffffffffffffffffffffff168273ffffffffffffffffffffffffffffffffffffffff1614156130fb576040517f08c379a00000000000000000000000000000000000000000000000000000000081526004016130f2906151b7565b60405180910390fd5b61310481613829565b15613144576040517f08c379a000000000000000000000000000000000000000000000000000000000815260040161313b90615037565b60405180910390fd5b61315060008383613b91565b6001606860008473ffffffffffffffffffffffffffffffffffffffff1673ffffffffffffffffffffffffffffffffffffffff16815260200190815260200160002060008282546131a0919061541c565b92505081905550816067600083815260200190815260200160002060006101000a81548173ffffffffffffffffffffffffffffffffffffffff021916908373ffffffffffffffffffffffffffffffffffffffff160217905550808273ffffffffffffffffffffffffffffffffffffffff16600073ffffffffffffffffffffffffffffffffffffffff167fddf252ad1be2c89b69c2b068fc378daa952ba7f163c4a11628f55a4df523b3ef60405160405180910390a461326160008383613b96565b5050565b61326e82613829565b6132ad576040517f08c379a00000000000000000000000000000000000000000000000000000000081526004016132a4906150f7565b60405180910390fd5b8060c9600084815260200190815260200160002090805190602001906132d492919061409c565b505050565b6132e1612f46565b73ffffffffffffffffffffffffffffffffffffffff166132ff6120b3565b73ffffffffffffffffffffffffffffffffffffffff1614613355576040517f08c379a000000000000000000000000000000000000000000000000000000000815260040161334c906151d7565b60405180910390fd5b565b6000609760009054906101000a900473ffffffffffffffffffffffffffffffffffffffff16905081609760006101000a81548173ffffffffffffffffffffffffffffffffffffffff021916908373ffffffffffffffffffffffffffffffffffffffff1602179055508173ffffffffffffffffffffffffffffffffffffffff168173ffffffffffffffffffffffffffffffffffffffff167f8be0079c531659141344cd1fd0a4f28419497f9722a3daafe3b4186f6b6457e060405160405180910390a35050565b6000808273ffffffffffffffffffffffffffffffffffffffff163b119050919050565b600060019054906101000a900460ff1661348f576040517f08c379a000000000000000000000000000000000000000000000000000000000815260040161348690615297565b60405180910390fd5b6134998282613b9b565b5050565b600060019054906101000a900460ff166134ec576040517f08c379a00000000000000000000000000000000000000000000000000000000081526004016134e390615297565b60405180910390fd5b565b600060019054906101000a900460ff1661353d576040517f08c379a000000000000000000000000000000000000000000000000000000000815260040161353490615297565b60405180910390fd5b613545613c1c565b565b8173ffffffffffffffffffffffffffffffffffffffff168373ffffffffffffffffffffffffffffffffffffffff1614156135b6576040517f08c379a00000000000000000000000000000000000000000000000000000000081526004016135ad90615077565b60405180910390fd5b80606a60008573ffffffffffffffffffffffffffffffffffffffff1673ffffffffffffffffffffffffffffffffffffffff16815260200190815260200160002060008473ffffffffffffffffffffffffffffffffffffffff1673ffffffffffffffffffffffffffffffffffffffff16815260200190815260200160002060006101000a81548160ff0219169083151502179055508173ffffffffffffffffffffffffffffffffffffffff168373ffffffffffffffffffffffffffffffffffffffff167f17307eab39ab6107e8899845ad3d59bd9653f200f220920489ca2b5937696c31836040516136a79190614dfc565b60405180910390a3505050565b6136c56136bf612f46565b83613895565b613704576040517f08c379a00000000000000000000000000000000000000000000000000000000081526004016136fb906152f7565b60405180910390fd5b61371084848484613c7d565b50505050565b606061372182612efb565b600060c9600084815260200190815260200160002080546137419061564f565b80601f016020809104026020016040519081016040528092919081815260200182805461376d9061564f565b80156137ba5780601f1061378f576101008083540402835291602001916137ba565b820191906000526020600020905b81548152906001019060200180831161379d57829003601f168201915b5050505050905060006137cb613cd9565b90506000815114156137e1578192505050613824565b6000825111156138165780826040516020016137fe929190614ca2565b60405160208183030381529060405292505050613824565b61381f84613cf0565b925050505b919050565b60008073ffffffffffffffffffffffffffffffffffffffff166067600084815260200190815260200160002060009054906101000a900473ffffffffffffffffffffffffffffffffffffffff1673ffffffffffffffffffffffffffffffffffffffff1614159050919050565b6000806138a183611d1c565b90508073ffffffffffffffffffffffffffffffffffffffff168473ffffffffffffffffffffffffffffffffffffffff1614806138e357506138e281856126a6565b5b8061392157508373ffffffffffffffffffffffffffffffffffffffff16613909846108b4565b73ffffffffffffffffffffffffffffffffffffffff16145b91505092915050565b8273ffffffffffffffffffffffffffffffffffffffff1661394a82611d1c565b73ffffffffffffffffffffffffffffffffffffffff16146139a0576040517f08c379a000000000000000000000000000000000000000000000000000000000815260040161399790615017565b60405180910390fd5b600073ffffffffffffffffffffffffffffffffffffffff168273ffffffffffffffffffffffffffffffffffffffff161415613a10576040517f08c379a0000000000000000000000000000000000000000000000000000000008152600401613a0790615057565b60405180910390fd5b613a1b838383613b91565b613a26600082612f4e565b6001606860008573ffffffffffffffffffffffffffffffffffffffff1673ffffffffffffffffffffffffffffffffffffffff1681526020019081526020016000206000828254613a7691906154fd565b925050819055506001606860008473ffffffffffffffffffffffffffffffffffffffff1673ffffffffffffffffffffffffffffffffffffffff1681526020019081526020016000206000828254613acd919061541c565b92505081905550816067600083815260200190815260200160002060006101000a81548173ffffffffffffffffffffffffffffffffffffffff021916908373ffffffffffffffffffffffffffffffffffffffff160217905550808273ffffffffffffffffffffffffffffffffffffffff168473ffffffffffffffffffffffffffffffffffffffff167fddf252ad1be2c89b69c2b068fc378daa952ba7f163c4a11628f55a4df523b3ef60405160405180910390a4613b8c838383613b96565b505050565b505050565b505050565b600060019054906101000a900460ff16613bea576040517f08c379a0000000000000000000000000000000000000000000000000000000008152600401613be190615297565b60405180910390fd5b8160659080519060200190613c0092919061409c565b508060669080519060200190613c1792919061409c565b505050565b600060019054906101000a900460ff16613c6b576040517f08c379a0000000000000000000000000000000000000000000000000000000008152600401613c6290615297565b60405180910390fd5b613c7b613c76612f46565b613357565b565b613c8884848461392a565b613c9484848484613d58565b613cd3576040517f08c379a0000000000000000000000000000000000000000000000000000000008152600401613cca90614fb7565b60405180910390fd5b50505050565b606060405180602001604052806000815250905090565b6060613cfb82612efb565b6000613d05613cd9565b90506000815111613d255760405180602001604052806000815250613d50565b80613d2f84613eef565b604051602001613d40929190614ca2565b6040516020818303038152906040525b915050919050565b6000613d798473ffffffffffffffffffffffffffffffffffffffff1661341d565b15613ee2578373ffffffffffffffffffffffffffffffffffffffff1663150b7a02613da2612f46565b8786866040518563ffffffff1660e01b8152600401613dc49493929190614d18565b602060405180830381600087803b158015613dde57600080fd5b505af1925050508015613e0f57506040513d601f19601f82011682018060405250810190613e0c9190614486565b60015b613e92573d8060008114613e3f576040519150601f19603f3d011682016040523d82523d6000602084013e613e44565b606091505b50600081511415613e8a576040517f08c379a0000000000000000000000000000000000000000000000000000000008152600401613e8190614fb7565b60405180910390fd5b805181602001fd5b63150b7a0260e01b7bffffffffffffffffffffffffffffffffffffffffffffffffffffffff1916817bffffffffffffffffffffffffffffffffffffffffffffffffffffffff191614915050613ee7565b600190505b949350505050565b60606000821415613f37576040518060400160405280600181526020017f30000000000000000000000000000000000000000000000000000000000000008152509050614097565b600082905060005b60008214613f69578080613f52906156b2565b915050600a82613f629190615472565b9150613f3f565b60008167ffffffffffffffff811115613fab577f4e487b7100000000000000000000000000000000000000000000000000000000600052604160045260246000fd5b6040519080825280601f01601f191660200182016040528015613fdd5781602001600182028036833780820191505090505b5090505b6000851461409057600182613ff691906154fd565b9150600a8561400591906156fb565b6030614011919061541c565b60f81b81838151811061404d577f4e487b7100000000000000000000000000000000000000000000000000000000600052603260045260246000fd5b60200101907effffffffffffffffffffffffffffffffffffffffffffffffffffffffffffff1916908160001a905350600a856140899190615472565b9450613fe1565b8093505050505b919050565b8280546140a89061564f565b90600052602060002090601f0160209004810192826140ca5760008555614111565b82601f106140e357805160ff1916838001178555614111565b82800160010185558215614111579182015b828111156141105782518255916020019190600101906140f5565b5b50905061411e9190614122565b5090565b5b8082111561413b576000816000905550600101614123565b5090565b600061415261414d84615357565b615332565b90508281526020810184848401111561416a57600080fd5b61417584828561560d565b509392505050565b600061419061418b84615388565b615332565b9050828152602081018484840111156141a857600080fd5b6141b384828561560d565b509392505050565b6000813590506141ca81615efb565b92915050565b6000813590506141df81615f12565b92915050565b6000815190506141f481615f12565b92915050565b60008135905061420981615f29565b92915050565b60008151905061421e81615f29565b92915050565b600082601f83011261423557600080fd5b813561424584826020860161413f565b91505092915050565b600082601f83011261425f57600080fd5b813561426f84826020860161417d565b91505092915050565b60008135905061428781615f40565b92915050565b60006020828403121561429f57600080fd5b60006142ad848285016141bb565b91505092915050565b600080604083850312156142c957600080fd5b60006142d7858286016141bb565b92505060206142e8858286016141bb565b9150509250929050565b60008060006060848603121561430757600080fd5b6000614315868287016141bb565b9350506020614326868287016141bb565b925050604061433786828701614278565b9150509250925092565b6000806000806080858703121561435757600080fd5b6000614365878288016141bb565b9450506020614376878288016141bb565b935050604061438787828801614278565b925050606085013567ffffffffffffffff8111156143a457600080fd5b6143b087828801614224565b91505092959194509250565b600080604083850312156143cf57600080fd5b60006143dd858286016141bb565b92505060206143ee858286016141d0565b9150509250929050565b6000806040838503121561440b57600080fd5b6000614419858286016141bb565b925050602061442a85828601614278565b9150509250929050565b60006020828403121561444657600080fd5b6000614454848285016141e5565b91505092915050565b60006020828403121561446f57600080fd5b600061447d848285016141fa565b91505092915050565b60006020828403121561449857600080fd5b60006144a68482850161420f565b91505092915050565b6000602082840312156144c157600080fd5b600082013567ffffffffffffffff8111156144db57600080fd5b6144e78482850161424e565b91505092915050565b6000806040838503121561450357600080fd5b600083013567ffffffffffffffff81111561451d57600080fd5b6145298582860161424e565b925050602061453a858286016141bb565b9150509250929050565b60008060006060848603121561455957600080fd5b600084013567ffffffffffffffff81111561457357600080fd5b61457f8682870161424e565b935050602084013567ffffffffffffffff81111561459c57600080fd5b6145a88682870161424e565b92505060406145b986828701614278565b9150509250925092565b600080604083850312156145d657600080fd5b600083013567ffffffffffffffff8111156145f057600080fd5b6145fc8582860161424e565b925050602061460d85828601614278565b9150509250929050565b6000806000806080858703121561462d57600080fd5b600085013567ffffffffffffffff81111561464757600080fd5b6146538782880161424e565b945050602061466487828801614278565b935050604061467587828801614278565b925050606061468687828801614278565b91505092959194509250565b6000602082840312156146a457600080fd5b60006146b284828501614278565b91505092915050565b6146c481615531565b82525050565b6146d381615543565b82525050565b60006146e4826153ce565b6146ee81856153e4565b93506146fe81856020860161561c565b61470781615817565b840191505092915050565b6000815461471f8161564f565b61472981866153f5565b94506001821660008114614744576001811461475557614788565b60ff19831686528186019350614788565b61475e856153b9565b60005b8381101561478057815481890152600182019150602081019050614761565b838801955050505b50505092915050565b61479a816155c5565b82525050565b6147a9816155e9565b82525050565b6147b8816155fb565b82525050565b60006147c9826153d9565b6147d38185615400565b93506147e381856020860161561c565b6147ec81615817565b840191505092915050565b6000614802826153d9565b61480c8185615411565b935061481c81856020860161561c565b80840191505092915050565b6000614835600183615400565b915061484082615828565b602082019050919050565b6000614858602283615400565b915061486382615851565b604082019050919050565b600061487b600283615400565b9150614886826158a0565b602082019050919050565b600061489e600283615400565b91506148a9826158c9565b602082019050919050565b60006148c1603283615400565b91506148cc826158f2565b604082019050919050565b60006148e4602683615400565b91506148ef82615941565b604082019050919050565b6000614907600283615400565b915061491282615990565b602082019050919050565b600061492a602583615400565b9150614935826159b9565b604082019050919050565b600061494d601c83615400565b915061495882615a08565b602082019050919050565b6000614970602483615400565b915061497b82615a31565b604082019050919050565b6000614993601983615400565b915061499e82615a80565b602082019050919050565b60006149b6600183615400565b91506149c182615aa9565b602082019050919050565b60006149d9600283615400565b91506149e482615ad2565b602082019050919050565b60006149fc602983615400565b9150614a0782615afb565b604082019050919050565b6000614a1f602e83615400565b9150614a2a82615b4a565b604082019050919050565b6000614a42600283615400565b9150614a4d82615b99565b602082019050919050565b6000614a65600283615400565b9150614a7082615bc2565b602082019050919050565b6000614a88602e83615400565b9150614a9382615beb565b604082019050919050565b6000614aab600283615400565b9150614ab682615c3a565b602082019050919050565b6000614ace603e83615400565b9150614ad982615c63565b604082019050919050565b6000614af1602083615400565b9150614afc82615cb2565b602082019050919050565b6000614b14602083615400565b9150614b1f82615cdb565b602082019050919050565b6000614b37600183615400565b9150614b4282615d04565b602082019050919050565b6000614b5a601883615400565b9150614b6582615d2d565b602082019050919050565b6000614b7d602183615400565b9150614b8882615d56565b604082019050919050565b6000614ba0600183615400565b9150614bab82615da5565b602082019050919050565b6000614bc3600183615400565b9150614bce82615dce565b602082019050919050565b6000614be6602b83615400565b9150614bf182615df7565b604082019050919050565b6000614c09600183615400565b9150614c1482615e46565b602082019050919050565b6000614c2c600183615400565b9150614c3782615e6f565b602082019050919050565b6000614c4f602e83615400565b9150614c5a82615e98565b604082019050919050565b614c6e816155ae565b82525050565b6000614c808284614712565b915081905092915050565b6000614c9782846147f7565b915081905092915050565b6000614cae82856147f7565b9150614cba82846147f7565b91508190509392505050565b6000602082019050614cdb60008301846146bb565b92915050565b6000606082019050614cf660008301866146bb565b614d0360208301856146bb565b614d106040830184614c65565b949350505050565b6000608082019050614d2d60008301876146bb565b614d3a60208301866146bb565b614d476040830185614c65565b8181036060830152614d5981846146d9565b905095945050505050565b600060c082019050614d7960008301896146bb565b8181036020830152614d8b81886147be565b90508181036040830152614d9f81876147be565b9050614dae6060830186614c65565b614dbb60808301856147a0565b614dc860a0830184614c65565b979650505050505050565b6000604082019050614de860008301856146bb565b614df56020830184614c65565b9392505050565b6000602082019050614e1160008301846146ca565b92915050565b6000602082019050614e2c6000830184614791565b92915050565b6000602082019050614e4760008301846147af565b92915050565b60006020820190508181036000830152614e6781846147be565b905092915050565b60006080820190508181036000830152614e8981876147be565b9050614e9860208301866146bb565b614ea560408301856146bb565b614eb26060830184614c65565b95945050505050565b60006040820190508181036000830152614ed581856147be565b9050614ee46020830184614c65565b9392505050565b60006080820190508181036000830152614f0581876147be565b9050614f146020830186614c65565b614f216040830185614c65565b614f2e6060830184614c65565b95945050505050565b60006020820190508181036000830152614f5081614828565b9050919050565b60006020820190508181036000830152614f708161484b565b9050919050565b60006020820190508181036000830152614f908161486e565b9050919050565b60006020820190508181036000830152614fb081614891565b9050919050565b60006020820190508181036000830152614fd0816148b4565b9050919050565b60006020820190508181036000830152614ff0816148d7565b9050919050565b60006020820190508181036000830152615010816148fa565b9050919050565b600060208201905081810360008301526150308161491d565b9050919050565b6000602082019050818103600083015261505081614940565b9050919050565b6000602082019050818103600083015261507081614963565b9050919050565b6000602082019050818103600083015261509081614986565b9050919050565b600060208201905081810360008301526150b0816149a9565b9050919050565b600060208201905081810360008301526150d0816149cc565b9050919050565b600060208201905081810360008301526150f0816149ef565b9050919050565b6000602082019050818103600083015261511081614a12565b9050919050565b6000602082019050818103600083015261513081614a35565b9050919050565b6000602082019050818103600083015261515081614a58565b9050919050565b6000602082019050818103600083015261517081614a7b565b9050919050565b6000602082019050818103600083015261519081614a9e565b9050919050565b600060208201905081810360008301526151b081614ac1565b9050919050565b600060208201905081810360008301526151d081614ae4565b9050919050565b600060208201905081810360008301526151f081614b07565b9050919050565b6000602082019050818103600083015261521081614b2a565b9050919050565b6000602082019050818103600083015261523081614b4d565b9050919050565b6000602082019050818103600083015261525081614b70565b9050919050565b6000602082019050818103600083015261527081614b93565b9050919050565b6000602082019050818103600083015261529081614bb6565b9050919050565b600060208201905081810360008301526152b081614bd9565b9050919050565b600060208201905081810360008301526152d081614bfc565b9050919050565b600060208201905081810360008301526152f081614c1f565b9050919050565b6000602082019050818103600083015261531081614c42565b9050919050565b600060208201905061532c6000830184614c65565b92915050565b600061533c61534d565b90506153488282615681565b919050565b6000604051905090565b600067ffffffffffffffff821115615372576153716157e8565b5b61537b82615817565b9050602081019050919050565b600067ffffffffffffffff8211156153a3576153a26157e8565b5b6153ac82615817565b9050602081019050919050565b60008190508160005260206000209050919050565b600081519050919050565b600081519050919050565b600082825260208201905092915050565b600081905092915050565b600082825260208201905092915050565b600081905092915050565b6000615427826155ae565b9150615432836155ae565b9250827fffffffffffffffffffffffffffffffffffffffffffffffffffffffffffffffff038211156154675761546661572c565b5b828201905092915050565b600061547d826155ae565b9150615488836155ae565b9250826154985761549761575b565b5b828204905092915050565b60006154ae826155ae565b91506154b9836155ae565b9250817fffffffffffffffffffffffffffffffffffffffffffffffffffffffffffffffff04831182151516156154f2576154f161572c565b5b828202905092915050565b6000615508826155ae565b9150615513836155ae565b9250828210156155265761552561572c565b5b828203905092915050565b600061553c8261558e565b9050919050565b60008115159050919050565b60007fffffffff0000000000000000000000000000000000000000000000000000000082169050919050565b600081905061558982615ee7565b919050565b600073ffffffffffffffffffffffffffffffffffffffff82169050919050565b6000819050919050565b600060ff82169050919050565b60006155d0826155d7565b9050919050565b60006155e28261558e565b9050919050565b60006155f48261557b565b9050919050565b6000615606826155b8565b9050919050565b82818337600083830152505050565b60005b8381101561563a57808201518184015260208101905061561f565b83811115615649576000848401525b50505050565b6000600282049050600182168061566757607f821691505b6020821081141561567b5761567a6157b9565b5b50919050565b61568a82615817565b810181811067ffffffffffffffff821117156156a9576156a86157e8565b5b80604052505050565b60006156bd826155ae565b91507fffffffffffffffffffffffffffffffffffffffffffffffffffffffffffffffff8214156156f0576156ef61572c565b5b600182019050919050565b6000615706826155ae565b9150615711836155ae565b9250826157215761572061575b565b5b828206905092915050565b7f4e487b7100000000000000000000000000000000000000000000000000000000600052601160045260246000fd5b7f4e487b7100000000000000000000000000000000000000000000000000000000600052601260045260246000fd5b7f4e487b7100000000000000000000000000000000000000000000000000000000600052602160045260246000fd5b7f4e487b7100000000000000000000000000000000000000000000000000000000600052602260045260246000fd5b7f4e487b7100000000000000000000000000000000000000000000000000000000600052604160045260246000fd5b6000601f19601f8301169050919050565b7f3400000000000000000000000000000000000000000000000000000000000000600082015250565b7f53746172742074696d65206d757374206265206265666f726520656e6420746960008201527f6d65000000000000000000000000000000000000000000000000000000000000602082015250565b7f3130000000000000000000000000000000000000000000000000000000000000600082015250565b7f3135000000000000000000000000000000000000000000000000000000000000600082015250565b7f4552433732313a207472616e7366657220746f206e6f6e20455243373231526560008201527f63656976657220696d706c656d656e7465720000000000000000000000000000602082015250565b7f4f776e61626c653a206e6577206f776e657220697320746865207a65726f206160008201527f6464726573730000000000000000000000000000000000000000000000000000602082015250565b7f3136000000000000000000000000000000000000000000000000000000000000600082015250565b7f4552433732313a207472616e736665722066726f6d20696e636f72726563742060008201527f6f776e6572000000000000000000000000000000000000000000000000000000602082015250565b7f4552433732313a20746f6b656e20616c7265616479206d696e74656400000000600082015250565b7f4552433732313a207472616e7366657220746f20746865207a65726f2061646460008201527f7265737300000000000000000000000000000000000000000000000000000000602082015250565b7f4552433732313a20617070726f766520746f2063616c6c657200000000000000600082015250565b7f3700000000000000000000000000000000000000000000000000000000000000600082015250565b7f3134000000000000000000000000000000000000000000000000000000000000600082015250565b7f4552433732313a2061646472657373207a65726f206973206e6f74206120766160008201527f6c6964206f776e65720000000000000000000000000000000000000000000000602082015250565b7f45524337323155524953746f726167653a2055524920736574206f66206e6f6e60008201527f6578697374656e7420746f6b656e000000000000000000000000000000000000602082015250565b7f3131000000000000000000000000000000000000000000000000000000000000600082015250565b7f3133000000000000000000000000000000000000000000000000000000000000600082015250565b7f496e697469616c697a61626c653a20636f6e747261637420697320616c72656160008201527f647920696e697469616c697a6564000000000000000000000000000000000000602082015250565b7f3132000000000000000000000000000000000000000000000000000000000000600082015250565b7f4552433732313a20617070726f76652063616c6c6572206973206e6f7420746f60008201527f6b656e206f776e6572206e6f7220617070726f76656420666f7220616c6c0000602082015250565b7f4552433732313a206d696e7420746f20746865207a65726f2061646472657373600082015250565b7f4f776e61626c653a2063616c6c6572206973206e6f7420746865206f776e6572600082015250565b7f3200000000000000000000000000000000000000000000000000000000000000600082015250565b7f4552433732313a20696e76616c696420746f6b656e2049440000000000000000600082015250565b7f4552433732313a20617070726f76616c20746f2063757272656e74206f776e6560008201527f7200000000000000000000000000000000000000000000000000000000000000602082015250565b7f3100000000000000000000000000000000000000000000000000000000000000600082015250565b7f3500000000000000000000000000000000000000000000000000000000000000600082015250565b7f496e697469616c697a61626c653a20636f6e7472616374206973206e6f74206960008201527f6e697469616c697a696e67000000000000000000000000000000000000000000602082015250565b7f3600000000000000000000000000000000000000000000000000000000000000600082015250565b7f3800000000000000000000000000000000000000000000000000000000000000600082015250565b7f4552433732313a2063616c6c6572206973206e6f7420746f6b656e206f776e6560008201527f72206e6f7220617070726f766564000000000000000000000000000000000000602082015250565b60048110615ef857615ef761578a565b5b50565b615f0481615531565b8114615f0f57600080fd5b50565b615f1b81615543565b8114615f2657600080fd5b50565b615f328161554f565b8114615f3d57600080fd5b50565b615f49816155ae565b8114615f5457600080fd5b5056fea2646970667358221220680974a9967e56c4a2913a5083209e124faab1e6cc555f39bb15fae99d06ed4f64736f6c63430008040033",
  "linkReferences": {},
  "deployedLinkReferences": {}
}