{
  "_format": "hh-sol-artifact-1",
  "contractName": "DbAudio",
  "sourceName": "contracts/DbAudio2.sol",
  "abi": [
    {
      "inputs": [],
      "stateMutability": "nonpayable",
      "type": "constructor"
    },
    {
      "anonymous": false,
      "inputs": [
        {
          "indexed": true,
          "internalType": "address",
          "name": "owner",
          "type": "address"
        },
        {
          "indexed": true,
          "internalType": "address",
          "name": "approved",
          "type": "address"
        },
        {
          "indexed": true,
          "internalType": "uint256",
          "name": "tokenId",
          "type": "uint256"
        }
      ],
      "name": "Approval",
      "type": "event"
    },
    {
      "anonymous": false,
      "inputs": [
        {
          "indexed": true,
          "internalType": "address",
          "name": "owner",
          "type": "address"
        },
        {
          "indexed": true,
          "internalType": "address",
          "name": "operator",
          "type": "address"
        },
        {
          "indexed": false,
          "internalType": "bool",
          "name": "approved",
          "type": "bool"
        }
      ],
      "name": "ApprovalForAll",
      "type": "event"
    },
    {
      "anonymous": false,
      "inputs": [
        {
          "indexed": false,
          "internalType": "string",
          "name": "uri",
          "type": "string"
        },
        {
          "indexed": false,
          "internalType": "uint256",
          "name": "startPrice",
          "type": "uint256"
        },
        {
          "indexed": false,
          "internalType": "uint256",
          "name": "startTime",
          "type": "uint256"
        },
        {
          "indexed": false,
          "internalType": "uint256",
          "name": "endTime",
          "type": "uint256"
        }
      ],
      "name": "BidEvent",
      "type": "event"
    },
    {
      "anonymous": false,
      "inputs": [
        {
          "indexed": false,
          "internalType": "string",
          "name": "uri",
          "type": "string"
        },
        {
          "indexed": false,
          "internalType": "uint256",
          "name": "index",
          "type": "uint256"
        }
      ],
      "name": "CreateNFT",
      "type": "event"
    },
    {
      "anonymous": false,
      "inputs": [
        {
          "indexed": true,
          "internalType": "address",
          "name": "previousOwner",
          "type": "address"
        },
        {
          "indexed": true,
          "internalType": "address",
          "name": "newOwner",
          "type": "address"
        }
      ],
      "name": "OwnershipTransferred",
      "type": "event"
    },
    {
      "anonymous": false,
      "inputs": [
        {
          "indexed": false,
          "internalType": "string",
          "name": "uri",
          "type": "string"
        },
        {
          "indexed": false,
          "internalType": "address",
          "name": "oldowner",
          "type": "address"
        },
        {
          "indexed": false,
          "internalType": "address",
          "name": "newowner",
          "type": "address"
        },
        {
          "indexed": false,
          "internalType": "uint256",
          "name": "totalPrice",
          "type": "uint256"
        },
        {
          "indexed": false,
          "internalType": "uint256",
          "name": "platformValue",
          "type": "uint256"
        },
        {
          "indexed": false,
          "internalType": "uint256",
          "name": "saleCount",
          "type": "uint256"
        }
      ],
      "name": "SettleBidding",
      "type": "event"
    },
    {
      "anonymous": false,
      "inputs": [
        {
          "indexed": true,
          "internalType": "address",
          "name": "from",
          "type": "address"
        },
        {
          "indexed": true,
          "internalType": "address",
          "name": "to",
          "type": "address"
        },
        {
          "indexed": true,
          "internalType": "uint256",
          "name": "tokenId",
          "type": "uint256"
        }
      ],
      "name": "Transfer",
      "type": "event"
    },
    {
      "anonymous": false,
      "inputs": [
        {
          "indexed": false,
          "internalType": "address payable",
          "name": "platformFeeRecipient",
          "type": "address"
        }
      ],
      "name": "UpdatePlatformFeeRecipient",
      "type": "event"
    },
    {
      "anonymous": false,
      "inputs": [
        {
          "indexed": false,
          "internalType": "uint256",
          "name": "firstSaleFee",
          "type": "uint256"
        },
        {
          "indexed": false,
          "internalType": "uint256",
          "name": "secondSaleFee",
          "type": "uint256"
        }
      ],
      "name": "UpdatePlatformFees",
      "type": "event"
    },
    {
      "inputs": [
        {
          "internalType": "address",
          "name": "to",
          "type": "address"
        },
        {
          "internalType": "uint256",
          "name": "tokenId",
          "type": "uint256"
        }
      ],
      "name": "approve",
      "outputs": [],
      "stateMutability": "nonpayable",
      "type": "function"
    },
    {
      "inputs": [
        {
          "internalType": "address",
          "name": "owner",
          "type": "address"
        }
      ],
      "name": "balanceOf",
      "outputs": [
        {
          "internalType": "uint256",
          "name": "",
          "type": "uint256"
        }
      ],
      "stateMutability": "view",
      "type": "function"
    },
    {
      "inputs": [
        {
          "internalType": "string",
          "name": "uri",
          "type": "string"
        },
        {
          "internalType": "uint256",
          "name": "_amount",
          "type": "uint256"
        }
      ],
      "name": "bid",
      "outputs": [],
      "stateMutability": "payable",
      "type": "function"
    },
    {
      "inputs": [
        {
          "internalType": "string",
          "name": "uri",
          "type": "string"
        },
        {
          "internalType": "uint256",
          "name": "startPrice",
          "type": "uint256"
        },
        {
          "internalType": "uint256",
          "name": "startTime",
          "type": "uint256"
        },
        {
          "internalType": "uint256",
          "name": "endTime",
          "type": "uint256"
        }
      ],
      "name": "createBidding",
      "outputs": [],
      "stateMutability": "payable",
      "type": "function"
    },
    {
      "inputs": [
        {
          "internalType": "string",
          "name": "uri",
          "type": "string"
        },
        {
          "internalType": "string",
          "name": "name",
          "type": "string"
        }
      ],
      "name": "createNFT",
      "outputs": [
        {
          "internalType": "uint256",
          "name": "",
          "type": "uint256"
        }
      ],
      "stateMutability": "nonpayable",
      "type": "function"
    },
    {
      "inputs": [
        {
          "internalType": "uint256",
          "name": "tokenId",
          "type": "uint256"
        }
      ],
      "name": "getApproved",
      "outputs": [
        {
          "internalType": "address",
          "name": "",
          "type": "address"
        }
      ],
      "stateMutability": "view",
      "type": "function"
    },
    {
      "inputs": [
        {
          "internalType": "uint256",
          "name": "",
          "type": "uint256"
        }
      ],
      "name": "indexOfToken",
      "outputs": [
        {
          "internalType": "uint256",
          "name": "",
          "type": "uint256"
        }
      ],
      "stateMutability": "view",
      "type": "function"
    },
    {
      "inputs": [
        {
          "internalType": "address",
          "name": "owner",
          "type": "address"
        },
        {
          "internalType": "address",
          "name": "operator",
          "type": "address"
        }
      ],
      "name": "isApprovedForAll",
      "outputs": [
        {
          "internalType": "bool",
          "name": "",
          "type": "bool"
        }
      ],
      "stateMutability": "view",
      "type": "function"
    },
    {
      "inputs": [
        {
          "internalType": "string",
          "name": "",
          "type": "string"
        }
      ],
      "name": "listNFT",
      "outputs": [
        {
          "internalType": "address",
          "name": "owner",
          "type": "address"
        },
        {
          "internalType": "string",
          "name": "url",
          "type": "string"
        },
        {
          "internalType": "string",
          "name": "name",
          "type": "string"
        },
        {
          "internalType": "uint256",
          "name": "price",
          "type": "uint256"
        },
        {
          "internalType": "enum DbAudio.AudioStatus",
          "name": "status",
          "type": "uint8"
        },
        {
          "internalType": "uint256",
          "name": "currentBidding",
          "type": "uint256"
        },
        {
          "internalType": "uint256",
          "name": "saleCount",
          "type": "uint256"
        }
      ],
      "stateMutability": "view",
      "type": "function"
    },
    {
      "inputs": [
        {
          "internalType": "address",
          "name": "",
          "type": "address"
        },
        {
          "internalType": "uint256",
          "name": "",
          "type": "uint256"
        }
      ],
      "name": "listOwnToken",
      "outputs": [
        {
          "internalType": "uint256",
          "name": "",
          "type": "uint256"
        }
      ],
      "stateMutability": "view",
      "type": "function"
    },
    {
      "inputs": [],
      "name": "name",
      "outputs": [
        {
          "internalType": "string",
          "name": "",
          "type": "string"
        }
      ],
      "stateMutability": "view",
      "type": "function"
    },
    {
      "inputs": [],
      "name": "owner",
      "outputs": [
        {
          "internalType": "address",
          "name": "",
          "type": "address"
        }
      ],
      "stateMutability": "view",
      "type": "function"
    },
    {
      "inputs": [
        {
          "internalType": "uint256",
          "name": "tokenId",
          "type": "uint256"
        }
      ],
      "name": "ownerOf",
      "outputs": [
        {
          "internalType": "address",
          "name": "",
          "type": "address"
        }
      ],
      "stateMutability": "view",
      "type": "function"
    },
    {
      "inputs": [],
      "name": "platformFeeRecipient",
      "outputs": [
        {
          "internalType": "address payable",
          "name": "",
          "type": "address"
        }
      ],
      "stateMutability": "view",
      "type": "function"
    },
    {
      "inputs": [],
      "name": "renounceOwnership",
      "outputs": [],
      "stateMutability": "nonpayable",
      "type": "function"
    },
    {
      "inputs": [
        {
          "internalType": "address",
          "name": "from",
          "type": "address"
        },
        {
          "internalType": "address",
          "name": "to",
          "type": "address"
        },
        {
          "internalType": "uint256",
          "name": "tokenId",
          "type": "uint256"
        }
      ],
      "name": "safeTransferFrom",
      "outputs": [],
      "stateMutability": "nonpayable",
      "type": "function"
    },
    {
      "inputs": [
        {
          "internalType": "address",
          "name": "from",
          "type": "address"
        },
        {
          "internalType": "address",
          "name": "to",
          "type": "address"
        },
        {
          "internalType": "uint256",
          "name": "tokenId",
          "type": "uint256"
        },
        {
          "internalType": "bytes",
          "name": "_data",
          "type": "bytes"
        }
      ],
      "name": "safeTransferFrom",
      "outputs": [],
      "stateMutability": "nonpayable",
      "type": "function"
    },
    {
      "inputs": [
        {
          "internalType": "address",
          "name": "operator",
          "type": "address"
        },
        {
          "internalType": "bool",
          "name": "approved",
          "type": "bool"
        }
      ],
      "name": "setApprovalForAll",
      "outputs": [],
      "stateMutability": "nonpayable",
      "type": "function"
    },
    {
      "inputs": [
        {
          "internalType": "string",
          "name": "uri",
          "type": "string"
        }
      ],
      "name": "settleBiddingSession",
      "outputs": [],
      "stateMutability": "payable",
      "type": "function"
    },
    {
      "inputs": [
        {
          "internalType": "bytes4",
          "name": "interfaceId",
          "type": "bytes4"
        }
      ],
      "name": "supportsInterface",
      "outputs": [
        {
          "internalType": "bool",
          "name": "",
          "type": "bool"
        }
      ],
      "stateMutability": "view",
      "type": "function"
    },
    {
      "inputs": [],
      "name": "symbol",
      "outputs": [
        {
          "internalType": "string",
          "name": "",
          "type": "string"
        }
      ],
      "stateMutability": "view",
      "type": "function"
    },
    {
      "inputs": [
        {
          "internalType": "string",
          "name": "",
          "type": "string"
        }
      ],
      "name": "tokenIdMapping",
      "outputs": [
        {
          "internalType": "uint256",
          "name": "",
          "type": "uint256"
        }
      ],
      "stateMutability": "view",
      "type": "function"
    },
    {
      "inputs": [
        {
          "internalType": "uint256",
          "name": "tokenId",
          "type": "uint256"
        }
      ],
      "name": "tokenURI",
      "outputs": [
        {
          "internalType": "string",
          "name": "",
          "type": "string"
        }
      ],
      "stateMutability": "view",
      "type": "function"
    },
    {
      "inputs": [
        {
          "internalType": "address",
          "name": "from",
          "type": "address"
        },
        {
          "internalType": "address",
          "name": "to",
          "type": "address"
        },
        {
          "internalType": "uint256",
          "name": "tokenId",
          "type": "uint256"
        }
      ],
      "name": "transferFrom",
      "outputs": [],
      "stateMutability": "nonpayable",
      "type": "function"
    },
    {
      "inputs": [
        {
          "internalType": "address",
          "name": "newOwner",
          "type": "address"
        }
      ],
      "name": "transferOwnership",
      "outputs": [],
      "stateMutability": "nonpayable",
      "type": "function"
    },
    {
      "inputs": [
        {
          "internalType": "address payable",
          "name": "_platformFeeRecipient",
          "type": "address"
        }
      ],
      "name": "updatePlatformFeeRecipient",
      "outputs": [],
      "stateMutability": "nonpayable",
      "type": "function"
    },
    {
      "inputs": [
        {
          "internalType": "uint256",
          "name": "_firstSaleFee",
          "type": "uint256"
        },
        {
          "internalType": "uint256",
          "name": "_secondSaleFee",
          "type": "uint256"
        }
      ],
      "name": "updatePlatformFees",
      "outputs": [],
      "stateMutability": "nonpayable",
      "type": "function"
    }
  ],
  "bytecode": "0x6080604052607d600a556064600b553480156200001b57600080fd5b506040518060400160405280600981526020017f44656369626c696e6700000000000000000000000000000000000000000000008152506040518060400160405280600281526020017f44420000000000000000000000000000000000000000000000000000000000008152508160009080519060200190620000a092919062000246565b508060019080519060200190620000b992919062000246565b505050620000dc620000d06200017860201b60201c565b6200018060201b60201c565b73aa8adb51329ba9640d86aa10b0f374d97a7b31d9600960006101000a81548173ffffffffffffffffffffffffffffffffffffffff021916908373ffffffffffffffffffffffffffffffffffffffff16021790555033600c60006101000a81548173ffffffffffffffffffffffffffffffffffffffff021916908373ffffffffffffffffffffffffffffffffffffffff1602179055506200035b565b600033905090565b6000600660009054906101000a900473ffffffffffffffffffffffffffffffffffffffff16905081600660006101000a81548173ffffffffffffffffffffffffffffffffffffffff021916908373ffffffffffffffffffffffffffffffffffffffff1602179055508173ffffffffffffffffffffffffffffffffffffffff168173ffffffffffffffffffffffffffffffffffffffff167f8be0079c531659141344cd1fd0a4f28419497f9722a3daafe3b4186f6b6457e060405160405180910390a35050565b8280546200025490620002f6565b90600052602060002090601f016020900481019282620002785760008555620002c4565b82601f106200029357805160ff1916838001178555620002c4565b82800160010185558215620002c4579182015b82811115620002c3578251825591602001919060010190620002a6565b5b509050620002d39190620002d7565b5090565b5b80821115620002f2576000816000905550600101620002d8565b5090565b600060028204905060018216806200030f57607f821691505b602082108114156200032657620003256200032c565b5b50919050565b7f4e487b7100000000000000000000000000000000000000000000000000000000600052602260045260246000fd5b615f76806200036b6000396000f3fe60806040526004361061019c5760003560e01c806370a08231116100ec578063c87b56dd1161008a578063eb13554f11610064578063eb13554f1461060c578063f2fde38b14610637578063f5fe7f7114610660578063ff41edbc146106895761019c565b8063c87b56dd14610555578063d8189e0514610592578063e985e9c5146105cf5761019c565b806395d89b41116100c657806395d89b411461049b578063a22cb465146104c6578063b88d4fde146104ef578063b88eabdd146105185761019c565b806370a082311461041c578063715018a6146104595780638da5cb5b146104705761019c565b806342842e0e116101595780635f483313116101335780635f483313146103495780635ffd9d07146103655780636352211e146103a257806368613d17146103df5761019c565b806342842e0e146102c15780634387330e146102ea578063480058481461032d5761019c565b806301ffc9a7146101a157806306fdde03146101de578063081812fc14610209578063095ea7b31461024657806323b872dd1461026f5780633c909e9314610298575b600080fd5b3480156101ad57600080fd5b506101c860048036038101906101c3919061454c565b6106a5565b6040516101d59190614eef565b60405180910390f35b3480156101ea57600080fd5b506101f3610787565b6040516102009190614f0a565b60405180910390f35b34801561021557600080fd5b50610230600480360381019061022b919061471a565b610819565b60405161023d9190614d67565b60405180910390f35b34801561025257600080fd5b5061026d600480360381019061026891906144e7565b61085f565b005b34801561027b57600080fd5b50610296600480360381019061029191906143e1565b610977565b005b3480156102a457600080fd5b506102bf60048036038101906102ba9190614743565b610c46565b005b3480156102cd57600080fd5b506102e860048036038101906102e391906143e1565b610c99565b005b3480156102f657600080fd5b50610311600480360381019061030c919061459e565b610cb9565b6040516103249796959493929190614e49565b60405180910390f35b6103476004803603810190610342919061469f565b610e4e565b005b610363600480360381019061035e919061464b565b611352565b005b34801561037157600080fd5b5061038c6004803603810190610387919061471a565b61196c565b60405161039991906153d0565b60405180910390f35b3480156103ae57600080fd5b506103c960048036038101906103c4919061471a565b611984565b6040516103d69190614d67565b60405180910390f35b3480156103eb57600080fd5b50610406600480360381019061040191906145df565b611a0b565b60405161041391906153d0565b60405180910390f35b34801561042857600080fd5b50610443600480360381019061043e9190614353565b611d79565b60405161045091906153d0565b60405180910390f35b34801561046557600080fd5b5061046e611e31565b005b34801561047c57600080fd5b50610485611e45565b6040516104929190614d67565b60405180910390f35b3480156104a757600080fd5b506104b0611e6f565b6040516104bd9190614f0a565b60405180910390f35b3480156104d257600080fd5b506104ed60048036038101906104e891906144ab565b611f01565b005b3480156104fb57600080fd5b5061051660048036038101906105119190614430565b611f17565b005b34801561052457600080fd5b5061053f600480360381019061053a919061459e565b6121e8565b60405161054c91906153d0565b60405180910390f35b34801561056157600080fd5b5061057c6004803603810190610577919061471a565b612216565b6040516105899190614f0a565b60405180910390f35b34801561059e57600080fd5b506105b960048036038101906105b491906144e7565b612228565b6040516105c691906153d0565b60405180910390f35b3480156105db57600080fd5b506105f660048036038101906105f191906143a5565b612259565b6040516106039190614eef565b60405180910390f35b34801561061857600080fd5b506106216122ed565b60405161062e9190614d82565b60405180910390f35b34801561064357600080fd5b5061065e60048036038101906106599190614353565b612313565b005b34801561066c57600080fd5b506106876004803603810190610682919061437c565b612397565b005b6106a3600480360381019061069e919061459e565b61248a565b005b60007f80ac58cd000000000000000000000000000000000000000000000000000000007bffffffffffffffffffffffffffffffffffffffffffffffffffffffff1916827bffffffffffffffffffffffffffffffffffffffffffffffffffffffff1916148061077057507f5b5e139f000000000000000000000000000000000000000000000000000000007bffffffffffffffffffffffffffffffffffffffffffffffffffffffff1916827bffffffffffffffffffffffffffffffffffffffffffffffffffffffff1916145b80610780575061077f82612d6a565b5b9050919050565b60606000805461079690615736565b80601f01602080910402602001604051908101604052809291908181526020018280546107c290615736565b801561080f5780601f106107e45761010080835404028352916020019161080f565b820191906000526020600020905b8154815290600101906020018083116107f257829003601f168201915b5050505050905090565b600061082482612dd4565b6004600083815260200190815260200160002060009054906101000a900473ffffffffffffffffffffffffffffffffffffffff169050919050565b600061086a82611984565b90508073ffffffffffffffffffffffffffffffffffffffff168373ffffffffffffffffffffffffffffffffffffffff1614156108db576040517f08c379a00000000000000000000000000000000000000000000000000000000081526004016108d290615330565b60405180910390fd5b8073ffffffffffffffffffffffffffffffffffffffff166108fa612e1f565b73ffffffffffffffffffffffffffffffffffffffff161480610929575061092881610923612e1f565b612259565b5b610968576040517f08c379a000000000000000000000000000000000000000000000000000000000815260040161095f90615350565b60405180910390fd5b6109728383612e27565b505050565b600f60008373ffffffffffffffffffffffffffffffffffffffff1673ffffffffffffffffffffffffffffffffffffffff168152602001908152602001600020819080600181540180825580915050600190039060005260206000200160009091909190915055600f60008473ffffffffffffffffffffffffffffffffffffffff1673ffffffffffffffffffffffffffffffffffffffff1681526020019081526020016000206001600f60008673ffffffffffffffffffffffffffffffffffffffff1673ffffffffffffffffffffffffffffffffffffffff16815260200190815260200160002080549050610a6b91906155df565b81548110610aa2577f4e487b7100000000000000000000000000000000000000000000000000000000600052603260045260246000fd5b9060005260206000200154600f60008573ffffffffffffffffffffffffffffffffffffffff1673ffffffffffffffffffffffffffffffffffffffff168152602001908152602001600020601060008481526020019081526020016000205481548110610b37577f4e487b7100000000000000000000000000000000000000000000000000000000600052603260045260246000fd5b9060005260206000200181905550600f60008473ffffffffffffffffffffffffffffffffffffffff1673ffffffffffffffffffffffffffffffffffffffff168152602001908152602001600020805480610bba577f4e487b7100000000000000000000000000000000000000000000000000000000600052603160045260246000fd5b600190038181906000526020600020016000905590556001600f60008473ffffffffffffffffffffffffffffffffffffffff1673ffffffffffffffffffffffffffffffffffffffff16815260200190815260200160002080549050610c1f91906155df565b6010600083815260200190815260200160002081905550610c41838383612ee0565b505050565b610c4e612f40565b81600a8190555080600b819055507f36ac9417f4c4141853b0a7cba911657b2d3d3a399db1e48e7430dd66ce91692d8282604051610c8d9291906153eb565b60405180910390a15050565b610cb483838360405180602001604052806000815250611f17565b505050565b600d818051602081018201805184825260208301602085012081835280955050505050506000915090508060000160009054906101000a900473ffffffffffffffffffffffffffffffffffffffff1690806001018054610d1890615736565b80601f0160208091040260200160405190810160405280929190818152602001828054610d4490615736565b8015610d915780601f10610d6657610100808354040283529160200191610d91565b820191906000526020600020905b815481529060010190602001808311610d7457829003601f168201915b505050505090806002018054610da690615736565b80601f0160208091040260200160405190810160405280929190818152602001828054610dd290615736565b8015610e1f5780601f10610df457610100808354040283529160200191610e1f565b820191906000526020600020905b815481529060010190602001808311610e0257829003601f168201915b5050505050908060030154908060040160009054906101000a900460ff16908060060154908060070154905087565b808210610e90576040517f08c379a0000000000000000000000000000000000000000000000000000000008152600401610e8790615290565b60405180910390fd5b6000600d85604051610ea29190614d2c565b90815260200160405180910390209050848051906020012081600101604051610ecb9190614d15565b604051809103902014610f13576040517f08c379a0000000000000000000000000000000000000000000000000000000008152600401610f0a90615030565b60405180910390fd5b3373ffffffffffffffffffffffffffffffffffffffff168160000160009054906101000a900473ffffffffffffffffffffffffffffffffffffffff1673ffffffffffffffffffffffffffffffffffffffff1614610fa5576040517f08c379a0000000000000000000000000000000000000000000000000000000008152600401610f9c90615370565b60405180910390fd5b610fad612fbe565b8211610fee576040517f08c379a0000000000000000000000000000000000000000000000000000000008152600401610fe590615170565b60405180910390fd5b60006003811115611028577f4e487b7100000000000000000000000000000000000000000000000000000000600052602160045260246000fd5b8160040160009054906101000a900460ff166003811115611072577f4e487b7100000000000000000000000000000000000000000000000000000000600052602160045260246000fd5b14806110fe57506003808111156110b2577f4e487b7100000000000000000000000000000000000000000000000000000000600052602160045260246000fd5b8160040160009054906101000a900460ff1660038111156110fc577f4e487b7100000000000000000000000000000000000000000000000000000000600052602160045260246000fd5b145b61113d576040517f08c379a000000000000000000000000000000000000000000000000000000000815260040161113490615390565b60405180910390fd5b600181600601600082825461115291906154fe565b9250508190555060008160050160008360060154815260200190815260200160002060000160006101000a81548173ffffffffffffffffffffffffffffffffffffffff021916908373ffffffffffffffffffffffffffffffffffffffff1602179055508381600501600083600601548152602001908152602001600020600101819055506111de612fbe565b83116111eb5760006111ee565b60015b8160050160008360060154815260200190815260200160002060020160006101000a81548160ff02191690836003811115611252577f4e487b7100000000000000000000000000000000000000000000000000000000600052602160045260246000fd5b02179055508281600501600083600601548152602001908152602001600020600301819055508181600501600083600601548152602001908152602001600020600401819055506000816005016000836006015481526020019081526020016000206005018190555060018160040160006101000a81548160ff02191690836003811115611309577f4e487b7100000000000000000000000000000000000000000000000000000000600052602160045260246000fd5b02179055507fe233c542868b104ebadeaae493a99c04bab3c65b4a0540ab44d7f753f8b0a4c6858585856040516113439493929190614fc4565b60405180910390a15050505050565b600960009054906101000a900473ffffffffffffffffffffffffffffffffffffffff1673ffffffffffffffffffffffffffffffffffffffff166323b872dd3330846040518463ffffffff1660e01b81526004016113b193929190614dc6565b602060405180830381600087803b1580156113cb57600080fd5b505af11580156113df573d6000803e3d6000fd5b505050506040513d601f19601f820116820180604052508101906114039190614523565b506000600d836040516114169190614d2c565b9081526020016040518091039020905082805190602001208160010160405161143f9190614d15565b604051809103902014611487576040517f08c379a000000000000000000000000000000000000000000000000000000000815260040161147e90615030565b60405180910390fd5b600160038111156114c1577f4e487b7100000000000000000000000000000000000000000000000000000000600052602160045260246000fd5b8160040160009054906101000a900460ff16600381111561150b577f4e487b7100000000000000000000000000000000000000000000000000000000600052602160045260246000fd5b1461154b576040517f08c379a000000000000000000000000000000000000000000000000000000000815260040161154290615050565b60405180910390fd5b600081600601541415611593576040517f08c379a000000000000000000000000000000000000000000000000000000000815260040161158a90615210565b60405180910390fd5b60008160050160008360060154815260200190815260200160002090506115b8612fbe565b8160030154111580156115d6575080600401546115d3612fbe565b11155b611615576040517f08c379a000000000000000000000000000000000000000000000000000000000815260040161160c90615250565b60405180910390fd5b60008160000160009054906101000a900473ffffffffffffffffffffffffffffffffffffffff169050600082600101549050600073ffffffffffffffffffffffffffffffffffffffff168273ffffffffffffffffffffffffffffffffffffffff1614156116c85784836001015411156116c3576040517f08c379a00000000000000000000000000000000000000000000000000000000081526004016116ba90615230565b60405180910390fd5b61170f565b8483600101541061170e576040517f08c379a000000000000000000000000000000000000000000000000000000000815260040161170590615230565b60405180910390fd5b5b60028360020160006101000a81548160ff0219169083600381111561175d577f4e487b7100000000000000000000000000000000000000000000000000000000600052602160045260246000fd5b0217905550600060405180606001604052803373ffffffffffffffffffffffffffffffffffffffff168152602001878152602001611799612fbe565b815250905060018460050160008282546117b391906154fe565b92505081905550808460060160008660050154815260200190815260200160002060008201518160000160006101000a81548173ffffffffffffffffffffffffffffffffffffffff021916908373ffffffffffffffffffffffffffffffffffffffff1602179055506020820151816001015560408201518160020155905050338460000160006101000a81548173ffffffffffffffffffffffffffffffffffffffff021916908373ffffffffffffffffffffffffffffffffffffffff160217905550858460010181905550600073ffffffffffffffffffffffffffffffffffffffff168373ffffffffffffffffffffffffffffffffffffffff161461196357600960009054906101000a900473ffffffffffffffffffffffffffffffffffffffff1673ffffffffffffffffffffffffffffffffffffffff1663a9059cbb84846040518363ffffffff1660e01b815260040161190f929190614ec6565b602060405180830381600087803b15801561192957600080fd5b505af115801561193d573d6000803e3d6000fd5b505050506040513d601f19601f820116820180604052508101906119619190614523565b505b50505050505050565b60106020528060005260406000206000915090505481565b60008061199083612fc6565b9050600073ffffffffffffffffffffffffffffffffffffffff168173ffffffffffffffffffffffffffffffffffffffff161415611a02576040517f08c379a00000000000000000000000000000000000000000000000000000000081526004016119f990615310565b60405180910390fd5b80915050919050565b600080600d84604051611a1e9190614d2c565b90815260200160405180910390209050838051906020012081600101604051611a479190614d15565b60405180910390201415611a90576040517f08c379a0000000000000000000000000000000000000000000000000000000008152600401611a87906152f0565b60405180910390fd5b611a9a6008613003565b33600d85604051611aab9190614d2c565b908152602001604051809103902060000160006101000a81548173ffffffffffffffffffffffffffffffffffffffff021916908373ffffffffffffffffffffffffffffffffffffffff16021790555083600d85604051611b0b9190614d2c565b90815260200160405180910390206001019080519060200190611b2f92919061414d565b5082600d85604051611b419190614d2c565b90815260200160405180910390206002019080519060200190611b6592919061414d565b506000600d85604051611b789190614d2c565b908152602001604051809103902060040160006101000a81548160ff02191690836003811115611bd1577f4e487b7100000000000000000000000000000000000000000000000000000000600052602160045260246000fd5b02179055506000600d85604051611be89190614d2c565b9081526020016040518091039020600701819055506000600d85604051611c0f9190614d2c565b9081526020016040518091039020600601819055506000611c306008613019565b9050611c3c3382613027565b611c468186613245565b80600e86604051611c579190614d2c565b908152602001604051809103902081905550600f60003373ffffffffffffffffffffffffffffffffffffffff1673ffffffffffffffffffffffffffffffffffffffff1681526020019081526020016000208190806001815401808255809150506001900390600052602060002001600090919091909150556001600f60003373ffffffffffffffffffffffffffffffffffffffff1673ffffffffffffffffffffffffffffffffffffffff16815260200190815260200160002080549050611d1e91906155df565b60106000838152602001908152602001600020819055507f59e3e0f1aabce96b386d212c7c9563c597464cb2f714aa8cf022346ea95cfbc68582604051611d66929190614f94565b60405180910390a1809250505092915050565b60008073ffffffffffffffffffffffffffffffffffffffff168273ffffffffffffffffffffffffffffffffffffffff161415611dea576040517f08c379a0000000000000000000000000000000000000000000000000000000008152600401611de1906151b0565b60405180910390fd5b600360008373ffffffffffffffffffffffffffffffffffffffff1673ffffffffffffffffffffffffffffffffffffffff168152602001908152602001600020549050919050565b611e39612f40565b611e4360006132b9565b565b6000600660009054906101000a900473ffffffffffffffffffffffffffffffffffffffff16905090565b606060018054611e7e90615736565b80601f0160208091040260200160405190810160405280929190818152602001828054611eaa90615736565b8015611ef75780601f10611ecc57610100808354040283529160200191611ef7565b820191906000526020600020905b815481529060010190602001808311611eda57829003601f168201915b5050505050905090565b611f13611f0c612e1f565b838361337f565b5050565b600f60008473ffffffffffffffffffffffffffffffffffffffff1673ffffffffffffffffffffffffffffffffffffffff168152602001908152602001600020829080600181540180825580915050600190039060005260206000200160009091909190915055600f60008573ffffffffffffffffffffffffffffffffffffffff1673ffffffffffffffffffffffffffffffffffffffff1681526020019081526020016000206001600f60008773ffffffffffffffffffffffffffffffffffffffff1673ffffffffffffffffffffffffffffffffffffffff1681526020019081526020016000208054905061200b91906155df565b81548110612042577f4e487b7100000000000000000000000000000000000000000000000000000000600052603260045260246000fd5b9060005260206000200154600f60008673ffffffffffffffffffffffffffffffffffffffff1673ffffffffffffffffffffffffffffffffffffffff1681526020019081526020016000206010600085815260200190815260200160002054815481106120d7577f4e487b7100000000000000000000000000000000000000000000000000000000600052603260045260246000fd5b9060005260206000200181905550600f60008573ffffffffffffffffffffffffffffffffffffffff1673ffffffffffffffffffffffffffffffffffffffff16815260200190815260200160002080548061215a577f4e487b7100000000000000000000000000000000000000000000000000000000600052603160045260246000fd5b600190038181906000526020600020016000905590556001600f60008573ffffffffffffffffffffffffffffffffffffffff1673ffffffffffffffffffffffffffffffffffffffff168152602001908152602001600020805490506121bf91906155df565b60106000848152602001908152602001600020819055506121e2848484846134ec565b50505050565b600e818051602081018201805184825260208301602085012081835280955050505050506000915090505481565b60606122218261354e565b9050919050565b600f602052816000526040600020818154811061224457600080fd5b90600052602060002001600091509150505481565b6000600560008473ffffffffffffffffffffffffffffffffffffffff1673ffffffffffffffffffffffffffffffffffffffff16815260200190815260200160002060008373ffffffffffffffffffffffffffffffffffffffff1673ffffffffffffffffffffffffffffffffffffffff16815260200190815260200160002060009054906101000a900460ff16905092915050565b600c60009054906101000a900473ffffffffffffffffffffffffffffffffffffffff1681565b61231b612f40565b600073ffffffffffffffffffffffffffffffffffffffff168173ffffffffffffffffffffffffffffffffffffffff16141561238b576040517f08c379a0000000000000000000000000000000000000000000000000000000008152600401612382906150b0565b60405180910390fd5b612394816132b9565b50565b61239f612f40565b600073ffffffffffffffffffffffffffffffffffffffff168173ffffffffffffffffffffffffffffffffffffffff16141561240f576040517f08c379a0000000000000000000000000000000000000000000000000000000008152600401612406906153b0565b60405180910390fd5b80600c60006101000a81548173ffffffffffffffffffffffffffffffffffffffff021916908373ffffffffffffffffffffffffffffffffffffffff1602179055507fe57e7c1f36cc83fade34e32351e6eee7eb9da532662b1b5da10c631e8222aca78160405161247f9190614d82565b60405180910390a150565b6000600d8260405161249c9190614d2c565b908152602001604051809103902090508180519060200120816001016040516124c59190614d15565b60405180910390201461250d576040517f08c379a000000000000000000000000000000000000000000000000000000000815260040161250490615030565b60405180910390fd5b60016003811115612547577f4e487b7100000000000000000000000000000000000000000000000000000000600052602160045260246000fd5b8160040160009054906101000a900460ff166003811115612591577f4e487b7100000000000000000000000000000000000000000000000000000000600052602160045260246000fd5b146125d1576040517f08c379a00000000000000000000000000000000000000000000000000000000081526004016125c890615190565b60405180910390fd5b600081600601541415612619576040517f08c379a000000000000000000000000000000000000000000000000000000000815260040161261090615210565b60405180910390fd5b600073ffffffffffffffffffffffffffffffffffffffff16600c60009054906101000a900473ffffffffffffffffffffffffffffffffffffffff1673ffffffffffffffffffffffffffffffffffffffff1614156126ab576040517f08c379a00000000000000000000000000000000000000000000000000000000081526004016126a2906152b0565b60405180910390fd5b60008160050160008360060154815260200190815260200160002090506126d0612fbe565b81600301541080156126ec575080600401546126ea612fbe565b115b61272b576040517f08c379a000000000000000000000000000000000000000000000000000000000815260040161272290615070565b60405180910390fd5b60026003811115612765577f4e487b7100000000000000000000000000000000000000000000000000000000600052602160045260246000fd5b8160020160009054906101000a900460ff1660038111156127af577f4e487b7100000000000000000000000000000000000000000000000000000000600052602160045260246000fd5b148061283c5750600160038111156127f0577f4e487b7100000000000000000000000000000000000000000000000000000000600052602160045260246000fd5b8260040160009054906101000a900460ff16600381111561283a577f4e487b7100000000000000000000000000000000000000000000000000000000600052602160045260246000fd5b145b61287b576040517f08c379a0000000000000000000000000000000000000000000000000000000008152600401612872906150d0565b60405180910390fd5b6000816001015490506000808460000160009054906101000a900473ffffffffffffffffffffffffffffffffffffffff169050600073ffffffffffffffffffffffffffffffffffffffff168460000160009054906101000a900473ffffffffffffffffffffffffffffffffffffffff1673ffffffffffffffffffffffffffffffffffffffff1614612c37576000856007015414801561291c57506000600a54115b15612943576103e8600a54846129329190615585565b61293c9190615554565b9150612961565b6103e8600b54846129549190615585565b61295e9190615554565b91505b600082116129a4576040517f08c379a000000000000000000000000000000000000000000000000000000000815260040161299b906151d0565b60405180910390fd5b612a158560000160009054906101000a900473ffffffffffffffffffffffffffffffffffffffff168560000160009054906101000a900473ffffffffffffffffffffffffffffffffffffffff16600e89604051612a019190614d2c565b908152602001604051809103902054610c99565b8360000160009054906101000a900473ffffffffffffffffffffffffffffffffffffffff168560000160006101000a81548173ffffffffffffffffffffffffffffffffffffffff021916908373ffffffffffffffffffffffffffffffffffffffff160217905550828560030181905550600960009054906101000a900473ffffffffffffffffffffffffffffffffffffffff1673ffffffffffffffffffffffffffffffffffffffff1663a9059cbb8660000160009054906101000a900473ffffffffffffffffffffffffffffffffffffffff168486612af491906155df565b6040518363ffffffff1660e01b8152600401612b11929190614ec6565b602060405180830381600087803b158015612b2b57600080fd5b505af1158015612b3f573d6000803e3d6000fd5b505050506040513d601f19601f82011682018060405250810190612b639190614523565b50600960009054906101000a900473ffffffffffffffffffffffffffffffffffffffff1673ffffffffffffffffffffffffffffffffffffffff1663a9059cbb600c60009054906101000a900473ffffffffffffffffffffffffffffffffffffffff16846040518363ffffffff1660e01b8152600401612be3929190614d9d565b602060405180830381600087803b158015612bfd57600080fd5b505af1158015612c11573d6000803e3d6000fd5b505050506040513d601f19601f82011682018060405250810190612c359190614523565b505b60038460020160006101000a81548160ff02191690836003811115612c85577f4e487b7100000000000000000000000000000000000000000000000000000000600052602160045260246000fd5b021790555060038560040160006101000a81548160ff02191690836003811115612cd8577f4e487b7100000000000000000000000000000000000000000000000000000000600052602160045260246000fd5b02179055506001856007016000828254612cf291906154fe565b925050819055507fc86b918096c9079483cd346937593ed8c875abff5f01951f15ee41c4513dca7286828660000160009054906101000a900473ffffffffffffffffffffffffffffffffffffffff1686868a60070154604051612d5a96959493929190614f2c565b60405180910390a1505050505050565b60007f01ffc9a7000000000000000000000000000000000000000000000000000000007bffffffffffffffffffffffffffffffffffffffffffffffffffffffff1916827bffffffffffffffffffffffffffffffffffffffffffffffffffffffff1916149050919050565b612ddd81613661565b612e1c576040517f08c379a0000000000000000000000000000000000000000000000000000000008152600401612e1390615310565b60405180910390fd5b50565b600033905090565b816004600083815260200190815260200160002060006101000a81548173ffffffffffffffffffffffffffffffffffffffff021916908373ffffffffffffffffffffffffffffffffffffffff160217905550808273ffffffffffffffffffffffffffffffffffffffff16612e9a83611984565b73ffffffffffffffffffffffffffffffffffffffff167f8c5be1e5ebec7d5bd14f71427d1e84f3dd0314c0f7b2291e5b200ac8c7c3b92560405160405180910390a45050565b612ef1612eeb612e1f565b826136a2565b612f30576040517f08c379a0000000000000000000000000000000000000000000000000000000008152600401612f2790615010565b60405180910390fd5b612f3b838383613737565b505050565b612f48612e1f565b73ffffffffffffffffffffffffffffffffffffffff16612f66611e45565b73ffffffffffffffffffffffffffffffffffffffff1614612fbc576040517f08c379a0000000000000000000000000000000000000000000000000000000008152600401612fb3906152d0565b60405180910390fd5b565b600042905090565b60006002600083815260200190815260200160002060009054906101000a900473ffffffffffffffffffffffffffffffffffffffff169050919050565b6001816000016000828254019250508190555050565b600081600001549050919050565b600073ffffffffffffffffffffffffffffffffffffffff168273ffffffffffffffffffffffffffffffffffffffff161415613097576040517f08c379a000000000000000000000000000000000000000000000000000000000815260040161308e90615270565b60405180910390fd5b6130a081613661565b156130e0576040517f08c379a00000000000000000000000000000000000000000000000000000000081526004016130d790615110565b60405180910390fd5b6130ee600083836001613a31565b6130f781613661565b15613137576040517f08c379a000000000000000000000000000000000000000000000000000000000815260040161312e90615110565b60405180910390fd5b6001600360008473ffffffffffffffffffffffffffffffffffffffff1673ffffffffffffffffffffffffffffffffffffffff16815260200190815260200160002060008282540192505081905550816002600083815260200190815260200160002060006101000a81548173ffffffffffffffffffffffffffffffffffffffff021916908373ffffffffffffffffffffffffffffffffffffffff160217905550808273ffffffffffffffffffffffffffffffffffffffff16600073ffffffffffffffffffffffffffffffffffffffff167fddf252ad1be2c89b69c2b068fc378daa952ba7f163c4a11628f55a4df523b3ef60405160405180910390a4613241600083836001613b57565b5050565b61324e82613661565b61328d576040517f08c379a0000000000000000000000000000000000000000000000000000000008152600401613284906151f0565b60405180910390fd5b806007600084815260200190815260200160002090805190602001906132b492919061414d565b505050565b6000600660009054906101000a900473ffffffffffffffffffffffffffffffffffffffff16905081600660006101000a81548173ffffffffffffffffffffffffffffffffffffffff021916908373ffffffffffffffffffffffffffffffffffffffff1602179055508173ffffffffffffffffffffffffffffffffffffffff168173ffffffffffffffffffffffffffffffffffffffff167f8be0079c531659141344cd1fd0a4f28419497f9722a3daafe3b4186f6b6457e060405160405180910390a35050565b8173ffffffffffffffffffffffffffffffffffffffff168373ffffffffffffffffffffffffffffffffffffffff1614156133ee576040517f08c379a00000000000000000000000000000000000000000000000000000000081526004016133e590615150565b60405180910390fd5b80600560008573ffffffffffffffffffffffffffffffffffffffff1673ffffffffffffffffffffffffffffffffffffffff16815260200190815260200160002060008473ffffffffffffffffffffffffffffffffffffffff1673ffffffffffffffffffffffffffffffffffffffff16815260200190815260200160002060006101000a81548160ff0219169083151502179055508173ffffffffffffffffffffffffffffffffffffffff168373ffffffffffffffffffffffffffffffffffffffff167f17307eab39ab6107e8899845ad3d59bd9653f200f220920489ca2b5937696c31836040516134df9190614eef565b60405180910390a3505050565b6134fd6134f7612e1f565b836136a2565b61353c576040517f08c379a000000000000000000000000000000000000000000000000000000000815260040161353390615010565b60405180910390fd5b61354884848484613b5d565b50505050565b606061355982612dd4565b600060076000848152602001908152602001600020805461357990615736565b80601f01602080910402602001604051908101604052809291908181526020018280546135a590615736565b80156135f25780601f106135c7576101008083540402835291602001916135f2565b820191906000526020600020905b8154815290600101906020018083116135d557829003601f168201915b505050505090506000613603613bb9565b905060008151141561361957819250505061365c565b60008251111561364e578082604051602001613636929190614d43565b6040516020818303038152906040529250505061365c565b61365784613bd0565b925050505b919050565b60008073ffffffffffffffffffffffffffffffffffffffff1661368383612fc6565b73ffffffffffffffffffffffffffffffffffffffff1614159050919050565b6000806136ae83611984565b90508073ffffffffffffffffffffffffffffffffffffffff168473ffffffffffffffffffffffffffffffffffffffff1614806136f057506136ef8185612259565b5b8061372e57508373ffffffffffffffffffffffffffffffffffffffff1661371684610819565b73ffffffffffffffffffffffffffffffffffffffff16145b91505092915050565b8273ffffffffffffffffffffffffffffffffffffffff1661375782611984565b73ffffffffffffffffffffffffffffffffffffffff16146137ad576040517f08c379a00000000000000000000000000000000000000000000000000000000081526004016137a4906150f0565b60405180910390fd5b600073ffffffffffffffffffffffffffffffffffffffff168273ffffffffffffffffffffffffffffffffffffffff16141561381d576040517f08c379a000000000000000000000000000000000000000000000000000000000815260040161381490615130565b60405180910390fd5b61382a8383836001613a31565b8273ffffffffffffffffffffffffffffffffffffffff1661384a82611984565b73ffffffffffffffffffffffffffffffffffffffff16146138a0576040517f08c379a0000000000000000000000000000000000000000000000000000000008152600401613897906150f0565b60405180910390fd5b6004600082815260200190815260200160002060006101000a81549073ffffffffffffffffffffffffffffffffffffffff02191690556001600360008573ffffffffffffffffffffffffffffffffffffffff1673ffffffffffffffffffffffffffffffffffffffff168152602001908152602001600020600082825403925050819055506001600360008473ffffffffffffffffffffffffffffffffffffffff1673ffffffffffffffffffffffffffffffffffffffff16815260200190815260200160002060008282540192505081905550816002600083815260200190815260200160002060006101000a81548173ffffffffffffffffffffffffffffffffffffffff021916908373ffffffffffffffffffffffffffffffffffffffff160217905550808273ffffffffffffffffffffffffffffffffffffffff168473ffffffffffffffffffffffffffffffffffffffff167fddf252ad1be2c89b69c2b068fc378daa952ba7f163c4a11628f55a4df523b3ef60405160405180910390a4613a2c8383836001613b57565b505050565b6001811115613b5157600073ffffffffffffffffffffffffffffffffffffffff168473ffffffffffffffffffffffffffffffffffffffff1614613ac55780600360008673ffffffffffffffffffffffffffffffffffffffff1673ffffffffffffffffffffffffffffffffffffffff1681526020019081526020016000206000828254613abd91906155df565b925050819055505b600073ffffffffffffffffffffffffffffffffffffffff168373ffffffffffffffffffffffffffffffffffffffff1614613b505780600360008573ffffffffffffffffffffffffffffffffffffffff1673ffffffffffffffffffffffffffffffffffffffff1681526020019081526020016000206000828254613b4891906154fe565b925050819055505b5b50505050565b50505050565b613b68848484613737565b613b7484848484613c38565b613bb3576040517f08c379a0000000000000000000000000000000000000000000000000000000008152600401613baa90615090565b60405180910390fd5b50505050565b606060405180602001604052806000815250905090565b6060613bdb82612dd4565b6000613be5613bb9565b90506000815111613c055760405180602001604052806000815250613c30565b80613c0f84613dcf565b604051602001613c20929190614d43565b6040516020818303038152906040525b915050919050565b6000613c598473ffffffffffffffffffffffffffffffffffffffff16613ef3565b15613dc2578373ffffffffffffffffffffffffffffffffffffffff1663150b7a02613c82612e1f565b8786866040518563ffffffff1660e01b8152600401613ca49493929190614dfd565b602060405180830381600087803b158015613cbe57600080fd5b505af1925050508015613cef57506040513d601f19601f82011682018060405250810190613cec9190614575565b60015b613d72573d8060008114613d1f576040519150601f19603f3d011682016040523d82523d6000602084013e613d24565b606091505b50600081511415613d6a576040517f08c379a0000000000000000000000000000000000000000000000000000000008152600401613d6190615090565b60405180910390fd5b805181602001fd5b63150b7a0260e01b7bffffffffffffffffffffffffffffffffffffffffffffffffffffffff1916817bffffffffffffffffffffffffffffffffffffffffffffffffffffffff191614915050613dc7565b600190505b949350505050565b606060006001613dde84613f16565b01905060008167ffffffffffffffff811115613e23577f4e487b7100000000000000000000000000000000000000000000000000000000600052604160045260246000fd5b6040519080825280601f01601f191660200182016040528015613e555781602001600182028036833780820191505090505b509050600082602001820190505b600115613ee8578080600190039150507f3031323334353637383961626364656600000000000000000000000000000000600a86061a8153600a8581613ed2577f4e487b7100000000000000000000000000000000000000000000000000000000600052601260045260246000fd5b0494506000851415613ee357613ee8565b613e63565b819350505050919050565b6000808273ffffffffffffffffffffffffffffffffffffffff163b119050919050565b600080600090507a184f03e93ff9f4daa797ed6e38ed64bf6a1f0100000000000000008310613f9a577a184f03e93ff9f4daa797ed6e38ed64bf6a1f0100000000000000008381613f90577f4e487b7100000000000000000000000000000000000000000000000000000000600052601260045260246000fd5b0492506040810190505b6d04ee2d6d415b85acef81000000008310613ffd576d04ee2d6d415b85acef81000000008381613ff3577f4e487b7100000000000000000000000000000000000000000000000000000000600052601260045260246000fd5b0492506020810190505b662386f26fc10000831061405257662386f26fc100008381614048577f4e487b7100000000000000000000000000000000000000000000000000000000600052601260045260246000fd5b0492506010810190505b6305f5e10083106140a1576305f5e1008381614097577f4e487b7100000000000000000000000000000000000000000000000000000000600052601260045260246000fd5b0492506008810190505b61271083106140ec5761271083816140e2577f4e487b7100000000000000000000000000000000000000000000000000000000600052601260045260246000fd5b0492506004810190505b60648310614135576064838161412b577f4e487b7100000000000000000000000000000000000000000000000000000000600052601260045260246000fd5b0492506002810190505b600a8310614144576001810190505b80915050919050565b82805461415990615736565b90600052602060002090601f01602090048101928261417b57600085556141c2565b82601f1061419457805160ff19168380011785556141c2565b828001600101855582156141c2579182015b828111156141c15782518255916020019190600101906141a6565b5b5090506141cf91906141d3565b5090565b5b808211156141ec5760008160009055506001016141d4565b5090565b60006142036141fe84615439565b615414565b90508281526020810184848401111561421b57600080fd5b6142268482856156f4565b509392505050565b600061424161423c8461546a565b615414565b90508281526020810184848401111561425957600080fd5b6142648482856156f4565b509392505050565b60008135905061427b81615ecd565b92915050565b60008135905061429081615ee4565b92915050565b6000813590506142a581615efb565b92915050565b6000815190506142ba81615efb565b92915050565b6000813590506142cf81615f12565b92915050565b6000815190506142e481615f12565b92915050565b600082601f8301126142fb57600080fd5b813561430b8482602086016141f0565b91505092915050565b600082601f83011261432557600080fd5b813561433584826020860161422e565b91505092915050565b60008135905061434d81615f29565b92915050565b60006020828403121561436557600080fd5b60006143738482850161426c565b91505092915050565b60006020828403121561438e57600080fd5b600061439c84828501614281565b91505092915050565b600080604083850312156143b857600080fd5b60006143c68582860161426c565b92505060206143d78582860161426c565b9150509250929050565b6000806000606084860312156143f657600080fd5b60006144048682870161426c565b93505060206144158682870161426c565b92505060406144268682870161433e565b9150509250925092565b6000806000806080858703121561444657600080fd5b60006144548782880161426c565b94505060206144658782880161426c565b93505060406144768782880161433e565b925050606085013567ffffffffffffffff81111561449357600080fd5b61449f878288016142ea565b91505092959194509250565b600080604083850312156144be57600080fd5b60006144cc8582860161426c565b92505060206144dd85828601614296565b9150509250929050565b600080604083850312156144fa57600080fd5b60006145088582860161426c565b92505060206145198582860161433e565b9150509250929050565b60006020828403121561453557600080fd5b6000614543848285016142ab565b91505092915050565b60006020828403121561455e57600080fd5b600061456c848285016142c0565b91505092915050565b60006020828403121561458757600080fd5b6000614595848285016142d5565b91505092915050565b6000602082840312156145b057600080fd5b600082013567ffffffffffffffff8111156145ca57600080fd5b6145d684828501614314565b91505092915050565b600080604083850312156145f257600080fd5b600083013567ffffffffffffffff81111561460c57600080fd5b61461885828601614314565b925050602083013567ffffffffffffffff81111561463557600080fd5b61464185828601614314565b9150509250929050565b6000806040838503121561465e57600080fd5b600083013567ffffffffffffffff81111561467857600080fd5b61468485828601614314565b92505060206146958582860161433e565b9150509250929050565b600080600080608085870312156146b557600080fd5b600085013567ffffffffffffffff8111156146cf57600080fd5b6146db87828801614314565b94505060206146ec8782880161433e565b93505060406146fd8782880161433e565b925050606061470e8782880161433e565b91505092959194509250565b60006020828403121561472c57600080fd5b600061473a8482850161433e565b91505092915050565b6000806040838503121561475657600080fd5b60006147648582860161433e565b92505060206147758582860161433e565b9150509250929050565b614788816156ac565b82525050565b61479781615625565b82525050565b6147a681615613565b82525050565b6147b581615637565b82525050565b60006147c6826154b0565b6147d081856154c6565b93506147e0818560208601615703565b6147e981615884565b840191505092915050565b6000815461480181615736565b61480b81866154d7565b9450600182166000811461482657600181146148375761486a565b60ff1983168652818601935061486a565b6148408561549b565b60005b8381101561486257815481890152600182019150602081019050614843565b838801955050505b50505092915050565b61487c816156be565b82525050565b600061488d826154bb565b61489781856154e2565b93506148a7818560208601615703565b6148b081615884565b840191505092915050565b60006148c6826154bb565b6148d081856154f3565b93506148e0818560208601615703565b80840191505092915050565b60006148f9602d836154e2565b915061490482615895565b604082019050919050565b600061491c6001836154e2565b9150614927826158e4565b602082019050919050565b600061493f6002836154e2565b915061494a8261590d565b602082019050919050565b60006149626002836154e2565b915061496d82615936565b602082019050919050565b60006149856032836154e2565b91506149908261595f565b604082019050919050565b60006149a86026836154e2565b91506149b3826159ae565b604082019050919050565b60006149cb6002836154e2565b91506149d6826159fd565b602082019050919050565b60006149ee6025836154e2565b91506149f982615a26565b604082019050919050565b6000614a11601c836154e2565b9150614a1c82615a75565b602082019050919050565b6000614a346024836154e2565b9150614a3f82615a9e565b604082019050919050565b6000614a576019836154e2565b9150614a6282615aed565b602082019050919050565b6000614a7a6001836154e2565b9150614a8582615b16565b602082019050919050565b6000614a9d6002836154e2565b9150614aa882615b3f565b602082019050919050565b6000614ac06029836154e2565b9150614acb82615b68565b604082019050919050565b6000614ae36002836154e2565b9150614aee82615bb7565b602082019050919050565b6000614b06602e836154e2565b9150614b1182615be0565b604082019050919050565b6000614b296002836154e2565b9150614b3482615c2f565b602082019050919050565b6000614b4c6002836154e2565b9150614b5782615c58565b602082019050919050565b6000614b6f6002836154e2565b9150614b7a82615c81565b602082019050919050565b6000614b926020836154e2565b9150614b9d82615caa565b602082019050919050565b6000614bb56002836154e2565b9150614bc082615cd3565b602082019050919050565b6000614bd86002836154e2565b9150614be382615cfc565b602082019050919050565b6000614bfb6020836154e2565b9150614c0682615d25565b602082019050919050565b6000614c1e6001836154e2565b9150614c2982615d4e565b602082019050919050565b6000614c416018836154e2565b9150614c4c82615d77565b602082019050919050565b6000614c646021836154e2565b9150614c6f82615da0565b604082019050919050565b6000614c87603d836154e2565b9150614c9282615def565b604082019050919050565b6000614caa6001836154e2565b9150614cb582615e3e565b602082019050919050565b6000614ccd6001836154e2565b9150614cd882615e67565b602082019050919050565b6000614cf06002836154e2565b9150614cfb82615e90565b602082019050919050565b614d0f816156a2565b82525050565b6000614d2182846147f4565b915081905092915050565b6000614d3882846148bb565b915081905092915050565b6000614d4f82856148bb565b9150614d5b82846148bb565b91508190509392505050565b6000602082019050614d7c600083018461479d565b92915050565b6000602082019050614d97600083018461478e565b92915050565b6000604082019050614db2600083018561477f565b614dbf6020830184614d06565b9392505050565b6000606082019050614ddb600083018661479d565b614de8602083018561479d565b614df56040830184614d06565b949350505050565b6000608082019050614e12600083018761479d565b614e1f602083018661479d565b614e2c6040830185614d06565b8181036060830152614e3e81846147bb565b905095945050505050565b600060e082019050614e5e600083018a61479d565b8181036020830152614e708189614882565b90508181036040830152614e848188614882565b9050614e936060830187614d06565b614ea06080830186614873565b614ead60a0830185614d06565b614eba60c0830184614d06565b98975050505050505050565b6000604082019050614edb600083018561479d565b614ee86020830184614d06565b9392505050565b6000602082019050614f0460008301846147ac565b92915050565b60006020820190508181036000830152614f248184614882565b905092915050565b600060c0820190508181036000830152614f468189614882565b9050614f55602083018861479d565b614f62604083018761479d565b614f6f6060830186614d06565b614f7c6080830185614d06565b614f8960a0830184614d06565b979650505050505050565b60006040820190508181036000830152614fae8185614882565b9050614fbd6020830184614d06565b9392505050565b60006080820190508181036000830152614fde8187614882565b9050614fed6020830186614d06565b614ffa6040830185614d06565b6150076060830184614d06565b95945050505050565b60006020820190508181036000830152615029816148ec565b9050919050565b600060208201905081810360008301526150498161490f565b9050919050565b6000602082019050818103600083015261506981614932565b9050919050565b6000602082019050818103600083015261508981614955565b9050919050565b600060208201905081810360008301526150a981614978565b9050919050565b600060208201905081810360008301526150c98161499b565b9050919050565b600060208201905081810360008301526150e9816149be565b9050919050565b60006020820190508181036000830152615109816149e1565b9050919050565b6000602082019050818103600083015261512981614a04565b9050919050565b6000602082019050818103600083015261514981614a27565b9050919050565b6000602082019050818103600083015261516981614a4a565b9050919050565b6000602082019050818103600083015261518981614a6d565b9050919050565b600060208201905081810360008301526151a981614a90565b9050919050565b600060208201905081810360008301526151c981614ab3565b9050919050565b600060208201905081810360008301526151e981614ad6565b9050919050565b6000602082019050818103600083015261520981614af9565b9050919050565b6000602082019050818103600083015261522981614b1c565b9050919050565b6000602082019050818103600083015261524981614b3f565b9050919050565b6000602082019050818103600083015261526981614b62565b9050919050565b6000602082019050818103600083015261528981614b85565b9050919050565b600060208201905081810360008301526152a981614ba8565b9050919050565b600060208201905081810360008301526152c981614bcb565b9050919050565b600060208201905081810360008301526152e981614bee565b9050919050565b6000602082019050818103600083015261530981614c11565b9050919050565b6000602082019050818103600083015261532981614c34565b9050919050565b6000602082019050818103600083015261534981614c57565b9050919050565b6000602082019050818103600083015261536981614c7a565b9050919050565b6000602082019050818103600083015261538981614c9d565b9050919050565b600060208201905081810360008301526153a981614cc0565b9050919050565b600060208201905081810360008301526153c981614ce3565b9050919050565b60006020820190506153e56000830184614d06565b92915050565b60006040820190506154006000830185614d06565b61540d6020830184614d06565b9392505050565b600061541e61542f565b905061542a8282615768565b919050565b6000604051905090565b600067ffffffffffffffff82111561545457615453615855565b5b61545d82615884565b9050602081019050919050565b600067ffffffffffffffff82111561548557615484615855565b5b61548e82615884565b9050602081019050919050565b60008190508160005260206000209050919050565b600081519050919050565b600081519050919050565b600082825260208201905092915050565b600081905092915050565b600082825260208201905092915050565b600081905092915050565b6000615509826156a2565b9150615514836156a2565b9250827fffffffffffffffffffffffffffffffffffffffffffffffffffffffffffffffff0382111561554957615548615799565b5b828201905092915050565b600061555f826156a2565b915061556a836156a2565b92508261557a576155796157c8565b5b828204905092915050565b6000615590826156a2565b915061559b836156a2565b9250817fffffffffffffffffffffffffffffffffffffffffffffffffffffffffffffffff04831182151516156155d4576155d3615799565b5b828202905092915050565b60006155ea826156a2565b91506155f5836156a2565b92508282101561560857615607615799565b5b828203905092915050565b600061561e82615682565b9050919050565b600061563082615682565b9050919050565b60008115159050919050565b60007fffffffff0000000000000000000000000000000000000000000000000000000082169050919050565b600081905061567d82615eb9565b919050565b600073ffffffffffffffffffffffffffffffffffffffff82169050919050565b6000819050919050565b60006156b7826156d0565b9050919050565b60006156c98261566f565b9050919050565b60006156db826156e2565b9050919050565b60006156ed82615682565b9050919050565b82818337600083830152505050565b60005b83811015615721578082015181840152602081019050615706565b83811115615730576000848401525b50505050565b6000600282049050600182168061574e57607f821691505b6020821081141561576257615761615826565b5b50919050565b61577182615884565b810181811067ffffffffffffffff821117156157905761578f615855565b5b80604052505050565b7f4e487b7100000000000000000000000000000000000000000000000000000000600052601160045260246000fd5b7f4e487b7100000000000000000000000000000000000000000000000000000000600052601260045260246000fd5b7f4e487b7100000000000000000000000000000000000000000000000000000000600052602160045260246000fd5b7f4e487b7100000000000000000000000000000000000000000000000000000000600052602260045260246000fd5b7f4e487b7100000000000000000000000000000000000000000000000000000000600052604160045260246000fd5b6000601f19601f8301169050919050565b7f4552433732313a2063616c6c6572206973206e6f7420746f6b656e206f776e6560008201527f72206f7220617070726f76656400000000000000000000000000000000000000602082015250565b7f3400000000000000000000000000000000000000000000000000000000000000600082015250565b7f3130000000000000000000000000000000000000000000000000000000000000600082015250565b7f3135000000000000000000000000000000000000000000000000000000000000600082015250565b7f4552433732313a207472616e7366657220746f206e6f6e20455243373231526560008201527f63656976657220696d706c656d656e7465720000000000000000000000000000602082015250565b7f4f776e61626c653a206e6577206f776e657220697320746865207a65726f206160008201527f6464726573730000000000000000000000000000000000000000000000000000602082015250565b7f3136000000000000000000000000000000000000000000000000000000000000600082015250565b7f4552433732313a207472616e736665722066726f6d20696e636f72726563742060008201527f6f776e6572000000000000000000000000000000000000000000000000000000602082015250565b7f4552433732313a20746f6b656e20616c7265616479206d696e74656400000000600082015250565b7f4552433732313a207472616e7366657220746f20746865207a65726f2061646460008201527f7265737300000000000000000000000000000000000000000000000000000000602082015250565b7f4552433732313a20617070726f766520746f2063616c6c657200000000000000600082015250565b7f3700000000000000000000000000000000000000000000000000000000000000600082015250565b7f3134000000000000000000000000000000000000000000000000000000000000600082015250565b7f4552433732313a2061646472657373207a65726f206973206e6f74206120766160008201527f6c6964206f776e65720000000000000000000000000000000000000000000000602082015250565b7f3230000000000000000000000000000000000000000000000000000000000000600082015250565b7f45524337323155524953746f726167653a2055524920736574206f66206e6f6e60008201527f6578697374656e7420746f6b656e000000000000000000000000000000000000602082015250565b7f3131000000000000000000000000000000000000000000000000000000000000600082015250565b7f3133000000000000000000000000000000000000000000000000000000000000600082015250565b7f3132000000000000000000000000000000000000000000000000000000000000600082015250565b7f4552433732313a206d696e7420746f20746865207a65726f2061646472657373600082015250565b7f3138000000000000000000000000000000000000000000000000000000000000600082015250565b7f3139000000000000000000000000000000000000000000000000000000000000600082015250565b7f4f776e61626c653a2063616c6c6572206973206e6f7420746865206f776e6572600082015250565b7f3200000000000000000000000000000000000000000000000000000000000000600082015250565b7f4552433732313a20696e76616c696420746f6b656e2049440000000000000000600082015250565b7f4552433732313a20617070726f76616c20746f2063757272656e74206f776e6560008201527f7200000000000000000000000000000000000000000000000000000000000000602082015250565b7f4552433732313a20617070726f76652063616c6c6572206973206e6f7420746f60008201527f6b656e206f776e6572206f7220617070726f76656420666f7220616c6c000000602082015250565b7f3600000000000000000000000000000000000000000000000000000000000000600082015250565b7f3800000000000000000000000000000000000000000000000000000000000000600082015250565b7f3231000000000000000000000000000000000000000000000000000000000000600082015250565b60048110615eca57615ec96157f7565b5b50565b615ed681615613565b8114615ee157600080fd5b50565b615eed81615625565b8114615ef857600080fd5b50565b615f0481615637565b8114615f0f57600080fd5b50565b615f1b81615643565b8114615f2657600080fd5b50565b615f32816156a2565b8114615f3d57600080fd5b5056fea26469706673582212204dea76c35eb4341809cdfcad1381ce8853f20a4657be147c2b9aa5e5a2e7961064736f6c63430008040033",
  "linkReferences": {},
  "deployedLinkReferences": {}
}